{
  "address": "0x859aeA0eD4770aD2506D6026385a721C08FBD074",
  "abi": [
    {
      "inputs": [],
      "stateMutability": "nonpayable",
      "type": "constructor"
    },
    {
      "anonymous": false,
      "inputs": [
        {
          "indexed": true,
          "internalType": "address",
          "name": "owner",
          "type": "address"
        },
        {
          "indexed": true,
          "internalType": "address",
          "name": "approved",
          "type": "address"
        },
        {
          "indexed": true,
          "internalType": "uint256",
          "name": "tokenId",
          "type": "uint256"
        }
      ],
      "name": "Approval",
      "type": "event"
    },
    {
      "anonymous": false,
      "inputs": [
        {
          "indexed": true,
          "internalType": "address",
          "name": "owner",
          "type": "address"
        },
        {
          "indexed": true,
          "internalType": "address",
          "name": "operator",
          "type": "address"
        },
        {
          "indexed": false,
          "internalType": "bool",
          "name": "approved",
          "type": "bool"
        }
      ],
      "name": "ApprovalForAll",
      "type": "event"
    },
    {
      "anonymous": false,
      "inputs": [
        {
          "indexed": true,
          "internalType": "bytes32",
          "name": "role",
          "type": "bytes32"
        },
        {
          "indexed": true,
          "internalType": "bytes32",
          "name": "previousAdminRole",
          "type": "bytes32"
        },
        {
          "indexed": true,
          "internalType": "bytes32",
          "name": "newAdminRole",
          "type": "bytes32"
        }
      ],
      "name": "RoleAdminChanged",
      "type": "event"
    },
    {
      "anonymous": false,
      "inputs": [
        {
          "indexed": true,
          "internalType": "bytes32",
          "name": "role",
          "type": "bytes32"
        },
        {
          "indexed": true,
          "internalType": "address",
          "name": "account",
          "type": "address"
        },
        {
          "indexed": true,
          "internalType": "address",
          "name": "sender",
          "type": "address"
        }
      ],
      "name": "RoleGranted",
      "type": "event"
    },
    {
      "anonymous": false,
      "inputs": [
        {
          "indexed": true,
          "internalType": "bytes32",
          "name": "role",
          "type": "bytes32"
        },
        {
          "indexed": true,
          "internalType": "address",
          "name": "account",
          "type": "address"
        },
        {
          "indexed": true,
          "internalType": "address",
          "name": "sender",
          "type": "address"
        }
      ],
      "name": "RoleRevoked",
      "type": "event"
    },
    {
      "anonymous": false,
      "inputs": [
        {
          "indexed": true,
          "internalType": "address",
          "name": "from",
          "type": "address"
        },
        {
          "indexed": true,
          "internalType": "address",
          "name": "to",
          "type": "address"
        },
        {
          "indexed": true,
          "internalType": "uint256",
          "name": "tokenId",
          "type": "uint256"
        }
      ],
      "name": "Transfer",
      "type": "event"
    },
    {
      "inputs": [],
      "name": "DEFAULT_ADMIN_ROLE",
      "outputs": [
        {
          "internalType": "bytes32",
          "name": "",
          "type": "bytes32"
        }
      ],
      "stateMutability": "view",
      "type": "function"
    },
    {
      "inputs": [],
      "name": "MINTER",
      "outputs": [
        {
          "internalType": "bytes32",
          "name": "",
          "type": "bytes32"
        }
      ],
      "stateMutability": "view",
      "type": "function"
    },
    {
      "inputs": [
        {
          "internalType": "address",
          "name": "to",
          "type": "address"
        },
        {
          "internalType": "uint256",
          "name": "tokenId",
          "type": "uint256"
        }
      ],
      "name": "approve",
      "outputs": [],
      "stateMutability": "nonpayable",
      "type": "function"
    },
    {
      "inputs": [
        {
          "internalType": "uint256",
          "name": "id",
          "type": "uint256"
        }
      ],
      "name": "balanceLocked",
      "outputs": [
        {
          "internalType": "uint256",
          "name": "",
          "type": "uint256"
        }
      ],
      "stateMutability": "view",
      "type": "function"
    },
    {
      "inputs": [
        {
          "internalType": "address",
          "name": "owner",
          "type": "address"
        }
      ],
      "name": "balanceOf",
      "outputs": [
        {
          "internalType": "uint256",
          "name": "",
          "type": "uint256"
        }
      ],
      "stateMutability": "view",
      "type": "function"
    },
    {
      "inputs": [
        {
          "internalType": "uint256",
          "name": "id",
          "type": "uint256"
        }
      ],
      "name": "freeze",
      "outputs": [],
      "stateMutability": "nonpayable",
      "type": "function"
    },
    {
      "inputs": [
        {
          "internalType": "uint256",
          "name": "tokenId",
          "type": "uint256"
        }
      ],
      "name": "getApproved",
      "outputs": [
        {
          "internalType": "address",
          "name": "",
          "type": "address"
        }
      ],
      "stateMutability": "view",
      "type": "function"
    },
    {
      "inputs": [
        {
          "internalType": "bytes32",
          "name": "role",
          "type": "bytes32"
        }
      ],
      "name": "getRoleAdmin",
      "outputs": [
        {
          "internalType": "bytes32",
          "name": "",
          "type": "bytes32"
        }
      ],
      "stateMutability": "view",
      "type": "function"
    },
    {
      "inputs": [
        {
          "internalType": "bytes32",
          "name": "role",
          "type": "bytes32"
        },
        {
          "internalType": "address",
          "name": "account",
          "type": "address"
        }
      ],
      "name": "grantRole",
      "outputs": [],
      "stateMutability": "nonpayable",
      "type": "function"
    },
    {
      "inputs": [
        {
          "internalType": "bytes32",
          "name": "role",
          "type": "bytes32"
        },
        {
          "internalType": "address",
          "name": "account",
          "type": "address"
        }
      ],
      "name": "hasRole",
      "outputs": [
        {
          "internalType": "bool",
          "name": "",
          "type": "bool"
        }
      ],
      "stateMutability": "view",
      "type": "function"
    },
    {
      "inputs": [
        {
          "internalType": "string",
          "name": "name_",
          "type": "string"
        },
        {
          "internalType": "string",
          "name": "symbol_",
          "type": "string"
        },
        {
          "internalType": "address",
          "name": "copyrightToken",
          "type": "address"
        }
      ],
      "name": "initialize",
      "outputs": [],
      "stateMutability": "nonpayable",
      "type": "function"
    },
    {
      "inputs": [
        {
          "internalType": "address",
          "name": "owner",
          "type": "address"
        },
        {
          "internalType": "address",
          "name": "operator",
          "type": "address"
        }
      ],
      "name": "isApprovedForAll",
      "outputs": [
        {
          "internalType": "bool",
          "name": "",
          "type": "bool"
        }
      ],
      "stateMutability": "view",
      "type": "function"
    },
    {
      "inputs": [
        {
          "internalType": "address",
          "name": "to",
          "type": "address"
        },
        {
          "internalType": "uint256",
          "name": "amountTokens",
          "type": "uint256"
        },
        {
          "internalType": "string",
          "name": "uri",
          "type": "string"
        }
      ],
      "name": "mint",
      "outputs": [
        {
          "internalType": "uint256",
          "name": "",
          "type": "uint256"
        }
      ],
      "stateMutability": "nonpayable",
      "type": "function"
    },
    {
      "inputs": [],
      "name": "name",
      "outputs": [
        {
          "internalType": "string",
          "name": "",
          "type": "string"
        }
      ],
      "stateMutability": "view",
      "type": "function"
    },
    {
      "inputs": [
        {
          "internalType": "uint256",
          "name": "tokenId",
          "type": "uint256"
        }
      ],
      "name": "ownerOf",
      "outputs": [
        {
          "internalType": "address",
          "name": "",
          "type": "address"
        }
      ],
      "stateMutability": "view",
      "type": "function"
    },
    {
      "inputs": [
        {
          "internalType": "bytes32",
          "name": "role",
          "type": "bytes32"
        },
        {
          "internalType": "address",
          "name": "account",
          "type": "address"
        }
      ],
      "name": "renounceRole",
      "outputs": [],
      "stateMutability": "nonpayable",
      "type": "function"
    },
    {
      "inputs": [
        {
          "internalType": "bytes32",
          "name": "role",
          "type": "bytes32"
        },
        {
          "internalType": "address",
          "name": "account",
          "type": "address"
        }
      ],
      "name": "revokeRole",
      "outputs": [],
      "stateMutability": "nonpayable",
      "type": "function"
    },
    {
      "inputs": [
        {
          "internalType": "address",
          "name": "from",
          "type": "address"
        },
        {
          "internalType": "address",
          "name": "to",
          "type": "address"
        },
        {
          "internalType": "uint256",
          "name": "tokenId",
          "type": "uint256"
        }
      ],
      "name": "safeTransferFrom",
      "outputs": [],
      "stateMutability": "nonpayable",
      "type": "function"
    },
    {
      "inputs": [
        {
          "internalType": "address",
          "name": "from",
          "type": "address"
        },
        {
          "internalType": "address",
          "name": "to",
          "type": "address"
        },
        {
          "internalType": "uint256",
          "name": "tokenId",
          "type": "uint256"
        },
        {
          "internalType": "bytes",
          "name": "_data",
          "type": "bytes"
        }
      ],
      "name": "safeTransferFrom",
      "outputs": [],
      "stateMutability": "nonpayable",
      "type": "function"
    },
    {
      "inputs": [
        {
          "internalType": "address",
          "name": "operator",
          "type": "address"
        },
        {
          "internalType": "bool",
          "name": "approved",
          "type": "bool"
        }
      ],
      "name": "setApprovalForAll",
      "outputs": [],
      "stateMutability": "nonpayable",
      "type": "function"
    },
    {
      "inputs": [
        {
          "internalType": "bytes4",
          "name": "interfaceId",
          "type": "bytes4"
        }
      ],
      "name": "supportsInterface",
      "outputs": [
        {
          "internalType": "bool",
          "name": "",
          "type": "bool"
        }
      ],
      "stateMutability": "view",
      "type": "function"
    },
    {
      "inputs": [],
      "name": "symbol",
      "outputs": [
        {
          "internalType": "string",
          "name": "",
          "type": "string"
        }
      ],
      "stateMutability": "view",
      "type": "function"
    },
    {
      "inputs": [
        {
          "internalType": "uint256",
          "name": "tokenId",
          "type": "uint256"
        }
      ],
      "name": "tokenURI",
      "outputs": [
        {
          "internalType": "string",
          "name": "",
          "type": "string"
        }
      ],
      "stateMutability": "view",
      "type": "function"
    },
    {
      "inputs": [
        {
          "internalType": "address",
          "name": "from",
          "type": "address"
        },
        {
          "internalType": "address",
          "name": "to",
          "type": "address"
        },
        {
          "internalType": "uint256",
          "name": "tokenId",
          "type": "uint256"
        }
      ],
      "name": "transferFrom",
      "outputs": [],
      "stateMutability": "nonpayable",
      "type": "function"
    },
    {
      "inputs": [
        {
          "internalType": "uint256",
          "name": "id",
          "type": "uint256"
        }
      ],
      "name": "unfreeze",
      "outputs": [],
      "stateMutability": "nonpayable",
      "type": "function"
    }
  ],
  "transactionHash": "0x69ff39d5c150406548464b5d41fb90f6da918ea92a9c9891d2facda2515f6927",
  "args": [],
  "numDeployments": 1,
  "solcInputHash": "d75cb78d3090036566fedddd8891be90",
  "bytecode": "0x608060405234801561001057600080fd5b50612389806100206000396000f3fe608060405234801561001057600080fd5b50600436106101735760003560e01c80636623fc46116100de578063b88d4fde11610097578063d547741f11610071578063d547741f1461034d578063d7a78db814610360578063e985e9c514610373578063fe6d8124146103af57600080fd5b8063b88d4fde14610314578063c87b56dd14610327578063d3fc98641461033a57600080fd5b80636623fc46146102b857806370a08231146102cb57806391d14854146102de57806395d89b41146102f1578063a217fddf146102f9578063a22cb4651461030157600080fd5b806323b872dd1161013057806323b872dd14610236578063248a9ca3146102495780632f2ff15d1461026c57806336568abe1461027f57806342842e0e146102925780636352211e146102a557600080fd5b806301ffc9a71461017857806306fdde03146101a0578063077f224a146101b5578063081812fc146101ca578063095ea7b3146101f55780630becbabb14610208575b600080fd5b61018b610186366004611f60565b6103d6565b60405190151581526020015b60405180910390f35b6101a86103e7565b60405161019791906120fe565b6101c86101c3366004611f9a565b610479565b005b6101dd6101d8366004611f24565b610595565b6040516001600160a01b039091168152602001610197565b6101c8610203366004611e56565b61062a565b610228610216366004611f24565b600090815260cc602052604090205490565b604051908152602001610197565b6101c8610244366004611d67565b610740565b610228610257366004611f24565b60009081526097602052604090206001015490565b6101c861027a366004611f3d565b610771565b6101c861028d366004611f3d565b610797565b6101c86102a0366004611d67565b610815565b6101dd6102b3366004611f24565b610830565b6101c86102c6366004611f24565b6108a7565b6102286102d9366004611d19565b610992565b61018b6102ec366004611f3d565b610a19565b6101a8610a44565b610228600081565b6101c861030f366004611e1f565b610a53565b6101c8610322366004611da3565b610a5e565b6101a8610335366004611f24565b610a90565b610228610348366004611e80565b610bad565b6101c861035b366004611f3d565b610cbb565b6101c861036e366004611f24565b610ce1565b61018b610381366004611d34565b6001600160a01b039182166000908152606a6020908152604080832093909416825291909152205460ff1690565b6102287ff0887ba65ee2024ea881d91b74c2450ef19e1557f03bed3ea9f16b037cbe2dc981565b60006103e182610dcf565b92915050565b6060606580546103f690612290565b80601f016020809104026020016040519081016040528092919081815260200182805461042290612290565b801561046f5780601f106104445761010080835404028352916020019161046f565b820191906000526020600020905b81548152906001019060200180831161045257829003601f168201915b5050505050905090565b600054610100900460ff166104945760005460ff1615610498565b303b155b6105005760405162461bcd60e51b815260206004820152602e60248201527f496e697469616c697a61626c653a20636f6e747261637420697320616c72656160448201526d191e481a5b9a5d1a585b1a5e995960921b60648201526084015b60405180910390fd5b600054610100900460ff16158015610522576000805461ffff19166101011790555b61052c8484610df4565b610534610e35565b60c980546001600160a01b0319166001600160a01b03841690811790915561057d907ff0887ba65ee2024ea881d91b74c2450ef19e1557f03bed3ea9f16b037cbe2dc990610e76565b801561058f576000805461ff00191690555b50505050565b6000818152606760205260408120546001600160a01b031661060e5760405162461bcd60e51b815260206004820152602c60248201527f4552433732313a20617070726f76656420717565727920666f72206e6f6e657860448201526b34b9ba32b73a103a37b5b2b760a11b60648201526084016104f7565b506000908152606960205260409020546001600160a01b031690565b600061063582610830565b9050806001600160a01b0316836001600160a01b031614156106a35760405162461bcd60e51b815260206004820152602160248201527f4552433732313a20617070726f76616c20746f2063757272656e74206f776e656044820152603960f91b60648201526084016104f7565b336001600160a01b03821614806106bf57506106bf8133610381565b6107315760405162461bcd60e51b815260206004820152603860248201527f4552433732313a20617070726f76652063616c6c6572206973206e6f74206f7760448201527f6e6572206e6f7220617070726f76656420666f7220616c6c000000000000000060648201526084016104f7565b61073b8383610e80565b505050565b61074a3382610eee565b6107665760405162461bcd60e51b81526004016104f790612163565b61073b838383610fe5565b60008281526097602052604090206001015461078d8133611038565b61073b838361109c565b6001600160a01b03811633146108075760405162461bcd60e51b815260206004820152602f60248201527f416363657373436f6e74726f6c3a2063616e206f6e6c792072656e6f756e636560448201526e103937b632b9903337b91039b2b63360891b60648201526084016104f7565b6108118282611122565b5050565b61073b83838360405180602001604052806000815250610a5e565b6000818152606760205260408120546001600160a01b0316806103e15760405162461bcd60e51b815260206004820152602960248201527f4552433732313a206f776e657220717565727920666f72206e6f6e657869737460448201526832b73a103a37b5b2b760b91b60648201526084016104f7565b336108b182610830565b6001600160a01b0316146109075760405162461bcd60e51b815260206004820152601c60248201527f43616e206f6e6c7920756e667265657a65207768656e206f776e65720000000060448201526064016104f7565b600081815260cd602052604090205460ff166109525760405162461bcd60e51b815260206004820152600a6024820152692737ba10333937bd32b760b11b60448201526064016104f7565b600081815260cd60209081526040808320805460ff1916905560cc90915290205460c95461098f916001600160a01b039091169033903090611189565b50565b60006001600160a01b0382166109fd5760405162461bcd60e51b815260206004820152602a60248201527f4552433732313a2062616c616e636520717565727920666f7220746865207a65604482015269726f206164647265737360b01b60648201526084016104f7565b506001600160a01b031660009081526068602052604090205490565b60009182526097602090815260408084206001600160a01b0393909316845291905290205460ff1690565b6060606680546103f690612290565b6108113383836111f4565b610a683383610eee565b610a845760405162461bcd60e51b81526004016104f790612163565b61058f848484846112c3565b6000818152606760205260409020546060906001600160a01b0316610b0f5760405162461bcd60e51b815260206004820152602f60248201527f4552433732314d657461646174613a2055524920717565727920666f72206e6f60448201526e3732bc34b9ba32b73a103a37b5b2b760891b60648201526084016104f7565b600082815260cb602052604090208054610b2890612290565b80601f0160208091040260200160405190810160405280929190818152602001828054610b5490612290565b8015610ba15780601f10610b7657610100808354040283529160200191610ba1565b820191906000526020600020905b815481529060010190602001808311610b8457829003601f168201915b50505050509050919050565b60007ff0887ba65ee2024ea881d91b74c2450ef19e1557f03bed3ea9f16b037cbe2dc9610bda8133611038565b610bec670de0b6b3a7640000866122cb565b15610c485760405162461bcd60e51b815260206004820152602660248201527f43616e206f6e6c7920686f6c6420696e746567657220616d6f756e74206f6620604482015265746f6b656e7360d01b60648201526084016104f7565b610c5660ca80546001019055565b6000610c6160ca5490565b600081815260cb60205260409020909150610c7d908686611b5a565b50610c8887826112f6565b600081815260cc6020526040902086905560c954610cb1906001600160a01b0316883089611189565b9695505050505050565b600082815260976020526040902060010154610cd78133611038565b61073b8383611122565b33610ceb82610830565b6001600160a01b031614610d415760405162461bcd60e51b815260206004820152601a60248201527f43616e206f6e6c7920667265657a65207768656e206f776e657200000000000060448201526064016104f7565b600081815260cd602052604090205460ff1615610d915760405162461bcd60e51b815260206004820152600e60248201526d20b63932b0b23c90333937bd32b760911b60448201526064016104f7565b600081815260cd60209081526040808320805460ff1916600117905560cc90915290205460c95461098f916001600160a01b03909116903390611438565b60006001600160e01b03198216637965db0b60e01b14806103e157506103e182611468565b600054610100900460ff16610e1b5760405162461bcd60e51b81526004016104f7906121b4565b610e236114b8565b610e2b6114b8565b61081182826114df565b600054610100900460ff16610e5c5760405162461bcd60e51b81526004016104f7906121b4565b610e646114b8565b610e6c6114b8565b610e746114b8565b565b610811828261109c565b600081815260696020526040902080546001600160a01b0319166001600160a01b0384169081179091558190610eb582610830565b6001600160a01b03167f8c5be1e5ebec7d5bd14f71427d1e84f3dd0314c0f7b2291e5b200ac8c7c3b92560405160405180910390a45050565b6000818152606760205260408120546001600160a01b0316610f675760405162461bcd60e51b815260206004820152602c60248201527f4552433732313a206f70657261746f7220717565727920666f72206e6f6e657860448201526b34b9ba32b73a103a37b5b2b760a11b60648201526084016104f7565b6000610f7283610830565b9050806001600160a01b0316846001600160a01b03161480610fad5750836001600160a01b0316610fa284610595565b6001600160a01b0316145b80610fdd57506001600160a01b038082166000908152606a602090815260408083209388168352929052205460ff165b949350505050565b600081815260cd602052604090205460ff161561102d5760405162461bcd60e51b8152602060048201526006602482015265233937bd32b760d11b60448201526064016104f7565b61073b83838361152d565b6110428282610a19565b6108115761105a816001600160a01b031660146116cd565b6110658360206116cd565b604051602001611076929190612056565b60408051601f198184030181529082905262461bcd60e51b82526104f7916004016120fe565b6110a68282610a19565b6108115760008281526097602090815260408083206001600160a01b03851684529091529020805460ff191660011790556110de3390565b6001600160a01b0316816001600160a01b0316837f2f8788117e7eff1d82e926ec794901d17c78024a50270940304540a733656f0d60405160405180910390a45050565b61112c8282610a19565b156108115760008281526097602090815260408083206001600160a01b0385168085529252808320805460ff1916905551339285917ff6391f5c32d9c69d2a47ea670b442974b53935d1edc7fd64eb21e047a839171b9190a45050565b6040516001600160a01b038085166024830152831660448201526064810182905261058f9085906323b872dd60e01b906084015b60408051601f198184030181529190526020810180516001600160e01b03166001600160e01b031990931692909217909152611870565b816001600160a01b0316836001600160a01b031614156112565760405162461bcd60e51b815260206004820152601960248201527f4552433732313a20617070726f766520746f2063616c6c65720000000000000060448201526064016104f7565b6001600160a01b038381166000818152606a6020908152604080832094871680845294825291829020805460ff191686151590811790915591519182527f17307eab39ab6107e8899845ad3d59bd9653f200f220920489ca2b5937696c31910160405180910390a3505050565b6112ce848484610fe5565b6112da84848484611942565b61058f5760405162461bcd60e51b81526004016104f790612111565b6001600160a01b03821661134c5760405162461bcd60e51b815260206004820181905260248201527f4552433732313a206d696e7420746f20746865207a65726f206164647265737360448201526064016104f7565b6000818152606760205260409020546001600160a01b0316156113b15760405162461bcd60e51b815260206004820152601c60248201527f4552433732313a20746f6b656e20616c7265616479206d696e7465640000000060448201526064016104f7565b6001600160a01b03821660009081526068602052604081208054600192906113da9084906121ff565b909155505060008181526067602052604080822080546001600160a01b0319166001600160a01b03861690811790915590518392907fddf252ad1be2c89b69c2b068fc378daa952ba7f163c4a11628f55a4df523b3ef908290a45050565b6040516001600160a01b03831660248201526044810182905261073b90849063a9059cbb60e01b906064016111bd565b60006001600160e01b031982166380ac58cd60e01b148061149957506001600160e01b03198216635b5e139f60e01b145b806103e157506301ffc9a760e01b6001600160e01b03198316146103e1565b600054610100900460ff16610e745760405162461bcd60e51b81526004016104f7906121b4565b600054610100900460ff166115065760405162461bcd60e51b81526004016104f7906121b4565b8151611519906065906020850190611bde565b50805161073b906066906020840190611bde565b826001600160a01b031661154082610830565b6001600160a01b0316146115a85760405162461bcd60e51b815260206004820152602960248201527f4552433732313a207472616e73666572206f6620746f6b656e2074686174206960448201526839903737ba1037bbb760b91b60648201526084016104f7565b6001600160a01b03821661160a5760405162461bcd60e51b8152602060048201526024808201527f4552433732313a207472616e7366657220746f20746865207a65726f206164646044820152637265737360e01b60648201526084016104f7565b611615600082610e80565b6001600160a01b038316600090815260686020526040812080546001929061163e908490612236565b90915550506001600160a01b038216600090815260686020526040812080546001929061166c9084906121ff565b909155505060008181526067602052604080822080546001600160a01b0319166001600160a01b0386811691821790925591518493918716917fddf252ad1be2c89b69c2b068fc378daa952ba7f163c4a11628f55a4df523b3ef91a4505050565b606060006116dc836002612217565b6116e79060026121ff565b67ffffffffffffffff8111156116ff576116ff612319565b6040519080825280601f01601f191660200182016040528015611729576020820181803683370190505b509050600360fc1b8160008151811061174457611744612303565b60200101906001600160f81b031916908160001a905350600f60fb1b8160018151811061177357611773612303565b60200101906001600160f81b031916908160001a9053506000611797846002612217565b6117a29060016121ff565b90505b600181111561181a576f181899199a1a9b1b9c1cb0b131b232b360811b85600f16601081106117d6576117d6612303565b1a60f81b8282815181106117ec576117ec612303565b60200101906001600160f81b031916908160001a90535060049490941c9361181381612279565b90506117a5565b5083156118695760405162461bcd60e51b815260206004820181905260248201527f537472696e67733a20686578206c656e67746820696e73756666696369656e7460448201526064016104f7565b9392505050565b60006118c5826040518060400160405280602081526020017f5361666545524332303a206c6f772d6c6576656c2063616c6c206661696c6564815250856001600160a01b0316611a4f9092919063ffffffff16565b80519091501561073b57808060200190518101906118e39190611f07565b61073b5760405162461bcd60e51b815260206004820152602a60248201527f5361666545524332303a204552433230206f7065726174696f6e20646964206e6044820152691bdd081cdd58d8d9595960b21b60648201526084016104f7565b60006001600160a01b0384163b15611a4457604051630a85bd0160e11b81526001600160a01b0385169063150b7a02906119869033908990889088906004016120cb565b602060405180830381600087803b1580156119a057600080fd5b505af19250505080156119d0575060408051601f3d908101601f191682019092526119cd91810190611f7d565b60015b611a2a573d8080156119fe576040519150601f19603f3d011682016040523d82523d6000602084013e611a03565b606091505b508051611a225760405162461bcd60e51b81526004016104f790612111565b805181602001fd5b6001600160e01b031916630a85bd0160e11b149050610fdd565b506001949350505050565b6060610fdd848460008585843b611aa85760405162461bcd60e51b815260206004820152601d60248201527f416464726573733a2063616c6c20746f206e6f6e2d636f6e747261637400000060448201526064016104f7565b600080866001600160a01b03168587604051611ac4919061203a565b60006040518083038185875af1925050503d8060008114611b01576040519150601f19603f3d011682016040523d82523d6000602084013e611b06565b606091505b5091509150611b16828286611b21565b979650505050505050565b60608315611b30575081611869565b825115611b405782518084602001fd5b8160405162461bcd60e51b81526004016104f791906120fe565b828054611b6690612290565b90600052602060002090601f016020900481019282611b885760008555611bce565b82601f10611ba15782800160ff19823516178555611bce565b82800160010185558215611bce579182015b82811115611bce578235825591602001919060010190611bb3565b50611bda929150611c52565b5090565b828054611bea90612290565b90600052602060002090601f016020900481019282611c0c5760008555611bce565b82601f10611c2557805160ff1916838001178555611bce565b82800160010185558215611bce579182015b82811115611bce578251825591602001919060010190611c37565b5b80821115611bda5760008155600101611c53565b600067ffffffffffffffff80841115611c8257611c82612319565b604051601f8501601f19908116603f01168101908282118183101715611caa57611caa612319565b81604052809350858152868686011115611cc357600080fd5b858560208301376000602087830101525050509392505050565b80356001600160a01b0381168114611cf457600080fd5b919050565b600082601f830112611d0a57600080fd5b61186983833560208501611c67565b600060208284031215611d2b57600080fd5b61186982611cdd565b60008060408385031215611d4757600080fd5b611d5083611cdd565b9150611d5e60208401611cdd565b90509250929050565b600080600060608486031215611d7c57600080fd5b611d8584611cdd565b9250611d9360208501611cdd565b9150604084013590509250925092565b60008060008060808587031215611db957600080fd5b611dc285611cdd565b9350611dd060208601611cdd565b925060408501359150606085013567ffffffffffffffff811115611df357600080fd5b8501601f81018713611e0457600080fd5b611e1387823560208401611c67565b91505092959194509250565b60008060408385031215611e3257600080fd5b611e3b83611cdd565b91506020830135611e4b8161232f565b809150509250929050565b60008060408385031215611e6957600080fd5b611e7283611cdd565b946020939093013593505050565b60008060008060608587031215611e9657600080fd5b611e9f85611cdd565b935060208501359250604085013567ffffffffffffffff80821115611ec357600080fd5b818701915087601f830112611ed757600080fd5b813581811115611ee657600080fd5b886020828501011115611ef857600080fd5b95989497505060200194505050565b600060208284031215611f1957600080fd5b81516118698161232f565b600060208284031215611f3657600080fd5b5035919050565b60008060408385031215611f5057600080fd5b82359150611d5e60208401611cdd565b600060208284031215611f7257600080fd5b81356118698161233d565b600060208284031215611f8f57600080fd5b81516118698161233d565b600080600060608486031215611faf57600080fd5b833567ffffffffffffffff80821115611fc757600080fd5b611fd387838801611cf9565b94506020860135915080821115611fe957600080fd5b50611ff686828701611cf9565b92505061200560408501611cdd565b90509250925092565b6000815180845261202681602086016020860161224d565b601f01601f19169290920160200192915050565b6000825161204c81846020870161224d565b9190910192915050565b7f416363657373436f6e74726f6c3a206163636f756e742000000000000000000081526000835161208e81601785016020880161224d565b7001034b99036b4b9b9b4b733903937b6329607d1b60179184019182015283516120bf81602884016020880161224d565b01602801949350505050565b6001600160a01b0385811682528416602082015260408101839052608060608201819052600090610cb19083018461200e565b602081526000611869602083018461200e565b60208082526032908201527f4552433732313a207472616e7366657220746f206e6f6e20455243373231526560408201527131b2b4bb32b91034b6b83632b6b2b73a32b960711b606082015260800190565b60208082526031908201527f4552433732313a207472616e736665722063616c6c6572206973206e6f74206f6040820152701ddb995c881b9bdc88185c1c1c9bdd9959607a1b606082015260800190565b6020808252602b908201527f496e697469616c697a61626c653a20636f6e7472616374206973206e6f74206960408201526a6e697469616c697a696e6760a81b606082015260800190565b60008219821115612212576122126122ed565b500190565b6000816000190483118215151615612231576122316122ed565b500290565b600082821015612248576122486122ed565b500390565b60005b83811015612268578181015183820152602001612250565b8381111561058f5750506000910152565b600081612288576122886122ed565b506000190190565b600181811c908216806122a457607f821691505b602082108114156122c557634e487b7160e01b600052602260045260246000fd5b50919050565b6000826122e857634e487b7160e01b600052601260045260246000fd5b500690565b634e487b7160e01b600052601160045260246000fd5b634e487b7160e01b600052603260045260246000fd5b634e487b7160e01b600052604160045260246000fd5b801515811461098f57600080fd5b6001600160e01b03198116811461098f57600080fdfea2646970667358221220e07bbfa1bafa8c479aa670c733a503daca5bec2c667d7dd78e5f8f2122e6f61264736f6c63430008060033",
  "devdoc": {
    "kind": "dev",
    "methods": {
      "approve(address,uint256)": {
        "details": "See {IERC721-approve}."
      },
      "balanceOf(address)": {
        "details": "See {IERC721-balanceOf}."
      },
      "getApproved(uint256)": {
        "details": "See {IERC721-getApproved}."
      },
      "getRoleAdmin(bytes32)": {
        "details": "Returns the admin role that controls `role`. See {grantRole} and {revokeRole}. To change a role's admin, use {_setRoleAdmin}."
      },
      "grantRole(bytes32,address)": {
        "details": "Grants `role` to `account`. If `account` had not been already granted `role`, emits a {RoleGranted} event. Requirements: - the caller must have ``role``'s admin role."
      },
      "hasRole(bytes32,address)": {
        "details": "Returns `true` if `account` has been granted `role`."
      },
      "isApprovedForAll(address,address)": {
        "details": "See {IERC721-isApprovedForAll}."
      },
      "name()": {
        "details": "See {IERC721Metadata-name}."
      },
      "ownerOf(uint256)": {
        "details": "See {IERC721-ownerOf}."
      },
      "renounceRole(bytes32,address)": {
        "details": "Revokes `role` from the calling account. Roles are often managed via {grantRole} and {revokeRole}: this function's purpose is to provide a mechanism for accounts to lose their privileges if they are compromised (such as when a trusted device is misplaced). If the calling account had been revoked `role`, emits a {RoleRevoked} event. Requirements: - the caller must be `account`."
      },
      "revokeRole(bytes32,address)": {
        "details": "Revokes `role` from `account`. If `account` had been granted `role`, emits a {RoleRevoked} event. Requirements: - the caller must have ``role``'s admin role."
      },
      "safeTransferFrom(address,address,uint256)": {
        "details": "See {IERC721-safeTransferFrom}."
      },
      "safeTransferFrom(address,address,uint256,bytes)": {
        "details": "See {IERC721-safeTransferFrom}."
      },
      "setApprovalForAll(address,bool)": {
        "details": "See {IERC721-setApprovalForAll}."
      },
      "symbol()": {
        "details": "See {IERC721Metadata-symbol}."
      },
      "tokenURI(uint256)": {
        "details": "See {IERC721Metadata-tokenURI}."
      },
      "transferFrom(address,address,uint256)": {
        "details": "See {IERC721-transferFrom}."
      }
    },
    "version": 1
  },
  "userdoc": {
    "kind": "user",
    "methods": {
      "freeze(uint256)": {
        "notice": "freezes the NFT, transferring all copyright tokens out of it to the owner, disabling ability to transfer it."
      },
      "mint(address,uint256,string)": {
        "notice": "creates a new NFT with amountTokens copyright tokens in holdings"
      },
      "unfreeze(uint256)": {
        "notice": "unfreezes the NFT by transferring proper amount of copyright tokens from the owner, enabling ability to transfer it."
      }
    },
    "version": 1
  },
  "storageLayout": {
    "storage": [
      {
        "astId": 950,
        "contract": "contracts/implementations/CopyrightNFT.sol:CopyrightNFT",
        "label": "_initialized",
        "offset": 0,
        "slot": "0",
        "type": "t_bool"
      },
      {
        "astId": 953,
        "contract": "contracts/implementations/CopyrightNFT.sol:CopyrightNFT",
        "label": "_initializing",
        "offset": 1,
        "slot": "0",
        "type": "t_bool"
      },
      {
        "astId": 4119,
        "contract": "contracts/implementations/CopyrightNFT.sol:CopyrightNFT",
        "label": "__gap",
        "offset": 0,
        "slot": "1",
        "type": "t_array(t_uint256)50_storage"
      },
      {
        "astId": 5255,
        "contract": "contracts/implementations/CopyrightNFT.sol:CopyrightNFT",
        "label": "__gap",
        "offset": 0,
        "slot": "51",
        "type": "t_array(t_uint256)50_storage"
      },
      {
        "astId": 2838,
        "contract": "contracts/implementations/CopyrightNFT.sol:CopyrightNFT",
        "label": "_name",
        "offset": 0,
        "slot": "101",
        "type": "t_string_storage"
      },
      {
        "astId": 2840,
        "contract": "contracts/implementations/CopyrightNFT.sol:CopyrightNFT",
        "label": "_symbol",
        "offset": 0,
        "slot": "102",
        "type": "t_string_storage"
      },
      {
        "astId": 2844,
        "contract": "contracts/implementations/CopyrightNFT.sol:CopyrightNFT",
        "label": "_owners",
        "offset": 0,
        "slot": "103",
        "type": "t_mapping(t_uint256,t_address)"
      },
      {
        "astId": 2848,
        "contract": "contracts/implementations/CopyrightNFT.sol:CopyrightNFT",
        "label": "_balances",
        "offset": 0,
        "slot": "104",
        "type": "t_mapping(t_address,t_uint256)"
      },
      {
        "astId": 2852,
        "contract": "contracts/implementations/CopyrightNFT.sol:CopyrightNFT",
        "label": "_tokenApprovals",
        "offset": 0,
        "slot": "105",
        "type": "t_mapping(t_uint256,t_address)"
      },
      {
        "astId": 2858,
        "contract": "contracts/implementations/CopyrightNFT.sol:CopyrightNFT",
        "label": "_operatorApprovals",
        "offset": 0,
        "slot": "106",
        "type": "t_mapping(t_address,t_mapping(t_address,t_bool))"
      },
      {
        "astId": 3669,
        "contract": "contracts/implementations/CopyrightNFT.sol:CopyrightNFT",
        "label": "__gap",
        "offset": 0,
        "slot": "107",
        "type": "t_array(t_uint256)44_storage"
      },
      {
        "astId": 48,
        "contract": "contracts/implementations/CopyrightNFT.sol:CopyrightNFT",
        "label": "_roles",
        "offset": 0,
        "slot": "151",
        "type": "t_mapping(t_bytes32,t_struct(RoleData)43_storage)"
      },
      {
        "astId": 335,
        "contract": "contracts/implementations/CopyrightNFT.sol:CopyrightNFT",
        "label": "__gap",
        "offset": 0,
        "slot": "152",
        "type": "t_array(t_uint256)49_storage"
      },
      {
        "astId": 11718,
        "contract": "contracts/implementations/CopyrightNFT.sol:CopyrightNFT",
        "label": "_copyrightToken",
        "offset": 0,
        "slot": "201",
        "type": "t_address"
      },
      {
        "astId": 11721,
        "contract": "contracts/implementations/CopyrightNFT.sol:CopyrightNFT",
        "label": "idGen",
        "offset": 0,
        "slot": "202",
        "type": "t_struct(Counter)7695_storage"
      },
      {
        "astId": 11725,
        "contract": "contracts/implementations/CopyrightNFT.sol:CopyrightNFT",
        "label": "tokenToUri",
        "offset": 0,
        "slot": "203",
        "type": "t_mapping(t_uint256,t_string_storage)"
      },
      {
        "astId": 11729,
        "contract": "contracts/implementations/CopyrightNFT.sol:CopyrightNFT",
        "label": "_holdings",
        "offset": 0,
        "slot": "204",
        "type": "t_mapping(t_uint256,t_uint256)"
      },
      {
        "astId": 11733,
        "contract": "contracts/implementations/CopyrightNFT.sol:CopyrightNFT",
        "label": "_frozen",
        "offset": 0,
        "slot": "205",
        "type": "t_mapping(t_uint256,t_bool)"
      }
    ],
    "types": {
      "t_address": {
        "encoding": "inplace",
        "label": "address",
        "numberOfBytes": "20"
      },
      "t_array(t_uint256)44_storage": {
        "base": "t_uint256",
        "encoding": "inplace",
        "label": "uint256[44]",
        "numberOfBytes": "1408"
      },
      "t_array(t_uint256)49_storage": {
        "base": "t_uint256",
        "encoding": "inplace",
        "label": "uint256[49]",
        "numberOfBytes": "1568"
      },
      "t_array(t_uint256)50_storage": {
        "base": "t_uint256",
        "encoding": "inplace",
        "label": "uint256[50]",
        "numberOfBytes": "1600"
      },
      "t_bool": {
        "encoding": "inplace",
        "label": "bool",
        "numberOfBytes": "1"
      },
      "t_bytes32": {
        "encoding": "inplace",
        "label": "bytes32",
        "numberOfBytes": "32"
      },
      "t_mapping(t_address,t_bool)": {
        "encoding": "mapping",
        "key": "t_address",
        "label": "mapping(address => bool)",
        "numberOfBytes": "32",
        "value": "t_bool"
      },
      "t_mapping(t_address,t_mapping(t_address,t_bool))": {
        "encoding": "mapping",
        "key": "t_address",
        "label": "mapping(address => mapping(address => bool))",
        "numberOfBytes": "32",
        "value": "t_mapping(t_address,t_bool)"
      },
      "t_mapping(t_address,t_uint256)": {
        "encoding": "mapping",
        "key": "t_address",
        "label": "mapping(address => uint256)",
        "numberOfBytes": "32",
        "value": "t_uint256"
      },
      "t_mapping(t_bytes32,t_struct(RoleData)43_storage)": {
        "encoding": "mapping",
        "key": "t_bytes32",
        "label": "mapping(bytes32 => struct AccessControlUpgradeable.RoleData)",
        "numberOfBytes": "32",
        "value": "t_struct(RoleData)43_storage"
      },
      "t_mapping(t_uint256,t_address)": {
        "encoding": "mapping",
        "key": "t_uint256",
        "label": "mapping(uint256 => address)",
        "numberOfBytes": "32",
        "value": "t_address"
      },
      "t_mapping(t_uint256,t_bool)": {
        "encoding": "mapping",
        "key": "t_uint256",
        "label": "mapping(uint256 => bool)",
        "numberOfBytes": "32",
        "value": "t_bool"
      },
      "t_mapping(t_uint256,t_string_storage)": {
        "encoding": "mapping",
        "key": "t_uint256",
        "label": "mapping(uint256 => string)",
        "numberOfBytes": "32",
        "value": "t_string_storage"
      },
      "t_mapping(t_uint256,t_uint256)": {
        "encoding": "mapping",
        "key": "t_uint256",
        "label": "mapping(uint256 => uint256)",
        "numberOfBytes": "32",
        "value": "t_uint256"
      },
      "t_string_storage": {
        "encoding": "bytes",
        "label": "string",
        "numberOfBytes": "32"
      },
      "t_struct(Counter)7695_storage": {
        "encoding": "inplace",
        "label": "struct Counters.Counter",
        "members": [
          {
            "astId": 7694,
            "contract": "contracts/implementations/CopyrightNFT.sol:CopyrightNFT",
            "label": "_value",
            "offset": 0,
            "slot": "0",
            "type": "t_uint256"
          }
        ],
        "numberOfBytes": "32"
      },
      "t_struct(RoleData)43_storage": {
        "encoding": "inplace",
        "label": "struct AccessControlUpgradeable.RoleData",
        "members": [
          {
            "astId": 40,
            "contract": "contracts/implementations/CopyrightNFT.sol:CopyrightNFT",
            "label": "members",
            "offset": 0,
            "slot": "0",
            "type": "t_mapping(t_address,t_bool)"
          },
          {
            "astId": 42,
            "contract": "contracts/implementations/CopyrightNFT.sol:CopyrightNFT",
            "label": "adminRole",
            "offset": 0,
            "slot": "1",
            "type": "t_bytes32"
          }
        ],
        "numberOfBytes": "64"
      },
      "t_uint256": {
        "encoding": "inplace",
        "label": "uint256",
        "numberOfBytes": "32"
      }
    }
  }
}