{
  "address": "0x3Ca3cD65e9e061Eb615ee172F640F4FB440048F9",
  "abi": [
    {
      "inputs": [],
      "stateMutability": "nonpayable",
      "type": "constructor"
    },
    {
      "anonymous": false,
      "inputs": [
        {
          "indexed": true,
          "internalType": "address",
          "name": "owner",
          "type": "address"
        },
        {
          "indexed": true,
          "internalType": "address",
          "name": "spender",
          "type": "address"
        },
        {
          "indexed": false,
          "internalType": "uint256",
          "name": "value",
          "type": "uint256"
        }
      ],
      "name": "Approval",
      "type": "event"
    },
    {
      "anonymous": false,
      "inputs": [
        {
          "indexed": true,
          "internalType": "address",
          "name": "owner",
          "type": "address"
        },
        {
          "indexed": false,
          "internalType": "address",
          "name": "nft",
          "type": "address"
        },
        {
          "indexed": true,
          "internalType": "uint256",
          "name": "nftId",
          "type": "uint256"
        },
        {
          "indexed": false,
          "internalType": "uint256",
          "name": "amount",
          "type": "uint256"
        }
      ],
      "name": "Combined",
      "type": "event"
    },
    {
      "anonymous": false,
      "inputs": [
        {
          "indexed": false,
          "internalType": "address",
          "name": "account",
          "type": "address"
        }
      ],
      "name": "Paused",
      "type": "event"
    },
    {
      "anonymous": false,
      "inputs": [
        {
          "indexed": true,
          "internalType": "bytes32",
          "name": "role",
          "type": "bytes32"
        },
        {
          "indexed": true,
          "internalType": "bytes32",
          "name": "previousAdminRole",
          "type": "bytes32"
        },
        {
          "indexed": true,
          "internalType": "bytes32",
          "name": "newAdminRole",
          "type": "bytes32"
        }
      ],
      "name": "RoleAdminChanged",
      "type": "event"
    },
    {
      "anonymous": false,
      "inputs": [
        {
          "indexed": true,
          "internalType": "bytes32",
          "name": "role",
          "type": "bytes32"
        },
        {
          "indexed": true,
          "internalType": "address",
          "name": "account",
          "type": "address"
        },
        {
          "indexed": true,
          "internalType": "address",
          "name": "sender",
          "type": "address"
        }
      ],
      "name": "RoleGranted",
      "type": "event"
    },
    {
      "anonymous": false,
      "inputs": [
        {
          "indexed": true,
          "internalType": "bytes32",
          "name": "role",
          "type": "bytes32"
        },
        {
          "indexed": true,
          "internalType": "address",
          "name": "account",
          "type": "address"
        },
        {
          "indexed": true,
          "internalType": "address",
          "name": "sender",
          "type": "address"
        }
      ],
      "name": "RoleRevoked",
      "type": "event"
    },
    {
      "anonymous": false,
      "inputs": [
        {
          "indexed": true,
          "internalType": "address",
          "name": "from",
          "type": "address"
        },
        {
          "indexed": true,
          "internalType": "address",
          "name": "to",
          "type": "address"
        },
        {
          "indexed": false,
          "internalType": "uint256",
          "name": "value",
          "type": "uint256"
        }
      ],
      "name": "Transfer",
      "type": "event"
    },
    {
      "anonymous": false,
      "inputs": [
        {
          "indexed": false,
          "internalType": "address",
          "name": "account",
          "type": "address"
        }
      ],
      "name": "Unpaused",
      "type": "event"
    },
    {
      "inputs": [],
      "name": "DEFAULT_ADMIN_ROLE",
      "outputs": [
        {
          "internalType": "bytes32",
          "name": "",
          "type": "bytes32"
        }
      ],
      "stateMutability": "view",
      "type": "function"
    },
    {
      "inputs": [],
      "name": "WITHDRAW_MANAGER_ROLE",
      "outputs": [
        {
          "internalType": "bytes32",
          "name": "",
          "type": "bytes32"
        }
      ],
      "stateMutability": "view",
      "type": "function"
    },
    {
      "inputs": [
        {
          "internalType": "address",
          "name": "owner",
          "type": "address"
        },
        {
          "internalType": "address",
          "name": "spender",
          "type": "address"
        }
      ],
      "name": "allowance",
      "outputs": [
        {
          "internalType": "uint256",
          "name": "",
          "type": "uint256"
        }
      ],
      "stateMutability": "view",
      "type": "function"
    },
    {
      "inputs": [
        {
          "internalType": "address",
          "name": "spender",
          "type": "address"
        },
        {
          "internalType": "uint256",
          "name": "amount",
          "type": "uint256"
        }
      ],
      "name": "approve",
      "outputs": [
        {
          "internalType": "bool",
          "name": "",
          "type": "bool"
        }
      ],
      "stateMutability": "nonpayable",
      "type": "function"
    },
    {
      "inputs": [
        {
          "internalType": "address",
          "name": "account",
          "type": "address"
        }
      ],
      "name": "balanceOf",
      "outputs": [
        {
          "internalType": "uint256",
          "name": "",
          "type": "uint256"
        }
      ],
      "stateMutability": "view",
      "type": "function"
    },
    {
      "inputs": [
        {
          "internalType": "address",
          "name": "to",
          "type": "address"
        },
        {
          "internalType": "uint256",
          "name": "amount",
          "type": "uint256"
        }
      ],
      "name": "burn",
      "outputs": [],
      "stateMutability": "nonpayable",
      "type": "function"
    },
    {
      "inputs": [
        {
          "internalType": "uint256",
          "name": "amount",
          "type": "uint256"
        },
        {
          "internalType": "string",
          "name": "uri",
          "type": "string"
        }
      ],
      "name": "combine",
      "outputs": [],
      "stateMutability": "nonpayable",
      "type": "function"
    },
    {
      "inputs": [],
      "name": "decimals",
      "outputs": [
        {
          "internalType": "uint8",
          "name": "",
          "type": "uint8"
        }
      ],
      "stateMutability": "view",
      "type": "function"
    },
    {
      "inputs": [
        {
          "internalType": "address",
          "name": "spender",
          "type": "address"
        },
        {
          "internalType": "uint256",
          "name": "subtractedValue",
          "type": "uint256"
        }
      ],
      "name": "decreaseAllowance",
      "outputs": [
        {
          "internalType": "bool",
          "name": "",
          "type": "bool"
        }
      ],
      "stateMutability": "nonpayable",
      "type": "function"
    },
    {
      "inputs": [
        {
          "internalType": "bytes32",
          "name": "role",
          "type": "bytes32"
        }
      ],
      "name": "getRoleAdmin",
      "outputs": [
        {
          "internalType": "bytes32",
          "name": "",
          "type": "bytes32"
        }
      ],
      "stateMutability": "view",
      "type": "function"
    },
    {
      "inputs": [
        {
          "internalType": "bytes32",
          "name": "role",
          "type": "bytes32"
        },
        {
          "internalType": "address",
          "name": "account",
          "type": "address"
        }
      ],
      "name": "grantRole",
      "outputs": [],
      "stateMutability": "nonpayable",
      "type": "function"
    },
    {
      "inputs": [
        {
          "internalType": "bytes32",
          "name": "role",
          "type": "bytes32"
        },
        {
          "internalType": "address",
          "name": "account",
          "type": "address"
        }
      ],
      "name": "hasRole",
      "outputs": [
        {
          "internalType": "bool",
          "name": "",
          "type": "bool"
        }
      ],
      "stateMutability": "view",
      "type": "function"
    },
    {
      "inputs": [
        {
          "internalType": "address",
          "name": "spender",
          "type": "address"
        },
        {
          "internalType": "uint256",
          "name": "addedValue",
          "type": "uint256"
        }
      ],
      "name": "increaseAllowance",
      "outputs": [
        {
          "internalType": "bool",
          "name": "",
          "type": "bool"
        }
      ],
      "stateMutability": "nonpayable",
      "type": "function"
    },
    {
      "inputs": [
        {
          "internalType": "string",
          "name": "_name",
          "type": "string"
        },
        {
          "internalType": "string",
          "name": "_symbol",
          "type": "string"
        },
        {
          "internalType": "address",
          "name": "copyrightNFT",
          "type": "address"
        },
        {
          "internalType": "address",
          "name": "stakingNFT",
          "type": "address"
        },
        {
          "internalType": "address",
          "name": "manager",
          "type": "address"
        }
      ],
      "name": "initialize",
      "outputs": [],
      "stateMutability": "nonpayable",
      "type": "function"
    },
    {
      "inputs": [
        {
          "internalType": "address",
          "name": "to",
          "type": "address"
        },
        {
          "internalType": "uint256",
          "name": "amount",
          "type": "uint256"
        }
      ],
      "name": "mint",
      "outputs": [],
      "stateMutability": "nonpayable",
      "type": "function"
    },
    {
      "inputs": [],
      "name": "name",
      "outputs": [
        {
          "internalType": "string",
          "name": "",
          "type": "string"
        }
      ],
      "stateMutability": "view",
      "type": "function"
    },
    {
      "inputs": [],
      "name": "pause",
      "outputs": [],
      "stateMutability": "nonpayable",
      "type": "function"
    },
    {
      "inputs": [],
      "name": "paused",
      "outputs": [
        {
          "internalType": "bool",
          "name": "",
          "type": "bool"
        }
      ],
      "stateMutability": "view",
      "type": "function"
    },
    {
      "inputs": [
        {
          "internalType": "bytes32",
          "name": "role",
          "type": "bytes32"
        },
        {
          "internalType": "address",
          "name": "account",
          "type": "address"
        }
      ],
      "name": "renounceRole",
      "outputs": [],
      "stateMutability": "nonpayable",
      "type": "function"
    },
    {
      "inputs": [
        {
          "internalType": "address",
          "name": "investor",
          "type": "address"
        },
        {
          "internalType": "address",
          "name": "fundingToken",
          "type": "address"
        },
        {
          "internalType": "uint256",
          "name": "amount",
          "type": "uint256"
        }
      ],
      "name": "returnFunds",
      "outputs": [],
      "stateMutability": "nonpayable",
      "type": "function"
    },
    {
      "inputs": [
        {
          "internalType": "bytes32",
          "name": "role",
          "type": "bytes32"
        },
        {
          "internalType": "address",
          "name": "account",
          "type": "address"
        }
      ],
      "name": "revokeRole",
      "outputs": [],
      "stateMutability": "nonpayable",
      "type": "function"
    },
    {
      "inputs": [
        {
          "internalType": "bytes4",
          "name": "interfaceId",
          "type": "bytes4"
        }
      ],
      "name": "supportsInterface",
      "outputs": [
        {
          "internalType": "bool",
          "name": "",
          "type": "bool"
        }
      ],
      "stateMutability": "view",
      "type": "function"
    },
    {
      "inputs": [],
      "name": "symbol",
      "outputs": [
        {
          "internalType": "string",
          "name": "",
          "type": "string"
        }
      ],
      "stateMutability": "view",
      "type": "function"
    },
    {
      "inputs": [],
      "name": "totalSupply",
      "outputs": [
        {
          "internalType": "uint256",
          "name": "",
          "type": "uint256"
        }
      ],
      "stateMutability": "view",
      "type": "function"
    },
    {
      "inputs": [
        {
          "internalType": "address",
          "name": "recipient",
          "type": "address"
        },
        {
          "internalType": "uint256",
          "name": "amount",
          "type": "uint256"
        }
      ],
      "name": "transfer",
      "outputs": [
        {
          "internalType": "bool",
          "name": "",
          "type": "bool"
        }
      ],
      "stateMutability": "nonpayable",
      "type": "function"
    },
    {
      "inputs": [
        {
          "internalType": "address",
          "name": "to",
          "type": "address"
        },
        {
          "internalType": "uint256",
          "name": "amount",
          "type": "uint256"
        },
        {
          "internalType": "address",
          "name": "tokenAddress",
          "type": "address"
        }
      ],
      "name": "transferContractBalance",
      "outputs": [],
      "stateMutability": "nonpayable",
      "type": "function"
    },
    {
      "inputs": [
        {
          "internalType": "address",
          "name": "sender",
          "type": "address"
        },
        {
          "internalType": "address",
          "name": "recipient",
          "type": "address"
        },
        {
          "internalType": "uint256",
          "name": "amount",
          "type": "uint256"
        }
      ],
      "name": "transferFrom",
      "outputs": [
        {
          "internalType": "bool",
          "name": "",
          "type": "bool"
        }
      ],
      "stateMutability": "nonpayable",
      "type": "function"
    },
    {
      "inputs": [],
      "name": "unpause",
      "outputs": [],
      "stateMutability": "nonpayable",
      "type": "function"
    }
  ],
  "transactionHash": "0x7177adaa34f2bee9540ac8fc3fb5b1605b91de3aadaacb675fbf42674c4ec251",
  "args": [],
  "numDeployments": 1,
  "solcInputHash": "d75cb78d3090036566fedddd8891be90",
  "bytecode": "0x608060405234801561001057600080fd5b50611fa0806100206000396000f3fe608060405234801561001057600080fd5b50600436106101c45760003560e01c80638456cb59116100f9578063c575bfa511610097578063db0ed6a011610071578063db0ed6a014610397578063dd62ed3e146103aa578063e1b08619146103e3578063f71165ad1461040a57600080fd5b8063c575bfa51461035e578063cfc82dab14610371578063d547741f1461038457600080fd5b80639dc29fac116100d35780639dc29fac1461031d578063a217fddf14610330578063a457c2d714610338578063a9059cbb1461034b57600080fd5b80638456cb59146102fa57806391d148541461030257806395d89b411461031557600080fd5b8063313ce567116101665780633f4ba83a116101405780633f4ba83a146102ab57806340c10f19146102b35780635c975abb146102c657806370a08231146102d157600080fd5b8063313ce5671461027657806336568abe14610285578063395093511461029857600080fd5b806318160ddd116101a257806318160ddd1461021957806323b872dd1461022b578063248a9ca31461023e5780632f2ff15d1461026157600080fd5b806301ffc9a7146101c957806306fdde03146101f1578063095ea7b314610206575b600080fd5b6101dc6101d7366004611ba4565b61041d565b60405190151581526020015b60405180910390f35b6101f9610454565b6040516101e89190611d92565b6101dc610214366004611ae0565b6104e6565b6035545b6040519081526020016101e8565b6101dc610239366004611aa4565b6104fc565b61021d61024c366004611b68565b600090815260c9602052604090206001015490565b61027461026f366004611b81565b610543565b005b604051601281526020016101e8565b610274610293366004611b81565b61056e565b6101dc6102a6366004611ae0565b6105ec565b610274610628565b6102746102c1366004611ae0565b61063f565b60655460ff166101dc565b61021d6102df366004611a56565b6001600160a01b031660009081526033602052604090205490565b6102746106c0565b6101dc610310366004611b81565b6106d4565b6101f96106ff565b61027461032b366004611ae0565b61070e565b61021d600081565b6101dc610346366004611ae0565b61075c565b6101dc610359366004611ae0565b6107f5565b61027461036c366004611aa4565b610831565b61027461037f366004611b0a565b610923565b610274610392366004611b81565b610ad6565b6102746103a5366004611bce565b610afc565b61021d6103b8366004611a71565b6001600160a01b03918216600090815260346020908152604080832093909416825291909152205490565b61021d7fbe4b8ff2378fafab5b779323935cef89cecb6bffd2e15c86526a218902195a3581565b610274610418366004611c89565b610c85565b60006001600160e01b03198216637965db0b60e01b148061044e57506301ffc9a760e01b6001600160e01b03198316145b92915050565b60606036805461046390611eed565b80601f016020809104026020016040519081016040528092919081815260200182805461048f90611eed565b80156104dc5780601f106104b1576101008083540402835291602001916104dc565b820191906000526020600020905b8154815290600101906020018083116104bf57829003601f168201915b5050505050905090565b60006104f3338484610e47565b50600192915050565b600061050a60655460ff1690565b156105305760405162461bcd60e51b815260040161052790611dc5565b60405180910390fd5b61053b848484610f6b565b949350505050565b600082815260c9602052604090206001015461055f8133611015565b6105698383611079565b505050565b6001600160a01b03811633146105de5760405162461bcd60e51b815260206004820152602f60248201527f416363657373436f6e74726f6c3a2063616e206f6e6c792072656e6f756e636560448201526e103937b632b9903337b91039b2b63360891b6064820152608401610527565b6105e882826110ff565b5050565b3360008181526034602090815260408083206001600160a01b038716845290915281205490916104f3918590610623908690611e3a565b610e47565b60006106348133611015565b61063c611166565b50565b600061064b8133611015565b61065583836111f9565b60fc54604051634fe0b63360e01b815260016004820152602481018490526001600160a01b0390911690634fe0b633906044015b600060405180830381600087803b1580156106a357600080fd5b505af11580156106b7573d6000803e3d6000fd5b50505050505050565b60006106cc8133611015565b61063c6112d8565b600091825260c9602090815260408084206001600160a01b0393909316845291905290205460ff1690565b60606037805461046390611eed565b600061071a8133611015565b6107248383611330565b60fc54604051634fe0b63360e01b815260006004820152602481018490526001600160a01b0390911690634fe0b63390604401610689565b3360009081526034602090815260408083206001600160a01b0386168452909152812054828110156107de5760405162461bcd60e51b815260206004820152602560248201527f45524332303a2064656372656173656420616c6c6f77616e63652062656c6f77604482015264207a65726f60d81b6064820152608401610527565b6107eb3385858403610e47565b5060019392505050565b600061080360655460ff1690565b156108205760405162461bcd60e51b815260040161052790611dc5565b61082a838361147e565b9392505050565b7fbe4b8ff2378fafab5b779323935cef89cecb6bffd2e15c86526a218902195a3561085c8133611015565b60405163a9059cbb60e01b81526001600160a01b0385811660048301526024820184905284169063a9059cbb90604401602060405180830381600087803b1580156108a657600080fd5b505af11580156108ba573d6000803e3d6000fd5b505050506040513d601f19601f820116820180604052508101906108de9190611b46565b61091d5760405162461bcd60e51b815260206004820152601060248201526f2330b4b6103a37903a3930b739b332b960811b6044820152606401610527565b50505050565b7fbe4b8ff2378fafab5b779323935cef89cecb6bffd2e15c86526a218902195a3561094e8133611015565b6040516370a0823160e01b81523060048201526000906001600160a01b038416906370a082319060240160206040518083038186803b15801561099057600080fd5b505afa1580156109a4573d6000803e3d6000fd5b505050506040513d601f19601f820116820180604052508101906109c89190611c70565b905083811015610a0e5760405162461bcd60e51b8152602060048201526011602482015270496e737566696369656e742066756e647360781b6044820152606401610527565b60405163a9059cbb60e01b81526001600160a01b0386811660048301526024820186905284169063a9059cbb90604401602060405180830381600087803b158015610a5857600080fd5b505af1158015610a6c573d6000803e3d6000fd5b505050506040513d601f19601f82011682018060405250810190610a909190611b46565b610acf5760405162461bcd60e51b815260206004820152601060248201526f2330b4b6103a37903a3930b739b332b960811b6044820152606401610527565b5050505050565b600082815260c96020526040902060010154610af28133611015565b61056983836110ff565b600054610100900460ff16610b175760005460ff1615610b1b565b303b155b610b7e5760405162461bcd60e51b815260206004820152602e60248201527f496e697469616c697a61626c653a20636f6e747261637420697320616c72656160448201526d191e481a5b9a5d1a585b1a5e995960921b6064820152608401610527565b600054610100900460ff16158015610ba0576000805461ffff19166101011790555b610c1388888080601f01602080910402602001604051908101604052809392919081815260200183838082843760009201919091525050604080516020601f8c018190048102820181019092528a815292508a915089908190840183828082843760009201919091525061148b92505050565b610c1b6114c4565b610c23611505565b60fb80546001600160a01b038087166001600160a01b03199283161790925560fc805492861692909116919091179055610c5e60003361153c565b610c6960008361153c565b8015610c7b576000805461ff00191690555b5050505050505050565b33600090815260336020526040902054831115610cdb5760405162461bcd60e51b8152602060048201526014602482015273496e73756666696369656e742062616c616e636560601b6044820152606401610527565b6000610cef670de0b6b3a764000085611e52565b610d0190670de0b6b3a7640000611e74565b905060008111610d535760405162461bcd60e51b815260206004820152601e60248201527f496e73756666696369656e7420746f6b656e7320746f20636f6d62696e6500006044820152606401610527565b60fb54610d69906001600160a01b0316826104e6565b5060fb546040516334ff261960e21b81526000916001600160a01b03169063d3fc986490610da1903390869089908990600401611d4a565b602060405180830381600087803b158015610dbb57600080fd5b505af1158015610dcf573d6000803e3d6000fd5b505050506040513d601f19601f82011682018060405250810190610df39190611c70565b60fb54604080516001600160a01b03909216825260208201889052919250829133917f4acdca0e1280767c5941bcb11ebcad7b152eec862beea1220f4b769f3bf00c97910160405180910390a35050505050565b6001600160a01b038316610ea95760405162461bcd60e51b8152602060048201526024808201527f45524332303a20617070726f76652066726f6d20746865207a65726f206164646044820152637265737360e01b6064820152608401610527565b6001600160a01b038216610f0a5760405162461bcd60e51b815260206004820152602260248201527f45524332303a20617070726f766520746f20746865207a65726f206164647265604482015261737360f01b6064820152608401610527565b6001600160a01b0383811660008181526034602090815260408083209487168084529482529182902085905590518481527f8c5be1e5ebec7d5bd14f71427d1e84f3dd0314c0f7b2291e5b200ac8c7c3b925910160405180910390a3505050565b6000610f78848484611546565b6001600160a01b038416600090815260346020908152604080832033845290915290205482811015610ffd5760405162461bcd60e51b815260206004820152602860248201527f45524332303a207472616e7366657220616d6f756e74206578636565647320616044820152676c6c6f77616e636560c01b6064820152608401610527565b61100a8533858403610e47565b506001949350505050565b61101f82826106d4565b6105e857611037816001600160a01b03166014611714565b611042836020611714565b604051602001611053929190611cd5565b60408051601f198184030181529082905262461bcd60e51b825261052791600401611d92565b61108382826106d4565b6105e857600082815260c9602090815260408083206001600160a01b03851684529091529020805460ff191660011790556110bb3390565b6001600160a01b0316816001600160a01b0316837f2f8788117e7eff1d82e926ec794901d17c78024a50270940304540a733656f0d60405160405180910390a45050565b61110982826106d4565b156105e857600082815260c9602090815260408083206001600160a01b0385168085529252808320805460ff1916905551339285917ff6391f5c32d9c69d2a47ea670b442974b53935d1edc7fd64eb21e047a839171b9190a45050565b60655460ff166111af5760405162461bcd60e51b815260206004820152601460248201527314185d5cd8589b194e881b9bdd081c185d5cd95960621b6044820152606401610527565b6065805460ff191690557f5db9ee0a495bf2e6ff9c91a7834c1ba4fdd244a5e8aa4e537bd38aeae4b073aa335b6040516001600160a01b03909116815260200160405180910390a1565b6001600160a01b03821661124f5760405162461bcd60e51b815260206004820152601f60248201527f45524332303a206d696e7420746f20746865207a65726f2061646472657373006044820152606401610527565b80603560008282546112619190611e3a565b90915550506001600160a01b0382166000908152603360205260408120805483929061128e908490611e3a565b90915550506040518181526001600160a01b038316906000907fddf252ad1be2c89b69c2b068fc378daa952ba7f163c4a11628f55a4df523b3ef9060200160405180910390a35050565b60655460ff16156112fb5760405162461bcd60e51b815260040161052790611dc5565b6065805460ff191660011790557f62e78cea01bee320cd4e420270b5ea74000d11b0c9f74754ebdbfc544b05a2586111dc3390565b6001600160a01b0382166113905760405162461bcd60e51b815260206004820152602160248201527f45524332303a206275726e2066726f6d20746865207a65726f206164647265736044820152607360f81b6064820152608401610527565b6001600160a01b038216600090815260336020526040902054818110156114045760405162461bcd60e51b815260206004820152602260248201527f45524332303a206275726e20616d6f756e7420657863656564732062616c616e604482015261636560f01b6064820152608401610527565b6001600160a01b0383166000908152603360205260408120838303905560358054849290611433908490611e93565b90915550506040518281526000906001600160a01b038516907fddf252ad1be2c89b69c2b068fc378daa952ba7f163c4a11628f55a4df523b3ef9060200160405180910390a3505050565b60006104f3338484611546565b600054610100900460ff166114b25760405162461bcd60e51b815260040161052790611def565b6114ba6118b0565b6105e882826118d7565b600054610100900460ff166114eb5760405162461bcd60e51b815260040161052790611def565b6114f36118b0565b6114fb6118b0565b6115036118b0565b565b600054610100900460ff1661152c5760405162461bcd60e51b815260040161052790611def565b6115346118b0565b611503611925565b6105e88282611079565b6001600160a01b0383166115aa5760405162461bcd60e51b815260206004820152602560248201527f45524332303a207472616e736665722066726f6d20746865207a65726f206164604482015264647265737360d81b6064820152608401610527565b6001600160a01b03821661160c5760405162461bcd60e51b815260206004820152602360248201527f45524332303a207472616e7366657220746f20746865207a65726f206164647260448201526265737360e81b6064820152608401610527565b6001600160a01b038316600090815260336020526040902054818110156116845760405162461bcd60e51b815260206004820152602660248201527f45524332303a207472616e7366657220616d6f756e7420657863656564732062604482015265616c616e636560d01b6064820152608401610527565b6001600160a01b038085166000908152603360205260408082208585039055918516815290812080548492906116bb908490611e3a565b92505081905550826001600160a01b0316846001600160a01b03167fddf252ad1be2c89b69c2b068fc378daa952ba7f163c4a11628f55a4df523b3ef8460405161170791815260200190565b60405180910390a361091d565b60606000611723836002611e74565b61172e906002611e3a565b67ffffffffffffffff81111561174657611746611f54565b6040519080825280601f01601f191660200182016040528015611770576020820181803683370190505b509050600360fc1b8160008151811061178b5761178b611f3e565b60200101906001600160f81b031916908160001a905350600f60fb1b816001815181106117ba576117ba611f3e565b60200101906001600160f81b031916908160001a90535060006117de846002611e74565b6117e9906001611e3a565b90505b6001811115611861576f181899199a1a9b1b9c1cb0b131b232b360811b85600f166010811061181d5761181d611f3e565b1a60f81b82828151811061183357611833611f3e565b60200101906001600160f81b031916908160001a90535060049490941c9361185a81611ed6565b90506117ec565b50831561082a5760405162461bcd60e51b815260206004820181905260248201527f537472696e67733a20686578206c656e67746820696e73756666696369656e746044820152606401610527565b600054610100900460ff166115035760405162461bcd60e51b815260040161052790611def565b600054610100900460ff166118fe5760405162461bcd60e51b815260040161052790611def565b8151611911906036906020850190611958565b508051610569906037906020840190611958565b600054610100900460ff1661194c5760405162461bcd60e51b815260040161052790611def565b6065805460ff19169055565b82805461196490611eed565b90600052602060002090601f01602090048101928261198657600085556119cc565b82601f1061199f57805160ff19168380011785556119cc565b828001600101855582156119cc579182015b828111156119cc5782518255916020019190600101906119b1565b506119d89291506119dc565b5090565b5b808211156119d857600081556001016119dd565b80356001600160a01b0381168114611a0857600080fd5b919050565b60008083601f840112611a1f57600080fd5b50813567ffffffffffffffff811115611a3757600080fd5b602083019150836020828501011115611a4f57600080fd5b9250929050565b600060208284031215611a6857600080fd5b61082a826119f1565b60008060408385031215611a8457600080fd5b611a8d836119f1565b9150611a9b602084016119f1565b90509250929050565b600080600060608486031215611ab957600080fd5b611ac2846119f1565b9250611ad0602085016119f1565b9150604084013590509250925092565b60008060408385031215611af357600080fd5b611afc836119f1565b946020939093013593505050565b600080600060608486031215611b1f57600080fd5b611b28846119f1565b925060208401359150611b3d604085016119f1565b90509250925092565b600060208284031215611b5857600080fd5b8151801515811461082a57600080fd5b600060208284031215611b7a57600080fd5b5035919050565b60008060408385031215611b9457600080fd5b82359150611a9b602084016119f1565b600060208284031215611bb657600080fd5b81356001600160e01b03198116811461082a57600080fd5b600080600080600080600060a0888a031215611be957600080fd5b873567ffffffffffffffff80821115611c0157600080fd5b611c0d8b838c01611a0d565b909950975060208a0135915080821115611c2657600080fd5b50611c338a828b01611a0d565b9096509450611c469050604089016119f1565b9250611c54606089016119f1565b9150611c62608089016119f1565b905092959891949750929550565b600060208284031215611c8257600080fd5b5051919050565b600080600060408486031215611c9e57600080fd5b83359250602084013567ffffffffffffffff811115611cbc57600080fd5b611cc886828701611a0d565b9497909650939450505050565b7f416363657373436f6e74726f6c3a206163636f756e7420000000000000000000815260008351611d0d816017850160208801611eaa565b7001034b99036b4b9b9b4b733903937b6329607d1b6017918401918201528351611d3e816028840160208801611eaa565b01602801949350505050565b6001600160a01b0385168152602081018490526060604082018190528101829052818360808301376000818301608090810191909152601f909201601f191601019392505050565b6020815260008251806020840152611db1816040850160208701611eaa565b601f01601f19169190910160400192915050565b60208082526010908201526f14185d5cd8589b194e881c185d5cd95960821b604082015260600190565b6020808252602b908201527f496e697469616c697a61626c653a20636f6e7472616374206973206e6f74206960408201526a6e697469616c697a696e6760a81b606082015260800190565b60008219821115611e4d57611e4d611f28565b500190565b600082611e6f57634e487b7160e01b600052601260045260246000fd5b500490565b6000816000190483118215151615611e8e57611e8e611f28565b500290565b600082821015611ea557611ea5611f28565b500390565b60005b83811015611ec5578181015183820152602001611ead565b8381111561091d5750506000910152565b600081611ee557611ee5611f28565b506000190190565b600181811c90821680611f0157607f821691505b60208210811415611f2257634e487b7160e01b600052602260045260246000fd5b50919050565b634e487b7160e01b600052601160045260246000fd5b634e487b7160e01b600052603260045260246000fd5b634e487b7160e01b600052604160045260246000fdfea264697066735822122097f21c208e9ecf89cd00af0ab33bf734ac9d9726a0dc6b099aaf738be2d0db3264736f6c63430008060033",
  "devdoc": {
    "author": "Eric Nordelo",
    "kind": "dev",
    "methods": {
      "allowance(address,address)": {
        "details": "See {IERC20-allowance}."
      },
      "approve(address,uint256)": {
        "details": "See {IERC20-approve}. Requirements: - `spender` cannot be the zero address."
      },
      "balanceOf(address)": {
        "details": "See {IERC20-balanceOf}."
      },
      "decimals()": {
        "details": "Returns the number of decimals used to get its user representation. For example, if `decimals` equals `2`, a balance of `505` tokens should be displayed to a user as `5.05` (`505 / 10 ** 2`). Tokens usually opt for a value of 18, imitating the relationship between Ether and Wei. This is the value {ERC20} uses, unless this function is overridden; NOTE: This information is only used for _display_ purposes: it in no way affects any of the arithmetic of the contract, including {IERC20-balanceOf} and {IERC20-transfer}."
      },
      "decreaseAllowance(address,uint256)": {
        "details": "Atomically decreases the allowance granted to `spender` by the caller. This is an alternative to {approve} that can be used as a mitigation for problems described in {IERC20-approve}. Emits an {Approval} event indicating the updated allowance. Requirements: - `spender` cannot be the zero address. - `spender` must have allowance for the caller of at least `subtractedValue`."
      },
      "getRoleAdmin(bytes32)": {
        "details": "Returns the admin role that controls `role`. See {grantRole} and {revokeRole}. To change a role's admin, use {_setRoleAdmin}."
      },
      "grantRole(bytes32,address)": {
        "details": "Grants `role` to `account`. If `account` had not been already granted `role`, emits a {RoleGranted} event. Requirements: - the caller must have ``role``'s admin role."
      },
      "hasRole(bytes32,address)": {
        "details": "Returns `true` if `account` has been granted `role`."
      },
      "increaseAllowance(address,uint256)": {
        "details": "Atomically increases the allowance granted to `spender` by the caller. This is an alternative to {approve} that can be used as a mitigation for problems described in {IERC20-approve}. Emits an {Approval} event indicating the updated allowance. Requirements: - `spender` cannot be the zero address."
      },
      "name()": {
        "details": "Returns the name of the token."
      },
      "paused()": {
        "details": "Returns true if the contract is paused, and false otherwise."
      },
      "renounceRole(bytes32,address)": {
        "details": "Revokes `role` from the calling account. Roles are often managed via {grantRole} and {revokeRole}: this function's purpose is to provide a mechanism for accounts to lose their privileges if they are compromised (such as when a trusted device is misplaced). If the calling account had been revoked `role`, emits a {RoleRevoked} event. Requirements: - the caller must be `account`."
      },
      "revokeRole(bytes32,address)": {
        "details": "Revokes `role` from `account`. If `account` had been granted `role`, emits a {RoleRevoked} event. Requirements: - the caller must have ``role``'s admin role."
      },
      "supportsInterface(bytes4)": {
        "details": "See {IERC165-supportsInterface}."
      },
      "symbol()": {
        "details": "Returns the symbol of the token, usually a shorter version of the name."
      },
      "totalSupply()": {
        "details": "See {IERC20-totalSupply}."
      },
      "transfer(address,uint256)": {
        "details": "ensures that only minting is allowed when paused"
      },
      "transferFrom(address,address,uint256)": {
        "details": "ensures that only minting is allowed when paused"
      }
    },
    "title": "the implementation to clone on each pod creation",
    "version": 1
  },
  "userdoc": {
    "kind": "user",
    "methods": {
      "initialize(string,string,address,address,address)": {
        "notice": "ensures that the pod token contract begins paused and with the default admin"
      },
      "returnFunds(address,address,uint256)": {
        "notice": "allows the return of funds after a pod disposal"
      }
    },
    "version": 1
  },
  "storageLayout": {
    "storage": [
      {
        "astId": 950,
        "contract": "contracts/implementations/CopyrightToken.sol:CopyrightToken",
        "label": "_initialized",
        "offset": 0,
        "slot": "0",
        "type": "t_bool"
      },
      {
        "astId": 953,
        "contract": "contracts/implementations/CopyrightToken.sol:CopyrightToken",
        "label": "_initializing",
        "offset": 1,
        "slot": "0",
        "type": "t_bool"
      },
      {
        "astId": 4119,
        "contract": "contracts/implementations/CopyrightToken.sol:CopyrightToken",
        "label": "__gap",
        "offset": 0,
        "slot": "1",
        "type": "t_array(t_uint256)50_storage"
      },
      {
        "astId": 1260,
        "contract": "contracts/implementations/CopyrightToken.sol:CopyrightToken",
        "label": "_balances",
        "offset": 0,
        "slot": "51",
        "type": "t_mapping(t_address,t_uint256)"
      },
      {
        "astId": 1266,
        "contract": "contracts/implementations/CopyrightToken.sol:CopyrightToken",
        "label": "_allowances",
        "offset": 0,
        "slot": "52",
        "type": "t_mapping(t_address,t_mapping(t_address,t_uint256))"
      },
      {
        "astId": 1268,
        "contract": "contracts/implementations/CopyrightToken.sol:CopyrightToken",
        "label": "_totalSupply",
        "offset": 0,
        "slot": "53",
        "type": "t_uint256"
      },
      {
        "astId": 1270,
        "contract": "contracts/implementations/CopyrightToken.sol:CopyrightToken",
        "label": "_name",
        "offset": 0,
        "slot": "54",
        "type": "t_string_storage"
      },
      {
        "astId": 1272,
        "contract": "contracts/implementations/CopyrightToken.sol:CopyrightToken",
        "label": "_symbol",
        "offset": 0,
        "slot": "55",
        "type": "t_string_storage"
      },
      {
        "astId": 1813,
        "contract": "contracts/implementations/CopyrightToken.sol:CopyrightToken",
        "label": "__gap",
        "offset": 0,
        "slot": "56",
        "type": "t_array(t_uint256)45_storage"
      },
      {
        "astId": 1149,
        "contract": "contracts/implementations/CopyrightToken.sol:CopyrightToken",
        "label": "_paused",
        "offset": 0,
        "slot": "101",
        "type": "t_bool"
      },
      {
        "astId": 1240,
        "contract": "contracts/implementations/CopyrightToken.sol:CopyrightToken",
        "label": "__gap",
        "offset": 0,
        "slot": "102",
        "type": "t_array(t_uint256)49_storage"
      },
      {
        "astId": 5255,
        "contract": "contracts/implementations/CopyrightToken.sol:CopyrightToken",
        "label": "__gap",
        "offset": 0,
        "slot": "151",
        "type": "t_array(t_uint256)50_storage"
      },
      {
        "astId": 48,
        "contract": "contracts/implementations/CopyrightToken.sol:CopyrightToken",
        "label": "_roles",
        "offset": 0,
        "slot": "201",
        "type": "t_mapping(t_bytes32,t_struct(RoleData)43_storage)"
      },
      {
        "astId": 335,
        "contract": "contracts/implementations/CopyrightToken.sol:CopyrightToken",
        "label": "__gap",
        "offset": 0,
        "slot": "202",
        "type": "t_array(t_uint256)49_storage"
      },
      {
        "astId": 12046,
        "contract": "contracts/implementations/CopyrightToken.sol:CopyrightToken",
        "label": "_copyrightNFT",
        "offset": 0,
        "slot": "251",
        "type": "t_address"
      },
      {
        "astId": 12049,
        "contract": "contracts/implementations/CopyrightToken.sol:CopyrightToken",
        "label": "_stakingNFT",
        "offset": 0,
        "slot": "252",
        "type": "t_contract(StakingERC721)15341"
      }
    ],
    "types": {
      "t_address": {
        "encoding": "inplace",
        "label": "address",
        "numberOfBytes": "20"
      },
      "t_array(t_uint256)45_storage": {
        "base": "t_uint256",
        "encoding": "inplace",
        "label": "uint256[45]",
        "numberOfBytes": "1440"
      },
      "t_array(t_uint256)49_storage": {
        "base": "t_uint256",
        "encoding": "inplace",
        "label": "uint256[49]",
        "numberOfBytes": "1568"
      },
      "t_array(t_uint256)50_storage": {
        "base": "t_uint256",
        "encoding": "inplace",
        "label": "uint256[50]",
        "numberOfBytes": "1600"
      },
      "t_bool": {
        "encoding": "inplace",
        "label": "bool",
        "numberOfBytes": "1"
      },
      "t_bytes32": {
        "encoding": "inplace",
        "label": "bytes32",
        "numberOfBytes": "32"
      },
      "t_contract(StakingERC721)15341": {
        "encoding": "inplace",
        "label": "contract StakingERC721",
        "numberOfBytes": "20"
      },
      "t_mapping(t_address,t_bool)": {
        "encoding": "mapping",
        "key": "t_address",
        "label": "mapping(address => bool)",
        "numberOfBytes": "32",
        "value": "t_bool"
      },
      "t_mapping(t_address,t_mapping(t_address,t_uint256))": {
        "encoding": "mapping",
        "key": "t_address",
        "label": "mapping(address => mapping(address => uint256))",
        "numberOfBytes": "32",
        "value": "t_mapping(t_address,t_uint256)"
      },
      "t_mapping(t_address,t_uint256)": {
        "encoding": "mapping",
        "key": "t_address",
        "label": "mapping(address => uint256)",
        "numberOfBytes": "32",
        "value": "t_uint256"
      },
      "t_mapping(t_bytes32,t_struct(RoleData)43_storage)": {
        "encoding": "mapping",
        "key": "t_bytes32",
        "label": "mapping(bytes32 => struct AccessControlUpgradeable.RoleData)",
        "numberOfBytes": "32",
        "value": "t_struct(RoleData)43_storage"
      },
      "t_string_storage": {
        "encoding": "bytes",
        "label": "string",
        "numberOfBytes": "32"
      },
      "t_struct(RoleData)43_storage": {
        "encoding": "inplace",
        "label": "struct AccessControlUpgradeable.RoleData",
        "members": [
          {
            "astId": 40,
            "contract": "contracts/implementations/CopyrightToken.sol:CopyrightToken",
            "label": "members",
            "offset": 0,
            "slot": "0",
            "type": "t_mapping(t_address,t_bool)"
          },
          {
            "astId": 42,
            "contract": "contracts/implementations/CopyrightToken.sol:CopyrightToken",
            "label": "adminRole",
            "offset": 0,
            "slot": "1",
            "type": "t_bytes32"
          }
        ],
        "numberOfBytes": "64"
      },
      "t_uint256": {
        "encoding": "inplace",
        "label": "uint256",
        "numberOfBytes": "32"
      }
    }
  }
}