{
  "address": "0xfE24544CaFbf3DA1E5a5a346175c7c71Ce73D1C3",
  "abi": [
    {
      "inputs": [
        {
          "internalType": "address",
          "name": "_copyrightTokenBeacon",
          "type": "address"
        },
        {
          "internalType": "address",
          "name": "_erc721WithRoyaltyBeacon",
          "type": "address"
        }
      ],
      "stateMutability": "nonpayable",
      "type": "constructor"
    },
    {
      "anonymous": false,
      "inputs": [
        {
          "indexed": false,
          "internalType": "address",
          "name": "previousAdmin",
          "type": "address"
        },
        {
          "indexed": false,
          "internalType": "address",
          "name": "newAdmin",
          "type": "address"
        }
      ],
      "name": "AdminChanged",
      "type": "event"
    },
    {
      "anonymous": false,
      "inputs": [
        {
          "indexed": true,
          "internalType": "address",
          "name": "beacon",
          "type": "address"
        }
      ],
      "name": "BeaconUpgraded",
      "type": "event"
    },
    {
      "anonymous": false,
      "inputs": [
        {
          "indexed": false,
          "internalType": "address",
          "name": "contractAddress",
          "type": "address"
        },
        {
          "indexed": false,
          "internalType": "string",
          "name": "name",
          "type": "string"
        },
        {
          "indexed": false,
          "internalType": "string",
          "name": "symbol",
          "type": "string"
        },
        {
          "indexed": false,
          "internalType": "address",
          "name": "copyrightNFT",
          "type": "address"
        }
      ],
      "name": "CopyrightTokenCreated",
      "type": "event"
    },
    {
      "anonymous": false,
      "inputs": [
        {
          "indexed": false,
          "internalType": "address",
          "name": "contractAddress",
          "type": "address"
        },
        {
          "indexed": false,
          "internalType": "string",
          "name": "name",
          "type": "string"
        },
        {
          "indexed": false,
          "internalType": "string",
          "name": "symbol",
          "type": "string"
        },
        {
          "indexed": false,
          "internalType": "address",
          "name": "copyrightAddress",
          "type": "address"
        },
        {
          "indexed": false,
          "internalType": "uint16",
          "name": "royaltyPercentage",
          "type": "uint16"
        }
      ],
      "name": "Erc721WithRoyaltyCreated",
      "type": "event"
    },
    {
      "anonymous": false,
      "inputs": [
        {
          "indexed": true,
          "internalType": "address",
          "name": "previousOwner",
          "type": "address"
        },
        {
          "indexed": true,
          "internalType": "address",
          "name": "newOwner",
          "type": "address"
        }
      ],
      "name": "OwnershipTransferred",
      "type": "event"
    },
    {
      "anonymous": false,
      "inputs": [
        {
          "indexed": true,
          "internalType": "address",
          "name": "implementation",
          "type": "address"
        }
      ],
      "name": "Upgraded",
      "type": "event"
    },
    {
      "inputs": [
        {
          "internalType": "string",
          "name": "name",
          "type": "string"
        },
        {
          "internalType": "string",
          "name": "symbol",
          "type": "string"
        },
        {
          "internalType": "address",
          "name": "copyrightNFT",
          "type": "address"
        }
      ],
      "name": "createCopyrightToken",
      "outputs": [
        {
          "internalType": "address",
          "name": "",
          "type": "address"
        }
      ],
      "stateMutability": "nonpayable",
      "type": "function"
    },
    {
      "inputs": [
        {
          "internalType": "string",
          "name": "name",
          "type": "string"
        },
        {
          "internalType": "string",
          "name": "symbol",
          "type": "string"
        },
        {
          "internalType": "address",
          "name": "copyrightAddress",
          "type": "address"
        },
        {
          "internalType": "uint16",
          "name": "royaltyPercentage",
          "type": "uint16"
        }
      ],
      "name": "createErc721WithRoyalty",
      "outputs": [
        {
          "internalType": "address",
          "name": "",
          "type": "address"
        }
      ],
      "stateMutability": "nonpayable",
      "type": "function"
    },
    {
      "inputs": [
        {
          "internalType": "address",
          "name": "podManager_",
          "type": "address"
        }
      ],
      "name": "initialize",
      "outputs": [],
      "stateMutability": "nonpayable",
      "type": "function"
    },
    {
      "inputs": [],
      "name": "owner",
      "outputs": [
        {
          "internalType": "address",
          "name": "",
          "type": "address"
        }
      ],
      "stateMutability": "view",
      "type": "function"
    },
    {
      "inputs": [],
      "name": "renounceOwnership",
      "outputs": [],
      "stateMutability": "nonpayable",
      "type": "function"
    },
    {
      "inputs": [
        {
          "internalType": "address",
          "name": "newOwner",
          "type": "address"
        }
      ],
      "name": "transferOwnership",
      "outputs": [],
      "stateMutability": "nonpayable",
      "type": "function"
    },
    {
      "inputs": [
        {
          "internalType": "address",
          "name": "newImplementation",
          "type": "address"
        }
      ],
      "name": "upgradeTo",
      "outputs": [],
      "stateMutability": "nonpayable",
      "type": "function"
    },
    {
      "inputs": [
        {
          "internalType": "address",
          "name": "newImplementation",
          "type": "address"
        },
        {
          "internalType": "bytes",
          "name": "data",
          "type": "bytes"
        }
      ],
      "name": "upgradeToAndCall",
      "outputs": [],
      "stateMutability": "payable",
      "type": "function"
    }
  ],
  "transactionHash": "0x32a0b2ffde5cc293b19215ddae3407738a76c9e0931cc8ddf1a9dc94ddf8c2d4",
  "args": [
    "0x8B7Bb014e0B1057e6c7EFC0Db7D4B41c33Dd9Bb1",
    "0x2f9990E849668228113D6CD15aE6B62bC2697873"
  ],
  "numDeployments": 1,
  "solcInputHash": "d75cb78d3090036566fedddd8891be90",
  "bytecode": "0x60e06040523060601b6080523480156200001857600080fd5b5060405162001d3e38038062001d3e8339810160408190526200003b9162000164565b600054610100900460ff16620000585760005460ff161562000062565b6200006262000123565b620000ca5760405162461bcd60e51b815260206004820152602e60248201527f496e697469616c697a61626c653a20636f6e747261637420697320616c72656160448201526d191e481a5b9a5d1a585b1a5e995960921b606482015260840160405180910390fd5b600054610100900460ff16158015620000ed576000805461ffff19166101011790555b6001600160601b0319606084811b821660a05283901b1660c05280156200011a576000805461ff00191690555b5050506200019c565b60006200013b306200014160201b6200073d1760201c565b15905090565b3b151590565b80516001600160a01b03811681146200015f57600080fd5b919050565b600080604083850312156200017857600080fd5b620001838362000147565b9150620001936020840162000147565b90509250929050565b60805160601c60a05160601c60c05160601c611b54620001ea60003960006103aa015260006105e50152600081816101bb015281816102070152818161029901526102dc0152611b546000f3fe608060405260043610620000855760003560e01c80638da5cb5b11620000545780638da5cb5b1462000121578063c4d66de81462000141578063d0d6b1071462000166578063f2fde38b146200018b57600080fd5b80633659cfe6146200008a5780634f1ef28614620000b157806367e8daa714620000c8578063715018a61462000109575b600080fd5b3480156200009757600080fd5b50620000af620000a936600462000cc0565b620001b0565b005b620000af620000c236600462000cde565b6200028e565b348015620000d557600080fd5b50620000ed620000e736600462000e36565b62000354565b6040516001600160a01b03909116815260200160405180910390f35b3480156200011657600080fd5b50620000af62000466565b3480156200012e57600080fd5b506097546001600160a01b0316620000ed565b3480156200014e57600080fd5b50620000af6200016036600462000cc0565b620004a1565b3480156200017357600080fd5b50620000ed6200018536600462000dac565b6200058f565b3480156200019857600080fd5b50620000af620001aa36600462000cc0565b6200069e565b306001600160a01b037f0000000000000000000000000000000000000000000000000000000000000000161415620002055760405162461bcd60e51b8152600401620001fc9062001003565b60405180910390fd5b7f00000000000000000000000000000000000000000000000000000000000000006001600160a01b03166200023962000743565b6001600160a01b031614620002625760405162461bcd60e51b8152600401620001fc906200104f565b6200026d8162000771565b604080516000808252602082019092526200028b918391906200079e565b50565b306001600160a01b037f0000000000000000000000000000000000000000000000000000000000000000161415620002da5760405162461bcd60e51b8152600401620001fc9062001003565b7f00000000000000000000000000000000000000000000000000000000000000006001600160a01b03166200030e62000743565b6001600160a01b031614620003375760405162461bcd60e51b8152600401620001fc906200104f565b620003428262000771565b62000350828260016200079e565b5050565b60c9546000906001600160a01b03163314620003a65760405162461bcd60e51b815260206004820152601060248201526f27b7363c903837b21036b0b730b3b2b960811b6044820152606401620001fc565b60007f0000000000000000000000000000000000000000000000000000000000000000604051620003d79062000c49565b6001600160a01b039091168152604060208201819052600090820152606001604051809103906000f08015801562000413573d6000803e3d6000fd5b5090507ffc9fc9b80f7dfdf49c4edf2904ef94cd155edeee3980d3e615373ec5daca2bcd8189898989898960405162000453979695949392919062000f73565b60405180910390a1979650505050505050565b6097546001600160a01b03163314620004935760405162461bcd60e51b8152600401620001fc906200109b565b6200049f6000620008fa565b565b600054610100900460ff16620004be5760005460ff1615620004c2565b303b155b620005275760405162461bcd60e51b815260206004820152602e60248201527f496e697469616c697a61626c653a20636f6e747261637420697320616c72656160448201526d191e481a5b9a5d1a585b1a5e995960921b6064820152608401620001fc565b600054610100900460ff161580156200054a576000805461ffff19166101011790555b620005546200094c565b6200055e6200098a565b60c980546001600160a01b0319166001600160a01b038416179055801562000350576000805461ff00191690555050565b60c9546000906001600160a01b03163314620005e15760405162461bcd60e51b815260206004820152601060248201526f27b7363c903837b21036b0b730b3b2b960811b6044820152606401620001fc565b60007f0000000000000000000000000000000000000000000000000000000000000000604051620006129062000c49565b6001600160a01b039091168152604060208201819052600090820152606001604051809103906000f0801580156200064e573d6000803e3d6000fd5b5090507fe2eb764d0ae61cba25ed19211fd8b70bc3f804c477b9551d4630b63897c41e828188888888886040516200068c9695949392919062000f22565b60405180910390a19695505050505050565b6097546001600160a01b03163314620006cb5760405162461bcd60e51b8152600401620001fc906200109b565b6001600160a01b038116620007325760405162461bcd60e51b815260206004820152602660248201527f4f776e61626c653a206e6577206f776e657220697320746865207a65726f206160448201526564647265737360d01b6064820152608401620001fc565b6200028b81620008fa565b3b151590565b7f360894a13ba1a3210667c828492db98dca3e2076cc3735a920a3ca505d382bbc546001600160a01b031690565b6097546001600160a01b031633146200028b5760405162461bcd60e51b8152600401620001fc906200109b565b6000620007aa62000743565b9050620007b784620009c8565b600083511180620007c55750815b15620007d957620007d7848462000a6f565b505b7f4910fdfa16fed3260ed0e7147f7cc6da11a60208b5b9406d12a635614ffd9143805460ff16620008f357805460ff191660011781556040516001600160a01b03831660248201526200085b90869060440160408051601f198184030181529190526020810180516001600160e01b0316631b2ce7f360e11b17905262000a6f565b50805460ff191681556200086e62000743565b6001600160a01b0316826001600160a01b031614620008e85760405162461bcd60e51b815260206004820152602f60248201527f45524331393637557067726164653a207570677261646520627265616b73206660448201526e75727468657220757067726164657360881b6064820152608401620001fc565b620008f38562000b63565b5050505050565b609780546001600160a01b038381166001600160a01b0319831681179093556040519116919082907f8be0079c531659141344cd1fd0a4f28419497f9722a3daafe3b4186f6b6457e090600090a35050565b600054610100900460ff16620009765760405162461bcd60e51b8152600401620001fc90620010d0565b6200098062000ba5565b6200049f62000bcf565b600054610100900460ff16620009b45760405162461bcd60e51b8152600401620001fc90620010d0565b620009be62000ba5565b6200049f62000ba5565b803b62000a2e5760405162461bcd60e51b815260206004820152602d60248201527f455243313936373a206e657720696d706c656d656e746174696f6e206973206e60448201526c1bdd08184818dbdb9d1c9858dd609a1b6064820152608401620001fc565b7f360894a13ba1a3210667c828492db98dca3e2076cc3735a920a3ca505d382bbc80546001600160a01b0319166001600160a01b0392909216919091179055565b6060823b62000ad05760405162461bcd60e51b815260206004820152602660248201527f416464726573733a2064656c65676174652063616c6c20746f206e6f6e2d636f6044820152651b9d1c9858dd60d21b6064820152608401620001fc565b600080846001600160a01b03168460405162000aed919062000f04565b600060405180830381855af49150503d806000811462000b2a576040519150601f19603f3d011682016040523d82523d6000602084013e62000b2f565b606091505b509150915062000b5a828260405180606001604052806027815260200162001af86027913962000c04565b95945050505050565b62000b6e81620009c8565b6040516001600160a01b038216907fbc7cd75a20ee27fd9adebab32041f755214dbc6bffa90cc0225b39da2e5c2d3b90600090a250565b600054610100900460ff166200049f5760405162461bcd60e51b8152600401620001fc90620010d0565b600054610100900460ff1662000bf95760405162461bcd60e51b8152600401620001fc90620010d0565b6200049f33620008fa565b6060831562000c1557508162000c42565b82511562000c265782518084602001fd5b8160405162461bcd60e51b8152600401620001fc919062000fce565b9392505050565b610993806200116583390190565b80356001600160a01b038116811462000c6f57600080fd5b919050565b60008083601f84011262000c8757600080fd5b50813567ffffffffffffffff81111562000ca057600080fd5b60208301915083602082850101111562000cb957600080fd5b9250929050565b60006020828403121562000cd357600080fd5b62000c428262000c57565b6000806040838503121562000cf257600080fd5b62000cfd8362000c57565b9150602083013567ffffffffffffffff8082111562000d1b57600080fd5b818501915085601f83011262000d3057600080fd5b81358181111562000d455762000d456200114e565b604051601f8201601f19908116603f0116810190838211818310171562000d705762000d706200114e565b8160405282815288602084870101111562000d8a57600080fd5b8260208601602083013760006020848301015280955050505050509250929050565b60008060008060006060868803121562000dc557600080fd5b853567ffffffffffffffff8082111562000dde57600080fd5b62000dec89838a0162000c74565b9097509550602088013591508082111562000e0657600080fd5b5062000e158882890162000c74565b909450925062000e2a90506040870162000c57565b90509295509295909350565b6000806000806000806080878903121562000e5057600080fd5b863567ffffffffffffffff8082111562000e6957600080fd5b62000e778a838b0162000c74565b9098509650602089013591508082111562000e9157600080fd5b5062000ea089828a0162000c74565b909550935062000eb590506040880162000c57565b9150606087013561ffff8116811462000ecd57600080fd5b809150509295509295509295565b81835281816020850137506000828201602090810191909152601f909101601f19169091010190565b6000825162000f188184602087016200111b565b9190910192915050565b600060018060a01b0380891683526080602084015262000f4760808401888a62000edb565b838103604085015262000f5c81878962000edb565b925050808416606084015250979650505050505050565b600060018060a01b03808a16835260a0602084015262000f9860a08401898b62000edb565b838103604085015262000fad81888a62000edb565b959091166060840152505061ffff9190911660809091015295945050505050565b602081526000825180602084015262000fef8160408501602087016200111b565b601f01601f19169190910160400192915050565b6020808252602c908201527f46756e6374696f6e206d7573742062652063616c6c6564207468726f7567682060408201526b19195b1959d85d1958d85b1b60a21b606082015260800190565b6020808252602c908201527f46756e6374696f6e206d7573742062652063616c6c6564207468726f7567682060408201526b6163746976652070726f787960a01b606082015260800190565b6020808252818101527f4f776e61626c653a2063616c6c6572206973206e6f7420746865206f776e6572604082015260600190565b6020808252602b908201527f496e697469616c697a61626c653a20636f6e7472616374206973206e6f74206960408201526a6e697469616c697a696e6760a81b606082015260800190565b60005b83811015620011385781810151838201526020016200111e565b8381111562001148576000848401525b50505050565b634e487b7160e01b600052604160045260246000fdfe608060405260405161099338038061099383398101604081905261002291610470565b61004d60017fa3f0ad74e5423aebfd80d3ef4346578335a9a72aeaee59ff6cb3582b35133d5161057f565b60008051602061094c83398151915214610069576100696105d0565b6100758282600061007c565b50506105fc565b61008583610156565b6040516001600160a01b038416907f1cf3b03a6cf19fa2baba4df148e9dcabedea7f8a5c07840e207e5c089be95d3e90600090a26000825111806100c65750805b156101515761014f836001600160a01b0316635c60da1b6040518163ffffffff1660e01b815260040160206040518083038186803b15801561010757600080fd5b505afa15801561011b573d6000803e3d6000fd5b505050506040513d601f19601f8201168201806040525081019061013f9190610455565b836102f660201b6100291760201c565b505b505050565b6101698161032260201b6100551760201c565b6101c85760405162461bcd60e51b815260206004820152602560248201527f455243313936373a206e657720626561636f6e206973206e6f74206120636f6e6044820152641d1c9858dd60da1b60648201526084015b60405180910390fd5b61024b816001600160a01b0316635c60da1b6040518163ffffffff1660e01b815260040160206040518083038186803b15801561020457600080fd5b505afa158015610218573d6000803e3d6000fd5b505050506040513d601f19601f8201168201806040525081019061023c9190610455565b61032260201b6100551760201c565b6102b05760405162461bcd60e51b815260206004820152603060248201527f455243313936373a20626561636f6e20696d706c656d656e746174696f6e206960448201526f1cc81b9bdd08184818dbdb9d1c9858dd60821b60648201526084016101bf565b806102d560008051602061094c83398151915260001b61032860201b61005b1760201c565b80546001600160a01b0319166001600160a01b039290921691909117905550565b606061031b838360405180606001604052806027815260200161096c6027913961032b565b9392505050565b3b151590565b90565b6060833b61038a5760405162461bcd60e51b815260206004820152602660248201527f416464726573733a2064656c65676174652063616c6c20746f206e6f6e2d636f6044820152651b9d1c9858dd60d21b60648201526084016101bf565b600080856001600160a01b0316856040516103a59190610530565b600060405180830381855af49150503d80600081146103e0576040519150601f19603f3d011682016040523d82523d6000602084013e6103e5565b606091505b5090925090506103f6828286610400565b9695505050505050565b6060831561040f57508161031b565b82511561041f5782518084602001fd5b8160405162461bcd60e51b81526004016101bf919061054c565b80516001600160a01b038116811461045057600080fd5b919050565b60006020828403121561046757600080fd5b61031b82610439565b6000806040838503121561048357600080fd5b61048c83610439565b60208401519092506001600160401b03808211156104a957600080fd5b818501915085601f8301126104bd57600080fd5b8151818111156104cf576104cf6105e6565b604051601f8201601f19908116603f011681019083821181831017156104f7576104f76105e6565b8160405282815288602084870101111561051057600080fd5b6105218360208301602088016105a4565b80955050505050509250929050565b600082516105428184602087016105a4565b9190910192915050565b602081526000825180602084015261056b8160408501602087016105a4565b601f01601f19169190910160400192915050565b60008282101561059f57634e487b7160e01b600052601160045260246000fd5b500390565b60005b838110156105bf5781810151838201526020016105a7565b8381111561014f5750506000910152565b634e487b7160e01b600052600160045260246000fd5b634e487b7160e01b600052604160045260246000fd5b6103418061060b6000396000f3fe60806040523661001357610011610017565b005b6100115b61002761002261005e565b610106565b565b606061004e83836040518060600160405280602781526020016102e56027913961012a565b9392505050565b3b151590565b90565b60006100917fa3f0ad74e5423aebfd80d3ef4346578335a9a72aeaee59ff6cb3582b35133d50546001600160a01b031690565b6001600160a01b0316635c60da1b6040518163ffffffff1660e01b815260040160206040518083038186803b1580156100c957600080fd5b505afa1580156100dd573d6000803e3d6000fd5b505050506040513d601f19601f82011682018060405250810190610101919061023c565b905090565b3660008037600080366000845af43d6000803e808015610125573d6000f35b3d6000fd5b6060833b61018e5760405162461bcd60e51b815260206004820152602660248201527f416464726573733a2064656c65676174652063616c6c20746f206e6f6e2d636f6044820152651b9d1c9858dd60d21b60648201526084015b60405180910390fd5b600080856001600160a01b0316856040516101a99190610265565b600060405180830381855af49150503d80600081146101e4576040519150601f19603f3d011682016040523d82523d6000602084013e6101e9565b606091505b50915091506101f9828286610203565b9695505050505050565b6060831561021257508161004e565b8251156102225782518084602001fd5b8160405162461bcd60e51b81526004016101859190610281565b60006020828403121561024e57600080fd5b81516001600160a01b038116811461004e57600080fd5b600082516102778184602087016102b4565b9190910192915050565b60208152600082518060208401526102a08160408501602087016102b4565b601f01601f19169190910160400192915050565b60005b838110156102cf5781810151838201526020016102b7565b838111156102de576000848401525b5050505056fe416464726573733a206c6f772d6c6576656c2064656c65676174652063616c6c206661696c6564a2646970667358221220af3edcf4cf6c470978954d2c293799c3488ede270268341fa22392c0f4f0dbc664736f6c63430008060033a3f0ad74e5423aebfd80d3ef4346578335a9a72aeaee59ff6cb3582b35133d50416464726573733a206c6f772d6c6576656c2064656c65676174652063616c6c206661696c6564416464726573733a206c6f772d6c6576656c2064656c65676174652063616c6c206661696c6564a2646970667358221220f6d46137ea152ecaddb5d7dd05cda82deb2d7fec7cdba9d77620c8c4328d271464736f6c63430008060033",
  "devdoc": {
    "events": {
      "CopyrightTokenCreated(address,string,string,address)": {
        "details": "emitted when a CopyrightToken is deployed",
        "params": {
          "contractAddress": "the address of the deployed proxy contract",
          "copyrightNFT": "the address of the CopyrightNFT contract associated",
          "name": "the name of the token",
          "symbol": "the symbol of the token"
        }
      },
      "Erc721WithRoyaltyCreated(address,string,string,address,uint16)": {
        "details": "emitted when a Erc721WithRoyalty is deployed",
        "params": {
          "contractAddress": "the address of the deployed proxy contract",
          "copyrightAddress": "the address of the CopyrightToken contract associated",
          "name": "the name of the token",
          "royaltyPercentage": "the percentage defining the royalties",
          "symbol": "the symbol of the token"
        }
      }
    },
    "kind": "dev",
    "methods": {
      "constructor": {
        "details": "the initializer modifier is to avoid someone initializing      the implementation contract after deployment"
      },
      "initialize(address)": {
        "details": "initializes the contract",
        "params": {
          "podManager_": "the address of the PodManager contract"
        }
      },
      "owner()": {
        "details": "Returns the address of the current owner."
      },
      "renounceOwnership()": {
        "details": "Leaves the contract without owner. It will not be possible to call `onlyOwner` functions anymore. Can only be called by the current owner. NOTE: Renouncing ownership will leave the contract without an owner, thereby removing any functionality that is only available to the owner."
      },
      "transferOwnership(address)": {
        "details": "Transfers ownership of the contract to a new account (`newOwner`). Can only be called by the current owner."
      },
      "upgradeTo(address)": {
        "details": "Upgrade the implementation of the proxy to `newImplementation`. Calls {_authorizeUpgrade}. Emits an {Upgraded} event."
      },
      "upgradeToAndCall(address,bytes)": {
        "details": "Upgrade the implementation of the proxy to `newImplementation`, and subsequently execute the function call encoded in `data`. Calls {_authorizeUpgrade}. Emits an {Upgraded} event."
      }
    },
    "version": 1
  },
  "userdoc": {
    "kind": "user",
    "methods": {},
    "version": 1
  },
  "storageLayout": {
    "storage": [
      {
        "astId": 950,
        "contract": "contracts/CreationManager.sol:CreationManager",
        "label": "_initialized",
        "offset": 0,
        "slot": "0",
        "type": "t_bool"
      },
      {
        "astId": 953,
        "contract": "contracts/CreationManager.sol:CreationManager",
        "label": "_initializing",
        "offset": 1,
        "slot": "0",
        "type": "t_bool"
      },
      {
        "astId": 932,
        "contract": "contracts/CreationManager.sol:CreationManager",
        "label": "__gap",
        "offset": 0,
        "slot": "1",
        "type": "t_array(t_uint256)50_storage"
      },
      {
        "astId": 1127,
        "contract": "contracts/CreationManager.sol:CreationManager",
        "label": "__gap",
        "offset": 0,
        "slot": "51",
        "type": "t_array(t_uint256)50_storage"
      },
      {
        "astId": 4119,
        "contract": "contracts/CreationManager.sol:CreationManager",
        "label": "__gap",
        "offset": 0,
        "slot": "101",
        "type": "t_array(t_uint256)50_storage"
      },
      {
        "astId": 420,
        "contract": "contracts/CreationManager.sol:CreationManager",
        "label": "_owner",
        "offset": 0,
        "slot": "151",
        "type": "t_address"
      },
      {
        "astId": 534,
        "contract": "contracts/CreationManager.sol:CreationManager",
        "label": "__gap",
        "offset": 0,
        "slot": "152",
        "type": "t_array(t_uint256)49_storage"
      },
      {
        "astId": 8959,
        "contract": "contracts/CreationManager.sol:CreationManager",
        "label": "podManagerAddress",
        "offset": 0,
        "slot": "201",
        "type": "t_address"
      }
    ],
    "types": {
      "t_address": {
        "encoding": "inplace",
        "label": "address",
        "numberOfBytes": "20"
      },
      "t_array(t_uint256)49_storage": {
        "base": "t_uint256",
        "encoding": "inplace",
        "label": "uint256[49]",
        "numberOfBytes": "1568"
      },
      "t_array(t_uint256)50_storage": {
        "base": "t_uint256",
        "encoding": "inplace",
        "label": "uint256[50]",
        "numberOfBytes": "1600"
      },
      "t_bool": {
        "encoding": "inplace",
        "label": "bool",
        "numberOfBytes": "1"
      },
      "t_uint256": {
        "encoding": "inplace",
        "label": "uint256",
        "numberOfBytes": "32"
      }
    }
  }
}