{
  "address": "0x228C4dE1030DE5d912193C33d9E707CB0A860510",
  "abi": [
    {
      "inputs": [
        {
          "internalType": "address",
          "name": "_stakingERC721Beacon",
          "type": "address"
        },
        {
          "internalType": "address",
          "name": "_stakingGovernance",
          "type": "address"
        },
        {
          "internalType": "address",
          "name": "_openSale",
          "type": "address"
        }
      ],
      "stateMutability": "nonpayable",
      "type": "constructor"
    },
    {
      "anonymous": false,
      "inputs": [
        {
          "indexed": false,
          "internalType": "address",
          "name": "staker",
          "type": "address"
        },
        {
          "indexed": false,
          "internalType": "uint256",
          "name": "amount",
          "type": "uint256"
        },
        {
          "indexed": false,
          "internalType": "uint256",
          "name": "tokenId",
          "type": "uint256"
        }
      ],
      "name": "CopyrightStaked",
      "type": "event"
    },
    {
      "anonymous": false,
      "inputs": [
        {
          "indexed": false,
          "internalType": "address",
          "name": "destination",
          "type": "address"
        },
        {
          "indexed": false,
          "internalType": "uint256",
          "name": "amount",
          "type": "uint256"
        },
        {
          "indexed": false,
          "internalType": "uint256",
          "name": "tokenId",
          "type": "uint256"
        }
      ],
      "name": "CopyrightUnstaked",
      "type": "event"
    },
    {
      "anonymous": false,
      "inputs": [
        {
          "indexed": false,
          "internalType": "address",
          "name": "claimTo",
          "type": "address"
        },
        {
          "indexed": false,
          "internalType": "uint256",
          "name": "reward",
          "type": "uint256"
        },
        {
          "indexed": false,
          "internalType": "uint256",
          "name": "tokenId",
          "type": "uint256"
        }
      ],
      "name": "RewardsClaimed",
      "type": "event"
    },
    {
      "anonymous": false,
      "inputs": [
        {
          "indexed": true,
          "internalType": "bytes32",
          "name": "role",
          "type": "bytes32"
        },
        {
          "indexed": true,
          "internalType": "bytes32",
          "name": "previousAdminRole",
          "type": "bytes32"
        },
        {
          "indexed": true,
          "internalType": "bytes32",
          "name": "newAdminRole",
          "type": "bytes32"
        }
      ],
      "name": "RoleAdminChanged",
      "type": "event"
    },
    {
      "anonymous": false,
      "inputs": [
        {
          "indexed": true,
          "internalType": "bytes32",
          "name": "role",
          "type": "bytes32"
        },
        {
          "indexed": true,
          "internalType": "address",
          "name": "account",
          "type": "address"
        },
        {
          "indexed": true,
          "internalType": "address",
          "name": "sender",
          "type": "address"
        }
      ],
      "name": "RoleGranted",
      "type": "event"
    },
    {
      "anonymous": false,
      "inputs": [
        {
          "indexed": true,
          "internalType": "bytes32",
          "name": "role",
          "type": "bytes32"
        },
        {
          "indexed": true,
          "internalType": "address",
          "name": "account",
          "type": "address"
        },
        {
          "indexed": true,
          "internalType": "address",
          "name": "sender",
          "type": "address"
        }
      ],
      "name": "RoleRevoked",
      "type": "event"
    },
    {
      "anonymous": false,
      "inputs": [
        {
          "indexed": false,
          "internalType": "uint256",
          "name": "tokenId",
          "type": "uint256"
        },
        {
          "indexed": false,
          "internalType": "uint256",
          "name": "price",
          "type": "uint256"
        },
        {
          "indexed": false,
          "internalType": "address",
          "name": "paymentToken",
          "type": "address"
        },
        {
          "indexed": false,
          "internalType": "address",
          "name": "secretWallet",
          "type": "address"
        }
      ],
      "name": "SaleWithPrivateNetworkApproved",
      "type": "event"
    },
    {
      "anonymous": false,
      "inputs": [
        {
          "indexed": false,
          "internalType": "uint256",
          "name": "tokenId",
          "type": "uint256"
        },
        {
          "indexed": false,
          "internalType": "uint256",
          "name": "price",
          "type": "uint256"
        },
        {
          "indexed": false,
          "internalType": "address",
          "name": "paymentToken",
          "type": "address"
        },
        {
          "indexed": false,
          "internalType": "address",
          "name": "secretWallet",
          "type": "address"
        }
      ],
      "name": "SaleWithPrivateNetworkCompleted",
      "type": "event"
    },
    {
      "inputs": [],
      "name": "DECIMALS",
      "outputs": [
        {
          "internalType": "uint256",
          "name": "",
          "type": "uint256"
        }
      ],
      "stateMutability": "view",
      "type": "function"
    },
    {
      "inputs": [],
      "name": "DEFAULT_ADMIN_ROLE",
      "outputs": [
        {
          "internalType": "bytes32",
          "name": "",
          "type": "bytes32"
        }
      ],
      "stateMutability": "view",
      "type": "function"
    },
    {
      "inputs": [],
      "name": "STAKING_GOVERNANCE",
      "outputs": [
        {
          "internalType": "bytes32",
          "name": "",
          "type": "bytes32"
        }
      ],
      "stateMutability": "view",
      "type": "function"
    },
    {
      "inputs": [
        {
          "internalType": "uint256",
          "name": "tokenId",
          "type": "uint256"
        },
        {
          "internalType": "uint256",
          "name": "price",
          "type": "uint256"
        },
        {
          "internalType": "address",
          "name": "paymentToken",
          "type": "address"
        }
      ],
      "name": "approveSale",
      "outputs": [],
      "stateMutability": "nonpayable",
      "type": "function"
    },
    {
      "inputs": [
        {
          "internalType": "uint256",
          "name": "id",
          "type": "uint256"
        }
      ],
      "name": "claimCopyrightFractionRewards",
      "outputs": [],
      "stateMutability": "nonpayable",
      "type": "function"
    },
    {
      "inputs": [
        {
          "internalType": "uint256",
          "name": "tokenId",
          "type": "uint256"
        }
      ],
      "name": "completeSaleWithPrivateNetwork",
      "outputs": [],
      "stateMutability": "nonpayable",
      "type": "function"
    },
    {
      "inputs": [],
      "name": "copyrightFractionStakingNFT",
      "outputs": [
        {
          "internalType": "address",
          "name": "",
          "type": "address"
        }
      ],
      "stateMutability": "view",
      "type": "function"
    },
    {
      "inputs": [],
      "name": "copyrightFractionToken",
      "outputs": [
        {
          "internalType": "address",
          "name": "",
          "type": "address"
        }
      ],
      "stateMutability": "view",
      "type": "function"
    },
    {
      "inputs": [],
      "name": "cumulativeRevenue",
      "outputs": [
        {
          "internalType": "uint256",
          "name": "",
          "type": "uint256"
        }
      ],
      "stateMutability": "view",
      "type": "function"
    },
    {
      "inputs": [
        {
          "internalType": "uint256",
          "name": "id",
          "type": "uint256"
        }
      ],
      "name": "getCopyrightRewards",
      "outputs": [
        {
          "internalType": "uint256",
          "name": "reward",
          "type": "uint256"
        }
      ],
      "stateMutability": "view",
      "type": "function"
    },
    {
      "inputs": [
        {
          "internalType": "address",
          "name": "owner",
          "type": "address"
        }
      ],
      "name": "getCopyrightStakingPositions",
      "outputs": [
        {
          "internalType": "uint256[]",
          "name": "",
          "type": "uint256[]"
        }
      ],
      "stateMutability": "view",
      "type": "function"
    },
    {
      "inputs": [
        {
          "internalType": "bytes32",
          "name": "role",
          "type": "bytes32"
        }
      ],
      "name": "getRoleAdmin",
      "outputs": [
        {
          "internalType": "bytes32",
          "name": "",
          "type": "bytes32"
        }
      ],
      "stateMutability": "view",
      "type": "function"
    },
    {
      "inputs": [
        {
          "internalType": "bytes32",
          "name": "role",
          "type": "bytes32"
        },
        {
          "internalType": "address",
          "name": "account",
          "type": "address"
        }
      ],
      "name": "grantRole",
      "outputs": [],
      "stateMutability": "nonpayable",
      "type": "function"
    },
    {
      "inputs": [
        {
          "internalType": "bytes32",
          "name": "role",
          "type": "bytes32"
        },
        {
          "internalType": "address",
          "name": "account",
          "type": "address"
        }
      ],
      "name": "hasRole",
      "outputs": [
        {
          "internalType": "bool",
          "name": "",
          "type": "bool"
        }
      ],
      "stateMutability": "view",
      "type": "function"
    },
    {
      "inputs": [
        {
          "internalType": "address",
          "name": "_podFundingToken",
          "type": "address"
        },
        {
          "internalType": "address",
          "name": "_copyrightFractionToken",
          "type": "address"
        },
        {
          "internalType": "string",
          "name": "podName",
          "type": "string"
        },
        {
          "internalType": "string",
          "name": "podSymbol",
          "type": "string"
        },
        {
          "internalType": "uint256",
          "name": "_investorShare",
          "type": "uint256"
        },
        {
          "internalType": "address",
          "name": "copyrightNFT",
          "type": "address"
        },
        {
          "internalType": "address",
          "name": "erc721WithRoyalty",
          "type": "address"
        }
      ],
      "name": "initialize",
      "outputs": [
        {
          "internalType": "address",
          "name": "stakingNFT",
          "type": "address"
        }
      ],
      "stateMutability": "nonpayable",
      "type": "function"
    },
    {
      "inputs": [],
      "name": "investorShare",
      "outputs": [
        {
          "internalType": "uint256",
          "name": "",
          "type": "uint256"
        }
      ],
      "stateMutability": "view",
      "type": "function"
    },
    {
      "inputs": [],
      "name": "lastRoyalty",
      "outputs": [
        {
          "internalType": "uint256",
          "name": "",
          "type": "uint256"
        }
      ],
      "stateMutability": "view",
      "type": "function"
    },
    {
      "inputs": [
        {
          "internalType": "address",
          "name": "",
          "type": "address"
        },
        {
          "internalType": "address",
          "name": "",
          "type": "address"
        },
        {
          "internalType": "uint256",
          "name": "",
          "type": "uint256"
        },
        {
          "internalType": "bytes",
          "name": "",
          "type": "bytes"
        }
      ],
      "name": "onERC721Received",
      "outputs": [
        {
          "internalType": "bytes4",
          "name": "",
          "type": "bytes4"
        }
      ],
      "stateMutability": "nonpayable",
      "type": "function"
    },
    {
      "inputs": [
        {
          "internalType": "uint256",
          "name": "",
          "type": "uint256"
        }
      ],
      "name": "onSale",
      "outputs": [
        {
          "internalType": "address",
          "name": "secretWallet",
          "type": "address"
        },
        {
          "internalType": "address",
          "name": "paymentToken",
          "type": "address"
        },
        {
          "internalType": "uint256",
          "name": "price",
          "type": "uint256"
        }
      ],
      "stateMutability": "view",
      "type": "function"
    },
    {
      "inputs": [],
      "name": "openSale",
      "outputs": [
        {
          "internalType": "address",
          "name": "",
          "type": "address"
        }
      ],
      "stateMutability": "view",
      "type": "function"
    },
    {
      "inputs": [],
      "name": "podFundingToken",
      "outputs": [
        {
          "internalType": "address",
          "name": "",
          "type": "address"
        }
      ],
      "stateMutability": "view",
      "type": "function"
    },
    {
      "inputs": [
        {
          "internalType": "bytes32",
          "name": "role",
          "type": "bytes32"
        },
        {
          "internalType": "address",
          "name": "account",
          "type": "address"
        }
      ],
      "name": "renounceRole",
      "outputs": [],
      "stateMutability": "nonpayable",
      "type": "function"
    },
    {
      "inputs": [
        {
          "internalType": "bytes32",
          "name": "role",
          "type": "bytes32"
        },
        {
          "internalType": "address",
          "name": "account",
          "type": "address"
        }
      ],
      "name": "revokeRole",
      "outputs": [],
      "stateMutability": "nonpayable",
      "type": "function"
    },
    {
      "inputs": [
        {
          "internalType": "uint256",
          "name": "tokenId",
          "type": "uint256"
        },
        {
          "internalType": "uint256",
          "name": "price",
          "type": "uint256"
        },
        {
          "internalType": "address",
          "name": "paymentToken",
          "type": "address"
        },
        {
          "internalType": "address",
          "name": "secretWallet",
          "type": "address"
        }
      ],
      "name": "sellWithPrivateNetwork",
      "outputs": [],
      "stateMutability": "nonpayable",
      "type": "function"
    },
    {
      "inputs": [
        {
          "internalType": "uint256",
          "name": "amount",
          "type": "uint256"
        }
      ],
      "name": "stakeCopyrightFractions",
      "outputs": [],
      "stateMutability": "nonpayable",
      "type": "function"
    },
    {
      "inputs": [
        {
          "internalType": "uint256",
          "name": "nftId",
          "type": "uint256"
        }
      ],
      "name": "stakeCopyrightNFT",
      "outputs": [],
      "stateMutability": "nonpayable",
      "type": "function"
    },
    {
      "inputs": [],
      "name": "stakingERC721Beacon",
      "outputs": [
        {
          "internalType": "address",
          "name": "",
          "type": "address"
        }
      ],
      "stateMutability": "view",
      "type": "function"
    },
    {
      "inputs": [],
      "name": "stakingGovernance",
      "outputs": [
        {
          "internalType": "address",
          "name": "",
          "type": "address"
        }
      ],
      "stateMutability": "view",
      "type": "function"
    },
    {
      "inputs": [],
      "name": "stakingGovernanceBeacon",
      "outputs": [
        {
          "internalType": "address",
          "name": "",
          "type": "address"
        }
      ],
      "stateMutability": "view",
      "type": "function"
    },
    {
      "inputs": [
        {
          "internalType": "bytes4",
          "name": "interfaceId",
          "type": "bytes4"
        }
      ],
      "name": "supportsInterface",
      "outputs": [
        {
          "internalType": "bool",
          "name": "",
          "type": "bool"
        }
      ],
      "stateMutability": "view",
      "type": "function"
    },
    {
      "inputs": [],
      "name": "totalCFStaked",
      "outputs": [
        {
          "internalType": "uint256",
          "name": "",
          "type": "uint256"
        }
      ],
      "stateMutability": "view",
      "type": "function"
    },
    {
      "inputs": [],
      "name": "totalPTStaked",
      "outputs": [
        {
          "internalType": "uint256",
          "name": "",
          "type": "uint256"
        }
      ],
      "stateMutability": "view",
      "type": "function"
    },
    {
      "inputs": [],
      "name": "totalSharesCopyright",
      "outputs": [
        {
          "internalType": "uint256",
          "name": "",
          "type": "uint256"
        }
      ],
      "stateMutability": "view",
      "type": "function"
    },
    {
      "inputs": [],
      "name": "totalSharesInvestor",
      "outputs": [
        {
          "internalType": "uint256",
          "name": "",
          "type": "uint256"
        }
      ],
      "stateMutability": "view",
      "type": "function"
    },
    {
      "inputs": [
        {
          "internalType": "uint256",
          "name": "id",
          "type": "uint256"
        },
        {
          "internalType": "uint256",
          "name": "amount",
          "type": "uint256"
        }
      ],
      "name": "unstakeCopyrightFractions",
      "outputs": [],
      "stateMutability": "nonpayable",
      "type": "function"
    },
    {
      "inputs": [
        {
          "internalType": "uint256",
          "name": "stakingId",
          "type": "uint256"
        }
      ],
      "name": "unstakeCopyrightNFT",
      "outputs": [],
      "stateMutability": "nonpayable",
      "type": "function"
    }
  ],
  "transactionHash": "0x3b643fc8a86c2f85bcbd0e7c5491e0d2a93069a52546ba74c2fa74efe7894d09",
  "args": [
    "0xa6A3C38784DeCA67F8Bd9930fb0d601D8F866e3c",
    "0x233ED03f4F5280ac8dB45BE7E0b6bFb447d3542b",
    "0x0000000000000000000000000000000000000000"
  ],
  "numDeployments": 1,
  "solcInputHash": "d75cb78d3090036566fedddd8891be90",
  "bytecode": "0x60e06040523480156200001157600080fd5b50604051620037be380380620037be833981016040819052620000349162000079565b6001600160601b0319606093841b811660805291831b821660a05290911b1660c052620000c3565b80516001600160a01b03811681146200007457600080fd5b919050565b6000806000606084860312156200008f57600080fd5b6200009a846200005c565b9250620000aa602085016200005c565b9150620000ba604085016200005c565b90509250925092565b60805160601c60a05160601c60c05160601c6136a662000118600039600081816102d40152818161134301526113f401526000818161040c0152610daa0152600081816105280152610d0601526136a66000f3fe60806040523480156200001157600080fd5b5060043610620002495760003560e01c80638379ff30116200013d578063be09a5da11620000bb578063d547741f1162000086578063d547741f146200059b578063ee8b64cc14620005b2578063f053eac214620005bc578063ffd4b8f114620005d0578063ffda654614620005e457600080fd5b8063be09a5da1462000522578063c83b8d3a146200054a578063ca7444fd1462000570578063cfd405eb146200058457600080fd5b8063af506dbd1162000108578063af506dbd1462000490578063b24721af14620004a7578063b43a76f114620004b1578063b95d1f891462000501578063bc423c45146200050b57600080fd5b80638379ff30146200044257806391d148541462000459578063a217fddf1462000470578063a5d9fe29146200047957600080fd5b80632f2ff15d11620001cb578063483b4f111162000196578063483b4f1114620003d85780635133454714620003ef5780636484694314620004065780636f3c94ea146200042e578063724fcd01146200043857600080fd5b80632f2ff15d1462000389578063323a271414620003a057806336568abe14620003b7578063418e921514620003ce57600080fd5b8063176492ac1162000218578063176492ac146200030f578063212f3c25146200032357806322333958146200033a578063248a9ca314620003535780632e0f2625146200037957600080fd5b806301ffc9a7146200024e5780630fe5c236146200027a578063150b7a021462000293578063167ff46f14620002ce575b600080fd5b620002656200025f36600462002867565b620005fb565b60405190151581526020015b60405180910390f35b6200028460995481565b60405190815260200162000271565b620002b4620002a4366004620026b5565b630a85bd0160e11b949350505050565b6040516001600160e01b0319909116815260200162000271565b620002f67f000000000000000000000000000000000000000000000000000000000000000081565b6040516001600160a01b03909116815260200162000271565b60a154620002f6906001600160a01b031681565b62000284620003343660046200281a565b62000633565b620003516200034b3660046200281a565b620006c5565b005b62000284620003643660046200281a565b60009081526065602052604090206001015490565b62000284670de0b6b3a764000081565b620003516200039a36600462002834565b6200086f565b62000351620003b13660046200281a565b6200089e565b62000351620003c836600462002834565b62000ae6565b62000284609c5481565b620002f6620003e9366004620025ec565b62000b68565b6200035162000400366004620028ad565b62000f81565b620002f67f000000000000000000000000000000000000000000000000000000000000000081565b62000284609a5481565b62000284609b5481565b62000351620004533660046200290c565b62000fa6565b620002656200046a36600462002834565b620010fa565b62000284600081565b620003516200048a3660046200281a565b62001125565b62000351620004a1366004620028d0565b6200130d565b62000284609d5481565b620004f0620004c23660046200281a565b60a6602052600090815260409020805460018201546002909201546001600160a01b03918216929091169083565b604051620002719392919062002a80565b62000284609f5481565b620003516200051c3660046200281a565b62001428565b620002f67f000000000000000000000000000000000000000000000000000000000000000081565b620005616200055b366004620025ac565b620015e5565b60405162000271919062002ac5565b60a054620002f6906001600160a01b031681565b62000351620005953660046200281a565b6200166b565b62000351620005ac36600462002834565b62001771565b62000284609e5481565b609854620002f6906001600160a01b031681565b609754620002f6906001600160a01b031681565b620002846000805160206200365183398151915281565b60006001600160e01b03198216637965db0b60e01b14806200062d57506301ffc9a760e01b6001600160e01b03198316145b92915050565b60a054609e546040516309f6842360e11b81526000926001600160a01b0316916313ed08469162000671918691600401918252602082015260400190565b60206040518083038186803b1580156200068a57600080fd5b505afa1580156200069f573d6000803e3d6000fd5b505050506040513d601f19601f820116820180604052508101906200062d919062002893565b60a0546040516331a9108f60e11b81526004810183905233916001600160a01b031690636352211e9060240160206040518083038186803b1580156200070a57600080fd5b505afa1580156200071f573d6000803e3d6000fd5b505050506040513d601f19601f82011682018060405250810190620007459190620025cc565b6001600160a01b031614620007b45760405162461bcd60e51b815260206004820152602a60248201527f43616e6e6f7420636c61696d2072657761726473206f6e206e6f74206f776e6560448201526932103837b9b4ba34b7b760b11b60648201526084015b60405180910390fd5b609a546097546040516370a0823160e01b81523060048201526200084d92916001600160a01b0316906370a08231906024015b60206040518083038186803b1580156200080057600080fd5b505afa15801562000815573d6000803e3d6000fd5b505050506040513d601f19601f820116820180604052508101906200083b919062002893565b62000847919062002c02565b6200179b565b60a054609e546200086c9183916001600160a01b039091169062001806565b50565b6000828152606560205260409020600101546200088d8133620019e4565b62000899838362001a53565b505050565b60a2546040516331a9108f60e11b8152600481018390526001600160a01b039091169033908290636352211e9060240160206040518083038186803b158015620008e757600080fd5b505afa158015620008fc573d6000803e3d6000fd5b505050506040513d601f19601f82011682018060405250810190620009229190620025cc565b6001600160a01b0316146200097a5760405162461bcd60e51b815260206004820152601b60248201527f43616e206f6e6c79207374616b65206f776e656420746f6b656e7300000000006044820152606401620007ab565b604051630becbabb60e01b8152600481018390526000906001600160a01b03831690630becbabb9060240160206040518083038186803b158015620009be57600080fd5b505afa158015620009d3573d6000803e3d6000fd5b505050506040513d601f19601f82011682018060405250810190620009f9919062002893565b9050600062000a09338362001add565b600081815260a560205260409081902086905551632142170760e11b81529091506001600160a01b038416906342842e0e9062000a4f9033903090899060040162002a80565b600060405180830381600087803b15801562000a6a57600080fd5b505af115801562000a7f573d6000803e3d6000fd5b5050604051631af4f1b760e31b8152600481018790526001600160a01b038616925063d7a78db891506024015b600060405180830381600087803b15801562000ac757600080fd5b505af115801562000adc573d6000803e3d6000fd5b5050505050505050565b6001600160a01b038116331462000b585760405162461bcd60e51b815260206004820152602f60248201527f416363657373436f6e74726f6c3a2063616e206f6e6c792072656e6f756e636560448201526e103937b632b9903337b91039b2b63360891b6064820152608401620007ab565b62000b64828262001bd7565b5050565b60008054610100900460ff1662000b865760005460ff161562000b8a565b303b155b62000bef5760405162461bcd60e51b815260206004820152602e60248201527f496e697469616c697a61626c653a20636f6e747261637420697320616c72656160448201526d191e481a5b9a5d1a585b1a5e995960921b6064820152608401620007ab565b600054610100900460ff1615801562000c12576000805461ffff19166101011790555b6001600160a01b03881662000c6a5760405162461bcd60e51b815260206004820181905260248201527f496e76616c696420636f70797269676874206672616374696f6e20746f6b656e6044820152606401620007ab565b670de0b6b3a764000085111562000cc45760405162461bcd60e51b815260206004820152601b60248201527f496e766573746f722073686172652065786365656473203130302500000000006044820152606401620007ab565b609780546001600160a01b03808c166001600160a01b031992831617909255609880548b841690831617905560a38054928616929091169190911790556040517f00000000000000000000000000000000000000000000000000000000000000009062000d31906200251d565b6001600160a01b039091168152604060208201819052600090820152606001604051809103906000f08015801562000d6d573d6000803e3d6000fd5b5060a080546001600160a01b03199081166001600160a01b0393841617909155609987905560a280549091169186169190911790556040516000907f00000000000000000000000000000000000000000000000000000000000000009062000dd5906200251d565b6001600160a01b039091168152604060208201819052600090820152606001604051809103906000f08015801562000e11573d6000803e3d6000fd5b5060a180546001600160a01b0319166001600160a01b0383811691821790925560a05460405163189acdbd60e31b81529216600483015291925063c4d66de890602401600060405180830381600087803b15801562000e6f57600080fd5b505af115801562000e84573d6000803e3d6000fd5b505060a0546040516001600160a01b039091169250638f15b414915062000eb0908b90602001620029a7565b6040516020818303038152906040528960405160200162000ed29190620029da565b6040516020818303038152906040528c856040518563ffffffff1660e01b815260040162000f04949392919062002b20565b600060405180830381600087803b15801562000f1f57600080fd5b505af115801562000f34573d6000803e3d6000fd5b5050505062000f53600080516020620036518339815191528262001c41565b5060a0546001600160a01b03169150801562000f75576000805461ff00191690555b50979650505050505050565b62000f8d828262001c4d565b60985462000b64906001600160a01b0316338362001fb1565b6000805160206200365183398151915262000fc28133620019e4565b60a3546040516323b872dd60e01b81526001600160a01b03909116906323b872dd9062000ff890309086908a9060040162002a80565b600060405180830381600087803b1580156200101357600080fd5b505af115801562001028573d6000803e3d6000fd5b5050604080516060810182526001600160a01b03808716825287811660208084019182528385018b815260008d815260a690925290859020935184549084166001600160a01b031991821617855591516001850180549190941692169190911790915551600290910155517f6b4936ed839f0f647ea4dfabdd91b9dc92ec78fbb64b96c7594be63d3b83f8ae9250620010eb9150879087908790879093845260208401929092526001600160a01b03908116604084015216606082015260800190565b60405180910390a15050505050565b60009182526065602090815260408084206001600160a01b0393909316845291905290205460ff1690565b600081815260a66020908152604091829020825160608101845281546001600160a01b039081168252600183015416928101929092526002015491810182905290620011a85760405162461bcd60e51b81526020600482015260116024820152704e6f6e2d6578697374656e742073616c6560781b6044820152606401620007ab565b805160a3546040516331a9108f60e11b8152600481018590526001600160a01b039283169290911690636352211e9060240160206040518083038186803b158015620011f357600080fd5b505afa15801562001208573d6000803e3d6000fd5b505050506040513d601f19601f820116820180604052508101906200122e9190620025cc565b6001600160a01b03161415620012805760405162461bcd60e51b815260206004820152601660248201527514d85b19481b9bdd0818dbdb5c1b195d1959081e595d60521b6044820152606401620007ab565b60408181015160208084015184518451878152928301939093526001600160a01b0390811682850152909116606082015290517fcc04820b08079014e6d1c851f2f31dc8a89c0b2b6bd15a877bb96c6124797f7b9181900360800190a150600090815260a66020526040812080546001600160a01b03199081168255600182018054909116905560020155565b60008051602062003651833981519152620013298133620019e4565b60a35460405163095ea7b360e01b81526001600160a01b037f000000000000000000000000000000000000000000000000000000000000000081166004830152602482018790529091169063095ea7b390604401600060405180830381600087803b1580156200139857600080fd5b505af1158015620013ad573d6000803e3d6000fd5b505060a35460405163740bd95760e01b81526001600160a01b03918216600482015260248101889052858216604482015260648101879052306084820152600060a48201527f0000000000000000000000000000000000000000000000000000000000000000909116925063740bd957915060c40162000aac565b60a254600082815260a56020526040808220549051630becbabb60e01b8152600481018290526001600160a01b03909316929091908390630becbabb9060240160206040518083038186803b1580156200148157600080fd5b505afa15801562001496573d6000803e3d6000fd5b505050506040513d601f19601f82011682018060405250810190620014bc919062002893565b9050620014ca848262001c4d565b60985460a25460405163095ea7b360e01b81526001600160a01b0391821660048201526024810184905291169063095ea7b390604401602060405180830381600087803b1580156200151b57600080fd5b505af115801562001530573d6000803e3d6000fd5b505050506040513d601f19601f82011682018060405250810190620015569190620027f6565b50604051633311fe2360e11b8152600481018390526001600160a01b03841690636623fc4690602401600060405180830381600087803b1580156200159a57600080fd5b505af1158015620015af573d6000803e3d6000fd5b5050604051632142170760e11b81526001600160a01b03861692506342842e0e915062000aac9030903390879060040162002a80565b60a054604051631f75a98760e11b81526001600160a01b0383811660048301526060921690633eeb530e9060240160006040518083038186803b1580156200162c57600080fd5b505afa15801562001641573d6000803e3d6000fd5b505050506040513d6000823e601f3d908101601f191682016040526200062d91908101906200273e565b6098546040516370a0823160e01b815233600482015282916001600160a01b0316906370a082319060240160206040518083038186803b158015620016af57600080fd5b505afa158015620016c4573d6000803e3d6000fd5b505050506040513d601f19601f82011682018060405250810190620016ea919062002893565b10156200174a5760405162461bcd60e51b815260206004820152602760248201527f496e73756666696369656e7420636f70797269676874206672616374696f6e2060448201526662616c616e636560c81b6064820152608401620007ab565b62001756338262001add565b506098546200086c906001600160a01b031633308462002016565b6000828152606560205260409020600101546200178f8133620019e4565b62000899838362001bd7565b609c54156200086c57670de0b6b3a7640000609c54620017bc919062002be0565b609954620017cb908362002be0565b620017df90670de0b6b3a764000062002be0565b620017eb919062002bbd565b609e6000828254620017fe919062002ba2565b909155505050565b6040516309f6842360e11b815260048101849052602481018290526000906001600160a01b038416906313ed08469060440160206040518083038186803b1580156200185157600080fd5b505afa15801562001866573d6000803e3d6000fd5b505050506040513d601f19601f820116820180604052508101906200188c919062002893565b6097546040516370a0823160e01b815230600482015291925082916001600160a01b03909116906370a082319060240160206040518083038186803b158015620018d557600080fd5b505afa158015620018ea573d6000803e3d6000fd5b505050506040513d601f19601f8201168201806040525081019062001910919062002893565b6200191c919062002c02565b609a5560405163a0d9643560e01b815260048101859052336024820152604481018390526001600160a01b0384169063a0d9643590606401600060405180830381600087803b1580156200196f57600080fd5b505af115801562001984573d6000803e3d6000fd5b505050507fdacbdde355ba930696a362ea6738feb9f8bd52dfb3d81947558fd3217e23e325338286604051620019bd9392919062002aa4565b60405180910390a1609754620019de906001600160a01b0316338362001fb1565b50505050565b620019f08282620010fa565b62000b645762001a0b816001600160a01b031660146200203a565b62001a188360206200203a565b60405160200162001a2b92919062002a07565b60408051601f198184030181529082905262461bcd60e51b8252620007ab9160040162002b0b565b62001a5f8282620010fa565b62000b645760008281526065602090815260408083206001600160a01b03851684529091529020805460ff1916600117905562001a993390565b6001600160a01b0316816001600160a01b0316837f2f8788117e7eff1d82e926ec794901d17c78024a50270940304540a733656f0d60405160405180910390a45050565b600062001ae9620021fb565b81609c600082825462001afd919062002ba2565b909155505060a054609e54604051633ad0466760e11b81526000926001600160a01b0316916375a08cce9162001b3b91889188919060040162002aa4565b602060405180830381600087803b15801562001b5657600080fd5b505af115801562001b6b573d6000803e3d6000fd5b505050506040513d601f19601f8201168201806040525081019062001b91919062002893565b90507fff861ee41e267a74f6e2f232254749b0ea2ee7b71691af87348b651f5beccd0e84848360405162001bc89392919062002aa4565b60405180910390a19392505050565b62001be38282620010fa565b1562000b645760008281526065602090815260408083206001600160a01b0385168085529252808320805460ff1916905551339285917ff6391f5c32d9c69d2a47ea670b442974b53935d1edc7fd64eb21e047a839171b9190a45050565b62000b64828262001a53565b60a0546040516331a9108f60e11b81526004810184905233916001600160a01b031690636352211e9060240160206040518083038186803b15801562001c9257600080fd5b505afa15801562001ca7573d6000803e3d6000fd5b505050506040513d601f19601f8201168201806040525081019062001ccd9190620025cc565b6001600160a01b03161462001d315760405162461bcd60e51b8152602060048201526024808201527f43616e6e6f7420756e7374616b65206f6e206e6f74206f776e656420706f73696044820152633a34b7b760e11b6064820152608401620007ab565b609a546097546040516370a0823160e01b815230600482015262001d6992916001600160a01b0316906370a0823190602401620007e7565b60a054609e546040516309f6842360e11b81526000926001600160a01b0316916313ed08469162001da7918791600401918252602082015260400190565b60206040518083038186803b15801562001dc057600080fd5b505afa15801562001dd5573d6000803e3d6000fd5b505050506040513d601f19601f8201168201806040525081019062001dfb919062002893565b6097546040516370a0823160e01b81523060048201529192506000916001600160a01b03909116906370a082319060240160206040518083038186803b15801562001e4557600080fd5b505afa15801562001e5a573d6000803e3d6000fd5b505050506040513d601f19601f8201168201806040525081019062001e80919062002893565b905062001e8e828262002c02565b609a5560a054609e54604051631b021a3160e11b8152600481018790523360248201526044810186905260648101919091526001600160a01b0390911690633604346290608401600060405180830381600087803b15801562001ef057600080fd5b505af115801562001f05573d6000803e3d6000fd5b5050505082609c600082825462001f1d919062002c02565b90915550506040517fdacbdde355ba930696a362ea6738feb9f8bd52dfb3d81947558fd3217e23e3259062001f589033908590889062002aa4565b60405180910390a17ffdf9a3654680dc9368e434118e2f3e965f49622e51340fe10541b984963c76cc33848660405162001f959392919062002aa4565b60405180910390a1609754620019de906001600160a01b031633845b6040516001600160a01b0383166024820152604481018290526200089990849063a9059cbb60e01b906064015b60408051601f198184030181529190526020810180516001600160e01b03166001600160e01b031990931692909217909152620022bb565b620019de846323b872dd60e01b85858560405160240162001fde9392919062002a80565b606060006200204b83600262002be0565b6200205890600262002ba2565b67ffffffffffffffff81111562002073576200207362002c91565b6040519080825280601f01601f1916602001820160405280156200209e576020820181803683370190505b509050600360fc1b81600081518110620020bc57620020bc62002c7b565b60200101906001600160f81b031916908160001a905350600f60fb1b81600181518110620020ee57620020ee62002c7b565b60200101906001600160f81b031916908160001a90535060006200211484600262002be0565b6200212190600162002ba2565b90505b6001811115620021a3576f181899199a1a9b1b9c1cb0b131b232b360811b85600f166010811062002159576200215962002c7b565b1a60f81b82828151811062002172576200217262002c7b565b60200101906001600160f81b031916908160001a90535060049490941c936200219b8162002c4b565b905062002124565b508315620021f45760405162461bcd60e51b815260206004820181905260248201527f537472696e67733a20686578206c656e67746820696e73756666696369656e746044820152606401620007ab565b9392505050565b6097546040516370a0823160e01b81523060048201526000916001600160a01b0316906370a082319060240160206040518083038186803b1580156200224057600080fd5b505afa15801562002255573d6000803e3d6000fd5b505050506040513d601f19601f820116820180604052508101906200227b919062002893565b90506000609a54826200228f919062002c02565b90506200229c816200179b565b80609b6000828254620022b0919062002ba2565b909155505050609a55565b600062002312826040518060400160405280602081526020017f5361666545524332303a206c6f772d6c6576656c2063616c6c206661696c6564815250856001600160a01b0316620023949092919063ffffffff16565b805190915015620008995780806020019051810190620023339190620027f6565b620008995760405162461bcd60e51b815260206004820152602a60248201527f5361666545524332303a204552433230206f7065726174696f6e20646964206e6044820152691bdd081cdd58d8d9595960b21b6064820152608401620007ab565b6060620023a58484600085620023ad565b949350505050565b606082471015620024105760405162461bcd60e51b815260206004820152602660248201527f416464726573733a20696e73756666696369656e742062616c616e636520666f6044820152651c8818d85b1b60d21b6064820152608401620007ab565b843b620024605760405162461bcd60e51b815260206004820152601d60248201527f416464726573733a2063616c6c20746f206e6f6e2d636f6e74726163740000006044820152606401620007ab565b600080866001600160a01b031685876040516200247e919062002989565b60006040518083038185875af1925050503d8060008114620024bd576040519150601f19603f3d011682016040523d82523d6000602084013e620024c2565b606091505b5091509150620024d4828286620024df565b979650505050505050565b60608315620024f0575081620021f4565b825115620025015782518084602001fd5b8160405162461bcd60e51b8152600401620007ab919062002b0b565b6109938062002cbe83390190565b600067ffffffffffffffff83111562002548576200254862002c91565b6200255d601f8401601f191660200162002b6e565b90508281528383830111156200257257600080fd5b828260208301376000602084830101529392505050565b600082601f8301126200259b57600080fd5b620021f4838335602085016200252b565b600060208284031215620025bf57600080fd5b8135620021f48162002ca7565b600060208284031215620025df57600080fd5b8151620021f48162002ca7565b600080600080600080600060e0888a0312156200260857600080fd5b8735620026158162002ca7565b96506020880135620026278162002ca7565b9550604088013567ffffffffffffffff808211156200264557600080fd5b620026538b838c0162002589565b965060608a01359150808211156200266a57600080fd5b50620026798a828b0162002589565b9450506080880135925060a0880135620026938162002ca7565b915060c0880135620026a58162002ca7565b8091505092959891949750929550565b60008060008060808587031215620026cc57600080fd5b8435620026d98162002ca7565b93506020850135620026eb8162002ca7565b925060408501359150606085013567ffffffffffffffff8111156200270f57600080fd5b8501601f810187136200272157600080fd5b62002732878235602084016200252b565b91505092959194509250565b600060208083850312156200275257600080fd5b825167ffffffffffffffff808211156200276b57600080fd5b818501915085601f8301126200278057600080fd5b81518181111562002795576200279562002c91565b8060051b9150620027a884830162002b6e565b8181528481019084860184860187018a1015620027c457600080fd5b600095505b83861015620027e9578051835260019590950194918601918601620027c9565b5098975050505050505050565b6000602082840312156200280957600080fd5b81518015158114620021f457600080fd5b6000602082840312156200282d57600080fd5b5035919050565b600080604083850312156200284857600080fd5b8235915060208301356200285c8162002ca7565b809150509250929050565b6000602082840312156200287a57600080fd5b81356001600160e01b031981168114620021f457600080fd5b600060208284031215620028a657600080fd5b5051919050565b60008060408385031215620028c157600080fd5b50508035926020909101359150565b600080600060608486031215620028e657600080fd5b83359250602084013591506040840135620029018162002ca7565b809150509250925092565b600080600080608085870312156200292357600080fd5b843593506020850135925060408501356200293e8162002ca7565b91506060850135620029508162002ca7565b939692955090935050565b600081518084526200297581602086016020860162002c1c565b601f01601f19169290920160200192915050565b600082516200299d81846020870162002c1c565b9190910192915050565b68031a9ba30b5b4b733960bd1b815260008251620029cd81600985016020870162002c1c565b9190910160090192915050565b6263535f60e81b815260008251620029fa81600385016020870162002c1c565b9190910160030192915050565b7f416363657373436f6e74726f6c3a206163636f756e742000000000000000000081526000835162002a4181601785016020880162002c1c565b7001034b99036b4b9b9b4b733903937b6329607d1b601791840191820152835162002a7481602884016020880162002c1c565b01602801949350505050565b6001600160a01b039384168152919092166020820152604081019190915260600190565b6001600160a01b039390931683526020830191909152604082015260600190565b6020808252825182820181905260009190848201906040850190845b8181101562002aff5783518352928401929184019160010162002ae1565b50909695505050505050565b602081526000620021f460208301846200295b565b60808152600062002b3560808301876200295b565b828103602084015262002b4981876200295b565b6001600160a01b03958616604085015293909416606090920191909152509392505050565b604051601f8201601f1916810167ffffffffffffffff8111828210171562002b9a5762002b9a62002c91565b604052919050565b6000821982111562002bb85762002bb862002c65565b500190565b60008262002bdb57634e487b7160e01b600052601260045260246000fd5b500490565b600081600019048311821515161562002bfd5762002bfd62002c65565b500290565b60008282101562002c175762002c1762002c65565b500390565b60005b8381101562002c3957818101518382015260200162002c1f565b83811115620019de5750506000910152565b60008162002c5d5762002c5d62002c65565b506000190190565b634e487b7160e01b600052601160045260246000fd5b634e487b7160e01b600052603260045260246000fd5b634e487b7160e01b600052604160045260246000fd5b6001600160a01b03811681146200086c57600080fdfe608060405260405161099338038061099383398101604081905261002291610470565b61004d60017fa3f0ad74e5423aebfd80d3ef4346578335a9a72aeaee59ff6cb3582b35133d5161057f565b60008051602061094c83398151915214610069576100696105d0565b6100758282600061007c565b50506105fc565b61008583610156565b6040516001600160a01b038416907f1cf3b03a6cf19fa2baba4df148e9dcabedea7f8a5c07840e207e5c089be95d3e90600090a26000825111806100c65750805b156101515761014f836001600160a01b0316635c60da1b6040518163ffffffff1660e01b815260040160206040518083038186803b15801561010757600080fd5b505afa15801561011b573d6000803e3d6000fd5b505050506040513d601f19601f8201168201806040525081019061013f9190610455565b836102f660201b6100291760201c565b505b505050565b6101698161032260201b6100551760201c565b6101c85760405162461bcd60e51b815260206004820152602560248201527f455243313936373a206e657720626561636f6e206973206e6f74206120636f6e6044820152641d1c9858dd60da1b60648201526084015b60405180910390fd5b61024b816001600160a01b0316635c60da1b6040518163ffffffff1660e01b815260040160206040518083038186803b15801561020457600080fd5b505afa158015610218573d6000803e3d6000fd5b505050506040513d601f19601f8201168201806040525081019061023c9190610455565b61032260201b6100551760201c565b6102b05760405162461bcd60e51b815260206004820152603060248201527f455243313936373a20626561636f6e20696d706c656d656e746174696f6e206960448201526f1cc81b9bdd08184818dbdb9d1c9858dd60821b60648201526084016101bf565b806102d560008051602061094c83398151915260001b61032860201b61005b1760201c565b80546001600160a01b0319166001600160a01b039290921691909117905550565b606061031b838360405180606001604052806027815260200161096c6027913961032b565b9392505050565b3b151590565b90565b6060833b61038a5760405162461bcd60e51b815260206004820152602660248201527f416464726573733a2064656c65676174652063616c6c20746f206e6f6e2d636f6044820152651b9d1c9858dd60d21b60648201526084016101bf565b600080856001600160a01b0316856040516103a59190610530565b600060405180830381855af49150503d80600081146103e0576040519150601f19603f3d011682016040523d82523d6000602084013e6103e5565b606091505b5090925090506103f6828286610400565b9695505050505050565b6060831561040f57508161031b565b82511561041f5782518084602001fd5b8160405162461bcd60e51b81526004016101bf919061054c565b80516001600160a01b038116811461045057600080fd5b919050565b60006020828403121561046757600080fd5b61031b82610439565b6000806040838503121561048357600080fd5b61048c83610439565b60208401519092506001600160401b03808211156104a957600080fd5b818501915085601f8301126104bd57600080fd5b8151818111156104cf576104cf6105e6565b604051601f8201601f19908116603f011681019083821181831017156104f7576104f76105e6565b8160405282815288602084870101111561051057600080fd5b6105218360208301602088016105a4565b80955050505050509250929050565b600082516105428184602087016105a4565b9190910192915050565b602081526000825180602084015261056b8160408501602087016105a4565b601f01601f19169190910160400192915050565b60008282101561059f57634e487b7160e01b600052601160045260246000fd5b500390565b60005b838110156105bf5781810151838201526020016105a7565b8381111561014f5750506000910152565b634e487b7160e01b600052600160045260246000fd5b634e487b7160e01b600052604160045260246000fd5b6103418061060b6000396000f3fe60806040523661001357610011610017565b005b6100115b61002761002261005e565b610106565b565b606061004e83836040518060600160405280602781526020016102e56027913961012a565b9392505050565b3b151590565b90565b60006100917fa3f0ad74e5423aebfd80d3ef4346578335a9a72aeaee59ff6cb3582b35133d50546001600160a01b031690565b6001600160a01b0316635c60da1b6040518163ffffffff1660e01b815260040160206040518083038186803b1580156100c957600080fd5b505afa1580156100dd573d6000803e3d6000fd5b505050506040513d601f19601f82011682018060405250810190610101919061023c565b905090565b3660008037600080366000845af43d6000803e808015610125573d6000f35b3d6000fd5b6060833b61018e5760405162461bcd60e51b815260206004820152602660248201527f416464726573733a2064656c65676174652063616c6c20746f206e6f6e2d636f6044820152651b9d1c9858dd60d21b60648201526084015b60405180910390fd5b600080856001600160a01b0316856040516101a99190610265565b600060405180830381855af49150503d80600081146101e4576040519150601f19603f3d011682016040523d82523d6000602084013e6101e9565b606091505b50915091506101f9828286610203565b9695505050505050565b6060831561021257508161004e565b8251156102225782518084602001fd5b8160405162461bcd60e51b81526004016101859190610281565b60006020828403121561024e57600080fd5b81516001600160a01b038116811461004e57600080fd5b600082516102778184602087016102b4565b9190910192915050565b60208152600082518060208401526102a08160408501602087016102b4565b601f01601f19169190910160400192915050565b60005b838110156102cf5781810151838201526020016102b7565b838111156102de576000848401525b5050505056fe416464726573733a206c6f772d6c6576656c2064656c65676174652063616c6c206661696c6564a2646970667358221220af3edcf4cf6c470978954d2c293799c3488ede270268341fa22392c0f4f0dbc664736f6c63430008060033a3f0ad74e5423aebfd80d3ef4346578335a9a72aeaee59ff6cb3582b35133d50416464726573733a206c6f772d6c6576656c2064656c65676174652063616c6c206661696c6564318bc7a357d9c299a14124abda1465ac06099815f825ca74f40115b80913164ea26469706673582212205bd96cd4fd38e0b6b0c215356f9099e599978c0f05d683eaf042b94a4f21144364736f6c63430008060033",
  "devdoc": {
    "kind": "dev",
    "methods": {
      "getRoleAdmin(bytes32)": {
        "details": "Returns the admin role that controls `role`. See {grantRole} and {revokeRole}. To change a role's admin, use {_setRoleAdmin}."
      },
      "grantRole(bytes32,address)": {
        "details": "Grants `role` to `account`. If `account` had not been already granted `role`, emits a {RoleGranted} event. Requirements: - the caller must have ``role``'s admin role."
      },
      "hasRole(bytes32,address)": {
        "details": "Returns `true` if `account` has been granted `role`."
      },
      "renounceRole(bytes32,address)": {
        "details": "Revokes `role` from the calling account. Roles are often managed via {grantRole} and {revokeRole}: this function's purpose is to provide a mechanism for accounts to lose their privileges if they are compromised (such as when a trusted device is misplaced). If the calling account had been revoked `role`, emits a {RoleRevoked} event. Requirements: - the caller must be `account`."
      },
      "revokeRole(bytes32,address)": {
        "details": "Revokes `role` from `account`. If `account` had been granted `role`, emits a {RoleRevoked} event. Requirements: - the caller must have ``role``'s admin role."
      },
      "supportsInterface(bytes4)": {
        "details": "See {IERC165-supportsInterface}."
      }
    },
    "version": 1
  },
  "userdoc": {
    "kind": "user",
    "methods": {},
    "version": 1
  },
  "storageLayout": {
    "storage": [
      {
        "astId": 950,
        "contract": "contracts/implementations/DistributionManager.sol:DistributionManager",
        "label": "_initialized",
        "offset": 0,
        "slot": "0",
        "type": "t_bool"
      },
      {
        "astId": 953,
        "contract": "contracts/implementations/DistributionManager.sol:DistributionManager",
        "label": "_initializing",
        "offset": 1,
        "slot": "0",
        "type": "t_bool"
      },
      {
        "astId": 4119,
        "contract": "contracts/implementations/DistributionManager.sol:DistributionManager",
        "label": "__gap",
        "offset": 0,
        "slot": "1",
        "type": "t_array(t_uint256)50_storage"
      },
      {
        "astId": 5255,
        "contract": "contracts/implementations/DistributionManager.sol:DistributionManager",
        "label": "__gap",
        "offset": 0,
        "slot": "51",
        "type": "t_array(t_uint256)50_storage"
      },
      {
        "astId": 48,
        "contract": "contracts/implementations/DistributionManager.sol:DistributionManager",
        "label": "_roles",
        "offset": 0,
        "slot": "101",
        "type": "t_mapping(t_bytes32,t_struct(RoleData)43_storage)"
      },
      {
        "astId": 335,
        "contract": "contracts/implementations/DistributionManager.sol:DistributionManager",
        "label": "__gap",
        "offset": 0,
        "slot": "102",
        "type": "t_array(t_uint256)49_storage"
      },
      {
        "astId": 12390,
        "contract": "contracts/implementations/DistributionManager.sol:DistributionManager",
        "label": "podFundingToken",
        "offset": 0,
        "slot": "151",
        "type": "t_address"
      },
      {
        "astId": 12392,
        "contract": "contracts/implementations/DistributionManager.sol:DistributionManager",
        "label": "copyrightFractionToken",
        "offset": 0,
        "slot": "152",
        "type": "t_address"
      },
      {
        "astId": 12394,
        "contract": "contracts/implementations/DistributionManager.sol:DistributionManager",
        "label": "investorShare",
        "offset": 0,
        "slot": "153",
        "type": "t_uint256"
      },
      {
        "astId": 12396,
        "contract": "contracts/implementations/DistributionManager.sol:DistributionManager",
        "label": "lastRoyalty",
        "offset": 0,
        "slot": "154",
        "type": "t_uint256"
      },
      {
        "astId": 12398,
        "contract": "contracts/implementations/DistributionManager.sol:DistributionManager",
        "label": "cumulativeRevenue",
        "offset": 0,
        "slot": "155",
        "type": "t_uint256"
      },
      {
        "astId": 12400,
        "contract": "contracts/implementations/DistributionManager.sol:DistributionManager",
        "label": "totalCFStaked",
        "offset": 0,
        "slot": "156",
        "type": "t_uint256"
      },
      {
        "astId": 12402,
        "contract": "contracts/implementations/DistributionManager.sol:DistributionManager",
        "label": "totalPTStaked",
        "offset": 0,
        "slot": "157",
        "type": "t_uint256"
      },
      {
        "astId": 12404,
        "contract": "contracts/implementations/DistributionManager.sol:DistributionManager",
        "label": "totalSharesCopyright",
        "offset": 0,
        "slot": "158",
        "type": "t_uint256"
      },
      {
        "astId": 12406,
        "contract": "contracts/implementations/DistributionManager.sol:DistributionManager",
        "label": "totalSharesInvestor",
        "offset": 0,
        "slot": "159",
        "type": "t_uint256"
      },
      {
        "astId": 12408,
        "contract": "contracts/implementations/DistributionManager.sol:DistributionManager",
        "label": "copyrightFractionStakingNFT",
        "offset": 0,
        "slot": "160",
        "type": "t_address"
      },
      {
        "astId": 12410,
        "contract": "contracts/implementations/DistributionManager.sol:DistributionManager",
        "label": "stakingGovernance",
        "offset": 0,
        "slot": "161",
        "type": "t_address"
      },
      {
        "astId": 12412,
        "contract": "contracts/implementations/DistributionManager.sol:DistributionManager",
        "label": "_copyrightNFT",
        "offset": 0,
        "slot": "162",
        "type": "t_address"
      },
      {
        "astId": 12414,
        "contract": "contracts/implementations/DistributionManager.sol:DistributionManager",
        "label": "_erc721WithRoyalty",
        "offset": 0,
        "slot": "163",
        "type": "t_address"
      },
      {
        "astId": 12424,
        "contract": "contracts/implementations/DistributionManager.sol:DistributionManager",
        "label": "_positions",
        "offset": 0,
        "slot": "164",
        "type": "t_mapping(t_address,t_uint256)"
      },
      {
        "astId": 12428,
        "contract": "contracts/implementations/DistributionManager.sol:DistributionManager",
        "label": "_nftPositions",
        "offset": 0,
        "slot": "165",
        "type": "t_mapping(t_uint256,t_uint256)"
      },
      {
        "astId": 12433,
        "contract": "contracts/implementations/DistributionManager.sol:DistributionManager",
        "label": "onSale",
        "offset": 0,
        "slot": "166",
        "type": "t_mapping(t_uint256,t_struct(Sale)12370_storage)"
      }
    ],
    "types": {
      "t_address": {
        "encoding": "inplace",
        "label": "address",
        "numberOfBytes": "20"
      },
      "t_array(t_uint256)49_storage": {
        "base": "t_uint256",
        "encoding": "inplace",
        "label": "uint256[49]",
        "numberOfBytes": "1568"
      },
      "t_array(t_uint256)50_storage": {
        "base": "t_uint256",
        "encoding": "inplace",
        "label": "uint256[50]",
        "numberOfBytes": "1600"
      },
      "t_bool": {
        "encoding": "inplace",
        "label": "bool",
        "numberOfBytes": "1"
      },
      "t_bytes32": {
        "encoding": "inplace",
        "label": "bytes32",
        "numberOfBytes": "32"
      },
      "t_mapping(t_address,t_bool)": {
        "encoding": "mapping",
        "key": "t_address",
        "label": "mapping(address => bool)",
        "numberOfBytes": "32",
        "value": "t_bool"
      },
      "t_mapping(t_address,t_uint256)": {
        "encoding": "mapping",
        "key": "t_address",
        "label": "mapping(address => uint256)",
        "numberOfBytes": "32",
        "value": "t_uint256"
      },
      "t_mapping(t_bytes32,t_struct(RoleData)43_storage)": {
        "encoding": "mapping",
        "key": "t_bytes32",
        "label": "mapping(bytes32 => struct AccessControlUpgradeable.RoleData)",
        "numberOfBytes": "32",
        "value": "t_struct(RoleData)43_storage"
      },
      "t_mapping(t_uint256,t_struct(Sale)12370_storage)": {
        "encoding": "mapping",
        "key": "t_uint256",
        "label": "mapping(uint256 => struct Sale)",
        "numberOfBytes": "32",
        "value": "t_struct(Sale)12370_storage"
      },
      "t_mapping(t_uint256,t_uint256)": {
        "encoding": "mapping",
        "key": "t_uint256",
        "label": "mapping(uint256 => uint256)",
        "numberOfBytes": "32",
        "value": "t_uint256"
      },
      "t_struct(RoleData)43_storage": {
        "encoding": "inplace",
        "label": "struct AccessControlUpgradeable.RoleData",
        "members": [
          {
            "astId": 40,
            "contract": "contracts/implementations/DistributionManager.sol:DistributionManager",
            "label": "members",
            "offset": 0,
            "slot": "0",
            "type": "t_mapping(t_address,t_bool)"
          },
          {
            "astId": 42,
            "contract": "contracts/implementations/DistributionManager.sol:DistributionManager",
            "label": "adminRole",
            "offset": 0,
            "slot": "1",
            "type": "t_bytes32"
          }
        ],
        "numberOfBytes": "64"
      },
      "t_struct(Sale)12370_storage": {
        "encoding": "inplace",
        "label": "struct Sale",
        "members": [
          {
            "astId": 12365,
            "contract": "contracts/implementations/DistributionManager.sol:DistributionManager",
            "label": "secretWallet",
            "offset": 0,
            "slot": "0",
            "type": "t_address"
          },
          {
            "astId": 12367,
            "contract": "contracts/implementations/DistributionManager.sol:DistributionManager",
            "label": "paymentToken",
            "offset": 0,
            "slot": "1",
            "type": "t_address"
          },
          {
            "astId": 12369,
            "contract": "contracts/implementations/DistributionManager.sol:DistributionManager",
            "label": "price",
            "offset": 0,
            "slot": "2",
            "type": "t_uint256"
          }
        ],
        "numberOfBytes": "96"
      },
      "t_uint256": {
        "encoding": "inplace",
        "label": "uint256",
        "numberOfBytes": "32"
      }
    }
  }
}