{
  "_format": "hh-sol-artifact-1",
  "contractName": "MediaManager",
  "sourceName": "contracts/MediaManager.sol",
  "abi": [
    {
      "inputs": [
        {
          "internalType": "contract ProtocolParameters",
          "name": "protocol_",
          "type": "address"
        },
        {
          "internalType": "address",
          "name": "ownersCollection_",
          "type": "address"
        }
      ],
      "stateMutability": "nonpayable",
      "type": "constructor"
    },
    {
      "anonymous": false,
      "inputs": [
        {
          "indexed": false,
          "internalType": "address",
          "name": "previousAdmin",
          "type": "address"
        },
        {
          "indexed": false,
          "internalType": "address",
          "name": "newAdmin",
          "type": "address"
        }
      ],
      "name": "AdminChanged",
      "type": "event"
    },
    {
      "anonymous": false,
      "inputs": [
        {
          "indexed": true,
          "internalType": "address",
          "name": "beacon",
          "type": "address"
        }
      ],
      "name": "BeaconUpgraded",
      "type": "event"
    },
    {
      "anonymous": false,
      "inputs": [
        {
          "indexed": false,
          "internalType": "uint256",
          "name": "podId",
          "type": "uint256"
        },
        {
          "indexed": false,
          "internalType": "uint256",
          "name": "mediaIndex",
          "type": "uint256"
        },
        {
          "indexed": false,
          "internalType": "uint256",
          "name": "editionIndex",
          "type": "uint256"
        },
        {
          "indexed": true,
          "internalType": "address",
          "name": "buyer",
          "type": "address"
        }
      ],
      "name": "MediaPurchased",
      "type": "event"
    },
    {
      "anonymous": false,
      "inputs": [
        {
          "indexed": true,
          "internalType": "uint256",
          "name": "podId",
          "type": "uint256"
        },
        {
          "components": [
            {
              "components": [
                {
                  "internalType": "bool",
                  "name": "isStreaming",
                  "type": "bool"
                },
                {
                  "internalType": "string",
                  "name": "masterNFTTokenURI",
                  "type": "string"
                },
                {
                  "internalType": "uint256[]",
                  "name": "pricePerEdition",
                  "type": "uint256[]"
                },
                {
                  "internalType": "uint256[]",
                  "name": "quantityPerEdition",
                  "type": "uint256[]"
                },
                {
                  "internalType": "uint16[]",
                  "name": "percentagePerEdition",
                  "type": "uint16[]"
                },
                {
                  "internalType": "string[]",
                  "name": "tokenURIPerEdition",
                  "type": "string[]"
                }
              ],
              "internalType": "struct MediaWithPrice",
              "name": "media",
              "type": "tuple"
            },
            {
              "components": [
                {
                  "internalType": "uint16",
                  "name": "royaltyPercent",
                  "type": "uint16"
                },
                {
                  "internalType": "address",
                  "name": "royaltyRecipient",
                  "type": "address"
                },
                {
                  "internalType": "string",
                  "name": "proofOfAuthenticity",
                  "type": "string"
                }
              ],
              "internalType": "struct RoyaltyData",
              "name": "royalty",
              "type": "tuple"
            }
          ],
          "indexed": false,
          "internalType": "struct MediaWithRoyalty[]",
          "name": "medias",
          "type": "tuple[]"
        },
        {
          "indexed": false,
          "internalType": "bytes32[]",
          "name": "mediasIds",
          "type": "bytes32[]"
        }
      ],
      "name": "MediasUploaded",
      "type": "event"
    },
    {
      "anonymous": false,
      "inputs": [
        {
          "indexed": true,
          "internalType": "address",
          "name": "previousOwner",
          "type": "address"
        },
        {
          "indexed": true,
          "internalType": "address",
          "name": "newOwner",
          "type": "address"
        }
      ],
      "name": "OwnershipTransferred",
      "type": "event"
    },
    {
      "anonymous": false,
      "inputs": [
        {
          "indexed": true,
          "internalType": "address",
          "name": "implementation",
          "type": "address"
        }
      ],
      "name": "Upgraded",
      "type": "event"
    },
    {
      "inputs": [
        {
          "internalType": "uint256",
          "name": "podId_",
          "type": "uint256"
        },
        {
          "internalType": "uint256",
          "name": "mediaIndex_",
          "type": "uint256"
        },
        {
          "internalType": "uint256",
          "name": "editionIndex_",
          "type": "uint256"
        }
      ],
      "name": "buyMediaEdition",
      "outputs": [],
      "stateMutability": "nonpayable",
      "type": "function"
    },
    {
      "inputs": [
        {
          "internalType": "contract PodsManager",
          "name": "podsManager_",
          "type": "address"
        }
      ],
      "name": "initialize",
      "outputs": [],
      "stateMutability": "nonpayable",
      "type": "function"
    },
    {
      "inputs": [
        {
          "internalType": "uint256",
          "name": "",
          "type": "uint256"
        },
        {
          "internalType": "uint256",
          "name": "",
          "type": "uint256"
        }
      ],
      "name": "mediaIdsPerPod",
      "outputs": [
        {
          "internalType": "bytes32",
          "name": "",
          "type": "bytes32"
        }
      ],
      "stateMutability": "view",
      "type": "function"
    },
    {
      "inputs": [],
      "name": "owner",
      "outputs": [
        {
          "internalType": "address",
          "name": "",
          "type": "address"
        }
      ],
      "stateMutability": "view",
      "type": "function"
    },
    {
      "inputs": [],
      "name": "ownersCollection",
      "outputs": [
        {
          "internalType": "address",
          "name": "",
          "type": "address"
        }
      ],
      "stateMutability": "view",
      "type": "function"
    },
    {
      "inputs": [],
      "name": "protocol",
      "outputs": [
        {
          "internalType": "contract ProtocolParameters",
          "name": "",
          "type": "address"
        }
      ],
      "stateMutability": "view",
      "type": "function"
    },
    {
      "inputs": [],
      "name": "proxiableUUID",
      "outputs": [
        {
          "internalType": "bytes32",
          "name": "",
          "type": "bytes32"
        }
      ],
      "stateMutability": "view",
      "type": "function"
    },
    {
      "inputs": [],
      "name": "renounceOwnership",
      "outputs": [],
      "stateMutability": "nonpayable",
      "type": "function"
    },
    {
      "inputs": [
        {
          "internalType": "address",
          "name": "newOwner",
          "type": "address"
        }
      ],
      "name": "transferOwnership",
      "outputs": [],
      "stateMutability": "nonpayable",
      "type": "function"
    },
    {
      "inputs": [
        {
          "internalType": "address",
          "name": "newImplementation",
          "type": "address"
        }
      ],
      "name": "upgradeTo",
      "outputs": [],
      "stateMutability": "nonpayable",
      "type": "function"
    },
    {
      "inputs": [
        {
          "internalType": "address",
          "name": "newImplementation",
          "type": "address"
        },
        {
          "internalType": "bytes",
          "name": "data",
          "type": "bytes"
        }
      ],
      "name": "upgradeToAndCall",
      "outputs": [],
      "stateMutability": "payable",
      "type": "function"
    },
    {
      "inputs": [
        {
          "internalType": "uint256",
          "name": "podId_",
          "type": "uint256"
        },
        {
          "components": [
            {
              "components": [
                {
                  "internalType": "bool",
                  "name": "isStreaming",
                  "type": "bool"
                },
                {
                  "internalType": "string",
                  "name": "masterNFTTokenURI",
                  "type": "string"
                },
                {
                  "internalType": "uint256[]",
                  "name": "pricePerEdition",
                  "type": "uint256[]"
                },
                {
                  "internalType": "uint256[]",
                  "name": "quantityPerEdition",
                  "type": "uint256[]"
                },
                {
                  "internalType": "uint16[]",
                  "name": "percentagePerEdition",
                  "type": "uint16[]"
                },
                {
                  "internalType": "string[]",
                  "name": "tokenURIPerEdition",
                  "type": "string[]"
                }
              ],
              "internalType": "struct MediaWithPrice",
              "name": "media",
              "type": "tuple"
            },
            {
              "components": [
                {
                  "internalType": "uint16",
                  "name": "royaltyPercent",
                  "type": "uint16"
                },
                {
                  "internalType": "address",
                  "name": "royaltyRecipient",
                  "type": "address"
                },
                {
                  "internalType": "string",
                  "name": "proofOfAuthenticity",
                  "type": "string"
                }
              ],
              "internalType": "struct RoyaltyData",
              "name": "royalty",
              "type": "tuple"
            }
          ],
          "internalType": "struct MediaWithRoyalty[]",
          "name": "medias_",
          "type": "tuple[]"
        },
        {
          "internalType": "address",
          "name": "collectionWithRoyalty_",
          "type": "address"
        },
        {
          "internalType": "address",
          "name": "vault_",
          "type": "address"
        }
      ],
      "name": "uploadMedias",
      "outputs": [
        {
          "internalType": "bytes32[]",
          "name": "mediasIds",
          "type": "bytes32[]"
        }
      ],
      "stateMutability": "nonpayable",
      "type": "function"
    }
  ],
  "bytecode": "0x60e0604052306080523480156200001557600080fd5b50604051620029e0380380620029e083398101604081905262000038916200015f565b600054610100900460ff16620000555760005460ff16156200005f565b6200005f62000119565b620000c75760405162461bcd60e51b815260206004820152602e60248201527f496e697469616c697a61626c653a20636f6e747261637420697320616c72656160448201526d191e481a5b9a5d1a585b1a5e995960921b606482015260840160405180910390fd5b600054610100900460ff16158015620000ea576000805461ffff19166101011790555b6001600160a01b0380841660a052821660c052801562000110576000805461ff00191690555b5050506200019e565b600062000131306200013760201b62000e111760201c565b15905090565b6001600160a01b03163b151590565b6001600160a01b03811681146200015c57600080fd5b50565b600080604083850312156200017357600080fd5b8251620001808162000146565b6020840151909250620001938162000146565b809150509250929050565b60805160a05160c0516127e9620001f76000396000818160be0152610a390152600081816101c9015261096b0152600081816104e901528181610529015281816105fa0152818161063a01526106cd01526127e96000f3fe6080604052600436106100a75760003560e01c8063715018a611610064578063715018a6146101a25780638ce74426146101b75780638da5cb5b146101eb5780639eb22aa114610209578063c4d66de814610229578063f2fde38b1461024957600080fd5b80630b2f3691146100ac5780632e92ddb3146100fd5780633659cfe61461012a57806342d585321461014c5780634f1ef2861461017a57806352d1902d1461018d575b600080fd5b3480156100b857600080fd5b506100e07f000000000000000000000000000000000000000000000000000000000000000081565b6040516001600160a01b0390911681526020015b60405180910390f35b34801561010957600080fd5b5061011d61011836600461192c565b610269565b6040516100f49190611bd7565b34801561013657600080fd5b5061014a610145366004611bea565b6104de565b005b34801561015857600080fd5b5061016c610167366004611c07565b6105be565b6040519081526020016100f4565b61014a610188366004611c29565b6105ef565b34801561019957600080fd5b5061016c6106c0565b3480156101ae57600080fd5b5061014a610773565b3480156101c357600080fd5b506100e07f000000000000000000000000000000000000000000000000000000000000000081565b3480156101f757600080fd5b506097546001600160a01b03166100e0565b34801561021557600080fd5b5061014a610224366004611c8c565b6107a9565b34801561023557600080fd5b5061014a610244366004611bea565b610c95565b34801561025557600080fd5b5061014a610264366004611bea565b610d79565b60c9546060906001600160a01b031633146102cb5760405162461bcd60e51b815260206004820152601860248201527f4f6e6c7920506f64734d616e6167657220616c6c6f776564000000000000000060448201526064015b60405180910390fd5b83516001600160401b038111156102e4576102e46115ab565b60405190808252806020026020018201604052801561030d578160200160208202803683370190505b50905060005b845181101561047b57600085828151811061033057610330611cb8565b602002602001015190506000806001600160a01b03168260200151602001516001600160a01b03161461036b5781602001516020015161036d565b845b6040805160808101825284515115158152845160209081015181830152855160609081015183850152865160a00151818401528351908101845281870180515161ffff1682526001600160a01b038087169383019390935251840151818501529251632e39c6d360e01b8152939450891692632e39c6d3926103f6928a92909190600401611db8565b602060405180830381600087803b15801561041057600080fd5b505af1158015610424573d6000803e3d6000fd5b505050506040513d601f19601f820116820180604052508101906104489190611e48565b84848151811061045a5761045a611cb8565b6020026020010181815250505050808061047390611e61565b915050610313565b50600085815260ca60209081526040909120825161049b9284019061154b565b50847f23f22efcd38fecfe18ca1a2cd342809e43b18dabd5e6da0a22987e2ae19bbf1b85836040516104ce929190611e8a565b60405180910390a2949350505050565b306001600160a01b037f00000000000000000000000000000000000000000000000000000000000000001614156105275760405162461bcd60e51b81526004016102c290611fdd565b7f00000000000000000000000000000000000000000000000000000000000000006001600160a01b031661057060008051602061276d833981519152546001600160a01b031690565b6001600160a01b0316146105965760405162461bcd60e51b81526004016102c290612029565b61059f81610e20565b604080516000808252602082019092526105bb91839190610e4a565b50565b60ca60205281600052604060002081815481106105da57600080fd5b90600052602060002001600091509150505481565b306001600160a01b037f00000000000000000000000000000000000000000000000000000000000000001614156106385760405162461bcd60e51b81526004016102c290611fdd565b7f00000000000000000000000000000000000000000000000000000000000000006001600160a01b031661068160008051602061276d833981519152546001600160a01b031690565b6001600160a01b0316146106a75760405162461bcd60e51b81526004016102c290612029565b6106b082610e20565b6106bc82826001610e4a565b5050565b6000306001600160a01b037f000000000000000000000000000000000000000000000000000000000000000016146107605760405162461bcd60e51b815260206004820152603860248201527f555550535570677261646561626c653a206d757374206e6f742062652063616c60448201527f6c6564207468726f7567682064656c656761746563616c6c000000000000000060648201526084016102c2565b5060008051602061276d83398151915290565b6097546001600160a01b0316331461079d5760405162461bcd60e51b81526004016102c290612075565b6107a76000610fc9565b565b600083815260ca60205260409020546107fd5760405162461bcd60e51b81526020600482015260166024820152751359591a58481b9bdd081d5c1b1bd8591959081e595d60521b60448201526064016102c2565b600083815260ca6020526040812080548490811061081d5761081d611cb8565b600091825260208220015460c95460405163e42747d560e01b8152600481018890529193506001600160a01b03169063e42747d59060240160006040518083038186803b15801561086d57600080fd5b505afa158015610881573d6000803e3d6000fd5b505050506040513d6000823e601f3d908101601f191682016040526108a99190810190612565565b602081015160e0820151815192935090916108f95760405162461bcd60e51b815260206004820152601060248201526f139bdb8b595e1a5cdd195b9d081c1bd960821b60448201526064016102c2565b60008360a00151878151811061091157610911611cb8565b602002602001015190506000816000015160400151878151811061093757610937611cb8565b602002602001015190506109693384600001518388608001516001600160a01b031661101b909392919063ffffffff16565b7f00000000000000000000000000000000000000000000000000000000000000006001600160a01b031663d5c3cdaf6040518163ffffffff1660e01b815260040160206040518083038186803b1580156109c257600080fd5b505afa1580156109d6573d6000803e3d6000fd5b505050506040513d601f19601f820116820180604052508101906109fa919061268f565b6001600160401b031684511015610bda576000806000805b8751811015610bd557878181518110610a2d57610a2d611cb8565b602002602001015193507f00000000000000000000000000000000000000000000000000000000000000006001600160a01b0316636352211e856040518263ffffffff1660e01b8152600401610a8591815260200190565b60206040518083038186803b158015610a9d57600080fd5b505afa158015610ab1573d6000803e3d6000fd5b505050506040513d601f19601f82011682018060405250810190610ad591906126b8565b60408089015190516303849e1f60e11b81526001600160a01b0380841660048301529295509116906307093c3e9060240160206040518083038186803b158015610b1e57600080fd5b505afa158015610b32573d6000803e3d6000fd5b505050506040513d601f19601f82011682018060405250810190610b569190611e48565b91508115610bc35786604001516001600160a01b031663940a4e45836040518263ffffffff1660e01b8152600401610b9091815260200190565b600060405180830381600087803b158015610baa57600080fd5b505af1158015610bbe573d6000803e3d6000fd5b505050505b80610bcd81611e61565b915050610a12565b505050505b606083015160405163c3d908d960e01b815233600482015260248101889052604481018990526001600160a01b039091169063c3d908d990606401600060405180830381600087803b158015610c2f57600080fd5b505af1158015610c43573d6000803e3d6000fd5b5050604080518c8152602081018c90529081018a90523392507f70ad307667464adf2be6b2a9447588802589dd5f2dbe956702fa348e4ffe147e915060600160405180910390a2505050505050505050565b600054610100900460ff16610cb05760005460ff1615610cb4565b303b155b610d175760405162461bcd60e51b815260206004820152602e60248201527f496e697469616c697a61626c653a20636f6e747261637420697320616c72656160448201526d191e481a5b9a5d1a585b1a5e995960921b60648201526084016102c2565b600054610100900460ff16158015610d39576000805461ffff19166101011790555b60c980546001600160a01b0319166001600160a01b038416179055610d5c61107b565b610d646110aa565b80156106bc576000805461ff00191690555050565b6097546001600160a01b03163314610da35760405162461bcd60e51b81526004016102c290612075565b6001600160a01b038116610e085760405162461bcd60e51b815260206004820152602660248201527f4f776e61626c653a206e6577206f776e657220697320746865207a65726f206160448201526564647265737360d01b60648201526084016102c2565b6105bb81610fc9565b6001600160a01b03163b151590565b6097546001600160a01b031633146105bb5760405162461bcd60e51b81526004016102c290612075565b7f4910fdfa16fed3260ed0e7147f7cc6da11a60208b5b9406d12a635614ffd91435460ff1615610e8257610e7d836110d1565b505050565b826001600160a01b03166352d1902d6040518163ffffffff1660e01b815260040160206040518083038186803b158015610ebb57600080fd5b505afa925050508015610eeb575060408051601f3d908101601f19168201909252610ee891810190611e48565b60015b610f4e5760405162461bcd60e51b815260206004820152602e60248201527f45524331393637557067726164653a206e657720696d706c656d656e7461746960448201526d6f6e206973206e6f74205555505360901b60648201526084016102c2565b60008051602061276d8339815191528114610fbd5760405162461bcd60e51b815260206004820152602960248201527f45524331393637557067726164653a20756e737570706f727465642070726f786044820152681a58589b195555525160ba1b60648201526084016102c2565b50610e7d83838361116d565b609780546001600160a01b038381166001600160a01b0319831681179093556040519116919082907f8be0079c531659141344cd1fd0a4f28419497f9722a3daafe3b4186f6b6457e090600090a35050565b604080516001600160a01b0385811660248301528416604482015260648082018490528251808303909101815260849091019091526020810180516001600160e01b03166323b872dd60e01b179052611075908590611192565b50505050565b600054610100900460ff166110a25760405162461bcd60e51b81526004016102c2906126d5565b6107a7611264565b600054610100900460ff166107a75760405162461bcd60e51b81526004016102c2906126d5565b6001600160a01b0381163b61113e5760405162461bcd60e51b815260206004820152602d60248201527f455243313936373a206e657720696d706c656d656e746174696f6e206973206e60448201526c1bdd08184818dbdb9d1c9858dd609a1b60648201526084016102c2565b60008051602061276d83398151915280546001600160a01b0319166001600160a01b0392909216919091179055565b61117683611294565b6000825111806111835750805b15610e7d5761107583836112d4565b60006111e7826040518060400160405280602081526020017f5361666545524332303a206c6f772d6c6576656c2063616c6c206661696c6564815250856001600160a01b03166113c89092919063ffffffff16565b805190915015610e7d57808060200190518101906112059190612720565b610e7d5760405162461bcd60e51b815260206004820152602a60248201527f5361666545524332303a204552433230206f7065726174696f6e20646964206e6044820152691bdd081cdd58d8d9595960b21b60648201526084016102c2565b600054610100900460ff1661128b5760405162461bcd60e51b81526004016102c2906126d5565b6107a733610fc9565b61129d816110d1565b6040516001600160a01b038216907fbc7cd75a20ee27fd9adebab32041f755214dbc6bffa90cc0225b39da2e5c2d3b90600090a250565b60606001600160a01b0383163b61133c5760405162461bcd60e51b815260206004820152602660248201527f416464726573733a2064656c65676174652063616c6c20746f206e6f6e2d636f6044820152651b9d1c9858dd60d21b60648201526084016102c2565b600080846001600160a01b031684604051611357919061273d565b600060405180830381855af49150503d8060008114611392576040519150601f19603f3d011682016040523d82523d6000602084013e611397565b606091505b50915091506113bf828260405180606001604052806027815260200161278d602791396113e1565b95945050505050565b60606113d7848460008561141a565b90505b9392505050565b606083156113f05750816113da565b8251156114005782518084602001fd5b8160405162461bcd60e51b81526004016102c29190612759565b60608247101561147b5760405162461bcd60e51b815260206004820152602660248201527f416464726573733a20696e73756666696369656e742062616c616e636520666f6044820152651c8818d85b1b60d21b60648201526084016102c2565b6001600160a01b0385163b6114d25760405162461bcd60e51b815260206004820152601d60248201527f416464726573733a2063616c6c20746f206e6f6e2d636f6e747261637400000060448201526064016102c2565b600080866001600160a01b031685876040516114ee919061273d565b60006040518083038185875af1925050503d806000811461152b576040519150601f19603f3d011682016040523d82523d6000602084013e611530565b606091505b50915091506115408282866113e1565b979650505050505050565b828054828255906000526020600020908101928215611586579160200282015b8281111561158657825182559160200191906001019061156b565b50611592929150611596565b5090565b5b808211156115925760008155600101611597565b634e487b7160e01b600052604160045260246000fd5b604051606081016001600160401b03811182821017156115e3576115e36115ab565b60405290565b604080519081016001600160401b03811182821017156115e3576115e36115ab565b60405160c081016001600160401b03811182821017156115e3576115e36115ab565b60405161010081016001600160401b03811182821017156115e3576115e36115ab565b604051601f8201601f191681016001600160401b0381118282101715611678576116786115ab565b604052919050565b60006001600160401b03821115611699576116996115ab565b5060051b60200190565b80151581146105bb57600080fd5b80356116bc816116a3565b919050565b60006001600160401b038211156116da576116da6115ab565b50601f01601f191660200190565b60006116fb6116f6846116c1565b611650565b905082815283838301111561170f57600080fd5b828260208301376000602084830101529392505050565b600082601f83011261173757600080fd5b6113da838335602085016116e8565b600082601f83011261175757600080fd5b813560206117676116f683611680565b82815260059290921b8401810191818101908684111561178657600080fd5b8286015b848110156117a1578035835291830191830161178a565b509695505050505050565b61ffff811681146105bb57600080fd5b600082601f8301126117cd57600080fd5b813560206117dd6116f683611680565b82815260059290921b840181019181810190868411156117fc57600080fd5b8286015b848110156117a1578035611813816117ac565b8352918301918301611800565b600082601f83011261183157600080fd5b813560206118416116f683611680565b82815260059290921b8401810191818101908684111561186057600080fd5b8286015b848110156117a15780356001600160401b038111156118835760008081fd5b6118918986838b0101611726565b845250918301918301611864565b6001600160a01b03811681146105bb57600080fd5b80356116bc8161189f565b6000606082840312156118d157600080fd5b6118d96115c1565b905081356118e6816117ac565b815260208201356118f68161189f565b602082015260408201356001600160401b0381111561191457600080fd5b61192084828501611726565b60408301525092915050565b6000806000806080858703121561194257600080fd5b843593506001600160401b03806020870135111561195f57600080fd5b86601f60208801358801011261197457600080fd5b6119876116f66020880135880135611680565b60208781013588018035808452828401939260059190911b909101018910156119af57600080fd5b6020808901358901015b6020898101358a01803560051b0101811015611b715783813511156119dd57600080fd5b604060208a01358a018235018b03601f190112156119fa57600080fd5b611a026115e9565b846020833560208d01358d010101351115611a1c57600080fd5b60208a8101358b01833501908101350160c0818d03601f19011215611a4057600080fd5b611a4861160b565b611a54602083016116b1565b81528660408301351115611a6757600080fd5b611a7a8d60206040850135850101611726565b60208201528660608301351115611a9057600080fd5b611aa38d60206060850135850101611746565b60408201528660808301351115611ab957600080fd5b611acc8d60206080850135850101611746565b60608201528660a08301351115611ae257600080fd5b611af58d602060a08501358501016117bc565b60808201528660c08301351115611b0b57600080fd5b611b1e8d602060c0850135850101611820565b60a082015282525060208a01358a0182350160400135851015611b4057600080fd5b611b5b8b60208c8101358d01853501604081013501016118bf565b60208281019190915290845292830192016119b9565b509450611b83915050604086016118b4565b9150611b91606086016118b4565b905092959194509250565b600081518084526020808501945080840160005b83811015611bcc57815187529582019590820190600101611bb0565b509495945050505050565b6020815260006113da6020830184611b9c565b600060208284031215611bfc57600080fd5b81356113da8161189f565b60008060408385031215611c1a57600080fd5b50508035926020909101359150565b60008060408385031215611c3c57600080fd5b8235611c478161189f565b915060208301356001600160401b03811115611c6257600080fd5b8301601f81018513611c7357600080fd5b611c82858235602084016116e8565b9150509250929050565b600080600060608486031215611ca157600080fd5b505081359360208301359350604090920135919050565b634e487b7160e01b600052603260045260246000fd5b60005b83811015611ce9578181015183820152602001611cd1565b838111156110755750506000910152565b60008151808452611d12816020860160208601611cce565b601f01601f19169290920160200192915050565b600081518084526020808501808196508360051b8101915082860160005b85811015611d6e578284038952611d5c848351611cfa565b98850198935090840190600101611d44565b5091979650505050505050565b61ffff815116825260018060a01b0360208201511660208301526000604082015160606040850152611db06060850182611cfa565b949350505050565b60018060a01b03841681526060602082015282511515606082015260006020840151608080840152611ded60e0840182611cfa565b90506040850151605f19808584030160a0860152611e0b8383611b9c565b925060608701519150808584030160c086015250611e298282611d26565b9150508281036040840152611e3e8185611d7b565b9695505050505050565b600060208284031215611e5a57600080fd5b5051919050565b6000600019821415611e8357634e487b7160e01b600052601160045260246000fd5b5060010190565b60006040808301818452808651808352606092508286019150828160051b8701016020808a016000805b85811015611fbc57605f198b8603018752825180518a8752805115158b8801528581015160c0808c8a0152611eed6101008a0183611cfa565b91508c830151603f196080818c860301818d0152611f0b8584611b9c565b94508e860151925060a0828d870301818e0152611f288685611b9c565b918701518d83038401958e01959095528451808352948c019550908b0193899350905b81841015611f6f57855161ffff168552948b0194938b019360019390930192611f4b565b8087015196505050808b84030160e08c01525050611f8d8184611d26565b9250505085820151915086810386880152611fa88183611d7b565b988601989650505091830191600101611eb4565b50505087820390880152611fd08189611b9c565b9998505050505050505050565b6020808252602c908201527f46756e6374696f6e206d7573742062652063616c6c6564207468726f7567682060408201526b19195b1959d85d1958d85b1b60a21b606082015260800190565b6020808252602c908201527f46756e6374696f6e206d7573742062652063616c6c6564207468726f7567682060408201526b6163746976652070726f787960a01b606082015260800190565b6020808252818101527f4f776e61626c653a2063616c6c6572206973206e6f7420746865206f776e6572604082015260600190565b600082601f8301126120bb57600080fd5b81516120c96116f6826116c1565b8181528460208386010111156120de57600080fd5b611db0826020830160208701611cce565b600082601f83011261210057600080fd5b815160206121106116f683611680565b82815260059290921b8401810191818101908684111561212f57600080fd5b8286015b848110156117a15780518352918301918301612133565b600082601f83011261215b57600080fd5b8151602061216b6116f683611680565b82815260059290921b8401810191818101908684111561218a57600080fd5b8286015b848110156117a157805163ffffffff811681146121ab5760008081fd5b835291830191830161218e565b80516116bc8161189f565b80516116bc816116a3565b600082601f8301126121df57600080fd5b815160206121ef6116f683611680565b82815260059290921b8401810191818101908684111561220e57600080fd5b8286015b848110156117a1578051612225816117ac565b8352918301918301612212565b600082601f83011261224357600080fd5b815160206122536116f683611680565b82815260059290921b8401810191818101908684111561227257600080fd5b8286015b848110156117a15780516001600160401b038111156122955760008081fd5b6122a38986838b01016120aa565b845250918301918301612276565b6000606082840312156122c357600080fd5b6122cb6115c1565b905081516122d8816117ac565b815260208201516122e88161189f565b602082015260408201516001600160401b0381111561230657600080fd5b611920848285016120aa565b600082601f83011261232357600080fd5b815160206123336116f683611680565b82815260059290921b8401810191818101908684111561235257600080fd5b8286015b848110156117a15780516001600160401b038082111561237557600080fd5b90880190601f196040838c038201121561238e57600080fd5b6123966115e9565b87840151838111156123a757600080fd5b840160c0818e03840112156123bb57600080fd5b6123c361160b565b92506123d08982016121c3565b83526040810151848111156123e457600080fd5b6123f28e8b838501016120aa565b8a8501525060608101518481111561240957600080fd5b6124178e8b838501016120ef565b60408501525060808101518481111561242f57600080fd5b61243d8e8b838501016120ef565b60608501525060a08101518481111561245557600080fd5b6124638e8b838501016121ce565b60808501525060c08101518481111561247b57600080fd5b6124898e8b83850101612232565b60a08501525050908152604083015190828211156124a657600080fd5b6124b48c89848701016122b1565b818901528652505050918301918301612356565b600060a082840312156124da57600080fd5b60405160a081018181106001600160401b03821117156124fc576124fc6115ab565b8060405250809150825161250f8161189f565b8152602083015161251f8161189f565b602082015260408301516125328161189f565b604082015260608301516125458161189f565b606082015260808301516125588161189f565b6080919091015292915050565b60006020828403121561257757600080fd5b81516001600160401b038082111561258e57600080fd5b9083019061018082860312156125a357600080fd5b6125ab61162d565b8251828111156125ba57600080fd5b6125c6878286016120aa565b8252506020830151828111156125db57600080fd5b6125e7878286016120ef565b6020830152506040830151828111156125ff57600080fd5b61260b8782860161214a565b60408301525060608301516060820152612627608084016121b8565b608082015260a08301518281111561263e57600080fd5b61264a87828601612312565b60a08301525060c08301518281111561266257600080fd5b61266e878286016120ef565b60c0830152506126818660e085016124c8565b60e082015295945050505050565b6000602082840312156126a157600080fd5b81516001600160401b03811681146113da57600080fd5b6000602082840312156126ca57600080fd5b81516113da8161189f565b6020808252602b908201527f496e697469616c697a61626c653a20636f6e7472616374206973206e6f74206960408201526a6e697469616c697a696e6760a81b606082015260800190565b60006020828403121561273257600080fd5b81516113da816116a3565b6000825161274f818460208701611cce565b9190910192915050565b6020815260006113da6020830184611cfa56fe360894a13ba1a3210667c828492db98dca3e2076cc3735a920a3ca505d382bbc416464726573733a206c6f772d6c6576656c2064656c65676174652063616c6c206661696c6564a264697066735822122075cd009fef0355b40a6b0488efa5cf803e1a7523c8d35168995b66edd54dba5f64736f6c63430008090033",
  "linkReferences": {},
  "deployedLinkReferences": {}
}