{
  "_format": "hh-sol-artifact-1",
  "contractName": "PodManager",
  "sourceName": "contracts/PodManager.sol",
  "abi": [
    {
      "inputs": [
        {
          "internalType": "address",
          "name": "_podWithdrawManagerAddress",
          "type": "address"
        },
        {
          "internalType": "address",
          "name": "_protocolParametersAddress",
          "type": "address"
        },
        {
          "internalType": "address",
          "name": "_creationManager",
          "type": "address"
        },
        {
          "internalType": "address",
          "name": "_distributionManagerBeacon",
          "type": "address"
        },
        {
          "internalType": "address",
          "name": "_copyrightNFTBeacon",
          "type": "address"
        }
      ],
      "stateMutability": "nonpayable",
      "type": "constructor"
    },
    {
      "anonymous": false,
      "inputs": [
        {
          "indexed": false,
          "internalType": "address",
          "name": "previousAdmin",
          "type": "address"
        },
        {
          "indexed": false,
          "internalType": "address",
          "name": "newAdmin",
          "type": "address"
        }
      ],
      "name": "AdminChanged",
      "type": "event"
    },
    {
      "anonymous": false,
      "inputs": [
        {
          "indexed": true,
          "internalType": "address",
          "name": "beacon",
          "type": "address"
        }
      ],
      "name": "BeaconUpgraded",
      "type": "event"
    },
    {
      "anonymous": false,
      "inputs": [
        {
          "indexed": true,
          "internalType": "address",
          "name": "podAddress",
          "type": "address"
        }
      ],
      "name": "CreatePod",
      "type": "event"
    },
    {
      "anonymous": false,
      "inputs": [
        {
          "indexed": true,
          "internalType": "address",
          "name": "investor",
          "type": "address"
        },
        {
          "indexed": true,
          "internalType": "address",
          "name": "podAddress",
          "type": "address"
        },
        {
          "indexed": false,
          "internalType": "uint256",
          "name": "amount",
          "type": "uint256"
        }
      ],
      "name": "InvestPod",
      "type": "event"
    },
    {
      "anonymous": false,
      "inputs": [
        {
          "indexed": true,
          "internalType": "address",
          "name": "previousOwner",
          "type": "address"
        },
        {
          "indexed": true,
          "internalType": "address",
          "name": "newOwner",
          "type": "address"
        }
      ],
      "name": "OwnershipTransferred",
      "type": "event"
    },
    {
      "anonymous": false,
      "inputs": [
        {
          "indexed": false,
          "internalType": "uint256",
          "name": "id",
          "type": "uint256"
        }
      ],
      "name": "PodProposalCreated",
      "type": "event"
    },
    {
      "anonymous": false,
      "inputs": [
        {
          "indexed": false,
          "internalType": "uint256",
          "name": "id",
          "type": "uint256"
        },
        {
          "indexed": false,
          "internalType": "address",
          "name": "voter",
          "type": "address"
        }
      ],
      "name": "ProposalVoted",
      "type": "event"
    },
    {
      "anonymous": false,
      "inputs": [
        {
          "indexed": true,
          "internalType": "address",
          "name": "implementation",
          "type": "address"
        }
      ],
      "name": "Upgraded",
      "type": "event"
    },
    {
      "anonymous": false,
      "inputs": [
        {
          "indexed": true,
          "internalType": "address",
          "name": "podAddress",
          "type": "address"
        },
        {
          "indexed": false,
          "internalType": "uint256",
          "name": "nftId",
          "type": "uint256"
        },
        {
          "indexed": false,
          "internalType": "uint256",
          "name": "_mediaId",
          "type": "uint256"
        }
      ],
      "name": "UploadMedia",
      "type": "event"
    },
    {
      "inputs": [],
      "name": "FUNDED_STATE",
      "outputs": [
        {
          "internalType": "bytes32",
          "name": "",
          "type": "bytes32"
        }
      ],
      "stateMutability": "view",
      "type": "function"
    },
    {
      "inputs": [],
      "name": "FUNDING_STATE",
      "outputs": [
        {
          "internalType": "bytes32",
          "name": "",
          "type": "bytes32"
        }
      ],
      "stateMutability": "view",
      "type": "function"
    },
    {
      "inputs": [],
      "name": "PRECISION",
      "outputs": [
        {
          "internalType": "uint256",
          "name": "",
          "type": "uint256"
        }
      ],
      "stateMutability": "view",
      "type": "function"
    },
    {
      "inputs": [],
      "name": "WITHDRAW_MANAGER_ROLE",
      "outputs": [
        {
          "internalType": "bytes32",
          "name": "",
          "type": "bytes32"
        }
      ],
      "stateMutability": "view",
      "type": "function"
    },
    {
      "inputs": [
        {
          "internalType": "address",
          "name": "_podAddress",
          "type": "address"
        }
      ],
      "name": "claimPodTokens",
      "outputs": [],
      "stateMutability": "nonpayable",
      "type": "function"
    },
    {
      "inputs": [
        {
          "internalType": "address",
          "name": "_podAddress",
          "type": "address"
        }
      ],
      "name": "getPodInfo",
      "outputs": [
        {
          "components": [
            {
              "internalType": "bytes32",
              "name": "status",
              "type": "bytes32"
            },
            {
              "internalType": "uint256",
              "name": "raisedFunds",
              "type": "uint256"
            },
            {
              "internalType": "uint256[]",
              "name": "mediaIds",
              "type": "uint256[]"
            },
            {
              "internalType": "address",
              "name": "nftContract",
              "type": "address"
            },
            {
              "internalType": "address",
              "name": "distributionManagerAddress",
              "type": "address"
            },
            {
              "components": [
                {
                  "internalType": "address[]",
                  "name": "owners",
                  "type": "address[]"
                },
                {
                  "internalType": "address",
                  "name": "podAddress",
                  "type": "address"
                },
                {
                  "internalType": "uint64",
                  "name": "fundingDate",
                  "type": "uint64"
                },
                {
                  "internalType": "address",
                  "name": "fundingToken",
                  "type": "address"
                },
                {
                  "internalType": "uint64",
                  "name": "fundingTokenPrice",
                  "type": "uint64"
                },
                {
                  "internalType": "uint256",
                  "name": "fundingTarget",
                  "type": "uint256"
                }
              ],
              "internalType": "struct Pod",
              "name": "pod",
              "type": "tuple"
            },
            {
              "internalType": "address",
              "name": "copyrightToken",
              "type": "address"
            },
            {
              "internalType": "address",
              "name": "copyrightNftContract",
              "type": "address"
            },
            {
              "internalType": "uint256",
              "name": "copyrightSupplyInvestors",
              "type": "uint256"
            },
            {
              "internalType": "uint256[]",
              "name": "copyrightAllocation",
              "type": "uint256[]"
            },
            {
              "internalType": "uint256",
              "name": "copyrightTokenSupply",
              "type": "uint256"
            }
          ],
          "internalType": "struct PodInfo",
          "name": "podInfo",
          "type": "tuple"
        }
      ],
      "stateMutability": "view",
      "type": "function"
    },
    {
      "inputs": [],
      "name": "initialize",
      "outputs": [],
      "stateMutability": "nonpayable",
      "type": "function"
    },
    {
      "inputs": [
        {
          "internalType": "address",
          "name": "_podAddress",
          "type": "address"
        },
        {
          "internalType": "uint256",
          "name": "_amount",
          "type": "uint256"
        }
      ],
      "name": "investPod",
      "outputs": [],
      "stateMutability": "nonpayable",
      "type": "function"
    },
    {
      "inputs": [
        {
          "internalType": "address",
          "name": "podAddress",
          "type": "address"
        },
        {
          "internalType": "uint256",
          "name": "mediaId",
          "type": "uint256"
        }
      ],
      "name": "isUploadedMedia",
      "outputs": [
        {
          "internalType": "bool",
          "name": "",
          "type": "bool"
        }
      ],
      "stateMutability": "view",
      "type": "function"
    },
    {
      "inputs": [],
      "name": "owner",
      "outputs": [
        {
          "internalType": "address",
          "name": "",
          "type": "address"
        }
      ],
      "stateMutability": "view",
      "type": "function"
    },
    {
      "inputs": [
        {
          "internalType": "uint256",
          "name": "",
          "type": "uint256"
        }
      ],
      "name": "podProposals",
      "outputs": [
        {
          "components": [
            {
              "internalType": "address[]",
              "name": "owners",
              "type": "address[]"
            },
            {
              "internalType": "address",
              "name": "podAddress",
              "type": "address"
            },
            {
              "internalType": "uint64",
              "name": "fundingDate",
              "type": "uint64"
            },
            {
              "internalType": "address",
              "name": "fundingToken",
              "type": "address"
            },
            {
              "internalType": "uint64",
              "name": "fundingTokenPrice",
              "type": "uint64"
            },
            {
              "internalType": "uint256",
              "name": "fundingTarget",
              "type": "uint256"
            }
          ],
          "internalType": "struct Pod",
          "name": "pod",
          "type": "tuple"
        },
        {
          "internalType": "uint256",
          "name": "start",
          "type": "uint256"
        },
        {
          "internalType": "uint256",
          "name": "votes",
          "type": "uint256"
        },
        {
          "internalType": "uint16",
          "name": "royaltyPercentage",
          "type": "uint16"
        },
        {
          "internalType": "uint256",
          "name": "investorShare",
          "type": "uint256"
        },
        {
          "components": [
            {
              "internalType": "string",
              "name": "podTokenName",
              "type": "string"
            },
            {
              "internalType": "string",
              "name": "podTokenSymbol",
              "type": "string"
            }
          ],
          "internalType": "struct PodDescription",
          "name": "podDescription",
          "type": "tuple"
        },
        {
          "internalType": "uint256",
          "name": "copyrightTokenSupply",
          "type": "uint256"
        }
      ],
      "stateMutability": "view",
      "type": "function"
    },
    {
      "inputs": [
        {
          "internalType": "address",
          "name": "",
          "type": "address"
        },
        {
          "internalType": "address",
          "name": "",
          "type": "address"
        }
      ],
      "name": "podToTokensClaimable",
      "outputs": [
        {
          "internalType": "uint256",
          "name": "",
          "type": "uint256"
        }
      ],
      "stateMutability": "view",
      "type": "function"
    },
    {
      "inputs": [
        {
          "components": [
            {
              "internalType": "address[]",
              "name": "owners",
              "type": "address[]"
            },
            {
              "internalType": "address",
              "name": "podAddress",
              "type": "address"
            },
            {
              "internalType": "uint64",
              "name": "fundingDate",
              "type": "uint64"
            },
            {
              "internalType": "address",
              "name": "fundingToken",
              "type": "address"
            },
            {
              "internalType": "uint64",
              "name": "fundingTokenPrice",
              "type": "uint64"
            },
            {
              "internalType": "uint256",
              "name": "fundingTarget",
              "type": "uint256"
            }
          ],
          "internalType": "struct Pod",
          "name": "_pod",
          "type": "tuple"
        },
        {
          "internalType": "uint256[]",
          "name": "_mediaIds",
          "type": "uint256[]"
        },
        {
          "internalType": "uint16",
          "name": "_royaltyPercentage",
          "type": "uint16"
        },
        {
          "components": [
            {
              "internalType": "string",
              "name": "podTokenName",
              "type": "string"
            },
            {
              "internalType": "string",
              "name": "podTokenSymbol",
              "type": "string"
            }
          ],
          "internalType": "struct PodDescription",
          "name": "_podDescription",
          "type": "tuple"
        },
        {
          "internalType": "uint256",
          "name": "_investorShare",
          "type": "uint256"
        },
        {
          "internalType": "uint256[]",
          "name": "_copyrightAllocation",
          "type": "uint256[]"
        },
        {
          "internalType": "uint256",
          "name": "_copyrightTokenSupply",
          "type": "uint256"
        }
      ],
      "name": "registerPodProposal",
      "outputs": [],
      "stateMutability": "nonpayable",
      "type": "function"
    },
    {
      "inputs": [],
      "name": "renounceOwnership",
      "outputs": [],
      "stateMutability": "nonpayable",
      "type": "function"
    },
    {
      "inputs": [
        {
          "internalType": "address",
          "name": "newOwner",
          "type": "address"
        }
      ],
      "name": "transferOwnership",
      "outputs": [],
      "stateMutability": "nonpayable",
      "type": "function"
    },
    {
      "inputs": [
        {
          "internalType": "address",
          "name": "newImplementation",
          "type": "address"
        }
      ],
      "name": "upgradeTo",
      "outputs": [],
      "stateMutability": "nonpayable",
      "type": "function"
    },
    {
      "inputs": [
        {
          "internalType": "address",
          "name": "newImplementation",
          "type": "address"
        },
        {
          "internalType": "bytes",
          "name": "data",
          "type": "bytes"
        }
      ],
      "name": "upgradeToAndCall",
      "outputs": [],
      "stateMutability": "payable",
      "type": "function"
    },
    {
      "inputs": [
        {
          "internalType": "address",
          "name": "_podAddress",
          "type": "address"
        },
        {
          "internalType": "uint256",
          "name": "_mediaId",
          "type": "uint256"
        },
        {
          "internalType": "string",
          "name": "_uri",
          "type": "string"
        },
        {
          "internalType": "bool",
          "name": "_isStreaming",
          "type": "bool"
        }
      ],
      "name": "uploadMedia",
      "outputs": [],
      "stateMutability": "nonpayable",
      "type": "function"
    },
    {
      "inputs": [
        {
          "internalType": "uint256",
          "name": "id",
          "type": "uint256"
        }
      ],
      "name": "voteForPodProposal",
      "outputs": [],
      "stateMutability": "nonpayable",
      "type": "function"
    }
  ],
  "bytecode": "0x6101406040523060601b6080523480156200001957600080fd5b50604051620057a8380380620057a88339810160408190526200003c9162000182565b600054610100900460ff16620000595760005460ff161562000063565b6200006362000141565b620000cb5760405162461bcd60e51b815260206004820152602e60248201527f496e697469616c697a61626c653a20636f6e747261637420697320616c72656160448201526d191e481a5b9a5d1a585b1a5e995960921b606482015260840160405180910390fd5b600054610100900460ff16158015620000ee576000805461ffff19166101011790555b6001600160601b0319606087811b821660a05286811b821660c05285811b821660e05284811b82166101005283901b1661012052801562000135576000805461ff00191690555b505050505050620001f2565b600062000159306200015f60201b620026991760201c565b15905090565b3b151590565b80516001600160a01b03811681146200017d57600080fd5b919050565b600080600080600060a086880312156200019b57600080fd5b620001a68662000165565b9450620001b66020870162000165565b9350620001c66040870162000165565b9250620001d66060870162000165565b9150620001e66080870162000165565b90509295509295909350565b60805160601c60a05160601c60c05160601c60e05160601c6101005160601c6101205160601c61552a6200027e6000396000612c2001526000612f02015260008181612c900152612e66015260008181610b2d015261235901526000818161318701526135920152600081816107020152818161074501528181610a130152610a56015261552a6000f3fe6080604052600436106200012b5760003560e01c80638129fc1c11620000ad578063b9e067ba116200006c578063b9e067ba14620003b9578063c01557f814620003de578063ca7d793b1462000403578063e1b086191462000428578063f2fde38b146200045e57600080fd5b80638129fc1c14620002d95780638da5cb5b14620002f157806399d3d801146200031b578063aaf5eb681462000340578063b8dbc1b6146200035e57600080fd5b80634b4fdc5f11620000fa5780634b4fdc5f146200020f5780634f1ef28614620002495780636f24b0531462000260578063715018a6146200029c57806377bd5d5614620002b457600080fd5b806301d8b56214620001305780630827f77d146200016d5780631010a08b14620001b25780633659cfe614620001e8575b600080fd5b3480156200013d57600080fd5b50620001556200014f36600462003eac565b62000483565b6040516200016491906200475e565b60405180910390f35b3480156200017a57600080fd5b50620001a37f1b051eabb191097272b9187f0c5c3152a0c5088405d4a327a4e5e5242f29cfca81565b60405190815260200162000164565b348015620001bf57600080fd5b50620001a37facbfc6d8956a55069ead20ed133d76e9c6f8ac572ac0e50c37aecff9eb57f9c281565b348015620001f557600080fd5b506200020d6200020736600462003eac565b620006f7565b005b3480156200021c57600080fd5b50620002346200022e366004620041c0565b620007cc565b60405162000164979695949392919062004864565b6200020d6200025a36600462003f2a565b62000a08565b3480156200026d57600080fd5b50620001a36200027f36600462003eec565b60ca60209081526000928352604080842090915290825290205481565b348015620002a957600080fd5b506200020d62000ace565b348015620002c157600080fd5b506200020d620002d3366004620040a9565b62000b09565b348015620002e657600080fd5b506200020d6200127d565b348015620002fe57600080fd5b506097546040516001600160a01b03909116815260200162000164565b3480156200032857600080fd5b506200020d6200033a36600462003f94565b6200134f565b3480156200034d57600080fd5b50620001a3670de0b6b3a764000081565b3480156200036b57600080fd5b50620003a86200037d36600462003f94565b6001600160a01b0391909116600090815260ce60209081526040808320938352929052205460ff1690565b604051901515815260200162000164565b348015620003c657600080fd5b506200020d620003d836600462003eac565b62001a44565b348015620003eb57600080fd5b506200020d620003fd36600462003fc3565b62001ba2565b3480156200041057600080fd5b506200020d62000422366004620041c0565b62001ff3565b3480156200043557600080fd5b50620001a37fbe4b8ff2378fafab5b779323935cef89cecb6bffd2e15c86526a218902195a3581565b3480156200046b57600080fd5b506200020d6200047d36600462003eac565b620025fa565b6200048d620039f4565b6001600160a01b038216600090815260c96020526040902060020154620004ec5760405162461bcd60e51b815260206004820152600e60248201526d155b995e1a5cdd195b9d081c1bd960921b60448201526064015b60405180910390fd5b6001600160a01b038216600090815260c9602090815260409182902082516101608101845281548152600182015481840152600282018054855181860281018601875281815292959394938601938301828280156200056b57602002820191906000526020600020905b81548152602001906001019080831162000556575b505050918352505060038201546001600160a01b039081166020808401919091526004840154909116604080840191909152805160058501805460e09481028301850190935260c08201838152606090950194919390928492918491908401828280156200060357602002820191906000526020600020905b81546001600160a01b03168152600190910190602001808311620005e4575b505050918352505060018201546001600160a01b038082166020808501919091526001600160401b03600160a01b938490048116604080870191909152600287015480851660608089019190915295900490911660808087019190915260039096015460a0909501949094529486526009870154811686860152600a8701541685830152600b86015490850152600c8501805482518186028101860190935280835294909201939092830182828015620006dd57602002820191906000526020600020905b815481526020019060010190808311620006c8575b50505050508152602001600d820154815250509050919050565b306001600160a01b037f0000000000000000000000000000000000000000000000000000000000000000161415620007435760405162461bcd60e51b8152600401620004e39062004646565b7f00000000000000000000000000000000000000000000000000000000000000006001600160a01b0316620007776200269f565b6001600160a01b031614620007a05760405162461bcd60e51b8152600401620004e39062004692565b620007ab81620026cd565b60408051600080825260208201909252620007c991839190620026fa565b50565b60cc602090815260009182526040918290208251815460e09381028201840190945260c08101848152919390928492849290918491908401828280156200083d57602002820191906000526020600020905b81546001600160a01b031681526001909101906020018083116200081e575b505050918352505060018201546001600160a01b0380821660208401526001600160401b03600160a01b928390048116604080860191909152600286015492831660608601529290910416608083015260039092015460a0909101526004830154600584015460078501546008860154845180860190955260098701805496979496939561ffff90931694919391929182908290620008dc9062004a7e565b80601f01602080910402602001604051908101604052809291908181526020018280546200090a9062004a7e565b80156200095b5780601f106200092f576101008083540402835291602001916200095b565b820191906000526020600020905b8154815290600101906020018083116200093d57829003601f168201915b50505050508152602001600182018054620009769062004a7e565b80601f0160208091040260200160405190810160405280929190818152602001828054620009a49062004a7e565b8015620009f55780601f10620009c957610100808354040283529160200191620009f5565b820191906000526020600020905b815481529060010190602001808311620009d757829003601f168201915b50505091909252505050600b9091015487565b306001600160a01b037f000000000000000000000000000000000000000000000000000000000000000016141562000a545760405162461bcd60e51b8152600401620004e39062004646565b7f00000000000000000000000000000000000000000000000000000000000000006001600160a01b031662000a886200269f565b6001600160a01b03161462000ab15760405162461bcd60e51b8152600401620004e39062004692565b62000abc82620026cd565b62000aca82826001620026fa565b5050565b6097546001600160a01b0316331462000afb5760405162461bcd60e51b8152600401620004e390620046de565b62000b07600062002856565b565b6060890151604051630dc5443f60e21b81526001600160a01b0391821660048201527f00000000000000000000000000000000000000000000000000000000000000009091169063371510fc9060240160206040518083038186803b15801562000b7257600080fd5b505afa15801562000b87573d6000803e3d6000fd5b505050506040513d601f19601f8201168201806040525081019062000bad91906200406f565b62000bfb5760405162461bcd60e51b815260206004820152601f60248201527f496e76616c696420617373657420666f722066756e64696e6720746f6b656e006044820152606401620004e3565b600089608001516001600160401b03161162000c505760405162461bcd60e51b8152602060048201526013602482015272496e76616c696420546f6b656e20507269636560681b6044820152606401620004e3565b88515162000c8d5760405162461bcd60e51b81526020600482015260096024820152684e6f206f776e65727360b81b6044820152606401620004e3565b8851805133919060009062000ca65762000ca662004ae9565b60200260200101516001600160a01b03161462000d065760405162461bcd60e51b815260206004820181905260248201527f53656e6465722073686f756c6420626520746865206669727374206f776e65726044820152606401620004e3565b8662000d415760405162461bcd60e51b81526020600482015260096024820152684e6f206d656469617360b81b6044820152606401620004e3565b88515162000d5190600162004942565b821462000da15760405162461bcd60e51b815260206004820152601c60248201527f496e76616c696420636f7079726967687420616c6c6f636174696f6e000000006044820152606401620004e3565b6000805b8381101562000dee5784848281811062000dc35762000dc362004ae9565b905060200201358262000dd7919062004942565b915062000de660018262004942565b905062000da5565b508060641462000e415760405162461bcd60e51b815260206004820152601a60248201527f57726f6e6720636f7079726967687420616c6c6f636174696f6e0000000000006044820152606401620004e3565b60a08a015162000f1c57838362000e5a600182620049a2565b81811062000e6c5762000e6c62004ae9565b9050602002013560001462000ec45760405162461bcd60e51b815260206004820152601860248201527f496e76616c696420696e766573746f72732073686172657300000000000000006044820152606401620004e3565b6001821162000f165760405162461bcd60e51b815260206004820152601e60248201527f496e76616c696420636f7079726967687420746f74616c20737570706c7900006044820152606401620004e3565b62000f94565b838362000f2b600182620049a2565b81811062000f3d5762000f3d62004ae9565b905060200201358a608001516001600160401b03168b60a00151670de0b6b3a764000062000f6c919062004980565b62000f7891906200495d565b62000f8590606462004980565b62000f9191906200495d565b91505b6040518061012001604052808b8152602001428152602001600181526020018a8a8080602002602001604051908101604052809392919081815260200183836020028082843760009201919091525050509082525061ffff89166020820152604081018790526060016200100888620049bc565b8152602001838152602001858580806020026020016040519081016040528093929190818152602001838360200280828437600092018290525093909452505060cb54815260cc602090815260409091208351805180519294509092849262001075928492019062003abe565b506020828101516001830180546040808701516001600160401b03908116600160a01b9081026001600160e01b03199485166001600160a01b03978816171790945560608089015160028901805460808c01519094169096029290941693909516929092179190911790915560a090940151600390930192909255848101516004850155918401516005840155830151805162001119926006850192019062003b28565b50608082015160078201805461ffff191661ffff90921691909117905560a0820151600882015560c08201518051805160098401916200115f9183916020019062003b66565b5060208281015180516200117a926001850192019062003b66565b50505060e0820151600b8201556101008201518051620011a591600c84019160209091019062003b28565b505060cb8054600090815260cd60209081526040808320338452825291829020805460ff19166001179055915490519081527fff0ab45f3bc6a366a0cee506a8b1c6b2412e66c65d35a210ce760d9de8a53e9192500160405180910390a160cb54604080519182523360208301527f34647120636ce03d739347e28e9d1bdd34fd03d066ae60439fb1be2721ad16cd910160405180910390a18951516001141562001257576200125760cb54620028a8565b600160cb60008282546200126c919062004942565b909155505050505050505050505050565b600054610100900460ff166200129a5760005460ff16156200129e565b303b155b620013035760405162461bcd60e51b815260206004820152602e60248201527f496e697469616c697a61626c653a20636f6e747261637420697320616c72656160448201526d191e481a5b9a5d1a585b1a5e995960921b6064820152608401620004e3565b600054610100900460ff1615801562001326576000805461ffff19166101011790555b62001330620036f7565b6200133a62003735565b8015620007c9576000805461ff001916905550565b60008111620013925760405162461bcd60e51b815260206004820152600e60248201526d125b9d985b1a5908185b5bdd5b9d60921b6044820152606401620004e3565b6001600160a01b038216600090815260c960209081526040808320815161016081018352815481526001820154818501526002820180548451818702810187018652818152929593948601938301828280156200140f57602002820191906000526020600020905b815481526020019060010190808311620013fa575b505050918352505060038201546001600160a01b039081166020808401919091526004840154909116604080840191909152805160058501805460e09481028301850190935260c0820183815260609095019491939092849291849190840182828015620014a757602002820191906000526020600020905b81546001600160a01b0316815260019091019060200180831162001488575b505050918352505060018201546001600160a01b038082166020808501919091526001600160401b03600160a01b938490048116604080870191909152600287015480851660608089019190915295900490911660808087019190915260039096015460a0909501949094529486526009870154811686860152600a8701541685830152600b86015490850152600c85018054825181860281018601909352808352949092019390928301828280156200158157602002820191906000526020600020905b8154815260200190600101908083116200156c575b50505050508152602001600d82015481525050905060006001600160a01b03168160c001516001600160a01b03161415620015f05760405162461bcd60e51b815260206004820152600e60248201526d155b995e1a5cdd195b9d081c1bd960921b6044820152606401620004e3565b428160a00151604001516001600160401b031610156200164a5760405162461bcd60e51b8152602060048201526014602482015273119d5b991a5b99c819185d19481c995858da195960621b6044820152606401620004e3565b80517f1b051eabb191097272b9187f0c5c3152a0c5088405d4a327a4e5e5242f29cfca14620016ad5760405162461bcd60e51b815260206004820152600e60248201526d496e76616c69642073746174757360901b6044820152606401620004e3565b600081602001518260a0015160a00151620016c99190620049a2565b90508281811115620016d85750805b60a0830151608001516000906001600160401b031662001701670de0b6b3a76400008462004980565b6200170d91906200495d565b905060008111620017565760405162461bcd60e51b815260206004820152601260248201527118103a37b5b2b739903a37903932ba3ab93760711b6044820152606401620004e3565b6001600160a01b038616600090815260c96020526040812060010180548492906200178390849062004942565b909155505060a08085015101516020850151620017a290849062004942565b10620018e5576001600160a01b038616600090815260c9602052604081207facbfc6d8956a55069ead20ed133d76e9c6f8ac572ac0e50c37aecff9eb57f9c290555b60a08501515151811015620018e3578460c001516001600160a01b03166340c10f198660a0015160000151838151811062001823576200182362004ae9565b6020026020010151606488610140015189610120015186815181106200184d576200184d62004ae9565b602002602001015162001861919062004980565b6200186d91906200495d565b6040516001600160e01b031960e085901b1681526001600160a01b0390921660048301526024820152604401600060405180830381600087803b158015620018b457600080fd5b505af1158015620018c9573d6000803e3d6000fd5b505050508080620018da9062004ab5565b915050620017e4565b505b60a0840151606001516040516323b872dd60e01b81523360048201526001600160a01b03888116602483015260448201859052909116906323b872dd90606401602060405180830381600087803b1580156200194057600080fd5b505af115801562001955573d6000803e3d6000fd5b505050506040513d601f19601f820116820180604052508101906200197b91906200406f565b620019c25760405162461bcd60e51b81526020600482015260166024820152754661696c20746f207472616e736665722066756e647360501b6044820152606401620004e3565b6001600160a01b038616600090815260ca6020908152604080832033845290915281208054839290620019f790849062004942565b90915550506040518281526001600160a01b0387169033907fe86f7ab5646f63a78eb2a6d0c3a4db0e00b37efbdf9c10dfc356cf3cfc7e15409060200160405180910390a3505050505050565b600062001a518262000483565b90508060a00151604001516001600160401b031642101562001ab15760405162461bcd60e51b8152602060048201526018602482015277119d5b991a5b99c819185d19481b9bdd081c995858da195960421b6044820152606401620004e3565b8060a0015160a001518160200151101562001b0f5760405162461bcd60e51b815260206004820152601a60248201527f46756e64696e6720746172676574206e6f7420726561636865640000000000006044820152606401620004e3565b6001600160a01b03828116600090815260ca60209081526040808320338085529252808320805493905560c085015190516340c10f1960e01b8152600481019290925260248201839052919291909116906340c10f1990604401600060405180830381600087803b15801562001b8457600080fd5b505af115801562001b99573d6000803e3d6000fd5b50505050505050565b600062001baf8662000483565b9050428160a00151604001516001600160401b0316111562001c0f5760405162461bcd60e51b8152602060048201526018602482015277119d5b991a5b99c819185d19481b9bdd081c995858da195960421b6044820152606401620004e3565b8060a0015160a001518160200151101562001c6d5760405162461bcd60e51b815260206004820152601a60248201527f46756e64696e6720746172676574206e6f7420726561636865640000000000006044820152606401620004e3565b6000805b6001600160a01b038816600090815260c9602052604090206005015481101562001cfe576001600160a01b038816600090815260c96020526040902060050180543391908390811062001cc85762001cc862004ae9565b6000918252602090912001546001600160a01b0316141562001ce957600191505b8062001cf58162004ab5565b91505062001c71565b508062001d4e5760405162461bcd60e51b815260206004820181905260248201527f4f6e6c79206f776e6572732063616e2075706c6f616420746865204d656469616044820152606401620004e3565b6001600160a01b038716600090815260ce6020908152604080832089845290915290205460ff161562001dd25760405162461bcd60e51b815260206004820152602560248201527f4d656469612069642069732077726f6e67206f7220616c72656164792075706c6044820152641bd859195960da1b6064820152608401620004e3565b600082606001516001600160a01b031663132844fb8460800151604051806060016040528088151581526020016040518060a0016040528060008152602001600081526020016000815260200160008152602001600081525081526020016040518060c001604052806040518060200160405280600081525081526020016040518060200160405280600081525081526020016040518060200160405280600081525081526020016040518060200160405280600081525081526020016040518060200160405280600081525081526020018c8c8080601f0160208091040260200160405190810160405280939291908181526020018383808284376000920182905250939094525050919092526040805160608101825282815260208082018490528251908101835292835280820192909252516001600160e01b031960e087901b16815262001f299493925060040162004490565b602060405180830381600087803b15801562001f4457600080fd5b505af115801562001f59573d6000803e3d6000fd5b505050506040513d601f19601f8201168201806040525081019062001f7f91906200408f565b6001600160a01b038916600081815260ce602090815260408083208c8452825291829020805460ff1916600117905581518481529081018b905292935090917ff0123728833f1849e274a7c3fce8821a238c3a6dd312813810723684aab2e46f910160405180910390a25050505050505050565b600081815260cc6020908152604080832081518154610200948102820185019093526101e08101838152909391928492610120840192859284928491908701828280156200206b57602002820191906000526020600020905b81546001600160a01b031681526001909101906020018083116200204c575b505050918352505060018201546001600160a01b038082166020808501919091526001600160401b03600160a01b93849004811660408087019190915260028701549384166060808801919091529490930416608085015260039094015460a09093019290925292845260048501548483015260058501548482015260068501805482518185028101850190935280835294909301939092918301828280156200213557602002820191906000526020600020905b81548152602001906001019080831162002120575b5050509183525050600782015461ffff16602082015260088201546040808301919091528051808201909152600983018054606090930192829082906200217c9062004a7e565b80601f0160208091040260200160405190810160405280929190818152602001828054620021aa9062004a7e565b8015620021fb5780601f10620021cf57610100808354040283529160200191620021fb565b820191906000526020600020905b815481529060010190602001808311620021dd57829003601f168201915b50505050508152602001600182018054620022169062004a7e565b80601f0160208091040260200160405190810160405280929190818152602001828054620022449062004a7e565b8015620022955780601f10620022695761010080835404028352916020019162002295565b820191906000526020600020905b8154815290600101906020018083116200227757829003601f168201915b5050505050815250508152602001600b8201548152602001600c8201805480602002602001604051908101604052809291908181526020018280548015620022fd57602002820191906000526020600020905b815481526020019060010190808311620022e8575b50505050508152505090506000816020015111620023575760405162461bcd60e51b8152602060048201526016602482015275141c9bdc1bdcd85b08191bd95cdb89dd08195e1a5cdd60521b6044820152606401620004e3565b7f00000000000000000000000000000000000000000000000000000000000000006001600160a01b03166308ed10546040518163ffffffff1660e01b815260040160206040518083038186803b158015620023b157600080fd5b505afa158015620023c6573d6000803e3d6000fd5b505050506040513d601f19601f82011682018060405250810190620023ec919062004195565b6001600160801b0316816020015142620024079190620049a2565b11156200244d5760405162461bcd60e51b8152602060048201526013602482015272159bdd1a5b99c81c195c9a5bd908195b991959606a1b6044820152606401620004e3565b600082815260cd6020908152604080832033845290915290205460ff1615620024b15760405162461bcd60e51b81526020600482015260156024820152741058d8dbdd5b9d08185b1c9958591e481d9bdd1959605a1b6044820152606401620004e3565b6000805b825151518110156200250e57825151805133919083908110620024dc57620024dc62004ae9565b60200260200101516001600160a01b03161415620024f957600191505b6200250660018262004942565b9050620024b5565b5080620025555760405162461bcd60e51b81526020600482015260146024820152734f6e6c79206f776e6572732063616e20766f746560601b6044820152606401620004e3565b6001826040018181516200256a919062004942565b905250604082810151600085815260cc60209081528382206005019290925560cd82528281203380835290835290839020805460ff191660011790558251868152918201527f34647120636ce03d739347e28e9d1bdd34fd03d066ae60439fb1be2721ad16cd910160405180910390a18151515160408301511415620025f557620025f583620028a8565b505050565b6097546001600160a01b03163314620026275760405162461bcd60e51b8152600401620004e390620046de565b6001600160a01b0381166200268e5760405162461bcd60e51b815260206004820152602660248201527f4f776e61626c653a206e6577206f776e657220697320746865207a65726f206160448201526564647265737360d01b6064820152608401620004e3565b620007c98162002856565b3b151590565b7f360894a13ba1a3210667c828492db98dca3e2076cc3735a920a3ca505d382bbc546001600160a01b031690565b6097546001600160a01b03163314620007c95760405162461bcd60e51b8152600401620004e390620046de565b6000620027066200269f565b9050620027138462003773565b600083511180620027215750815b1562002735576200273384846200381a565b505b7f4910fdfa16fed3260ed0e7147f7cc6da11a60208b5b9406d12a635614ffd9143805460ff166200284f57805460ff191660011781556040516001600160a01b0383166024820152620027b790869060440160408051601f198184030181529190526020810180516001600160e01b0316631b2ce7f360e11b1790526200381a565b50805460ff19168155620027ca6200269f565b6001600160a01b0316826001600160a01b031614620028445760405162461bcd60e51b815260206004820152602f60248201527f45524331393637557067726164653a207570677261646520627265616b73206660448201526e75727468657220757067726164657360881b6064820152608401620004e3565b6200284f856200390e565b5050505050565b609780546001600160a01b038381166001600160a01b0319831681179093556040519116919082907f8be0079c531659141344cd1fd0a4f28419497f9722a3daafe3b4186f6b6457e090600090a35050565b600081815260cc6020908152604080832081518154610200948102820185019093526101e08101838152909391928492610120840192859284928491908701828280156200292057602002820191906000526020600020905b81546001600160a01b0316815260019091019060200180831162002901575b505050918352505060018201546001600160a01b038082166020808501919091526001600160401b03600160a01b93849004811660408087019190915260028701549384166060808801919091529490930416608085015260039094015460a0909301929092529284526004850154848301526005850154848201526006850180548251818502810185019093528083529490930193909291830182828015620029ea57602002820191906000526020600020905b815481526020019060010190808311620029d5575b5050509183525050600782015461ffff166020820152600882015460408083019190915280518082019091526009830180546060909301928290829062002a319062004a7e565b80601f016020809104026020016040519081016040528092919081815260200182805462002a5f9062004a7e565b801562002ab05780601f1062002a845761010080835404028352916020019162002ab0565b820191906000526020600020905b81548152906001019060200180831162002a9257829003601f168201915b5050505050815260200160018201805462002acb9062004a7e565b80601f016020809104026020016040519081016040528092919081815260200182805462002af99062004a7e565b801562002b4a5780601f1062002b1e5761010080835404028352916020019162002b4a565b820191906000526020600020905b81548152906001019060200180831162002b2c57829003601f168201915b5050505050815250508152602001600b8201548152602001600c820180548060200260200160405190810160405280929190818152602001828054801562002bb257602002820191906000526020600020905b81548152602001906001019080831162002b9d575b50505050508152505090506000816000015190504281604001516001600160401b0316101562002c1c5760405162461bcd60e51b8152602060048201526014602482015273119d5b991a5b99c819185d19481c995858da195960621b6044820152606401620004e3565b60007f000000000000000000000000000000000000000000000000000000000000000060405162002c4d9062003be2565b6001600160a01b039091168152604060208201819052600090820152606001604051809103906000f08015801562002c89573d6000803e3d6000fd5b50905060007f00000000000000000000000000000000000000000000000000000000000000006001600160a01b031663d0d6b1078560c001516000015160405160200162002cd8919062004377565b6040516020818303038152906040528660c001516020015160405160200162002d02919062004350565b604051602081830303815290604052856040518463ffffffff1660e01b815260040162002d329392919062004561565b602060405180830381600087803b15801562002d4d57600080fd5b505af115801562002d62573d6000803e3d6000fd5b505050506040513d601f19601f8201168201806040525081019062002d88919062003ecc565b9050816001600160a01b031663077f224a8560c001516000015160405160200162002db49190620043a7565b6040516020818303038152906040528660c001516020015160405160200162002dde9190620043e0565b604051602081830303815290604052846040518463ffffffff1660e01b815260040162002e0e9392919062004561565b600060405180830381600087803b15801562002e2957600080fd5b505af115801562002e3e573d6000803e3d6000fd5b5050505060c0840151805160209091015160808601516040516367e8daa760e01b81526000937f00000000000000000000000000000000000000000000000000000000000000006001600160a01b0316936367e8daa79362002ea693889190600401620045f7565b602060405180830381600087803b15801562002ec157600080fd5b505af115801562002ed6573d6000803e3d6000fd5b505050506040513d601f19601f8201168201806040525081019062002efc919062003ecc565b905060007f000000000000000000000000000000000000000000000000000000000000000060405162002f2f9062003be2565b6001600160a01b039091168152604060208201819052600090820152606001604051809103906000f08015801562002f6b573d6000803e3d6000fd5b50606086015160c0880151805160209091015160a08a015160405163483b4f1160e01b81529495506000946001600160a01b0387169463483b4f119462002fc09491938b939192918d908c9060040162004408565b602060405180830381600087803b15801562002fdb57600080fd5b505af115801562002ff0573d6000803e3d6000fd5b505050506040513d601f19601f8201168201806040525081019062003016919062003ecc565b60c0880151805160209091015160808a0151604051635881bfc160e01b81529394506001600160a01b03871693635881bfc1936200305e9390929091889190600401620045f7565b600060405180830381600087803b1580156200307957600080fd5b505af11580156200308e573d6000803e3d6000fd5b50505060c0880151516040516001600160a01b038716925063db0ed6a091620030ba9160200162004377565b6040516020818303038152906040528960c0015160200151604051602001620030e4919062004350565b6040516020818303038152906040528885306040518663ffffffff1660e01b815260040162003118959493929190620045a3565b600060405180830381600087803b1580156200313357600080fd5b505af115801562003148573d6000803e3d6000fd5b5050604051632f2ff15d60e01b81527fbe4b8ff2378fafab5b779323935cef89cecb6bffd2e15c86526a218902195a3560048201526001600160a01b037f00000000000000000000000000000000000000000000000000000000000000008116602483015287169250632f2ff15d9150604401600060405180830381600087803b158015620031d657600080fd5b505af1158015620031eb573d6000803e3d6000fd5b50505060a08701517f1b051eabb191097272b9187f0c5c3152a0c5088405d4a327a4e5e5242f29cfca91506200333457507facbfc6d8956a55069ead20ed133d76e9c6f8ac572ac0e50c37aecff9eb57f9c260005b8751518110156200333257856001600160a01b03166340c10f198960000151838151811062003273576200327362004ae9565b602002602001015160648c60e001518d610100015186815181106200329c576200329c62004ae9565b6020026020010151620032b0919062004980565b620032bc91906200495d565b6040516001600160e01b031960e085901b1681526001600160a01b0390921660048301526024820152604401600060405180830381600087803b1580156200330357600080fd5b505af115801562003318573d6000803e3d6000fd5b505050508080620033299062004ab5565b91505062003240565b505b6040518061016001604052808281526020016000815260200189606001518152602001856001600160a01b03168152602001846001600160a01b03168152602001888152602001866001600160a01b03168152602001856001600160a01b0316815260200160648a610100015160018c610100015151620033b69190620049a2565b81518110620033c957620033c962004ae9565b60200260200101518b60e00151620033e2919062004980565b620033ee91906200495d565b81526101008a015160208083019190915260e08b01516040928301526001600160a01b038816600090815260c982528290208351815583820151600182015591830151805162003445926002850192019062003b28565b5060608201516003820180546001600160a01b039283166001600160a01b031991821617909155608084015160048401805491909316911617905560a08201518051805160058401916200349f9183916020019062003abe565b5060208281015160018301805460408601516001600160401b03908116600160a01b9081026001600160e01b03199384166001600160a01b039687161717909355606087015160028701805460808a0151909316909402919092169184169190911717905560a09093015160039092019190915560c08401516009840180549184166001600160a01b031992831617905560e0850151600a8501805491909416911617909155610100830151600b83015561012083015180516200356a92600c850192019062003b28565b506101409190910151600d90910155865160405163767e5b9560e11b81526001600160a01b037f0000000000000000000000000000000000000000000000000000000000000000169163ecfcb72a91620035c99189916004016200446a565b600060405180830381600087803b158015620035e457600080fd5b505af1158015620035f9573d6000803e3d6000fd5b50506040516001600160a01b03881692507f41bc6022ac8da2e453cffc5ba42349a2880637ef8d0d5944339a022a6739f3609150600090a2600089815260cc602052604081209081816200364e828262003bf0565b506001810180546001600160e01b031990811690915560028201805490911690556000600390910181905560048301819055600583018190556200369790600684019062003bf0565b60078201805461ffff191690556000600883018190556009830190620036be828262003c10565b620036ce60018301600062003c10565b5050600b820160009055600c82016000620036ea919062003bf0565b5050505050505050505050565b600054610100900460ff16620037215760405162461bcd60e51b8152600401620004e39062004713565b6200372b62003950565b62000b076200397a565b600054610100900460ff166200375f5760405162461bcd60e51b8152600401620004e39062004713565b6200376962003950565b62000b0762003950565b803b620037d95760405162461bcd60e51b815260206004820152602d60248201527f455243313936373a206e657720696d706c656d656e746174696f6e206973206e60448201526c1bdd08184818dbdb9d1c9858dd609a1b6064820152608401620004e3565b7f360894a13ba1a3210667c828492db98dca3e2076cc3735a920a3ca505d382bbc80546001600160a01b0319166001600160a01b0392909216919091179055565b6060823b6200387b5760405162461bcd60e51b815260206004820152602660248201527f416464726573733a2064656c65676174652063616c6c20746f206e6f6e2d636f6044820152651b9d1c9858dd60d21b6064820152608401620004e3565b600080846001600160a01b03168460405162003898919062004332565b600060405180830381855af49150503d8060008114620038d5576040519150601f19603f3d011682016040523d82523d6000602084013e620038da565b606091505b5091509150620039058282604051806060016040528060278152602001620054ce60279139620039af565b95945050505050565b620039198162003773565b6040516001600160a01b038216907fbc7cd75a20ee27fd9adebab32041f755214dbc6bffa90cc0225b39da2e5c2d3b90600090a250565b600054610100900460ff1662000b075760405162461bcd60e51b8152600401620004e39062004713565b600054610100900460ff16620039a45760405162461bcd60e51b8152600401620004e39062004713565b62000b073362002856565b60608315620039c0575081620039ed565b825115620039d15782518084602001fd5b8160405162461bcd60e51b8152600401620004e391906200454c565b9392505050565b60405180610160016040528060008019168152602001600081526020016060815260200160006001600160a01b0316815260200160006001600160a01b0316815260200162003a966040518060c001604052806060815260200160006001600160a01b0316815260200160006001600160401b0316815260200160006001600160a01b0316815260200160006001600160401b03168152602001600081525090565b8152600060208201819052604082018190526060808301829052608083015260a09091015290565b82805482825590600052602060002090810192821562003b16579160200282015b8281111562003b1657825182546001600160a01b0319166001600160a01b0390911617825560209092019160019091019062003adf565b5062003b2492915062003c4a565b5090565b82805482825590600052602060002090810192821562003b16579160200282015b8281111562003b1657825182559160200191906001019062003b49565b82805462003b749062004a7e565b90600052602060002090601f01602090048101928262003b98576000855562003b16565b82601f1062003bb357805160ff191683800117855562003b16565b8280016001018555821562003b16579182018281111562003b1657825182559160200191906001019062003b49565b6109938062004b3b83390190565b5080546000825590600052602060002090810190620007c9919062003c4a565b50805462003c1e9062004a7e565b6000825580601f1062003c2f575050565b601f016020900490600052602060002090810190620007c991905b5b8082111562003b24576000815560010162003c4b565b60006001600160401b0383111562003c7d5762003c7d62004aff565b62003c92601f8401601f19166020016200490f565b905082815283838301111562003ca757600080fd5b828260208301376000602084830101529392505050565b803562003ccb8162004b15565b919050565b60008083601f84011262003ce357600080fd5b5081356001600160401b0381111562003cfb57600080fd5b6020830191508360208260051b850101111562003d1757600080fd5b9250929050565b600082601f83011262003d3057600080fd5b620039ed8383356020850162003c61565b60006040828403121562003d5457600080fd5b50919050565b600060c0828403121562003d6d57600080fd5b62003d77620048e4565b905081356001600160401b038082111562003d9157600080fd5b818401915084601f83011262003da657600080fd5b813560208282111562003dbd5762003dbd62004aff565b8160051b925062003dd08184016200490f565b8281528181019085830185870184018a101562003dec57600080fd5b600096505b8487101562003e1f578035955062003e098662004b15565b8583526001969096019591830191830162003df1565b5086525062003e3086820162003cbe565b818601525050505062003e466040830162003e94565b604082015262003e596060830162003cbe565b606082015262003e6c6080830162003e94565b608082015260a082013560a082015292915050565b803561ffff8116811462003ccb57600080fd5b80356001600160401b038116811462003ccb57600080fd5b60006020828403121562003ebf57600080fd5b8135620039ed8162004b15565b60006020828403121562003edf57600080fd5b8151620039ed8162004b15565b6000806040838503121562003f0057600080fd5b823562003f0d8162004b15565b9150602083013562003f1f8162004b15565b809150509250929050565b6000806040838503121562003f3e57600080fd5b823562003f4b8162004b15565b915060208301356001600160401b0381111562003f6757600080fd5b8301601f8101851362003f7957600080fd5b62003f8a8582356020840162003c61565b9150509250929050565b6000806040838503121562003fa857600080fd5b823562003fb58162004b15565b946020939093013593505050565b60008060008060006080868803121562003fdc57600080fd5b853562003fe98162004b15565b94506020860135935060408601356001600160401b03808211156200400d57600080fd5b818801915088601f8301126200402257600080fd5b8135818111156200403257600080fd5b8960208285010111156200404557600080fd5b6020830195508094505050506060860135620040618162004b2b565b809150509295509295909350565b6000602082840312156200408257600080fd5b8151620039ed8162004b2b565b600060208284031215620040a257600080fd5b5051919050565b600080600080600080600080600060e08a8c031215620040c857600080fd5b89356001600160401b0380821115620040e057600080fd5b620040ee8d838e0162003d5a565b9a5060208c01359150808211156200410557600080fd5b620041138d838e0162003cd0565b909a5098508891506200412960408d0162003e81565b975060608c01359150808211156200414057600080fd5b6200414e8d838e0162003d41565b965060808c0135955060a08c01359150808211156200416c57600080fd5b506200417b8c828d0162003cd0565b9a9d999c50979a9699959894979660c00135949350505050565b600060208284031215620041a857600080fd5b81516001600160801b0381168114620039ed57600080fd5b600060208284031215620041d357600080fd5b5035919050565b600081518084526020808501945080840160005b83811015620042155781516001600160a01b031687529582019590820190600101620041ee565b509495945050505050565b600081518084526020808501945080840160005b83811015620042155781518752958201959082019060010162004234565b600081518084526200426c81602086016020860162004a4b565b601f01601f19169290920160200192915050565b6000815160c084526200429760c0850182620041da565b9050602083015160018060a01b038082166020870152604085015191506001600160401b03808316604088015281606087015116606088015280608087015116608088015250505060a083015160a08501528091505092915050565b61ffff815116825260018060a01b03602082015116602083015260006040820151606060408501526200432a606085018262004252565b949350505050565b600082516200434681846020870162004a4b565b9190910192915050565b600082516200436481846020870162004a4b565b604360f81b920191825250600101919050565b600082516200438b81846020870162004a4b565b690810dbdc1e5c9a59da1d60b21b920191825250600a01919050565b60008251620043bb81846020870162004a4b565b72102937bcb0b63a3c9021b7b63632b1ba34b7b760691b920191825250601301919050565b60008251620043f481846020870162004a4b565b612fa960f11b920191825250600201919050565b600060018060a01b03808a168352808916602084015260e060408401526200443460e084018962004252565b838103606085015262004448818962004252565b60808501979097525093841660a083015250911660c090910152949350505050565b6001600160a01b03831681526040602082018190526000906200432a90830184620041da565b60018060a01b0384168152600060206060818401526101408301855115156060850152818601516080850160005b6005811015620044dd57825182529184019190840190600101620044be565b505050604086015160e061012086015261020085019160005b60068110156200452a5761013f198785030182526200451784845162004252565b93509184019190840190600101620044f6565b5050508381036040850152620045418186620042f3565b979650505050505050565b602081526000620039ed602083018462004252565b60608152600062004576606083018662004252565b82810360208401526200458a818662004252565b91505060018060a01b0383166040830152949350505050565b60a081526000620045b860a083018862004252565b8281036020840152620045cc818862004252565b6001600160a01b03968716604085015294861660608401525050921660809092019190915292915050565b6080815260006200460c608083018762004252565b828103602084015262004620818762004252565b6001600160a01b03959095166040840152505061ffff9190911660609091015292915050565b6020808252602c908201527f46756e6374696f6e206d7573742062652063616c6c6564207468726f7567682060408201526b19195b1959d85d1958d85b1b60a21b606082015260800190565b6020808252602c908201527f46756e6374696f6e206d7573742062652063616c6c6564207468726f7567682060408201526b6163746976652070726f787960a01b606082015260800190565b6020808252818101527f4f776e61626c653a2063616c6c6572206973206e6f7420746865206f776e6572604082015260600190565b6020808252602b908201527f496e697469616c697a61626c653a20636f6e7472616374206973206e6f74206960408201526a6e697469616c697a696e6760a81b606082015260800190565b602081528151602082015260208201516040820152600060408301516101608060608501526200479361018085018362004220565b91506060850151620047b060808601826001600160a01b03169052565b5060808501516001600160a01b03811660a08601525060a0850151601f19808685030160c0870152620047e4848362004280565b935060c087015191506200480360e08701836001600160a01b03169052565b60e0870151915061010062004822818801846001600160a01b03169052565b8088015192505061012082818801528088015192505061014081878603018188015262004850858462004220565b970151959092019490945250929392505050565b60e0815260006200487960e083018a62004280565b88602084015287604084015261ffff8716606084015285608084015282810360a0840152845160408252620048b2604083018262004252565b905060208601518282036020840152620048cd828262004252565b93505050508260c083015298975050505050505050565b60405160c081016001600160401b038111828210171562004909576200490962004aff565b60405290565b604051601f8201601f191681016001600160401b03811182821017156200493a576200493a62004aff565b604052919050565b6000821982111562004958576200495862004ad3565b500190565b6000826200497b57634e487b7160e01b600052601260045260246000fd5b500490565b60008160001904831182151516156200499d576200499d62004ad3565b500290565b600082821015620049b757620049b762004ad3565b500390565b600060408236031215620049cf57600080fd5b604051604081016001600160401b038282108183111715620049f557620049f562004aff565b81604052843591508082111562004a0b57600080fd5b62004a193683870162003d1e565b8352602085013591508082111562004a3057600080fd5b5062004a3f3682860162003d1e565b60208301525092915050565b60005b8381101562004a6857818101518382015260200162004a4e565b8381111562004a78576000848401525b50505050565b600181811c9082168062004a9357607f821691505b6020821081141562003d5457634e487b7160e01b600052602260045260246000fd5b600060001982141562004acc5762004acc62004ad3565b5060010190565b634e487b7160e01b600052601160045260246000fd5b634e487b7160e01b600052603260045260246000fd5b634e487b7160e01b600052604160045260246000fd5b6001600160a01b0381168114620007c957600080fd5b8015158114620007c957600080fdfe608060405260405161099338038061099383398101604081905261002291610470565b61004d60017fa3f0ad74e5423aebfd80d3ef4346578335a9a72aeaee59ff6cb3582b35133d5161057f565b60008051602061094c83398151915214610069576100696105d0565b6100758282600061007c565b50506105fc565b61008583610156565b6040516001600160a01b038416907f1cf3b03a6cf19fa2baba4df148e9dcabedea7f8a5c07840e207e5c089be95d3e90600090a26000825111806100c65750805b156101515761014f836001600160a01b0316635c60da1b6040518163ffffffff1660e01b815260040160206040518083038186803b15801561010757600080fd5b505afa15801561011b573d6000803e3d6000fd5b505050506040513d601f19601f8201168201806040525081019061013f9190610455565b836102f660201b6100291760201c565b505b505050565b6101698161032260201b6100551760201c565b6101c85760405162461bcd60e51b815260206004820152602560248201527f455243313936373a206e657720626561636f6e206973206e6f74206120636f6e6044820152641d1c9858dd60da1b60648201526084015b60405180910390fd5b61024b816001600160a01b0316635c60da1b6040518163ffffffff1660e01b815260040160206040518083038186803b15801561020457600080fd5b505afa158015610218573d6000803e3d6000fd5b505050506040513d601f19601f8201168201806040525081019061023c9190610455565b61032260201b6100551760201c565b6102b05760405162461bcd60e51b815260206004820152603060248201527f455243313936373a20626561636f6e20696d706c656d656e746174696f6e206960448201526f1cc81b9bdd08184818dbdb9d1c9858dd60821b60648201526084016101bf565b806102d560008051602061094c83398151915260001b61032860201b61005b1760201c565b80546001600160a01b0319166001600160a01b039290921691909117905550565b606061031b838360405180606001604052806027815260200161096c6027913961032b565b9392505050565b3b151590565b90565b6060833b61038a5760405162461bcd60e51b815260206004820152602660248201527f416464726573733a2064656c65676174652063616c6c20746f206e6f6e2d636f6044820152651b9d1c9858dd60d21b60648201526084016101bf565b600080856001600160a01b0316856040516103a59190610530565b600060405180830381855af49150503d80600081146103e0576040519150601f19603f3d011682016040523d82523d6000602084013e6103e5565b606091505b5090925090506103f6828286610400565b9695505050505050565b6060831561040f57508161031b565b82511561041f5782518084602001fd5b8160405162461bcd60e51b81526004016101bf919061054c565b80516001600160a01b038116811461045057600080fd5b919050565b60006020828403121561046757600080fd5b61031b82610439565b6000806040838503121561048357600080fd5b61048c83610439565b60208401519092506001600160401b03808211156104a957600080fd5b818501915085601f8301126104bd57600080fd5b8151818111156104cf576104cf6105e6565b604051601f8201601f19908116603f011681019083821181831017156104f7576104f76105e6565b8160405282815288602084870101111561051057600080fd5b6105218360208301602088016105a4565b80955050505050509250929050565b600082516105428184602087016105a4565b9190910192915050565b602081526000825180602084015261056b8160408501602087016105a4565b601f01601f19169190910160400192915050565b60008282101561059f57634e487b7160e01b600052601160045260246000fd5b500390565b60005b838110156105bf5781810151838201526020016105a7565b8381111561014f5750506000910152565b634e487b7160e01b600052600160045260246000fd5b634e487b7160e01b600052604160045260246000fd5b6103418061060b6000396000f3fe60806040523661001357610011610017565b005b6100115b61002761002261005e565b610106565b565b606061004e83836040518060600160405280602781526020016102e56027913961012a565b9392505050565b3b151590565b90565b60006100917fa3f0ad74e5423aebfd80d3ef4346578335a9a72aeaee59ff6cb3582b35133d50546001600160a01b031690565b6001600160a01b0316635c60da1b6040518163ffffffff1660e01b815260040160206040518083038186803b1580156100c957600080fd5b505afa1580156100dd573d6000803e3d6000fd5b505050506040513d601f19601f82011682018060405250810190610101919061023c565b905090565b3660008037600080366000845af43d6000803e808015610125573d6000f35b3d6000fd5b6060833b61018e5760405162461bcd60e51b815260206004820152602660248201527f416464726573733a2064656c65676174652063616c6c20746f206e6f6e2d636f6044820152651b9d1c9858dd60d21b60648201526084015b60405180910390fd5b600080856001600160a01b0316856040516101a99190610265565b600060405180830381855af49150503d80600081146101e4576040519150601f19603f3d011682016040523d82523d6000602084013e6101e9565b606091505b50915091506101f9828286610203565b9695505050505050565b6060831561021257508161004e565b8251156102225782518084602001fd5b8160405162461bcd60e51b81526004016101859190610281565b60006020828403121561024e57600080fd5b81516001600160a01b038116811461004e57600080fd5b600082516102778184602087016102b4565b9190910192915050565b60208152600082518060208401526102a08160408501602087016102b4565b601f01601f19169190910160400192915050565b60005b838110156102cf5781810151838201526020016102b7565b838111156102de576000848401525b5050505056fe416464726573733a206c6f772d6c6576656c2064656c65676174652063616c6c206661696c6564a2646970667358221220af3edcf4cf6c470978954d2c293799c3488ede270268341fa22392c0f4f0dbc664736f6c63430008060033a3f0ad74e5423aebfd80d3ef4346578335a9a72aeaee59ff6cb3582b35133d50416464726573733a206c6f772d6c6576656c2064656c65676174652063616c6c206661696c6564416464726573733a206c6f772d6c6576656c2064656c65676174652063616c6c206661696c6564a2646970667358221220e361b2550212bdfc45b6b77d94e682252de96db0f5dbcadfbd4da31a564de60a64736f6c63430008060033",
  "linkReferences": {},
  "deployedLinkReferences": {}
}