{
  "address": "0x0323EA5a6B2F13599e5c51592Bf267AB7A7a555F",
  "abi": [
    {
      "inputs": [],
      "stateMutability": "nonpayable",
      "type": "constructor"
    },
    {
      "anonymous": false,
      "inputs": [
        {
          "indexed": false,
          "internalType": "address",
          "name": "previousAdmin",
          "type": "address"
        },
        {
          "indexed": false,
          "internalType": "address",
          "name": "newAdmin",
          "type": "address"
        }
      ],
      "name": "AdminChanged",
      "type": "event"
    },
    {
      "anonymous": false,
      "inputs": [
        {
          "indexed": true,
          "internalType": "address",
          "name": "podAddress",
          "type": "address"
        },
        {
          "indexed": true,
          "internalType": "address",
          "name": "recipient",
          "type": "address"
        },
        {
          "indexed": false,
          "internalType": "uint256",
          "name": "amount",
          "type": "uint256"
        },
        {
          "indexed": true,
          "internalType": "uint256",
          "name": "proposalId",
          "type": "uint256"
        }
      ],
      "name": "ApproveWithdrawProposal",
      "type": "event"
    },
    {
      "anonymous": false,
      "inputs": [
        {
          "indexed": true,
          "internalType": "address",
          "name": "beacon",
          "type": "address"
        }
      ],
      "name": "BeaconUpgraded",
      "type": "event"
    },
    {
      "anonymous": false,
      "inputs": [
        {
          "indexed": true,
          "internalType": "address",
          "name": "podAddress",
          "type": "address"
        },
        {
          "indexed": true,
          "internalType": "address",
          "name": "recipient",
          "type": "address"
        },
        {
          "indexed": false,
          "internalType": "uint256",
          "name": "amount",
          "type": "uint256"
        },
        {
          "indexed": true,
          "internalType": "uint256",
          "name": "proposalId",
          "type": "uint256"
        }
      ],
      "name": "CreateWithdrawProposal",
      "type": "event"
    },
    {
      "anonymous": false,
      "inputs": [
        {
          "indexed": true,
          "internalType": "address",
          "name": "podAddress",
          "type": "address"
        },
        {
          "indexed": true,
          "internalType": "address",
          "name": "recipient",
          "type": "address"
        },
        {
          "indexed": false,
          "internalType": "uint256",
          "name": "amount",
          "type": "uint256"
        },
        {
          "indexed": true,
          "internalType": "uint256",
          "name": "proposalId",
          "type": "uint256"
        }
      ],
      "name": "DenyWithdrawProposal",
      "type": "event"
    },
    {
      "anonymous": false,
      "inputs": [
        {
          "indexed": true,
          "internalType": "address",
          "name": "podAddress",
          "type": "address"
        },
        {
          "indexed": true,
          "internalType": "address",
          "name": "recipient",
          "type": "address"
        },
        {
          "indexed": false,
          "internalType": "uint256",
          "name": "amount",
          "type": "uint256"
        },
        {
          "indexed": true,
          "internalType": "uint256",
          "name": "proposalId",
          "type": "uint256"
        }
      ],
      "name": "ExpireWithdrawProposal",
      "type": "event"
    },
    {
      "anonymous": false,
      "inputs": [
        {
          "indexed": true,
          "internalType": "address",
          "name": "previousOwner",
          "type": "address"
        },
        {
          "indexed": true,
          "internalType": "address",
          "name": "newOwner",
          "type": "address"
        }
      ],
      "name": "OwnershipTransferred",
      "type": "event"
    },
    {
      "anonymous": false,
      "inputs": [
        {
          "indexed": true,
          "internalType": "address",
          "name": "implementation",
          "type": "address"
        }
      ],
      "name": "Upgraded",
      "type": "event"
    },
    {
      "anonymous": false,
      "inputs": [
        {
          "indexed": true,
          "internalType": "address",
          "name": "voter",
          "type": "address"
        },
        {
          "indexed": true,
          "internalType": "address",
          "name": "podAddress",
          "type": "address"
        },
        {
          "indexed": true,
          "internalType": "uint256",
          "name": "proposalId",
          "type": "uint256"
        }
      ],
      "name": "VoteWithdrawProposal",
      "type": "event"
    },
    {
      "inputs": [
        {
          "internalType": "address",
          "name": "_recipient",
          "type": "address"
        },
        {
          "internalType": "address",
          "name": "_podAddress",
          "type": "address"
        },
        {
          "internalType": "uint256",
          "name": "_amount",
          "type": "uint256"
        }
      ],
      "name": "createWithdrawProposal",
      "outputs": [],
      "stateMutability": "nonpayable",
      "type": "function"
    },
    {
      "inputs": [
        {
          "internalType": "uint256",
          "name": "_proposalId",
          "type": "uint256"
        }
      ],
      "name": "getUpdateMediaProposal",
      "outputs": [
        {
          "components": [
            {
              "internalType": "uint128",
              "name": "positiveVotesCount",
              "type": "uint128"
            },
            {
              "internalType": "uint128",
              "name": "negativeVotesCount",
              "type": "uint128"
            },
            {
              "internalType": "address",
              "name": "podAddress",
              "type": "address"
            },
            {
              "internalType": "address",
              "name": "recipient",
              "type": "address"
            },
            {
              "internalType": "uint64",
              "name": "minApprovals",
              "type": "uint64"
            },
            {
              "internalType": "uint64",
              "name": "maxDenials",
              "type": "uint64"
            },
            {
              "internalType": "uint64",
              "name": "date",
              "type": "uint64"
            },
            {
              "internalType": "uint64",
              "name": "duration",
              "type": "uint64"
            },
            {
              "internalType": "uint256",
              "name": "amount",
              "type": "uint256"
            }
          ],
          "internalType": "struct WithdrawProposal",
          "name": "",
          "type": "tuple"
        }
      ],
      "stateMutability": "view",
      "type": "function"
    },
    {
      "inputs": [
        {
          "internalType": "address",
          "name": "podManager_",
          "type": "address"
        }
      ],
      "name": "initialize",
      "outputs": [],
      "stateMutability": "nonpayable",
      "type": "function"
    },
    {
      "inputs": [],
      "name": "owner",
      "outputs": [
        {
          "internalType": "address",
          "name": "",
          "type": "address"
        }
      ],
      "stateMutability": "view",
      "type": "function"
    },
    {
      "inputs": [],
      "name": "podManagerContractAddress",
      "outputs": [
        {
          "internalType": "address",
          "name": "",
          "type": "address"
        }
      ],
      "stateMutability": "view",
      "type": "function"
    },
    {
      "inputs": [],
      "name": "renounceOwnership",
      "outputs": [],
      "stateMutability": "nonpayable",
      "type": "function"
    },
    {
      "inputs": [
        {
          "internalType": "address",
          "name": "_podAddress",
          "type": "address"
        }
      ],
      "name": "returnPodTokens",
      "outputs": [],
      "stateMutability": "nonpayable",
      "type": "function"
    },
    {
      "inputs": [
        {
          "internalType": "address",
          "name": "_podAddress",
          "type": "address"
        },
        {
          "internalType": "address[]",
          "name": "_owners",
          "type": "address[]"
        }
      ],
      "name": "savePodOwners",
      "outputs": [],
      "stateMutability": "nonpayable",
      "type": "function"
    },
    {
      "inputs": [
        {
          "internalType": "address",
          "name": "newOwner",
          "type": "address"
        }
      ],
      "name": "transferOwnership",
      "outputs": [],
      "stateMutability": "nonpayable",
      "type": "function"
    },
    {
      "inputs": [
        {
          "internalType": "address",
          "name": "newImplementation",
          "type": "address"
        }
      ],
      "name": "upgradeTo",
      "outputs": [],
      "stateMutability": "nonpayable",
      "type": "function"
    },
    {
      "inputs": [
        {
          "internalType": "address",
          "name": "newImplementation",
          "type": "address"
        },
        {
          "internalType": "bytes",
          "name": "data",
          "type": "bytes"
        }
      ],
      "name": "upgradeToAndCall",
      "outputs": [],
      "stateMutability": "payable",
      "type": "function"
    },
    {
      "inputs": [
        {
          "internalType": "uint256",
          "name": "_proposalId",
          "type": "uint256"
        },
        {
          "internalType": "bool",
          "name": "_vote",
          "type": "bool"
        }
      ],
      "name": "voteWithdrawProposal",
      "outputs": [],
      "stateMutability": "nonpayable",
      "type": "function"
    }
  ],
  "transactionHash": "0xa673a72d53275a9a233924ee680e3cbe34e891c24b95baee696d35120030d346",
  "args": [],
  "numDeployments": 1,
  "solcInputHash": "d75cb78d3090036566fedddd8891be90",
  "bytecode": "0x60a06040523060601b6080523480156200001857600080fd5b50600054610100900460ff16620000365760005460ff161562000040565b62000040620000e5565b620000a85760405162461bcd60e51b815260206004820152602e60248201527f496e697469616c697a61626c653a20636f6e747261637420697320616c72656160448201526d191e481a5b9a5d1a585b1a5e995960921b606482015260840160405180910390fd5b600054610100900460ff16158015620000cb576000805461ffff19166101011790555b8015620000de576000805461ff00191690555b5062000109565b6000620000fd306200010360201b620013c81760201c565b15905090565b3b151590565b60805160601c61230b6200013d6000396000818161038b015281816103cb015281816104540152610494015261230b6000f3fe6080604052600436106100a75760003560e01c80638da5cb5b116100645780638da5cb5b146101845780639c24e58e146101a2578063b3310f4f146101c2578063c4d66de8146101e2578063ecfcb72a14610202578063f2fde38b1461022257600080fd5b80632aeef099146100ac5780633659cfe6146100e25780634f1ef2861461010457806360e019d214610117578063664c04d614610137578063715018a61461016f575b600080fd5b3480156100b857600080fd5b506100cc6100c7366004611e1a565b610242565b6040516100d99190611fe8565b60405180910390f35b3480156100ee57600080fd5b506101026100fd366004611b37565b610380565b005b610102610112366004611c4a565b610449565b34801561012357600080fd5b50610102610132366004611b54565b610503565b34801561014357600080fd5b5060ca54610157906001600160a01b031681565b6040516001600160a01b0390911681526020016100d9565b34801561017b57600080fd5b5061010261080b565b34801561019057600080fd5b506097546001600160a01b0316610157565b3480156101ae57600080fd5b506101026101bd366004611b37565b610841565b3480156101ce57600080fd5b506101026101dd366004611e4c565b610b27565b3480156101ee57600080fd5b506101026101fd366004611b37565b6111d3565b34801561020e57600080fd5b5061010261021d366004611b95565b6112b7565b34801561022e57600080fd5b5061010261023d366004611b37565b611330565b6040805161012081018252600080825260208201819052918101829052606081018290526080810182905260a0810182905260c0810182905260e08101829052610100810191909152600082815260cb602090815260409182902082516101208101845281546001600160801b038082168352600160801b91829004169382019390935260018201546001600160a01b039081169482019490945260028201549384166060820152600160a01b9093046001600160401b0390811660808501819052600383015480831660a0870152600160401b8104831660c0870152939093041660e08401526004015461010083015261037a5760405162461bcd60e51b8152602060048201526013602482015272155b995e1a5cdd195b9d081c1c9bdc1bdcd85b606a1b60448201526064015b60405180910390fd5b92915050565b306001600160a01b037f00000000000000000000000000000000000000000000000000000000000000001614156103c95760405162461bcd60e51b815260040161037190611ed0565b7f00000000000000000000000000000000000000000000000000000000000000006001600160a01b03166103fb6113ce565b6001600160a01b0316146104215760405162461bcd60e51b815260040161037190611f1c565b61042a816113fc565b6040805160008082526020820190925261044691839190611426565b50565b306001600160a01b037f00000000000000000000000000000000000000000000000000000000000000001614156104925760405162461bcd60e51b815260040161037190611ed0565b7f00000000000000000000000000000000000000000000000000000000000000006001600160a01b03166104c46113ce565b6001600160a01b0316146104ea5760405162461bcd60e51b815260040161037190611f1c565b6104f3826113fc565b6104ff82826001611426565b5050565b61051160c980546001019055565b600061051c60c95490565b9050600061052a3385611571565b905060008112156105715760405162461bcd60e51b815260206004820152601160248201527024b73b30b634b2103932b8bab2b9ba32b960791b6044820152606401610371565b600060405180610120016040528060006001600160801b0316815260200160006001600160801b03168152602001866001600160a01b03168152602001876001600160a01b0316815260200160cd6000886001600160a01b03166001600160a01b03168152602001908152602001600020805490506001600160401b0316815260200160016001600160401b03168152602001426001600160401b0316815260200162093a806001600160401b031681526020018581525090508060cb600085815260200190815260200160002060008201518160000160006101000a8154816001600160801b0302191690836001600160801b0316021790555060208201518160000160106101000a8154816001600160801b0302191690836001600160801b0316021790555060408201518160010160006101000a8154816001600160a01b0302191690836001600160a01b0316021790555060608201518160020160006101000a8154816001600160a01b0302191690836001600160a01b0316021790555060808201518160020160146101000a8154816001600160401b0302191690836001600160401b0316021790555060a08201518160030160006101000a8154816001600160401b0302191690836001600160401b0316021790555060c08201518160030160086101000a8154816001600160401b0302191690836001600160401b0316021790555060e08201518160030160106101000a8154816001600160401b0302191690836001600160401b03160217905550610100820151816004015590505082866001600160a01b0316866001600160a01b03167fa32fc483f3fde5d15cd935b2f3500cdbac9a04280cf6e1c360f457ed0557d05b876040516107fb91815260200190565b60405180910390a4505050505050565b6097546001600160a01b031633146108355760405162461bcd60e51b815260040161037190611f68565b61083f6000611605565b565b60ca5460405162ec5ab160e11b81526001600160a01b03838116600483015260009216906301d8b5629060240160006040518083038186803b15801561088657600080fd5b505afa15801561089a573d6000803e3d6000fd5b505050506040513d6000823e601f3d908101601f191682016040526108c29190810190611cf1565b9050428160a00151604001516001600160401b031611156109255760405162461bcd60e51b815260206004820152601860248201527f46756e64696e672064617465206e6f74207265616368656400000000000000006044820152606401610371565b8060a0015160a001518160200151106109795760405162461bcd60e51b8152602060048201526016602482015275119d5b991a5b99c81d185c99d95d081c995858da195960521b6044820152606401610371565b60ca54604051636f24b05360e01b81526001600160a01b0384811660048301523360248301526000921690636f24b0539060440160206040518083038186803b1580156109c557600080fd5b505afa1580156109d9573d6000803e3d6000fd5b505050506040513d601f19601f820116820180604052508101906109fd9190611e33565b9050600060ca60009054906101000a90046001600160a01b03166001600160a01b031663aaf5eb686040518163ffffffff1660e01b815260040160206040518083038186803b158015610a4f57600080fd5b505afa158015610a63573d6000803e3d6000fd5b505050506040513d601f19601f82011682018060405250810190610a879190611e33565b60a084015160800151610aa3906001600160401b0316846121ca565b610aad91906121a8565b60a08401516060015160405163c575bfa560e01b81523360048201526001600160a01b0391821660248201526044810183905291925085169063c575bfa590606401600060405180830381600087803b158015610b0957600080fd5b505af1158015610b1d573d6000803e3d6000fd5b5050505050505050565b600082815260cb6020526040902060020154600160a01b90046001600160401b0316610b8b5760405162461bcd60e51b8152602060048201526013602482015272155b995e1a5cdd195b9d081c1c9bdc1bdcd85b606a1b6044820152606401610371565b600082815260cb6020908152604080832081516101208101835281546001600160801b038082168352600160801b91829004169482019490945260018201546001600160a01b03908116938201849052600283015490811660608301526001600160401b03600160a01b90910481166080830152600383015480821660a0840152600160401b8104821660c08401529490940490931660e084015260040154610100830152909190610c3e903390611571565b90506000811215610c815760405162461bcd60e51b815260206004820152600d60248201526c24b73b30b634b21037bbb732b960991b6044820152606401610371565b600084815260cc6020908152604080832033845290915290205460ff1615610ce15760405162461bcd60e51b815260206004820152601360248201527213dddb995c88185b1c9958591e481d9bdd1959606a1b6044820152606401610371565b600084815260cc602090815260408083203384529091529020805460ff1916600117905560e082015160c08301514291610d1a91612186565b6001600160401b03161015610dd757600084815260cb60205260408082208281556001810180546001600160a01b03191690556002810180546001600160e01b03191690556003810180546001600160c01b031916905560040191909155606083015183820151610100850151925187936001600160a01b039384169392909216917f14f7a931e15e38da47fbd312052d122b2468fbd4eda9db0bda482cf9c8e0e3f891610dca91815260200190565b60405180910390a46111cd565b82156110675781608001516001600160401b031682600001516001610dfc919061215b565b6001600160801b03161415610fd557600084815260cb60205260408082208281556001810180546001600160a01b03191690556002810180546001600160e01b03191690556003810180546001600160c01b0319169055600490810183905560ca5485830151925162ec5ab160e11b81526001600160a01b0391909116926301d8b56292610e9992016001600160a01b0391909116815260200190565b60006040518083038186803b158015610eb157600080fd5b505afa158015610ec5573d6000803e3d6000fd5b505050506040513d6000823e601f3d908101601f19168201604052610eed9190810190611cf1565b60408085015160608087015161010088015160a086015190920151935163cfc82dab60e01b81526001600160a01b03918216600482015260248101929092529283166044820152929350169063cfc82dab90606401600060405180830381600087803b158015610f5c57600080fd5b505af1158015610f70573d6000803e3d6000fd5b505050508483606001516001600160a01b031684604001516001600160a01b03167f0136f246c5141769cccada45c79897b16323d4eeaaa00602977cad10fcbfbaf4866101000151604051610fc791815260200190565b60405180910390a4506111cd565b600084815260cb6020526040812080546001600160801b031691610ff883612215565b91906101000a8154816001600160801b0302191690836001600160801b03160217905550508382604001516001600160a01b0316336001600160a01b03167f070f5734fbf17e22389e6227c8d6b3c83f038a95acbc51a1465b9fca6b99b25f60405160405180910390a46111cd565b8160a001516001600160401b031682602001516001611086919061215b565b6001600160801b0316141561113657600084815260cb60205260408082208281556001810180546001600160a01b03191690556002810180546001600160e01b03191690556003810180546001600160c01b031916905560040191909155606083015183820151610100850151925187936001600160a01b039384169392909216917fb6596f064b5e4cd43777d11153839a8b7c162a6e641ef1143f8eb36442c9afa391610dca91815260200190565b600084815260cb602052604090208054600160801b90046001600160801b031690601061116283612215565b91906101000a8154816001600160801b0302191690836001600160801b03160217905550508382604001516001600160a01b0316336001600160a01b03167f070f5734fbf17e22389e6227c8d6b3c83f038a95acbc51a1465b9fca6b99b25f60405160405180910390a45b50505050565b600054610100900460ff166111ee5760005460ff16156111f2565b303b155b6112555760405162461bcd60e51b815260206004820152602e60248201527f496e697469616c697a61626c653a20636f6e747261637420697320616c72656160448201526d191e481a5b9a5d1a585b1a5e995960921b6064820152608401610371565b600054610100900460ff16158015611277576000805461ffff19166101011790555b61127f611657565b61128761168e565b60ca80546001600160a01b0319166001600160a01b03841617905580156104ff576000805461ff00191690555050565b60ca546001600160a01b031633146113025760405162461bcd60e51b815260206004820152600e60248201526d24b73b30b634b21031b0b63632b960911b6044820152606401610371565b6001600160a01b038216600090815260cd60209081526040909120825161132b9284019061192c565b505050565b6097546001600160a01b0316331461135a5760405162461bcd60e51b815260040161037190611f68565b6001600160a01b0381166113bf5760405162461bcd60e51b815260206004820152602660248201527f4f776e61626c653a206e6577206f776e657220697320746865207a65726f206160448201526564647265737360d01b6064820152608401610371565b61044681611605565b3b151590565b7f360894a13ba1a3210667c828492db98dca3e2076cc3735a920a3ca505d382bbc546001600160a01b031690565b6097546001600160a01b031633146104465760405162461bcd60e51b815260040161037190611f68565b60006114306113ce565b905061143b846116c5565b6000835111806114485750815b1561145957611457848461176a565b505b7f4910fdfa16fed3260ed0e7147f7cc6da11a60208b5b9406d12a635614ffd9143805460ff1661156a57805460ff191660011781556040516001600160a01b03831660248201526114d890869060440160408051601f198184030181529190526020810180516001600160e01b0316631b2ce7f360e11b17905261176a565b50805460ff191681556114e96113ce565b6001600160a01b0316826001600160a01b0316146115615760405162461bcd60e51b815260206004820152602f60248201527f45524331393637557067726164653a207570677261646520627265616b73206660448201526e75727468657220757067726164657360881b6064820152608401610371565b61156a85611855565b5050505050565b6001600160a01b038116600090815260cd6020526040812054815b818110156115f9576001600160a01b03848116600090815260cd60205260409020805491871691839081106115c3576115c361226d565b6000918252602090912001546001600160a01b031614156115e757915061037a9050565b806115f18161223c565b91505061158c565b50600019949350505050565b609780546001600160a01b038381166001600160a01b0319831681179093556040519116919082907f8be0079c531659141344cd1fd0a4f28419497f9722a3daafe3b4186f6b6457e090600090a35050565b600054610100900460ff1661167e5760405162461bcd60e51b815260040161037190611f9d565b611686611895565b61083f6118bc565b600054610100900460ff166116b55760405162461bcd60e51b815260040161037190611f9d565b6116bd611895565b61083f611895565b803b6117295760405162461bcd60e51b815260206004820152602d60248201527f455243313936373a206e657720696d706c656d656e746174696f6e206973206e60448201526c1bdd08184818dbdb9d1c9858dd609a1b6064820152608401610371565b7f360894a13ba1a3210667c828492db98dca3e2076cc3735a920a3ca505d382bbc80546001600160a01b0319166001600160a01b0392909216919091179055565b6060823b6117c95760405162461bcd60e51b815260206004820152602660248201527f416464726573733a2064656c65676174652063616c6c20746f206e6f6e2d636f6044820152651b9d1c9858dd60d21b6064820152608401610371565b600080846001600160a01b0316846040516117e49190611e81565b600060405180830381855af49150503d806000811461181f576040519150601f19603f3d011682016040523d82523d6000602084013e611824565b606091505b509150915061184c82826040518060600160405280602781526020016122af602791396118ec565b95945050505050565b61185e816116c5565b6040516001600160a01b038216907fbc7cd75a20ee27fd9adebab32041f755214dbc6bffa90cc0225b39da2e5c2d3b90600090a250565b600054610100900460ff1661083f5760405162461bcd60e51b815260040161037190611f9d565b600054610100900460ff166118e35760405162461bcd60e51b815260040161037190611f9d565b61083f33611605565b606083156118fb575081611925565b82511561190b5782518084602001fd5b8160405162461bcd60e51b81526004016103719190611e9d565b9392505050565b828054828255906000526020600020908101928215611981579160200282015b8281111561198157825182546001600160a01b0319166001600160a01b0390911617825560209092019160019091019061194c565b5061198d929150611991565b5090565b5b8082111561198d5760008155600101611992565b80516119b181612299565b919050565b600082601f8301126119c757600080fd5b815160206119dc6119d783612138565b612108565b80838252828201915082860187848660051b89010111156119fc57600080fd5b60005b85811015611a1b578151845292840192908401906001016119ff565b5090979650505050505050565b600060c08284031215611a3a57600080fd5b611a426120bd565b905081516001600160401b03811115611a5a57600080fd5b8201601f81018413611a6b57600080fd5b80516020611a7b6119d783612138565b80838252828201915082850188848660051b8801011115611a9b57600080fd5b600095505b84861015611ac7578051611ab381612299565b835260019590950194918301918301611aa0565b50855250611ad68582016119a6565b81850152505050611ae960408301611b20565b6040820152611afa606083016119a6565b6060820152611b0b60808301611b20565b608082015260a082015160a082015292915050565b80516001600160401b03811681146119b157600080fd5b600060208284031215611b4957600080fd5b813561192581612299565b600080600060608486031215611b6957600080fd5b8335611b7481612299565b92506020840135611b8481612299565b929592945050506040919091013590565b60008060408385031215611ba857600080fd5b8235611bb381612299565b91506020838101356001600160401b03811115611bcf57600080fd5b8401601f81018613611be057600080fd5b8035611bee6119d782612138565b80828252848201915084840189868560051b8701011115611c0e57600080fd5b600094505b83851015611c3a578035611c2681612299565b835260019490940193918501918501611c13565b5080955050505050509250929050565b60008060408385031215611c5d57600080fd5b8235611c6881612299565b91506020838101356001600160401b0380821115611c8557600080fd5b818601915086601f830112611c9957600080fd5b813581811115611cab57611cab612283565b611cbd601f8201601f19168501612108565b91508082528784828501011115611cd357600080fd5b80848401858401376000848284010152508093505050509250929050565b600060208284031215611d0357600080fd5b81516001600160401b0380821115611d1a57600080fd5b908301906101608286031215611d2f57600080fd5b611d376120e5565b8251815260208301516020820152604083015182811115611d5757600080fd5b611d63878286016119b6565b604083015250611d75606084016119a6565b6060820152611d86608084016119a6565b608082015260a083015182811115611d9d57600080fd5b611da987828601611a28565b60a083015250611dbb60c084016119a6565b60c0820152611dcc60e084016119a6565b60e082015261010083810151908201526101208084015183811115611df057600080fd5b611dfc888287016119b6565b91830191909152506101409283015192810192909252509392505050565b600060208284031215611e2c57600080fd5b5035919050565b600060208284031215611e4557600080fd5b5051919050565b60008060408385031215611e5f57600080fd5b8235915060208301358015158114611e7657600080fd5b809150509250929050565b60008251611e938184602087016121e9565b9190910192915050565b6020815260008251806020840152611ebc8160408501602087016121e9565b601f01601f19169190910160400192915050565b6020808252602c908201527f46756e6374696f6e206d7573742062652063616c6c6564207468726f7567682060408201526b19195b1959d85d1958d85b1b60a21b606082015260800190565b6020808252602c908201527f46756e6374696f6e206d7573742062652063616c6c6564207468726f7567682060408201526b6163746976652070726f787960a01b606082015260800190565b6020808252818101527f4f776e61626c653a2063616c6c6572206973206e6f7420746865206f776e6572604082015260600190565b6020808252602b908201527f496e697469616c697a61626c653a20636f6e7472616374206973206e6f74206960408201526a6e697469616c697a696e6760a81b606082015260800190565b6000610120820190506001600160801b0380845116835280602085015116602084015250604083015161202660408401826001600160a01b03169052565b50606083015161204160608401826001600160a01b03169052565b50608083015161205c60808401826001600160401b03169052565b5060a083015161207760a08401826001600160401b03169052565b5060c083015161209260c08401826001600160401b03169052565b5060e08301516120ad60e08401826001600160401b03169052565b5061010092830151919092015290565b60405160c081016001600160401b03811182821017156120df576120df612283565b60405290565b60405161016081016001600160401b03811182821017156120df576120df612283565b604051601f8201601f191681016001600160401b038111828210171561213057612130612283565b604052919050565b60006001600160401b0382111561215157612151612283565b5060051b60200190565b60006001600160801b0380831681851680830382111561217d5761217d612257565b01949350505050565b60006001600160401b0380831681851680830382111561217d5761217d612257565b6000826121c557634e487b7160e01b600052601260045260246000fd5b500490565b60008160001904831182151516156121e4576121e4612257565b500290565b60005b838110156122045781810151838201526020016121ec565b838111156111cd5750506000910152565b60006001600160801b038083168181141561223257612232612257565b6001019392505050565b600060001982141561225057612250612257565b5060010190565b634e487b7160e01b600052601160045260246000fd5b634e487b7160e01b600052603260045260246000fd5b634e487b7160e01b600052604160045260246000fd5b6001600160a01b038116811461044657600080fdfe416464726573733a206c6f772d6c6576656c2064656c65676174652063616c6c206661696c6564a264697066735822122056aae97d5f7782da9789f3afcaa5ae7676ffc4c45e65361130d8c1268a1198f464736f6c63430008060033",
  "devdoc": {
    "kind": "dev",
    "methods": {
      "constructor": {
        "details": "the initializer modifier is to avoid someone initializing      the implementation contract after deployment"
      },
      "createWithdrawProposal(address,address,uint256)": {
        "params": {
          "_amount": "the amount of the funding token to withdraw",
          "_podAddress": "the address of the pod",
          "_recipient": "the recipient of the transfer"
        }
      },
      "getUpdateMediaProposal(uint256)": {
        "params": {
          "_proposalId": "The id of the withdraw proposal"
        },
        "returns": {
          "_0": "the WithdrawProposal object"
        }
      },
      "initialize(address)": {
        "details": "initializes the contract",
        "params": {
          "podManager_": "the address of the PodManager contract"
        }
      },
      "owner()": {
        "details": "Returns the address of the current owner."
      },
      "renounceOwnership()": {
        "details": "Leaves the contract without owner. It will not be possible to call `onlyOwner` functions anymore. Can only be called by the current owner. NOTE: Renouncing ownership will leave the contract without an owner, thereby removing any functionality that is only available to the owner."
      },
      "savePodOwners(address,address[])": {
        "params": {
          "_owners": "the array of the owners",
          "_podAddress": "the address of the pod"
        }
      },
      "transferOwnership(address)": {
        "details": "Transfers ownership of the contract to a new account (`newOwner`). Can only be called by the current owner."
      },
      "upgradeTo(address)": {
        "details": "Upgrade the implementation of the proxy to `newImplementation`. Calls {_authorizeUpgrade}. Emits an {Upgraded} event."
      },
      "upgradeToAndCall(address,bytes)": {
        "details": "Upgrade the implementation of the proxy to `newImplementation`, and subsequently execute the function call encoded in `data`. Calls {_authorizeUpgrade}. Emits an {Upgraded} event."
      },
      "voteWithdrawProposal(uint256,bool)": {
        "params": {
          "_proposalId": "the id of the withdraw proposal",
          "_vote": "the actual vote: true or false"
        }
      }
    },
    "title": "manager for pod withdrawals",
    "version": 1
  },
  "userdoc": {
    "kind": "user",
    "methods": {
      "createWithdrawProposal(address,address,uint256)": {
        "notice": "create a proposal for withdraw funds"
      },
      "getUpdateMediaProposal(uint256)": {
        "notice": "proposal struct getter"
      },
      "returnPodTokens(address)": {
        "notice": "allows the return of funds after a pod disposal"
      },
      "savePodOwners(address,address[])": {
        "notice": "save the owners for multisig feature"
      },
      "voteWithdrawProposal(uint256,bool)": {
        "notice": "allows owners to vote withdraw proposals for pods"
      }
    },
    "notice": "manages the withdrawals proposals and the multisign logic",
    "version": 1
  },
  "storageLayout": {
    "storage": [
      {
        "astId": 950,
        "contract": "contracts/PodWithdrawManager.sol:PodWithdrawManager",
        "label": "_initialized",
        "offset": 0,
        "slot": "0",
        "type": "t_bool"
      },
      {
        "astId": 953,
        "contract": "contracts/PodWithdrawManager.sol:PodWithdrawManager",
        "label": "_initializing",
        "offset": 1,
        "slot": "0",
        "type": "t_bool"
      },
      {
        "astId": 932,
        "contract": "contracts/PodWithdrawManager.sol:PodWithdrawManager",
        "label": "__gap",
        "offset": 0,
        "slot": "1",
        "type": "t_array(t_uint256)50_storage"
      },
      {
        "astId": 1127,
        "contract": "contracts/PodWithdrawManager.sol:PodWithdrawManager",
        "label": "__gap",
        "offset": 0,
        "slot": "51",
        "type": "t_array(t_uint256)50_storage"
      },
      {
        "astId": 4119,
        "contract": "contracts/PodWithdrawManager.sol:PodWithdrawManager",
        "label": "__gap",
        "offset": 0,
        "slot": "101",
        "type": "t_array(t_uint256)50_storage"
      },
      {
        "astId": 420,
        "contract": "contracts/PodWithdrawManager.sol:PodWithdrawManager",
        "label": "_owner",
        "offset": 0,
        "slot": "151",
        "type": "t_address"
      },
      {
        "astId": 534,
        "contract": "contracts/PodWithdrawManager.sol:PodWithdrawManager",
        "label": "__gap",
        "offset": 0,
        "slot": "152",
        "type": "t_array(t_uint256)49_storage"
      },
      {
        "astId": 10297,
        "contract": "contracts/PodWithdrawManager.sol:PodWithdrawManager",
        "label": "_withdrawProposalIds",
        "offset": 0,
        "slot": "201",
        "type": "t_struct(Counter)7695_storage"
      },
      {
        "astId": 10302,
        "contract": "contracts/PodWithdrawManager.sol:PodWithdrawManager",
        "label": "podManagerContractAddress",
        "offset": 0,
        "slot": "202",
        "type": "t_address"
      },
      {
        "astId": 10307,
        "contract": "contracts/PodWithdrawManager.sol:PodWithdrawManager",
        "label": "_withdrawProposals",
        "offset": 0,
        "slot": "203",
        "type": "t_mapping(t_uint256,t_struct(WithdrawProposal)10934_storage)"
      },
      {
        "astId": 10313,
        "contract": "contracts/PodWithdrawManager.sol:PodWithdrawManager",
        "label": "_withdrawProposalsVoted",
        "offset": 0,
        "slot": "204",
        "type": "t_mapping(t_uint256,t_mapping(t_address,t_bool))"
      },
      {
        "astId": 10318,
        "contract": "contracts/PodWithdrawManager.sol:PodWithdrawManager",
        "label": "_podsOwners",
        "offset": 0,
        "slot": "205",
        "type": "t_mapping(t_address,t_array(t_address)dyn_storage)"
      }
    ],
    "types": {
      "t_address": {
        "encoding": "inplace",
        "label": "address",
        "numberOfBytes": "20"
      },
      "t_array(t_address)dyn_storage": {
        "base": "t_address",
        "encoding": "dynamic_array",
        "label": "address[]",
        "numberOfBytes": "32"
      },
      "t_array(t_uint256)49_storage": {
        "base": "t_uint256",
        "encoding": "inplace",
        "label": "uint256[49]",
        "numberOfBytes": "1568"
      },
      "t_array(t_uint256)50_storage": {
        "base": "t_uint256",
        "encoding": "inplace",
        "label": "uint256[50]",
        "numberOfBytes": "1600"
      },
      "t_bool": {
        "encoding": "inplace",
        "label": "bool",
        "numberOfBytes": "1"
      },
      "t_mapping(t_address,t_array(t_address)dyn_storage)": {
        "encoding": "mapping",
        "key": "t_address",
        "label": "mapping(address => address[])",
        "numberOfBytes": "32",
        "value": "t_array(t_address)dyn_storage"
      },
      "t_mapping(t_address,t_bool)": {
        "encoding": "mapping",
        "key": "t_address",
        "label": "mapping(address => bool)",
        "numberOfBytes": "32",
        "value": "t_bool"
      },
      "t_mapping(t_uint256,t_mapping(t_address,t_bool))": {
        "encoding": "mapping",
        "key": "t_uint256",
        "label": "mapping(uint256 => mapping(address => bool))",
        "numberOfBytes": "32",
        "value": "t_mapping(t_address,t_bool)"
      },
      "t_mapping(t_uint256,t_struct(WithdrawProposal)10934_storage)": {
        "encoding": "mapping",
        "key": "t_uint256",
        "label": "mapping(uint256 => struct WithdrawProposal)",
        "numberOfBytes": "32",
        "value": "t_struct(WithdrawProposal)10934_storage"
      },
      "t_struct(Counter)7695_storage": {
        "encoding": "inplace",
        "label": "struct Counters.Counter",
        "members": [
          {
            "astId": 7694,
            "contract": "contracts/PodWithdrawManager.sol:PodWithdrawManager",
            "label": "_value",
            "offset": 0,
            "slot": "0",
            "type": "t_uint256"
          }
        ],
        "numberOfBytes": "32"
      },
      "t_struct(WithdrawProposal)10934_storage": {
        "encoding": "inplace",
        "label": "struct WithdrawProposal",
        "members": [
          {
            "astId": 10917,
            "contract": "contracts/PodWithdrawManager.sol:PodWithdrawManager",
            "label": "positiveVotesCount",
            "offset": 0,
            "slot": "0",
            "type": "t_uint128"
          },
          {
            "astId": 10919,
            "contract": "contracts/PodWithdrawManager.sol:PodWithdrawManager",
            "label": "negativeVotesCount",
            "offset": 16,
            "slot": "0",
            "type": "t_uint128"
          },
          {
            "astId": 10921,
            "contract": "contracts/PodWithdrawManager.sol:PodWithdrawManager",
            "label": "podAddress",
            "offset": 0,
            "slot": "1",
            "type": "t_address"
          },
          {
            "astId": 10923,
            "contract": "contracts/PodWithdrawManager.sol:PodWithdrawManager",
            "label": "recipient",
            "offset": 0,
            "slot": "2",
            "type": "t_address"
          },
          {
            "astId": 10925,
            "contract": "contracts/PodWithdrawManager.sol:PodWithdrawManager",
            "label": "minApprovals",
            "offset": 20,
            "slot": "2",
            "type": "t_uint64"
          },
          {
            "astId": 10927,
            "contract": "contracts/PodWithdrawManager.sol:PodWithdrawManager",
            "label": "maxDenials",
            "offset": 0,
            "slot": "3",
            "type": "t_uint64"
          },
          {
            "astId": 10929,
            "contract": "contracts/PodWithdrawManager.sol:PodWithdrawManager",
            "label": "date",
            "offset": 8,
            "slot": "3",
            "type": "t_uint64"
          },
          {
            "astId": 10931,
            "contract": "contracts/PodWithdrawManager.sol:PodWithdrawManager",
            "label": "duration",
            "offset": 16,
            "slot": "3",
            "type": "t_uint64"
          },
          {
            "astId": 10933,
            "contract": "contracts/PodWithdrawManager.sol:PodWithdrawManager",
            "label": "amount",
            "offset": 0,
            "slot": "4",
            "type": "t_uint256"
          }
        ],
        "numberOfBytes": "160"
      },
      "t_uint128": {
        "encoding": "inplace",
        "label": "uint128",
        "numberOfBytes": "16"
      },
      "t_uint256": {
        "encoding": "inplace",
        "label": "uint256",
        "numberOfBytes": "32"
      },
      "t_uint64": {
        "encoding": "inplace",
        "label": "uint64",
        "numberOfBytes": "8"
      }
    }
  }
}