{
  "address": "0x9bE7C099f122CEC552D3615E88Eedf6Ad372830E",
  "abi": [
    {
      "inputs": [],
      "stateMutability": "nonpayable",
      "type": "constructor"
    },
    {
      "anonymous": false,
      "inputs": [
        {
          "indexed": false,
          "internalType": "address",
          "name": "previousAdmin",
          "type": "address"
        },
        {
          "indexed": false,
          "internalType": "address",
          "name": "newAdmin",
          "type": "address"
        }
      ],
      "name": "AdminChanged",
      "type": "event"
    },
    {
      "anonymous": false,
      "inputs": [
        {
          "indexed": false,
          "internalType": "address",
          "name": "asset",
          "type": "address"
        }
      ],
      "name": "AssetBlacklisted",
      "type": "event"
    },
    {
      "anonymous": false,
      "inputs": [
        {
          "indexed": false,
          "internalType": "address",
          "name": "asset",
          "type": "address"
        }
      ],
      "name": "AssetWhitelisted",
      "type": "event"
    },
    {
      "anonymous": false,
      "inputs": [
        {
          "indexed": true,
          "internalType": "address",
          "name": "beacon",
          "type": "address"
        }
      ],
      "name": "BeaconUpgraded",
      "type": "event"
    },
    {
      "anonymous": false,
      "inputs": [
        {
          "indexed": true,
          "internalType": "bytes4",
          "name": "functionSelector",
          "type": "bytes4"
        },
        {
          "indexed": true,
          "internalType": "address",
          "name": "newManager",
          "type": "address"
        },
        {
          "indexed": false,
          "internalType": "address",
          "name": "previousManager",
          "type": "address"
        }
      ],
      "name": "ManagerUpdated",
      "type": "event"
    },
    {
      "anonymous": false,
      "inputs": [
        {
          "indexed": true,
          "internalType": "address",
          "name": "previousOwner",
          "type": "address"
        },
        {
          "indexed": true,
          "internalType": "address",
          "name": "newOwner",
          "type": "address"
        }
      ],
      "name": "OwnershipTransferred",
      "type": "event"
    },
    {
      "anonymous": false,
      "inputs": [
        {
          "indexed": false,
          "internalType": "uint128",
          "name": "from",
          "type": "uint128"
        },
        {
          "indexed": false,
          "internalType": "uint128",
          "name": "to",
          "type": "uint128"
        }
      ],
      "name": "PodVotingPeriodUpdated",
      "type": "event"
    },
    {
      "anonymous": false,
      "inputs": [
        {
          "indexed": true,
          "internalType": "address",
          "name": "implementation",
          "type": "address"
        }
      ],
      "name": "Upgraded",
      "type": "event"
    },
    {
      "inputs": [
        {
          "internalType": "address",
          "name": "asset_",
          "type": "address"
        }
      ],
      "name": "blacklistAsset",
      "outputs": [],
      "stateMutability": "nonpayable",
      "type": "function"
    },
    {
      "inputs": [
        {
          "internalType": "bytes4",
          "name": "functionSelector_",
          "type": "bytes4"
        }
      ],
      "name": "getManager",
      "outputs": [
        {
          "internalType": "address",
          "name": "manager",
          "type": "address"
        }
      ],
      "stateMutability": "view",
      "type": "function"
    },
    {
      "inputs": [
        {
          "internalType": "uint128",
          "name": "podVotingPeriod_",
          "type": "uint128"
        }
      ],
      "name": "initialize",
      "outputs": [],
      "stateMutability": "nonpayable",
      "type": "function"
    },
    {
      "inputs": [],
      "name": "owner",
      "outputs": [
        {
          "internalType": "address",
          "name": "",
          "type": "address"
        }
      ],
      "stateMutability": "view",
      "type": "function"
    },
    {
      "inputs": [],
      "name": "podVotingPeriod",
      "outputs": [
        {
          "internalType": "uint128",
          "name": "",
          "type": "uint128"
        }
      ],
      "stateMutability": "view",
      "type": "function"
    },
    {
      "inputs": [],
      "name": "renounceOwnership",
      "outputs": [],
      "stateMutability": "nonpayable",
      "type": "function"
    },
    {
      "inputs": [
        {
          "internalType": "uint128",
          "name": "podVotingPeriod_",
          "type": "uint128"
        }
      ],
      "name": "setPodVotingPeriod",
      "outputs": [],
      "stateMutability": "nonpayable",
      "type": "function"
    },
    {
      "inputs": [
        {
          "internalType": "bytes4",
          "name": "functionSelector_",
          "type": "bytes4"
        },
        {
          "internalType": "address",
          "name": "manager_",
          "type": "address"
        }
      ],
      "name": "transferManagement",
      "outputs": [],
      "stateMutability": "nonpayable",
      "type": "function"
    },
    {
      "inputs": [
        {
          "internalType": "address",
          "name": "newOwner",
          "type": "address"
        }
      ],
      "name": "transferOwnership",
      "outputs": [],
      "stateMutability": "nonpayable",
      "type": "function"
    },
    {
      "inputs": [
        {
          "internalType": "address",
          "name": "newImplementation",
          "type": "address"
        }
      ],
      "name": "upgradeTo",
      "outputs": [],
      "stateMutability": "nonpayable",
      "type": "function"
    },
    {
      "inputs": [
        {
          "internalType": "address",
          "name": "newImplementation",
          "type": "address"
        },
        {
          "internalType": "bytes",
          "name": "data",
          "type": "bytes"
        }
      ],
      "name": "upgradeToAndCall",
      "outputs": [],
      "stateMutability": "payable",
      "type": "function"
    },
    {
      "inputs": [
        {
          "internalType": "address",
          "name": "asset_",
          "type": "address"
        }
      ],
      "name": "whitelistAsset",
      "outputs": [],
      "stateMutability": "nonpayable",
      "type": "function"
    },
    {
      "inputs": [
        {
          "internalType": "address",
          "name": "",
          "type": "address"
        }
      ],
      "name": "whitelistedAssets",
      "outputs": [
        {
          "internalType": "bool",
          "name": "",
          "type": "bool"
        }
      ],
      "stateMutability": "view",
      "type": "function"
    }
  ],
  "transactionHash": "0xc9f6de43c8978347465c22d9c627252826e7805e498744428f8077ee477afbd1",
  "args": [],
  "numDeployments": 1,
  "solcInputHash": "d75cb78d3090036566fedddd8891be90",
  "bytecode": "0x60a06040523060601b60805234801561001757600080fd5b50600054610100900460ff166100335760005460ff161561003b565b61003b6100dc565b6100a25760405162461bcd60e51b815260206004820152602e60248201527f496e697469616c697a61626c653a20636f6e747261637420697320616c72656160448201526d191e481a5b9a5d1a585b1a5e995960921b606482015260840160405180910390fd5b600054610100900460ff161580156100c4576000805461ffff19166101011790555b80156100d6576000805461ff00191690555b506100fd565b60006100f1306100f760201b610b081760201c565b15905090565b3b151590565b60805160601c61138c620001316000396000818161063401528181610674015281816106fd015261073d015261138c6000f3fe6080604052600436106100c25760003560e01c8063371510fc1161007f578063715018a611610059578063715018a6146102315780638da5cb5b14610246578063e61103e314610264578063f2fde38b1461028457600080fd5b8063371510fc146101be5780634f1ef286146101fe57806356db9ef11461021157600080fd5b806308ed1054146100c75780630cb9f7f21461010457806321cece98146101265780632dafbe3c1461015e57806330e68d2a1461017e5780633659cfe61461019e575b600080fd5b3480156100d357600080fd5b5060ca546100e7906001600160801b031681565b6040516001600160801b0390911681526020015b60405180910390f35b34801561011057600080fd5b5061012461011f366004611130565b6102a4565b005b34801561013257600080fd5b506101466101413660046110e2565b6103ad565b6040516001600160a01b0390911681526020016100fb565b34801561016a57600080fd5b50610124610179366004611005565b6103ef565b34801561018a57600080fd5b506101246101993660046110fd565b610550565b3480156101aa57600080fd5b506101246101b9366004611005565b610629565b3480156101ca57600080fd5b506101ee6101d9366004611005565b60cb6020526000908152604090205460ff1681565b60405190151581526020016100fb565b61012461020c366004611020565b6106f2565b34801561021d57600080fd5b5061012461022c366004611130565b6107ac565b34801561023d57600080fd5b506101246108e5565b34801561025257600080fd5b506097546001600160a01b0316610146565b34801561027057600080fd5b5061012461027f366004611005565b61091b565b34801561029057600080fd5b5061012461029f366004611005565b610a70565b60006102bb6000356001600160e01b0319166103ad565b9050336001600160a01b038216146102ee5760405162461bcd60e51b81526004016102e590611275565b60405180910390fd5b6000826001600160801b0316116103435760405162461bcd60e51b8152602060048201526019602482015278125b9d985b1a59081c1bd9081d9bdd1a5b99c81c195c9a5bd9603a1b60448201526064016102e5565b60ca54604080516001600160801b03928316815291841660208301527fcfac65583903bd8fcb1c90cc9c67ffdcdb8168faf71e691ddfc31b1bb0f9ac0b910160405180910390a15060ca80546001600160801b0319166001600160801b0392909216919091179055565b6001600160e01b03198116600090815260c960205260408120546001600160a01b0316806103e6576097546001600160a01b03166103e8565b805b9392505050565b60006104066000356001600160e01b0319166103ad565b9050336001600160a01b038216146104305760405162461bcd60e51b81526004016102e590611275565b6001600160a01b0382166104865760405162461bcd60e51b815260206004820152601f60248201527f417373657420746f6b656e20616464726573732063616e6e6f7420626520300060448201526064016102e5565b6001600160a01b038216600090815260cb602052604090205460ff16156104ef5760405162461bcd60e51b815260206004820152601960248201527f417373657420616c72656164792077686974656c69737465640000000000000060448201526064016102e5565b6040516001600160a01b03831681527f4ee7cf18e72b826aae16fb8d61297801c2e75ddd5d0ab6da3ee524230cf258d09060200160405180910390a1506001600160a01b0316600090815260cb60205260409020805460ff19166001179055565b60006105676000356001600160e01b0319166103ad565b9050336001600160a01b038216146105915760405162461bcd60e51b81526004016102e590611275565b6001600160e01b03198316600081815260c960209081526040918290205491516001600160a01b03928316815291851692917fa7db1e7b471bbe9cfd080eb8f9e79ec3f1f903dc8bc4ca298bd3e835a48426ea910160405180910390a3506001600160e01b031991909116600090815260c96020526040902080546001600160a01b0319166001600160a01b03909216919091179055565b306001600160a01b037f00000000000000000000000000000000000000000000000000000000000000001614156106725760405162461bcd60e51b81526004016102e5906111a8565b7f00000000000000000000000000000000000000000000000000000000000000006001600160a01b03166106a4610b0e565b6001600160a01b0316146106ca5760405162461bcd60e51b81526004016102e5906111f4565b6106d381610b3c565b604080516000808252602082019092526106ef91839190610b66565b50565b306001600160a01b037f000000000000000000000000000000000000000000000000000000000000000016141561073b5760405162461bcd60e51b81526004016102e5906111a8565b7f00000000000000000000000000000000000000000000000000000000000000006001600160a01b031661076d610b0e565b6001600160a01b0316146107935760405162461bcd60e51b81526004016102e5906111f4565b61079c82610b3c565b6107a882826001610b66565b5050565b600054610100900460ff166107c75760005460ff16156107cb565b303b155b61082e5760405162461bcd60e51b815260206004820152602e60248201527f496e697469616c697a61626c653a20636f6e747261637420697320616c72656160448201526d191e481a5b9a5d1a585b1a5e995960921b60648201526084016102e5565b600054610100900460ff16158015610850576000805461ffff19166101011790555b6000826001600160801b0316116108a55760405162461bcd60e51b8152602060048201526019602482015278125b9d985b1a59081c1bd9081d9bdd1a5b99c81c195c9a5bd9603a1b60448201526064016102e5565b60ca80546001600160801b0319166001600160801b0384161790556108c8610cb1565b6108d0610ce8565b80156107a8576000805461ff00191690555050565b6097546001600160a01b0316331461090f5760405162461bcd60e51b81526004016102e590611240565b6109196000610d1f565b565b60006109326000356001600160e01b0319166103ad565b9050336001600160a01b0382161461095c5760405162461bcd60e51b81526004016102e590611275565b6001600160a01b0382166109b25760405162461bcd60e51b815260206004820152601f60248201527f417373657420746f6b656e20616464726573732063616e6e6f7420626520300060448201526064016102e5565b6001600160a01b038216600090815260cb602052604090205460ff16610a125760405162461bcd60e51b8152602060048201526015602482015274105cdcd95d081b9bdd081dda1a5d195b1a5cdd1959605a1b60448201526064016102e5565b6040516001600160a01b03831681527f10c0fc3aa3fe3ed617ce4c1f51f37e0203828eeab656b100bfb44b569779d6389060200160405180910390a1506001600160a01b0316600090815260cb60205260409020805460ff19169055565b6097546001600160a01b03163314610a9a5760405162461bcd60e51b81526004016102e590611240565b6001600160a01b038116610aff5760405162461bcd60e51b815260206004820152602660248201527f4f776e61626c653a206e6577206f776e657220697320746865207a65726f206160448201526564647265737360d01b60648201526084016102e5565b6106ef81610d1f565b3b151590565b7f360894a13ba1a3210667c828492db98dca3e2076cc3735a920a3ca505d382bbc546001600160a01b031690565b6097546001600160a01b031633146106ef5760405162461bcd60e51b81526004016102e590611240565b6000610b70610b0e565b9050610b7b84610d71565b600083511180610b885750815b15610b9957610b978484610e16565b505b7f4910fdfa16fed3260ed0e7147f7cc6da11a60208b5b9406d12a635614ffd9143805460ff16610caa57805460ff191660011781556040516001600160a01b0383166024820152610c1890869060440160408051601f198184030181529190526020810180516001600160e01b0316631b2ce7f360e11b179052610e16565b50805460ff19168155610c29610b0e565b6001600160a01b0316826001600160a01b031614610ca15760405162461bcd60e51b815260206004820152602f60248201527f45524331393637557067726164653a207570677261646520627265616b73206660448201526e75727468657220757067726164657360881b60648201526084016102e5565b610caa85610f01565b5050505050565b600054610100900460ff16610cd85760405162461bcd60e51b81526004016102e59061129e565b610ce0610f41565b610919610f68565b600054610100900460ff16610d0f5760405162461bcd60e51b81526004016102e59061129e565b610d17610f41565b610919610f41565b609780546001600160a01b038381166001600160a01b0319831681179093556040519116919082907f8be0079c531659141344cd1fd0a4f28419497f9722a3daafe3b4186f6b6457e090600090a35050565b803b610dd55760405162461bcd60e51b815260206004820152602d60248201527f455243313936373a206e657720696d706c656d656e746174696f6e206973206e60448201526c1bdd08184818dbdb9d1c9858dd609a1b60648201526084016102e5565b7f360894a13ba1a3210667c828492db98dca3e2076cc3735a920a3ca505d382bbc80546001600160a01b0319166001600160a01b0392909216919091179055565b6060823b610e755760405162461bcd60e51b815260206004820152602660248201527f416464726573733a2064656c65676174652063616c6c20746f206e6f6e2d636f6044820152651b9d1c9858dd60d21b60648201526084016102e5565b600080846001600160a01b031684604051610e909190611159565b600060405180830381855af49150503d8060008114610ecb576040519150601f19603f3d011682016040523d82523d6000602084013e610ed0565b606091505b5091509150610ef8828260405180606001604052806027815260200161133060279139610f98565b95945050505050565b610f0a81610d71565b6040516001600160a01b038216907fbc7cd75a20ee27fd9adebab32041f755214dbc6bffa90cc0225b39da2e5c2d3b90600090a250565b600054610100900460ff166109195760405162461bcd60e51b81526004016102e59061129e565b600054610100900460ff16610f8f5760405162461bcd60e51b81526004016102e59061129e565b61091933610d1f565b60608315610fa75750816103e8565b825115610fb75782518084602001fd5b8160405162461bcd60e51b81526004016102e59190611175565b80356001600160a01b0381168114610fe857600080fd5b919050565b80356001600160e01b031981168114610fe857600080fd5b60006020828403121561101757600080fd5b6103e882610fd1565b6000806040838503121561103357600080fd5b61103c83610fd1565b9150602083013567ffffffffffffffff8082111561105957600080fd5b818501915085601f83011261106d57600080fd5b81358181111561107f5761107f611319565b604051601f8201601f19908116603f011681019083821181831017156110a7576110a7611319565b816040528281528860208487010111156110c057600080fd5b8260208601602083013760006020848301015280955050505050509250929050565b6000602082840312156110f457600080fd5b6103e882610fed565b6000806040838503121561111057600080fd5b61111983610fed565b915061112760208401610fd1565b90509250929050565b60006020828403121561114257600080fd5b81356001600160801b03811681146103e857600080fd5b6000825161116b8184602087016112e9565b9190910192915050565b60208152600082518060208401526111948160408501602087016112e9565b601f01601f19169190910160400192915050565b6020808252602c908201527f46756e6374696f6e206d7573742062652063616c6c6564207468726f7567682060408201526b19195b1959d85d1958d85b1b60a21b606082015260800190565b6020808252602c908201527f46756e6374696f6e206d7573742062652063616c6c6564207468726f7567682060408201526b6163746976652070726f787960a01b606082015260800190565b6020808252818101527f4f776e61626c653a2063616c6c6572206973206e6f7420746865206f776e6572604082015260600190565b6020808252600f908201526e24a72b20a624a22fa6a0a720a3a2a960891b604082015260600190565b6020808252602b908201527f496e697469616c697a61626c653a20636f6e7472616374206973206e6f74206960408201526a6e697469616c697a696e6760a81b606082015260800190565b60005b838110156113045781810151838201526020016112ec565b83811115611313576000848401525b50505050565b634e487b7160e01b600052604160045260246000fdfe416464726573733a206c6f772d6c6576656c2064656c65676174652063616c6c206661696c6564a264697066735822122026320c1c4ae32f9df90bee9726bf59fa4eda8fcf74c8ceb584be4453eaf7d6ce64736f6c63430008060033",
  "devdoc": {
    "kind": "dev",
    "methods": {
      "constructor": {
        "details": "the initializer modifier is to avoid someone initializing      the implementation contract after deployment"
      },
      "getManager(bytes4)": {
        "details": "should be overrided to return a default manager from address 0",
        "params": {
          "functionSelector_": "the function selector"
        },
        "returns": {
          "manager": "the current manager"
        }
      },
      "initialize(uint128)": {
        "details": "initializes the contract,      sets the default (initial) values of the parameters      and also transfers the ownership to the governance"
      },
      "owner()": {
        "details": "Returns the address of the current owner."
      },
      "renounceOwnership()": {
        "details": "Leaves the contract without owner. It will not be possible to call `onlyOwner` functions anymore. Can only be called by the current owner. NOTE: Renouncing ownership will leave the contract without an owner, thereby removing any functionality that is only available to the owner."
      },
      "transferManagement(bytes4,address)": {
        "params": {
          "functionSelector_": "the function selector",
          "manager_": "the new manager"
        }
      },
      "transferOwnership(address)": {
        "details": "Transfers ownership of the contract to a new account (`newOwner`). Can only be called by the current owner."
      },
      "upgradeTo(address)": {
        "details": "Upgrade the implementation of the proxy to `newImplementation`. Calls {_authorizeUpgrade}. Emits an {Upgraded} event."
      },
      "upgradeToAndCall(address,bytes)": {
        "details": "Upgrade the implementation of the proxy to `newImplementation`, and subsequently execute the function call encoded in `data`. Calls {_authorizeUpgrade}. Emits an {Upgraded} event."
      }
    },
    "title": "parameters controlled by governance",
    "version": 1
  },
  "userdoc": {
    "kind": "user",
    "methods": {
      "getManager(bytes4)": {
        "notice": "getter for managers"
      },
      "transferManagement(bytes4,address)": {
        "notice": "allows to assign managers to functions         only the current manager can assign"
      }
    },
    "notice": "the owner of this contract is the timelock controller of the governance feature",
    "version": 1
  },
  "storageLayout": {
    "storage": [
      {
        "astId": 950,
        "contract": "contracts/governance/ProtocolParameters.sol:ProtocolParameters",
        "label": "_initialized",
        "offset": 0,
        "slot": "0",
        "type": "t_bool"
      },
      {
        "astId": 953,
        "contract": "contracts/governance/ProtocolParameters.sol:ProtocolParameters",
        "label": "_initializing",
        "offset": 1,
        "slot": "0",
        "type": "t_bool"
      },
      {
        "astId": 932,
        "contract": "contracts/governance/ProtocolParameters.sol:ProtocolParameters",
        "label": "__gap",
        "offset": 0,
        "slot": "1",
        "type": "t_array(t_uint256)50_storage"
      },
      {
        "astId": 1127,
        "contract": "contracts/governance/ProtocolParameters.sol:ProtocolParameters",
        "label": "__gap",
        "offset": 0,
        "slot": "51",
        "type": "t_array(t_uint256)50_storage"
      },
      {
        "astId": 4119,
        "contract": "contracts/governance/ProtocolParameters.sol:ProtocolParameters",
        "label": "__gap",
        "offset": 0,
        "slot": "101",
        "type": "t_array(t_uint256)50_storage"
      },
      {
        "astId": 420,
        "contract": "contracts/governance/ProtocolParameters.sol:ProtocolParameters",
        "label": "_owner",
        "offset": 0,
        "slot": "151",
        "type": "t_address"
      },
      {
        "astId": 534,
        "contract": "contracts/governance/ProtocolParameters.sol:ProtocolParameters",
        "label": "__gap",
        "offset": 0,
        "slot": "152",
        "type": "t_array(t_uint256)49_storage"
      },
      {
        "astId": 11431,
        "contract": "contracts/governance/ProtocolParameters.sol:ProtocolParameters",
        "label": "_functionManager",
        "offset": 0,
        "slot": "201",
        "type": "t_mapping(t_bytes4,t_address)"
      },
      {
        "astId": 11508,
        "contract": "contracts/governance/ProtocolParameters.sol:ProtocolParameters",
        "label": "podVotingPeriod",
        "offset": 0,
        "slot": "202",
        "type": "t_uint128"
      },
      {
        "astId": 11512,
        "contract": "contracts/governance/ProtocolParameters.sol:ProtocolParameters",
        "label": "whitelistedAssets",
        "offset": 0,
        "slot": "203",
        "type": "t_mapping(t_address,t_bool)"
      }
    ],
    "types": {
      "t_address": {
        "encoding": "inplace",
        "label": "address",
        "numberOfBytes": "20"
      },
      "t_array(t_uint256)49_storage": {
        "base": "t_uint256",
        "encoding": "inplace",
        "label": "uint256[49]",
        "numberOfBytes": "1568"
      },
      "t_array(t_uint256)50_storage": {
        "base": "t_uint256",
        "encoding": "inplace",
        "label": "uint256[50]",
        "numberOfBytes": "1600"
      },
      "t_bool": {
        "encoding": "inplace",
        "label": "bool",
        "numberOfBytes": "1"
      },
      "t_bytes4": {
        "encoding": "inplace",
        "label": "bytes4",
        "numberOfBytes": "4"
      },
      "t_mapping(t_address,t_bool)": {
        "encoding": "mapping",
        "key": "t_address",
        "label": "mapping(address => bool)",
        "numberOfBytes": "32",
        "value": "t_bool"
      },
      "t_mapping(t_bytes4,t_address)": {
        "encoding": "mapping",
        "key": "t_bytes4",
        "label": "mapping(bytes4 => address)",
        "numberOfBytes": "32",
        "value": "t_address"
      },
      "t_uint128": {
        "encoding": "inplace",
        "label": "uint128",
        "numberOfBytes": "16"
      },
      "t_uint256": {
        "encoding": "inplace",
        "label": "uint256",
        "numberOfBytes": "32"
      }
    }
  }
}