{
  "address": "0xbb66F5585691C53dFb23D5Fb38dF77ad0f95AAD2",
  "abi": [
    {
      "inputs": [
        {
          "components": [
            {
              "internalType": "address",
              "name": "linkToken",
              "type": "address"
            },
            {
              "internalType": "address",
              "name": "chainlinkNode",
              "type": "address"
            },
            {
              "internalType": "string",
              "name": "jobId",
              "type": "string"
            },
            {
              "internalType": "uint256",
              "name": "nodeFee",
              "type": "uint256"
            }
          ],
          "internalType": "struct APIOracleInfo",
          "name": "oracleInfo_",
          "type": "tuple"
        }
      ],
      "stateMutability": "nonpayable",
      "type": "constructor"
    },
    {
      "anonymous": false,
      "inputs": [
        {
          "indexed": true,
          "internalType": "bytes32",
          "name": "id",
          "type": "bytes32"
        }
      ],
      "name": "ChainlinkCancelled",
      "type": "event"
    },
    {
      "anonymous": false,
      "inputs": [
        {
          "indexed": true,
          "internalType": "bytes32",
          "name": "id",
          "type": "bytes32"
        }
      ],
      "name": "ChainlinkFulfilled",
      "type": "event"
    },
    {
      "anonymous": false,
      "inputs": [
        {
          "indexed": true,
          "internalType": "bytes32",
          "name": "id",
          "type": "bytes32"
        }
      ],
      "name": "ChainlinkRequested",
      "type": "event"
    },
    {
      "anonymous": false,
      "inputs": [
        {
          "indexed": true,
          "internalType": "address",
          "name": "previousOwner",
          "type": "address"
        },
        {
          "indexed": true,
          "internalType": "address",
          "name": "newOwner",
          "type": "address"
        }
      ],
      "name": "OwnershipTransferred",
      "type": "event"
    },
    {
      "inputs": [],
      "name": "apiURL",
      "outputs": [
        {
          "internalType": "string",
          "name": "",
          "type": "string"
        }
      ],
      "stateMutability": "view",
      "type": "function"
    },
    {
      "inputs": [],
      "name": "chainlinkNode",
      "outputs": [
        {
          "internalType": "address",
          "name": "",
          "type": "address"
        }
      ],
      "stateMutability": "view",
      "type": "function"
    },
    {
      "inputs": [],
      "name": "fundsManager",
      "outputs": [
        {
          "internalType": "contract FundsManager",
          "name": "",
          "type": "address"
        }
      ],
      "stateMutability": "view",
      "type": "function"
    },
    {
      "inputs": [
        {
          "internalType": "address",
          "name": "fundsManager_",
          "type": "address"
        }
      ],
      "name": "initialize",
      "outputs": [],
      "stateMutability": "nonpayable",
      "type": "function"
    },
    {
      "inputs": [],
      "name": "linkToken",
      "outputs": [
        {
          "internalType": "address",
          "name": "",
          "type": "address"
        }
      ],
      "stateMutability": "view",
      "type": "function"
    },
    {
      "inputs": [],
      "name": "nodeFee",
      "outputs": [
        {
          "internalType": "uint256",
          "name": "",
          "type": "uint256"
        }
      ],
      "stateMutability": "view",
      "type": "function"
    },
    {
      "inputs": [],
      "name": "owner",
      "outputs": [
        {
          "internalType": "address",
          "name": "",
          "type": "address"
        }
      ],
      "stateMutability": "view",
      "type": "function"
    },
    {
      "inputs": [
        {
          "internalType": "bytes32",
          "name": "requestId_",
          "type": "bytes32"
        },
        {
          "internalType": "uint256",
          "name": "revenue_",
          "type": "uint256"
        }
      ],
      "name": "processResponse",
      "outputs": [],
      "stateMutability": "nonpayable",
      "type": "function"
    },
    {
      "inputs": [],
      "name": "renounceOwnership",
      "outputs": [],
      "stateMutability": "nonpayable",
      "type": "function"
    },
    {
      "inputs": [],
      "name": "token",
      "outputs": [
        {
          "internalType": "string",
          "name": "",
          "type": "string"
        }
      ],
      "stateMutability": "view",
      "type": "function"
    },
    {
      "inputs": [
        {
          "internalType": "address",
          "name": "newOwner",
          "type": "address"
        }
      ],
      "name": "transferOwnership",
      "outputs": [],
      "stateMutability": "nonpayable",
      "type": "function"
    },
    {
      "inputs": [],
      "name": "uint256JobId",
      "outputs": [
        {
          "internalType": "bytes32",
          "name": "",
          "type": "bytes32"
        }
      ],
      "stateMutability": "view",
      "type": "function"
    },
    {
      "inputs": [
        {
          "internalType": "address",
          "name": "song_",
          "type": "address"
        }
      ],
      "name": "updateRevenue",
      "outputs": [
        {
          "internalType": "bytes32",
          "name": "requestId",
          "type": "bytes32"
        }
      ],
      "stateMutability": "nonpayable",
      "type": "function"
    },
    {
      "inputs": [
        {
          "internalType": "address",
          "name": "caller_",
          "type": "address"
        }
      ],
      "name": "whitelistContract",
      "outputs": [],
      "stateMutability": "nonpayable",
      "type": "function"
    }
  ],
  "transactionHash": "0xb39ce7a864764f959fa323b0f66a6f79d99ea73730a166e4f3d61d8eb1df927e",
  "args": [
    {
      "chainlinkNode": "0x0dc63a45c513bef5b84555d3fe56c227caa8e13e",
      "linkToken": "0x326C977E6efc84E512bB9C30f76E30c160eD06FB",
      "jobId": "dcf1800fb9d443cdb512070046852c2d",
      "nodeFee": "100000000000000000"
    }
  ],
  "solcInputHash": "fd750c0783e29ee55e57a970f1bbddce",
  "bytecode": "0x608060405260016004553480156200001657600080fd5b5060405162002d7038038062002d7083398181016040528101906200003c9190620004a3565b6200005c620000506200017d60201b60201c565b6200018560201b60201c565b8060000151600d60006101000a81548173ffffffffffffffffffffffffffffffffffffffff021916908373ffffffffffffffffffffffffffffffffffffffff1602179055508060200151600a60006101000a81548173ffffffffffffffffffffffffffffffffffffffff021916908373ffffffffffffffffffffffffffffffffffffffff1602179055506200010081604001516200024b60201b62000be81760201c565b600b819055508060600151600c819055506040518060600160405280602f815260200162002d41602f91396009908051906020019062000142929190620002bb565b5062000176600d60009054906101000a900473ffffffffffffffffffffffffffffffffffffffff166200027760201b60201c565b50620006ca565b600033905090565b6000600660009054906101000a900473ffffffffffffffffffffffffffffffffffffffff16905081600660006101000a81548173ffffffffffffffffffffffffffffffffffffffff021916908373ffffffffffffffffffffffffffffffffffffffff1602179055508173ffffffffffffffffffffffffffffffffffffffff168173ffffffffffffffffffffffffffffffffffffffff167f8be0079c531659141344cd1fd0a4f28419497f9722a3daafe3b4186f6b6457e060405160405180910390a35050565b60008082905060008151141562000269576000801b91505062000272565b60208301519150505b919050565b80600260006101000a81548173ffffffffffffffffffffffffffffffffffffffff021916908373ffffffffffffffffffffffffffffffffffffffff16021790555050565b828054620002c990620005bb565b90600052602060002090601f016020900481019282620002ed576000855562000339565b82601f106200030857805160ff191683800117855562000339565b8280016001018555821562000339579182015b82811115620003385782518255916020019190600101906200031b565b5b5090506200034891906200034c565b5090565b5b80821115620003675760008160009055506001016200034d565b5090565b6000620003826200037c8462000511565b620004e8565b9050828152602081018484840111156200039b57600080fd5b620003a884828562000585565b509392505050565b600081519050620003c18162000696565b92915050565b600082601f830112620003d957600080fd5b8151620003eb8482602086016200036b565b91505092915050565b6000608082840312156200040757600080fd5b620004136080620004e8565b905060006200042584828501620003b0565b60008301525060206200043b84828501620003b0565b602083015250604082015167ffffffffffffffff8111156200045c57600080fd5b6200046a84828501620003c7565b604083015250606062000480848285016200048c565b60608301525092915050565b6000815190506200049d81620006b0565b92915050565b600060208284031215620004b657600080fd5b600082015167ffffffffffffffff811115620004d157600080fd5b620004df84828501620003f4565b91505092915050565b6000620004f462000507565b9050620005028282620005f1565b919050565b6000604051905090565b600067ffffffffffffffff8211156200052f576200052e62000656565b5b6200053a8262000685565b9050602081019050919050565b600062000554826200055b565b9050919050565b600073ffffffffffffffffffffffffffffffffffffffff82169050919050565b6000819050919050565b60005b83811015620005a557808201518184015260208101905062000588565b83811115620005b5576000848401525b50505050565b60006002820490506001821680620005d457607f821691505b60208210811415620005eb57620005ea62000627565b5b50919050565b620005fc8262000685565b810181811067ffffffffffffffff821117156200061e576200061d62000656565b5b80604052505050565b7f4e487b7100000000000000000000000000000000000000000000000000000000600052602260045260246000fd5b7f4e487b7100000000000000000000000000000000000000000000000000000000600052604160045260246000fd5b6000601f19601f8301169050919050565b620006a18162000547565b8114620006ad57600080fd5b50565b620006bb816200057b565b8114620006c757600080fd5b50565b61266780620006da6000396000f3fe608060405234801561001057600080fd5b50600436106100ea5760003560e01c8063bce66e0a1161008c578063f07029b911610066578063f07029b914610213578063f2fde38b14610231578063f41625301461024d578063fc0c546a1461026b576100ea565b8063bce66e0a146101a9578063c4d66de8146101c7578063ce003d03146101e3576100ea565b80633a0e6d43116100c85780633a0e6d431461014757806357970e9314610163578063715018a6146101815780638da5cb5b1461018b576100ea565b80630d116652146100ef578063197bd4441461010d5780633296f9971461012b575b600080fd5b6100f7610289565b6040516101049190611cb9565b60405180910390f35b6101156102af565b6040516101229190611c9e565b60405180910390f35b61014560048036038101906101409190611870565b6102b5565b005b610161600480360381019061015c919061181e565b61048a565b005b61016b610561565b6040516101789190611b97565b60405180910390f35b610189610587565b005b61019361060f565b6040516101a09190611b97565b60405180910390f35b6101b1610639565b6040516101be9190611cd4565b60405180910390f35b6101e160048036038101906101dc919061181e565b6106c7565b005b6101fd60048036038101906101f8919061181e565b6107e2565b60405161020a9190611c9e565b60405180910390f35b61021b610a36565b6040516102289190611b97565b60405180910390f35b61024b6004803603810190610246919061181e565b610a5c565b005b610255610b54565b6040516102629190611db6565b60405180910390f35b610273610b5a565b6040516102809190611cd4565b60405180910390f35b600760009054906101000a900473ffffffffffffffffffffffffffffffffffffffff1681565b600b5481565b816005600082815260200190815260200160002060009054906101000a900473ffffffffffffffffffffffffffffffffffffffff1673ffffffffffffffffffffffffffffffffffffffff163373ffffffffffffffffffffffffffffffffffffffff1614610357576040517f08c379a000000000000000000000000000000000000000000000000000000000815260040161034e90611d96565b60405180910390fd5b6005600082815260200190815260200160002060006101000a81549073ffffffffffffffffffffffffffffffffffffffff0219169055807f7cc135e0cebb02c3480ae5d74d377283180a2601f8f644edf7987b009316c63a60405160405180910390a26000600e600085815260200190815260200160002060000160009054906101000a900473ffffffffffffffffffffffffffffffffffffffff169050600760009054906101000a900473ffffffffffffffffffffffffffffffffffffffff1673ffffffffffffffffffffffffffffffffffffffff16636d0a1cb382856040518363ffffffff1660e01b8152600401610452929190611bb2565b600060405180830381600087803b15801561046c57600080fd5b505af1158015610480573d6000803e3d6000fd5b5050505050505050565b610492610c12565b73ffffffffffffffffffffffffffffffffffffffff166104b061060f565b73ffffffffffffffffffffffffffffffffffffffff1614610506576040517f08c379a00000000000000000000000000000000000000000000000000000000081526004016104fd90611d76565b60405180910390fd5b6001600f60008373ffffffffffffffffffffffffffffffffffffffff1673ffffffffffffffffffffffffffffffffffffffff16815260200190815260200160002060006101000a81548160ff02191690831515021790555050565b600d60009054906101000a900473ffffffffffffffffffffffffffffffffffffffff1681565b61058f610c12565b73ffffffffffffffffffffffffffffffffffffffff166105ad61060f565b73ffffffffffffffffffffffffffffffffffffffff1614610603576040517f08c379a00000000000000000000000000000000000000000000000000000000081526004016105fa90611d76565b60405180910390fd5b61060d6000610c1a565b565b6000600660009054906101000a900473ffffffffffffffffffffffffffffffffffffffff16905090565b600980546106469061228c565b80601f01602080910402602001604051908101604052809291908181526020018280546106729061228c565b80156106bf5780601f10610694576101008083540402835291602001916106bf565b820191906000526020600020905b8154815290600101906020018083116106a257829003601f168201915b505050505081565b600060019054906101000a900460ff16806106ed575060008054906101000a900460ff16155b61072c576040517f08c379a000000000000000000000000000000000000000000000000000000000815260040161072390611d56565b60405180910390fd5b60008060019054906101000a900460ff16159050801561077c576001600060016101000a81548160ff02191690831515021790555060016000806101000a81548160ff0219169083151502179055505b81600760006101000a81548173ffffffffffffffffffffffffffffffffffffffff021916908373ffffffffffffffffffffffffffffffffffffffff16021790555080156107de5760008060016101000a81548160ff0219169083151502179055505b5050565b6000600f60003373ffffffffffffffffffffffffffffffffffffffff1673ffffffffffffffffffffffffffffffffffffffff16815260200190815260200160002060009054906101000a900460ff16610870576040517f08c379a000000000000000000000000000000000000000000000000000000000815260040161086790611d36565b60405180910390fd5b6000610886600b5430633296f99760e01b610ce0565b9050610908816040518060400160405280600381526020017f676574000000000000000000000000000000000000000000000000000000000081525060096108e38773ffffffffffffffffffffffffffffffffffffffff16610d11565b6040516020016108f4929190611b68565b604051602081830303815290604052610f46565b61097d816040518060400160405280600481526020017f70617468000000000000000000000000000000000000000000000000000000008152506040518060400160405280600581526020017f7072696365000000000000000000000000000000000000000000000000000000815250610f46565b6109ac600a60009054906101000a900473ffffffffffffffffffffffffffffffffffffffff1682600c54610f79565b915060405180602001604052803373ffffffffffffffffffffffffffffffffffffffff16815250600e600084815260200190815260200160002060008201518160000160006101000a81548173ffffffffffffffffffffffffffffffffffffffff021916908373ffffffffffffffffffffffffffffffffffffffff16021790555090505050919050565b600a60009054906101000a900473ffffffffffffffffffffffffffffffffffffffff1681565b610a64610c12565b73ffffffffffffffffffffffffffffffffffffffff16610a8261060f565b73ffffffffffffffffffffffffffffffffffffffff1614610ad8576040517f08c379a0000000000000000000000000000000000000000000000000000000008152600401610acf90611d76565b60405180910390fd5b600073ffffffffffffffffffffffffffffffffffffffff168173ffffffffffffffffffffffffffffffffffffffff161415610b48576040517f08c379a0000000000000000000000000000000000000000000000000000000008152600401610b3f90611cf6565b60405180910390fd5b610b5181610c1a565b50565b600c5481565b60088054610b679061228c565b80601f0160208091040260200160405190810160405280929190818152602001828054610b939061228c565b8015610be05780601f10610bb557610100808354040283529160200191610be0565b820191906000526020600020905b815481529060010190602001808311610bc357829003601f168201915b505050505081565b600080829050600081511415610c04576000801b915050610c0d565b60208301519150505b919050565b600033905090565b6000600660009054906101000a900473ffffffffffffffffffffffffffffffffffffffff16905081600660006101000a81548173ffffffffffffffffffffffffffffffffffffffff021916908373ffffffffffffffffffffffffffffffffffffffff1602179055508173ffffffffffffffffffffffffffffffffffffffff168173ffffffffffffffffffffffffffffffffffffffff167f8be0079c531659141344cd1fd0a4f28419497f9722a3daafe3b4186f6b6457e060405160405180910390a35050565b610ce8611743565b610cf0611743565b610d0785858584610f99909392919063ffffffff16565b9150509392505050565b60606000602867ffffffffffffffff811115610d56577f4e487b7100000000000000000000000000000000000000000000000000000000600052604160045260246000fd5b6040519080825280601f01601f191660200182016040528015610d885781602001600182028036833780820191505090505b50905060005b6014811015610f3c576000816013610da6919061211e565b6008610db29190612089565b6002610dbe9190611f6b565b8573ffffffffffffffffffffffffffffffffffffffff16610ddf9190611eb6565b60f81b9050600060108260f81c610df69190611ee7565b60f81b905060008160f81c6010610e0d91906120e3565b8360f81c610e1b9190612152565b60f81b9050610e2982611049565b85856002610e379190612089565b81518110610e6e577f4e487b7100000000000000000000000000000000000000000000000000000000600052603260045260246000fd5b60200101907effffffffffffffffffffffffffffffffffffffffffffffffffffffffffffff1916908160001a905350610ea681611049565b856001866002610eb69190612089565b610ec09190611e29565b81518110610ef7577f4e487b7100000000000000000000000000000000000000000000000000000000600052603260045260246000fd5b60200101907effffffffffffffffffffffffffffffffffffffffffffffffffffffffffffff1916908160001a9053505050508080610f34906122be565b915050610d8e565b5080915050919050565b610f5d82846080015161108f90919063ffffffff16565b610f7481846080015161108f90919063ffffffff16565b505050565b6000610f908484846001634042994660e01b6110b4565b90509392505050565b610fa1611743565b610fb1856080015161010061131c565b508385600001818152505082856020019073ffffffffffffffffffffffffffffffffffffffff16908173ffffffffffffffffffffffffffffffffffffffff16815250508185604001907bffffffffffffffffffffffffffffffffffffffffffffffffffffffff191690817bffffffffffffffffffffffffffffffffffffffffffffffffffffffff191681525050849050949350505050565b6000600a8260f81c60ff1610156110745760308260f81c61106a9190611e7f565b60f81b905061108a565b60578260f81c6110849190611e7f565b60f81b90505b919050565b61109c8260038351611386565b6110af81836114cb90919063ffffffff16565b505050565b6000306004546040516020016110cb929190611b3c565b604051602081830303815290604052805190602001209050600454856060018181525050856005600083815260200190815260200160002060006101000a81548173ffffffffffffffffffffffffffffffffffffffff021916908373ffffffffffffffffffffffffffffffffffffffff160217905550807fb5e6e01e79f91267dc17b4e6314d5d4d03593d2ceee0fbb452b750bd70ea5af960405160405180910390a2600082600080886000015189602001518a604001518b606001518a8d60800151600001516040516024016111a9989796959493929190611bdb565b604051602081830303815290604052907bffffffffffffffffffffffffffffffffffffffffffffffffffffffff19166020820180517bffffffffffffffffffffffffffffffffffffffffffffffffffffffff83818316178352505050509050600260009054906101000a900473ffffffffffffffffffffffffffffffffffffffff1673ffffffffffffffffffffffffffffffffffffffff16634000aea08887846040518463ffffffff1660e01b815260040161126793929190611c60565b602060405180830381600087803b15801561128157600080fd5b505af1158015611295573d6000803e3d6000fd5b505050506040513d601f19601f820116820180604052508101906112b99190611847565b6112f8576040517f08c379a00000000000000000000000000000000000000000000000000000000081526004016112ef90611d16565b60405180910390fd5b60016004600082825461130b9190611e29565b925050819055505095945050505050565b6113246117b0565b60006020836113339190612335565b1461135f576020826113459190612335565b6020611351919061211e565b8261135c9190611e29565b91505b81836020018181525050604051808452600081528281016020016040525082905092915050565b601781116113b3576113ad8160058460ff16901b60ff1617846114ed90919063ffffffff16565b506114c6565b60ff81116113f5576113d8601860058460ff16901b17846114ed90919063ffffffff16565b506113ef8160018561150d9092919063ffffffff16565b506114c5565b61ffff81116114385761141b601960058460ff16901b17846114ed90919063ffffffff16565b506114328160028561150d9092919063ffffffff16565b506114c4565b63ffffffff811161147d57611460601a60058460ff16901b17846114ed90919063ffffffff16565b506114778160048561150d9092919063ffffffff16565b506114c3565b67ffffffffffffffff81116114c2576114a9601b60058460ff16901b17846114ed90919063ffffffff16565b506114c08160088561150d9092919063ffffffff16565b505b5b5b5b5b505050565b6114d36117b0565b6114e58384600001515184855161152f565b905092915050565b6114f56117b0565b611505838460000151518461161e565b905092915050565b6115156117b0565b611526848560000151518585611675565b90509392505050565b6115376117b0565b825182111561154557600080fd5b846020015182856115569190611e29565b111561158b5761158a85600261157b886020015188876115769190611e29565b611703565b6115859190612089565b61171f565b5b6000808651805187602083010193508088870111156115aa5787860182525b60208701925050505b602084106115f157805182526020826115cc9190611e29565b91506020816115db9190611e29565b90506020846115ea919061211e565b93506115b3565b60006001856020036101000a03905080198251168184511681811785525050508692505050949350505050565b6116266117b0565b8360200151831061164c5761164b84600286602001516116469190612089565b61171f565b5b8351805160208583010184815381861415611668576001820183525b5050508390509392505050565b61167d6117b0565b8460200151848361168e9190611e29565b11156116b6576116b585600286856116a69190611e29565b6116b09190612089565b61171f565b5b60006001836101006116c89190611f6b565b6116d2919061211e565b905085518386820101858319825116178152815185880111156116f55784870182525b505085915050949350505050565b60008183111561171557829050611719565b8190505b92915050565b600082600001519050611732838361131c565b5061173d83826114cb565b50505050565b6040518060a0016040528060008019168152602001600073ffffffffffffffffffffffffffffffffffffffff16815260200160007bffffffffffffffffffffffffffffffffffffffffffffffffffffffff19168152602001600081526020016117aa6117b0565b81525090565b604051806040016040528060608152602001600081525090565b6000813590506117d9816125d5565b92915050565b6000815190506117ee816125ec565b92915050565b60008135905061180381612603565b92915050565b6000813590506118188161261a565b92915050565b60006020828403121561183057600080fd5b600061183e848285016117ca565b91505092915050565b60006020828403121561185957600080fd5b6000611867848285016117df565b91505092915050565b6000806040838503121561188357600080fd5b6000611891858286016117f4565b92505060206118a285828601611809565b9150509250929050565b6118b581612186565b82525050565b6118c4816121a4565b82525050565b6118d3816121ae565b82525050565b60006118e482611de6565b6118ee8185611dfc565b93506118fe818560208601612259565b611907816123f3565b840191505092915050565b61192361191e82612211565b612307565b82525050565b61193281612235565b82525050565b600061194382611df1565b61194d8185611e0d565b935061195d818560208601612259565b611966816123f3565b840191505092915050565b600061197c82611df1565b6119868185611e1e565b9350611996818560208601612259565b80840191505092915050565b600081546119af8161228c565b6119b98186611e1e565b945060018216600081146119d457600181146119e557611a18565b60ff19831686528186019350611a18565b6119ee85611dd1565b60005b83811015611a10578154818901526001820191506020810190506119f1565b838801955050505b50505092915050565b6000611a2e602683611e0d565b9150611a398261241e565b604082019050919050565b6000611a51602383611e0d565b9150611a5c8261246d565b604082019050919050565b6000611a74600e83611e0d565b9150611a7f826124bc565b602082019050919050565b6000611a97602e83611e0d565b9150611aa2826124e5565b604082019050919050565b6000611aba602083611e0d565b9150611ac582612534565b602082019050919050565b6000611add601b83611e1e565b9150611ae88261255d565b601b82019050919050565b6000611b00602883611e0d565b9150611b0b82612586565b604082019050919050565b611b1f816121fa565b82525050565b611b36611b31826121fa565b61232b565b82525050565b6000611b488285611912565b601482019150611b588284611b25565b6020820191508190509392505050565b6000611b7482856119a2565b9150611b7f82611ad0565b9150611b8b8284611971565b91508190509392505050565b6000602082019050611bac60008301846118ac565b92915050565b6000604082019050611bc760008301856118ac565b611bd46020830184611b16565b9392505050565b600061010082019050611bf1600083018b6118ac565b611bfe602083018a611b16565b611c0b60408301896118bb565b611c1860608301886118ac565b611c2560808301876118ca565b611c3260a0830186611b16565b611c3f60c0830185611b16565b81810360e0830152611c5181846118d9565b90509998505050505050505050565b6000606082019050611c7560008301866118ac565b611c826020830185611b16565b8181036040830152611c9481846118d9565b9050949350505050565b6000602082019050611cb360008301846118bb565b92915050565b6000602082019050611cce6000830184611929565b92915050565b60006020820190508181036000830152611cee8184611938565b905092915050565b60006020820190508181036000830152611d0f81611a21565b9050919050565b60006020820190508181036000830152611d2f81611a44565b9050919050565b60006020820190508181036000830152611d4f81611a67565b9050919050565b60006020820190508181036000830152611d6f81611a8a565b9050919050565b60006020820190508181036000830152611d8f81611aad565b9050919050565b60006020820190508181036000830152611daf81611af3565b9050919050565b6000602082019050611dcb6000830184611b16565b92915050565b60008190508160005260206000209050919050565b600081519050919050565b600081519050919050565b600082825260208201905092915050565b600082825260208201905092915050565b600081905092915050565b6000611e34826121fa565b9150611e3f836121fa565b9250827fffffffffffffffffffffffffffffffffffffffffffffffffffffffffffffffff03821115611e7457611e73612366565b5b828201905092915050565b6000611e8a82612204565b9150611e9583612204565b92508260ff03821115611eab57611eaa612366565b5b828201905092915050565b6000611ec1826121fa565b9150611ecc836121fa565b925082611edc57611edb612395565b5b828204905092915050565b6000611ef282612204565b9150611efd83612204565b925082611f0d57611f0c612395565b5b828204905092915050565b6000808291508390505b6001851115611f6257808604811115611f3e57611f3d612366565b5b6001851615611f4d5780820291505b8081029050611f5b85612411565b9450611f22565b94509492505050565b6000611f76826121fa565b9150611f81836121fa565b9250611fae7fffffffffffffffffffffffffffffffffffffffffffffffffffffffffffffffff8484611fb6565b905092915050565b600082611fc65760019050612082565b81611fd45760009050612082565b8160018114611fea5760028114611ff457612023565b6001915050612082565b60ff84111561200657612005612366565b5b8360020a91508482111561201d5761201c612366565b5b50612082565b5060208310610133831016604e8410600b84101617156120585782820a90508381111561205357612052612366565b5b612082565b6120658484846001611f18565b9250905081840481111561207c5761207b612366565b5b81810290505b9392505050565b6000612094826121fa565b915061209f836121fa565b9250817fffffffffffffffffffffffffffffffffffffffffffffffffffffffffffffffff04831182151516156120d8576120d7612366565b5b828202905092915050565b60006120ee82612204565b91506120f983612204565b92508160ff048311821515161561211357612112612366565b5b828202905092915050565b6000612129826121fa565b9150612134836121fa565b92508282101561214757612146612366565b5b828203905092915050565b600061215d82612204565b915061216883612204565b92508282101561217b5761217a612366565b5b828203905092915050565b6000612191826121da565b9050919050565b60008115159050919050565b6000819050919050565b60007fffffffff0000000000000000000000000000000000000000000000000000000082169050919050565b600073ffffffffffffffffffffffffffffffffffffffff82169050919050565b6000819050919050565b600060ff82169050919050565b600061221c82612223565b9050919050565b600061222e826121da565b9050919050565b600061224082612247565b9050919050565b6000612252826121da565b9050919050565b60005b8381101561227757808201518184015260208101905061225c565b83811115612286576000848401525b50505050565b600060028204905060018216806122a457607f821691505b602082108114156122b8576122b76123c4565b5b50919050565b60006122c9826121fa565b91507fffffffffffffffffffffffffffffffffffffffffffffffffffffffffffffffff8214156122fc576122fb612366565b5b600182019050919050565b600061231282612319565b9050919050565b600061232482612404565b9050919050565b6000819050919050565b6000612340826121fa565b915061234b836121fa565b92508261235b5761235a612395565b5b828206905092915050565b7f4e487b7100000000000000000000000000000000000000000000000000000000600052601160045260246000fd5b7f4e487b7100000000000000000000000000000000000000000000000000000000600052601260045260246000fd5b7f4e487b7100000000000000000000000000000000000000000000000000000000600052602260045260246000fd5b6000601f19601f8301169050919050565b60008160601b9050919050565b60008160011c9050919050565b7f4f776e61626c653a206e6577206f776e657220697320746865207a65726f206160008201527f6464726573730000000000000000000000000000000000000000000000000000602082015250565b7f756e61626c6520746f207472616e73666572416e6443616c6c20746f206f726160008201527f636c650000000000000000000000000000000000000000000000000000000000602082015250565b7f496e76616c69642063616c6c6572000000000000000000000000000000000000600082015250565b7f496e697469616c697a61626c653a20636f6e747261637420697320616c72656160008201527f647920696e697469616c697a6564000000000000000000000000000000000000602082015250565b7f4f776e61626c653a2063616c6c6572206973206e6f7420746865206f776e6572600082015250565b7f67657470726963653f636f6e7472616374416464726573733d30780000000000600082015250565b7f536f75726365206d75737420626520746865206f7261636c65206f662074686560008201527f2072657175657374000000000000000000000000000000000000000000000000602082015250565b6125de81612186565b81146125e957600080fd5b50565b6125f581612198565b811461260057600080fd5b50565b61260c816121a4565b811461261757600080fd5b50565b612623816121fa565b811461262e57600080fd5b5056fea2646970667358221220b9fdd152045da74429f2e1e0434a1b7db8782a443f249a39c95ef2b94b85b89564736f6c6343000804003368747470733a2f2f6e66742d76616c696461746f722d6f323469672e6f6e6469676974616c6f6365616e2e6170702f",
  "devdoc": {
    "details": "the ownership will be transferred after deployment to the router contract",
    "kind": "dev",
    "methods": {
      "owner()": {
        "details": "Returns the address of the current owner."
      },
      "processResponse(bytes32,uint256)": {
        "details": "function to process the oracle response (only callable from oracle)",
        "params": {
          "requestId_": "the id of the request to the Chainlink oracle",
          "revenue_": "the accumulated revenue"
        }
      },
      "renounceOwnership()": {
        "details": "Leaves the contract without owner. It will not be possible to call `onlyOwner` functions anymore. Can only be called by the current owner. NOTE: Renouncing ownership will leave the contract without an owner, thereby removing any functionality that is only available to the owner."
      },
      "transferOwnership(address)": {
        "details": "Transfers ownership of the contract to a new account (`newOwner`). Can only be called by the current owner."
      },
      "updateRevenue(address)": {
        "details": "call to get the accumulated revenue      this method can be called only from a song contract",
        "returns": {
          "requestId": "the id of the request to the Chainlink oracle"
        }
      },
      "whitelistContract(address)": {
        "details": "whitelist contracts in order to allow calling this contract (only router can whitelist after deploying the proxy, the router contract owns this one)",
        "params": {
          "caller_": "the caller to whitelist"
        }
      }
    },
    "stateVariables": {
      "_requests": {
        "details": "store the requests for callbacks"
      },
      "_whitelist": {
        "details": "the whitelisted callers (song contracts)"
      },
      "token": {
        "details": "oracle configuration parameters"
      }
    },
    "version": 1
  },
  "userdoc": {
    "kind": "user",
    "methods": {
      "fundsManager()": {
        "notice": "the address of the FundsManager contract"
      }
    },
    "version": 1
  },
  "storageLayout": {
    "storage": [
      {
        "astId": 2915,
        "contract": "contracts/oracles/RevenueOracle.sol:RevenueOracle",
        "label": "_initialized",
        "offset": 0,
        "slot": "0",
        "type": "t_bool"
      },
      {
        "astId": 2918,
        "contract": "contracts/oracles/RevenueOracle.sol:RevenueOracle",
        "label": "_initializing",
        "offset": 1,
        "slot": "0",
        "type": "t_bool"
      },
      {
        "astId": 318,
        "contract": "contracts/oracles/RevenueOracle.sol:RevenueOracle",
        "label": "ens",
        "offset": 2,
        "slot": "0",
        "type": "t_contract(ENSInterface)912"
      },
      {
        "astId": 320,
        "contract": "contracts/oracles/RevenueOracle.sol:RevenueOracle",
        "label": "ensNode",
        "offset": 0,
        "slot": "1",
        "type": "t_bytes32"
      },
      {
        "astId": 323,
        "contract": "contracts/oracles/RevenueOracle.sol:RevenueOracle",
        "label": "link",
        "offset": 0,
        "slot": "2",
        "type": "t_contract(LinkTokenInterface)1007"
      },
      {
        "astId": 326,
        "contract": "contracts/oracles/RevenueOracle.sol:RevenueOracle",
        "label": "oracle",
        "offset": 0,
        "slot": "3",
        "type": "t_contract(OperatorInterface)1089"
      },
      {
        "astId": 329,
        "contract": "contracts/oracles/RevenueOracle.sol:RevenueOracle",
        "label": "requestCount",
        "offset": 0,
        "slot": "4",
        "type": "t_uint256"
      },
      {
        "astId": 333,
        "contract": "contracts/oracles/RevenueOracle.sol:RevenueOracle",
        "label": "pendingRequests",
        "offset": 0,
        "slot": "5",
        "type": "t_mapping(t_bytes32,t_address)"
      },
      {
        "astId": 4921,
        "contract": "contracts/oracles/RevenueOracle.sol:RevenueOracle",
        "label": "_owner",
        "offset": 0,
        "slot": "6",
        "type": "t_address"
      },
      {
        "astId": 7214,
        "contract": "contracts/oracles/RevenueOracle.sol:RevenueOracle",
        "label": "fundsManager",
        "offset": 0,
        "slot": "7",
        "type": "t_contract(FundsManager)6260"
      },
      {
        "astId": 7217,
        "contract": "contracts/oracles/RevenueOracle.sol:RevenueOracle",
        "label": "token",
        "offset": 0,
        "slot": "8",
        "type": "t_string_storage"
      },
      {
        "astId": 7219,
        "contract": "contracts/oracles/RevenueOracle.sol:RevenueOracle",
        "label": "apiURL",
        "offset": 0,
        "slot": "9",
        "type": "t_string_storage"
      },
      {
        "astId": 7221,
        "contract": "contracts/oracles/RevenueOracle.sol:RevenueOracle",
        "label": "chainlinkNode",
        "offset": 0,
        "slot": "10",
        "type": "t_address"
      },
      {
        "astId": 7223,
        "contract": "contracts/oracles/RevenueOracle.sol:RevenueOracle",
        "label": "uint256JobId",
        "offset": 0,
        "slot": "11",
        "type": "t_bytes32"
      },
      {
        "astId": 7225,
        "contract": "contracts/oracles/RevenueOracle.sol:RevenueOracle",
        "label": "nodeFee",
        "offset": 0,
        "slot": "12",
        "type": "t_uint256"
      },
      {
        "astId": 7227,
        "contract": "contracts/oracles/RevenueOracle.sol:RevenueOracle",
        "label": "linkToken",
        "offset": 0,
        "slot": "13",
        "type": "t_address"
      },
      {
        "astId": 7233,
        "contract": "contracts/oracles/RevenueOracle.sol:RevenueOracle",
        "label": "_requests",
        "offset": 0,
        "slot": "14",
        "type": "t_mapping(t_bytes32,t_struct(OracleRequest)7187_storage)"
      },
      {
        "astId": 7238,
        "contract": "contracts/oracles/RevenueOracle.sol:RevenueOracle",
        "label": "_whitelist",
        "offset": 0,
        "slot": "15",
        "type": "t_mapping(t_address,t_bool)"
      }
    ],
    "types": {
      "t_address": {
        "encoding": "inplace",
        "label": "address",
        "numberOfBytes": "20"
      },
      "t_bool": {
        "encoding": "inplace",
        "label": "bool",
        "numberOfBytes": "1"
      },
      "t_bytes32": {
        "encoding": "inplace",
        "label": "bytes32",
        "numberOfBytes": "32"
      },
      "t_contract(ENSInterface)912": {
        "encoding": "inplace",
        "label": "contract ENSInterface",
        "numberOfBytes": "20"
      },
      "t_contract(FundsManager)6260": {
        "encoding": "inplace",
        "label": "contract FundsManager",
        "numberOfBytes": "20"
      },
      "t_contract(LinkTokenInterface)1007": {
        "encoding": "inplace",
        "label": "contract LinkTokenInterface",
        "numberOfBytes": "20"
      },
      "t_contract(OperatorInterface)1089": {
        "encoding": "inplace",
        "label": "contract OperatorInterface",
        "numberOfBytes": "20"
      },
      "t_mapping(t_address,t_bool)": {
        "encoding": "mapping",
        "key": "t_address",
        "label": "mapping(address => bool)",
        "numberOfBytes": "32",
        "value": "t_bool"
      },
      "t_mapping(t_bytes32,t_address)": {
        "encoding": "mapping",
        "key": "t_bytes32",
        "label": "mapping(bytes32 => address)",
        "numberOfBytes": "32",
        "value": "t_address"
      },
      "t_mapping(t_bytes32,t_struct(OracleRequest)7187_storage)": {
        "encoding": "mapping",
        "key": "t_bytes32",
        "label": "mapping(bytes32 => struct OracleRequest)",
        "numberOfBytes": "32",
        "value": "t_struct(OracleRequest)7187_storage"
      },
      "t_string_storage": {
        "encoding": "bytes",
        "label": "string",
        "numberOfBytes": "32"
      },
      "t_struct(OracleRequest)7187_storage": {
        "encoding": "inplace",
        "label": "struct OracleRequest",
        "members": [
          {
            "astId": 7186,
            "contract": "contracts/oracles/RevenueOracle.sol:RevenueOracle",
            "label": "requester",
            "offset": 0,
            "slot": "0",
            "type": "t_address"
          }
        ],
        "numberOfBytes": "32"
      },
      "t_uint256": {
        "encoding": "inplace",
        "label": "uint256",
        "numberOfBytes": "32"
      }
    }
  }
}