{
  "address": "0x9BD3DDfC43283DcDf5e22319057f3580Bb60ae65",
  "abi": [
    {
      "inputs": [],
      "stateMutability": "nonpayable",
      "type": "constructor"
    },
    {
      "anonymous": false,
      "inputs": [
        {
          "indexed": false,
          "internalType": "address",
          "name": "previousAdmin",
          "type": "address"
        },
        {
          "indexed": false,
          "internalType": "address",
          "name": "newAdmin",
          "type": "address"
        }
      ],
      "name": "AdminChanged",
      "type": "event"
    },
    {
      "anonymous": false,
      "inputs": [
        {
          "indexed": true,
          "internalType": "address",
          "name": "beacon",
          "type": "address"
        }
      ],
      "name": "BeaconUpgraded",
      "type": "event"
    },
    {
      "anonymous": false,
      "inputs": [
        {
          "indexed": true,
          "internalType": "bytes32",
          "name": "role",
          "type": "bytes32"
        },
        {
          "indexed": true,
          "internalType": "bytes32",
          "name": "previousAdminRole",
          "type": "bytes32"
        },
        {
          "indexed": true,
          "internalType": "bytes32",
          "name": "newAdminRole",
          "type": "bytes32"
        }
      ],
      "name": "RoleAdminChanged",
      "type": "event"
    },
    {
      "anonymous": false,
      "inputs": [
        {
          "indexed": true,
          "internalType": "bytes32",
          "name": "role",
          "type": "bytes32"
        },
        {
          "indexed": true,
          "internalType": "address",
          "name": "account",
          "type": "address"
        },
        {
          "indexed": true,
          "internalType": "address",
          "name": "sender",
          "type": "address"
        }
      ],
      "name": "RoleGranted",
      "type": "event"
    },
    {
      "anonymous": false,
      "inputs": [
        {
          "indexed": true,
          "internalType": "bytes32",
          "name": "role",
          "type": "bytes32"
        },
        {
          "indexed": true,
          "internalType": "address",
          "name": "account",
          "type": "address"
        },
        {
          "indexed": true,
          "internalType": "address",
          "name": "sender",
          "type": "address"
        }
      ],
      "name": "RoleRevoked",
      "type": "event"
    },
    {
      "anonymous": false,
      "inputs": [
        {
          "indexed": true,
          "internalType": "address",
          "name": "collection",
          "type": "address"
        },
        {
          "indexed": false,
          "internalType": "uint256",
          "name": "tokenId",
          "type": "uint256"
        },
        {
          "indexed": false,
          "internalType": "address",
          "name": "staker",
          "type": "address"
        },
        {
          "indexed": false,
          "internalType": "address",
          "name": "artistRevenueAccount",
          "type": "address"
        },
        {
          "indexed": false,
          "internalType": "address",
          "name": "songContract",
          "type": "address"
        }
      ],
      "name": "SongStaked",
      "type": "event"
    },
    {
      "anonymous": false,
      "inputs": [
        {
          "indexed": true,
          "internalType": "address",
          "name": "implementation",
          "type": "address"
        }
      ],
      "name": "Upgraded",
      "type": "event"
    },
    {
      "inputs": [],
      "name": "DEFAULT_ADMIN_ROLE",
      "outputs": [
        {
          "internalType": "bytes32",
          "name": "",
          "type": "bytes32"
        }
      ],
      "stateMutability": "view",
      "type": "function"
    },
    {
      "inputs": [],
      "name": "UPGRADER_ROLE",
      "outputs": [
        {
          "internalType": "bytes32",
          "name": "",
          "type": "bytes32"
        }
      ],
      "stateMutability": "view",
      "type": "function"
    },
    {
      "inputs": [],
      "name": "WHITELISTER_ROLE",
      "outputs": [
        {
          "internalType": "bytes32",
          "name": "",
          "type": "bytes32"
        }
      ],
      "stateMutability": "view",
      "type": "function"
    },
    {
      "inputs": [
        {
          "internalType": "address",
          "name": "collection_",
          "type": "address"
        }
      ],
      "name": "blacklistCollection",
      "outputs": [],
      "stateMutability": "nonpayable",
      "type": "function"
    },
    {
      "inputs": [
        {
          "internalType": "bytes32",
          "name": "role",
          "type": "bytes32"
        }
      ],
      "name": "getRoleAdmin",
      "outputs": [
        {
          "internalType": "bytes32",
          "name": "",
          "type": "bytes32"
        }
      ],
      "stateMutability": "view",
      "type": "function"
    },
    {
      "inputs": [
        {
          "internalType": "bytes32",
          "name": "role",
          "type": "bytes32"
        },
        {
          "internalType": "address",
          "name": "account",
          "type": "address"
        }
      ],
      "name": "grantRole",
      "outputs": [],
      "stateMutability": "nonpayable",
      "type": "function"
    },
    {
      "inputs": [
        {
          "internalType": "bytes32",
          "name": "role",
          "type": "bytes32"
        },
        {
          "internalType": "address",
          "name": "account",
          "type": "address"
        }
      ],
      "name": "hasRole",
      "outputs": [
        {
          "internalType": "bool",
          "name": "",
          "type": "bool"
        }
      ],
      "stateMutability": "view",
      "type": "function"
    },
    {
      "inputs": [
        {
          "internalType": "address",
          "name": "governance_",
          "type": "address"
        },
        {
          "internalType": "address",
          "name": "beacon_",
          "type": "address"
        },
        {
          "internalType": "address",
          "name": "revenueOracle_",
          "type": "address"
        }
      ],
      "name": "initialize",
      "outputs": [],
      "stateMutability": "nonpayable",
      "type": "function"
    },
    {
      "inputs": [
        {
          "internalType": "bytes32",
          "name": "role",
          "type": "bytes32"
        },
        {
          "internalType": "address",
          "name": "account",
          "type": "address"
        }
      ],
      "name": "renounceRole",
      "outputs": [],
      "stateMutability": "nonpayable",
      "type": "function"
    },
    {
      "inputs": [],
      "name": "revenueOracle",
      "outputs": [
        {
          "internalType": "address",
          "name": "",
          "type": "address"
        }
      ],
      "stateMutability": "view",
      "type": "function"
    },
    {
      "inputs": [
        {
          "internalType": "bytes32",
          "name": "role",
          "type": "bytes32"
        },
        {
          "internalType": "address",
          "name": "account",
          "type": "address"
        }
      ],
      "name": "revokeRole",
      "outputs": [],
      "stateMutability": "nonpayable",
      "type": "function"
    },
    {
      "inputs": [
        {
          "internalType": "address",
          "name": "collection_",
          "type": "address"
        },
        {
          "internalType": "uint256",
          "name": "tokenId_",
          "type": "uint256"
        },
        {
          "internalType": "address",
          "name": "artistRevenueAccount_",
          "type": "address"
        }
      ],
      "name": "stake",
      "outputs": [],
      "stateMutability": "nonpayable",
      "type": "function"
    },
    {
      "inputs": [
        {
          "internalType": "address",
          "name": "",
          "type": "address"
        },
        {
          "internalType": "uint256",
          "name": "",
          "type": "uint256"
        }
      ],
      "name": "stakedSongs",
      "outputs": [
        {
          "internalType": "address",
          "name": "",
          "type": "address"
        }
      ],
      "stateMutability": "view",
      "type": "function"
    },
    {
      "inputs": [],
      "name": "stakedSongsCounter",
      "outputs": [
        {
          "internalType": "uint256",
          "name": "",
          "type": "uint256"
        }
      ],
      "stateMutability": "view",
      "type": "function"
    },
    {
      "inputs": [
        {
          "internalType": "bytes4",
          "name": "interfaceId",
          "type": "bytes4"
        }
      ],
      "name": "supportsInterface",
      "outputs": [
        {
          "internalType": "bool",
          "name": "",
          "type": "bool"
        }
      ],
      "stateMutability": "view",
      "type": "function"
    },
    {
      "inputs": [
        {
          "internalType": "address",
          "name": "newImplementation",
          "type": "address"
        }
      ],
      "name": "upgradeTo",
      "outputs": [],
      "stateMutability": "nonpayable",
      "type": "function"
    },
    {
      "inputs": [
        {
          "internalType": "address",
          "name": "newImplementation",
          "type": "address"
        },
        {
          "internalType": "bytes",
          "name": "data",
          "type": "bytes"
        }
      ],
      "name": "upgradeToAndCall",
      "outputs": [],
      "stateMutability": "payable",
      "type": "function"
    },
    {
      "inputs": [
        {
          "internalType": "address",
          "name": "collection_",
          "type": "address"
        }
      ],
      "name": "whitelistCollection",
      "outputs": [],
      "stateMutability": "nonpayable",
      "type": "function"
    },
    {
      "inputs": [
        {
          "internalType": "address",
          "name": "",
          "type": "address"
        }
      ],
      "name": "whitelistedCollections",
      "outputs": [
        {
          "internalType": "bool",
          "name": "",
          "type": "bool"
        }
      ],
      "stateMutability": "view",
      "type": "function"
    }
  ],
  "transactionHash": "0x98695e5a5c903ec4b3c9245e24dbb0c4c2bf226135a8f3183038a4b76c5de7b7",
  "args": [],
  "solcInputHash": "fd750c0783e29ee55e57a970f1bbddce",
  "bytecode": "0x60a06040523073ffffffffffffffffffffffffffffffffffffffff1660809073ffffffffffffffffffffffffffffffffffffffff1660601b8152503480156200004757600080fd5b50600060019054906101000a900460ff16806200006f575060008054906101000a900460ff16155b620000b1576040517f08c379a0000000000000000000000000000000000000000000000000000000008152600401620000a89062000152565b60405180910390fd5b60008060019054906101000a900460ff16159050801562000102576001600060016101000a81548160ff02191690831515021790555060016000806101000a81548160ff0219169083151502179055505b8015620001245760008060016101000a81548160ff0219169083151502179055505b50620001d4565b60006200013a602e8362000174565b9150620001478262000185565b604082019050919050565b600060208201905081810360008301526200016d816200012b565b9050919050565b600082825260208201905092915050565b7f496e697469616c697a61626c653a20636f6e747261637420697320616c72656160008201527f647920696e697469616c697a6564000000000000000000000000000000000000602082015250565b60805160601c6144586200020860003960008181610ad101528181610b6301528181610cf30152610d8501526144586000f3fe6080604052600436106200012e5760003560e01c806356187a6411620000af578063c0c53b8b116200006d578063c0c53b8b146200041d578063c10aaf26146200044b578063d547741f1462000479578063e7ab1ae614620004a7578063f72c0d8b14620004d7576200012e565b806356187a641462000305578063570618e1146200033557806391d1485414620003655780639d7507f414620003a9578063a217fddf14620003ed576200012e565b806336568abe11620000fd57806336568abe14620002175780633659cfe614620002455780633aba9f3114620002735780634f05cbd814620002a15780634f1ef28614620002e5576200012e565b806301ffc9a71462000133578063248a9ca31462000177578063294091cd14620001bb5780632f2ff15d14620001e9575b600080fd5b3480156200014057600080fd5b506200015f600480360381019062000159919062002688565b62000507565b6040516200016e919062002af2565b60405180910390f35b3480156200018457600080fd5b50620001a360048036038101906200019d91906200261b565b62000584565b604051620001b2919062002b0f565b60405180910390f35b348015620001c857600080fd5b50620001e76004803603810190620001e19190620025c5565b620005a4565b005b348015620001f657600080fd5b506200021560048036038101906200020f919062002647565b62000a14565b005b3480156200022457600080fd5b506200024360048036038101906200023d919062002647565b62000a45565b005b3480156200025257600080fd5b506200027160048036038101906200026b9190620024a8565b62000acf565b005b3480156200028057600080fd5b506200029f6004803603810190620002999190620024a8565b62000c8c565b005b348015620002ae57600080fd5b50620002cd6004803603810190620002c79190620024a8565b62000cd1565b604051620002dc919062002af2565b60405180910390f35b620003036004803603810190620002fd91906200252a565b62000cf1565b005b3480156200031257600080fd5b506200031d62000e3a565b6040516200032c919062002a17565b60405180910390f35b3480156200034257600080fd5b506200034d62000e60565b6040516200035c919062002b0f565b60405180910390f35b3480156200037257600080fd5b506200039160048036038101906200038b919062002647565b62000e84565b604051620003a0919062002af2565b60405180910390f35b348015620003b657600080fd5b50620003d56004803603810190620003cf919062002584565b62000eef565b604051620003e4919062002a17565b60405180910390f35b348015620003fa57600080fd5b506200040562000f31565b60405162000414919062002b0f565b60405180910390f35b3480156200042a57600080fd5b50620004496004803603810190620004439190620024d4565b62000f38565b005b3480156200045857600080fd5b50620004776004803603810190620004719190620024a8565b62001117565b005b3480156200048657600080fd5b50620004a560048036038101906200049f919062002647565b6200115c565b005b348015620004b457600080fd5b50620004bf6200118d565b604051620004ce919062002ca4565b60405180910390f35b348015620004e457600080fd5b50620004ef62001193565b604051620004fe919062002b0f565b60405180910390f35b60007f7965db0b000000000000000000000000000000000000000000000000000000007bffffffffffffffffffffffffffffffffffffffffffffffffffffffff1916827bffffffffffffffffffffffffffffffffffffffffffffffffffffffff191614806200057d57506200057c82620011b7565b5b9050919050565b600060656000838152602001908152602001600020600101549050919050565b60fb60008473ffffffffffffffffffffffffffffffffffffffff1673ffffffffffffffffffffffffffffffffffffffff16815260200190815260200160002060009054906101000a900460ff1662000633576040517f08c379a00000000000000000000000000000000000000000000000000000000081526004016200062a9062002b50565b60405180910390fd5b600073ffffffffffffffffffffffffffffffffffffffff1660ff60008573ffffffffffffffffffffffffffffffffffffffff1673ffffffffffffffffffffffffffffffffffffffff168152602001908152602001600020600084815260200190815260200160002060009054906101000a900473ffffffffffffffffffffffffffffffffffffffff1673ffffffffffffffffffffffffffffffffffffffff161462000715576040517f08c379a00000000000000000000000000000000000000000000000000000000081526004016200070c9062002c60565b60405180910390fd5b3360ff60008573ffffffffffffffffffffffffffffffffffffffff1673ffffffffffffffffffffffffffffffffffffffff168152602001908152602001600020600084815260200190815260200160002060006101000a81548173ffffffffffffffffffffffffffffffffffffffff021916908373ffffffffffffffffffffffffffffffffffffffff16021790555060fd6000815480929190620007b99062002fa3565b91905055508273ffffffffffffffffffffffffffffffffffffffff166323b872dd3330856040518463ffffffff1660e01b8152600401620007fd9392919062002a81565b600060405180830381600087803b1580156200081857600080fd5b505af11580156200082d573d6000803e3d6000fd5b50505050600060fc60009054906101000a900473ffffffffffffffffffffffffffffffffffffffff16308386866040516024016200086f949392919062002a34565b6040516020818303038152906040527fcf756fdf000000000000000000000000000000000000000000000000000000007bffffffffffffffffffffffffffffffffffffffffffffffffffffffff19166020820180517bffffffffffffffffffffffffffffffffffffffffffffffffffffffff8381831617835250505050604051620008fa90620023cc565b6200090792919062002abe565b604051809103906000f08015801562000924573d6000803e3d6000fd5b50905060fe60009054906101000a900473ffffffffffffffffffffffffffffffffffffffff1673ffffffffffffffffffffffffffffffffffffffff16633a0e6d43826040518263ffffffff1660e01b815260040162000984919062002a17565b600060405180830381600087803b1580156200099f57600080fd5b505af1158015620009b4573d6000803e3d6000fd5b505050508373ffffffffffffffffffffffffffffffffffffffff167f9c7eb311f0fe2b3be88364b024d04359dbc0f7b72396189e05c950d8ac7690e78433858560405162000a06949392919062002cc1565b60405180910390a250505050565b62000a1f8262000584565b62000a348162000a2e62001221565b62001229565b62000a408383620012d1565b505050565b62000a4f62001221565b73ffffffffffffffffffffffffffffffffffffffff168173ffffffffffffffffffffffffffffffffffffffff161462000abf576040517f08c379a000000000000000000000000000000000000000000000000000000000815260040162000ab69062002c82565b60405180910390fd5b62000acb8282620013b7565b5050565b7f000000000000000000000000000000000000000000000000000000000000000073ffffffffffffffffffffffffffffffffffffffff163073ffffffffffffffffffffffffffffffffffffffff16141562000b61576040517f08c379a000000000000000000000000000000000000000000000000000000000815260040162000b589062002bb6565b60405180910390fd5b7f000000000000000000000000000000000000000000000000000000000000000073ffffffffffffffffffffffffffffffffffffffff1662000ba26200149e565b73ffffffffffffffffffffffffffffffffffffffff161462000bfb576040517f08c379a000000000000000000000000000000000000000000000000000000000815260040162000bf29062002bd8565b60405180910390fd5b62000c0681620014f7565b62000c8981600067ffffffffffffffff81111562000c4d577f4e487b7100000000000000000000000000000000000000000000000000000000600052604160045260246000fd5b6040519080825280601f01601f19166020018201604052801562000c805781602001600182028036833780820191505090505b50600062001531565b50565b7f8619cecd8b9e095ab43867f5b69d492180450fe862e6b50bfbfb24b75dd84c8a62000cc28162000cbc62001221565b62001229565b62000ccd8262001718565b5050565b60fb6020528060005260406000206000915054906101000a900460ff1681565b7f000000000000000000000000000000000000000000000000000000000000000073ffffffffffffffffffffffffffffffffffffffff163073ffffffffffffffffffffffffffffffffffffffff16141562000d83576040517f08c379a000000000000000000000000000000000000000000000000000000000815260040162000d7a9062002bb6565b60405180910390fd5b7f000000000000000000000000000000000000000000000000000000000000000073ffffffffffffffffffffffffffffffffffffffff1662000dc46200149e565b73ffffffffffffffffffffffffffffffffffffffff161462000e1d576040517f08c379a000000000000000000000000000000000000000000000000000000000815260040162000e149062002bd8565b60405180910390fd5b62000e2882620014f7565b62000e368282600162001531565b5050565b60fe60009054906101000a900473ffffffffffffffffffffffffffffffffffffffff1681565b7f8619cecd8b9e095ab43867f5b69d492180450fe862e6b50bfbfb24b75dd84c8a81565b60006065600084815260200190815260200160002060000160008373ffffffffffffffffffffffffffffffffffffffff1673ffffffffffffffffffffffffffffffffffffffff16815260200190815260200160002060009054906101000a900460ff16905092915050565b60ff6020528160005260406000206020528060005260406000206000915091509054906101000a900473ffffffffffffffffffffffffffffffffffffffff1681565b6000801b81565b600060019054906101000a900460ff168062000f5f575060008054906101000a900460ff16155b62000fa1576040517f08c379a000000000000000000000000000000000000000000000000000000000815260040162000f989062002bfa565b60405180910390fd5b60008060019054906101000a900460ff16159050801562000ff2576001600060016101000a81548160ff02191690831515021790555060016000806101000a81548160ff0219169083151502179055505b8260fc60006101000a81548173ffffffffffffffffffffffffffffffffffffffff021916908373ffffffffffffffffffffffffffffffffffffffff1602179055508160fe60006101000a81548173ffffffffffffffffffffffffffffffffffffffff021916908373ffffffffffffffffffffffffffffffffffffffff1602179055506200107e62001773565b6200108862001870565b620010976000801b8562001963565b620010c37f189ab7a9244df0848122154315af71fe140f3db0fe014031783b0946b8c9d2e38562001963565b620010ef7f8619cecd8b9e095ab43867f5b69d492180450fe862e6b50bfbfb24b75dd84c8a8562001963565b8015620011115760008060016101000a81548160ff0219169083151502179055505b50505050565b7f8619cecd8b9e095ab43867f5b69d492180450fe862e6b50bfbfb24b75dd84c8a6200114d816200114762001221565b62001229565b620011588262001973565b5050565b620011678262000584565b6200117c816200117662001221565b62001229565b620011888383620013b7565b505050565b60fd5481565b7f189ab7a9244df0848122154315af71fe140f3db0fe014031783b0946b8c9d2e381565b60007f01ffc9a7000000000000000000000000000000000000000000000000000000007bffffffffffffffffffffffffffffffffffffffffffffffffffffffff1916827bffffffffffffffffffffffffffffffffffffffffffffffffffffffff1916149050919050565b600033905090565b62001235828262000e84565b620012cd576200125d8173ffffffffffffffffffffffffffffffffffffffff166014620019ce565b6200126d8360001c6020620019ce565b60405160200162001280929190620029d5565b6040516020818303038152906040526040517f08c379a0000000000000000000000000000000000000000000000000000000008152600401620012c4919062002b2c565b60405180910390fd5b5050565b620012dd828262000e84565b620013b35760016065600084815260200190815260200160002060000160008373ffffffffffffffffffffffffffffffffffffffff1673ffffffffffffffffffffffffffffffffffffffff16815260200190815260200160002060006101000a81548160ff0219169083151502179055506200135862001221565b73ffffffffffffffffffffffffffffffffffffffff168173ffffffffffffffffffffffffffffffffffffffff16837f2f8788117e7eff1d82e926ec794901d17c78024a50270940304540a733656f0d60405160405180910390a45b5050565b620013c3828262000e84565b156200149a5760006065600084815260200190815260200160002060000160008373ffffffffffffffffffffffffffffffffffffffff1673ffffffffffffffffffffffffffffffffffffffff16815260200190815260200160002060006101000a81548160ff0219169083151502179055506200143f62001221565b73ffffffffffffffffffffffffffffffffffffffff168173ffffffffffffffffffffffffffffffffffffffff16837ff6391f5c32d9c69d2a47ea670b442974b53935d1edc7fd64eb21e047a839171b60405160405180910390a45b5050565b6000620014ce7f360894a13ba1a3210667c828492db98dca3e2076cc3735a920a3ca505d382bbc60001b62001cdd565b60000160009054906101000a900473ffffffffffffffffffffffffffffffffffffffff16905090565b7f189ab7a9244df0848122154315af71fe140f3db0fe014031783b0946b8c9d2e36200152d816200152762001221565b62001229565b5050565b60006200153d6200149e565b90506200154a8462001ce7565b600083511180620015585750815b156200156c576200156a848462001da7565b505b60006200159c7f4910fdfa16fed3260ed0e7147f7cc6da11a60208b5b9406d12a635614ffd914360001b62001e97565b90508060000160009054906101000a900460ff16620017115760018160000160006101000a81548160ff0219169083151502179055506200166d8583604051602401620015ea919062002a17565b6040516020818303038152906040527f3659cfe6000000000000000000000000000000000000000000000000000000007bffffffffffffffffffffffffffffffffffffffffffffffffffffffff19166020820180517bffffffffffffffffffffffffffffffffffffffffffffffffffffffff838183161783525050505062001da7565b5060008160000160006101000a81548160ff021916908315150217905550620016956200149e565b73ffffffffffffffffffffffffffffffffffffffff168273ffffffffffffffffffffffffffffffffffffffff161462001705576040517f08c379a0000000000000000000000000000000000000000000000000000000008152600401620016fc9062002b94565b60405180910390fd5b620017108562001ea1565b5b5050505050565b600060fb60008373ffffffffffffffffffffffffffffffffffffffff1673ffffffffffffffffffffffffffffffffffffffff16815260200190815260200160002060006101000a81548160ff02191690831515021790555050565b600060019054906101000a900460ff16806200179a575060008054906101000a900460ff16155b620017dc576040517f08c379a0000000000000000000000000000000000000000000000000000000008152600401620017d39062002bfa565b60405180910390fd5b60008060019054906101000a900460ff1615905080156200182d576001600060016101000a81548160ff02191690831515021790555060016000806101000a81548160ff0219169083151502179055505b6200183762001ef2565b6200184162001fd1565b6200184b620020b0565b80156200186d5760008060016101000a81548160ff0219169083151502179055505b50565b600060019054906101000a900460ff168062001897575060008054906101000a900460ff16155b620018d9576040517f08c379a0000000000000000000000000000000000000000000000000000000008152600401620018d09062002bfa565b60405180910390fd5b60008060019054906101000a900460ff1615905080156200192a576001600060016101000a81548160ff02191690831515021790555060016000806101000a81548160ff0219169083151502179055505b620019346200218f565b6200193e6200226e565b8015620019605760008060016101000a81548160ff0219169083151502179055505b50565b6200196f8282620012d1565b5050565b600160fb60008373ffffffffffffffffffffffffffffffffffffffff1673ffffffffffffffffffffffffffffffffffffffff16815260200190815260200160002060006101000a81548160ff02191690831515021790555050565b606060006002836002620019e3919062002e18565b620019ef919062002dbb565b67ffffffffffffffff81111562001a2f577f4e487b7100000000000000000000000000000000000000000000000000000000600052604160045260246000fd5b6040519080825280601f01601f19166020018201604052801562001a625781602001600182028036833780820191505090505b5090507f30000000000000000000000000000000000000000000000000000000000000008160008151811062001ac1577f4e487b7100000000000000000000000000000000000000000000000000000000600052603260045260246000fd5b60200101907effffffffffffffffffffffffffffffffffffffffffffffffffffffffffffff1916908160001a9053507f78000000000000000000000000000000000000000000000000000000000000008160018151811062001b4c577f4e487b7100000000000000000000000000000000000000000000000000000000600052603260045260246000fd5b60200101907effffffffffffffffffffffffffffffffffffffffffffffffffffffffffffff1916908160001a9053506000600184600262001b8e919062002e18565b62001b9a919062002dbb565b90505b600181111562001c8c577f3031323334353637383961626364656600000000000000000000000000000000600f86166010811062001c04577f4e487b7100000000000000000000000000000000000000000000000000000000600052603260045260246000fd5b1a60f81b82828151811062001c42577f4e487b7100000000000000000000000000000000000000000000000000000000600052603260045260246000fd5b60200101907effffffffffffffffffffffffffffffffffffffffffffffffffffffffffffff1916908160001a905350600485901c94508062001c849062002f3e565b905062001b9d565b506000841462001cd3576040517f08c379a000000000000000000000000000000000000000000000000000000000815260040162001cca9062002b72565b60405180910390fd5b8091505092915050565b6000819050919050565b62001cf2816200234d565b62001d34576040517f08c379a000000000000000000000000000000000000000000000000000000000815260040162001d2b9062002c1c565b60405180910390fd5b8062001d637f360894a13ba1a3210667c828492db98dca3e2076cc3735a920a3ca505d382bbc60001b62001cdd565b60000160006101000a81548173ffffffffffffffffffffffffffffffffffffffff021916908373ffffffffffffffffffffffffffffffffffffffff16021790555050565b606062001db4836200234d565b62001df6576040517f08c379a000000000000000000000000000000000000000000000000000000000815260040162001ded9062002c3e565b60405180910390fd5b6000808473ffffffffffffffffffffffffffffffffffffffff168460405162001e209190620029bc565b600060405180830381855af49150503d806000811462001e5d576040519150601f19603f3d011682016040523d82523d6000602084013e62001e62565b606091505b509150915062001e8d8282604051806060016040528060278152602001620043fc6027913962002360565b9250505092915050565b6000819050919050565b62001eac8162001ce7565b8073ffffffffffffffffffffffffffffffffffffffff167fbc7cd75a20ee27fd9adebab32041f755214dbc6bffa90cc0225b39da2e5c2d3b60405160405180910390a250565b600060019054906101000a900460ff168062001f19575060008054906101000a900460ff16155b62001f5b576040517f08c379a000000000000000000000000000000000000000000000000000000000815260040162001f529062002bfa565b60405180910390fd5b60008060019054906101000a900460ff16159050801562001fac576001600060016101000a81548160ff02191690831515021790555060016000806101000a81548160ff0219169083151502179055505b801562001fce5760008060016101000a81548160ff0219169083151502179055505b50565b600060019054906101000a900460ff168062001ff8575060008054906101000a900460ff16155b6200203a576040517f08c379a0000000000000000000000000000000000000000000000000000000008152600401620020319062002bfa565b60405180910390fd5b60008060019054906101000a900460ff1615905080156200208b576001600060016101000a81548160ff02191690831515021790555060016000806101000a81548160ff0219169083151502179055505b8015620020ad5760008060016101000a81548160ff0219169083151502179055505b50565b600060019054906101000a900460ff1680620020d7575060008054906101000a900460ff16155b62002119576040517f08c379a0000000000000000000000000000000000000000000000000000000008152600401620021109062002bfa565b60405180910390fd5b60008060019054906101000a900460ff1615905080156200216a576001600060016101000a81548160ff02191690831515021790555060016000806101000a81548160ff0219169083151502179055505b80156200218c5760008060016101000a81548160ff0219169083151502179055505b50565b600060019054906101000a900460ff1680620021b6575060008054906101000a900460ff16155b620021f8576040517f08c379a0000000000000000000000000000000000000000000000000000000008152600401620021ef9062002bfa565b60405180910390fd5b60008060019054906101000a900460ff16159050801562002249576001600060016101000a81548160ff02191690831515021790555060016000806101000a81548160ff0219169083151502179055505b80156200226b5760008060016101000a81548160ff0219169083151502179055505b50565b600060019054906101000a900460ff168062002295575060008054906101000a900460ff16155b620022d7576040517f08c379a0000000000000000000000000000000000000000000000000000000008152600401620022ce9062002bfa565b60405180910390fd5b60008060019054906101000a900460ff16159050801562002328576001600060016101000a81548160ff02191690831515021790555060016000806101000a81548160ff0219169083151502179055505b80156200234a5760008060016101000a81548160ff0219169083151502179055505b50565b600080823b905060008111915050919050565b606083156200237257829050620023c5565b600083511115620023865782518084602001fd5b816040517f08c379a0000000000000000000000000000000000000000000000000000000008152600401620023bc919062002b2c565b60405180910390fd5b9392505050565b61103d80620033bf83390190565b6000620023f1620023eb8462002d37565b62002d0e565b9050828152602081018484840111156200240a57600080fd5b6200241784828562002ef9565b509392505050565b600081359050620024308162003356565b92915050565b600081359050620024478162003370565b92915050565b6000813590506200245e816200338a565b92915050565b600082601f8301126200247657600080fd5b813562002488848260208601620023da565b91505092915050565b600081359050620024a281620033a4565b92915050565b600060208284031215620024bb57600080fd5b6000620024cb848285016200241f565b91505092915050565b600080600060608486031215620024ea57600080fd5b6000620024fa868287016200241f565b93505060206200250d868287016200241f565b925050604062002520868287016200241f565b9150509250925092565b600080604083850312156200253e57600080fd5b60006200254e858286016200241f565b925050602083013567ffffffffffffffff8111156200256c57600080fd5b6200257a8582860162002464565b9150509250929050565b600080604083850312156200259857600080fd5b6000620025a8858286016200241f565b9250506020620025bb8582860162002491565b9150509250929050565b600080600060608486031215620025db57600080fd5b6000620025eb868287016200241f565b9350506020620025fe8682870162002491565b925050604062002611868287016200241f565b9150509250925092565b6000602082840312156200262e57600080fd5b60006200263e8482850162002436565b91505092915050565b600080604083850312156200265b57600080fd5b60006200266b8582860162002436565b92505060206200267e858286016200241f565b9150509250929050565b6000602082840312156200269b57600080fd5b6000620026ab848285016200244d565b91505092915050565b620026bf8162002e79565b82525050565b620026d08162002e8d565b82525050565b620026e18162002e99565b82525050565b6000620026f48262002d6d565b62002700818562002d83565b93506200271281856020860162002f08565b6200271d816200304f565b840191505092915050565b6000620027358262002d6d565b62002741818562002d94565b93506200275381856020860162002f08565b80840191505092915050565b60006200276c8262002d78565b62002778818562002d9f565b93506200278a81856020860162002f08565b62002795816200304f565b840191505092915050565b6000620027ad8262002d78565b620027b9818562002db0565b9350620027cb81856020860162002f08565b80840191505092915050565b6000620027e660178362002d9f565b9150620027f38262003060565b602082019050919050565b60006200280d60208362002d9f565b91506200281a8262003089565b602082019050919050565b600062002834602f8362002d9f565b91506200284182620030b2565b604082019050919050565b60006200285b602c8362002d9f565b9150620028688262003101565b604082019050919050565b600062002882602c8362002d9f565b91506200288f8262003150565b604082019050919050565b6000620028a9602e8362002d9f565b9150620028b6826200319f565b604082019050919050565b6000620028d0602d8362002d9f565b9150620028dd82620031ee565b604082019050919050565b6000620028f760268362002d9f565b915062002904826200323d565b604082019050919050565b60006200291e60138362002d9f565b91506200292b826200328c565b602082019050919050565b60006200294560178362002db0565b91506200295282620032b5565b601782019050919050565b60006200296c60118362002db0565b91506200297982620032de565b601182019050919050565b600062002993602f8362002d9f565b9150620029a08262003307565b604082019050919050565b620029b68162002eef565b82525050565b6000620029ca828462002728565b915081905092915050565b6000620029e28262002936565b9150620029f08285620027a0565b9150620029fd826200295d565b915062002a0b8284620027a0565b91508190509392505050565b600060208201905062002a2e6000830184620026b4565b92915050565b600060808201905062002a4b6000830187620026b4565b62002a5a6020830186620026b4565b62002a696040830185620026b4565b62002a786060830184620029ab565b95945050505050565b600060608201905062002a986000830186620026b4565b62002aa76020830185620026b4565b62002ab66040830184620029ab565b949350505050565b600060408201905062002ad56000830185620026b4565b818103602083015262002ae98184620026e7565b90509392505050565b600060208201905062002b096000830184620026c5565b92915050565b600060208201905062002b266000830184620026d6565b92915050565b6000602082019050818103600083015262002b4881846200275f565b905092915050565b6000602082019050818103600083015262002b6b81620027d7565b9050919050565b6000602082019050818103600083015262002b8d81620027fe565b9050919050565b6000602082019050818103600083015262002baf8162002825565b9050919050565b6000602082019050818103600083015262002bd1816200284c565b9050919050565b6000602082019050818103600083015262002bf38162002873565b9050919050565b6000602082019050818103600083015262002c15816200289a565b9050919050565b6000602082019050818103600083015262002c3781620028c1565b9050919050565b6000602082019050818103600083015262002c5981620028e8565b9050919050565b6000602082019050818103600083015262002c7b816200290f565b9050919050565b6000602082019050818103600083015262002c9d8162002984565b9050919050565b600060208201905062002cbb6000830184620029ab565b92915050565b600060808201905062002cd86000830187620029ab565b62002ce76020830186620026b4565b62002cf66040830185620026b4565b62002d056060830184620026b4565b95945050505050565b600062002d1a62002d2d565b905062002d28828262002f6d565b919050565b6000604051905090565b600067ffffffffffffffff82111562002d555762002d5462003020565b5b62002d60826200304f565b9050602081019050919050565b600081519050919050565b600081519050919050565b600082825260208201905092915050565b600081905092915050565b600082825260208201905092915050565b600081905092915050565b600062002dc88262002eef565b915062002dd58362002eef565b9250827fffffffffffffffffffffffffffffffffffffffffffffffffffffffffffffffff0382111562002e0d5762002e0c62002ff1565b5b828201905092915050565b600062002e258262002eef565b915062002e328362002eef565b9250817fffffffffffffffffffffffffffffffffffffffffffffffffffffffffffffffff048311821515161562002e6e5762002e6d62002ff1565b5b828202905092915050565b600062002e868262002ecf565b9050919050565b60008115159050919050565b6000819050919050565b60007fffffffff0000000000000000000000000000000000000000000000000000000082169050919050565b600073ffffffffffffffffffffffffffffffffffffffff82169050919050565b6000819050919050565b82818337600083830152505050565b60005b8381101562002f2857808201518184015260208101905062002f0b565b8381111562002f38576000848401525b50505050565b600062002f4b8262002eef565b9150600082141562002f625762002f6162002ff1565b5b600182039050919050565b62002f78826200304f565b810181811067ffffffffffffffff8211171562002f9a5762002f9962003020565b5b80604052505050565b600062002fb08262002eef565b91507fffffffffffffffffffffffffffffffffffffffffffffffffffffffffffffffff82141562002fe65762002fe562002ff1565b5b600182019050919050565b7f4e487b7100000000000000000000000000000000000000000000000000000000600052601160045260246000fd5b7f4e487b7100000000000000000000000000000000000000000000000000000000600052604160045260246000fd5b6000601f19601f8301169050919050565b7f436f6c6c656374696f6e206e6f7420617070726f766564000000000000000000600082015250565b7f537472696e67733a20686578206c656e67746820696e73756666696369656e74600082015250565b7f45524331393637557067726164653a207570677261646520627265616b73206660008201527f7572746865722075706772616465730000000000000000000000000000000000602082015250565b7f46756e6374696f6e206d7573742062652063616c6c6564207468726f7567682060008201527f64656c656761746563616c6c0000000000000000000000000000000000000000602082015250565b7f46756e6374696f6e206d7573742062652063616c6c6564207468726f7567682060008201527f6163746976652070726f78790000000000000000000000000000000000000000602082015250565b7f496e697469616c697a61626c653a20636f6e747261637420697320616c72656160008201527f647920696e697469616c697a6564000000000000000000000000000000000000602082015250565b7f455243313936373a206e657720696d706c656d656e746174696f6e206973206e60008201527f6f74206120636f6e747261637400000000000000000000000000000000000000602082015250565b7f416464726573733a2064656c65676174652063616c6c20746f206e6f6e2d636f60008201527f6e74726163740000000000000000000000000000000000000000000000000000602082015250565b7f536f6e6720616c7265616479207374616b656400000000000000000000000000600082015250565b7f416363657373436f6e74726f6c3a206163636f756e7420000000000000000000600082015250565b7f206973206d697373696e6720726f6c6520000000000000000000000000000000600082015250565b7f416363657373436f6e74726f6c3a2063616e206f6e6c792072656e6f756e636560008201527f20726f6c657320666f722073656c660000000000000000000000000000000000602082015250565b620033618162002e79565b81146200336d57600080fd5b50565b6200337b8162002e99565b81146200338757600080fd5b50565b620033958162002ea3565b8114620033a157600080fd5b50565b620033af8162002eef565b8114620033bb57600080fd5b5056fe60806040526040516200103d3803806200103d8339818101604052810190620000299190620005e1565b60017fa3f0ad74e5423aebfd80d3ef4346578335a9a72aeaee59ff6cb3582b35133d5160001c6200005b91906200085c565b60001b7fa3f0ad74e5423aebfd80d3ef4346578335a9a72aeaee59ff6cb3582b35133d5060001b14620000b7577f4e487b7100000000000000000000000000000000000000000000000000000000600052600160045260246000fd5b620000cb82826000620000d360201b60201c565b505062000ab7565b620000e483620001da60201b60201c565b8273ffffffffffffffffffffffffffffffffffffffff167f1cf3b03a6cf19fa2baba4df148e9dcabedea7f8a5c07840e207e5c089be95d3e60405160405180910390a2600082511180620001355750805b15620001d557620001d38373ffffffffffffffffffffffffffffffffffffffff16635c60da1b6040518163ffffffff1660e01b815260040160206040518083038186803b1580156200018657600080fd5b505afa1580156200019b573d6000803e3d6000fd5b505050506040513d601f19601f82011682018060405250810190620001c19190620005b5565b836200038960201b620000371760201c565b505b505050565b620001f081620003bf60201b620000641760201c565b62000232576040517f08c379a0000000000000000000000000000000000000000000000000000000008152600401620002299062000765565b60405180910390fd5b620002c98173ffffffffffffffffffffffffffffffffffffffff16635c60da1b6040518163ffffffff1660e01b815260040160206040518083038186803b1580156200027d57600080fd5b505afa15801562000292573d6000803e3d6000fd5b505050506040513d601f19601f82011682018060405250810190620002b89190620005b5565b620003bf60201b620000641760201c565b6200030b576040517f08c379a00000000000000000000000000000000000000000000000000000000081526004016200030290620007a9565b60405180910390fd5b80620003457fa3f0ad74e5423aebfd80d3ef4346578335a9a72aeaee59ff6cb3582b35133d5060001b620003d260201b620000771760201c565b60000160006101000a81548173ffffffffffffffffffffffffffffffffffffffff021916908373ffffffffffffffffffffffffffffffffffffffff16021790555050565b6060620003b783836040518060600160405280602781526020016200101660279139620003dc60201b60201c565b905092915050565b600080823b905060008111915050919050565b6000819050919050565b6060620003ef84620003bf60201b60201c565b62000431576040517f08c379a0000000000000000000000000000000000000000000000000000000008152600401620004289062000787565b60405180910390fd5b6000808573ffffffffffffffffffffffffffffffffffffffff16856040516200045b919062000728565b600060405180830381855af49150503d806000811462000498576040519150601f19603f3d011682016040523d82523d6000602084013e6200049d565b606091505b5091509150620004b5828286620004c060201b60201c565b925050509392505050565b60608315620004d25782905062000525565b600083511115620004e65782518084602001fd5b816040517f08c379a00000000000000000000000000000000000000000000000000000000081526004016200051c919062000741565b60405180910390fd5b9392505050565b6000620005436200053d84620007f4565b620007cb565b9050828152602081018484840111156200055c57600080fd5b62000569848285620008d5565b509392505050565b600081519050620005828162000a9d565b92915050565b600082601f8301126200059a57600080fd5b8151620005ac8482602086016200052c565b91505092915050565b600060208284031215620005c857600080fd5b6000620005d88482850162000571565b91505092915050565b60008060408385031215620005f557600080fd5b6000620006058582860162000571565b925050602083015167ffffffffffffffff8111156200062357600080fd5b620006318582860162000588565b9150509250929050565b600062000648826200082a565b62000654818562000840565b935062000666818560208601620008d5565b80840191505092915050565b60006200067f8262000835565b6200068b81856200084b565b93506200069d818560208601620008d5565b620006a8816200099f565b840191505092915050565b6000620006c26025836200084b565b9150620006cf82620009b0565b604082019050919050565b6000620006e96026836200084b565b9150620006f682620009ff565b604082019050919050565b6000620007106030836200084b565b91506200071d8262000a4e565b604082019050919050565b60006200073682846200063b565b915081905092915050565b600060208201905081810360008301526200075d818462000672565b905092915050565b600060208201905081810360008301526200078081620006b3565b9050919050565b60006020820190508181036000830152620007a281620006da565b9050919050565b60006020820190508181036000830152620007c48162000701565b9050919050565b6000620007d7620007ea565b9050620007e582826200090b565b919050565b6000604051905090565b600067ffffffffffffffff82111562000812576200081162000970565b5b6200081d826200099f565b9050602081019050919050565b600081519050919050565b600081519050919050565b600081905092915050565b600082825260208201905092915050565b60006200086982620008cb565b91506200087683620008cb565b9250828210156200088c576200088b62000941565b5b828203905092915050565b6000620008a482620008ab565b9050919050565b600073ffffffffffffffffffffffffffffffffffffffff82169050919050565b6000819050919050565b60005b83811015620008f5578082015181840152602081019050620008d8565b8381111562000905576000848401525b50505050565b62000916826200099f565b810181811067ffffffffffffffff8211171562000938576200093762000970565b5b80604052505050565b7f4e487b7100000000000000000000000000000000000000000000000000000000600052601160045260246000fd5b7f4e487b7100000000000000000000000000000000000000000000000000000000600052604160045260246000fd5b6000601f19601f8301169050919050565b7f455243313936373a206e657720626561636f6e206973206e6f74206120636f6e60008201527f7472616374000000000000000000000000000000000000000000000000000000602082015250565b7f416464726573733a2064656c65676174652063616c6c20746f206e6f6e2d636f60008201527f6e74726163740000000000000000000000000000000000000000000000000000602082015250565b7f455243313936373a20626561636f6e20696d706c656d656e746174696f6e206960008201527f73206e6f74206120636f6e747261637400000000000000000000000000000000602082015250565b62000aa88162000897565b811462000ab457600080fd5b50565b61054f8062000ac76000396000f3fe6080604052366100135761001161001d565b005b61001b61001d565b005b610025610081565b610035610030610083565b61010f565b565b606061005c83836040518060600160405280602781526020016104f360279139610135565b905092915050565b600080823b905060008111915050919050565b6000819050919050565b565b600061008d610202565b73ffffffffffffffffffffffffffffffffffffffff16635c60da1b6040518163ffffffff1660e01b815260040160206040518083038186803b1580156100d257600080fd5b505afa1580156100e6573d6000803e3d6000fd5b505050506040513d601f19601f8201168201806040525081019061010a91906102d5565b905090565b3660008037600080366000845af43d6000803e8060008114610130573d6000f35b3d6000fd5b606061014084610064565b61017f576040517f08c379a0000000000000000000000000000000000000000000000000000000008152600401610176906103c4565b60405180910390fd5b6000808573ffffffffffffffffffffffffffffffffffffffff16856040516101a7919061038b565b600060405180830381855af49150503d80600081146101e2576040519150601f19603f3d011682016040523d82523d6000602084013e6101e7565b606091505b50915091506101f7828286610259565b925050509392505050565b60006102307fa3f0ad74e5423aebfd80d3ef4346578335a9a72aeaee59ff6cb3582b35133d5060001b610077565b60000160009054906101000a900473ffffffffffffffffffffffffffffffffffffffff16905090565b60608315610269578290506102b9565b60008351111561027c5782518084602001fd5b816040517f08c379a00000000000000000000000000000000000000000000000000000000081526004016102b091906103a2565b60405180910390fd5b9392505050565b6000815190506102cf816104db565b92915050565b6000602082840312156102e757600080fd5b60006102f5848285016102c0565b91505092915050565b6000610309826103e4565b61031381856103fa565b9350610323818560208601610448565b80840191505092915050565b600061033a826103ef565b6103448185610405565b9350610354818560208601610448565b61035d8161047b565b840191505092915050565b6000610375602683610405565b91506103808261048c565b604082019050919050565b600061039782846102fe565b915081905092915050565b600060208201905081810360008301526103bc818461032f565b905092915050565b600060208201905081810360008301526103dd81610368565b9050919050565b600081519050919050565b600081519050919050565b600081905092915050565b600082825260208201905092915050565b600061042182610428565b9050919050565b600073ffffffffffffffffffffffffffffffffffffffff82169050919050565b60005b8381101561046657808201518184015260208101905061044b565b83811115610475576000848401525b50505050565b6000601f19601f8301169050919050565b7f416464726573733a2064656c65676174652063616c6c20746f206e6f6e2d636f60008201527f6e74726163740000000000000000000000000000000000000000000000000000602082015250565b6104e481610416565b81146104ef57600080fd5b5056fe416464726573733a206c6f772d6c6576656c2064656c65676174652063616c6c206661696c6564a26469706673582212205d42d078d2c5db4a6f14292bb8e3e218389a80ee58c01746318dc0f4df3e662664736f6c63430008040033416464726573733a206c6f772d6c6576656c2064656c65676174652063616c6c206661696c6564416464726573733a206c6f772d6c6576656c2064656c65676174652063616c6c206661696c6564a26469706673582212205fa7ccfe8472747bdbaeec2bb19e502a7f2842f7deaed147821a397dba36d2b164736f6c63430008040033",
  "devdoc": {
    "events": {
      "SongStaked(address,uint256,address,address,address)": {
        "details": "emitted when a ser stakes a song",
        "params": {
          "artistRevenueAccount": "the address of the account receiving the artists shares",
          "collection": "the address of the collection contract",
          "songContract": "the song contract deployed",
          "staker": "the address of the account staking the song",
          "tokenId": "the id of the nft"
        }
      }
    },
    "kind": "dev",
    "methods": {
      "blacklistCollection(address)": {
        "details": "allows governance to blacklist a collection",
        "params": {
          "collection_": "the address of the collection to blacklist"
        }
      },
      "constructor": {
        "details": "the initializer modifier is to avoid someone initializing      the implementation contract after deployment"
      },
      "getRoleAdmin(bytes32)": {
        "details": "Returns the admin role that controls `role`. See {grantRole} and {revokeRole}. To change a role's admin, use {_setRoleAdmin}."
      },
      "grantRole(bytes32,address)": {
        "details": "Grants `role` to `account`. If `account` had not been already granted `role`, emits a {RoleGranted} event. Requirements: - the caller must have ``role``'s admin role."
      },
      "hasRole(bytes32,address)": {
        "details": "Returns `true` if `account` has been granted `role`."
      },
      "initialize(address,address,address)": {
        "details": "initializes the protocol and router addresses,      sets the UPGRADER_ROLE to governance (only governance can upgrade)      and also the WHITELISTER_ROLE to add and remove collections to the governance",
        "params": {
          "beacon_": "the beacon upgradeable contract of the songs",
          "governance_": "the address of the goverance contract (timelock actually)"
        }
      },
      "renounceRole(bytes32,address)": {
        "details": "Revokes `role` from the calling account. Roles are often managed via {grantRole} and {revokeRole}: this function's purpose is to provide a mechanism for accounts to lose their privileges if they are compromised (such as when a trusted device is misplaced). If the calling account had been granted `role`, emits a {RoleRevoked} event. Requirements: - the caller must be `account`."
      },
      "revokeRole(bytes32,address)": {
        "details": "Revokes `role` from `account`. If `account` had been granted `role`, emits a {RoleRevoked} event. Requirements: - the caller must have ``role``'s admin role."
      },
      "stake(address,uint256,address)": {
        "params": {
          "artistRevenueAccount_": "the address which should receive the artists funds",
          "collection_": "the address of the collection",
          "tokenId_": "the id of the NFT in the collection"
        }
      },
      "supportsInterface(bytes4)": {
        "details": "See {IERC165-supportsInterface}."
      },
      "upgradeTo(address)": {
        "details": "Upgrade the implementation of the proxy to `newImplementation`. Calls {_authorizeUpgrade}. Emits an {Upgraded} event."
      },
      "upgradeToAndCall(address,bytes)": {
        "details": "Upgrade the implementation of the proxy to `newImplementation`, and subsequently execute the function call encoded in `data`. Calls {_authorizeUpgrade}. Emits an {Upgraded} event."
      },
      "whitelistCollection(address)": {
        "details": "allows governance to whitelist a collection",
        "params": {
          "collection_": "the address of the collection to whitelist"
        }
      }
    },
    "stateVariables": {
      "_beacon": {
        "details": "the address of the beacon contract for the song proxies upgrades"
      }
    },
    "title": "the router to register songs (fabric) and manage collections",
    "version": 1
  },
  "userdoc": {
    "kind": "user",
    "methods": {
      "revenueOracle()": {
        "notice": "the address of the revenue oracle"
      },
      "stake(address,uint256,address)": {
        "notice": "stake an NFT from a whitelisted collection in the contract,         deploying the corresponding Song proxy contract"
      },
      "stakedSongs(address,uint256)": {
        "notice": "map to check if a holder has a token staked from an approved collection  COLLECTION_CONTRACT_ADDRESS => NFT_ID => HOLDER_ACCOUNT_ADDRESS OR ZERO_ADDRESS"
      },
      "stakedSongsCounter()": {
        "notice": "the counter of the songs staked"
      },
      "whitelistedCollections(address)": {
        "notice": "the curated list of whitelisted addresses"
      }
    },
    "version": 1
  },
  "storageLayout": {
    "storage": [
      {
        "astId": 2915,
        "contract": "contracts/songs/SongsRouter.sol:SongsRouter",
        "label": "_initialized",
        "offset": 0,
        "slot": "0",
        "type": "t_bool"
      },
      {
        "astId": 2918,
        "contract": "contracts/songs/SongsRouter.sol:SongsRouter",
        "label": "_initializing",
        "offset": 1,
        "slot": "0",
        "type": "t_bool"
      },
      {
        "astId": 4517,
        "contract": "contracts/songs/SongsRouter.sol:SongsRouter",
        "label": "__gap",
        "offset": 0,
        "slot": "1",
        "type": "t_array(t_uint256)50_storage"
      },
      {
        "astId": 4900,
        "contract": "contracts/songs/SongsRouter.sol:SongsRouter",
        "label": "__gap",
        "offset": 0,
        "slot": "51",
        "type": "t_array(t_uint256)50_storage"
      },
      {
        "astId": 2142,
        "contract": "contracts/songs/SongsRouter.sol:SongsRouter",
        "label": "_roles",
        "offset": 0,
        "slot": "101",
        "type": "t_mapping(t_bytes32,t_struct(RoleData)2137_storage)"
      },
      {
        "astId": 2427,
        "contract": "contracts/songs/SongsRouter.sol:SongsRouter",
        "label": "__gap",
        "offset": 0,
        "slot": "102",
        "type": "t_array(t_uint256)49_storage"
      },
      {
        "astId": 2898,
        "contract": "contracts/songs/SongsRouter.sol:SongsRouter",
        "label": "__gap",
        "offset": 0,
        "slot": "151",
        "type": "t_array(t_uint256)50_storage"
      },
      {
        "astId": 3065,
        "contract": "contracts/songs/SongsRouter.sol:SongsRouter",
        "label": "__gap",
        "offset": 0,
        "slot": "201",
        "type": "t_array(t_uint256)50_storage"
      },
      {
        "astId": 6764,
        "contract": "contracts/songs/SongsRouter.sol:SongsRouter",
        "label": "whitelistedCollections",
        "offset": 0,
        "slot": "251",
        "type": "t_mapping(t_address,t_bool)"
      },
      {
        "astId": 7718,
        "contract": "contracts/songs/SongsRouter.sol:SongsRouter",
        "label": "_beacon",
        "offset": 0,
        "slot": "252",
        "type": "t_address"
      },
      {
        "astId": 7721,
        "contract": "contracts/songs/SongsRouter.sol:SongsRouter",
        "label": "stakedSongsCounter",
        "offset": 0,
        "slot": "253",
        "type": "t_uint256"
      },
      {
        "astId": 7724,
        "contract": "contracts/songs/SongsRouter.sol:SongsRouter",
        "label": "revenueOracle",
        "offset": 0,
        "slot": "254",
        "type": "t_address"
      },
      {
        "astId": 7731,
        "contract": "contracts/songs/SongsRouter.sol:SongsRouter",
        "label": "stakedSongs",
        "offset": 0,
        "slot": "255",
        "type": "t_mapping(t_address,t_mapping(t_uint256,t_address))"
      }
    ],
    "types": {
      "t_address": {
        "encoding": "inplace",
        "label": "address",
        "numberOfBytes": "20"
      },
      "t_array(t_uint256)49_storage": {
        "base": "t_uint256",
        "encoding": "inplace",
        "label": "uint256[49]",
        "numberOfBytes": "1568"
      },
      "t_array(t_uint256)50_storage": {
        "base": "t_uint256",
        "encoding": "inplace",
        "label": "uint256[50]",
        "numberOfBytes": "1600"
      },
      "t_bool": {
        "encoding": "inplace",
        "label": "bool",
        "numberOfBytes": "1"
      },
      "t_bytes32": {
        "encoding": "inplace",
        "label": "bytes32",
        "numberOfBytes": "32"
      },
      "t_mapping(t_address,t_bool)": {
        "encoding": "mapping",
        "key": "t_address",
        "label": "mapping(address => bool)",
        "numberOfBytes": "32",
        "value": "t_bool"
      },
      "t_mapping(t_address,t_mapping(t_uint256,t_address))": {
        "encoding": "mapping",
        "key": "t_address",
        "label": "mapping(address => mapping(uint256 => address))",
        "numberOfBytes": "32",
        "value": "t_mapping(t_uint256,t_address)"
      },
      "t_mapping(t_bytes32,t_struct(RoleData)2137_storage)": {
        "encoding": "mapping",
        "key": "t_bytes32",
        "label": "mapping(bytes32 => struct AccessControlUpgradeable.RoleData)",
        "numberOfBytes": "32",
        "value": "t_struct(RoleData)2137_storage"
      },
      "t_mapping(t_uint256,t_address)": {
        "encoding": "mapping",
        "key": "t_uint256",
        "label": "mapping(uint256 => address)",
        "numberOfBytes": "32",
        "value": "t_address"
      },
      "t_struct(RoleData)2137_storage": {
        "encoding": "inplace",
        "label": "struct AccessControlUpgradeable.RoleData",
        "members": [
          {
            "astId": 2134,
            "contract": "contracts/songs/SongsRouter.sol:SongsRouter",
            "label": "members",
            "offset": 0,
            "slot": "0",
            "type": "t_mapping(t_address,t_bool)"
          },
          {
            "astId": 2136,
            "contract": "contracts/songs/SongsRouter.sol:SongsRouter",
            "label": "adminRole",
            "offset": 0,
            "slot": "1",
            "type": "t_bytes32"
          }
        ],
        "numberOfBytes": "64"
      },
      "t_uint256": {
        "encoding": "inplace",
        "label": "uint256",
        "numberOfBytes": "32"
      }
    }
  }
}