{
  "address": "0x27f69429E5D390cE3d25E354fE4caEeB4a78a430",
  "abi": [
    {
      "inputs": [],
      "stateMutability": "nonpayable",
      "type": "constructor"
    },
    {
      "anonymous": false,
      "inputs": [
        {
          "indexed": false,
          "internalType": "bytes32",
          "name": "requestId",
          "type": "bytes32"
        }
      ],
      "name": "ClaimRequested",
      "type": "event"
    },
    {
      "inputs": [],
      "name": "artistRevenueAccount",
      "outputs": [
        {
          "internalType": "address",
          "name": "",
          "type": "address"
        }
      ],
      "stateMutability": "view",
      "type": "function"
    },
    {
      "inputs": [],
      "name": "claim",
      "outputs": [],
      "stateMutability": "nonpayable",
      "type": "function"
    },
    {
      "inputs": [
        {
          "internalType": "address",
          "name": "songsRouter_",
          "type": "address"
        },
        {
          "internalType": "address",
          "name": "artistRevenueAccount_",
          "type": "address"
        },
        {
          "internalType": "address",
          "name": "originalCollection_",
          "type": "address"
        },
        {
          "internalType": "uint256",
          "name": "tokenId_",
          "type": "uint256"
        }
      ],
      "name": "initialize",
      "outputs": [],
      "stateMutability": "nonpayable",
      "type": "function"
    },
    {
      "inputs": [],
      "name": "lastClaimTimestamp",
      "outputs": [
        {
          "internalType": "uint64",
          "name": "",
          "type": "uint64"
        }
      ],
      "stateMutability": "view",
      "type": "function"
    },
    {
      "inputs": [],
      "name": "songOriginalCollection",
      "outputs": [
        {
          "internalType": "address",
          "name": "",
          "type": "address"
        }
      ],
      "stateMutability": "view",
      "type": "function"
    },
    {
      "inputs": [],
      "name": "songOriginalTokenId",
      "outputs": [
        {
          "internalType": "uint256",
          "name": "",
          "type": "uint256"
        }
      ],
      "stateMutability": "view",
      "type": "function"
    },
    {
      "inputs": [],
      "name": "songsRouter",
      "outputs": [
        {
          "internalType": "address",
          "name": "",
          "type": "address"
        }
      ],
      "stateMutability": "view",
      "type": "function"
    }
  ],
  "transactionHash": "0xf48edb02345fe93ff908eccc180edb92a279b5236d4473c07d69836a239a5cdf",
  "args": [],
  "solcInputHash": "fd750c0783e29ee55e57a970f1bbddce",
  "bytecode": "0x608060405234801561001057600080fd5b50600060019054906101000a900460ff1680610037575060008054906101000a900460ff16155b610076576040517f08c379a000000000000000000000000000000000000000000000000000000000815260040161006d90610110565b60405180910390fd5b60008060019054906101000a900460ff1615905080156100c6576001600060016101000a81548160ff02191690831515021790555060016000806101000a81548160ff0219169083151502179055505b80156100e75760008060016101000a81548160ff0219169083151502179055505b50610190565b60006100fa602e83610130565b915061010582610141565b604082019050919050565b60006020820190508181036000830152610129816100ed565b9050919050565b600082825260208201905092915050565b7f496e697469616c697a61626c653a20636f6e747261637420697320616c72656160008201527f647920696e697469616c697a6564000000000000000000000000000000000000602082015250565b61096e8061019f6000396000f3fe608060405234801561001057600080fd5b506004361061007d5760003560e01c80638dfa479b1161005b5780638dfa479b146100c8578063a8cfc78c146100e6578063cf756fdf14610104578063f3912681146101205761007d565b80634c169bda146100825780634e71d92d146100a0578063607af397146100aa575b600080fd5b61008a61013e565b6040516100979190610755565b60405180910390f35b6100a8610144565b005b6100b2610321565b6040516100bf9190610770565b60405180910390f35b6100d061033b565b6040516100dd91906106df565b60405180910390f35b6100ee610361565b6040516100fb91906106df565b60405180910390f35b61011e600480360381019061011991906105d1565b610387565b005b61012861052e565b60405161013591906106df565b60405180910390f35b60035481565b62093a80600160149054906101000a900467ffffffffffffffff1667ffffffffffffffff16610173919061079c565b42116101b4576040517f08c379a00000000000000000000000000000000000000000000000000000000081526004016101ab90610735565b60405180910390fd5b60008060029054906101000a900473ffffffffffffffffffffffffffffffffffffffff1673ffffffffffffffffffffffffffffffffffffffff166356187a646040518163ffffffff1660e01b815260040160206040518083038186803b15801561021d57600080fd5b505afa158015610231573d6000803e3d6000fd5b505050506040513d601f19601f8201168201806040525081019061025591906105a8565b905060008173ffffffffffffffffffffffffffffffffffffffff1663ce003d03306040518263ffffffff1660e01b815260040161029291906106df565b602060405180830381600087803b1580156102ac57600080fd5b505af11580156102c0573d6000803e3d6000fd5b505050506040513d601f19601f820116820180604052508101906102e49190610634565b90507fb1aa8ecae399a4e33fd0d1929c25b78aa62702ac791c7698ef40e6f30dad3d218160405161031591906106fa565b60405180910390a15050565b600160149054906101000a900467ffffffffffffffff1681565b600160009054906101000a900473ffffffffffffffffffffffffffffffffffffffff1681565b600260009054906101000a900473ffffffffffffffffffffffffffffffffffffffff1681565b600060019054906101000a900460ff16806103ad575060008054906101000a900460ff16155b6103ec576040517f08c379a00000000000000000000000000000000000000000000000000000000081526004016103e390610715565b60405180910390fd5b60008060019054906101000a900460ff16159050801561043c576001600060016101000a81548160ff02191690831515021790555060016000806101000a81548160ff0219169083151502179055505b84600060026101000a81548173ffffffffffffffffffffffffffffffffffffffff021916908373ffffffffffffffffffffffffffffffffffffffff16021790555083600160006101000a81548173ffffffffffffffffffffffffffffffffffffffff021916908373ffffffffffffffffffffffffffffffffffffffff16021790555082600260006101000a81548173ffffffffffffffffffffffffffffffffffffffff021916908373ffffffffffffffffffffffffffffffffffffffff1602179055508160038190555080156105275760008060016101000a81548160ff0219169083151502179055505b5050505050565b600060029054906101000a900473ffffffffffffffffffffffffffffffffffffffff1681565b600081359050610563816108f3565b92915050565b600081519050610578816108f3565b92915050565b60008151905061058d8161090a565b92915050565b6000813590506105a281610921565b92915050565b6000602082840312156105ba57600080fd5b60006105c884828501610569565b91505092915050565b600080600080608085870312156105e757600080fd5b60006105f587828801610554565b945050602061060687828801610554565b935050604061061787828801610554565b925050606061062887828801610593565b91505092959194509250565b60006020828403121561064657600080fd5b60006106548482850161057e565b91505092915050565b610666816107f2565b82525050565b61067581610804565b82525050565b6000610688602e8361078b565b91506106938261087b565b604082019050919050565b60006106ab601b8361078b565b91506106b6826108ca565b602082019050919050565b6106ca8161082e565b82525050565b6106d981610838565b82525050565b60006020820190506106f4600083018461065d565b92915050565b600060208201905061070f600083018461066c565b92915050565b6000602082019050818103600083015261072e8161067b565b9050919050565b6000602082019050818103600083015261074e8161069e565b9050919050565b600060208201905061076a60008301846106c1565b92915050565b600060208201905061078560008301846106d0565b92915050565b600082825260208201905092915050565b60006107a78261082e565b91506107b28361082e565b9250827fffffffffffffffffffffffffffffffffffffffffffffffffffffffffffffffff038211156107e7576107e661084c565b5b828201905092915050565b60006107fd8261080e565b9050919050565b6000819050919050565b600073ffffffffffffffffffffffffffffffffffffffff82169050919050565b6000819050919050565b600067ffffffffffffffff82169050919050565b7f4e487b7100000000000000000000000000000000000000000000000000000000600052601160045260246000fd5b7f496e697469616c697a61626c653a20636f6e747261637420697320616c72656160008201527f647920696e697469616c697a6564000000000000000000000000000000000000602082015250565b7f436c61696d2068617320746f20626520646f6e65207765656b6c790000000000600082015250565b6108fc816107f2565b811461090757600080fd5b50565b61091381610804565b811461091e57600080fd5b50565b61092a8161082e565b811461093557600080fd5b5056fea2646970667358221220ec0b247c6396413ad0b77892df478970c71dee399ad3394ca9b3d210abc474e964736f6c63430008040033",
  "devdoc": {
    "events": {
      "ClaimRequested(bytes32)": {
        "details": "emitted when a claim is requested",
        "params": {
          "requestId": "the Chainlink request id"
        }
      }
    },
    "kind": "dev",
    "methods": {
      "constructor": {
        "details": "the initializer modifier is to avoid someone initializing      the implementation contract after deployment"
      },
      "initialize(address,address,address,uint256)": {
        "details": "initializes the song (called by songs router manager after deploy)",
        "params": {
          "artistRevenueAccount_": "the address which should receive the artist revenue",
          "originalCollection_": "the address of nft collection where the song is registered",
          "songsRouter_": "the address of the SongsRouter contract",
          "tokenId_": "the id of the song nft"
        }
      }
    },
    "title": "the song contract to handle monetization",
    "version": 1
  },
  "userdoc": {
    "kind": "user",
    "methods": {
      "artistRevenueAccount()": {
        "notice": "the address which should receive the artist revenue"
      },
      "claim()": {
        "notice": "allows to distribute the weekly revenue to the right users"
      },
      "lastClaimTimestamp()": {
        "notice": "the timestamp of the block where the last claim was called"
      },
      "songOriginalCollection()": {
        "notice": "the address of nft collection where the song is registered"
      },
      "songOriginalTokenId()": {
        "notice": "the id of the song nft"
      },
      "songsRouter()": {
        "notice": "the address of songs router (song contract fabric)"
      }
    },
    "version": 1
  },
  "storageLayout": {
    "storage": [
      {
        "astId": 2915,
        "contract": "contracts/songs/Song.sol:Song",
        "label": "_initialized",
        "offset": 0,
        "slot": "0",
        "type": "t_bool"
      },
      {
        "astId": 2918,
        "contract": "contracts/songs/Song.sol:Song",
        "label": "_initializing",
        "offset": 1,
        "slot": "0",
        "type": "t_bool"
      },
      {
        "astId": 7419,
        "contract": "contracts/songs/Song.sol:Song",
        "label": "songsRouter",
        "offset": 2,
        "slot": "0",
        "type": "t_address"
      },
      {
        "astId": 7422,
        "contract": "contracts/songs/Song.sol:Song",
        "label": "artistRevenueAccount",
        "offset": 0,
        "slot": "1",
        "type": "t_address"
      },
      {
        "astId": 7425,
        "contract": "contracts/songs/Song.sol:Song",
        "label": "lastClaimTimestamp",
        "offset": 20,
        "slot": "1",
        "type": "t_uint64"
      },
      {
        "astId": 7428,
        "contract": "contracts/songs/Song.sol:Song",
        "label": "songOriginalCollection",
        "offset": 0,
        "slot": "2",
        "type": "t_address"
      },
      {
        "astId": 7431,
        "contract": "contracts/songs/Song.sol:Song",
        "label": "songOriginalTokenId",
        "offset": 0,
        "slot": "3",
        "type": "t_uint256"
      }
    ],
    "types": {
      "t_address": {
        "encoding": "inplace",
        "label": "address",
        "numberOfBytes": "20"
      },
      "t_bool": {
        "encoding": "inplace",
        "label": "bool",
        "numberOfBytes": "1"
      },
      "t_uint256": {
        "encoding": "inplace",
        "label": "uint256",
        "numberOfBytes": "32"
      },
      "t_uint64": {
        "encoding": "inplace",
        "label": "uint64",
        "numberOfBytes": "8"
      }
    }
  }
}