{
  "address": "0x062620cB4E2B74E37D1FbC6D7ffa462e153238B9",
  "abi": [
    {
      "inputs": [],
      "stateMutability": "nonpayable",
      "type": "constructor"
    },
    {
      "anonymous": false,
      "inputs": [
        {
          "indexed": true,
          "internalType": "address",
          "name": "owner",
          "type": "address"
        },
        {
          "indexed": true,
          "internalType": "address",
          "name": "approved",
          "type": "address"
        },
        {
          "indexed": true,
          "internalType": "uint256",
          "name": "tokenId",
          "type": "uint256"
        }
      ],
      "name": "Approval",
      "type": "event"
    },
    {
      "anonymous": false,
      "inputs": [
        {
          "indexed": true,
          "internalType": "address",
          "name": "owner",
          "type": "address"
        },
        {
          "indexed": true,
          "internalType": "address",
          "name": "operator",
          "type": "address"
        },
        {
          "indexed": false,
          "internalType": "bool",
          "name": "approved",
          "type": "bool"
        }
      ],
      "name": "ApprovalForAll",
      "type": "event"
    },
    {
      "anonymous": false,
      "inputs": [
        {
          "indexed": true,
          "internalType": "address",
          "name": "delegator",
          "type": "address"
        },
        {
          "indexed": true,
          "internalType": "address",
          "name": "fromDelegate",
          "type": "address"
        },
        {
          "indexed": true,
          "internalType": "address",
          "name": "toDelegate",
          "type": "address"
        }
      ],
      "name": "DelegateChanged",
      "type": "event"
    },
    {
      "anonymous": false,
      "inputs": [
        {
          "indexed": true,
          "internalType": "address",
          "name": "delegate",
          "type": "address"
        },
        {
          "indexed": false,
          "internalType": "uint256",
          "name": "previousBalance",
          "type": "uint256"
        },
        {
          "indexed": false,
          "internalType": "uint256",
          "name": "newBalance",
          "type": "uint256"
        }
      ],
      "name": "DelegateVotesChanged",
      "type": "event"
    },
    {
      "anonymous": false,
      "inputs": [
        {
          "indexed": true,
          "internalType": "bytes32",
          "name": "role",
          "type": "bytes32"
        },
        {
          "indexed": true,
          "internalType": "bytes32",
          "name": "previousAdminRole",
          "type": "bytes32"
        },
        {
          "indexed": true,
          "internalType": "bytes32",
          "name": "newAdminRole",
          "type": "bytes32"
        }
      ],
      "name": "RoleAdminChanged",
      "type": "event"
    },
    {
      "anonymous": false,
      "inputs": [
        {
          "indexed": true,
          "internalType": "bytes32",
          "name": "role",
          "type": "bytes32"
        },
        {
          "indexed": true,
          "internalType": "address",
          "name": "account",
          "type": "address"
        },
        {
          "indexed": true,
          "internalType": "address",
          "name": "sender",
          "type": "address"
        }
      ],
      "name": "RoleGranted",
      "type": "event"
    },
    {
      "anonymous": false,
      "inputs": [
        {
          "indexed": true,
          "internalType": "bytes32",
          "name": "role",
          "type": "bytes32"
        },
        {
          "indexed": true,
          "internalType": "address",
          "name": "account",
          "type": "address"
        },
        {
          "indexed": true,
          "internalType": "address",
          "name": "sender",
          "type": "address"
        }
      ],
      "name": "RoleRevoked",
      "type": "event"
    },
    {
      "anonymous": false,
      "inputs": [
        {
          "indexed": true,
          "internalType": "address",
          "name": "from",
          "type": "address"
        },
        {
          "indexed": true,
          "internalType": "address",
          "name": "to",
          "type": "address"
        },
        {
          "indexed": true,
          "internalType": "uint256",
          "name": "tokenId",
          "type": "uint256"
        }
      ],
      "name": "Transfer",
      "type": "event"
    },
    {
      "inputs": [],
      "name": "COPYRIGHT_TOKEN",
      "outputs": [
        {
          "internalType": "bytes32",
          "name": "",
          "type": "bytes32"
        }
      ],
      "stateMutability": "view",
      "type": "function"
    },
    {
      "inputs": [],
      "name": "DEFAULT_ADMIN_ROLE",
      "outputs": [
        {
          "internalType": "bytes32",
          "name": "",
          "type": "bytes32"
        }
      ],
      "stateMutability": "view",
      "type": "function"
    },
    {
      "inputs": [],
      "name": "DISTRIBUTION_MANAGER",
      "outputs": [
        {
          "internalType": "bytes32",
          "name": "",
          "type": "bytes32"
        }
      ],
      "stateMutability": "view",
      "type": "function"
    },
    {
      "inputs": [
        {
          "internalType": "address",
          "name": "to",
          "type": "address"
        },
        {
          "internalType": "uint256",
          "name": "tokenId",
          "type": "uint256"
        }
      ],
      "name": "approve",
      "outputs": [],
      "stateMutability": "nonpayable",
      "type": "function"
    },
    {
      "inputs": [
        {
          "internalType": "address",
          "name": "owner",
          "type": "address"
        }
      ],
      "name": "balanceOf",
      "outputs": [
        {
          "internalType": "uint256",
          "name": "",
          "type": "uint256"
        }
      ],
      "stateMutability": "view",
      "type": "function"
    },
    {
      "inputs": [
        {
          "internalType": "uint256",
          "name": "id",
          "type": "uint256"
        },
        {
          "internalType": "uint256",
          "name": "totalAccumulatedShares",
          "type": "uint256"
        }
      ],
      "name": "calculateReward",
      "outputs": [
        {
          "internalType": "uint256",
          "name": "reward",
          "type": "uint256"
        }
      ],
      "stateMutability": "view",
      "type": "function"
    },
    {
      "inputs": [
        {
          "internalType": "address",
          "name": "account",
          "type": "address"
        },
        {
          "internalType": "uint32",
          "name": "pos",
          "type": "uint32"
        }
      ],
      "name": "checkpoints",
      "outputs": [
        {
          "components": [
            {
              "internalType": "uint32",
              "name": "fromBlock",
              "type": "uint32"
            },
            {
              "internalType": "uint224",
              "name": "votes",
              "type": "uint224"
            }
          ],
          "internalType": "struct ERC20VotesCompliant.Checkpoint",
          "name": "",
          "type": "tuple"
        }
      ],
      "stateMutability": "view",
      "type": "function"
    },
    {
      "inputs": [],
      "name": "copyrightToken",
      "outputs": [
        {
          "internalType": "address",
          "name": "",
          "type": "address"
        }
      ],
      "stateMutability": "view",
      "type": "function"
    },
    {
      "inputs": [
        {
          "internalType": "address",
          "name": "to",
          "type": "address"
        },
        {
          "internalType": "uint256",
          "name": "stakeAmount",
          "type": "uint256"
        },
        {
          "internalType": "uint256",
          "name": "totalShares",
          "type": "uint256"
        }
      ],
      "name": "createPosition",
      "outputs": [
        {
          "internalType": "uint256",
          "name": "id",
          "type": "uint256"
        }
      ],
      "stateMutability": "nonpayable",
      "type": "function"
    },
    {
      "inputs": [
        {
          "internalType": "uint256",
          "name": "id",
          "type": "uint256"
        },
        {
          "internalType": "address",
          "name": "owner",
          "type": "address"
        },
        {
          "internalType": "uint256",
          "name": "amount",
          "type": "uint256"
        },
        {
          "internalType": "uint256",
          "name": "totalShares",
          "type": "uint256"
        }
      ],
      "name": "decreasePosition",
      "outputs": [],
      "stateMutability": "nonpayable",
      "type": "function"
    },
    {
      "inputs": [
        {
          "internalType": "address",
          "name": "delegatee",
          "type": "address"
        }
      ],
      "name": "delegate",
      "outputs": [],
      "stateMutability": "nonpayable",
      "type": "function"
    },
    {
      "inputs": [
        {
          "internalType": "address",
          "name": "account",
          "type": "address"
        }
      ],
      "name": "delegates",
      "outputs": [
        {
          "internalType": "address",
          "name": "",
          "type": "address"
        }
      ],
      "stateMutability": "view",
      "type": "function"
    },
    {
      "inputs": [
        {
          "internalType": "uint256",
          "name": "tokenId",
          "type": "uint256"
        }
      ],
      "name": "getApproved",
      "outputs": [
        {
          "internalType": "address",
          "name": "",
          "type": "address"
        }
      ],
      "stateMutability": "view",
      "type": "function"
    },
    {
      "inputs": [
        {
          "internalType": "uint256",
          "name": "blockNumber",
          "type": "uint256"
        }
      ],
      "name": "getPastTotalSupply",
      "outputs": [
        {
          "internalType": "uint256",
          "name": "",
          "type": "uint256"
        }
      ],
      "stateMutability": "view",
      "type": "function"
    },
    {
      "inputs": [
        {
          "internalType": "address",
          "name": "account",
          "type": "address"
        },
        {
          "internalType": "uint256",
          "name": "blockNumber",
          "type": "uint256"
        }
      ],
      "name": "getPastVotes",
      "outputs": [
        {
          "internalType": "uint256",
          "name": "",
          "type": "uint256"
        }
      ],
      "stateMutability": "view",
      "type": "function"
    },
    {
      "inputs": [
        {
          "internalType": "uint256",
          "name": "id",
          "type": "uint256"
        }
      ],
      "name": "getPosition",
      "outputs": [
        {
          "internalType": "uint256",
          "name": "stake",
          "type": "uint256"
        },
        {
          "internalType": "uint256",
          "name": "totalShares",
          "type": "uint256"
        }
      ],
      "stateMutability": "view",
      "type": "function"
    },
    {
      "inputs": [
        {
          "internalType": "address",
          "name": "owner",
          "type": "address"
        }
      ],
      "name": "getPositions",
      "outputs": [
        {
          "internalType": "uint256[]",
          "name": "",
          "type": "uint256[]"
        }
      ],
      "stateMutability": "view",
      "type": "function"
    },
    {
      "inputs": [
        {
          "internalType": "bytes32",
          "name": "role",
          "type": "bytes32"
        }
      ],
      "name": "getRoleAdmin",
      "outputs": [
        {
          "internalType": "bytes32",
          "name": "",
          "type": "bytes32"
        }
      ],
      "stateMutability": "view",
      "type": "function"
    },
    {
      "inputs": [
        {
          "internalType": "address",
          "name": "account",
          "type": "address"
        }
      ],
      "name": "getVotes",
      "outputs": [
        {
          "internalType": "uint256",
          "name": "",
          "type": "uint256"
        }
      ],
      "stateMutability": "view",
      "type": "function"
    },
    {
      "inputs": [
        {
          "internalType": "bytes32",
          "name": "role",
          "type": "bytes32"
        },
        {
          "internalType": "address",
          "name": "account",
          "type": "address"
        }
      ],
      "name": "grantRole",
      "outputs": [],
      "stateMutability": "nonpayable",
      "type": "function"
    },
    {
      "inputs": [
        {
          "internalType": "bytes32",
          "name": "role",
          "type": "bytes32"
        },
        {
          "internalType": "address",
          "name": "account",
          "type": "address"
        }
      ],
      "name": "hasRole",
      "outputs": [
        {
          "internalType": "bool",
          "name": "",
          "type": "bool"
        }
      ],
      "stateMutability": "view",
      "type": "function"
    },
    {
      "inputs": [
        {
          "internalType": "string",
          "name": "_name",
          "type": "string"
        },
        {
          "internalType": "string",
          "name": "_symbol",
          "type": "string"
        },
        {
          "internalType": "address",
          "name": "_copyrightToken",
          "type": "address"
        },
        {
          "internalType": "address",
          "name": "_stakingGovernance",
          "type": "address"
        }
      ],
      "name": "initialize",
      "outputs": [],
      "stateMutability": "nonpayable",
      "type": "function"
    },
    {
      "inputs": [
        {
          "internalType": "address",
          "name": "owner",
          "type": "address"
        },
        {
          "internalType": "address",
          "name": "operator",
          "type": "address"
        }
      ],
      "name": "isApprovedForAll",
      "outputs": [
        {
          "internalType": "bool",
          "name": "",
          "type": "bool"
        }
      ],
      "stateMutability": "view",
      "type": "function"
    },
    {
      "inputs": [],
      "name": "name",
      "outputs": [
        {
          "internalType": "string",
          "name": "",
          "type": "string"
        }
      ],
      "stateMutability": "view",
      "type": "function"
    },
    {
      "inputs": [
        {
          "internalType": "address",
          "name": "account",
          "type": "address"
        }
      ],
      "name": "numCheckpoints",
      "outputs": [
        {
          "internalType": "uint32",
          "name": "",
          "type": "uint32"
        }
      ],
      "stateMutability": "view",
      "type": "function"
    },
    {
      "inputs": [
        {
          "internalType": "uint256",
          "name": "tokenId",
          "type": "uint256"
        }
      ],
      "name": "ownerOf",
      "outputs": [
        {
          "internalType": "address",
          "name": "",
          "type": "address"
        }
      ],
      "stateMutability": "view",
      "type": "function"
    },
    {
      "inputs": [
        {
          "internalType": "bytes32",
          "name": "role",
          "type": "bytes32"
        },
        {
          "internalType": "address",
          "name": "account",
          "type": "address"
        }
      ],
      "name": "renounceRole",
      "outputs": [],
      "stateMutability": "nonpayable",
      "type": "function"
    },
    {
      "inputs": [
        {
          "internalType": "bytes32",
          "name": "role",
          "type": "bytes32"
        },
        {
          "internalType": "address",
          "name": "account",
          "type": "address"
        }
      ],
      "name": "revokeRole",
      "outputs": [],
      "stateMutability": "nonpayable",
      "type": "function"
    },
    {
      "inputs": [
        {
          "internalType": "address",
          "name": "from",
          "type": "address"
        },
        {
          "internalType": "address",
          "name": "to",
          "type": "address"
        },
        {
          "internalType": "uint256",
          "name": "tokenId",
          "type": "uint256"
        }
      ],
      "name": "safeTransferFrom",
      "outputs": [],
      "stateMutability": "nonpayable",
      "type": "function"
    },
    {
      "inputs": [
        {
          "internalType": "address",
          "name": "from",
          "type": "address"
        },
        {
          "internalType": "address",
          "name": "to",
          "type": "address"
        },
        {
          "internalType": "uint256",
          "name": "tokenId",
          "type": "uint256"
        },
        {
          "internalType": "bytes",
          "name": "_data",
          "type": "bytes"
        }
      ],
      "name": "safeTransferFrom",
      "outputs": [],
      "stateMutability": "nonpayable",
      "type": "function"
    },
    {
      "inputs": [
        {
          "internalType": "address",
          "name": "operator",
          "type": "address"
        },
        {
          "internalType": "bool",
          "name": "approved",
          "type": "bool"
        }
      ],
      "name": "setApprovalForAll",
      "outputs": [],
      "stateMutability": "nonpayable",
      "type": "function"
    },
    {
      "inputs": [
        {
          "internalType": "uint256",
          "name": "id",
          "type": "uint256"
        },
        {
          "internalType": "address",
          "name": "owner",
          "type": "address"
        },
        {
          "internalType": "uint256",
          "name": "totalShares",
          "type": "uint256"
        }
      ],
      "name": "setPositionTotalShares",
      "outputs": [],
      "stateMutability": "nonpayable",
      "type": "function"
    },
    {
      "inputs": [],
      "name": "stakingGovernance",
      "outputs": [
        {
          "internalType": "address",
          "name": "",
          "type": "address"
        }
      ],
      "stateMutability": "view",
      "type": "function"
    },
    {
      "inputs": [
        {
          "internalType": "bytes4",
          "name": "interfaceId",
          "type": "bytes4"
        }
      ],
      "name": "supportsInterface",
      "outputs": [
        {
          "internalType": "bool",
          "name": "",
          "type": "bool"
        }
      ],
      "stateMutability": "view",
      "type": "function"
    },
    {
      "inputs": [],
      "name": "symbol",
      "outputs": [
        {
          "internalType": "string",
          "name": "",
          "type": "string"
        }
      ],
      "stateMutability": "view",
      "type": "function"
    },
    {
      "inputs": [
        {
          "internalType": "uint256",
          "name": "tokenId",
          "type": "uint256"
        }
      ],
      "name": "tokenURI",
      "outputs": [
        {
          "internalType": "string",
          "name": "",
          "type": "string"
        }
      ],
      "stateMutability": "view",
      "type": "function"
    },
    {
      "inputs": [
        {
          "internalType": "address",
          "name": "from",
          "type": "address"
        },
        {
          "internalType": "address",
          "name": "to",
          "type": "address"
        },
        {
          "internalType": "uint256",
          "name": "tokenId",
          "type": "uint256"
        }
      ],
      "name": "transferFrom",
      "outputs": [],
      "stateMutability": "nonpayable",
      "type": "function"
    },
    {
      "inputs": [
        {
          "internalType": "bool",
          "name": "increase",
          "type": "bool"
        },
        {
          "internalType": "uint256",
          "name": "delta",
          "type": "uint256"
        }
      ],
      "name": "writeSupplyCheckpoint",
      "outputs": [],
      "stateMutability": "nonpayable",
      "type": "function"
    }
  ],
  "transactionHash": "0xd29b811b88ea725e3d3ef0c899c20de75de8d0f663a094e0f0f1a877af279253",
  "args": [],
  "numDeployments": 1,
  "solcInputHash": "d75cb78d3090036566fedddd8891be90",
  "bytecode": "0x608060405234801561001057600080fd5b50612e15806100206000396000f3fe608060405234801561001057600080fd5b50600436106102325760003560e01c806370a0823111610130578063a22cb465116100b8578063e985e9c51161007c578063e985e9c514610505578063eb02c30114610541578063ee5edc3a1461057e578063f1127ed814610593578063f8c4a0ac146105d057600080fd5b8063a22cb465146104a6578063b88d4fde146104b9578063b9e6616c146104cc578063c87b56dd146104df578063d547741f146104f257600080fd5b806391d14854116100ff57806391d148541461045d57806395d89b41146104705780639ab24eb014610478578063a0d964351461048b578063a217fddf1461049e57600080fd5b806370a082311461041157806375a08cce146104245780638e539e8c146104375780638f15b4141461044a57600080fd5b806336043462116101be5780634fe0b633116101825780634fe0b6331461039d578063587cde1e146103b05780635c19a95c146103c35780636352211e146103d65780636fcfff45146103e957600080fd5b8063360434621461033157806336568abe146103445780633a46b1a8146103575780633eeb530e1461036a57806342842e0e1461038a57600080fd5b806313ed08461161020557806313ed0846146102b4578063176492ac146102d557806323b872dd146102e8578063248a9ca3146102fb5780632f2ff15d1461031e57600080fd5b806301ffc9a71461023757806306fdde031461025f578063081812fc14610274578063095ea7b31461029f575b600080fd5b61024a61024536600461286c565b6105f7565b60405190151581526020015b60405180910390f35b610267610608565b6040516102569190612afe565b610287610282366004612830565b61069a565b6040516001600160a01b039091168152602001610256565b6102b26102ad366004612777565b610734565b005b6102c76102c236600461298b565b61084a565b604051908152602001610256565b60d254610287906001600160a01b031681565b6102b26102f6366004612695565b610890565b6102c7610309366004612830565b6000908152609a602052604090206001015490565b6102b261032c366004612849565b6108c1565b6102b261033f366004612950565b6108e7565b6102b2610352366004612849565b610aeb565b6102c7610365366004612777565b610b69565b61037d610378366004612647565b610bdc565b6040516102569190612aba565b6102b2610398366004612695565b610c48565b6102b26103ab366004612814565b610c63565b6102876103be366004612647565b610caa565b6102b26103d1366004612647565b610cf0565b6102876103e4366004612830565b610cfd565b6103fc6103f7366004612647565b610d74565b60405163ffffffff9091168152602001610256565b6102c761041f366004612647565b610d96565b6102c76104323660046127a1565b610e1d565b6102c7610445366004612830565b610eae565b6102b26104583660046128a6565b610f0a565b61024a61046b366004612849565b61104a565b610267611075565b6102c7610486366004612647565b611084565b6102b261049936600461292b565b61110b565b6102c7600081565b6102b26104b436600461274d565b611177565b6102b26104c73660046126d1565b611182565b60d154610287906001600160a01b031681565b6102676104ed366004612830565b6111ba565b6102b2610500366004612849565b6112a1565b61024a610513366004612662565b6001600160a01b039182166000908152606a6020908152604080832093909416825291909152205460ff1690565b61056961054f366004612830565b600090815260cf6020526040902080546001909101549091565b60408051928352602083019190915201610256565b6102c7600080516020612dc083398151915281565b6105a66105a13660046127d4565b6112c7565b60408051825163ffffffff1681526020928301516001600160e01b03169281019290925201610256565b6102c77ff4a864e9a4518606945f3a33df540c83a4d384c5d7bcf03a6be945d9ac08f6a481565b60006106028261134b565b92915050565b60606065805461061790612ce7565b80601f016020809104026020016040519081016040528092919081815260200182805461064390612ce7565b80156106905780601f1061066557610100808354040283529160200191610690565b820191906000526020600020905b81548152906001019060200180831161067357829003601f168201915b5050505050905090565b6000818152606760205260408120546001600160a01b03166107185760405162461bcd60e51b815260206004820152602c60248201527f4552433732313a20617070726f76656420717565727920666f72206e6f6e657860448201526b34b9ba32b73a103a37b5b2b760a11b60648201526084015b60405180910390fd5b506000908152606960205260409020546001600160a01b031690565b600061073f82610cfd565b9050806001600160a01b0316836001600160a01b031614156107ad5760405162461bcd60e51b815260206004820152602160248201527f4552433732313a20617070726f76616c20746f2063757272656e74206f776e656044820152603960f91b606482015260840161070f565b336001600160a01b03821614806107c957506107c98133610513565b61083b5760405162461bcd60e51b815260206004820152603860248201527f4552433732313a20617070726f76652063616c6c6572206973206e6f74206f7760448201527f6e6572206e6f7220617070726f76656420666f7220616c6c0000000000000000606482015260840161070f565b6108458383611370565b505050565b600082815260cf602052604081208054600190910154670de0b6b3a764000091906108759085612c8d565b61087f9190612c6e565b6108899190612c5a565b9392505050565b61089a33826113de565b6108b65760405162461bcd60e51b815260040161070f90612ba6565b6108458383836114d5565b6000828152609a60205260409020600101546108dd8133611680565b61084583836116e4565b600080516020612dc08339815191526109008133611680565b836001600160a01b031661091386610cfd565b6001600160a01b0316146109395760405162461bcd60e51b815260040161070f90612b11565b600085815260cf6020526040902054831415610a99576109588561176a565b60005b6001600160a01b038516600090815260d06020526040902054811015610a7e576001600160a01b038516600090815260d060205260409020805487908290849081106109a9576109a9612d7d565b90600052602060002001541415610a6b57805481906109ca90600190612c8d565b815481106109da576109da612d7d565b906000526020600020015460d06000886001600160a01b03166001600160a01b031681526020019081526020016000208381548110610a1b57610a1b612d7d565b60009182526020808320909101929092556001600160a01b038816815260d0909152604090208154610a4f90600190612c8d565b81548110610a5f57610a5f612d7d565b60009182526020822001555b5080610a7681612d22565b91505061095b565b50600085815260cf6020526040812081815560010155610ae4565b600085815260cf602052604081208054859290610ab7908490612c8d565b9091555050600085815260cf60205260409020600101829055610ae4610adc85610caa565b600085611811565b5050505050565b6001600160a01b0381163314610b5b5760405162461bcd60e51b815260206004820152602f60248201527f416363657373436f6e74726f6c3a2063616e206f6e6c792072656e6f756e636560448201526e103937b632b9903337b91039b2b63360891b606482015260840161070f565b610b65828261194e565b5050565b6000438210610bba5760405162461bcd60e51b815260206004820152601f60248201527f4552433230566f7465733a20626c6f636b206e6f7420796574206d696e656400604482015260640161070f565b6001600160a01b038316600090815260986020526040902061088990836119b5565b6001600160a01b038116600090815260d06020908152604091829020805483518184028101840190945280845260609392830182828015610c3c57602002820191906000526020600020905b815481526020019060010190808311610c28575b50505050509050919050565b61084583838360405180602001604052806000815250611182565b7ff4a864e9a4518606945f3a33df540c83a4d384c5d7bcf03a6be945d9ac08f6a4610c8e8133611680565b610ae4609984610ca057611a72610ca4565b611a7e5b84611a8a565b6001600160a01b03818116600090815260976020526040812054909116610cd15781610602565b506001600160a01b039081166000908152609760205260409020541690565b610cfa3382611c03565b50565b6000818152606760205260408120546001600160a01b0316806106025760405162461bcd60e51b815260206004820152602960248201527f4552433732313a206f776e657220717565727920666f72206e6f6e657869737460448201526832b73a103a37b5b2b760b91b606482015260840161070f565b6001600160a01b03811660009081526098602052604081205461060290611c83565b60006001600160a01b038216610e015760405162461bcd60e51b815260206004820152602a60248201527f4552433732313a2062616c616e636520717565727920666f7220746865207a65604482015269726f206164647265737360b01b606482015260840161070f565b506001600160a01b031660009081526068602052604090205490565b6000600080516020612dc0833981519152610e388133611680565b610e4660ce80546001019055565b60ce549150610e558583611cec565b610e696000610e6387610caa565b86611811565b50600081815260cf602090815260408083209586556001958601949094556001600160a01b03909516815260d085529182208054938401815582529290200181905590565b6000438210610eff5760405162461bcd60e51b815260206004820152601f60248201527f4552433230566f7465733a20626c6f636b206e6f7420796574206d696e656400604482015260640161070f565b6106026099836119b5565b600054610100900460ff16610f255760005460ff1615610f29565b303b155b610f8c5760405162461bcd60e51b815260206004820152602e60248201527f496e697469616c697a61626c653a20636f6e747261637420697320616c72656160448201526d191e481a5b9a5d1a585b1a5e995960921b606482015260840161070f565b600054610100900460ff16158015610fae576000805461ffff19166101011790555b60d180546001600160a01b038086166001600160a01b03199283161790925560d2805492851692909116919091179055610fe6611e3a565b610ff08585611e7b565b611008600080516020612dc083398151915233611ebc565b6110327ff4a864e9a4518606945f3a33df540c83a4d384c5d7bcf03a6be945d9ac08f6a484611ebc565b8015610ae4576000805461ff00191690555050505050565b6000918252609a602090815260408084206001600160a01b0393909316845291905290205460ff1690565b60606066805461061790612ce7565b6001600160a01b03811660009081526098602052604081205480156110f8576001600160a01b03831660009081526098602052604090206110c6600183612c8d565b815481106110d6576110d6612d7d565b60009182526020909120015464010000000090046001600160e01b03166110fb565b60005b6001600160e01b03169392505050565b600080516020612dc08339815191526111248133611680565b826001600160a01b031661113785610cfd565b6001600160a01b03161461115d5760405162461bcd60e51b815260040161070f90612b11565b50600092835260cf60205260409092206001019190915550565b610b65338383611ec6565b61118c33836113de565b6111a85760405162461bcd60e51b815260040161070f90612ba6565b6111b484848484611f95565b50505050565b6000818152606760205260409020546060906001600160a01b03166112395760405162461bcd60e51b815260206004820152602f60248201527f4552433732314d657461646174613a2055524920717565727920666f72206e6f60448201526e3732bc34b9ba32b73a103a37b5b2b760891b606482015260840161070f565b600061125060408051602081019091526000815290565b905060008151116112705760405180602001604052806000815250610889565b8061127a84611fc8565b60405160200161128b9291906129d9565b6040516020818303038152906040529392505050565b6000828152609a60205260409020600101546112bd8133611680565b610845838361194e565b60408051808201909152600080825260208201526001600160a01b0383166000908152609860205260409020805463ffffffff841690811061130b5761130b612d7d565b60009182526020918290206040805180820190915291015463ffffffff8116825264010000000090046001600160e01b0316918101919091529392505050565b60006001600160e01b03198216637965db0b60e01b14806106025750610602826120c6565b600081815260696020526040902080546001600160a01b0319166001600160a01b03841690811790915581906113a582610cfd565b6001600160a01b03167f8c5be1e5ebec7d5bd14f71427d1e84f3dd0314c0f7b2291e5b200ac8c7c3b92560405160405180910390a45050565b6000818152606760205260408120546001600160a01b03166114575760405162461bcd60e51b815260206004820152602c60248201527f4552433732313a206f70657261746f7220717565727920666f72206e6f6e657860448201526b34b9ba32b73a103a37b5b2b760a11b606482015260840161070f565b600061146283610cfd565b9050806001600160a01b0316846001600160a01b0316148061149d5750836001600160a01b03166114928461069a565b6001600160a01b0316145b806114cd57506001600160a01b038082166000908152606a602090815260408083209388168352929052205460ff165b949350505050565b826001600160a01b03166114e882610cfd565b6001600160a01b0316146115505760405162461bcd60e51b815260206004820152602960248201527f4552433732313a207472616e73666572206f6620746f6b656e2074686174206960448201526839903737ba1037bbb760b91b606482015260840161070f565b6001600160a01b0382166115b25760405162461bcd60e51b8152602060048201526024808201527f4552433732313a207472616e7366657220746f20746865207a65726f206164646044820152637265737360e01b606482015260840161070f565b6115bd838383612116565b6115c8600082611370565b6001600160a01b03831660009081526068602052604081208054600192906115f1908490612c8d565b90915550506001600160a01b038216600090815260686020526040812080546001929061161f908490612c42565b909155505060008181526067602052604080822080546001600160a01b0319166001600160a01b0386811691821790925591518493918716917fddf252ad1be2c89b69c2b068fc378daa952ba7f163c4a11628f55a4df523b3ef91a4505050565b61168a828261104a565b610b65576116a2816001600160a01b03166014612153565b6116ad836020612153565b6040516020016116be929190612a08565b60408051601f198184030181529082905262461bcd60e51b825261070f91600401612afe565b6116ee828261104a565b610b65576000828152609a602090815260408083206001600160a01b03851684529091529020805460ff191660011790556117263390565b6001600160a01b0316816001600160a01b0316837f2f8788117e7eff1d82e926ec794901d17c78024a50270940304540a733656f0d60405160405180910390a45050565b600061177582610cfd565b905061178381600084612116565b61178e600083611370565b6001600160a01b03811660009081526068602052604081208054600192906117b7908490612c8d565b909155505060008281526067602052604080822080546001600160a01b0319169055518391906001600160a01b038416907fddf252ad1be2c89b69c2b068fc378daa952ba7f163c4a11628f55a4df523b3ef908390a45050565b816001600160a01b0316836001600160a01b0316141580156118335750600081115b15610845576001600160a01b038316156118c1576001600160a01b0383166000908152609860205260408120819061186e90611a7285611a8a565b91509150846001600160a01b03167fdec2bacdd2f05b59de34da9b523dff8be42e5e38e818c82fdb0bae774387a72483836040516118b6929190918252602082015260400190565b60405180910390a250505b6001600160a01b03821615610845576001600160a01b038216600090815260986020526040812081906118f790611a7e85611a8a565b91509150836001600160a01b03167fdec2bacdd2f05b59de34da9b523dff8be42e5e38e818c82fdb0bae774387a724838360405161193f929190918252602082015260400190565b60405180910390a25050505050565b611958828261104a565b15610b65576000828152609a602090815260408083206001600160a01b0385168085529252808320805460ff1916905551339285917ff6391f5c32d9c69d2a47ea670b442974b53935d1edc7fd64eb21e047a839171b9190a45050565b8154600090815b81811015611a195760006119d082846122ef565b9050848682815481106119e5576119e5612d7d565b60009182526020909120015463ffffffff161115611a0557809250611a13565b611a10816001612c42565b91505b506119bc565b8115611a5d5784611a2b600184612c8d565b81548110611a3b57611a3b612d7d565b60009182526020909120015464010000000090046001600160e01b0316611a60565b60005b6001600160e01b031695945050505050565b60006108898284612c8d565b60006108898284612c42565b825460009081908015611ad55785611aa3600183612c8d565b81548110611ab357611ab3612d7d565b60009182526020909120015464010000000090046001600160e01b0316611ad8565b60005b6001600160e01b03169250611af183858763ffffffff16565b9150600081118015611b2f57504386611b0b600184612c8d565b81548110611b1b57611b1b612d7d565b60009182526020909120015463ffffffff16145b15611b8f57611b3d8261230a565b86611b49600184612c8d565b81548110611b5957611b59612d7d565b9060005260206000200160000160046101000a8154816001600160e01b0302191690836001600160e01b03160217905550611bfa565b856040518060400160405280611ba443611c83565b63ffffffff168152602001611bb88561230a565b6001600160e01b0390811690915282546001810184556000938452602093849020835194909301519091166401000000000263ffffffff909316929092179101555b50935093915050565b6000611c0e83610caa565b90506000611c1b84610d96565b6001600160a01b0385811660008181526097602052604080822080546001600160a01b031916898616908117909155905194955093928616927f3134e8a2e6d97e929a7e54011ea5485d7d196dd5f0ba4d4ef95803e8e3fc257f9190a46111b4828483611811565b600063ffffffff821115611ce85760405162461bcd60e51b815260206004820152602660248201527f53616665436173743a2076616c756520646f65736e27742066697420696e203360448201526532206269747360d01b606482015260840161070f565b5090565b6001600160a01b038216611d425760405162461bcd60e51b815260206004820181905260248201527f4552433732313a206d696e7420746f20746865207a65726f2061646472657373604482015260640161070f565b6000818152606760205260409020546001600160a01b031615611da75760405162461bcd60e51b815260206004820152601c60248201527f4552433732313a20746f6b656e20616c7265616479206d696e74656400000000604482015260640161070f565b611db360008383612116565b6001600160a01b0382166000908152606860205260408120805460019290611ddc908490612c42565b909155505060008181526067602052604080822080546001600160a01b0319166001600160a01b03861690811790915590518392907fddf252ad1be2c89b69c2b068fc378daa952ba7f163c4a11628f55a4df523b3ef908290a45050565b600054610100900460ff16611e615760405162461bcd60e51b815260040161070f90612bf7565b611e69612373565b611e71612373565b611e79612373565b565b600054610100900460ff16611ea25760405162461bcd60e51b815260040161070f90612bf7565b611eaa612373565b611eb2612373565b610b65828261239a565b610b6582826116e4565b816001600160a01b0316836001600160a01b03161415611f285760405162461bcd60e51b815260206004820152601960248201527f4552433732313a20617070726f766520746f2063616c6c657200000000000000604482015260640161070f565b6001600160a01b038381166000818152606a6020908152604080832094871680845294825291829020805460ff191686151590811790915591519182527f17307eab39ab6107e8899845ad3d59bd9653f200f220920489ca2b5937696c31910160405180910390a3505050565b611fa08484846114d5565b611fac848484846123e8565b6111b45760405162461bcd60e51b815260040161070f90612b54565b606081611fec5750506040805180820190915260018152600360fc1b602082015290565b8160005b8115612016578061200081612d22565b915061200f9050600a83612c5a565b9150611ff0565b60008167ffffffffffffffff81111561203157612031612d93565b6040519080825280601f01601f19166020018201604052801561205b576020820181803683370190505b5090505b84156114cd57612070600183612c8d565b915061207d600a86612d3d565b612088906030612c42565b60f81b81838151811061209d5761209d612d7d565b60200101906001600160f81b031916908160001a9053506120bf600a86612c5a565b945061205f565b60006001600160e01b031982166380ac58cd60e01b14806120f757506001600160e01b03198216635b5e139f60e01b145b8061060257506301ffc9a760e01b6001600160e01b0319831614610602565b600081815260cf6020526040902054156108455761084561213684610caa565b61213f84610caa565b600084815260cf6020526040902054611811565b60606000612162836002612c6e565b61216d906002612c42565b67ffffffffffffffff81111561218557612185612d93565b6040519080825280601f01601f1916602001820160405280156121af576020820181803683370190505b509050600360fc1b816000815181106121ca576121ca612d7d565b60200101906001600160f81b031916908160001a905350600f60fb1b816001815181106121f9576121f9612d7d565b60200101906001600160f81b031916908160001a905350600061221d846002612c6e565b612228906001612c42565b90505b60018111156122a0576f181899199a1a9b1b9c1cb0b131b232b360811b85600f166010811061225c5761225c612d7d565b1a60f81b82828151811061227257612272612d7d565b60200101906001600160f81b031916908160001a90535060049490941c9361229981612cd0565b905061222b565b5083156108895760405162461bcd60e51b815260206004820181905260248201527f537472696e67733a20686578206c656e67746820696e73756666696369656e74604482015260640161070f565b60006122fe6002848418612c5a565b61088990848416612c42565b60006001600160e01b03821115611ce85760405162461bcd60e51b815260206004820152602760248201527f53616665436173743a2076616c756520646f65736e27742066697420696e20326044820152663234206269747360c81b606482015260840161070f565b600054610100900460ff16611e795760405162461bcd60e51b815260040161070f90612bf7565b600054610100900460ff166123c15760405162461bcd60e51b815260040161070f90612bf7565b81516123d49060659060208501906124f5565b5080516108459060669060208401906124f5565b60006001600160a01b0384163b156124ea57604051630a85bd0160e11b81526001600160a01b0385169063150b7a029061242c903390899088908890600401612a7d565b602060405180830381600087803b15801561244657600080fd5b505af1925050508015612476575060408051601f3d908101601f1916820190925261247391810190612889565b60015b6124d0573d8080156124a4576040519150601f19603f3d011682016040523d82523d6000602084013e6124a9565b606091505b5080516124c85760405162461bcd60e51b815260040161070f90612b54565b805181602001fd5b6001600160e01b031916630a85bd0160e11b1490506114cd565b506001949350505050565b82805461250190612ce7565b90600052602060002090601f0160209004810192826125235760008555612569565b82601f1061253c57805160ff1916838001178555612569565b82800160010185558215612569579182015b8281111561256957825182559160200191906001019061254e565b50611ce89291505b80821115611ce85760008155600101612571565b600067ffffffffffffffff808411156125a0576125a0612d93565b604051601f8501601f19908116603f011681019082821181831017156125c8576125c8612d93565b816040528093508581528686860111156125e157600080fd5b858560208301376000602087830101525050509392505050565b80356001600160a01b038116811461261257600080fd5b919050565b8035801515811461261257600080fd5b600082601f83011261263857600080fd5b61088983833560208501612585565b60006020828403121561265957600080fd5b610889826125fb565b6000806040838503121561267557600080fd5b61267e836125fb565b915061268c602084016125fb565b90509250929050565b6000806000606084860312156126aa57600080fd5b6126b3846125fb565b92506126c1602085016125fb565b9150604084013590509250925092565b600080600080608085870312156126e757600080fd5b6126f0856125fb565b93506126fe602086016125fb565b925060408501359150606085013567ffffffffffffffff81111561272157600080fd5b8501601f8101871361273257600080fd5b61274187823560208401612585565b91505092959194509250565b6000806040838503121561276057600080fd5b612769836125fb565b915061268c60208401612617565b6000806040838503121561278a57600080fd5b612793836125fb565b946020939093013593505050565b6000806000606084860312156127b657600080fd5b6127bf846125fb565b95602085013595506040909401359392505050565b600080604083850312156127e757600080fd5b6127f0836125fb565b9150602083013563ffffffff8116811461280957600080fd5b809150509250929050565b6000806040838503121561282757600080fd5b61279383612617565b60006020828403121561284257600080fd5b5035919050565b6000806040838503121561285c57600080fd5b8235915061268c602084016125fb565b60006020828403121561287e57600080fd5b813561088981612da9565b60006020828403121561289b57600080fd5b815161088981612da9565b600080600080608085870312156128bc57600080fd5b843567ffffffffffffffff808211156128d457600080fd5b6128e088838901612627565b955060208701359150808211156128f657600080fd5b5061290387828801612627565b935050612912604086016125fb565b9150612920606086016125fb565b905092959194509250565b60008060006060848603121561294057600080fd5b833592506126c1602085016125fb565b6000806000806080858703121561296657600080fd5b84359350612976602086016125fb565b93969395505050506040820135916060013590565b6000806040838503121561299e57600080fd5b50508035926020909101359150565b600081518084526129c5816020860160208601612ca4565b601f01601f19169290920160200192915050565b600083516129eb818460208801612ca4565b8351908301906129ff818360208801612ca4565b01949350505050565b7f416363657373436f6e74726f6c3a206163636f756e7420000000000000000000815260008351612a40816017850160208801612ca4565b7001034b99036b4b9b9b4b733903937b6329607d1b6017918401918201528351612a71816028840160208801612ca4565b01602801949350505050565b6001600160a01b0385811682528416602082015260408101839052608060608201819052600090612ab0908301846129ad565b9695505050505050565b6020808252825182820181905260009190848201906040850190845b81811015612af257835183529284019291840191600101612ad6565b50909695505050505050565b60208152600061088960208301846129ad565b60208082526023908201527f43616e6e6f742075706461746520706f736974696f6e206966206e6f74206f776040820152623732b960e91b606082015260800190565b60208082526032908201527f4552433732313a207472616e7366657220746f206e6f6e20455243373231526560408201527131b2b4bb32b91034b6b83632b6b2b73a32b960711b606082015260800190565b60208082526031908201527f4552433732313a207472616e736665722063616c6c6572206973206e6f74206f6040820152701ddb995c881b9bdc88185c1c1c9bdd9959607a1b606082015260800190565b6020808252602b908201527f496e697469616c697a61626c653a20636f6e7472616374206973206e6f74206960408201526a6e697469616c697a696e6760a81b606082015260800190565b60008219821115612c5557612c55612d51565b500190565b600082612c6957612c69612d67565b500490565b6000816000190483118215151615612c8857612c88612d51565b500290565b600082821015612c9f57612c9f612d51565b500390565b60005b83811015612cbf578181015183820152602001612ca7565b838111156111b45750506000910152565b600081612cdf57612cdf612d51565b506000190190565b600181811c90821680612cfb57607f821691505b60208210811415612d1c57634e487b7160e01b600052602260045260246000fd5b50919050565b6000600019821415612d3657612d36612d51565b5060010190565b600082612d4c57612d4c612d67565b500690565b634e487b7160e01b600052601160045260246000fd5b634e487b7160e01b600052601260045260246000fd5b634e487b7160e01b600052603260045260246000fd5b634e487b7160e01b600052604160045260246000fd5b6001600160e01b031981168114610cfa57600080fdfe28ee1a0f0c9d10097fc0d6524cff85f5fbe32be7cdd113474b00343827fca196a2646970667358221220dca1a4bb72d2157b3432ad18cd5def8e3a9b30ca1add633a86df814cf5db8e7e64736f6c63430008060033",
  "devdoc": {
    "kind": "dev",
    "methods": {
      "approve(address,uint256)": {
        "details": "See {IERC721-approve}."
      },
      "balanceOf(address)": {
        "details": "See {IERC721-balanceOf}."
      },
      "checkpoints(address,uint32)": {
        "details": "Get the `pos`-th checkpoint for `account`."
      },
      "delegate(address)": {
        "details": "Delegate votes from the sender to `delegatee`."
      },
      "delegates(address)": {
        "details": "Get the address `account` is currently delegating to."
      },
      "getApproved(uint256)": {
        "details": "See {IERC721-getApproved}."
      },
      "getPastTotalSupply(uint256)": {
        "details": "Retrieve the `totalSupply` at the end of `blockNumber`. Note, this value is the sum of all balances. It is but NOT the sum of all the delegated votes! Requirements: - `blockNumber` must have been already mined"
      },
      "getPastVotes(address,uint256)": {
        "details": "Retrieve the number of votes for `account` at the end of `blockNumber`. Requirements: - `blockNumber` must have been already mined"
      },
      "getRoleAdmin(bytes32)": {
        "details": "Returns the admin role that controls `role`. See {grantRole} and {revokeRole}. To change a role's admin, use {_setRoleAdmin}."
      },
      "getVotes(address)": {
        "details": "Gets the current votes balance for `account`"
      },
      "grantRole(bytes32,address)": {
        "details": "Grants `role` to `account`. If `account` had not been already granted `role`, emits a {RoleGranted} event. Requirements: - the caller must have ``role``'s admin role."
      },
      "hasRole(bytes32,address)": {
        "details": "Returns `true` if `account` has been granted `role`."
      },
      "isApprovedForAll(address,address)": {
        "details": "See {IERC721-isApprovedForAll}."
      },
      "name()": {
        "details": "See {IERC721Metadata-name}."
      },
      "numCheckpoints(address)": {
        "details": "Get number of checkpoints for `account`."
      },
      "ownerOf(uint256)": {
        "details": "See {IERC721-ownerOf}."
      },
      "renounceRole(bytes32,address)": {
        "details": "Revokes `role` from the calling account. Roles are often managed via {grantRole} and {revokeRole}: this function's purpose is to provide a mechanism for accounts to lose their privileges if they are compromised (such as when a trusted device is misplaced). If the calling account had been revoked `role`, emits a {RoleRevoked} event. Requirements: - the caller must be `account`."
      },
      "revokeRole(bytes32,address)": {
        "details": "Revokes `role` from `account`. If `account` had been granted `role`, emits a {RoleRevoked} event. Requirements: - the caller must have ``role``'s admin role."
      },
      "safeTransferFrom(address,address,uint256)": {
        "details": "See {IERC721-safeTransferFrom}."
      },
      "safeTransferFrom(address,address,uint256,bytes)": {
        "details": "See {IERC721-safeTransferFrom}."
      },
      "setApprovalForAll(address,bool)": {
        "details": "See {IERC721-setApprovalForAll}."
      },
      "symbol()": {
        "details": "See {IERC721Metadata-symbol}."
      },
      "tokenURI(uint256)": {
        "details": "See {IERC721Metadata-tokenURI}."
      },
      "transferFrom(address,address,uint256)": {
        "details": "See {IERC721-transferFrom}."
      }
    },
    "version": 1
  },
  "userdoc": {
    "kind": "user",
    "methods": {
      "copyrightToken()": {
        "notice": "the address of the corresponding copyright token"
      },
      "stakingGovernance()": {
        "notice": "the address of the corresponding staking governance"
      }
    },
    "version": 1
  },
  "storageLayout": {
    "storage": [
      {
        "astId": 950,
        "contract": "contracts/implementations/StakingERC721.sol:StakingERC721",
        "label": "_initialized",
        "offset": 0,
        "slot": "0",
        "type": "t_bool"
      },
      {
        "astId": 953,
        "contract": "contracts/implementations/StakingERC721.sol:StakingERC721",
        "label": "_initializing",
        "offset": 1,
        "slot": "0",
        "type": "t_bool"
      },
      {
        "astId": 4119,
        "contract": "contracts/implementations/StakingERC721.sol:StakingERC721",
        "label": "__gap",
        "offset": 0,
        "slot": "1",
        "type": "t_array(t_uint256)50_storage"
      },
      {
        "astId": 5255,
        "contract": "contracts/implementations/StakingERC721.sol:StakingERC721",
        "label": "__gap",
        "offset": 0,
        "slot": "51",
        "type": "t_array(t_uint256)50_storage"
      },
      {
        "astId": 2838,
        "contract": "contracts/implementations/StakingERC721.sol:StakingERC721",
        "label": "_name",
        "offset": 0,
        "slot": "101",
        "type": "t_string_storage"
      },
      {
        "astId": 2840,
        "contract": "contracts/implementations/StakingERC721.sol:StakingERC721",
        "label": "_symbol",
        "offset": 0,
        "slot": "102",
        "type": "t_string_storage"
      },
      {
        "astId": 2844,
        "contract": "contracts/implementations/StakingERC721.sol:StakingERC721",
        "label": "_owners",
        "offset": 0,
        "slot": "103",
        "type": "t_mapping(t_uint256,t_address)"
      },
      {
        "astId": 2848,
        "contract": "contracts/implementations/StakingERC721.sol:StakingERC721",
        "label": "_balances",
        "offset": 0,
        "slot": "104",
        "type": "t_mapping(t_address,t_uint256)"
      },
      {
        "astId": 2852,
        "contract": "contracts/implementations/StakingERC721.sol:StakingERC721",
        "label": "_tokenApprovals",
        "offset": 0,
        "slot": "105",
        "type": "t_mapping(t_uint256,t_address)"
      },
      {
        "astId": 2858,
        "contract": "contracts/implementations/StakingERC721.sol:StakingERC721",
        "label": "_operatorApprovals",
        "offset": 0,
        "slot": "106",
        "type": "t_mapping(t_address,t_mapping(t_address,t_bool))"
      },
      {
        "astId": 3669,
        "contract": "contracts/implementations/StakingERC721.sol:StakingERC721",
        "label": "__gap",
        "offset": 0,
        "slot": "107",
        "type": "t_array(t_uint256)44_storage"
      },
      {
        "astId": 10973,
        "contract": "contracts/implementations/StakingERC721.sol:StakingERC721",
        "label": "_delegates",
        "offset": 0,
        "slot": "151",
        "type": "t_mapping(t_address,t_address)"
      },
      {
        "astId": 10979,
        "contract": "contracts/implementations/StakingERC721.sol:StakingERC721",
        "label": "_checkpoints",
        "offset": 0,
        "slot": "152",
        "type": "t_mapping(t_address,t_array(t_struct(Checkpoint)10969_storage)dyn_storage)"
      },
      {
        "astId": 10983,
        "contract": "contracts/implementations/StakingERC721.sol:StakingERC721",
        "label": "_totalSupplyCheckpoints",
        "offset": 0,
        "slot": "153",
        "type": "t_array(t_struct(Checkpoint)10969_storage)dyn_storage"
      },
      {
        "astId": 48,
        "contract": "contracts/implementations/StakingERC721.sol:StakingERC721",
        "label": "_roles",
        "offset": 0,
        "slot": "154",
        "type": "t_mapping(t_bytes32,t_struct(RoleData)43_storage)"
      },
      {
        "astId": 335,
        "contract": "contracts/implementations/StakingERC721.sol:StakingERC721",
        "label": "__gap",
        "offset": 0,
        "slot": "155",
        "type": "t_array(t_uint256)49_storage"
      },
      {
        "astId": 14853,
        "contract": "contracts/implementations/StakingERC721.sol:StakingERC721",
        "label": "_proxyName",
        "offset": 0,
        "slot": "204",
        "type": "t_string_storage"
      },
      {
        "astId": 14855,
        "contract": "contracts/implementations/StakingERC721.sol:StakingERC721",
        "label": "_proxySymbol",
        "offset": 0,
        "slot": "205",
        "type": "t_string_storage"
      },
      {
        "astId": 14858,
        "contract": "contracts/implementations/StakingERC721.sol:StakingERC721",
        "label": "idGen",
        "offset": 0,
        "slot": "206",
        "type": "t_struct(Counter)4126_storage"
      },
      {
        "astId": 14863,
        "contract": "contracts/implementations/StakingERC721.sol:StakingERC721",
        "label": "positions",
        "offset": 0,
        "slot": "207",
        "type": "t_mapping(t_uint256,t_struct(Position)14851_storage)"
      },
      {
        "astId": 14868,
        "contract": "contracts/implementations/StakingERC721.sol:StakingERC721",
        "label": "positionOwnership",
        "offset": 0,
        "slot": "208",
        "type": "t_mapping(t_address,t_array(t_uint256)dyn_storage)"
      },
      {
        "astId": 14871,
        "contract": "contracts/implementations/StakingERC721.sol:StakingERC721",
        "label": "copyrightToken",
        "offset": 0,
        "slot": "209",
        "type": "t_address"
      },
      {
        "astId": 14874,
        "contract": "contracts/implementations/StakingERC721.sol:StakingERC721",
        "label": "stakingGovernance",
        "offset": 0,
        "slot": "210",
        "type": "t_address"
      }
    ],
    "types": {
      "t_address": {
        "encoding": "inplace",
        "label": "address",
        "numberOfBytes": "20"
      },
      "t_array(t_struct(Checkpoint)10969_storage)dyn_storage": {
        "base": "t_struct(Checkpoint)10969_storage",
        "encoding": "dynamic_array",
        "label": "struct ERC20VotesCompliant.Checkpoint[]",
        "numberOfBytes": "32"
      },
      "t_array(t_uint256)44_storage": {
        "base": "t_uint256",
        "encoding": "inplace",
        "label": "uint256[44]",
        "numberOfBytes": "1408"
      },
      "t_array(t_uint256)49_storage": {
        "base": "t_uint256",
        "encoding": "inplace",
        "label": "uint256[49]",
        "numberOfBytes": "1568"
      },
      "t_array(t_uint256)50_storage": {
        "base": "t_uint256",
        "encoding": "inplace",
        "label": "uint256[50]",
        "numberOfBytes": "1600"
      },
      "t_array(t_uint256)dyn_storage": {
        "base": "t_uint256",
        "encoding": "dynamic_array",
        "label": "uint256[]",
        "numberOfBytes": "32"
      },
      "t_bool": {
        "encoding": "inplace",
        "label": "bool",
        "numberOfBytes": "1"
      },
      "t_bytes32": {
        "encoding": "inplace",
        "label": "bytes32",
        "numberOfBytes": "32"
      },
      "t_mapping(t_address,t_address)": {
        "encoding": "mapping",
        "key": "t_address",
        "label": "mapping(address => address)",
        "numberOfBytes": "32",
        "value": "t_address"
      },
      "t_mapping(t_address,t_array(t_struct(Checkpoint)10969_storage)dyn_storage)": {
        "encoding": "mapping",
        "key": "t_address",
        "label": "mapping(address => struct ERC20VotesCompliant.Checkpoint[])",
        "numberOfBytes": "32",
        "value": "t_array(t_struct(Checkpoint)10969_storage)dyn_storage"
      },
      "t_mapping(t_address,t_array(t_uint256)dyn_storage)": {
        "encoding": "mapping",
        "key": "t_address",
        "label": "mapping(address => uint256[])",
        "numberOfBytes": "32",
        "value": "t_array(t_uint256)dyn_storage"
      },
      "t_mapping(t_address,t_bool)": {
        "encoding": "mapping",
        "key": "t_address",
        "label": "mapping(address => bool)",
        "numberOfBytes": "32",
        "value": "t_bool"
      },
      "t_mapping(t_address,t_mapping(t_address,t_bool))": {
        "encoding": "mapping",
        "key": "t_address",
        "label": "mapping(address => mapping(address => bool))",
        "numberOfBytes": "32",
        "value": "t_mapping(t_address,t_bool)"
      },
      "t_mapping(t_address,t_uint256)": {
        "encoding": "mapping",
        "key": "t_address",
        "label": "mapping(address => uint256)",
        "numberOfBytes": "32",
        "value": "t_uint256"
      },
      "t_mapping(t_bytes32,t_struct(RoleData)43_storage)": {
        "encoding": "mapping",
        "key": "t_bytes32",
        "label": "mapping(bytes32 => struct AccessControlUpgradeable.RoleData)",
        "numberOfBytes": "32",
        "value": "t_struct(RoleData)43_storage"
      },
      "t_mapping(t_uint256,t_address)": {
        "encoding": "mapping",
        "key": "t_uint256",
        "label": "mapping(uint256 => address)",
        "numberOfBytes": "32",
        "value": "t_address"
      },
      "t_mapping(t_uint256,t_struct(Position)14851_storage)": {
        "encoding": "mapping",
        "key": "t_uint256",
        "label": "mapping(uint256 => struct StakingERC721.Position)",
        "numberOfBytes": "32",
        "value": "t_struct(Position)14851_storage"
      },
      "t_string_storage": {
        "encoding": "bytes",
        "label": "string",
        "numberOfBytes": "32"
      },
      "t_struct(Checkpoint)10969_storage": {
        "encoding": "inplace",
        "label": "struct ERC20VotesCompliant.Checkpoint",
        "members": [
          {
            "astId": 10966,
            "contract": "contracts/implementations/StakingERC721.sol:StakingERC721",
            "label": "fromBlock",
            "offset": 0,
            "slot": "0",
            "type": "t_uint32"
          },
          {
            "astId": 10968,
            "contract": "contracts/implementations/StakingERC721.sol:StakingERC721",
            "label": "votes",
            "offset": 4,
            "slot": "0",
            "type": "t_uint224"
          }
        ],
        "numberOfBytes": "32"
      },
      "t_struct(Counter)4126_storage": {
        "encoding": "inplace",
        "label": "struct CountersUpgradeable.Counter",
        "members": [
          {
            "astId": 4125,
            "contract": "contracts/implementations/StakingERC721.sol:StakingERC721",
            "label": "_value",
            "offset": 0,
            "slot": "0",
            "type": "t_uint256"
          }
        ],
        "numberOfBytes": "32"
      },
      "t_struct(Position)14851_storage": {
        "encoding": "inplace",
        "label": "struct StakingERC721.Position",
        "members": [
          {
            "astId": 14848,
            "contract": "contracts/implementations/StakingERC721.sol:StakingERC721",
            "label": "stake",
            "offset": 0,
            "slot": "0",
            "type": "t_uint256"
          },
          {
            "astId": 14850,
            "contract": "contracts/implementations/StakingERC721.sol:StakingERC721",
            "label": "totalShares",
            "offset": 0,
            "slot": "1",
            "type": "t_uint256"
          }
        ],
        "numberOfBytes": "64"
      },
      "t_struct(RoleData)43_storage": {
        "encoding": "inplace",
        "label": "struct AccessControlUpgradeable.RoleData",
        "members": [
          {
            "astId": 40,
            "contract": "contracts/implementations/StakingERC721.sol:StakingERC721",
            "label": "members",
            "offset": 0,
            "slot": "0",
            "type": "t_mapping(t_address,t_bool)"
          },
          {
            "astId": 42,
            "contract": "contracts/implementations/StakingERC721.sol:StakingERC721",
            "label": "adminRole",
            "offset": 0,
            "slot": "1",
            "type": "t_bytes32"
          }
        ],
        "numberOfBytes": "64"
      },
      "t_uint224": {
        "encoding": "inplace",
        "label": "uint224",
        "numberOfBytes": "28"
      },
      "t_uint256": {
        "encoding": "inplace",
        "label": "uint256",
        "numberOfBytes": "32"
      },
      "t_uint32": {
        "encoding": "inplace",
        "label": "uint32",
        "numberOfBytes": "4"
      }
    }
  }
}