{
  "address": "0xC545a5C4FA27C9b9ae92AC8F6b47bcE803D5aaBa",
  "abi": [
    {
      "inputs": [],
      "stateMutability": "nonpayable",
      "type": "constructor"
    },
    {
      "anonymous": false,
      "inputs": [
        {
          "indexed": true,
          "internalType": "uint256",
          "name": "tokenId",
          "type": "uint256"
        },
        {
          "indexed": false,
          "internalType": "uint256",
          "name": "amount",
          "type": "uint256"
        }
      ],
      "name": "AccruedRewardClaimed",
      "type": "event"
    },
    {
      "anonymous": false,
      "inputs": [
        {
          "indexed": false,
          "internalType": "address",
          "name": "previousAdmin",
          "type": "address"
        },
        {
          "indexed": false,
          "internalType": "address",
          "name": "newAdmin",
          "type": "address"
        }
      ],
      "name": "AdminChanged",
      "type": "event"
    },
    {
      "anonymous": false,
      "inputs": [
        {
          "indexed": true,
          "internalType": "address",
          "name": "owner",
          "type": "address"
        },
        {
          "indexed": true,
          "internalType": "address",
          "name": "approved",
          "type": "address"
        },
        {
          "indexed": true,
          "internalType": "uint256",
          "name": "tokenId",
          "type": "uint256"
        }
      ],
      "name": "Approval",
      "type": "event"
    },
    {
      "anonymous": false,
      "inputs": [
        {
          "indexed": true,
          "internalType": "address",
          "name": "owner",
          "type": "address"
        },
        {
          "indexed": true,
          "internalType": "address",
          "name": "operator",
          "type": "address"
        },
        {
          "indexed": false,
          "internalType": "bool",
          "name": "approved",
          "type": "bool"
        }
      ],
      "name": "ApprovalForAll",
      "type": "event"
    },
    {
      "anonymous": false,
      "inputs": [
        {
          "indexed": true,
          "internalType": "address",
          "name": "beacon",
          "type": "address"
        }
      ],
      "name": "BeaconUpgraded",
      "type": "event"
    },
    {
      "anonymous": false,
      "inputs": [
        {
          "indexed": true,
          "internalType": "bytes32",
          "name": "role",
          "type": "bytes32"
        },
        {
          "indexed": true,
          "internalType": "bytes32",
          "name": "previousAdminRole",
          "type": "bytes32"
        },
        {
          "indexed": true,
          "internalType": "bytes32",
          "name": "newAdminRole",
          "type": "bytes32"
        }
      ],
      "name": "RoleAdminChanged",
      "type": "event"
    },
    {
      "anonymous": false,
      "inputs": [
        {
          "indexed": true,
          "internalType": "bytes32",
          "name": "role",
          "type": "bytes32"
        },
        {
          "indexed": true,
          "internalType": "address",
          "name": "account",
          "type": "address"
        },
        {
          "indexed": true,
          "internalType": "address",
          "name": "sender",
          "type": "address"
        }
      ],
      "name": "RoleGranted",
      "type": "event"
    },
    {
      "anonymous": false,
      "inputs": [
        {
          "indexed": true,
          "internalType": "bytes32",
          "name": "role",
          "type": "bytes32"
        },
        {
          "indexed": true,
          "internalType": "address",
          "name": "account",
          "type": "address"
        },
        {
          "indexed": true,
          "internalType": "address",
          "name": "sender",
          "type": "address"
        }
      ],
      "name": "RoleRevoked",
      "type": "event"
    },
    {
      "anonymous": false,
      "inputs": [
        {
          "indexed": true,
          "internalType": "address",
          "name": "from",
          "type": "address"
        },
        {
          "indexed": true,
          "internalType": "address",
          "name": "to",
          "type": "address"
        },
        {
          "indexed": true,
          "internalType": "uint256",
          "name": "tokenId",
          "type": "uint256"
        }
      ],
      "name": "Transfer",
      "type": "event"
    },
    {
      "anonymous": false,
      "inputs": [
        {
          "indexed": true,
          "internalType": "address",
          "name": "implementation",
          "type": "address"
        }
      ],
      "name": "Upgraded",
      "type": "event"
    },
    {
      "inputs": [],
      "name": "DEFAULT_ADMIN_ROLE",
      "outputs": [
        {
          "internalType": "bytes32",
          "name": "",
          "type": "bytes32"
        }
      ],
      "stateMutability": "view",
      "type": "function"
    },
    {
      "inputs": [],
      "name": "TOTAL_TIME",
      "outputs": [
        {
          "internalType": "uint256",
          "name": "",
          "type": "uint256"
        }
      ],
      "stateMutability": "view",
      "type": "function"
    },
    {
      "inputs": [],
      "name": "UPGRADER_ROLE",
      "outputs": [
        {
          "internalType": "bytes32",
          "name": "",
          "type": "bytes32"
        }
      ],
      "stateMutability": "view",
      "type": "function"
    },
    {
      "inputs": [
        {
          "internalType": "address",
          "name": "to",
          "type": "address"
        },
        {
          "internalType": "uint256",
          "name": "tokenId",
          "type": "uint256"
        }
      ],
      "name": "approve",
      "outputs": [],
      "stateMutability": "nonpayable",
      "type": "function"
    },
    {
      "inputs": [
        {
          "internalType": "address",
          "name": "owner",
          "type": "address"
        }
      ],
      "name": "balanceOf",
      "outputs": [
        {
          "internalType": "uint256",
          "name": "",
          "type": "uint256"
        }
      ],
      "stateMutability": "view",
      "type": "function"
    },
    {
      "inputs": [
        {
          "internalType": "uint256",
          "name": "tokenId_",
          "type": "uint256"
        }
      ],
      "name": "claimAccruedReward",
      "outputs": [],
      "stateMutability": "nonpayable",
      "type": "function"
    },
    {
      "inputs": [
        {
          "internalType": "uint256",
          "name": "tokenId",
          "type": "uint256"
        }
      ],
      "name": "getApproved",
      "outputs": [
        {
          "internalType": "address",
          "name": "",
          "type": "address"
        }
      ],
      "stateMutability": "view",
      "type": "function"
    },
    {
      "inputs": [
        {
          "internalType": "bytes32",
          "name": "role",
          "type": "bytes32"
        }
      ],
      "name": "getRoleAdmin",
      "outputs": [
        {
          "internalType": "bytes32",
          "name": "",
          "type": "bytes32"
        }
      ],
      "stateMutability": "view",
      "type": "function"
    },
    {
      "inputs": [
        {
          "internalType": "bytes32",
          "name": "role",
          "type": "bytes32"
        },
        {
          "internalType": "address",
          "name": "account",
          "type": "address"
        }
      ],
      "name": "grantRole",
      "outputs": [],
      "stateMutability": "nonpayable",
      "type": "function"
    },
    {
      "inputs": [
        {
          "internalType": "bytes32",
          "name": "role",
          "type": "bytes32"
        },
        {
          "internalType": "address",
          "name": "account",
          "type": "address"
        }
      ],
      "name": "hasRole",
      "outputs": [
        {
          "internalType": "bool",
          "name": "",
          "type": "bool"
        }
      ],
      "stateMutability": "view",
      "type": "function"
    },
    {
      "inputs": [
        {
          "internalType": "address",
          "name": "upgrader_",
          "type": "address"
        },
        {
          "internalType": "address",
          "name": "subscription_",
          "type": "address"
        },
        {
          "internalType": "address",
          "name": "traxToken_",
          "type": "address"
        }
      ],
      "name": "initialize",
      "outputs": [],
      "stateMutability": "nonpayable",
      "type": "function"
    },
    {
      "inputs": [
        {
          "internalType": "address",
          "name": "owner",
          "type": "address"
        },
        {
          "internalType": "address",
          "name": "operator",
          "type": "address"
        }
      ],
      "name": "isApprovedForAll",
      "outputs": [
        {
          "internalType": "bool",
          "name": "",
          "type": "bool"
        }
      ],
      "stateMutability": "view",
      "type": "function"
    },
    {
      "inputs": [],
      "name": "name",
      "outputs": [
        {
          "internalType": "string",
          "name": "",
          "type": "string"
        }
      ],
      "stateMutability": "view",
      "type": "function"
    },
    {
      "inputs": [
        {
          "internalType": "uint256",
          "name": "tokenId",
          "type": "uint256"
        }
      ],
      "name": "ownerOf",
      "outputs": [
        {
          "internalType": "address",
          "name": "",
          "type": "address"
        }
      ],
      "stateMutability": "view",
      "type": "function"
    },
    {
      "inputs": [
        {
          "internalType": "bytes32",
          "name": "role",
          "type": "bytes32"
        },
        {
          "internalType": "address",
          "name": "account",
          "type": "address"
        }
      ],
      "name": "renounceRole",
      "outputs": [],
      "stateMutability": "nonpayable",
      "type": "function"
    },
    {
      "inputs": [
        {
          "internalType": "bytes32",
          "name": "role",
          "type": "bytes32"
        },
        {
          "internalType": "address",
          "name": "account",
          "type": "address"
        }
      ],
      "name": "revokeRole",
      "outputs": [],
      "stateMutability": "nonpayable",
      "type": "function"
    },
    {
      "inputs": [
        {
          "internalType": "address",
          "name": "to_",
          "type": "address"
        },
        {
          "internalType": "uint256",
          "name": "amount_",
          "type": "uint256"
        }
      ],
      "name": "reward",
      "outputs": [],
      "stateMutability": "nonpayable",
      "type": "function"
    },
    {
      "inputs": [
        {
          "internalType": "address",
          "name": "from",
          "type": "address"
        },
        {
          "internalType": "address",
          "name": "to",
          "type": "address"
        },
        {
          "internalType": "uint256",
          "name": "tokenId",
          "type": "uint256"
        }
      ],
      "name": "safeTransferFrom",
      "outputs": [],
      "stateMutability": "nonpayable",
      "type": "function"
    },
    {
      "inputs": [
        {
          "internalType": "address",
          "name": "from",
          "type": "address"
        },
        {
          "internalType": "address",
          "name": "to",
          "type": "address"
        },
        {
          "internalType": "uint256",
          "name": "tokenId",
          "type": "uint256"
        },
        {
          "internalType": "bytes",
          "name": "_data",
          "type": "bytes"
        }
      ],
      "name": "safeTransferFrom",
      "outputs": [],
      "stateMutability": "nonpayable",
      "type": "function"
    },
    {
      "inputs": [
        {
          "internalType": "address",
          "name": "operator",
          "type": "address"
        },
        {
          "internalType": "bool",
          "name": "approved",
          "type": "bool"
        }
      ],
      "name": "setApprovalForAll",
      "outputs": [],
      "stateMutability": "nonpayable",
      "type": "function"
    },
    {
      "inputs": [],
      "name": "subscription",
      "outputs": [
        {
          "internalType": "address",
          "name": "",
          "type": "address"
        }
      ],
      "stateMutability": "view",
      "type": "function"
    },
    {
      "inputs": [
        {
          "internalType": "bytes4",
          "name": "interfaceId",
          "type": "bytes4"
        }
      ],
      "name": "supportsInterface",
      "outputs": [
        {
          "internalType": "bool",
          "name": "",
          "type": "bool"
        }
      ],
      "stateMutability": "view",
      "type": "function"
    },
    {
      "inputs": [],
      "name": "symbol",
      "outputs": [
        {
          "internalType": "string",
          "name": "",
          "type": "string"
        }
      ],
      "stateMutability": "view",
      "type": "function"
    },
    {
      "inputs": [
        {
          "internalType": "uint256",
          "name": "",
          "type": "uint256"
        }
      ],
      "name": "tokenMetadata",
      "outputs": [
        {
          "internalType": "uint256",
          "name": "totalAmount",
          "type": "uint256"
        },
        {
          "internalType": "uint256",
          "name": "claimedAmount",
          "type": "uint256"
        },
        {
          "internalType": "uint256",
          "name": "timestamp",
          "type": "uint256"
        }
      ],
      "stateMutability": "view",
      "type": "function"
    },
    {
      "inputs": [
        {
          "internalType": "uint256",
          "name": "tokenId",
          "type": "uint256"
        }
      ],
      "name": "tokenURI",
      "outputs": [
        {
          "internalType": "string",
          "name": "",
          "type": "string"
        }
      ],
      "stateMutability": "view",
      "type": "function"
    },
    {
      "inputs": [
        {
          "internalType": "address",
          "name": "from",
          "type": "address"
        },
        {
          "internalType": "address",
          "name": "to",
          "type": "address"
        },
        {
          "internalType": "uint256",
          "name": "tokenId",
          "type": "uint256"
        }
      ],
      "name": "transferFrom",
      "outputs": [],
      "stateMutability": "nonpayable",
      "type": "function"
    },
    {
      "inputs": [],
      "name": "traxToken",
      "outputs": [
        {
          "internalType": "address",
          "name": "",
          "type": "address"
        }
      ],
      "stateMutability": "view",
      "type": "function"
    },
    {
      "inputs": [
        {
          "internalType": "address",
          "name": "newImplementation",
          "type": "address"
        }
      ],
      "name": "upgradeTo",
      "outputs": [],
      "stateMutability": "nonpayable",
      "type": "function"
    },
    {
      "inputs": [
        {
          "internalType": "address",
          "name": "newImplementation",
          "type": "address"
        },
        {
          "internalType": "bytes",
          "name": "data",
          "type": "bytes"
        }
      ],
      "name": "upgradeToAndCall",
      "outputs": [],
      "stateMutability": "payable",
      "type": "function"
    }
  ],
  "transactionHash": "0x12e82f9c30452ecacc9bbaef786f0c7780f64a8cbc779981ed2c5df254720fc7",
  "args": [],
  "solcInputHash": "fd750c0783e29ee55e57a970f1bbddce",
  "bytecode": "0x60a06040523073ffffffffffffffffffffffffffffffffffffffff1660809073ffffffffffffffffffffffffffffffffffffffff1660601b8152503480156200004757600080fd5b50600060019054906101000a900460ff16806200006f575060008054906101000a900460ff16155b620000b1576040517f08c379a0000000000000000000000000000000000000000000000000000000008152600401620000a89062000152565b60405180910390fd5b60008060019054906101000a900460ff16159050801562000102576001600060016101000a81548160ff02191690831515021790555060016000806101000a81548160ff0219169083151502179055505b8015620001245760008060016101000a81548160ff0219169083151502179055505b50620001d4565b60006200013a602e8362000174565b9150620001478262000185565b604082019050919050565b600060208201905081810360008301526200016d816200012b565b9050919050565b600082825260208201905092915050565b7f496e697469616c697a61626c653a20636f6e747261637420697320616c72656160008201527f647920696e697469616c697a6564000000000000000000000000000000000000602082015250565b60805160601c6153486200020860003960008181610ba101528181610c3001528181610d970152610e2601526153486000f3fe6080604052600436106101c25760003560e01c80636914db60116100f7578063c0c53b8b11610095578063d547741f11610064578063d547741f14610669578063e985e9c514610692578063f72c0d8b146106cf578063f91ce53f146106fa576101c2565b8063c0c53b8b146105ad578063c6725aea146105d6578063c87b56dd14610601578063d10d47eb1461063e576101c2565b806395d89b41116100d157806395d89b4114610505578063a217fddf14610530578063a22cb4651461055b578063b88d4fde14610584576101c2565b80636914db601461044c57806370a082311461048b57806391d14854146104c8576101c2565b80632f2ff15d1161016457806342842e0e1161013e57806342842e0e1461039f57806344387cc2146103c85780634f1ef286146103f35780636352211e1461040f576101c2565b80632f2ff15d1461032457806336568abe1461034d5780633659cfe614610376576101c2565b8063095ea7b3116101a0578063095ea7b31461026c57806321670f221461029557806323b872dd146102be578063248a9ca3146102e7576101c2565b806301ffc9a7146101c757806306fdde0314610204578063081812fc1461022f575b600080fd5b3480156101d357600080fd5b506101ee60048036038101906101e99190613cfb565b610723565b6040516101fb919061433c565b60405180910390f35b34801561021057600080fd5b50610219610735565b6040516102269190614372565b60405180910390f35b34801561023b57600080fd5b5061025660048036038101906102519190613d4d565b6107c7565b60405161026391906142ac565b60405180910390f35b34801561027857600080fd5b50610293600480360381019061028e9190613c31565b61084c565b005b3480156102a157600080fd5b506102bc60048036038101906102b79190613c31565b610964565b005b3480156102ca57600080fd5b506102e560048036038101906102e09190613ad7565b610a73565b005b3480156102f357600080fd5b5061030e60048036038101906103099190613c96565b610ad3565b60405161031b9190614357565b60405180910390f35b34801561033057600080fd5b5061034b60048036038101906103469190613cbf565b610af3565b005b34801561035957600080fd5b50610374600480360381019061036f9190613cbf565b610b1c565b005b34801561038257600080fd5b5061039d60048036038101906103989190613a23565b610b9f565b005b3480156103ab57600080fd5b506103c660048036038101906103c19190613ad7565b610d4e565b005b3480156103d457600080fd5b506103dd610d6e565b6040516103ea91906142ac565b60405180910390f35b61040d60048036038101906104089190613bdd565b610d95565b005b34801561041b57600080fd5b5061043660048036038101906104319190613d4d565b610ed2565b60405161044391906142ac565b60405180910390f35b34801561045857600080fd5b50610473600480360381019061046e9190613d4d565b610f84565b604051610482939291906146cf565b60405180910390f35b34801561049757600080fd5b506104b260048036038101906104ad9190613a23565b610faf565b6040516104bf91906146b4565b60405180910390f35b3480156104d457600080fd5b506104ef60048036038101906104ea9190613cbf565b611067565b6040516104fc919061433c565b60405180910390f35b34801561051157600080fd5b5061051a6110d2565b6040516105279190614372565b60405180910390f35b34801561053c57600080fd5b50610545611164565b6040516105529190614357565b60405180910390f35b34801561056757600080fd5b50610582600480360381019061057d9190613ba1565b61116b565b005b34801561059057600080fd5b506105ab60048036038101906105a69190613b26565b6112ec565b005b3480156105b957600080fd5b506105d460048036038101906105cf9190613a88565b61134e565b005b3480156105e257600080fd5b506105eb611569565b6040516105f891906146b4565b60405180910390f35b34801561060d57600080fd5b5061062860048036038101906106239190613d4d565b611571565b6040516106359190614372565b60405180910390f35b34801561064a57600080fd5b50610653611618565b60405161066091906142ac565b60405180910390f35b34801561067557600080fd5b50610690600480360381019061068b9190613cbf565b61163f565b005b34801561069e57600080fd5b506106b960048036038101906106b49190613a4c565b611668565b6040516106c6919061433c565b60405180910390f35b3480156106db57600080fd5b506106e46116fc565b6040516106f19190614357565b60405180910390f35b34801561070657600080fd5b50610721600480360381019061071c9190613d4d565b611720565b005b600061072e826119dc565b9050919050565b606060658054610744906149a9565b80601f0160208091040260200160405190810160405280929190818152602001828054610770906149a9565b80156107bd5780601f10610792576101008083540402835291602001916107bd565b820191906000526020600020905b8154815290600101906020018083116107a057829003601f168201915b5050505050905090565b60006107d282611a56565b610811576040517f08c379a000000000000000000000000000000000000000000000000000000000815260040161080890614594565b60405180910390fd5b6069600083815260200190815260200160002060009054906101000a900473ffffffffffffffffffffffffffffffffffffffff169050919050565b600061085782610ed2565b90508073ffffffffffffffffffffffffffffffffffffffff168373ffffffffffffffffffffffffffffffffffffffff1614156108c8576040517f08c379a00000000000000000000000000000000000000000000000000000000081526004016108bf90614614565b60405180910390fd5b8073ffffffffffffffffffffffffffffffffffffffff166108e7611ac2565b73ffffffffffffffffffffffffffffffffffffffff161480610916575061091581610910611ac2565b611668565b5b610955576040517f08c379a000000000000000000000000000000000000000000000000000000000815260040161094c906144f4565b60405180910390fd5b61095f8383611aca565b505050565b61012e60009054906101000a900473ffffffffffffffffffffffffffffffffffffffff1673ffffffffffffffffffffffffffffffffffffffff163373ffffffffffffffffffffffffffffffffffffffff16146109f5576040517f08c379a00000000000000000000000000000000000000000000000000000000081526004016109ec906143b4565b60405180910390fd5b604051806060016040528082815260200160008152602001428152506101306000610a2161012d611b83565b8152602001908152602001600020600082015181600001556020820151816001015560408201518160020155905050610a6482610a5f61012d611b83565b611b91565b610a6f61012d611baf565b5050565b610a84610a7e611ac2565b82611bc5565b610ac3576040517f08c379a0000000000000000000000000000000000000000000000000000000008152600401610aba90614654565b60405180910390fd5b610ace838383611ca3565b505050565b600060976000838152602001908152602001600020600101549050919050565b610afc82610ad3565b610b0d81610b08611ac2565b611eff565b610b178383611f9c565b505050565b610b24611ac2565b73ffffffffffffffffffffffffffffffffffffffff168173ffffffffffffffffffffffffffffffffffffffff1614610b91576040517f08c379a0000000000000000000000000000000000000000000000000000000008152600401610b8890614694565b60405180910390fd5b610b9b828261207d565b5050565b7f000000000000000000000000000000000000000000000000000000000000000073ffffffffffffffffffffffffffffffffffffffff163073ffffffffffffffffffffffffffffffffffffffff161415610c2e576040517f08c379a0000000000000000000000000000000000000000000000000000000008152600401610c2590614434565b60405180910390fd5b7f000000000000000000000000000000000000000000000000000000000000000073ffffffffffffffffffffffffffffffffffffffff16610c6d61215f565b73ffffffffffffffffffffffffffffffffffffffff1614610cc3576040517f08c379a0000000000000000000000000000000000000000000000000000000008152600401610cba90614494565b60405180910390fd5b610ccc816121b6565b610d4b81600067ffffffffffffffff811115610d11577f4e487b7100000000000000000000000000000000000000000000000000000000600052604160045260246000fd5b6040519080825280601f01601f191660200182016040528015610d435781602001600182028036833780820191505090505b5060006121ec565b50565b610d69838383604051806020016040528060008152506112ec565b505050565b61012e60009054906101000a900473ffffffffffffffffffffffffffffffffffffffff1681565b7f000000000000000000000000000000000000000000000000000000000000000073ffffffffffffffffffffffffffffffffffffffff163073ffffffffffffffffffffffffffffffffffffffff161415610e24576040517f08c379a0000000000000000000000000000000000000000000000000000000008152600401610e1b90614434565b60405180910390fd5b7f000000000000000000000000000000000000000000000000000000000000000073ffffffffffffffffffffffffffffffffffffffff16610e6361215f565b73ffffffffffffffffffffffffffffffffffffffff1614610eb9576040517f08c379a0000000000000000000000000000000000000000000000000000000008152600401610eb090614494565b60405180910390fd5b610ec2826121b6565b610ece828260016121ec565b5050565b6000806067600084815260200190815260200160002060009054906101000a900473ffffffffffffffffffffffffffffffffffffffff169050600073ffffffffffffffffffffffffffffffffffffffff168173ffffffffffffffffffffffffffffffffffffffff161415610f7b576040517f08c379a0000000000000000000000000000000000000000000000000000000008152600401610f7290614534565b60405180910390fd5b80915050919050565b6101306020528060005260406000206000915090508060000154908060010154908060020154905083565b60008073ffffffffffffffffffffffffffffffffffffffff168273ffffffffffffffffffffffffffffffffffffffff161415611020576040517f08c379a000000000000000000000000000000000000000000000000000000000815260040161101790614514565b60405180910390fd5b606860008373ffffffffffffffffffffffffffffffffffffffff1673ffffffffffffffffffffffffffffffffffffffff168152602001908152602001600020549050919050565b60006097600084815260200190815260200160002060000160008373ffffffffffffffffffffffffffffffffffffffff1673ffffffffffffffffffffffffffffffffffffffff16815260200190815260200160002060009054906101000a900460ff16905092915050565b6060606680546110e1906149a9565b80601f016020809104026020016040519081016040528092919081815260200182805461110d906149a9565b801561115a5780601f1061112f5761010080835404028352916020019161115a565b820191906000526020600020905b81548152906001019060200180831161113d57829003601f168201915b5050505050905090565b6000801b81565b611173611ac2565b73ffffffffffffffffffffffffffffffffffffffff168273ffffffffffffffffffffffffffffffffffffffff1614156111e1576040517f08c379a00000000000000000000000000000000000000000000000000000000081526004016111d890614474565b60405180910390fd5b80606a60006111ee611ac2565b73ffffffffffffffffffffffffffffffffffffffff1673ffffffffffffffffffffffffffffffffffffffff16815260200190815260200160002060008473ffffffffffffffffffffffffffffffffffffffff1673ffffffffffffffffffffffffffffffffffffffff16815260200190815260200160002060006101000a81548160ff0219169083151502179055508173ffffffffffffffffffffffffffffffffffffffff1661129b611ac2565b73ffffffffffffffffffffffffffffffffffffffff167f17307eab39ab6107e8899845ad3d59bd9653f200f220920489ca2b5937696c31836040516112e0919061433c565b60405180910390a35050565b6112fd6112f7611ac2565b83611bc5565b61133c576040517f08c379a000000000000000000000000000000000000000000000000000000000815260040161133390614654565b60405180910390fd5b611348848484846123bd565b50505050565b600060019054906101000a900460ff1680611374575060008054906101000a900460ff16155b6113b3576040517f08c379a00000000000000000000000000000000000000000000000000000000081526004016113aa90614554565b60405180910390fd5b60008060019054906101000a900460ff161590508015611403576001600060016101000a81548160ff02191690831515021790555060016000806101000a81548160ff0219169083151502179055505b8261012e60006101000a81548173ffffffffffffffffffffffffffffffffffffffff021916908373ffffffffffffffffffffffffffffffffffffffff1602179055508161012f60006101000a81548173ffffffffffffffffffffffffffffffffffffffff021916908373ffffffffffffffffffffffffffffffffffffffff1602179055506114fb6040518060400160405280601d81526020017f50726976692054726178205265776172647320436f6c6c656374696f6e0000008152506040518060400160405280600581526020017f7054525744000000000000000000000000000000000000000000000000000000815250612419565b61150361250e565b61150b6125ff565b6115186000801b336126e8565b6115427f189ab7a9244df0848122154315af71fe140f3db0fe014031783b0946b8c9d2e3856126e8565b80156115635760008060016101000a81548160ff0219169083151502179055505b50505050565b6301e1338081565b606061157c82611a56565b6115bb576040517f08c379a00000000000000000000000000000000000000000000000000000000081526004016115b2906145f4565b60405180910390fd5b60006115c56126f6565b905060008151116115e55760405180602001604052806000815250611610565b806115ef8461270d565b60405160200161160092919061424e565b6040516020818303038152906040525b915050919050565b61012f60009054906101000a900473ffffffffffffffffffffffffffffffffffffffff1681565b61164882610ad3565b61165981611654611ac2565b611eff565b611663838361207d565b505050565b6000606a60008473ffffffffffffffffffffffffffffffffffffffff1673ffffffffffffffffffffffffffffffffffffffff16815260200190815260200160002060008373ffffffffffffffffffffffffffffffffffffffff1673ffffffffffffffffffffffffffffffffffffffff16815260200190815260200160002060009054906101000a900460ff16905092915050565b7f189ab7a9244df0848122154315af71fe140f3db0fe014031783b0946b8c9d2e381565b3373ffffffffffffffffffffffffffffffffffffffff1661174082610ed2565b73ffffffffffffffffffffffffffffffffffffffff1614611796576040517f08c379a000000000000000000000000000000000000000000000000000000000815260040161178d90614674565b60405180910390fd5b600061013060008381526020019081526020016000206040518060600160405290816000820154815260200160018201548152602001600282015481525050905060006301e133806d04ee2d6d415b85acef81000000008360400151426117fd919061488b565b6118079190614831565b6118119190614800565b90506d04ee2d6d415b85acef810000000081111561183b576d04ee2d6d415b85acef810000000090505b600082602001516d04ee2d6d415b85acef81000000008460000151846118619190614831565b61186b9190614800565b611875919061488b565b905060008111156119d65780610130600086815260200190815260200160002060010160008282546118a791906147aa565b9250508190555061012f60009054906101000a900473ffffffffffffffffffffffffffffffffffffffff1673ffffffffffffffffffffffffffffffffffffffff1663a9059cbb33836040518363ffffffff1660e01b815260040161190c929190614313565b602060405180830381600087803b15801561192657600080fd5b505af115801561193a573d6000803e3d6000fd5b505050506040513d601f19601f8201168201806040525081019061195e9190613c6d565b61199d576040517f08c379a0000000000000000000000000000000000000000000000000000000008152600401611994906144d4565b60405180910390fd5b837f36b0303357678c183dd8bb9aa77c7209d354cc10ff8cd2735132687974d9adb0826040516119cd91906146b4565b60405180910390a25b50505050565b60007f7965db0b000000000000000000000000000000000000000000000000000000007bffffffffffffffffffffffffffffffffffffffffffffffffffffffff1916827bffffffffffffffffffffffffffffffffffffffffffffffffffffffff19161480611a4f5750611a4e826128ba565b5b9050919050565b60008073ffffffffffffffffffffffffffffffffffffffff166067600084815260200190815260200160002060009054906101000a900473ffffffffffffffffffffffffffffffffffffffff1673ffffffffffffffffffffffffffffffffffffffff1614159050919050565b600033905090565b816069600083815260200190815260200160002060006101000a81548173ffffffffffffffffffffffffffffffffffffffff021916908373ffffffffffffffffffffffffffffffffffffffff160217905550808273ffffffffffffffffffffffffffffffffffffffff16611b3d83610ed2565b73ffffffffffffffffffffffffffffffffffffffff167f8c5be1e5ebec7d5bd14f71427d1e84f3dd0314c0f7b2291e5b200ac8c7c3b92560405160405180910390a45050565b600081600001549050919050565b611bab82826040518060200160405280600081525061299c565b5050565b6001816000016000828254019250508190555050565b6000611bd082611a56565b611c0f576040517f08c379a0000000000000000000000000000000000000000000000000000000008152600401611c06906144b4565b60405180910390fd5b6000611c1a83610ed2565b90508073ffffffffffffffffffffffffffffffffffffffff168473ffffffffffffffffffffffffffffffffffffffff161480611c8957508373ffffffffffffffffffffffffffffffffffffffff16611c71846107c7565b73ffffffffffffffffffffffffffffffffffffffff16145b80611c9a5750611c998185611668565b5b91505092915050565b8273ffffffffffffffffffffffffffffffffffffffff16611cc382610ed2565b73ffffffffffffffffffffffffffffffffffffffff1614611d19576040517f08c379a0000000000000000000000000000000000000000000000000000000008152600401611d10906145d4565b60405180910390fd5b600073ffffffffffffffffffffffffffffffffffffffff168273ffffffffffffffffffffffffffffffffffffffff161415611d89576040517f08c379a0000000000000000000000000000000000000000000000000000000008152600401611d8090614454565b60405180910390fd5b611d948383836129f7565b611d9f600082611aca565b6001606860008573ffffffffffffffffffffffffffffffffffffffff1673ffffffffffffffffffffffffffffffffffffffff1681526020019081526020016000206000828254611def919061488b565b925050819055506001606860008473ffffffffffffffffffffffffffffffffffffffff1673ffffffffffffffffffffffffffffffffffffffff1681526020019081526020016000206000828254611e4691906147aa565b92505081905550816067600083815260200190815260200160002060006101000a81548173ffffffffffffffffffffffffffffffffffffffff021916908373ffffffffffffffffffffffffffffffffffffffff160217905550808273ffffffffffffffffffffffffffffffffffffffff168473ffffffffffffffffffffffffffffffffffffffff167fddf252ad1be2c89b69c2b068fc378daa952ba7f163c4a11628f55a4df523b3ef60405160405180910390a4505050565b611f098282611067565b611f9857611f2e8173ffffffffffffffffffffffffffffffffffffffff1660146129fc565b611f3c8360001c60206129fc565b604051602001611f4d929190614272565b6040516020818303038152906040526040517f08c379a0000000000000000000000000000000000000000000000000000000008152600401611f8f9190614372565b60405180910390fd5b5050565b611fa68282611067565b6120795760016097600084815260200190815260200160002060000160008373ffffffffffffffffffffffffffffffffffffffff1673ffffffffffffffffffffffffffffffffffffffff16815260200190815260200160002060006101000a81548160ff02191690831515021790555061201e611ac2565b73ffffffffffffffffffffffffffffffffffffffff168173ffffffffffffffffffffffffffffffffffffffff16837f2f8788117e7eff1d82e926ec794901d17c78024a50270940304540a733656f0d60405160405180910390a45b5050565b6120878282611067565b1561215b5760006097600084815260200190815260200160002060000160008373ffffffffffffffffffffffffffffffffffffffff1673ffffffffffffffffffffffffffffffffffffffff16815260200190815260200160002060006101000a81548160ff021916908315150217905550612100611ac2565b73ffffffffffffffffffffffffffffffffffffffff168173ffffffffffffffffffffffffffffffffffffffff16837ff6391f5c32d9c69d2a47ea670b442974b53935d1edc7fd64eb21e047a839171b60405160405180910390a45b5050565b600061218d7f360894a13ba1a3210667c828492db98dca3e2076cc3735a920a3ca505d382bbc60001b612cf6565b60000160009054906101000a900473ffffffffffffffffffffffffffffffffffffffff16905090565b7f189ab7a9244df0848122154315af71fe140f3db0fe014031783b0946b8c9d2e36121e8816121e3611ac2565b611eff565b5050565b60006121f661215f565b905061220184612d00565b60008351118061220e5750815b1561221f5761221d8484612db9565b505b600061224d7f4910fdfa16fed3260ed0e7147f7cc6da11a60208b5b9406d12a635614ffd914360001b612e9d565b90508060000160009054906101000a900460ff166123b65760018160000160006101000a81548160ff021916908315150217905550612319858360405160240161229791906142ac565b6040516020818303038152906040527f3659cfe6000000000000000000000000000000000000000000000000000000007bffffffffffffffffffffffffffffffffffffffffffffffffffffffff19166020820180517bffffffffffffffffffffffffffffffffffffffffffffffffffffffff8381831617835250505050612db9565b5060008160000160006101000a81548160ff02191690831515021790555061233f61215f565b73ffffffffffffffffffffffffffffffffffffffff168273ffffffffffffffffffffffffffffffffffffffff16146123ac576040517f08c379a00000000000000000000000000000000000000000000000000000000081526004016123a3906143f4565b60405180910390fd5b6123b585612ea7565b5b5050505050565b6123c8848484611ca3565b6123d484848484612ef6565b612413576040517f08c379a000000000000000000000000000000000000000000000000000000000815260040161240a906143d4565b60405180910390fd5b50505050565b600060019054906101000a900460ff168061243f575060008054906101000a900460ff16155b61247e576040517f08c379a000000000000000000000000000000000000000000000000000000000815260040161247590614554565b60405180910390fd5b60008060019054906101000a900460ff1615905080156124ce576001600060016101000a81548160ff02191690831515021790555060016000806101000a81548160ff0219169083151502179055505b6124d661308d565b6124de613166565b6124e8838361323f565b80156125095760008060016101000a81548160ff0219169083151502179055505b505050565b600060019054906101000a900460ff1680612534575060008054906101000a900460ff16155b612573576040517f08c379a000000000000000000000000000000000000000000000000000000000815260040161256a90614554565b60405180910390fd5b60008060019054906101000a900460ff1615905080156125c3576001600060016101000a81548160ff02191690831515021790555060016000806101000a81548160ff0219169083151502179055505b6125cb61308d565b6125d3613166565b6125db613348565b80156125fc5760008060016101000a81548160ff0219169083151502179055505b50565b600060019054906101000a900460ff1680612625575060008054906101000a900460ff16155b612664576040517f08c379a000000000000000000000000000000000000000000000000000000000815260040161265b90614554565b60405180910390fd5b60008060019054906101000a900460ff1615905080156126b4576001600060016101000a81548160ff02191690831515021790555060016000806101000a81548160ff0219169083151502179055505b6126bc613421565b6126c46134fa565b80156126e55760008060016101000a81548160ff0219169083151502179055505b50565b6126f28282611f9c565b5050565b606060405180602001604052806000815250905090565b60606000821415612755576040518060400160405280600181526020017f300000000000000000000000000000000000000000000000000000000000000081525090506128b5565b600082905060005b6000821461278757808061277090614a0c565b915050600a826127809190614800565b915061275d565b60008167ffffffffffffffff8111156127c9577f4e487b7100000000000000000000000000000000000000000000000000000000600052604160045260246000fd5b6040519080825280601f01601f1916602001820160405280156127fb5781602001600182028036833780820191505090505b5090505b600085146128ae57600182612814919061488b565b9150600a856128239190614a55565b603061282f91906147aa565b60f81b81838151811061286b577f4e487b7100000000000000000000000000000000000000000000000000000000600052603260045260246000fd5b60200101907effffffffffffffffffffffffffffffffffffffffffffffffffffffffffffff1916908160001a905350600a856128a79190614800565b94506127ff565b8093505050505b919050565b60007f80ac58cd000000000000000000000000000000000000000000000000000000007bffffffffffffffffffffffffffffffffffffffffffffffffffffffff1916827bffffffffffffffffffffffffffffffffffffffffffffffffffffffff1916148061298557507f5b5e139f000000000000000000000000000000000000000000000000000000007bffffffffffffffffffffffffffffffffffffffffffffffffffffffff1916827bffffffffffffffffffffffffffffffffffffffffffffffffffffffff1916145b806129955750612994826135d3565b5b9050919050565b6129a6838361363d565b6129b36000848484612ef6565b6129f2576040517f08c379a00000000000000000000000000000000000000000000000000000000081526004016129e9906143d4565b60405180910390fd5b505050565b505050565b606060006002836002612a0f9190614831565b612a1991906147aa565b67ffffffffffffffff811115612a58577f4e487b7100000000000000000000000000000000000000000000000000000000600052604160045260246000fd5b6040519080825280601f01601f191660200182016040528015612a8a5781602001600182028036833780820191505090505b5090507f300000000000000000000000000000000000000000000000000000000000000081600081518110612ae8577f4e487b7100000000000000000000000000000000000000000000000000000000600052603260045260246000fd5b60200101907effffffffffffffffffffffffffffffffffffffffffffffffffffffffffffff1916908160001a9053507f780000000000000000000000000000000000000000000000000000000000000081600181518110612b72577f4e487b7100000000000000000000000000000000000000000000000000000000600052603260045260246000fd5b60200101907effffffffffffffffffffffffffffffffffffffffffffffffffffffffffffff1916908160001a90535060006001846002612bb29190614831565b612bbc91906147aa565b90505b6001811115612ca8577f3031323334353637383961626364656600000000000000000000000000000000600f861660108110612c24577f4e487b7100000000000000000000000000000000000000000000000000000000600052603260045260246000fd5b1a60f81b828281518110612c61577f4e487b7100000000000000000000000000000000000000000000000000000000600052603260045260246000fd5b60200101907effffffffffffffffffffffffffffffffffffffffffffffffffffffffffffff1916908160001a905350600485901c945080612ca19061497f565b9050612bbf565b5060008414612cec576040517f08c379a0000000000000000000000000000000000000000000000000000000008152600401612ce390614394565b60405180910390fd5b8091505092915050565b6000819050919050565b612d098161380b565b612d48576040517f08c379a0000000000000000000000000000000000000000000000000000000008152600401612d3f906145b4565b60405180910390fd5b80612d757f360894a13ba1a3210667c828492db98dca3e2076cc3735a920a3ca505d382bbc60001b612cf6565b60000160006101000a81548173ffffffffffffffffffffffffffffffffffffffff021916908373ffffffffffffffffffffffffffffffffffffffff16021790555050565b6060612dc48361380b565b612e03576040517f08c379a0000000000000000000000000000000000000000000000000000000008152600401612dfa90614634565b60405180910390fd5b6000808473ffffffffffffffffffffffffffffffffffffffff1684604051612e2b9190614237565b600060405180830381855af49150503d8060008114612e66576040519150601f19603f3d011682016040523d82523d6000602084013e612e6b565b606091505b5091509150612e9382826040518060600160405280602781526020016152ec6027913961381e565b9250505092915050565b6000819050919050565b612eb081612d00565b8073ffffffffffffffffffffffffffffffffffffffff167fbc7cd75a20ee27fd9adebab32041f755214dbc6bffa90cc0225b39da2e5c2d3b60405160405180910390a250565b6000612f178473ffffffffffffffffffffffffffffffffffffffff1661380b565b15613080578373ffffffffffffffffffffffffffffffffffffffff1663150b7a02612f40611ac2565b8786866040518563ffffffff1660e01b8152600401612f6294939291906142c7565b602060405180830381600087803b158015612f7c57600080fd5b505af1925050508015612fad57506040513d601f19601f82011682018060405250810190612faa9190613d24565b60015b613030573d8060008114612fdd576040519150601f19603f3d011682016040523d82523d6000602084013e612fe2565b606091505b50600081511415613028576040517f08c379a000000000000000000000000000000000000000000000000000000000815260040161301f906143d4565b60405180910390fd5b805181602001fd5b63150b7a0260e01b7bffffffffffffffffffffffffffffffffffffffffffffffffffffffff1916817bffffffffffffffffffffffffffffffffffffffffffffffffffffffff191614915050613085565b600190505b949350505050565b600060019054906101000a900460ff16806130b3575060008054906101000a900460ff16155b6130f2576040517f08c379a00000000000000000000000000000000000000000000000000000000081526004016130e990614554565b60405180910390fd5b60008060019054906101000a900460ff161590508015613142576001600060016101000a81548160ff02191690831515021790555060016000806101000a81548160ff0219169083151502179055505b80156131635760008060016101000a81548160ff0219169083151502179055505b50565b600060019054906101000a900460ff168061318c575060008054906101000a900460ff16155b6131cb576040517f08c379a00000000000000000000000000000000000000000000000000000000081526004016131c290614554565b60405180910390fd5b60008060019054906101000a900460ff16159050801561321b576001600060016101000a81548160ff02191690831515021790555060016000806101000a81548160ff0219169083151502179055505b801561323c5760008060016101000a81548160ff0219169083151502179055505b50565b600060019054906101000a900460ff1680613265575060008054906101000a900460ff16155b6132a4576040517f08c379a000000000000000000000000000000000000000000000000000000000815260040161329b90614554565b60405180910390fd5b60008060019054906101000a900460ff1615905080156132f4576001600060016101000a81548160ff02191690831515021790555060016000806101000a81548160ff0219169083151502179055505b826065908051906020019061330a929190613885565b508160669080519060200190613321929190613885565b5080156133435760008060016101000a81548160ff0219169083151502179055505b505050565b600060019054906101000a900460ff168061336e575060008054906101000a900460ff16155b6133ad576040517f08c379a00000000000000000000000000000000000000000000000000000000081526004016133a490614554565b60405180910390fd5b60008060019054906101000a900460ff1615905080156133fd576001600060016101000a81548160ff02191690831515021790555060016000806101000a81548160ff0219169083151502179055505b801561341e5760008060016101000a81548160ff0219169083151502179055505b50565b600060019054906101000a900460ff1680613447575060008054906101000a900460ff16155b613486576040517f08c379a000000000000000000000000000000000000000000000000000000000815260040161347d90614554565b60405180910390fd5b60008060019054906101000a900460ff1615905080156134d6576001600060016101000a81548160ff02191690831515021790555060016000806101000a81548160ff0219169083151502179055505b80156134f75760008060016101000a81548160ff0219169083151502179055505b50565b600060019054906101000a900460ff1680613520575060008054906101000a900460ff16155b61355f576040517f08c379a000000000000000000000000000000000000000000000000000000000815260040161355690614554565b60405180910390fd5b60008060019054906101000a900460ff1615905080156135af576001600060016101000a81548160ff02191690831515021790555060016000806101000a81548160ff0219169083151502179055505b80156135d05760008060016101000a81548160ff0219169083151502179055505b50565b60007f01ffc9a7000000000000000000000000000000000000000000000000000000007bffffffffffffffffffffffffffffffffffffffffffffffffffffffff1916827bffffffffffffffffffffffffffffffffffffffffffffffffffffffff1916149050919050565b600073ffffffffffffffffffffffffffffffffffffffff168273ffffffffffffffffffffffffffffffffffffffff1614156136ad576040517f08c379a00000000000000000000000000000000000000000000000000000000081526004016136a490614574565b60405180910390fd5b6136b681611a56565b156136f6576040517f08c379a00000000000000000000000000000000000000000000000000000000081526004016136ed90614414565b60405180910390fd5b613702600083836129f7565b6001606860008473ffffffffffffffffffffffffffffffffffffffff1673ffffffffffffffffffffffffffffffffffffffff168152602001908152602001600020600082825461375291906147aa565b92505081905550816067600083815260200190815260200160002060006101000a81548173ffffffffffffffffffffffffffffffffffffffff021916908373ffffffffffffffffffffffffffffffffffffffff160217905550808273ffffffffffffffffffffffffffffffffffffffff16600073ffffffffffffffffffffffffffffffffffffffff167fddf252ad1be2c89b69c2b068fc378daa952ba7f163c4a11628f55a4df523b3ef60405160405180910390a45050565b600080823b905060008111915050919050565b6060831561382e5782905061387e565b6000835111156138415782518084602001fd5b816040517f08c379a00000000000000000000000000000000000000000000000000000000081526004016138759190614372565b60405180910390fd5b9392505050565b828054613891906149a9565b90600052602060002090601f0160209004810192826138b357600085556138fa565b82601f106138cc57805160ff19168380011785556138fa565b828001600101855582156138fa579182015b828111156138f95782518255916020019190600101906138de565b5b509050613907919061390b565b5090565b5b8082111561392457600081600090555060010161390c565b5090565b600061393b6139368461472b565b614706565b90508281526020810184848401111561395357600080fd5b61395e84828561493d565b509392505050565b60008135905061397581615278565b92915050565b60008135905061398a8161528f565b92915050565b60008151905061399f8161528f565b92915050565b6000813590506139b4816152a6565b92915050565b6000813590506139c9816152bd565b92915050565b6000815190506139de816152bd565b92915050565b600082601f8301126139f557600080fd5b8135613a05848260208601613928565b91505092915050565b600081359050613a1d816152d4565b92915050565b600060208284031215613a3557600080fd5b6000613a4384828501613966565b91505092915050565b60008060408385031215613a5f57600080fd5b6000613a6d85828601613966565b9250506020613a7e85828601613966565b9150509250929050565b600080600060608486031215613a9d57600080fd5b6000613aab86828701613966565b9350506020613abc86828701613966565b9250506040613acd86828701613966565b9150509250925092565b600080600060608486031215613aec57600080fd5b6000613afa86828701613966565b9350506020613b0b86828701613966565b9250506040613b1c86828701613a0e565b9150509250925092565b60008060008060808587031215613b3c57600080fd5b6000613b4a87828801613966565b9450506020613b5b87828801613966565b9350506040613b6c87828801613a0e565b925050606085013567ffffffffffffffff811115613b8957600080fd5b613b95878288016139e4565b91505092959194509250565b60008060408385031215613bb457600080fd5b6000613bc285828601613966565b9250506020613bd38582860161397b565b9150509250929050565b60008060408385031215613bf057600080fd5b6000613bfe85828601613966565b925050602083013567ffffffffffffffff811115613c1b57600080fd5b613c27858286016139e4565b9150509250929050565b60008060408385031215613c4457600080fd5b6000613c5285828601613966565b9250506020613c6385828601613a0e565b9150509250929050565b600060208284031215613c7f57600080fd5b6000613c8d84828501613990565b91505092915050565b600060208284031215613ca857600080fd5b6000613cb6848285016139a5565b91505092915050565b60008060408385031215613cd257600080fd5b6000613ce0858286016139a5565b9250506020613cf185828601613966565b9150509250929050565b600060208284031215613d0d57600080fd5b6000613d1b848285016139ba565b91505092915050565b600060208284031215613d3657600080fd5b6000613d44848285016139cf565b91505092915050565b600060208284031215613d5f57600080fd5b6000613d6d84828501613a0e565b91505092915050565b613d7f816148bf565b82525050565b613d8e816148d1565b82525050565b613d9d816148dd565b82525050565b6000613dae8261475c565b613db88185614772565b9350613dc881856020860161494c565b613dd181614b42565b840191505092915050565b6000613de78261475c565b613df18185614783565b9350613e0181856020860161494c565b80840191505092915050565b6000613e1882614767565b613e22818561478e565b9350613e3281856020860161494c565b613e3b81614b42565b840191505092915050565b6000613e5182614767565b613e5b818561479f565b9350613e6b81856020860161494c565b80840191505092915050565b6000613e8460208361478e565b9150613e8f82614b53565b602082019050919050565b6000613ea760268361478e565b9150613eb282614b7c565b604082019050919050565b6000613eca60328361478e565b9150613ed582614bcb565b604082019050919050565b6000613eed602f8361478e565b9150613ef882614c1a565b604082019050919050565b6000613f10601c8361478e565b9150613f1b82614c69565b602082019050919050565b6000613f33602c8361478e565b9150613f3e82614c92565b604082019050919050565b6000613f5660248361478e565b9150613f6182614ce1565b604082019050919050565b6000613f7960198361478e565b9150613f8482614d30565b602082019050919050565b6000613f9c602c8361478e565b9150613fa782614d59565b604082019050919050565b6000613fbf602c8361478e565b9150613fca82614da8565b604082019050919050565b6000613fe260108361478e565b9150613fed82614df7565b602082019050919050565b600061400560388361478e565b915061401082614e20565b604082019050919050565b6000614028602a8361478e565b915061403382614e6f565b604082019050919050565b600061404b60298361478e565b915061405682614ebe565b604082019050919050565b600061406e602e8361478e565b915061407982614f0d565b604082019050919050565b600061409160208361478e565b915061409c82614f5c565b602082019050919050565b60006140b4602c8361478e565b91506140bf82614f85565b604082019050919050565b60006140d7602d8361478e565b91506140e282614fd4565b604082019050919050565b60006140fa60298361478e565b915061410582615023565b604082019050919050565b600061411d602f8361478e565b915061412882615072565b604082019050919050565b600061414060218361478e565b915061414b826150c1565b604082019050919050565b600061416360268361478e565b915061416e82615110565b604082019050919050565b600061418660318361478e565b91506141918261515f565b604082019050919050565b60006141a960178361479f565b91506141b4826151ae565b601782019050919050565b60006141cc60148361478e565b91506141d7826151d7565b602082019050919050565b60006141ef60118361479f565b91506141fa82615200565b601182019050919050565b6000614212602f8361478e565b915061421d82615229565b604082019050919050565b61423181614933565b82525050565b60006142438284613ddc565b915081905092915050565b600061425a8285613e46565b91506142668284613e46565b91508190509392505050565b600061427d8261419c565b91506142898285613e46565b9150614294826141e2565b91506142a08284613e46565b91508190509392505050565b60006020820190506142c16000830184613d76565b92915050565b60006080820190506142dc6000830187613d76565b6142e96020830186613d76565b6142f66040830185614228565b81810360608301526143088184613da3565b905095945050505050565b60006040820190506143286000830185613d76565b6143356020830184614228565b9392505050565b60006020820190506143516000830184613d85565b92915050565b600060208201905061436c6000830184613d94565b92915050565b6000602082019050818103600083015261438c8184613e0d565b905092915050565b600060208201905081810360008301526143ad81613e77565b9050919050565b600060208201905081810360008301526143cd81613e9a565b9050919050565b600060208201905081810360008301526143ed81613ebd565b9050919050565b6000602082019050818103600083015261440d81613ee0565b9050919050565b6000602082019050818103600083015261442d81613f03565b9050919050565b6000602082019050818103600083015261444d81613f26565b9050919050565b6000602082019050818103600083015261446d81613f49565b9050919050565b6000602082019050818103600083015261448d81613f6c565b9050919050565b600060208201905081810360008301526144ad81613f8f565b9050919050565b600060208201905081810360008301526144cd81613fb2565b9050919050565b600060208201905081810360008301526144ed81613fd5565b9050919050565b6000602082019050818103600083015261450d81613ff8565b9050919050565b6000602082019050818103600083015261452d8161401b565b9050919050565b6000602082019050818103600083015261454d8161403e565b9050919050565b6000602082019050818103600083015261456d81614061565b9050919050565b6000602082019050818103600083015261458d81614084565b9050919050565b600060208201905081810360008301526145ad816140a7565b9050919050565b600060208201905081810360008301526145cd816140ca565b9050919050565b600060208201905081810360008301526145ed816140ed565b9050919050565b6000602082019050818103600083015261460d81614110565b9050919050565b6000602082019050818103600083015261462d81614133565b9050919050565b6000602082019050818103600083015261464d81614156565b9050919050565b6000602082019050818103600083015261466d81614179565b9050919050565b6000602082019050818103600083015261468d816141bf565b9050919050565b600060208201905081810360008301526146ad81614205565b9050919050565b60006020820190506146c96000830184614228565b92915050565b60006060820190506146e46000830186614228565b6146f16020830185614228565b6146fe6040830184614228565b949350505050565b6000614710614721565b905061471c82826149db565b919050565b6000604051905090565b600067ffffffffffffffff82111561474657614745614b13565b5b61474f82614b42565b9050602081019050919050565b600081519050919050565b600081519050919050565b600082825260208201905092915050565b600081905092915050565b600082825260208201905092915050565b600081905092915050565b60006147b582614933565b91506147c083614933565b9250827fffffffffffffffffffffffffffffffffffffffffffffffffffffffffffffffff038211156147f5576147f4614a86565b5b828201905092915050565b600061480b82614933565b915061481683614933565b92508261482657614825614ab5565b5b828204905092915050565b600061483c82614933565b915061484783614933565b9250817fffffffffffffffffffffffffffffffffffffffffffffffffffffffffffffffff04831182151516156148805761487f614a86565b5b828202905092915050565b600061489682614933565b91506148a183614933565b9250828210156148b4576148b3614a86565b5b828203905092915050565b60006148ca82614913565b9050919050565b60008115159050919050565b6000819050919050565b60007fffffffff0000000000000000000000000000000000000000000000000000000082169050919050565b600073ffffffffffffffffffffffffffffffffffffffff82169050919050565b6000819050919050565b82818337600083830152505050565b60005b8381101561496a57808201518184015260208101905061494f565b83811115614979576000848401525b50505050565b600061498a82614933565b9150600082141561499e5761499d614a86565b5b600182039050919050565b600060028204905060018216806149c157607f821691505b602082108114156149d5576149d4614ae4565b5b50919050565b6149e482614b42565b810181811067ffffffffffffffff82111715614a0357614a02614b13565b5b80604052505050565b6000614a1782614933565b91507fffffffffffffffffffffffffffffffffffffffffffffffffffffffffffffffff821415614a4a57614a49614a86565b5b600182019050919050565b6000614a6082614933565b9150614a6b83614933565b925082614a7b57614a7a614ab5565b5b828206905092915050565b7f4e487b7100000000000000000000000000000000000000000000000000000000600052601160045260246000fd5b7f4e487b7100000000000000000000000000000000000000000000000000000000600052601260045260246000fd5b7f4e487b7100000000000000000000000000000000000000000000000000000000600052602260045260246000fd5b7f4e487b7100000000000000000000000000000000000000000000000000000000600052604160045260246000fd5b6000601f19601f8301169050919050565b7f537472696e67733a20686578206c656e67746820696e73756666696369656e74600082015250565b7f4f6e6c792063616c6c61626c6520627920737562736372697074696f6e20636f60008201527f6e74726163740000000000000000000000000000000000000000000000000000602082015250565b7f4552433732313a207472616e7366657220746f206e6f6e20455243373231526560008201527f63656976657220696d706c656d656e7465720000000000000000000000000000602082015250565b7f45524331393637557067726164653a207570677261646520627265616b73206660008201527f7572746865722075706772616465730000000000000000000000000000000000602082015250565b7f4552433732313a20746f6b656e20616c7265616479206d696e74656400000000600082015250565b7f46756e6374696f6e206d7573742062652063616c6c6564207468726f7567682060008201527f64656c656761746563616c6c0000000000000000000000000000000000000000602082015250565b7f4552433732313a207472616e7366657220746f20746865207a65726f2061646460008201527f7265737300000000000000000000000000000000000000000000000000000000602082015250565b7f4552433732313a20617070726f766520746f2063616c6c657200000000000000600082015250565b7f46756e6374696f6e206d7573742062652063616c6c6564207468726f7567682060008201527f6163746976652070726f78790000000000000000000000000000000000000000602082015250565b7f4552433732313a206f70657261746f7220717565727920666f72206e6f6e657860008201527f697374656e7420746f6b656e0000000000000000000000000000000000000000602082015250565b7f4661696c20746f207472616e7366657200000000000000000000000000000000600082015250565b7f4552433732313a20617070726f76652063616c6c6572206973206e6f74206f7760008201527f6e6572206e6f7220617070726f76656420666f7220616c6c0000000000000000602082015250565b7f4552433732313a2062616c616e636520717565727920666f7220746865207a6560008201527f726f206164647265737300000000000000000000000000000000000000000000602082015250565b7f4552433732313a206f776e657220717565727920666f72206e6f6e657869737460008201527f656e7420746f6b656e0000000000000000000000000000000000000000000000602082015250565b7f496e697469616c697a61626c653a20636f6e747261637420697320616c72656160008201527f647920696e697469616c697a6564000000000000000000000000000000000000602082015250565b7f4552433732313a206d696e7420746f20746865207a65726f2061646472657373600082015250565b7f4552433732313a20617070726f76656420717565727920666f72206e6f6e657860008201527f697374656e7420746f6b656e0000000000000000000000000000000000000000602082015250565b7f455243313936373a206e657720696d706c656d656e746174696f6e206973206e60008201527f6f74206120636f6e747261637400000000000000000000000000000000000000602082015250565b7f4552433732313a207472616e73666572206f6620746f6b656e2074686174206960008201527f73206e6f74206f776e0000000000000000000000000000000000000000000000602082015250565b7f4552433732314d657461646174613a2055524920717565727920666f72206e6f60008201527f6e6578697374656e7420746f6b656e0000000000000000000000000000000000602082015250565b7f4552433732313a20617070726f76616c20746f2063757272656e74206f776e6560008201527f7200000000000000000000000000000000000000000000000000000000000000602082015250565b7f416464726573733a2064656c65676174652063616c6c20746f206e6f6e2d636f60008201527f6e74726163740000000000000000000000000000000000000000000000000000602082015250565b7f4552433732313a207472616e736665722063616c6c6572206973206e6f74206f60008201527f776e6572206e6f7220617070726f766564000000000000000000000000000000602082015250565b7f416363657373436f6e74726f6c3a206163636f756e7420000000000000000000600082015250565b7f4f6e6c79206f776e65722063616e20636c61696d000000000000000000000000600082015250565b7f206973206d697373696e6720726f6c6520000000000000000000000000000000600082015250565b7f416363657373436f6e74726f6c3a2063616e206f6e6c792072656e6f756e636560008201527f20726f6c657320666f722073656c660000000000000000000000000000000000602082015250565b615281816148bf565b811461528c57600080fd5b50565b615298816148d1565b81146152a357600080fd5b50565b6152af816148dd565b81146152ba57600080fd5b50565b6152c6816148e7565b81146152d157600080fd5b50565b6152dd81614933565b81146152e857600080fd5b5056fe416464726573733a206c6f772d6c6576656c2064656c65676174652063616c6c206661696c6564a2646970667358221220fedc06393e9c167eb2a6467138e2c6d6ac0fa9689276cdf69bee5190edea521c64736f6c63430008040033",
  "devdoc": {
    "events": {
      "AccruedRewardClaimed(uint256,uint256)": {
        "details": "emitted when a user claims accrued reward of a token",
        "params": {
          "amount": "the amount claimed",
          "tokenId": "the id of the reward token"
        }
      }
    },
    "kind": "dev",
    "methods": {
      "approve(address,uint256)": {
        "details": "See {IERC721-approve}."
      },
      "balanceOf(address)": {
        "details": "See {IERC721-balanceOf}."
      },
      "claimAccruedReward(uint256)": {
        "params": {
          "tokenId_": "the id of the reward token to claim from"
        }
      },
      "constructor": {
        "custom:oz-upgrades-unsafe-allow": "constructor"
      },
      "getApproved(uint256)": {
        "details": "See {IERC721-getApproved}."
      },
      "getRoleAdmin(bytes32)": {
        "details": "Returns the admin role that controls `role`. See {grantRole} and {revokeRole}. To change a role's admin, use {_setRoleAdmin}."
      },
      "grantRole(bytes32,address)": {
        "details": "Grants `role` to `account`. If `account` had not been already granted `role`, emits a {RoleGranted} event. Requirements: - the caller must have ``role``'s admin role."
      },
      "hasRole(bytes32,address)": {
        "details": "Returns `true` if `account` has been granted `role`."
      },
      "initialize(address,address,address)": {
        "details": "set the addresses for integration",
        "params": {
          "subscription_": "the address of the subscription contract",
          "traxToken_": "the address of the privi trax token",
          "upgrader_": "the address allowed to make the upgrades"
        }
      },
      "isApprovedForAll(address,address)": {
        "details": "See {IERC721-isApprovedForAll}."
      },
      "name()": {
        "details": "See {IERC721Metadata-name}."
      },
      "ownerOf(uint256)": {
        "details": "See {IERC721-ownerOf}."
      },
      "renounceRole(bytes32,address)": {
        "details": "Revokes `role` from the calling account. Roles are often managed via {grantRole} and {revokeRole}: this function's purpose is to provide a mechanism for accounts to lose their privileges if they are compromised (such as when a trusted device is misplaced). If the calling account had been granted `role`, emits a {RoleRevoked} event. Requirements: - the caller must be `account`."
      },
      "revokeRole(bytes32,address)": {
        "details": "Revokes `role` from `account`. If `account` had been granted `role`, emits a {RoleRevoked} event. Requirements: - the caller must have ``role``'s admin role."
      },
      "reward(address,uint256)": {
        "details": "mint a reward from a new subscription, only callable by subscription contract",
        "params": {
          "amount_": "the amount of trax reward",
          "to_": "the reward receiver"
        }
      },
      "safeTransferFrom(address,address,uint256)": {
        "details": "See {IERC721-safeTransferFrom}."
      },
      "safeTransferFrom(address,address,uint256,bytes)": {
        "details": "See {IERC721-safeTransferFrom}."
      },
      "setApprovalForAll(address,bool)": {
        "details": "See {IERC721-setApprovalForAll}."
      },
      "symbol()": {
        "details": "See {IERC721Metadata-symbol}."
      },
      "tokenURI(uint256)": {
        "details": "See {IERC721Metadata-tokenURI}."
      },
      "transferFrom(address,address,uint256)": {
        "details": "See {IERC721-transferFrom}."
      },
      "upgradeTo(address)": {
        "details": "Upgrade the implementation of the proxy to `newImplementation`. Calls {_authorizeUpgrade}. Emits an {Upgraded} event."
      },
      "upgradeToAndCall(address,bytes)": {
        "details": "Upgrade the implementation of the proxy to `newImplementation`, and subsequently execute the function call encoded in `data`. Calls {_authorizeUpgrade}. Emits an {Upgraded} event."
      }
    },
    "title": "the rewards collection contract",
    "version": 1
  },
  "userdoc": {
    "kind": "user",
    "methods": {
      "TOTAL_TIME()": {
        "notice": "the time to get the full reward"
      },
      "claimAccruedReward(uint256)": {
        "notice": "allows subscribers to claim his rewards"
      },
      "subscription()": {
        "notice": "the address of the subscription contract"
      },
      "tokenMetadata(uint256)": {
        "notice": "the metadata of the token"
      },
      "traxToken()": {
        "notice": "the privi trax token"
      }
    },
    "notice": "the collection contract for reward in trax NFTs",
    "version": 1
  },
  "storageLayout": {
    "storage": [
      {
        "astId": 2915,
        "contract": "contracts/SubscriptionReward.sol:SubscriptionReward",
        "label": "_initialized",
        "offset": 0,
        "slot": "0",
        "type": "t_bool"
      },
      {
        "astId": 2918,
        "contract": "contracts/SubscriptionReward.sol:SubscriptionReward",
        "label": "_initializing",
        "offset": 1,
        "slot": "0",
        "type": "t_bool"
      },
      {
        "astId": 4517,
        "contract": "contracts/SubscriptionReward.sol:SubscriptionReward",
        "label": "__gap",
        "offset": 0,
        "slot": "1",
        "type": "t_array(t_uint256)50_storage"
      },
      {
        "astId": 4900,
        "contract": "contracts/SubscriptionReward.sol:SubscriptionReward",
        "label": "__gap",
        "offset": 0,
        "slot": "51",
        "type": "t_array(t_uint256)50_storage"
      },
      {
        "astId": 3095,
        "contract": "contracts/SubscriptionReward.sol:SubscriptionReward",
        "label": "_name",
        "offset": 0,
        "slot": "101",
        "type": "t_string_storage"
      },
      {
        "astId": 3097,
        "contract": "contracts/SubscriptionReward.sol:SubscriptionReward",
        "label": "_symbol",
        "offset": 0,
        "slot": "102",
        "type": "t_string_storage"
      },
      {
        "astId": 3101,
        "contract": "contracts/SubscriptionReward.sol:SubscriptionReward",
        "label": "_owners",
        "offset": 0,
        "slot": "103",
        "type": "t_mapping(t_uint256,t_address)"
      },
      {
        "astId": 3105,
        "contract": "contracts/SubscriptionReward.sol:SubscriptionReward",
        "label": "_balances",
        "offset": 0,
        "slot": "104",
        "type": "t_mapping(t_address,t_uint256)"
      },
      {
        "astId": 3109,
        "contract": "contracts/SubscriptionReward.sol:SubscriptionReward",
        "label": "_tokenApprovals",
        "offset": 0,
        "slot": "105",
        "type": "t_mapping(t_uint256,t_address)"
      },
      {
        "astId": 3115,
        "contract": "contracts/SubscriptionReward.sol:SubscriptionReward",
        "label": "_operatorApprovals",
        "offset": 0,
        "slot": "106",
        "type": "t_mapping(t_address,t_mapping(t_address,t_bool))"
      },
      {
        "astId": 3911,
        "contract": "contracts/SubscriptionReward.sol:SubscriptionReward",
        "label": "__gap",
        "offset": 0,
        "slot": "107",
        "type": "t_array(t_uint256)44_storage"
      },
      {
        "astId": 2142,
        "contract": "contracts/SubscriptionReward.sol:SubscriptionReward",
        "label": "_roles",
        "offset": 0,
        "slot": "151",
        "type": "t_mapping(t_bytes32,t_struct(RoleData)2137_storage)"
      },
      {
        "astId": 2427,
        "contract": "contracts/SubscriptionReward.sol:SubscriptionReward",
        "label": "__gap",
        "offset": 0,
        "slot": "152",
        "type": "t_array(t_uint256)49_storage"
      },
      {
        "astId": 2898,
        "contract": "contracts/SubscriptionReward.sol:SubscriptionReward",
        "label": "__gap",
        "offset": 0,
        "slot": "201",
        "type": "t_array(t_uint256)50_storage"
      },
      {
        "astId": 3065,
        "contract": "contracts/SubscriptionReward.sol:SubscriptionReward",
        "label": "__gap",
        "offset": 0,
        "slot": "251",
        "type": "t_array(t_uint256)50_storage"
      },
      {
        "astId": 6523,
        "contract": "contracts/SubscriptionReward.sol:SubscriptionReward",
        "label": "_tokenIdCounter",
        "offset": 0,
        "slot": "301",
        "type": "t_struct(Counter)4524_storage"
      },
      {
        "astId": 6526,
        "contract": "contracts/SubscriptionReward.sol:SubscriptionReward",
        "label": "subscription",
        "offset": 0,
        "slot": "302",
        "type": "t_address"
      },
      {
        "astId": 6529,
        "contract": "contracts/SubscriptionReward.sol:SubscriptionReward",
        "label": "traxToken",
        "offset": 0,
        "slot": "303",
        "type": "t_address"
      },
      {
        "astId": 6535,
        "contract": "contracts/SubscriptionReward.sol:SubscriptionReward",
        "label": "tokenMetadata",
        "offset": 0,
        "slot": "304",
        "type": "t_mapping(t_uint256,t_struct(RewardMetadata)6274_storage)"
      }
    ],
    "types": {
      "t_address": {
        "encoding": "inplace",
        "label": "address",
        "numberOfBytes": "20"
      },
      "t_array(t_uint256)44_storage": {
        "base": "t_uint256",
        "encoding": "inplace",
        "label": "uint256[44]",
        "numberOfBytes": "1408"
      },
      "t_array(t_uint256)49_storage": {
        "base": "t_uint256",
        "encoding": "inplace",
        "label": "uint256[49]",
        "numberOfBytes": "1568"
      },
      "t_array(t_uint256)50_storage": {
        "base": "t_uint256",
        "encoding": "inplace",
        "label": "uint256[50]",
        "numberOfBytes": "1600"
      },
      "t_bool": {
        "encoding": "inplace",
        "label": "bool",
        "numberOfBytes": "1"
      },
      "t_bytes32": {
        "encoding": "inplace",
        "label": "bytes32",
        "numberOfBytes": "32"
      },
      "t_mapping(t_address,t_bool)": {
        "encoding": "mapping",
        "key": "t_address",
        "label": "mapping(address => bool)",
        "numberOfBytes": "32",
        "value": "t_bool"
      },
      "t_mapping(t_address,t_mapping(t_address,t_bool))": {
        "encoding": "mapping",
        "key": "t_address",
        "label": "mapping(address => mapping(address => bool))",
        "numberOfBytes": "32",
        "value": "t_mapping(t_address,t_bool)"
      },
      "t_mapping(t_address,t_uint256)": {
        "encoding": "mapping",
        "key": "t_address",
        "label": "mapping(address => uint256)",
        "numberOfBytes": "32",
        "value": "t_uint256"
      },
      "t_mapping(t_bytes32,t_struct(RoleData)2137_storage)": {
        "encoding": "mapping",
        "key": "t_bytes32",
        "label": "mapping(bytes32 => struct AccessControlUpgradeable.RoleData)",
        "numberOfBytes": "32",
        "value": "t_struct(RoleData)2137_storage"
      },
      "t_mapping(t_uint256,t_address)": {
        "encoding": "mapping",
        "key": "t_uint256",
        "label": "mapping(uint256 => address)",
        "numberOfBytes": "32",
        "value": "t_address"
      },
      "t_mapping(t_uint256,t_struct(RewardMetadata)6274_storage)": {
        "encoding": "mapping",
        "key": "t_uint256",
        "label": "mapping(uint256 => struct RewardMetadata)",
        "numberOfBytes": "32",
        "value": "t_struct(RewardMetadata)6274_storage"
      },
      "t_string_storage": {
        "encoding": "bytes",
        "label": "string",
        "numberOfBytes": "32"
      },
      "t_struct(Counter)4524_storage": {
        "encoding": "inplace",
        "label": "struct CountersUpgradeable.Counter",
        "members": [
          {
            "astId": 4523,
            "contract": "contracts/SubscriptionReward.sol:SubscriptionReward",
            "label": "_value",
            "offset": 0,
            "slot": "0",
            "type": "t_uint256"
          }
        ],
        "numberOfBytes": "32"
      },
      "t_struct(RewardMetadata)6274_storage": {
        "encoding": "inplace",
        "label": "struct RewardMetadata",
        "members": [
          {
            "astId": 6269,
            "contract": "contracts/SubscriptionReward.sol:SubscriptionReward",
            "label": "totalAmount",
            "offset": 0,
            "slot": "0",
            "type": "t_uint256"
          },
          {
            "astId": 6271,
            "contract": "contracts/SubscriptionReward.sol:SubscriptionReward",
            "label": "claimedAmount",
            "offset": 0,
            "slot": "1",
            "type": "t_uint256"
          },
          {
            "astId": 6273,
            "contract": "contracts/SubscriptionReward.sol:SubscriptionReward",
            "label": "timestamp",
            "offset": 0,
            "slot": "2",
            "type": "t_uint256"
          }
        ],
        "numberOfBytes": "96"
      },
      "t_struct(RoleData)2137_storage": {
        "encoding": "inplace",
        "label": "struct AccessControlUpgradeable.RoleData",
        "members": [
          {
            "astId": 2134,
            "contract": "contracts/SubscriptionReward.sol:SubscriptionReward",
            "label": "members",
            "offset": 0,
            "slot": "0",
            "type": "t_mapping(t_address,t_bool)"
          },
          {
            "astId": 2136,
            "contract": "contracts/SubscriptionReward.sol:SubscriptionReward",
            "label": "adminRole",
            "offset": 0,
            "slot": "1",
            "type": "t_bytes32"
          }
        ],
        "numberOfBytes": "64"
      },
      "t_uint256": {
        "encoding": "inplace",
        "label": "uint256",
        "numberOfBytes": "32"
      }
    }
  }
}