{
  "address": "0xf5391d920D03428e158Ca5393CDfdd7BAB66De73",
  "abi": [
    {
      "inputs": [
        {
          "internalType": "string",
          "name": "uri_",
          "type": "string"
        }
      ],
      "stateMutability": "nonpayable",
      "type": "constructor"
    },
    {
      "anonymous": false,
      "inputs": [
        {
          "indexed": true,
          "internalType": "address",
          "name": "account",
          "type": "address"
        },
        {
          "indexed": true,
          "internalType": "address",
          "name": "operator",
          "type": "address"
        },
        {
          "indexed": false,
          "internalType": "bool",
          "name": "approved",
          "type": "bool"
        }
      ],
      "name": "ApprovalForAll",
      "type": "event"
    },
    {
      "anonymous": false,
      "inputs": [
        {
          "indexed": false,
          "internalType": "address",
          "name": "recipient",
          "type": "address"
        },
        {
          "indexed": false,
          "internalType": "uint16",
          "name": "bps",
          "type": "uint16"
        }
      ],
      "name": "DefaultRoyaltySet",
      "type": "event"
    },
    {
      "anonymous": false,
      "inputs": [
        {
          "indexed": true,
          "internalType": "address",
          "name": "previousOwner",
          "type": "address"
        },
        {
          "indexed": true,
          "internalType": "address",
          "name": "newOwner",
          "type": "address"
        }
      ],
      "name": "OwnershipTransferred",
      "type": "event"
    },
    {
      "anonymous": false,
      "inputs": [
        {
          "indexed": false,
          "internalType": "uint256",
          "name": "id",
          "type": "uint256"
        },
        {
          "indexed": false,
          "internalType": "address",
          "name": "owner",
          "type": "address"
        },
        {
          "indexed": false,
          "internalType": "string",
          "name": "uri",
          "type": "string"
        },
        {
          "indexed": false,
          "internalType": "address",
          "name": "royaltyAddress",
          "type": "address"
        },
        {
          "indexed": false,
          "internalType": "uint16",
          "name": "bps",
          "type": "uint16"
        }
      ],
      "name": "RoyaltyNFT",
      "type": "event"
    },
    {
      "anonymous": false,
      "inputs": [
        {
          "indexed": false,
          "internalType": "uint256",
          "name": "tokenId",
          "type": "uint256"
        }
      ],
      "name": "TokenRoyaltyRemoved",
      "type": "event"
    },
    {
      "anonymous": false,
      "inputs": [
        {
          "indexed": false,
          "internalType": "uint256",
          "name": "tokenId",
          "type": "uint256"
        },
        {
          "indexed": false,
          "internalType": "address",
          "name": "recipient",
          "type": "address"
        },
        {
          "indexed": false,
          "internalType": "uint16",
          "name": "bps",
          "type": "uint16"
        }
      ],
      "name": "TokenRoyaltySet",
      "type": "event"
    },
    {
      "anonymous": false,
      "inputs": [
        {
          "indexed": true,
          "internalType": "address",
          "name": "operator",
          "type": "address"
        },
        {
          "indexed": true,
          "internalType": "address",
          "name": "from",
          "type": "address"
        },
        {
          "indexed": true,
          "internalType": "address",
          "name": "to",
          "type": "address"
        },
        {
          "indexed": false,
          "internalType": "uint256[]",
          "name": "ids",
          "type": "uint256[]"
        },
        {
          "indexed": false,
          "internalType": "uint256[]",
          "name": "values",
          "type": "uint256[]"
        }
      ],
      "name": "TransferBatch",
      "type": "event"
    },
    {
      "anonymous": false,
      "inputs": [
        {
          "indexed": true,
          "internalType": "address",
          "name": "operator",
          "type": "address"
        },
        {
          "indexed": true,
          "internalType": "address",
          "name": "from",
          "type": "address"
        },
        {
          "indexed": true,
          "internalType": "address",
          "name": "to",
          "type": "address"
        },
        {
          "indexed": false,
          "internalType": "uint256",
          "name": "id",
          "type": "uint256"
        },
        {
          "indexed": false,
          "internalType": "uint256",
          "name": "value",
          "type": "uint256"
        }
      ],
      "name": "TransferSingle",
      "type": "event"
    },
    {
      "anonymous": false,
      "inputs": [
        {
          "indexed": false,
          "internalType": "string",
          "name": "value",
          "type": "string"
        },
        {
          "indexed": true,
          "internalType": "uint256",
          "name": "id",
          "type": "uint256"
        }
      ],
      "name": "URI",
      "type": "event"
    },
    {
      "inputs": [
        {
          "internalType": "address",
          "name": "account",
          "type": "address"
        },
        {
          "internalType": "uint256",
          "name": "id",
          "type": "uint256"
        }
      ],
      "name": "balanceOf",
      "outputs": [
        {
          "internalType": "uint256",
          "name": "",
          "type": "uint256"
        }
      ],
      "stateMutability": "view",
      "type": "function"
    },
    {
      "inputs": [
        {
          "internalType": "address[]",
          "name": "accounts",
          "type": "address[]"
        },
        {
          "internalType": "uint256[]",
          "name": "ids",
          "type": "uint256[]"
        }
      ],
      "name": "balanceOfBatch",
      "outputs": [
        {
          "internalType": "uint256[]",
          "name": "",
          "type": "uint256[]"
        }
      ],
      "stateMutability": "view",
      "type": "function"
    },
    {
      "inputs": [
        {
          "internalType": "address",
          "name": "from",
          "type": "address"
        },
        {
          "internalType": "uint256",
          "name": "id",
          "type": "uint256"
        },
        {
          "internalType": "uint256",
          "name": "amount",
          "type": "uint256"
        }
      ],
      "name": "burn",
      "outputs": [],
      "stateMutability": "nonpayable",
      "type": "function"
    },
    {
      "inputs": [
        {
          "internalType": "address",
          "name": "from",
          "type": "address"
        },
        {
          "internalType": "uint256[]",
          "name": "ids",
          "type": "uint256[]"
        },
        {
          "internalType": "uint256[]",
          "name": "amounts",
          "type": "uint256[]"
        }
      ],
      "name": "burnBatch",
      "outputs": [],
      "stateMutability": "nonpayable",
      "type": "function"
    },
    {
      "inputs": [],
      "name": "counter",
      "outputs": [
        {
          "internalType": "uint256",
          "name": "",
          "type": "uint256"
        }
      ],
      "stateMutability": "view",
      "type": "function"
    },
    {
      "inputs": [],
      "name": "defaultRoyalty",
      "outputs": [
        {
          "internalType": "address",
          "name": "recipient",
          "type": "address"
        },
        {
          "internalType": "uint16",
          "name": "bps",
          "type": "uint16"
        }
      ],
      "stateMutability": "view",
      "type": "function"
    },
    {
      "inputs": [],
      "name": "getTokenRoyaltiesCount",
      "outputs": [
        {
          "internalType": "uint256",
          "name": "",
          "type": "uint256"
        }
      ],
      "stateMutability": "view",
      "type": "function"
    },
    {
      "inputs": [
        {
          "internalType": "uint256",
          "name": "index",
          "type": "uint256"
        }
      ],
      "name": "getTokenRoyaltyByIndex",
      "outputs": [
        {
          "components": [
            {
              "internalType": "uint256",
              "name": "tokenId",
              "type": "uint256"
            },
            {
              "internalType": "address",
              "name": "recipient",
              "type": "address"
            },
            {
              "internalType": "uint16",
              "name": "bps",
              "type": "uint16"
            }
          ],
          "internalType": "struct IERC1155WithRoyalty.TokenRoyaltyConfig",
          "name": "",
          "type": "tuple"
        }
      ],
      "stateMutability": "view",
      "type": "function"
    },
    {
      "inputs": [
        {
          "internalType": "address",
          "name": "account",
          "type": "address"
        },
        {
          "internalType": "address",
          "name": "operator",
          "type": "address"
        }
      ],
      "name": "isApprovedForAll",
      "outputs": [
        {
          "internalType": "bool",
          "name": "",
          "type": "bool"
        }
      ],
      "stateMutability": "view",
      "type": "function"
    },
    {
      "inputs": [
        {
          "internalType": "address",
          "name": "to",
          "type": "address"
        },
        {
          "internalType": "uint256",
          "name": "amount",
          "type": "uint256"
        },
        {
          "internalType": "string",
          "name": "uri",
          "type": "string"
        }
      ],
      "name": "mint",
      "outputs": [],
      "stateMutability": "nonpayable",
      "type": "function"
    },
    {
      "inputs": [
        {
          "internalType": "address",
          "name": "to",
          "type": "address"
        },
        {
          "internalType": "uint256[]",
          "name": "ids",
          "type": "uint256[]"
        },
        {
          "internalType": "uint256[]",
          "name": "amounts",
          "type": "uint256[]"
        },
        {
          "internalType": "string",
          "name": "data",
          "type": "string"
        }
      ],
      "name": "mintBatch",
      "outputs": [],
      "stateMutability": "nonpayable",
      "type": "function"
    },
    {
      "inputs": [
        {
          "internalType": "address",
          "name": "to",
          "type": "address"
        },
        {
          "internalType": "uint256[]",
          "name": "amounts",
          "type": "uint256[]"
        },
        {
          "internalType": "string[]",
          "name": "URIs",
          "type": "string[]"
        },
        {
          "internalType": "address[]",
          "name": "royaltyAddress",
          "type": "address[]"
        },
        {
          "internalType": "uint16[]",
          "name": "bps",
          "type": "uint16[]"
        },
        {
          "internalType": "string[]",
          "name": "proofOfAuthenticity_",
          "type": "string[]"
        }
      ],
      "name": "mintBatchWithRoyalty",
      "outputs": [],
      "stateMutability": "nonpayable",
      "type": "function"
    },
    {
      "inputs": [
        {
          "internalType": "address",
          "name": "to",
          "type": "address"
        },
        {
          "internalType": "uint256[]",
          "name": "amounts",
          "type": "uint256[]"
        },
        {
          "internalType": "string",
          "name": "data",
          "type": "string"
        }
      ],
      "name": "mintBatchWithoutId",
      "outputs": [],
      "stateMutability": "nonpayable",
      "type": "function"
    },
    {
      "inputs": [
        {
          "internalType": "address",
          "name": "to",
          "type": "address"
        },
        {
          "internalType": "uint256",
          "name": "tokenId",
          "type": "uint256"
        },
        {
          "internalType": "uint256",
          "name": "amount",
          "type": "uint256"
        },
        {
          "internalType": "string",
          "name": "uri",
          "type": "string"
        }
      ],
      "name": "mintWithId",
      "outputs": [],
      "stateMutability": "nonpayable",
      "type": "function"
    },
    {
      "inputs": [
        {
          "internalType": "address",
          "name": "to",
          "type": "address"
        },
        {
          "internalType": "uint256",
          "name": "amount",
          "type": "uint256"
        },
        {
          "internalType": "string",
          "name": "uri",
          "type": "string"
        },
        {
          "internalType": "address",
          "name": "royaltyAddress",
          "type": "address"
        },
        {
          "internalType": "uint16",
          "name": "bps",
          "type": "uint16"
        },
        {
          "internalType": "string",
          "name": "proofOfAuthenticity_",
          "type": "string"
        }
      ],
      "name": "mintWithRoyalty",
      "outputs": [],
      "stateMutability": "nonpayable",
      "type": "function"
    },
    {
      "inputs": [],
      "name": "owner",
      "outputs": [
        {
          "internalType": "address",
          "name": "",
          "type": "address"
        }
      ],
      "stateMutability": "view",
      "type": "function"
    },
    {
      "inputs": [
        {
          "internalType": "uint256",
          "name": "id",
          "type": "uint256"
        }
      ],
      "name": "proofOfAuthenticity",
      "outputs": [
        {
          "internalType": "string",
          "name": "",
          "type": "string"
        }
      ],
      "stateMutability": "view",
      "type": "function"
    },
    {
      "inputs": [],
      "name": "renounceOwnership",
      "outputs": [],
      "stateMutability": "nonpayable",
      "type": "function"
    },
    {
      "inputs": [
        {
          "internalType": "uint256",
          "name": "tokenId",
          "type": "uint256"
        },
        {
          "internalType": "uint256",
          "name": "value",
          "type": "uint256"
        }
      ],
      "name": "royaltyInfo",
      "outputs": [
        {
          "internalType": "address",
          "name": "",
          "type": "address"
        },
        {
          "internalType": "uint256",
          "name": "",
          "type": "uint256"
        }
      ],
      "stateMutability": "view",
      "type": "function"
    },
    {
      "inputs": [
        {
          "internalType": "address",
          "name": "from",
          "type": "address"
        },
        {
          "internalType": "address",
          "name": "to",
          "type": "address"
        },
        {
          "internalType": "uint256[]",
          "name": "ids",
          "type": "uint256[]"
        },
        {
          "internalType": "uint256[]",
          "name": "amounts",
          "type": "uint256[]"
        },
        {
          "internalType": "bytes",
          "name": "data",
          "type": "bytes"
        }
      ],
      "name": "safeBatchTransferFrom",
      "outputs": [],
      "stateMutability": "nonpayable",
      "type": "function"
    },
    {
      "inputs": [
        {
          "internalType": "address",
          "name": "from",
          "type": "address"
        },
        {
          "internalType": "address",
          "name": "to",
          "type": "address"
        },
        {
          "internalType": "uint256",
          "name": "id",
          "type": "uint256"
        },
        {
          "internalType": "uint256",
          "name": "amount",
          "type": "uint256"
        },
        {
          "internalType": "bytes",
          "name": "data",
          "type": "bytes"
        }
      ],
      "name": "safeTransferFrom",
      "outputs": [],
      "stateMutability": "nonpayable",
      "type": "function"
    },
    {
      "inputs": [
        {
          "internalType": "address",
          "name": "operator",
          "type": "address"
        },
        {
          "internalType": "bool",
          "name": "approved",
          "type": "bool"
        }
      ],
      "name": "setApprovalForAll",
      "outputs": [],
      "stateMutability": "nonpayable",
      "type": "function"
    },
    {
      "inputs": [
        {
          "components": [
            {
              "internalType": "address",
              "name": "recipient",
              "type": "address"
            },
            {
              "internalType": "uint16",
              "name": "bps",
              "type": "uint16"
            }
          ],
          "internalType": "struct IERC1155WithRoyalty.TokenRoyalty",
          "name": "royalty",
          "type": "tuple"
        }
      ],
      "name": "setDefaultRoyalty",
      "outputs": [],
      "stateMutability": "nonpayable",
      "type": "function"
    },
    {
      "inputs": [
        {
          "components": [
            {
              "internalType": "uint256",
              "name": "tokenId",
              "type": "uint256"
            },
            {
              "internalType": "address",
              "name": "recipient",
              "type": "address"
            },
            {
              "internalType": "uint16",
              "name": "bps",
              "type": "uint16"
            }
          ],
          "internalType": "struct IERC1155WithRoyalty.TokenRoyaltyConfig[]",
          "name": "royaltyConfigs",
          "type": "tuple[]"
        }
      ],
      "name": "setTokenRoyalties",
      "outputs": [],
      "stateMutability": "nonpayable",
      "type": "function"
    },
    {
      "inputs": [
        {
          "internalType": "bytes4",
          "name": "interfaceId",
          "type": "bytes4"
        }
      ],
      "name": "supportsInterface",
      "outputs": [
        {
          "internalType": "bool",
          "name": "",
          "type": "bool"
        }
      ],
      "stateMutability": "view",
      "type": "function"
    },
    {
      "inputs": [
        {
          "internalType": "address",
          "name": "newOwner",
          "type": "address"
        }
      ],
      "name": "transferOwnership",
      "outputs": [],
      "stateMutability": "nonpayable",
      "type": "function"
    },
    {
      "inputs": [
        {
          "internalType": "uint256",
          "name": "tokenId",
          "type": "uint256"
        }
      ],
      "name": "uri",
      "outputs": [
        {
          "internalType": "string",
          "name": "",
          "type": "string"
        }
      ],
      "stateMutability": "view",
      "type": "function"
    }
  ],
  "transactionHash": "0x5eb3184527d9df68a7e9736a6a181ddf3f520b0850f2f48bb4114fcf2ebfea80",
  "args": [
    ""
  ],
  "solcInputHash": "3c7d3edb4125a86678eb525f0896b899",
  "bytecode": "0x60806040523480156200001157600080fd5b50604051620035c1380380620035c1833981016040819052620000349162000164565b80620000408162000053565b506200004c336200006c565b506200028d565b805162000068906006906020840190620000be565b5050565b600780546001600160a01b038381166001600160a01b0319831681179093556040519116919082907f8be0079c531659141344cd1fd0a4f28419497f9722a3daafe3b4186f6b6457e090600090a35050565b828054620000cc906200023a565b90600052602060002090601f016020900481019282620000f057600085556200013b565b82601f106200010b57805160ff19168380011785556200013b565b828001600101855582156200013b579182015b828111156200013b5782518255916020019190600101906200011e565b50620001499291506200014d565b5090565b5b808211156200014957600081556001016200014e565b6000602080838503121562000177578182fd5b82516001600160401b03808211156200018e578384fd5b818501915085601f830112620001a2578384fd5b815181811115620001b757620001b762000277565b604051601f8201601f19908116603f01168101908382118183101715620001e257620001e262000277565b816040528281528886848701011115620001fa578687fd5b8693505b828410156200021d5784840186015181850187015292850192620001fe565b828411156200022e57868684830101525b98975050505050505050565b600181811c908216806200024f57607f821691505b602082108114156200027157634e487b7160e01b600052602260045260246000fd5b50919050565b634e487b7160e01b600052604160045260246000fd5b613324806200029d6000396000f3fe608060405234801561001057600080fd5b50600436106101a85760003560e01c80637885fdc7116100f9578063e985e9c511610097578063f02a085711610071578063f02a08571461042f578063f242432a14610442578063f2fde38b14610455578063f5298aca1461046857600080fd5b8063e985e9c5146103cd578063eb44350e14610409578063ef60ceaf1461041c57600080fd5b80639ca19ca5116100d35780639ca19ca514610381578063a22cb46514610394578063b5280188146103a7578063d3fc9864146103ba57600080fd5b80637885fdc71461031c5780637e9803421461035e5780638da5cb5b1461036657600080fd5b80632eb2c2d6116101665780635136dcc7116101405780635136dcc7146102e557806361bc221a146102f85780636b20c45414610301578063715018a61461031457600080fd5b80632eb2c2d61461029f57806331a99766146102b25780634e1273f4146102c557600080fd5b8062fdd58e146101ad57806301ffc9a7146101d35780630653aca5146101f65780630e89341c146102385780632a3a75fe146102585780632a55205a1461026d575b600080fd5b6101c06101bb366004612913565b61047b565b6040519081526020015b60405180910390f35b6101e66101e1366004612b7e565b610517565b60405190151581526020016101ca565b610209610204366004612c89565b610522565b60408051825181526020808401516001600160a01b0316908201529181015161ffff16908201526060016101ca565b61024b610246366004612c89565b6105a7565b6040516101ca9190612e2b565b61026b610266366004612860565b610649565b005b61028061027b366004612ca1565b6106ed565b604080516001600160a01b0390931683526020830191909152016101ca565b61026b6102ad366004612567565b6107b2565b61024b6102c0366004612c89565b610849565b6102d86102d3366004612aaf565b610866565b6040516101ca9190612dea565b61026b6102f3366004612b0f565b6109c7565b6101c060095481565b61026b61030f366004612755565b610a50565b61026b610a8a565b60005461033c906001600160a01b03811690600160a01b900461ffff1682565b604080516001600160a01b03909316835261ffff9091166020830152016101ca565b6101c0610ac0565b6007546040516001600160a01b0390911681526020016101ca565b61026b61038f366004612993565b610ad1565b61026b6103a23660046128d9565b610c0a565b61026b6103b536600461266e565b610ce1565b61026b6103c836600461293c565b610f58565b6101e66103db366004612535565b6001600160a01b03918216600090815260056020908152604080832093909416825291909152205460ff1690565b61026b6104173660046127c5565b610f81565b61026b61042a366004612c19565b61100c565b61026b61043d366004612a5b565b611050565b61026b61045036600461260c565b61105d565b61026b61046336600461251b565b6110e4565b61026b610476366004612a29565b61117c565b60006001600160a01b0383166104ec5760405162461bcd60e51b815260206004820152602b60248201527f455243313135353a2062616c616e636520717565727920666f7220746865207a60448201526a65726f206164647265737360a81b60648201526084015b60405180910390fd5b5060008181526004602090815260408083206001600160a01b03861684529091529020545b92915050565b6000610511826111b1565b604080516060810182526000808252602082018190529181018290529061054a6002846111f1565b6000818152600160209081526040918290208251808401845290546001600160a01b03808216835261ffff600160a01b90920482168385019081528551606081018752968752925116928501929092525116908201529392505050565b60008181526008602052604090208054606091906105c49061318f565b80601f01602080910402602001604051908101604052809291908181526020018280546105f09061318f565b801561063d5780601f106106125761010080835404028352916020019161063d565b820191906000526020600020905b81548152906001019060200180831161062057829003601f168201915b50505050509050919050565b60016009600082825461065c9190613121565b90915550600090505b82518110156106e7576106b28460095485848151811061069557634e487b7160e01b600052603260045260246000fd5b602002602001015160405180602001604052806000815250611204565b600954600090815260086020908152604090912083516106d492850190612193565b50806106df816131f0565b915050610665565b50505050565b60008281526001602052604081205481906001600160a01b031615610752576000848152600160205260409020546001600160a01b038116906127109061073f90600160a01b900461ffff1686613159565b6107499190613139565b915091506107ab565b6000546001600160a01b0316158015906107785750600054600160a01b900461ffff1615155b156107a4576000546001600160a01b038116906127109061073f90600160a01b900461ffff1686613159565b5060009050805b9250929050565b6001600160a01b0385163314806107ce57506107ce85336103db565b6108355760405162461bcd60e51b815260206004820152603260248201527f455243313135353a207472616e736665722063616c6c6572206973206e6f74206044820152711bdddb995c881b9bdc88185c1c1c9bdd995960721b60648201526084016104e3565b61084285858585856112d6565b5050505050565b6000818152600a602052604090208054606091906105c49061318f565b606081518351146108cb5760405162461bcd60e51b815260206004820152602960248201527f455243313135353a206163636f756e747320616e6420696473206c656e677468604482015268040dad2e6dac2e8c6d60bb1b60648201526084016104e3565b600083516001600160401b038111156108f457634e487b7160e01b600052604160045260246000fd5b60405190808252806020026020018201604052801561091d578160200160208202803683370190505b50905060005b84518110156109bf5761098485828151811061094f57634e487b7160e01b600052603260045260246000fd5b602002602001015185838151811061097757634e487b7160e01b600052603260045260246000fd5b602002602001015161047b565b8282815181106109a457634e487b7160e01b600052603260045260246000fd5b60209081029190910101526109b8816131f0565b9050610923565b509392505050565b6007546001600160a01b031633146109f15760405162461bcd60e51b81526004016104e390612f9c565b610a4c8282808060200260200160405190810160405280939291908181526020016000905b82821015610a4257610a3360608302860136819003810190612bb6565b81526020019060010190610a16565b5050505050611489565b5050565b6007546001600160a01b03163314610a7a5760405162461bcd60e51b81526004016104e390612f9c565b610a8583838361165c565b505050565b6007546001600160a01b03163314610ab45760405162461bcd60e51b81526004016104e390612f9c565b610abe60006117f7565b565b6000610acc6002611849565b905090565b600160096000828254610ae49190613121565b92505081905550610afa88600954898989611853565b604080516001808252818301909252600091816020015b6040805160608101825260008082526020808301829052928201528252600019909201910181610b1157905050905060405180606001604052806009548152602001866001600160a01b031681526020018561ffff1681525081600081518110610b8b57634e487b7160e01b600052603260045260246000fd5b6020026020010181905250610b9f81611489565b6009546000908152600a60205260409020610bbb908484612217565b507f267de29c492da4634a7dca78204318a76a0a7c47341583b654a8a637f3f2658f6009548a89898989604051610bf79695949392919061305a565b60405180910390a1505050505050505050565b336001600160a01b0383161415610c755760405162461bcd60e51b815260206004820152602960248201527f455243313135353a2073657474696e6720617070726f76616c20737461747573604482015268103337b91039b2b63360b91b60648201526084016104e3565b3360008181526005602090815260408083206001600160a01b03871680855290835292819020805460ff191686151590811790915590519081529192917f17307eab39ab6107e8899845ad3d59bd9653f200f220920489ca2b5937696c31910160405180910390a35050565b86518514610d315760405162461bcd60e51b815260206004820152601f60248201527f616d6f756e747320616e6420757269206c656e677468206d69736d617463680060448201526064016104e3565b8351875114610d955760405162461bcd60e51b815260206004820152602a60248201527f616d6f756e747320616e6420726f79616c747941646472657373206c656e67746044820152690d040dad2e6dac2e8c6d60b31b60648201526084016104e3565b8251875114610de65760405162461bcd60e51b815260206004820181905260248201527f616d6f756e747320616e6420616d6f756e747320627073206d69736d6174636860448201526064016104e3565b86518114610e4f5760405162461bcd60e51b815260206004820152603060248201527f616d6f756e747320616e642070726f6f664f6641757468656e7469636974795f60448201526f040d8cadccee8d040dad2e6dac2e8c6d60831b60648201526084016104e3565b60005b8751811015610f4d57610f3b89898381518110610e7f57634e487b7160e01b600052603260045260246000fd5b6020026020010151898985818110610ea757634e487b7160e01b600052603260045260246000fd5b9050602002810190610eb991906130ba565b898681518110610ed957634e487b7160e01b600052603260045260246000fd5b6020026020010151898781518110610f0157634e487b7160e01b600052603260045260246000fd5b6020026020010151898989818110610f2957634e487b7160e01b600052603260045260246000fd5b905060200281019061038f91906130ba565b80610f45816131f0565b915050610e52565b505050505050505050565b600160096000828254610f6b9190613121565b925050819055506106e784600954858585611853565b610f9c85858560405180602001604052806000815250611887565b60005b845181101561100457828260086000888581518110610fce57634e487b7160e01b600052603260045260246000fd5b602002602001015181526020019081526020016000209190610ff1929190612217565b5080610ffc816131f0565b915050610f9f565b505050505050565b6007546001600160a01b031633146110365760405162461bcd60e51b81526004016104e390612f9c565b61104d61104836839003830183612c30565b6119ef565b50565b6108428585858585611853565b6001600160a01b038516331480611079575061107985336103db565b6110d75760405162461bcd60e51b815260206004820152602960248201527f455243313135353a2063616c6c6572206973206e6f74206f776e6572206e6f7260448201526808185c1c1c9bdd995960ba1b60648201526084016104e3565b6108428585858585611ad2565b6007546001600160a01b0316331461110e5760405162461bcd60e51b81526004016104e390612f9c565b6001600160a01b0381166111735760405162461bcd60e51b815260206004820152602660248201527f4f776e61626c653a206e6577206f776e657220697320746865207a65726f206160448201526564647265737360d01b60648201526084016104e3565b61104d816117f7565b6007546001600160a01b031633146111a65760405162461bcd60e51b81526004016104e390612f9c565b610a85838383611bf3565b60006001600160e01b03198216636cdb3d1360e11b14806111e257506001600160e01b031982166303a24d0760e21b145b80610511575061051182611cf9565b60006111fd8383611d49565b9392505050565b6001600160a01b03841661122a5760405162461bcd60e51b81526004016104e390613019565b336112448160008761123b88611d81565b61084288611d81565b60008481526004602090815260408083206001600160a01b038916845290915281208054859290611276908490613121565b909155505060408051858152602081018590526001600160a01b0380881692600092918516917fc3d58168c5ae7397731d063d5bbf3d657854427343f4c083240f7aacaa2d0f62910160405180910390a461084281600087878787611dda565b81518351146112f75760405162461bcd60e51b81526004016104e390612fd1565b6001600160a01b03841661131d5760405162461bcd60e51b81526004016104e390612eca565b3360005b845181101561142357600085828151811061134c57634e487b7160e01b600052603260045260246000fd5b60200260200101519050600085838151811061137857634e487b7160e01b600052603260045260246000fd5b60209081029190910181015160008481526004835260408082206001600160a01b038e1683529093529190912054909150818110156113c95760405162461bcd60e51b81526004016104e390612f52565b60008381526004602090815260408083206001600160a01b038e8116855292528083208585039055908b16825281208054849290611408908490613121565b925050819055505050508061141c906131f0565b9050611321565b50846001600160a01b0316866001600160a01b0316826001600160a01b03167f4a39dc06d4c0dbc64b70af90fd698a233a518aa5d07e595d983b8c0526c8f7fb8787604051611473929190612dfd565b60405180910390a4611004818787878787611f45565b60005b8151811015610a4c5760008282815181106114b757634e487b7160e01b600052603260045260246000fd5b60200260200101519050612710816040015161ffff16106115085760405162461bcd60e51b815260206004820152600b60248201526a496e76616c69642062707360a81b60448201526064016104e3565b60208101516001600160a01b0316611581578051600090815260016020526040902080546001600160b01b031916905580516115469060029061200f565b5080516040519081527fa2870857763bd9ae76c957f869f16b31c18dd3bb4c7b4d3a4496dc5c57c657f99060200160405180910390a1611649565b6040805180820182526020808401516001600160a01b0390811683528484015161ffff90811683850190815286516000908152600190945294909220925183549451909216600160a01b026001600160b01b031990941691161791909117905580516115ef9060029061201b565b50805160208083015160408085015181519485526001600160a01b039092169284019290925261ffff1682820152517f389b70fb0887f01e83784eb1c4c589f740eca53b00ed0f45e41db5d079719abb9181900360600190a15b5080611654816131f0565b91505061148c565b6001600160a01b0383166116825760405162461bcd60e51b81526004016104e390612f0f565b80518251146116a35760405162461bcd60e51b81526004016104e390612fd1565b604080516020810190915260009081905233905b83518110156117985760008482815181106116e257634e487b7160e01b600052603260045260246000fd5b60200260200101519050600084838151811061170e57634e487b7160e01b600052603260045260246000fd5b60209081029190910181015160008481526004835260408082206001600160a01b038c16835290935291909120549091508181101561175f5760405162461bcd60e51b81526004016104e390612e86565b60009283526004602090815260408085206001600160a01b038b1686529091529092209103905580611790816131f0565b9150506116b7565b5060006001600160a01b0316846001600160a01b0316826001600160a01b03167f4a39dc06d4c0dbc64b70af90fd698a233a518aa5d07e595d983b8c0526c8f7fb86866040516117e9929190612dfd565b60405180910390a450505050565b600780546001600160a01b038381166001600160a01b0319831681179093556040519116919082907f8be0079c531659141344cd1fd0a4f28419497f9722a3daafe3b4186f6b6457e090600090a35050565b6000610511825490565b61186e85858560405180602001604052806000815250611204565b6000848152600860205260409020611004908383612217565b6001600160a01b0384166118ad5760405162461bcd60e51b81526004016104e390613019565b81518351146118ce5760405162461bcd60e51b81526004016104e390612fd1565b3360005b8451811015611987578381815181106118fb57634e487b7160e01b600052603260045260246000fd5b60200260200101516004600087848151811061192757634e487b7160e01b600052603260045260246000fd5b602002602001015181526020019081526020016000206000886001600160a01b03166001600160a01b03168152602001908152602001600020600082825461196f9190613121565b9091555081905061197f816131f0565b9150506118d2565b50846001600160a01b031660006001600160a01b0316826001600160a01b03167f4a39dc06d4c0dbc64b70af90fd698a233a518aa5d07e595d983b8c0526c8f7fb87876040516119d8929190612dfd565b60405180910390a461084281600087878787611f45565b612710816020015161ffff1610611a365760405162461bcd60e51b815260206004820152600b60248201526a496e76616c69642062707360a81b60448201526064016104e3565b60408051808201825282516001600160a01b03168082526020808501805161ffff169190930181905260008054600160a01b9092026001600160b01b03199092169092171790558251905191517f2c5ea6e4103e78cb101e796fb2dace540362fc542cbff5145eaa24af7dd8fe4192611ac792916001600160a01b0392909216825261ffff16602082015260400190565b60405180910390a150565b6001600160a01b038416611af85760405162461bcd60e51b81526004016104e390612eca565b33611b0881878761123b88611d81565b60008481526004602090815260408083206001600160a01b038a16845290915290205483811015611b4b5760405162461bcd60e51b81526004016104e390612f52565b60008581526004602090815260408083206001600160a01b038b8116855292528083208785039055908816825281208054869290611b8a908490613121565b909155505060408051868152602081018690526001600160a01b03808916928a821692918616917fc3d58168c5ae7397731d063d5bbf3d657854427343f4c083240f7aacaa2d0f62910160405180910390a4611bea828888888888611dda565b50505050505050565b6001600160a01b038316611c195760405162461bcd60e51b81526004016104e390612f0f565b33611c4981856000611c2a87611d81565b611c3387611d81565b5050604080516020810190915260009052505050565b60008381526004602090815260408083206001600160a01b038816845290915290205482811015611c8c5760405162461bcd60e51b81526004016104e390612e86565b60008481526004602090815260408083206001600160a01b03898116808652918452828520888703905582518981529384018890529092908616917fc3d58168c5ae7397731d063d5bbf3d657854427343f4c083240f7aacaa2d0f62910160405180910390a45050505050565b60006001600160e01b0319821663152a902d60e11b1480611d2a57506001600160e01b0319821663c69dbd8f60e01b145b8061051157506301ffc9a760e01b6001600160e01b0319831614610511565b6000826000018281548110611d6e57634e487b7160e01b600052603260045260246000fd5b9060005260206000200154905092915050565b60408051600180825281830190925260609160009190602080830190803683370190505090508281600081518110611dc957634e487b7160e01b600052603260045260246000fd5b602090810291909101015292915050565b6001600160a01b0384163b156110045760405163f23a6e6160e01b81526001600160a01b0385169063f23a6e6190611e1e9089908990889088908890600401612da5565b602060405180830381600087803b158015611e3857600080fd5b505af1925050508015611e68575060408051601f3d908101601f19168201909252611e6591810190612b9a565b60015b611f1557611e74613237565b806308c379a01415611eae5750611e8961324f565b80611e945750611eb0565b8060405162461bcd60e51b81526004016104e39190612e2b565b505b60405162461bcd60e51b815260206004820152603460248201527f455243313135353a207472616e7366657220746f206e6f6e20455243313135356044820152732932b1b2b4bb32b91034b6b83632b6b2b73a32b960611b60648201526084016104e3565b6001600160e01b0319811663f23a6e6160e01b14611bea5760405162461bcd60e51b81526004016104e390612e3e565b6001600160a01b0384163b156110045760405163bc197c8160e01b81526001600160a01b0385169063bc197c8190611f899089908990889088908890600401612d47565b602060405180830381600087803b158015611fa357600080fd5b505af1925050508015611fd3575060408051601f3d908101601f19168201909252611fd091810190612b9a565b60015b611fdf57611e74613237565b6001600160e01b0319811663bc197c8160e01b14611bea5760405162461bcd60e51b81526004016104e390612e3e565b60006111fd8383612027565b60006111fd8383612144565b6000818152600183016020526040812054801561213a57600061204b600183613178565b855490915060009061205f90600190613178565b90508181146120e057600086600001828154811061208d57634e487b7160e01b600052603260045260246000fd5b90600052602060002001549050808760000184815481106120be57634e487b7160e01b600052603260045260246000fd5b6000918252602080832090910192909255918252600188019052604090208390555b85548690806120ff57634e487b7160e01b600052603160045260246000fd5b600190038181906000526020600020016000905590558560010160008681526020019081526020016000206000905560019350505050610511565b6000915050610511565b600081815260018301602052604081205461218b57508154600181810184556000848152602080822090930184905584548482528286019093526040902091909155610511565b506000610511565b82805461219f9061318f565b90600052602060002090601f0160209004810192826121c15760008555612207565b82601f106121da57805160ff1916838001178555612207565b82800160010185558215612207579182015b828111156122075782518255916020019190600101906121ec565b5061221392915061228b565b5090565b8280546122239061318f565b90600052602060002090601f0160209004810192826122455760008555612207565b82601f1061225e5782800160ff19823516178555612207565b82800160010185558215612207579182015b82811115612207578235825591602001919060010190612270565b5b80821115612213576000815560010161228c565b60006001600160401b038311156122b9576122b9613221565b6040516122d0601f8501601f1916602001826131c4565b8091508381528484840111156122e557600080fd5b83836020830137600060208583010152509392505050565b80356001600160a01b038116811461231457600080fd5b919050565b600082601f830112612329578081fd5b81356020612336826130fe565b60405161234382826131c4565b8381528281019150858301600585901b87018401881015612362578586fd5b855b8581101561238757612375826122fd565b84529284019290840190600101612364565b5090979650505050505050565b60008083601f8401126123a5578182fd5b5081356001600160401b038111156123bb578182fd5b6020830191508360208260051b85010111156107ab57600080fd5b600082601f8301126123e6578081fd5b813560206123f3826130fe565b60405161240082826131c4565b8381528281019150858301600585901b8701840188101561241f578586fd5b855b858110156123875761243282612509565b84529284019290840190600101612421565b600082601f830112612454578081fd5b81356020612461826130fe565b60405161246e82826131c4565b8381528281019150858301600585901b8701840188101561248d578586fd5b855b858110156123875781358452928401929084019060010161248f565b600082601f8301126124bb578081fd5b6111fd838335602085016122a0565b60008083601f8401126124db578182fd5b5081356001600160401b038111156124f1578182fd5b6020830191508360208285010111156107ab57600080fd5b803561ffff8116811461231457600080fd5b60006020828403121561252c578081fd5b6111fd826122fd565b60008060408385031215612547578081fd5b612550836122fd565b915061255e602084016122fd565b90509250929050565b600080600080600060a0868803121561257e578081fd5b612587866122fd565b9450612595602087016122fd565b935060408601356001600160401b03808211156125b0578283fd5b6125bc89838a01612444565b945060608801359150808211156125d1578283fd5b6125dd89838a01612444565b935060808801359150808211156125f2578283fd5b506125ff888289016124ab565b9150509295509295909350565b600080600080600060a08688031215612623578283fd5b61262c866122fd565b945061263a602087016122fd565b9350604086013592506060860135915060808601356001600160401b03811115612662578182fd5b6125ff888289016124ab565b60008060008060008060008060c0898b031215612689578586fd5b612692896122fd565b975060208901356001600160401b03808211156126ad578788fd5b6126b98c838d01612444565b985060408b01359150808211156126ce578788fd5b6126da8c838d01612394565b909850965060608b01359150808211156126f2578485fd5b6126fe8c838d01612319565b955060808b0135915080821115612713578485fd5b61271f8c838d016123d6565b945060a08b0135915080821115612734578384fd5b506127418b828c01612394565b999c989b5096995094979396929594505050565b600080600060608486031215612769578081fd5b612772846122fd565b925060208401356001600160401b038082111561278d578283fd5b61279987838801612444565b935060408601359150808211156127ae578283fd5b506127bb86828701612444565b9150509250925092565b6000806000806000608086880312156127dc578283fd5b6127e5866122fd565b945060208601356001600160401b0380821115612800578485fd5b61280c89838a01612444565b95506040880135915080821115612821578485fd5b61282d89838a01612444565b94506060880135915080821115612842578283fd5b5061284f888289016124ca565b969995985093965092949392505050565b600080600060608486031215612874578081fd5b61287d846122fd565b925060208401356001600160401b0380821115612898578283fd5b6128a487838801612444565b935060408601359150808211156128b9578283fd5b508401601f810186136128ca578182fd5b6127bb868235602084016122a0565b600080604083850312156128eb578182fd5b6128f4836122fd565b915060208301358015158114612908578182fd5b809150509250929050565b60008060408385031215612925578182fd5b61292e836122fd565b946020939093013593505050565b60008060008060608587031215612951578182fd5b61295a856122fd565b93506020850135925060408501356001600160401b0381111561297b578283fd5b612987878288016124ca565b95989497509550505050565b60008060008060008060008060c0898b0312156129ae578182fd5b6129b7896122fd565b97506020890135965060408901356001600160401b03808211156129d9578384fd5b6129e58c838d016124ca565b90985096508691506129f960608c016122fd565b9550612a0760808c01612509565b945060a08b0135915080821115612a1c578384fd5b506127418b828c016124ca565b600080600060608486031215612a3d578081fd5b612a46846122fd565b95602085013595506040909401359392505050565b600080600080600060808688031215612a72578283fd5b612a7b866122fd565b9450602086013593506040860135925060608601356001600160401b03811115612aa3578182fd5b61284f888289016124ca565b60008060408385031215612ac1578182fd5b82356001600160401b0380821115612ad7578384fd5b612ae386838701612319565b93506020850135915080821115612af8578283fd5b50612b0585828601612444565b9150509250929050565b60008060208385031215612b21578182fd5b82356001600160401b0380821115612b37578384fd5b818501915085601f830112612b4a578384fd5b813581811115612b58578485fd5b866020606083028501011115612b6c578485fd5b60209290920196919550909350505050565b600060208284031215612b8f578081fd5b81356111fd816132d8565b600060208284031215612bab578081fd5b81516111fd816132d8565b600060608284031215612bc7578081fd5b604051606081018181106001600160401b0382111715612be957612be9613221565b60405282358152612bfc602084016122fd565b6020820152612c0d60408401612509565b60408201529392505050565b600060408284031215612c2a578081fd5b50919050565b600060408284031215612c41578081fd5b604051604081018181106001600160401b0382111715612c6357612c63613221565b604052612c6f836122fd565b8152612c7d60208401612509565b60208201529392505050565b600060208284031215612c9a578081fd5b5035919050565b60008060408385031215612cb3578182fd5b50508035926020909101359150565b6000815180845260208085019450808401835b83811015612cf157815187529582019590820190600101612cd5565b509495945050505050565b60008151808452815b81811015612d2157602081850181015186830182015201612d05565b81811115612d325782602083870101525b50601f01601f19169290920160200192915050565b6001600160a01b0386811682528516602082015260a060408201819052600090612d7390830186612cc2565b8281036060840152612d858186612cc2565b90508281036080840152612d998185612cfc565b98975050505050505050565b6001600160a01b03868116825285166020820152604081018490526060810183905260a060808201819052600090612ddf90830184612cfc565b979650505050505050565b6020815260006111fd6020830184612cc2565b604081526000612e106040830185612cc2565b8281036020840152612e228185612cc2565b95945050505050565b6020815260006111fd6020830184612cfc565b60208082526028908201527f455243313135353a204552433131353552656365697665722072656a656374656040820152676420746f6b656e7360c01b606082015260800190565b60208082526024908201527f455243313135353a206275726e20616d6f756e7420657863656564732062616c604082015263616e636560e01b606082015260800190565b60208082526025908201527f455243313135353a207472616e7366657220746f20746865207a65726f206164604082015264647265737360d81b606082015260800190565b60208082526023908201527f455243313135353a206275726e2066726f6d20746865207a65726f206164647260408201526265737360e81b606082015260800190565b6020808252602a908201527f455243313135353a20696e73756666696369656e742062616c616e636520666f60408201526939103a3930b739b332b960b11b606082015260800190565b6020808252818101527f4f776e61626c653a2063616c6c6572206973206e6f7420746865206f776e6572604082015260600190565b60208082526028908201527f455243313135353a2069647320616e6420616d6f756e7473206c656e677468206040820152670dad2e6dac2e8c6d60c31b606082015260800190565b60208082526021908201527f455243313135353a206d696e7420746f20746865207a65726f206164647265736040820152607360f81b606082015260800190565b8681526001600160a01b03868116602083015260a0604083018190528201859052600090858760c08501378160c0878501015260c0601f19601f880116840101915080851660608401525061ffff83166080830152979650505050505050565b6000808335601e198436030181126130d0578283fd5b8301803591506001600160401b038211156130e9578283fd5b6020019150368190038213156107ab57600080fd5b60006001600160401b0382111561311757613117613221565b5060051b60200190565b600082198211156131345761313461320b565b500190565b60008261315457634e487b7160e01b81526012600452602481fd5b500490565b60008160001904831182151516156131735761317361320b565b500290565b60008282101561318a5761318a61320b565b500390565b600181811c908216806131a357607f821691505b60208210811415612c2a57634e487b7160e01b600052602260045260246000fd5b601f8201601f191681016001600160401b03811182821017156131e9576131e9613221565b6040525050565b60006000198214156132045761320461320b565b5060010190565b634e487b7160e01b600052601160045260246000fd5b634e487b7160e01b600052604160045260246000fd5b600060033d111561324c57600481823e5160e01c5b90565b600060443d101561325d5790565b6040516003193d81016004833e81513d6001600160401b03816024840111818411171561328c57505050505090565b82850191508151818111156132a45750505050505090565b843d87010160208285010111156132be5750505050505090565b6132cd602082860101876131c4565b509095945050505050565b6001600160e01b03198116811461104d57600080fdfea264697066735822122044a2f2129e2dd2e729c0a9fef915711eb3aded91157c777c38fd357885a93b1a64736f6c63430008040033",
  "devdoc": {
    "kind": "dev",
    "methods": {
      "balanceOf(address,uint256)": {
        "details": "See {IERC1155-balanceOf}. Requirements: - `account` cannot be the zero address."
      },
      "balanceOfBatch(address[],uint256[])": {
        "details": "See {IERC1155-balanceOfBatch}. Requirements: - `accounts` and `ids` must have the same length."
      },
      "getTokenRoyaltiesCount()": {
        "details": "See {IEIP2981RoyaltyOverride-getTokenRoyaltiesCount}."
      },
      "getTokenRoyaltyByIndex(uint256)": {
        "details": "See {IEIP2981RoyaltyOverride-getTokenRoyaltyByIndex}."
      },
      "isApprovedForAll(address,address)": {
        "details": "See {IERC1155-isApprovedForAll}."
      },
      "owner()": {
        "details": "Returns the address of the current owner."
      },
      "renounceOwnership()": {
        "details": "Leaves the contract without owner. It will not be possible to call `onlyOwner` functions anymore. Can only be called by the current owner. NOTE: Renouncing ownership will leave the contract without an owner, thereby removing any functionality that is only available to the owner."
      },
      "royaltyInfo(uint256,uint256)": {
        "details": "See {IEIP2981RoyaltyOverride-royaltyInfo}."
      },
      "safeBatchTransferFrom(address,address,uint256[],uint256[],bytes)": {
        "details": "See {IERC1155-safeBatchTransferFrom}."
      },
      "safeTransferFrom(address,address,uint256,uint256,bytes)": {
        "details": "See {IERC1155-safeTransferFrom}."
      },
      "setApprovalForAll(address,bool)": {
        "details": "See {IERC1155-setApprovalForAll}."
      },
      "setDefaultRoyalty((address,uint16))": {
        "details": "Set a default royalty configuration.  Will be used if no token specific configuration is set"
      },
      "transferOwnership(address)": {
        "details": "Transfers ownership of the contract to a new account (`newOwner`). Can only be called by the current owner."
      }
    },
    "version": 1
  },
  "userdoc": {
    "kind": "user",
    "methods": {},
    "version": 1
  },
  "storageLayout": {
    "storage": [
      {
        "astId": 2816,
        "contract": "contracts/ERC1155WithRoyalty.sol:ERC1155WithRoyalty",
        "label": "defaultRoyalty",
        "offset": 0,
        "slot": "0",
        "type": "t_struct(TokenRoyalty)3125_storage"
      },
      {
        "astId": 2821,
        "contract": "contracts/ERC1155WithRoyalty.sol:ERC1155WithRoyalty",
        "label": "_tokenRoyalties",
        "offset": 0,
        "slot": "1",
        "type": "t_mapping(t_uint256,t_struct(TokenRoyalty)3125_storage)"
      },
      {
        "astId": 2824,
        "contract": "contracts/ERC1155WithRoyalty.sol:ERC1155WithRoyalty",
        "label": "_tokensWithRoyalties",
        "offset": 0,
        "slot": "2",
        "type": "t_struct(UintSet)2208_storage"
      },
      {
        "astId": 151,
        "contract": "contracts/ERC1155WithRoyalty.sol:ERC1155WithRoyalty",
        "label": "_balances",
        "offset": 0,
        "slot": "4",
        "type": "t_mapping(t_uint256,t_mapping(t_address,t_uint256))"
      },
      {
        "astId": 157,
        "contract": "contracts/ERC1155WithRoyalty.sol:ERC1155WithRoyalty",
        "label": "_operatorApprovals",
        "offset": 0,
        "slot": "5",
        "type": "t_mapping(t_address,t_mapping(t_address,t_bool))"
      },
      {
        "astId": 159,
        "contract": "contracts/ERC1155WithRoyalty.sol:ERC1155WithRoyalty",
        "label": "_uri",
        "offset": 0,
        "slot": "6",
        "type": "t_string_storage"
      },
      {
        "astId": 7,
        "contract": "contracts/ERC1155WithRoyalty.sol:ERC1155WithRoyalty",
        "label": "_owner",
        "offset": 0,
        "slot": "7",
        "type": "t_address"
      },
      {
        "astId": 2353,
        "contract": "contracts/ERC1155WithRoyalty.sol:ERC1155WithRoyalty",
        "label": "tokenToUri",
        "offset": 0,
        "slot": "8",
        "type": "t_mapping(t_uint256,t_string_storage)"
      },
      {
        "astId": 2355,
        "contract": "contracts/ERC1155WithRoyalty.sol:ERC1155WithRoyalty",
        "label": "counter",
        "offset": 0,
        "slot": "9",
        "type": "t_uint256"
      },
      {
        "astId": 2359,
        "contract": "contracts/ERC1155WithRoyalty.sol:ERC1155WithRoyalty",
        "label": "_proofOfAuthenticity",
        "offset": 0,
        "slot": "10",
        "type": "t_mapping(t_uint256,t_string_storage)"
      }
    ],
    "types": {
      "t_address": {
        "encoding": "inplace",
        "label": "address",
        "numberOfBytes": "20"
      },
      "t_array(t_bytes32)dyn_storage": {
        "base": "t_bytes32",
        "encoding": "dynamic_array",
        "label": "bytes32[]",
        "numberOfBytes": "32"
      },
      "t_bool": {
        "encoding": "inplace",
        "label": "bool",
        "numberOfBytes": "1"
      },
      "t_bytes32": {
        "encoding": "inplace",
        "label": "bytes32",
        "numberOfBytes": "32"
      },
      "t_mapping(t_address,t_bool)": {
        "encoding": "mapping",
        "key": "t_address",
        "label": "mapping(address => bool)",
        "numberOfBytes": "32",
        "value": "t_bool"
      },
      "t_mapping(t_address,t_mapping(t_address,t_bool))": {
        "encoding": "mapping",
        "key": "t_address",
        "label": "mapping(address => mapping(address => bool))",
        "numberOfBytes": "32",
        "value": "t_mapping(t_address,t_bool)"
      },
      "t_mapping(t_address,t_uint256)": {
        "encoding": "mapping",
        "key": "t_address",
        "label": "mapping(address => uint256)",
        "numberOfBytes": "32",
        "value": "t_uint256"
      },
      "t_mapping(t_bytes32,t_uint256)": {
        "encoding": "mapping",
        "key": "t_bytes32",
        "label": "mapping(bytes32 => uint256)",
        "numberOfBytes": "32",
        "value": "t_uint256"
      },
      "t_mapping(t_uint256,t_mapping(t_address,t_uint256))": {
        "encoding": "mapping",
        "key": "t_uint256",
        "label": "mapping(uint256 => mapping(address => uint256))",
        "numberOfBytes": "32",
        "value": "t_mapping(t_address,t_uint256)"
      },
      "t_mapping(t_uint256,t_string_storage)": {
        "encoding": "mapping",
        "key": "t_uint256",
        "label": "mapping(uint256 => string)",
        "numberOfBytes": "32",
        "value": "t_string_storage"
      },
      "t_mapping(t_uint256,t_struct(TokenRoyalty)3125_storage)": {
        "encoding": "mapping",
        "key": "t_uint256",
        "label": "mapping(uint256 => struct IERC1155WithRoyalty.TokenRoyalty)",
        "numberOfBytes": "32",
        "value": "t_struct(TokenRoyalty)3125_storage"
      },
      "t_string_storage": {
        "encoding": "bytes",
        "label": "string",
        "numberOfBytes": "32"
      },
      "t_struct(Set)1750_storage": {
        "encoding": "inplace",
        "label": "struct EnumerableSet.Set",
        "members": [
          {
            "astId": 1745,
            "contract": "contracts/ERC1155WithRoyalty.sol:ERC1155WithRoyalty",
            "label": "_values",
            "offset": 0,
            "slot": "0",
            "type": "t_array(t_bytes32)dyn_storage"
          },
          {
            "astId": 1749,
            "contract": "contracts/ERC1155WithRoyalty.sol:ERC1155WithRoyalty",
            "label": "_indexes",
            "offset": 0,
            "slot": "1",
            "type": "t_mapping(t_bytes32,t_uint256)"
          }
        ],
        "numberOfBytes": "64"
      },
      "t_struct(TokenRoyalty)3125_storage": {
        "encoding": "inplace",
        "label": "struct IERC1155WithRoyalty.TokenRoyalty",
        "members": [
          {
            "astId": 3122,
            "contract": "contracts/ERC1155WithRoyalty.sol:ERC1155WithRoyalty",
            "label": "recipient",
            "offset": 0,
            "slot": "0",
            "type": "t_address"
          },
          {
            "astId": 3124,
            "contract": "contracts/ERC1155WithRoyalty.sol:ERC1155WithRoyalty",
            "label": "bps",
            "offset": 20,
            "slot": "0",
            "type": "t_uint16"
          }
        ],
        "numberOfBytes": "32"
      },
      "t_struct(UintSet)2208_storage": {
        "encoding": "inplace",
        "label": "struct EnumerableSet.UintSet",
        "members": [
          {
            "astId": 2207,
            "contract": "contracts/ERC1155WithRoyalty.sol:ERC1155WithRoyalty",
            "label": "_inner",
            "offset": 0,
            "slot": "0",
            "type": "t_struct(Set)1750_storage"
          }
        ],
        "numberOfBytes": "64"
      },
      "t_uint16": {
        "encoding": "inplace",
        "label": "uint16",
        "numberOfBytes": "2"
      },
      "t_uint256": {
        "encoding": "inplace",
        "label": "uint256",
        "numberOfBytes": "32"
      }
    }
  }
}