{
  "address": "0x24c8B6Ae92fC7e76a85DFf3B3A4ce76DA3961Cee",
  "abi": [
    {
      "inputs": [],
      "stateMutability": "nonpayable",
      "type": "constructor"
    },
    {
      "anonymous": false,
      "inputs": [
        {
          "indexed": false,
          "internalType": "address",
          "name": "previousAdmin",
          "type": "address"
        },
        {
          "indexed": false,
          "internalType": "address",
          "name": "newAdmin",
          "type": "address"
        }
      ],
      "name": "AdminChanged",
      "type": "event"
    },
    {
      "anonymous": false,
      "inputs": [
        {
          "indexed": true,
          "internalType": "address",
          "name": "beacon",
          "type": "address"
        }
      ],
      "name": "BeaconUpgraded",
      "type": "event"
    },
    {
      "anonymous": false,
      "inputs": [
        {
          "indexed": false,
          "internalType": "address",
          "name": "songContract",
          "type": "address"
        },
        {
          "indexed": false,
          "internalType": "uint256",
          "name": "revenue",
          "type": "uint256"
        }
      ],
      "name": "RevenueDistributed",
      "type": "event"
    },
    {
      "anonymous": false,
      "inputs": [
        {
          "indexed": true,
          "internalType": "bytes32",
          "name": "role",
          "type": "bytes32"
        },
        {
          "indexed": true,
          "internalType": "bytes32",
          "name": "previousAdminRole",
          "type": "bytes32"
        },
        {
          "indexed": true,
          "internalType": "bytes32",
          "name": "newAdminRole",
          "type": "bytes32"
        }
      ],
      "name": "RoleAdminChanged",
      "type": "event"
    },
    {
      "anonymous": false,
      "inputs": [
        {
          "indexed": true,
          "internalType": "bytes32",
          "name": "role",
          "type": "bytes32"
        },
        {
          "indexed": true,
          "internalType": "address",
          "name": "account",
          "type": "address"
        },
        {
          "indexed": true,
          "internalType": "address",
          "name": "sender",
          "type": "address"
        }
      ],
      "name": "RoleGranted",
      "type": "event"
    },
    {
      "anonymous": false,
      "inputs": [
        {
          "indexed": true,
          "internalType": "bytes32",
          "name": "role",
          "type": "bytes32"
        },
        {
          "indexed": true,
          "internalType": "address",
          "name": "account",
          "type": "address"
        },
        {
          "indexed": true,
          "internalType": "address",
          "name": "sender",
          "type": "address"
        }
      ],
      "name": "RoleRevoked",
      "type": "event"
    },
    {
      "anonymous": false,
      "inputs": [
        {
          "indexed": true,
          "internalType": "address",
          "name": "implementation",
          "type": "address"
        }
      ],
      "name": "Upgraded",
      "type": "event"
    },
    {
      "inputs": [],
      "name": "DEFAULT_ADMIN_ROLE",
      "outputs": [
        {
          "internalType": "bytes32",
          "name": "",
          "type": "bytes32"
        }
      ],
      "stateMutability": "view",
      "type": "function"
    },
    {
      "inputs": [],
      "name": "UPGRADER_ROLE",
      "outputs": [
        {
          "internalType": "bytes32",
          "name": "",
          "type": "bytes32"
        }
      ],
      "stateMutability": "view",
      "type": "function"
    },
    {
      "inputs": [
        {
          "internalType": "address",
          "name": "song_",
          "type": "address"
        },
        {
          "internalType": "uint256",
          "name": "revenue_",
          "type": "uint256"
        }
      ],
      "name": "distributeRevenue",
      "outputs": [],
      "stateMutability": "nonpayable",
      "type": "function"
    },
    {
      "inputs": [
        {
          "internalType": "bytes32",
          "name": "role",
          "type": "bytes32"
        }
      ],
      "name": "getRoleAdmin",
      "outputs": [
        {
          "internalType": "bytes32",
          "name": "",
          "type": "bytes32"
        }
      ],
      "stateMutability": "view",
      "type": "function"
    },
    {
      "inputs": [
        {
          "internalType": "bytes32",
          "name": "role",
          "type": "bytes32"
        },
        {
          "internalType": "address",
          "name": "account",
          "type": "address"
        }
      ],
      "name": "grantRole",
      "outputs": [],
      "stateMutability": "nonpayable",
      "type": "function"
    },
    {
      "inputs": [
        {
          "internalType": "bytes32",
          "name": "role",
          "type": "bytes32"
        },
        {
          "internalType": "address",
          "name": "account",
          "type": "address"
        }
      ],
      "name": "hasRole",
      "outputs": [
        {
          "internalType": "bool",
          "name": "",
          "type": "bool"
        }
      ],
      "stateMutability": "view",
      "type": "function"
    },
    {
      "inputs": [
        {
          "internalType": "address",
          "name": "revenueOracle_",
          "type": "address"
        },
        {
          "internalType": "address",
          "name": "protocol_",
          "type": "address"
        },
        {
          "internalType": "address",
          "name": "upgrader_",
          "type": "address"
        }
      ],
      "name": "initialize",
      "outputs": [],
      "stateMutability": "nonpayable",
      "type": "function"
    },
    {
      "inputs": [],
      "name": "protocol",
      "outputs": [
        {
          "internalType": "contract ProtocolParameters",
          "name": "",
          "type": "address"
        }
      ],
      "stateMutability": "view",
      "type": "function"
    },
    {
      "inputs": [
        {
          "internalType": "bytes32",
          "name": "role",
          "type": "bytes32"
        },
        {
          "internalType": "address",
          "name": "account",
          "type": "address"
        }
      ],
      "name": "renounceRole",
      "outputs": [],
      "stateMutability": "nonpayable",
      "type": "function"
    },
    {
      "inputs": [],
      "name": "revenueOracle",
      "outputs": [
        {
          "internalType": "address",
          "name": "",
          "type": "address"
        }
      ],
      "stateMutability": "view",
      "type": "function"
    },
    {
      "inputs": [
        {
          "internalType": "bytes32",
          "name": "role",
          "type": "bytes32"
        },
        {
          "internalType": "address",
          "name": "account",
          "type": "address"
        }
      ],
      "name": "revokeRole",
      "outputs": [],
      "stateMutability": "nonpayable",
      "type": "function"
    },
    {
      "inputs": [
        {
          "internalType": "bytes4",
          "name": "interfaceId",
          "type": "bytes4"
        }
      ],
      "name": "supportsInterface",
      "outputs": [
        {
          "internalType": "bool",
          "name": "",
          "type": "bool"
        }
      ],
      "stateMutability": "view",
      "type": "function"
    },
    {
      "inputs": [
        {
          "internalType": "address",
          "name": "newImplementation",
          "type": "address"
        }
      ],
      "name": "upgradeTo",
      "outputs": [],
      "stateMutability": "nonpayable",
      "type": "function"
    },
    {
      "inputs": [
        {
          "internalType": "address",
          "name": "newImplementation",
          "type": "address"
        },
        {
          "internalType": "bytes",
          "name": "data",
          "type": "bytes"
        }
      ],
      "name": "upgradeToAndCall",
      "outputs": [],
      "stateMutability": "payable",
      "type": "function"
    },
    {
      "inputs": [
        {
          "internalType": "address",
          "name": "",
          "type": "address"
        }
      ],
      "name": "withdrawableFundsBySong",
      "outputs": [
        {
          "internalType": "uint256",
          "name": "forArtist",
          "type": "uint256"
        },
        {
          "internalType": "uint256",
          "name": "forPositions",
          "type": "uint256"
        }
      ],
      "stateMutability": "view",
      "type": "function"
    }
  ],
  "transactionHash": "0xdd4225ff1a999da6ac8520cbe22174e6914b1092579f5f4bbc8ecea9cdcf3c37",
  "args": [],
  "solcInputHash": "fd750c0783e29ee55e57a970f1bbddce",
  "bytecode": "0x60a06040523073ffffffffffffffffffffffffffffffffffffffff1660809073ffffffffffffffffffffffffffffffffffffffff1660601b8152503480156200004757600080fd5b50600060019054906101000a900460ff16806200006f575060008054906101000a900460ff16155b620000b1576040517f08c379a0000000000000000000000000000000000000000000000000000000008152600401620000a89062000152565b60405180910390fd5b60008060019054906101000a900460ff16159050801562000102576001600060016101000a81548160ff02191690831515021790555060016000806101000a81548160ff0219169083151502179055505b8015620001245760008060016101000a81548160ff0219169083151502179055505b50620001d4565b60006200013a602e8362000174565b9150620001478262000185565b604082019050919050565b600060208201905081810360008301526200016d816200012b565b9050919050565b600082825260208201905092915050565b7f496e697469616c697a61626c653a20636f6e747261637420697320616c72656160008201527f647920696e697469616c697a6564000000000000000000000000000000000000602082015250565b60805160601c612c3962000208600039600081816104e8015281816105770152818161069701526107260152612c396000f3fe6080604052600436106100e85760003560e01c80636d0a1cb31161008a578063a217fddf11610059578063a217fddf146102f8578063c0c53b8b14610323578063d547741f1461034c578063f72c0d8b14610375576100e8565b80636d0a1cb3146102295780636e66a6e1146102525780638ce744261461029057806391d14854146102bb576100e8565b806336568abe116100c657806336568abe146101905780633659cfe6146101b95780634f1ef286146101e257806356187a64146101fe576100e8565b806301ffc9a7146100ed578063248a9ca31461012a5780632f2ff15d14610167575b600080fd5b3480156100f957600080fd5b50610114600480360381019061010f9190611fcb565b6103a0565b6040516101219190612319565b60405180910390f35b34801561013657600080fd5b50610151600480360381019061014c9190611f66565b61041a565b60405161015e9190612334565b60405180910390f35b34801561017357600080fd5b5061018e60048036038101906101899190611f8f565b61043a565b005b34801561019c57600080fd5b506101b760048036038101906101b29190611f8f565b610463565b005b3480156101c557600080fd5b506101e060048036038101906101db9190611e5e565b6104e6565b005b6101fc60048036038101906101f79190611ed6565b610695565b005b34801561020a57600080fd5b506102136107d2565b60405161022091906122d5565b60405180910390f35b34801561023557600080fd5b50610250600480360381019061024b9190611f2a565b6107f8565b005b34801561025e57600080fd5b5061027960048036038101906102749190611e5e565b610a23565b6040516102879291906124ac565b60405180910390f35b34801561029c57600080fd5b506102a5610a47565b6040516102b2919061234f565b60405180910390f35b3480156102c757600080fd5b506102e260048036038101906102dd9190611f8f565b610a6d565b6040516102ef9190612319565b60405180910390f35b34801561030457600080fd5b5061030d610ad8565b60405161031a9190612334565b60405180910390f35b34801561032f57600080fd5b5061034a60048036038101906103459190611e87565b610adf565b005b34801561035857600080fd5b50610373600480360381019061036e9190611f8f565b610c77565b005b34801561038157600080fd5b5061038a610ca0565b6040516103979190612334565b60405180910390f35b60007f7965db0b000000000000000000000000000000000000000000000000000000007bffffffffffffffffffffffffffffffffffffffffffffffffffffffff1916827bffffffffffffffffffffffffffffffffffffffffffffffffffffffff19161480610413575061041282610cc4565b5b9050919050565b600060656000838152602001908152602001600020600101549050919050565b6104438261041a565b6104548161044f610d2e565b610d36565b61045e8383610dd3565b505050565b61046b610d2e565b73ffffffffffffffffffffffffffffffffffffffff168173ffffffffffffffffffffffffffffffffffffffff16146104d8576040517f08c379a00000000000000000000000000000000000000000000000000000000081526004016104cf9061248c565b60405180910390fd5b6104e28282610eb4565b5050565b7f000000000000000000000000000000000000000000000000000000000000000073ffffffffffffffffffffffffffffffffffffffff163073ffffffffffffffffffffffffffffffffffffffff161415610575576040517f08c379a000000000000000000000000000000000000000000000000000000000815260040161056c906123cc565b60405180910390fd5b7f000000000000000000000000000000000000000000000000000000000000000073ffffffffffffffffffffffffffffffffffffffff166105b4610f96565b73ffffffffffffffffffffffffffffffffffffffff161461060a576040517f08c379a0000000000000000000000000000000000000000000000000000000008152600401610601906123ec565b60405180910390fd5b61061381610fed565b61069281600067ffffffffffffffff811115610658577f4e487b7100000000000000000000000000000000000000000000000000000000600052604160045260246000fd5b6040519080825280601f01601f19166020018201604052801561068a5781602001600182028036833780820191505090505b506000611023565b50565b7f000000000000000000000000000000000000000000000000000000000000000073ffffffffffffffffffffffffffffffffffffffff163073ffffffffffffffffffffffffffffffffffffffff161415610724576040517f08c379a000000000000000000000000000000000000000000000000000000000815260040161071b906123cc565b60405180910390fd5b7f000000000000000000000000000000000000000000000000000000000000000073ffffffffffffffffffffffffffffffffffffffff16610763610f96565b73ffffffffffffffffffffffffffffffffffffffff16146107b9576040517f08c379a00000000000000000000000000000000000000000000000000000000081526004016107b0906123ec565b60405180910390fd5b6107c282610fed565b6107ce82826001611023565b5050565b60fc60009054906101000a900473ffffffffffffffffffffffffffffffffffffffff1681565b60fc60009054906101000a900473ffffffffffffffffffffffffffffffffffffffff1673ffffffffffffffffffffffffffffffffffffffff163373ffffffffffffffffffffffffffffffffffffffff1614610888576040517f08c379a000000000000000000000000000000000000000000000000000000000815260040161087f9061242c565b60405180910390fd5b60008111156109e657600060fd60008473ffffffffffffffffffffffffffffffffffffffff1673ffffffffffffffffffffffffffffffffffffffff1681526020019081526020016000209050600061271060fb60009054906101000a900473ffffffffffffffffffffffffffffffffffffffff1673ffffffffffffffffffffffffffffffffffffffff16635e013a356040518163ffffffff1660e01b815260040160206040518083038186803b15801561094157600080fd5b505afa158015610955573d6000803e3d6000fd5b505050506040513d601f19601f820116820180604052508101906109799190611ff4565b6fffffffffffffffffffffffffffffffff168461099691906125ef565b6109a091906125be565b9050808260000160008282546109b69190612568565b9250508190555080836109c99190612649565b8260010160008282546109dc9190612568565b9250508190555050505b7f8d41c8766c1135ba5f49e1a78778e75075121c93494fcd59d27c505d981422378282604051610a179291906122f0565b60405180910390a15050565b60fd6020528060005260406000206000915090508060000154908060010154905082565b60fb60009054906101000a900473ffffffffffffffffffffffffffffffffffffffff1681565b60006065600084815260200190815260200160002060000160008373ffffffffffffffffffffffffffffffffffffffff1673ffffffffffffffffffffffffffffffffffffffff16815260200190815260200160002060009054906101000a900460ff16905092915050565b6000801b81565b600060019054906101000a900460ff1680610b05575060008054906101000a900460ff16155b610b44576040517f08c379a0000000000000000000000000000000000000000000000000000000008152600401610b3b9061240c565b60405180910390fd5b60008060019054906101000a900460ff161590508015610b94576001600060016101000a81548160ff02191690831515021790555060016000806101000a81548160ff0219169083151502179055505b8360fc60006101000a81548173ffffffffffffffffffffffffffffffffffffffff021916908373ffffffffffffffffffffffffffffffffffffffff1602179055508260fb60006101000a81548173ffffffffffffffffffffffffffffffffffffffff021916908373ffffffffffffffffffffffffffffffffffffffff160217905550610c1e6111f4565b610c266112e5565b610c507f189ab7a9244df0848122154315af71fe140f3db0fe014031783b0946b8c9d2e3836113ce565b8015610c715760008060016101000a81548160ff0219169083151502179055505b50505050565b610c808261041a565b610c9181610c8c610d2e565b610d36565b610c9b8383610eb4565b505050565b7f189ab7a9244df0848122154315af71fe140f3db0fe014031783b0946b8c9d2e381565b60007f01ffc9a7000000000000000000000000000000000000000000000000000000007bffffffffffffffffffffffffffffffffffffffffffffffffffffffff1916827bffffffffffffffffffffffffffffffffffffffffffffffffffffffff1916149050919050565b600033905090565b610d408282610a6d565b610dcf57610d658173ffffffffffffffffffffffffffffffffffffffff1660146113dc565b610d738360001c60206113dc565b604051602001610d8492919061229b565b6040516020818303038152906040526040517f08c379a0000000000000000000000000000000000000000000000000000000008152600401610dc6919061236a565b60405180910390fd5b5050565b610ddd8282610a6d565b610eb05760016065600084815260200190815260200160002060000160008373ffffffffffffffffffffffffffffffffffffffff1673ffffffffffffffffffffffffffffffffffffffff16815260200190815260200160002060006101000a81548160ff021916908315150217905550610e55610d2e565b73ffffffffffffffffffffffffffffffffffffffff168173ffffffffffffffffffffffffffffffffffffffff16837f2f8788117e7eff1d82e926ec794901d17c78024a50270940304540a733656f0d60405160405180910390a45b5050565b610ebe8282610a6d565b15610f925760006065600084815260200190815260200160002060000160008373ffffffffffffffffffffffffffffffffffffffff1673ffffffffffffffffffffffffffffffffffffffff16815260200190815260200160002060006101000a81548160ff021916908315150217905550610f37610d2e565b73ffffffffffffffffffffffffffffffffffffffff168173ffffffffffffffffffffffffffffffffffffffff16837ff6391f5c32d9c69d2a47ea670b442974b53935d1edc7fd64eb21e047a839171b60405160405180910390a45b5050565b6000610fc47f360894a13ba1a3210667c828492db98dca3e2076cc3735a920a3ca505d382bbc60001b6116d6565b60000160009054906101000a900473ffffffffffffffffffffffffffffffffffffffff16905090565b7f189ab7a9244df0848122154315af71fe140f3db0fe014031783b0946b8c9d2e361101f8161101a610d2e565b610d36565b5050565b600061102d610f96565b9050611038846116e0565b6000835111806110455750815b15611056576110548484611799565b505b60006110847f4910fdfa16fed3260ed0e7147f7cc6da11a60208b5b9406d12a635614ffd914360001b61187d565b90508060000160009054906101000a900460ff166111ed5760018160000160006101000a81548160ff02191690831515021790555061115085836040516024016110ce91906122d5565b6040516020818303038152906040527f3659cfe6000000000000000000000000000000000000000000000000000000007bffffffffffffffffffffffffffffffffffffffffffffffffffffffff19166020820180517bffffffffffffffffffffffffffffffffffffffffffffffffffffffff8381831617835250505050611799565b5060008160000160006101000a81548160ff021916908315150217905550611176610f96565b73ffffffffffffffffffffffffffffffffffffffff168273ffffffffffffffffffffffffffffffffffffffff16146111e3576040517f08c379a00000000000000000000000000000000000000000000000000000000081526004016111da906123ac565b60405180910390fd5b6111ec85611887565b5b5050505050565b600060019054906101000a900460ff168061121a575060008054906101000a900460ff16155b611259576040517f08c379a00000000000000000000000000000000000000000000000000000000081526004016112509061240c565b60405180910390fd5b60008060019054906101000a900460ff1615905080156112a9576001600060016101000a81548160ff02191690831515021790555060016000806101000a81548160ff0219169083151502179055505b6112b16118d6565b6112b96119af565b6112c1611a88565b80156112e25760008060016101000a81548160ff0219169083151502179055505b50565b600060019054906101000a900460ff168061130b575060008054906101000a900460ff16155b61134a576040517f08c379a00000000000000000000000000000000000000000000000000000000081526004016113419061240c565b60405180910390fd5b60008060019054906101000a900460ff16159050801561139a576001600060016101000a81548160ff02191690831515021790555060016000806101000a81548160ff0219169083151502179055505b6113a2611b61565b6113aa611c3a565b80156113cb5760008060016101000a81548160ff0219169083151502179055505b50565b6113d88282610dd3565b5050565b6060600060028360026113ef91906125ef565b6113f99190612568565b67ffffffffffffffff811115611438577f4e487b7100000000000000000000000000000000000000000000000000000000600052604160045260246000fd5b6040519080825280601f01601f19166020018201604052801561146a5781602001600182028036833780820191505090505b5090507f3000000000000000000000000000000000000000000000000000000000000000816000815181106114c8577f4e487b7100000000000000000000000000000000000000000000000000000000600052603260045260246000fd5b60200101907effffffffffffffffffffffffffffffffffffffffffffffffffffffffffffff1916908160001a9053507f780000000000000000000000000000000000000000000000000000000000000081600181518110611552577f4e487b7100000000000000000000000000000000000000000000000000000000600052603260045260246000fd5b60200101907effffffffffffffffffffffffffffffffffffffffffffffffffffffffffffff1916908160001a9053506000600184600261159291906125ef565b61159c9190612568565b90505b6001811115611688577f3031323334353637383961626364656600000000000000000000000000000000600f861660108110611604577f4e487b7100000000000000000000000000000000000000000000000000000000600052603260045260246000fd5b1a60f81b828281518110611641577f4e487b7100000000000000000000000000000000000000000000000000000000600052603260045260246000fd5b60200101907effffffffffffffffffffffffffffffffffffffffffffffffffffffffffffff1916908160001a905350600485901c9450806116819061277d565b905061159f565b50600084146116cc576040517f08c379a00000000000000000000000000000000000000000000000000000000081526004016116c39061238c565b60405180910390fd5b8091505092915050565b6000819050919050565b6116e981611d13565b611728576040517f08c379a000000000000000000000000000000000000000000000000000000000815260040161171f9061244c565b60405180910390fd5b806117557f360894a13ba1a3210667c828492db98dca3e2076cc3735a920a3ca505d382bbc60001b6116d6565b60000160006101000a81548173ffffffffffffffffffffffffffffffffffffffff021916908373ffffffffffffffffffffffffffffffffffffffff16021790555050565b60606117a483611d13565b6117e3576040517f08c379a00000000000000000000000000000000000000000000000000000000081526004016117da9061246c565b60405180910390fd5b6000808473ffffffffffffffffffffffffffffffffffffffff168460405161180b9190612284565b600060405180830381855af49150503d8060008114611846576040519150601f19603f3d011682016040523d82523d6000602084013e61184b565b606091505b50915091506118738282604051806060016040528060278152602001612bdd60279139611d26565b9250505092915050565b6000819050919050565b611890816116e0565b8073ffffffffffffffffffffffffffffffffffffffff167fbc7cd75a20ee27fd9adebab32041f755214dbc6bffa90cc0225b39da2e5c2d3b60405160405180910390a250565b600060019054906101000a900460ff16806118fc575060008054906101000a900460ff16155b61193b576040517f08c379a00000000000000000000000000000000000000000000000000000000081526004016119329061240c565b60405180910390fd5b60008060019054906101000a900460ff16159050801561198b576001600060016101000a81548160ff02191690831515021790555060016000806101000a81548160ff0219169083151502179055505b80156119ac5760008060016101000a81548160ff0219169083151502179055505b50565b600060019054906101000a900460ff16806119d5575060008054906101000a900460ff16155b611a14576040517f08c379a0000000000000000000000000000000000000000000000000000000008152600401611a0b9061240c565b60405180910390fd5b60008060019054906101000a900460ff161590508015611a64576001600060016101000a81548160ff02191690831515021790555060016000806101000a81548160ff0219169083151502179055505b8015611a855760008060016101000a81548160ff0219169083151502179055505b50565b600060019054906101000a900460ff1680611aae575060008054906101000a900460ff16155b611aed576040517f08c379a0000000000000000000000000000000000000000000000000000000008152600401611ae49061240c565b60405180910390fd5b60008060019054906101000a900460ff161590508015611b3d576001600060016101000a81548160ff02191690831515021790555060016000806101000a81548160ff0219169083151502179055505b8015611b5e5760008060016101000a81548160ff0219169083151502179055505b50565b600060019054906101000a900460ff1680611b87575060008054906101000a900460ff16155b611bc6576040517f08c379a0000000000000000000000000000000000000000000000000000000008152600401611bbd9061240c565b60405180910390fd5b60008060019054906101000a900460ff161590508015611c16576001600060016101000a81548160ff02191690831515021790555060016000806101000a81548160ff0219169083151502179055505b8015611c375760008060016101000a81548160ff0219169083151502179055505b50565b600060019054906101000a900460ff1680611c60575060008054906101000a900460ff16155b611c9f576040517f08c379a0000000000000000000000000000000000000000000000000000000008152600401611c969061240c565b60405180910390fd5b60008060019054906101000a900460ff161590508015611cef576001600060016101000a81548160ff02191690831515021790555060016000806101000a81548160ff0219169083151502179055505b8015611d105760008060016101000a81548160ff0219169083151502179055505b50565b600080823b905060008111915050919050565b60608315611d3657829050611d86565b600083511115611d495782518084602001fd5b816040517f08c379a0000000000000000000000000000000000000000000000000000000008152600401611d7d919061236a565b60405180910390fd5b9392505050565b6000611da0611d9b846124fa565b6124d5565b905082815260208101848484011115611db857600080fd5b611dc384828561273b565b509392505050565b600081359050611dda81612b69565b92915050565b600081359050611def81612b80565b92915050565b600081359050611e0481612b97565b92915050565b600082601f830112611e1b57600080fd5b8135611e2b848260208601611d8d565b91505092915050565b600081519050611e4381612bae565b92915050565b600081359050611e5881612bc5565b92915050565b600060208284031215611e7057600080fd5b6000611e7e84828501611dcb565b91505092915050565b600080600060608486031215611e9c57600080fd5b6000611eaa86828701611dcb565b9350506020611ebb86828701611dcb565b9250506040611ecc86828701611dcb565b9150509250925092565b60008060408385031215611ee957600080fd5b6000611ef785828601611dcb565b925050602083013567ffffffffffffffff811115611f1457600080fd5b611f2085828601611e0a565b9150509250929050565b60008060408385031215611f3d57600080fd5b6000611f4b85828601611dcb565b9250506020611f5c85828601611e49565b9150509250929050565b600060208284031215611f7857600080fd5b6000611f8684828501611de0565b91505092915050565b60008060408385031215611fa257600080fd5b6000611fb085828601611de0565b9250506020611fc185828601611dcb565b9150509250929050565b600060208284031215611fdd57600080fd5b6000611feb84828501611df5565b91505092915050565b60006020828403121561200657600080fd5b600061201484828501611e34565b91505092915050565b6120268161267d565b82525050565b6120358161268f565b82525050565b6120448161269b565b82525050565b60006120558261252b565b61205f8185612541565b935061206f81856020860161274a565b80840191505092915050565b61208481612717565b82525050565b600061209582612536565b61209f818561254c565b93506120af81856020860161274a565b6120b881612865565b840191505092915050565b60006120ce82612536565b6120d8818561255d565b93506120e881856020860161274a565b80840191505092915050565b600061210160208361254c565b915061210c82612876565b602082019050919050565b6000612124602f8361254c565b915061212f8261289f565b604082019050919050565b6000612147602c8361254c565b9150612152826128ee565b604082019050919050565b600061216a602c8361254c565b91506121758261293d565b604082019050919050565b600061218d602e8361254c565b91506121988261298c565b604082019050919050565b60006121b0602c8361254c565b91506121bb826129db565b604082019050919050565b60006121d3602d8361254c565b91506121de82612a2a565b604082019050919050565b60006121f660268361254c565b915061220182612a79565b604082019050919050565b600061221960178361255d565b915061222482612ac8565b601782019050919050565b600061223c60118361255d565b915061224782612af1565b601182019050919050565b600061225f602f8361254c565b915061226a82612b1a565b604082019050919050565b61227e8161270d565b82525050565b6000612290828461204a565b915081905092915050565b60006122a68261220c565b91506122b282856120c3565b91506122bd8261222f565b91506122c982846120c3565b91508190509392505050565b60006020820190506122ea600083018461201d565b92915050565b6000604082019050612305600083018561201d565b6123126020830184612275565b9392505050565b600060208201905061232e600083018461202c565b92915050565b6000602082019050612349600083018461203b565b92915050565b6000602082019050612364600083018461207b565b92915050565b60006020820190508181036000830152612384818461208a565b905092915050565b600060208201905081810360008301526123a5816120f4565b9050919050565b600060208201905081810360008301526123c581612117565b9050919050565b600060208201905081810360008301526123e58161213a565b9050919050565b600060208201905081810360008301526124058161215d565b9050919050565b6000602082019050818103600083015261242581612180565b9050919050565b60006020820190508181036000830152612445816121a3565b9050919050565b60006020820190508181036000830152612465816121c6565b9050919050565b60006020820190508181036000830152612485816121e9565b9050919050565b600060208201905081810360008301526124a581612252565b9050919050565b60006040820190506124c16000830185612275565b6124ce6020830184612275565b9392505050565b60006124df6124f0565b90506124eb82826127a7565b919050565b6000604051905090565b600067ffffffffffffffff82111561251557612514612836565b5b61251e82612865565b9050602081019050919050565b600081519050919050565b600081519050919050565b600081905092915050565b600082825260208201905092915050565b600081905092915050565b60006125738261270d565b915061257e8361270d565b9250827fffffffffffffffffffffffffffffffffffffffffffffffffffffffffffffffff038211156125b3576125b26127d8565b5b828201905092915050565b60006125c98261270d565b91506125d48361270d565b9250826125e4576125e3612807565b5b828204905092915050565b60006125fa8261270d565b91506126058361270d565b9250817fffffffffffffffffffffffffffffffffffffffffffffffffffffffffffffffff048311821515161561263e5761263d6127d8565b5b828202905092915050565b60006126548261270d565b915061265f8361270d565b925082821015612672576126716127d8565b5b828203905092915050565b6000612688826126ed565b9050919050565b60008115159050919050565b6000819050919050565b60007fffffffff0000000000000000000000000000000000000000000000000000000082169050919050565b60006fffffffffffffffffffffffffffffffff82169050919050565b600073ffffffffffffffffffffffffffffffffffffffff82169050919050565b6000819050919050565b600061272282612729565b9050919050565b6000612734826126ed565b9050919050565b82818337600083830152505050565b60005b8381101561276857808201518184015260208101905061274d565b83811115612777576000848401525b50505050565b60006127888261270d565b9150600082141561279c5761279b6127d8565b5b600182039050919050565b6127b082612865565b810181811067ffffffffffffffff821117156127cf576127ce612836565b5b80604052505050565b7f4e487b7100000000000000000000000000000000000000000000000000000000600052601160045260246000fd5b7f4e487b7100000000000000000000000000000000000000000000000000000000600052601260045260246000fd5b7f4e487b7100000000000000000000000000000000000000000000000000000000600052604160045260246000fd5b6000601f19601f8301169050919050565b7f537472696e67733a20686578206c656e67746820696e73756666696369656e74600082015250565b7f45524331393637557067726164653a207570677261646520627265616b73206660008201527f7572746865722075706772616465730000000000000000000000000000000000602082015250565b7f46756e6374696f6e206d7573742062652063616c6c6564207468726f7567682060008201527f64656c656761746563616c6c0000000000000000000000000000000000000000602082015250565b7f46756e6374696f6e206d7573742062652063616c6c6564207468726f7567682060008201527f6163746976652070726f78790000000000000000000000000000000000000000602082015250565b7f496e697469616c697a61626c653a20636f6e747261637420697320616c72656160008201527f647920696e697469616c697a6564000000000000000000000000000000000000602082015250565b7f4f6e6c792063616c6c61626c652062792074686520726576656e7565206f726160008201527f636c6520636f6e74726163740000000000000000000000000000000000000000602082015250565b7f455243313936373a206e657720696d706c656d656e746174696f6e206973206e60008201527f6f74206120636f6e747261637400000000000000000000000000000000000000602082015250565b7f416464726573733a2064656c65676174652063616c6c20746f206e6f6e2d636f60008201527f6e74726163740000000000000000000000000000000000000000000000000000602082015250565b7f416363657373436f6e74726f6c3a206163636f756e7420000000000000000000600082015250565b7f206973206d697373696e6720726f6c6520000000000000000000000000000000600082015250565b7f416363657373436f6e74726f6c3a2063616e206f6e6c792072656e6f756e636560008201527f20726f6c657320666f722073656c660000000000000000000000000000000000602082015250565b612b728161267d565b8114612b7d57600080fd5b50565b612b898161269b565b8114612b9457600080fd5b50565b612ba0816126a5565b8114612bab57600080fd5b50565b612bb7816126d1565b8114612bc257600080fd5b50565b612bce8161270d565b8114612bd957600080fd5b5056fe416464726573733a206c6f772d6c6576656c2064656c65676174652063616c6c206661696c6564a2646970667358221220268909f46e42fb3d00cf02e16b4b62723bb26b479d5b1d11e129fe767c94b43e64736f6c63430008040033",
  "devdoc": {
    "events": {
      "RevenueDistributed(address,uint256)": {
        "details": "emitted when the revenue comes from the oracle",
        "params": {
          "revenue": "the revenue to distribute",
          "songContract": "the address of the song contract"
        }
      }
    },
    "kind": "dev",
    "methods": {
      "constructor": {
        "details": "the initializer modifier is to avoid someone initializing      the implementation contract after deployment"
      },
      "distributeRevenue(address,uint256)": {
        "details": "distribute the revenue of a song to the right users"
      },
      "getRoleAdmin(bytes32)": {
        "details": "Returns the admin role that controls `role`. See {grantRole} and {revokeRole}. To change a role's admin, use {_setRoleAdmin}."
      },
      "grantRole(bytes32,address)": {
        "details": "Grants `role` to `account`. If `account` had not been already granted `role`, emits a {RoleGranted} event. Requirements: - the caller must have ``role``'s admin role."
      },
      "hasRole(bytes32,address)": {
        "details": "Returns `true` if `account` has been granted `role`."
      },
      "initialize(address,address,address)": {
        "details": "set the addresses for integration",
        "params": {
          "protocol_": "the address of the revenue oracle contract",
          "revenueOracle_": "the address of the revenue oracle contract",
          "upgrader_": "the address allowed to upgrade the contract (should be the governance)"
        }
      },
      "renounceRole(bytes32,address)": {
        "details": "Revokes `role` from the calling account. Roles are often managed via {grantRole} and {revokeRole}: this function's purpose is to provide a mechanism for accounts to lose their privileges if they are compromised (such as when a trusted device is misplaced). If the calling account had been granted `role`, emits a {RoleRevoked} event. Requirements: - the caller must be `account`."
      },
      "revokeRole(bytes32,address)": {
        "details": "Revokes `role` from `account`. If `account` had been granted `role`, emits a {RoleRevoked} event. Requirements: - the caller must have ``role``'s admin role."
      },
      "supportsInterface(bytes4)": {
        "details": "See {IERC165-supportsInterface}."
      },
      "upgradeTo(address)": {
        "details": "Upgrade the implementation of the proxy to `newImplementation`. Calls {_authorizeUpgrade}. Emits an {Upgraded} event."
      },
      "upgradeToAndCall(address,bytes)": {
        "details": "Upgrade the implementation of the proxy to `newImplementation`, and subsequently execute the function call encoded in `data`. Calls {_authorizeUpgrade}. Emits an {Upgraded} event."
      }
    },
    "title": "the contract handling the funds and revenue",
    "version": 1
  },
  "userdoc": {
    "kind": "user",
    "methods": {
      "protocol()": {
        "notice": "the address of the protocol parameters"
      },
      "revenueOracle()": {
        "notice": "the address of the revenue oracle"
      },
      "withdrawableFundsBySong(address)": {
        "notice": "provide a getter for the withdrawable funds"
      }
    },
    "version": 1
  },
  "storageLayout": {
    "storage": [
      {
        "astId": 2915,
        "contract": "contracts/FundsManager.sol:FundsManager",
        "label": "_initialized",
        "offset": 0,
        "slot": "0",
        "type": "t_bool"
      },
      {
        "astId": 2918,
        "contract": "contracts/FundsManager.sol:FundsManager",
        "label": "_initializing",
        "offset": 1,
        "slot": "0",
        "type": "t_bool"
      },
      {
        "astId": 4517,
        "contract": "contracts/FundsManager.sol:FundsManager",
        "label": "__gap",
        "offset": 0,
        "slot": "1",
        "type": "t_array(t_uint256)50_storage"
      },
      {
        "astId": 4900,
        "contract": "contracts/FundsManager.sol:FundsManager",
        "label": "__gap",
        "offset": 0,
        "slot": "51",
        "type": "t_array(t_uint256)50_storage"
      },
      {
        "astId": 2142,
        "contract": "contracts/FundsManager.sol:FundsManager",
        "label": "_roles",
        "offset": 0,
        "slot": "101",
        "type": "t_mapping(t_bytes32,t_struct(RoleData)2137_storage)"
      },
      {
        "astId": 2427,
        "contract": "contracts/FundsManager.sol:FundsManager",
        "label": "__gap",
        "offset": 0,
        "slot": "102",
        "type": "t_array(t_uint256)49_storage"
      },
      {
        "astId": 2898,
        "contract": "contracts/FundsManager.sol:FundsManager",
        "label": "__gap",
        "offset": 0,
        "slot": "151",
        "type": "t_array(t_uint256)50_storage"
      },
      {
        "astId": 3065,
        "contract": "contracts/FundsManager.sol:FundsManager",
        "label": "__gap",
        "offset": 0,
        "slot": "201",
        "type": "t_array(t_uint256)50_storage"
      },
      {
        "astId": 6133,
        "contract": "contracts/FundsManager.sol:FundsManager",
        "label": "protocol",
        "offset": 0,
        "slot": "251",
        "type": "t_contract(ProtocolParameters)6901"
      },
      {
        "astId": 6136,
        "contract": "contracts/FundsManager.sol:FundsManager",
        "label": "revenueOracle",
        "offset": 0,
        "slot": "252",
        "type": "t_address"
      },
      {
        "astId": 6142,
        "contract": "contracts/FundsManager.sol:FundsManager",
        "label": "withdrawableFundsBySong",
        "offset": 0,
        "slot": "253",
        "type": "t_mapping(t_address,t_struct(WithdrawableFunds)6267_storage)"
      }
    ],
    "types": {
      "t_address": {
        "encoding": "inplace",
        "label": "address",
        "numberOfBytes": "20"
      },
      "t_array(t_uint256)49_storage": {
        "base": "t_uint256",
        "encoding": "inplace",
        "label": "uint256[49]",
        "numberOfBytes": "1568"
      },
      "t_array(t_uint256)50_storage": {
        "base": "t_uint256",
        "encoding": "inplace",
        "label": "uint256[50]",
        "numberOfBytes": "1600"
      },
      "t_bool": {
        "encoding": "inplace",
        "label": "bool",
        "numberOfBytes": "1"
      },
      "t_bytes32": {
        "encoding": "inplace",
        "label": "bytes32",
        "numberOfBytes": "32"
      },
      "t_contract(ProtocolParameters)6901": {
        "encoding": "inplace",
        "label": "contract ProtocolParameters",
        "numberOfBytes": "20"
      },
      "t_mapping(t_address,t_bool)": {
        "encoding": "mapping",
        "key": "t_address",
        "label": "mapping(address => bool)",
        "numberOfBytes": "32",
        "value": "t_bool"
      },
      "t_mapping(t_address,t_struct(WithdrawableFunds)6267_storage)": {
        "encoding": "mapping",
        "key": "t_address",
        "label": "mapping(address => struct WithdrawableFunds)",
        "numberOfBytes": "32",
        "value": "t_struct(WithdrawableFunds)6267_storage"
      },
      "t_mapping(t_bytes32,t_struct(RoleData)2137_storage)": {
        "encoding": "mapping",
        "key": "t_bytes32",
        "label": "mapping(bytes32 => struct AccessControlUpgradeable.RoleData)",
        "numberOfBytes": "32",
        "value": "t_struct(RoleData)2137_storage"
      },
      "t_struct(RoleData)2137_storage": {
        "encoding": "inplace",
        "label": "struct AccessControlUpgradeable.RoleData",
        "members": [
          {
            "astId": 2134,
            "contract": "contracts/FundsManager.sol:FundsManager",
            "label": "members",
            "offset": 0,
            "slot": "0",
            "type": "t_mapping(t_address,t_bool)"
          },
          {
            "astId": 2136,
            "contract": "contracts/FundsManager.sol:FundsManager",
            "label": "adminRole",
            "offset": 0,
            "slot": "1",
            "type": "t_bytes32"
          }
        ],
        "numberOfBytes": "64"
      },
      "t_struct(WithdrawableFunds)6267_storage": {
        "encoding": "inplace",
        "label": "struct WithdrawableFunds",
        "members": [
          {
            "astId": 6264,
            "contract": "contracts/FundsManager.sol:FundsManager",
            "label": "forArtist",
            "offset": 0,
            "slot": "0",
            "type": "t_uint256"
          },
          {
            "astId": 6266,
            "contract": "contracts/FundsManager.sol:FundsManager",
            "label": "forPositions",
            "offset": 0,
            "slot": "1",
            "type": "t_uint256"
          }
        ],
        "numberOfBytes": "64"
      },
      "t_uint256": {
        "encoding": "inplace",
        "label": "uint256",
        "numberOfBytes": "32"
      }
    }
  }
}