{
  "_format": "hh-sol-artifact-1",
  "contractName": "MerchandisingManager",
  "sourceName": "contracts/MerchandisingManager.sol",
  "abi": [
    {
      "inputs": [
        {
          "internalType": "address",
          "name": "merchandisingBeacon_",
          "type": "address"
        },
        {
          "internalType": "string",
          "name": "name_",
          "type": "string"
        },
        {
          "internalType": "string",
          "name": "version_",
          "type": "string"
        }
      ],
      "stateMutability": "nonpayable",
      "type": "constructor"
    },
    {
      "anonymous": false,
      "inputs": [
        {
          "indexed": false,
          "internalType": "address",
          "name": "previousAdmin",
          "type": "address"
        },
        {
          "indexed": false,
          "internalType": "address",
          "name": "newAdmin",
          "type": "address"
        }
      ],
      "name": "AdminChanged",
      "type": "event"
    },
    {
      "anonymous": false,
      "inputs": [
        {
          "indexed": true,
          "internalType": "address",
          "name": "beacon",
          "type": "address"
        }
      ],
      "name": "BeaconUpgraded",
      "type": "event"
    },
    {
      "anonymous": false,
      "inputs": [
        {
          "indexed": true,
          "internalType": "address",
          "name": "collection",
          "type": "address"
        }
      ],
      "name": "BlacklistCollection",
      "type": "event"
    },
    {
      "anonymous": false,
      "inputs": [
        {
          "indexed": true,
          "internalType": "address",
          "name": "token",
          "type": "address"
        }
      ],
      "name": "BlacklistERC20",
      "type": "event"
    },
    {
      "anonymous": false,
      "inputs": [
        {
          "indexed": true,
          "internalType": "uint256",
          "name": "mintedTokenId",
          "type": "uint256"
        },
        {
          "indexed": false,
          "internalType": "address",
          "name": "collection",
          "type": "address"
        },
        {
          "indexed": false,
          "internalType": "uint256",
          "name": "tokenId",
          "type": "uint256"
        },
        {
          "indexed": false,
          "internalType": "address",
          "name": "claimer",
          "type": "address"
        }
      ],
      "name": "MerchandiseClaimed",
      "type": "event"
    },
    {
      "anonymous": false,
      "inputs": [
        {
          "indexed": false,
          "internalType": "address",
          "name": "collection",
          "type": "address"
        },
        {
          "indexed": true,
          "internalType": "address",
          "name": "artist",
          "type": "address"
        }
      ],
      "name": "MerchandisingCollectionRegistered",
      "type": "event"
    },
    {
      "anonymous": false,
      "inputs": [
        {
          "indexed": true,
          "internalType": "address",
          "name": "collection",
          "type": "address"
        },
        {
          "indexed": false,
          "internalType": "uint256[]",
          "name": "merchIds",
          "type": "uint256[]"
        },
        {
          "indexed": false,
          "internalType": "string[]",
          "name": "uris",
          "type": "string[]"
        },
        {
          "indexed": false,
          "internalType": "bytes32[]",
          "name": "merkleRoots",
          "type": "bytes32[]"
        }
      ],
      "name": "MerchandisingToClaimRegistered",
      "type": "event"
    },
    {
      "anonymous": false,
      "inputs": [
        {
          "indexed": true,
          "internalType": "address",
          "name": "collection",
          "type": "address"
        },
        {
          "indexed": false,
          "internalType": "uint256[]",
          "name": "merchIds",
          "type": "uint256[]"
        },
        {
          "indexed": false,
          "internalType": "string[]",
          "name": "uris",
          "type": "string[]"
        },
        {
          "indexed": false,
          "internalType": "uint256[]",
          "name": "prices",
          "type": "uint256[]"
        }
      ],
      "name": "MerchandisingToSellRegistered",
      "type": "event"
    },
    {
      "anonymous": false,
      "inputs": [
        {
          "indexed": false,
          "internalType": "uint256[]",
          "name": "merchIds",
          "type": "uint256[]"
        },
        {
          "indexed": false,
          "internalType": "uint256[]",
          "name": "newTotalSupply",
          "type": "uint256[]"
        }
      ],
      "name": "MerchandisingTotalSupplyIncreased",
      "type": "event"
    },
    {
      "anonymous": false,
      "inputs": [
        {
          "indexed": false,
          "internalType": "uint256",
          "name": "merchId",
          "type": "uint256"
        },
        {
          "indexed": false,
          "internalType": "bytes32",
          "name": "merkleRoot",
          "type": "bytes32"
        },
        {
          "indexed": false,
          "internalType": "string",
          "name": "merkleTreeURI",
          "type": "string"
        }
      ],
      "name": "MerkleRootUpdated",
      "type": "event"
    },
    {
      "anonymous": false,
      "inputs": [
        {
          "indexed": true,
          "internalType": "bytes32",
          "name": "role",
          "type": "bytes32"
        },
        {
          "indexed": true,
          "internalType": "bytes32",
          "name": "previousAdminRole",
          "type": "bytes32"
        },
        {
          "indexed": true,
          "internalType": "bytes32",
          "name": "newAdminRole",
          "type": "bytes32"
        }
      ],
      "name": "RoleAdminChanged",
      "type": "event"
    },
    {
      "anonymous": false,
      "inputs": [
        {
          "indexed": true,
          "internalType": "bytes32",
          "name": "role",
          "type": "bytes32"
        },
        {
          "indexed": true,
          "internalType": "address",
          "name": "account",
          "type": "address"
        },
        {
          "indexed": true,
          "internalType": "address",
          "name": "sender",
          "type": "address"
        }
      ],
      "name": "RoleGranted",
      "type": "event"
    },
    {
      "anonymous": false,
      "inputs": [
        {
          "indexed": true,
          "internalType": "bytes32",
          "name": "role",
          "type": "bytes32"
        },
        {
          "indexed": true,
          "internalType": "address",
          "name": "account",
          "type": "address"
        },
        {
          "indexed": true,
          "internalType": "address",
          "name": "sender",
          "type": "address"
        }
      ],
      "name": "RoleRevoked",
      "type": "event"
    },
    {
      "anonymous": false,
      "inputs": [
        {
          "indexed": true,
          "internalType": "address",
          "name": "implementation",
          "type": "address"
        }
      ],
      "name": "Upgraded",
      "type": "event"
    },
    {
      "anonymous": false,
      "inputs": [
        {
          "indexed": true,
          "internalType": "address",
          "name": "collection",
          "type": "address"
        }
      ],
      "name": "WhitelistCollection",
      "type": "event"
    },
    {
      "anonymous": false,
      "inputs": [
        {
          "indexed": true,
          "internalType": "address",
          "name": "token",
          "type": "address"
        }
      ],
      "name": "WhitelistERC20",
      "type": "event"
    },
    {
      "inputs": [],
      "name": "ADMIN_ROLE",
      "outputs": [
        {
          "internalType": "bytes32",
          "name": "",
          "type": "bytes32"
        }
      ],
      "stateMutability": "view",
      "type": "function"
    },
    {
      "inputs": [],
      "name": "DEFAULT_ADMIN_ROLE",
      "outputs": [
        {
          "internalType": "bytes32",
          "name": "",
          "type": "bytes32"
        }
      ],
      "stateMutability": "view",
      "type": "function"
    },
    {
      "inputs": [],
      "name": "UPGRADER_ROLE",
      "outputs": [
        {
          "internalType": "bytes32",
          "name": "",
          "type": "bytes32"
        }
      ],
      "stateMutability": "view",
      "type": "function"
    },
    {
      "inputs": [],
      "name": "approvedSigner",
      "outputs": [
        {
          "internalType": "address",
          "name": "",
          "type": "address"
        }
      ],
      "stateMutability": "view",
      "type": "function"
    },
    {
      "inputs": [
        {
          "internalType": "address",
          "name": "token_",
          "type": "address"
        }
      ],
      "name": "blacklistCollection",
      "outputs": [],
      "stateMutability": "nonpayable",
      "type": "function"
    },
    {
      "inputs": [
        {
          "internalType": "address",
          "name": "token_",
          "type": "address"
        }
      ],
      "name": "blacklistERC20Token",
      "outputs": [],
      "stateMutability": "nonpayable",
      "type": "function"
    },
    {
      "inputs": [
        {
          "internalType": "address",
          "name": "artist_",
          "type": "address"
        },
        {
          "internalType": "uint256[]",
          "name": "merchIds_",
          "type": "uint256[]"
        },
        {
          "internalType": "uint256[]",
          "name": "amounts_",
          "type": "uint256[]"
        }
      ],
      "name": "buyMerchandising",
      "outputs": [],
      "stateMutability": "nonpayable",
      "type": "function"
    },
    {
      "inputs": [
        {
          "internalType": "address",
          "name": "artist_",
          "type": "address"
        },
        {
          "internalType": "uint256",
          "name": "merchId_",
          "type": "uint256"
        },
        {
          "internalType": "address",
          "name": "collection_",
          "type": "address"
        },
        {
          "internalType": "uint256",
          "name": "tokenId_",
          "type": "uint256"
        },
        {
          "internalType": "bytes32[]",
          "name": "merklePath_",
          "type": "bytes32[]"
        }
      ],
      "name": "claimMerchandise",
      "outputs": [],
      "stateMutability": "nonpayable",
      "type": "function"
    },
    {
      "inputs": [
        {
          "internalType": "bytes32",
          "name": "role",
          "type": "bytes32"
        }
      ],
      "name": "getRoleAdmin",
      "outputs": [
        {
          "internalType": "bytes32",
          "name": "",
          "type": "bytes32"
        }
      ],
      "stateMutability": "view",
      "type": "function"
    },
    {
      "inputs": [
        {
          "internalType": "bytes32",
          "name": "role",
          "type": "bytes32"
        },
        {
          "internalType": "address",
          "name": "account",
          "type": "address"
        }
      ],
      "name": "grantRole",
      "outputs": [],
      "stateMutability": "nonpayable",
      "type": "function"
    },
    {
      "inputs": [
        {
          "internalType": "bytes32",
          "name": "role",
          "type": "bytes32"
        },
        {
          "internalType": "address",
          "name": "account",
          "type": "address"
        }
      ],
      "name": "hasRole",
      "outputs": [
        {
          "internalType": "bool",
          "name": "",
          "type": "bool"
        }
      ],
      "stateMutability": "view",
      "type": "function"
    },
    {
      "inputs": [
        {
          "internalType": "uint256[]",
          "name": "merchIds_",
          "type": "uint256[]"
        },
        {
          "internalType": "uint256[]",
          "name": "newTotalSupply_",
          "type": "uint256[]"
        }
      ],
      "name": "increaseMerchandisingTotalSupply",
      "outputs": [],
      "stateMutability": "nonpayable",
      "type": "function"
    },
    {
      "inputs": [
        {
          "internalType": "address",
          "name": "approvedSigner_",
          "type": "address"
        }
      ],
      "name": "initialize",
      "outputs": [],
      "stateMutability": "nonpayable",
      "type": "function"
    },
    {
      "inputs": [],
      "name": "proxiableUUID",
      "outputs": [
        {
          "internalType": "bytes32",
          "name": "",
          "type": "bytes32"
        }
      ],
      "stateMutability": "view",
      "type": "function"
    },
    {
      "inputs": [
        {
          "internalType": "string[]",
          "name": "uris_",
          "type": "string[]"
        },
        {
          "internalType": "bytes32[]",
          "name": "merkleRoots_",
          "type": "bytes32[]"
        },
        {
          "internalType": "string[]",
          "name": "merkleTreeURIs_",
          "type": "string[]"
        }
      ],
      "name": "registerMerchandisingToClaim",
      "outputs": [],
      "stateMutability": "nonpayable",
      "type": "function"
    },
    {
      "inputs": [
        {
          "internalType": "string[]",
          "name": "uris_",
          "type": "string[]"
        },
        {
          "internalType": "uint256[]",
          "name": "prices_",
          "type": "uint256[]"
        },
        {
          "internalType": "uint256[]",
          "name": "totalSupplies_",
          "type": "uint256[]"
        }
      ],
      "name": "registerMerchandisingToSell",
      "outputs": [],
      "stateMutability": "nonpayable",
      "type": "function"
    },
    {
      "inputs": [
        {
          "internalType": "uint8",
          "name": "v_",
          "type": "uint8"
        },
        {
          "internalType": "bytes32",
          "name": "r_",
          "type": "bytes32"
        },
        {
          "internalType": "bytes32",
          "name": "s_",
          "type": "bytes32"
        },
        {
          "components": [
            {
              "internalType": "string",
              "name": "collectionName",
              "type": "string"
            },
            {
              "internalType": "string",
              "name": "collectionSymbol",
              "type": "string"
            },
            {
              "internalType": "string",
              "name": "metadataURI",
              "type": "string"
            },
            {
              "internalType": "address",
              "name": "fundingToken",
              "type": "address"
            }
          ],
          "internalType": "struct CollectionDefinition",
          "name": "definition_",
          "type": "tuple"
        },
        {
          "internalType": "string[]",
          "name": "uris_",
          "type": "string[]"
        },
        {
          "internalType": "bytes32[]",
          "name": "merkleRoots_",
          "type": "bytes32[]"
        },
        {
          "internalType": "string[]",
          "name": "merkleTreeURIs_",
          "type": "string[]"
        },
        {
          "internalType": "uint64",
          "name": "deadline_",
          "type": "uint64"
        }
      ],
      "name": "registerNewMerchandisingToClaim",
      "outputs": [],
      "stateMutability": "nonpayable",
      "type": "function"
    },
    {
      "inputs": [
        {
          "internalType": "uint8",
          "name": "v_",
          "type": "uint8"
        },
        {
          "internalType": "bytes32",
          "name": "r_",
          "type": "bytes32"
        },
        {
          "internalType": "bytes32",
          "name": "s_",
          "type": "bytes32"
        },
        {
          "components": [
            {
              "internalType": "string",
              "name": "collectionName",
              "type": "string"
            },
            {
              "internalType": "string",
              "name": "collectionSymbol",
              "type": "string"
            },
            {
              "internalType": "string",
              "name": "metadataURI",
              "type": "string"
            },
            {
              "internalType": "address",
              "name": "fundingToken",
              "type": "address"
            }
          ],
          "internalType": "struct CollectionDefinition",
          "name": "definition_",
          "type": "tuple"
        },
        {
          "internalType": "string[]",
          "name": "uris_",
          "type": "string[]"
        },
        {
          "internalType": "uint256[]",
          "name": "prices_",
          "type": "uint256[]"
        },
        {
          "internalType": "uint256[]",
          "name": "totalSupplies_",
          "type": "uint256[]"
        },
        {
          "internalType": "uint64",
          "name": "deadline_",
          "type": "uint64"
        }
      ],
      "name": "registerNewMerchandisingToSell",
      "outputs": [],
      "stateMutability": "nonpayable",
      "type": "function"
    },
    {
      "inputs": [
        {
          "internalType": "address",
          "name": "",
          "type": "address"
        }
      ],
      "name": "registeredCollectionPerAccount",
      "outputs": [
        {
          "internalType": "address",
          "name": "",
          "type": "address"
        }
      ],
      "stateMutability": "view",
      "type": "function"
    },
    {
      "inputs": [
        {
          "internalType": "bytes32",
          "name": "role",
          "type": "bytes32"
        },
        {
          "internalType": "address",
          "name": "account",
          "type": "address"
        }
      ],
      "name": "renounceRole",
      "outputs": [],
      "stateMutability": "nonpayable",
      "type": "function"
    },
    {
      "inputs": [
        {
          "internalType": "bytes32",
          "name": "role",
          "type": "bytes32"
        },
        {
          "internalType": "address",
          "name": "account",
          "type": "address"
        }
      ],
      "name": "revokeRole",
      "outputs": [],
      "stateMutability": "nonpayable",
      "type": "function"
    },
    {
      "inputs": [
        {
          "internalType": "bytes4",
          "name": "interfaceId",
          "type": "bytes4"
        }
      ],
      "name": "supportsInterface",
      "outputs": [
        {
          "internalType": "bool",
          "name": "",
          "type": "bool"
        }
      ],
      "stateMutability": "view",
      "type": "function"
    },
    {
      "inputs": [
        {
          "internalType": "address",
          "name": "approvedSigner_",
          "type": "address"
        }
      ],
      "name": "updateApprovedSigner",
      "outputs": [],
      "stateMutability": "nonpayable",
      "type": "function"
    },
    {
      "inputs": [
        {
          "internalType": "uint256",
          "name": "merchId_",
          "type": "uint256"
        },
        {
          "internalType": "bytes32",
          "name": "merkleRoot_",
          "type": "bytes32"
        },
        {
          "internalType": "string",
          "name": "merkleTreeURI_",
          "type": "string"
        }
      ],
      "name": "updateMerkleRoot",
      "outputs": [],
      "stateMutability": "nonpayable",
      "type": "function"
    },
    {
      "inputs": [
        {
          "internalType": "address",
          "name": "newImplementation",
          "type": "address"
        }
      ],
      "name": "upgradeTo",
      "outputs": [],
      "stateMutability": "nonpayable",
      "type": "function"
    },
    {
      "inputs": [
        {
          "internalType": "address",
          "name": "newImplementation",
          "type": "address"
        },
        {
          "internalType": "bytes",
          "name": "data",
          "type": "bytes"
        }
      ],
      "name": "upgradeToAndCall",
      "outputs": [],
      "stateMutability": "payable",
      "type": "function"
    },
    {
      "inputs": [
        {
          "internalType": "uint8",
          "name": "v_",
          "type": "uint8"
        },
        {
          "internalType": "bytes32",
          "name": "r_",
          "type": "bytes32"
        },
        {
          "internalType": "bytes32",
          "name": "s_",
          "type": "bytes32"
        },
        {
          "internalType": "uint64",
          "name": "deadline_",
          "type": "uint64"
        },
        {
          "internalType": "address",
          "name": "account_",
          "type": "address"
        }
      ],
      "name": "verify",
      "outputs": [
        {
          "internalType": "bool",
          "name": "",
          "type": "bool"
        }
      ],
      "stateMutability": "view",
      "type": "function"
    },
    {
      "inputs": [
        {
          "internalType": "address",
          "name": "token_",
          "type": "address"
        }
      ],
      "name": "whitelistCollection",
      "outputs": [],
      "stateMutability": "nonpayable",
      "type": "function"
    },
    {
      "inputs": [
        {
          "internalType": "address",
          "name": "token_",
          "type": "address"
        }
      ],
      "name": "whitelistERC20Token",
      "outputs": [],
      "stateMutability": "nonpayable",
      "type": "function"
    },
    {
      "inputs": [
        {
          "internalType": "address",
          "name": "",
          "type": "address"
        }
      ],
      "name": "whitelistedCollections",
      "outputs": [
        {
          "internalType": "bool",
          "name": "",
          "type": "bool"
        }
      ],
      "stateMutability": "view",
      "type": "function"
    },
    {
      "inputs": [
        {
          "internalType": "address",
          "name": "",
          "type": "address"
        }
      ],
      "name": "whitelistedERC20Tokens",
      "outputs": [
        {
          "internalType": "bool",
          "name": "",
          "type": "bool"
        }
      ],
      "stateMutability": "view",
      "type": "function"
    }
  ],
  "bytecode": "0x610100604052306080523480156200001657600080fd5b5060405162003fad38038062003fad833981016040819052620000399162000226565b815160208084019190912060a05281519082012060c052600054610100900460ff166200006d5760005460ff161562000077565b620000776200012c565b620000df5760405162461bcd60e51b815260206004820152602e60248201527f496e697469616c697a61626c653a20636f6e747261637420697320616c72656160448201526d191e481a5b9a5d1a585b1a5e995960921b606482015260840160405180910390fd5b600054610100900460ff1615801562000102576000805461ffff19166101011790555b6001600160a01b03841660e052801562000122576000805461ff00191690555b50505050620002b0565b600062000144306200014a60201b620014081760201c565b15905090565b6001600160a01b03163b151590565b634e487b7160e01b600052604160045260246000fd5b600082601f8301126200018157600080fd5b81516001600160401b03808211156200019e576200019e62000159565b604051601f8301601f19908116603f01168101908282118183101715620001c957620001c962000159565b81604052838152602092508683858801011115620001e657600080fd5b600091505b838210156200020a5785820183015181830184015290820190620001eb565b838211156200021c5760008385830101525b9695505050505050565b6000806000606084860312156200023c57600080fd5b83516001600160a01b03811681146200025457600080fd5b60208501519093506001600160401b03808211156200027257600080fd5b62000280878388016200016f565b935060408601519150808211156200029757600080fd5b50620002a6868287016200016f565b9150509250925092565b60805160a05160c05160e051613ca762000306600039600061158e01526000611a4d01526000611a28015260008181610b9001528181610bd301528181610cca01528181610d0d0152610da50152613ca76000f3fe608060405260043610620001fe5760003560e01c8063685985a01162000117578063c10aaf2611620000a1578063d547741f116200006c578063d547741f1462000632578063da20545e1462000657578063e32c7506146200068b578063f72c0d8b14620006b057600080fd5b8063c10aaf2614620005a0578063c4d66de814620005c5578063ccf18a0e14620005ea578063d082fe17146200060f57600080fd5b806396c429b811620000e257806396c429b8146200051a5780639d5a1910146200053f578063a217fddf1462000564578063b75cd974146200057b57600080fd5b8063685985a0146200045757806375b238fc14620004ab5780637ed58acf14620004d057806391d1485414620004f557600080fd5b80632f2ff15d116200019957806346daaefb116200016457806346daaefb14620003cf5780634f05cbd814620003f45780634f1ef286146200042857806352d1902d146200043f57600080fd5b80632f2ff15d146200033b57806336568abe14620003605780633659cfe614620003855780633aba9f3114620003aa57600080fd5b80632223d4cf11620001da5780632223d4cf1462000289578063248a9ca314620002ae57806327ab0ba114620002f15780632ecb32a0146200031657600080fd5b806239fbab146200020357806301ffc9a7146200022a5780631af7d9491462000264575b600080fd5b3480156200021057600080fd5b506200022862000222366004620024cd565b620006d5565b005b3480156200023757600080fd5b506200024f620002493660046200255e565b620007f5565b60405190151581526020015b60405180910390f35b3480156200027157600080fd5b5062000228620002833660046200258a565b6200082d565b3480156200029657600080fd5b5062000228620002a836600462002656565b62000915565b348015620002bb57600080fd5b50620002e2620002cd36600462002748565b600090815260c9602052604090206001015490565b6040519081526020016200025b565b348015620002fe57600080fd5b5062000228620003103660046200277a565b6200098a565b3480156200032357600080fd5b50620002286200033536600462002798565b620009ca565b3480156200034857600080fd5b50620002286200035a3660046200281f565b62000ad4565b3480156200036d57600080fd5b50620002286200037f3660046200281f565b62000b03565b3480156200039257600080fd5b5062000228620003a43660046200277a565b62000b85565b348015620003b757600080fd5b5062000228620003c93660046200277a565b62000c71565b348015620003dc57600080fd5b5062000228620003ee3660046200277a565b62000c98565b3480156200040157600080fd5b506200024f620004133660046200277a565b60fb6020526000908152604090205460ff1681565b62000228620004393660046200284e565b62000cbf565b3480156200044c57600080fd5b50620002e262000d98565b3480156200046457600080fd5b5062000492620004763660046200277a565b610130602052600090815260409020546001600160a01b031681565b6040516001600160a01b0390911681526020016200025b565b348015620004b857600080fd5b50620002e260008051602062003c5283398151915281565b348015620004dd57600080fd5b5062000228620004ef366004620028b6565b62000e4e565b3480156200050257600080fd5b506200024f620005143660046200281f565b62000eb9565b3480156200052757600080fd5b506200024f6200053936600462002988565b62000ee4565b3480156200054c57600080fd5b50620002286200055e36600462002a34565b62000fae565b3480156200057157600080fd5b50620002e2600081565b3480156200058857600080fd5b50620002286200059a3660046200277a565b620010d2565b348015620005ad57600080fd5b5062000228620005bf3660046200277a565b620010f9565b348015620005d257600080fd5b5062000228620005e43660046200277a565b62001120565b348015620005f757600080fd5b50620002286200060936600462002ab3565b62001252565b3480156200061c57600080fd5b5061012f5462000492906001600160a01b031681565b3480156200063f57600080fd5b5062000228620006513660046200281f565b62001300565b3480156200066457600080fd5b506200024f620006763660046200277a565b60fc6020526000908152604090205460ff1681565b3480156200069857600080fd5b5062000228620006aa36600462002b3c565b6200132a565b348015620006bd57600080fd5b50620002e260008051602062003beb83398151915281565b33600090815261013060205260409020546001600160a01b031680620007185760405162461bcd60e51b81526004016200070f9062002b9c565b60405180910390fd5b6040516239fbab60e01b81526000906001600160a01b038316906239fbab906200074b9088908890889060040162002cc6565b600060405180830381600087803b1580156200076657600080fd5b505af11580156200077b573d6000803e3d6000fd5b505050506040513d6000823e601f3d908101601f19168201604052620007a5919081019062002d0f565b9050816001600160a01b03167ff068c024cc80476f0f5d32e22a020fc6f2a383019a4c26dbd9f082b2ae9eefcc828787604051620007e69392919062002da8565b60405180910390a25050505050565b60006001600160e01b03198216637965db0b60e01b14806200082757506301ffc9a760e01b6001600160e01b03198316145b92915050565b33600090815261013060205260409020546001600160a01b031680620008675760405162461bcd60e51b81526004016200070f9062002b9c565b604051631af7d94960e01b81526001600160a01b03821690631af7d949906200089b90889088908890889060040162002dfa565b600060405180830381600087803b158015620008b657600080fd5b505af1158015620008cb573d6000803e3d6000fd5b505050507f56c1adfff26a5af3a301413ba491982deeac598cb473302b9dafdc9dad737b948585858560405162000906949392919062002dfa565b60405180910390a15050505050565b62000924888888843362000ee4565b620009665760405162461bcd60e51b8152602060048201526011602482015270496e76616c6964207369676e617475726560781b60448201526064016200070f565b62000972853362001417565b5062000980848484620006d5565b5050505050505050565b60008051602062003beb833981519152620009a6813362001652565b5061012f80546001600160a01b0319166001600160a01b0392909216919091179055565b33600090815261013060205260409020546001600160a01b03168062000a045760405162461bcd60e51b81526004016200070f9062002b9c565b604051630176599560e51b81526000906001600160a01b03831690632ecb32a09062000a399088908890889060040162002e1c565b600060405180830381600087803b15801562000a5457600080fd5b505af115801562000a69573d6000803e3d6000fd5b505050506040513d6000823e601f3d908101601f1916820160405262000a93919081019062002d0f565b9050816001600160a01b03167f0e19f3ddafbf99496c4dedb4273da669b5eff2b34baf8c2cc4ef534c081e108c828787604051620007e69392919062002da8565b600082815260c9602052604090206001015462000af2813362001652565b62000afe8383620016c1565b505050565b6001600160a01b038116331462000b755760405162461bcd60e51b815260206004820152602f60248201527f416363657373436f6e74726f6c3a2063616e206f6e6c792072656e6f756e636560448201526e103937b632b9903337b91039b2b63360891b60648201526084016200070f565b62000b8182826200174b565b5050565b306001600160a01b037f000000000000000000000000000000000000000000000000000000000000000016141562000bd15760405162461bcd60e51b81526004016200070f9062002e5b565b7f00000000000000000000000000000000000000000000000000000000000000006001600160a01b031662000c1c60008051602062003c0b833981519152546001600160a01b031690565b6001600160a01b03161462000c455760405162461bcd60e51b81526004016200070f9062002ea7565b62000c5081620017b5565b6040805160008082526020820190925262000c6e91839190620017d1565b50565b60008051602062003c5283398151915262000c8d813362001652565b62000b818262001959565b60008051602062003c5283398151915262000cb4813362001652565b62000b8182620019a2565b306001600160a01b037f000000000000000000000000000000000000000000000000000000000000000016141562000d0b5760405162461bcd60e51b81526004016200070f9062002e5b565b7f00000000000000000000000000000000000000000000000000000000000000006001600160a01b031662000d5660008051602062003c0b833981519152546001600160a01b031690565b6001600160a01b03161462000d7f5760405162461bcd60e51b81526004016200070f9062002ea7565b62000d8a82620017b5565b62000b8182826001620017d1565b6000306001600160a01b037f0000000000000000000000000000000000000000000000000000000000000000161462000e3a5760405162461bcd60e51b815260206004820152603860248201527f555550535570677261646561626c653a206d757374206e6f742062652063616c60448201527f6c6564207468726f7567682064656c656761746563616c6c000000000000000060648201526084016200070f565b5060008051602062003c0b83398151915290565b62000e5d888888843362000ee4565b62000e9f5760405162461bcd60e51b8152602060048201526011602482015270496e76616c6964207369676e617475726560781b60448201526064016200070f565b62000eab853362001417565b5062000980848484620009ca565b600091825260c9602090815260408084206001600160a01b0393909316845291905290205460ff1690565b6000826001600160401b031642111562000f355760405162461bcd60e51b815260206004820152601160248201527045787069726564207369676e617475726560781b60448201526064016200070f565b604080516001600160a01b0384166020808301919091526001600160401b0386168284015282518083038401815260609092019092528051910120600062000f7d82620019ee565b9050600062000f8f828a8a8a62001adc565b61012f546001600160a01b039081169116149998505050505050505050565b6001600160a01b0380871660009081526101306020526040902054168062000fea5760405162461bcd60e51b81526004016200070f9062002b9c565b6040516307fd2cb760e21b81526000906001600160a01b03831690631ff4b2dc9062001025908a908a908a908a908a90339060040162002f2a565b602060405180830381600087803b1580156200104057600080fd5b505af115801562001055573d6000803e3d6000fd5b505050506040513d601f19601f820116820180604052508101906200107b919062002f71565b604080516001600160a01b0389168152602081018890523381830152905191925082917f2d83d35ba8675719057c0662129a58f3c2a9ff72beeca124b8afb95621244e609181900360600190a25050505050505050565b60008051602062003c52833981519152620010ee813362001652565b62000b818262001b08565b60008051602062003c5283398151915262001115813362001652565b62000b818262001b51565b600054610100900460ff166200113d5760005460ff161562001141565b303b155b620011a65760405162461bcd60e51b815260206004820152602e60248201527f496e697469616c697a61626c653a20636f6e747261637420697320616c72656160448201526d191e481a5b9a5d1a585b1a5e995960921b60648201526084016200070f565b600054610100900460ff16158015620011c9576000805461ffff19166101011790555b61012f80546001600160a01b0319166001600160a01b038416179055620011ef62001b9d565b620011f962001b9d565b62001206600033620016c1565b6200122160008051602062003beb83398151915233620016c1565b6200123c60008051602062003c5283398151915233620016c1565b801562000b81576000805461ff00191690555050565b6001600160a01b038086166000908152610130602052604090205416806200128e5760405162461bcd60e51b81526004016200070f9062002b9c565b6040516312b3abe560e31b81526001600160a01b0382169063959d5f2890620012c4908890889088908890339060040162002f8b565b600060405180830381600087803b158015620012df57600080fd5b505af1158015620012f4573d6000803e3d6000fd5b50505050505050505050565b600082815260c960205260409020600101546200131e813362001652565b62000afe83836200174b565b33600090815261013060205260409020546001600160a01b031680620013645760405162461bcd60e51b81526004016200070f9062002b9c565b6040516371963a8360e11b81526001600160a01b0382169063e32c75069062001394908690869060040162002fd1565b600060405180830381600087803b158015620013af57600080fd5b505af1158015620013c4573d6000803e3d6000fd5b505050507f670d84fbd76b558e1d6928c1e68c93ddb7d565c24ab578b18ed2e46a0e3c7deb8383604051620013fb92919062002fd1565b60405180910390a1505050565b6001600160a01b03163b151590565b33600090815261013060205260408120546001600160a01b031615620014805760405162461bcd60e51b815260206004820152601f60248201527f4f6e6c79206f6e6520636f6c6c656374696f6e20706572206163636f756e740060448201526064016200070f565b60fc60006200149660808601606087016200277a565b6001600160a01b0316815260208101919091526040016000205460ff16620015015760405162461bcd60e51b815260206004820152601a60248201527f4e6f6e2d617070726f7665642066756e64696e6720746f6b656e00000000000060448201526064016200070f565b600062001512604085018562002ffa565b6200151e868062002ffa565b6200152d602089018962002ffa565b6000808a6200154360808e0160608f016200277a565b6040516024016200155e9a9998979695949392919062003043565b60408051601f198184030181529181526020820180516001600160e01b0316633951970560e01b179052519091507f0000000000000000000000000000000000000000000000000000000000000000908290620015bb90620022e1565b620015c8929190620030c0565b604051809103906000f080158015620015e5573d6000803e3d6000fd5b50336000818152610130602090815260409182902080546001600160a01b0319166001600160a01b038616908117909155915191825292945090917f44876deedacde94a7679c8bf198e4a5160220ac5d8191383ac5372fc92bfd02e910160405180910390a25092915050565b6200165e828262000eb9565b62000b815762001679816001600160a01b0316601462001c0c565b6200168683602062001c0c565b60405160200162001699929190620030ee565b60408051601f198184030181529082905262461bcd60e51b82526200070f9160040162003167565b620016cd828262000eb9565b62000b8157600082815260c9602090815260408083206001600160a01b03851684529091529020805460ff19166001179055620017073390565b6001600160a01b0316816001600160a01b0316837f2f8788117e7eff1d82e926ec794901d17c78024a50270940304540a733656f0d60405160405180910390a45050565b62001757828262000eb9565b1562000b8157600082815260c9602090815260408083206001600160a01b0385168085529252808320805460ff1916905551339285917ff6391f5c32d9c69d2a47ea670b442974b53935d1edc7fd64eb21e047a839171b9190a45050565b60008051602062003beb83398151915262000b81813362001652565b7f4910fdfa16fed3260ed0e7147f7cc6da11a60208b5b9406d12a635614ffd91435460ff1615620018075762000afe8362001dcc565b826001600160a01b03166352d1902d6040518163ffffffff1660e01b815260040160206040518083038186803b1580156200184157600080fd5b505afa92505050801562001874575060408051601f3d908101601f19168201909252620018719181019062002f71565b60015b620018d95760405162461bcd60e51b815260206004820152602e60248201527f45524331393637557067726164653a206e657720696d706c656d656e7461746960448201526d6f6e206973206e6f74205555505360901b60648201526084016200070f565b60008051602062003c0b83398151915281146200194b5760405162461bcd60e51b815260206004820152602960248201527f45524331393637557067726164653a20756e737570706f727465642070726f786044820152681a58589b195555525160ba1b60648201526084016200070f565b5062000afe83838362001e6b565b6001600160a01b038116600081815260fb6020526040808220805460ff19169055517f1d3bf91c70f10640933cb2c831c8d1cdc91bb23d7968a4a42353cb066b14ba079190a250565b6001600160a01b038116600081815260fc6020526040808220805460ff19166001179055517f2d1bfb1b368884675516f758d91c788a47c95772b6b6d945db3841e19e4ab1fb9190a250565b60006200082762001a9b604080517f8b73c3c69bb8fe3d512ecc4cf759cc79239f7b179b0ffacaa9a75d522b39400f6020808301919091527f0000000000000000000000000000000000000000000000000000000000000000828401527f000000000000000000000000000000000000000000000000000000000000000060608301524660808301523060a0808401919091528351808403909101815260c0909201909252805191012090565b8360405161190160f01b6020820152602281018390526042810182905260009060620160405160208183030381529060405280519060200120905092915050565b600080600062001aef8787878762001e9c565b9150915062001afe8162001f91565b5095945050505050565b6001600160a01b038116600081815260fc6020526040808220805460ff19169055517f59cebafaf463856383e41cc9f95f8e08fe5640dad8fa696cc5b3c5fbbfe3e3e49190a250565b6001600160a01b038116600081815260fb6020526040808220805460ff19166001179055517f965a41d222761fa414b80ad343063d565483742265ceef6fc0f583492d8463009190a250565b600054610100900460ff1662001c0a5760405162461bcd60e51b815260206004820152602b60248201527f496e697469616c697a61626c653a20636f6e7472616374206973206e6f74206960448201526a6e697469616c697a696e6760a81b60648201526084016200070f565b565b6060600062001c1d83600262003192565b62001c2a906002620031b4565b6001600160401b0381111562001c445762001c44620022ef565b6040519080825280601f01601f19166020018201604052801562001c6f576020820181803683370190505b509050600360fc1b8160008151811062001c8d5762001c8d620031cf565b60200101906001600160f81b031916908160001a905350600f60fb1b8160018151811062001cbf5762001cbf620031cf565b60200101906001600160f81b031916908160001a905350600062001ce584600262003192565b62001cf2906001620031b4565b90505b600181111562001d74576f181899199a1a9b1b9c1cb0b131b232b360811b85600f166010811062001d2a5762001d2a620031cf565b1a60f81b82828151811062001d435762001d43620031cf565b60200101906001600160f81b031916908160001a90535060049490941c9362001d6c81620031e5565b905062001cf5565b50831562001dc55760405162461bcd60e51b815260206004820181905260248201527f537472696e67733a20686578206c656e67746820696e73756666696369656e7460448201526064016200070f565b9392505050565b6001600160a01b0381163b62001e3b5760405162461bcd60e51b815260206004820152602d60248201527f455243313936373a206e657720696d706c656d656e746174696f6e206973206e60448201526c1bdd08184818dbdb9d1c9858dd609a1b60648201526084016200070f565b60008051602062003c0b83398151915280546001600160a01b0319166001600160a01b0392909216919091179055565b62001e768362002164565b60008251118062001e845750805b1562000afe5762001e968383620021a6565b50505050565b6000807f7fffffffffffffffffffffffffffffff5d576e7357a4501ddfe92f46681b20a083111562001ed5575060009050600362001f88565b8460ff16601b1415801562001eee57508460ff16601c14155b1562001f01575060009050600462001f88565b6040805160008082526020820180845289905260ff881692820192909252606081018690526080810185905260019060a0016020604051602081039080840390855afa15801562001f56573d6000803e3d6000fd5b5050604051601f1901519150506001600160a01b03811662001f815760006001925092505062001f88565b9150600090505b94509492505050565b600081600481111562001fa85762001fa8620031ff565b141562001fb25750565b600181600481111562001fc95762001fc9620031ff565b1415620020195760405162461bcd60e51b815260206004820152601860248201527f45434453413a20696e76616c6964207369676e6174757265000000000000000060448201526064016200070f565b6002816004811115620020305762002030620031ff565b1415620020805760405162461bcd60e51b815260206004820152601f60248201527f45434453413a20696e76616c6964207369676e6174757265206c656e6774680060448201526064016200070f565b6003816004811115620020975762002097620031ff565b1415620020f25760405162461bcd60e51b815260206004820152602260248201527f45434453413a20696e76616c6964207369676e6174757265202773272076616c604482015261756560f01b60648201526084016200070f565b6004816004811115620021095762002109620031ff565b141562000c6e5760405162461bcd60e51b815260206004820152602260248201527f45434453413a20696e76616c6964207369676e6174757265202776272076616c604482015261756560f01b60648201526084016200070f565b6200216f8162001dcc565b6040516001600160a01b038216907fbc7cd75a20ee27fd9adebab32041f755214dbc6bffa90cc0225b39da2e5c2d3b90600090a250565b60606001600160a01b0383163b620022105760405162461bcd60e51b815260206004820152602660248201527f416464726573733a2064656c65676174652063616c6c20746f206e6f6e2d636f6044820152651b9d1c9858dd60d21b60648201526084016200070f565b600080846001600160a01b0316846040516200222d919062003215565b600060405180830381855af49150503d80600081146200226a576040519150601f19603f3d011682016040523d82523d6000602084013e6200226f565b606091505b50915091506200229a828260405180606001604052806027815260200162003c2b60279139620022a3565b95945050505050565b60608315620022b457508162001dc5565b825115620022c55782518084602001fd5b8160405162461bcd60e51b81526004016200070f919062003167565b6109b7806200323483390190565b634e487b7160e01b600052604160045260246000fd5b604051601f8201601f191681016001600160401b0381118282101715620023305762002330620022ef565b604052919050565b60006001600160401b03821115620023545762002354620022ef565b5060051b60200190565b60006001600160401b038311156200237a576200237a620022ef565b6200238f601f8401601f191660200162002305565b9050828152838383011115620023a457600080fd5b828260208301376000602084830101529392505050565b600082601f830112620023cd57600080fd5b81356020620023e6620023e08362002338565b62002305565b82815260059290921b840181019181810190868411156200240657600080fd5b8286015b84811015620024605780356001600160401b038111156200242b5760008081fd5b8701603f810189136200243e5760008081fd5b620024518986830135604084016200235e565b8452509183019183016200240a565b509695505050505050565b600082601f8301126200247d57600080fd5b8135602062002490620023e08362002338565b82815260059290921b84018101918181019086841115620024b057600080fd5b8286015b84811015620024605780358352918301918301620024b4565b600080600060608486031215620024e357600080fd5b83356001600160401b0380821115620024fb57600080fd5b6200250987838801620023bb565b945060208601359150808211156200252057600080fd5b6200252e878388016200246b565b935060408601359150808211156200254557600080fd5b5062002554868287016200246b565b9150509250925092565b6000602082840312156200257157600080fd5b81356001600160e01b03198116811462001dc557600080fd5b60008060008060608587031215620025a157600080fd5b843593506020850135925060408501356001600160401b0380821115620025c757600080fd5b818701915087601f830112620025dc57600080fd5b813581811115620025ec57600080fd5b886020828501011115620025ff57600080fd5b95989497505060200194505050565b803560ff811681146200262057600080fd5b919050565b6000608082840312156200263857600080fd5b50919050565b80356001600160401b03811681146200262057600080fd5b600080600080600080600080610100898b0312156200267457600080fd5b6200267f896200260e565b9750602089013596506040890135955060608901356001600160401b0380821115620026aa57600080fd5b620026b88c838d0162002625565b965060808b0135915080821115620026cf57600080fd5b620026dd8c838d01620023bb565b955060a08b0135915080821115620026f457600080fd5b620027028c838d016200246b565b945060c08b01359150808211156200271957600080fd5b50620027288b828c016200246b565b9250506200273960e08a016200263e565b90509295985092959890939650565b6000602082840312156200275b57600080fd5b5035919050565b80356001600160a01b03811681146200262057600080fd5b6000602082840312156200278d57600080fd5b62001dc58262002762565b600080600060608486031215620027ae57600080fd5b83356001600160401b0380821115620027c657600080fd5b620027d487838801620023bb565b94506020860135915080821115620027eb57600080fd5b620027f9878388016200246b565b935060408601359150808211156200281057600080fd5b506200255486828701620023bb565b600080604083850312156200283357600080fd5b82359150620028456020840162002762565b90509250929050565b600080604083850312156200286257600080fd5b6200286d8362002762565b915060208301356001600160401b038111156200288957600080fd5b8301601f810185136200289b57600080fd5b620028ac858235602084016200235e565b9150509250929050565b600080600080600080600080610100898b031215620028d457600080fd5b620028df896200260e565b9750602089013596506040890135955060608901356001600160401b03808211156200290a57600080fd5b620029188c838d0162002625565b965060808b01359150808211156200292f57600080fd5b6200293d8c838d01620023bb565b955060a08b01359150808211156200295457600080fd5b620029628c838d016200246b565b945060c08b01359150808211156200297957600080fd5b50620027288b828c01620023bb565b600080600080600060a08688031215620029a157600080fd5b620029ac866200260e565b94506020860135935060408601359250620029ca606087016200263e565b9150620029da6080870162002762565b90509295509295909350565b60008083601f840112620029f957600080fd5b5081356001600160401b0381111562002a1157600080fd5b6020830191508360208260051b850101111562002a2d57600080fd5b9250929050565b60008060008060008060a0878903121562002a4e57600080fd5b62002a598762002762565b95506020870135945062002a706040880162002762565b93506060870135925060808701356001600160401b0381111562002a9357600080fd5b62002aa189828a01620029e6565b979a9699509497509295939492505050565b60008060008060006060868803121562002acc57600080fd5b62002ad78662002762565b945060208601356001600160401b038082111562002af457600080fd5b62002b0289838a01620029e6565b9096509450604088013591508082111562002b1c57600080fd5b5062002b2b88828901620029e6565b969995985093965092949392505050565b6000806040838503121562002b5057600080fd5b82356001600160401b038082111562002b6857600080fd5b62002b76868387016200246b565b9350602085013591508082111562002b8d57600080fd5b50620028ac858286016200246b565b60208082526017908201527f4e6f6e2d6578697374656e7420636f6c6c656374696f6e000000000000000000604082015260600190565b60005b8381101562002bf057818101518382015260200162002bd6565b8381111562001e965750506000910152565b6000815180845262002c1c81602086016020860162002bd3565b601f01601f19169290920160200192915050565b600081518084526020808501808196508360051b8101915082860160005b8581101562002c7c57828403895262002c6984835162002c02565b9885019893509084019060010162002c4e565b5091979650505050505050565b600081518084526020808501945080840160005b8381101562002cbb5781518752958201959082019060010162002c9d565b509495945050505050565b60608152600062002cdb606083018662002c30565b828103602084015262002cef818662002c89565b9050828103604084015262002d05818562002c89565b9695505050505050565b6000602080838503121562002d2357600080fd5b82516001600160401b0381111562002d3a57600080fd5b8301601f8101851362002d4c57600080fd5b805162002d5d620023e08262002338565b81815260059190911b8201830190838101908783111562002d7d57600080fd5b928401925b8284101562002d9d5783518252928401929084019062002d82565b979650505050505050565b60608152600062002dbd606083018662002c89565b828103602084015262002cef818662002c30565b81835281816020850137506000828201602090810191909152601f909101601f19169091010190565b84815283602082015260606040820152600062002d0560608301848662002dd1565b60608152600062002e31606083018662002c30565b828103602084015262002e45818662002c89565b9050828103604084015262002d05818562002c30565b6020808252602c908201527f46756e6374696f6e206d7573742062652063616c6c6564207468726f7567682060408201526b19195b1959d85d1958d85b1b60a21b606082015260800190565b6020808252602c908201527f46756e6374696f6e206d7573742062652063616c6c6564207468726f7567682060408201526b6163746976652070726f787960a01b606082015260800190565b81835260006001600160fb1b0383111562002f0d57600080fd5b8260051b8083602087013760009401602001938452509192915050565b868152600060018060a01b03808816602084015286604084015260a0606084015262002f5b60a08401868862002ef3565b9150808416608084015250979650505050505050565b60006020828403121562002f8457600080fd5b5051919050565b60608152600062002fa160608301878962002ef3565b828103602084015262002fb681868862002ef3565b91505060018060a01b03831660408301529695505050505050565b60408152600062002fe6604083018562002c89565b82810360208401526200229a818562002c89565b6000808335601e198436030181126200301257600080fd5b8301803591506001600160401b038211156200302d57600080fd5b60200191503681900382131562002a2d57600080fd5b60e0815260006200305960e083018c8e62002dd1565b82810360208401526200306e818b8d62002dd1565b905082810360408401526200308581898b62002dd1565b6001600160a01b03978816606085015260ff969096166080840152505091841660a083015290921660c0909201919091529695505050505050565b6001600160a01b0383168152604060208201819052600090620030e69083018462002c02565b949350505050565b7f416363657373436f6e74726f6c3a206163636f756e74200000000000000000008152600083516200312881601785016020880162002bd3565b7001034b99036b4b9b9b4b733903937b6329607d1b60179184019182015283516200315b81602884016020880162002bd3565b01602801949350505050565b60208152600062001dc5602083018462002c02565b634e487b7160e01b600052601160045260246000fd5b6000816000190483118215151615620031af57620031af6200317c565b500290565b60008219821115620031ca57620031ca6200317c565b500190565b634e487b7160e01b600052603260045260246000fd5b600081620031f757620031f76200317c565b506000190190565b634e487b7160e01b600052602160045260246000fd5b600082516200322981846020870162002bd3565b919091019291505056fe60806040526040516109b73803806109b7833981016040819052610022916104a9565b61004d60017fa3f0ad74e5423aebfd80d3ef4346578335a9a72aeaee59ff6cb3582b35133d51610569565b600080516020610970833981519152146100695761006961058e565b6100758282600061007c565b505061060e565b61008583610156565b6040516001600160a01b038416907f1cf3b03a6cf19fa2baba4df148e9dcabedea7f8a5c07840e207e5c089be95d3e90600090a26000825111806100c65750805b156101515761014f836001600160a01b0316635c60da1b6040518163ffffffff1660e01b815260040160206040518083038186803b15801561010757600080fd5b505afa15801561011b573d6000803e3d6000fd5b505050506040513d601f19601f8201168201806040525081019061013f91906105a4565b836102f660201b6100291760201c565b505b505050565b6101698161032260201b6100551760201c565b6101c85760405162461bcd60e51b815260206004820152602560248201527f455243313936373a206e657720626561636f6e206973206e6f74206120636f6e6044820152641d1c9858dd60da1b60648201526084015b60405180910390fd5b61024b816001600160a01b0316635c60da1b6040518163ffffffff1660e01b815260040160206040518083038186803b15801561020457600080fd5b505afa158015610218573d6000803e3d6000fd5b505050506040513d601f19601f8201168201806040525081019061023c91906105a4565b61032260201b6100551760201c565b6102b05760405162461bcd60e51b815260206004820152603060248201527f455243313936373a20626561636f6e20696d706c656d656e746174696f6e206960448201526f1cc81b9bdd08184818dbdb9d1c9858dd60821b60648201526084016101bf565b806102d560008051602061097083398151915260001b61033160201b6100641760201c565b80546001600160a01b0319166001600160a01b039290921691909117905550565b606061031b838360405180606001604052806027815260200161099060279139610334565b9392505050565b6001600160a01b03163b151590565b90565b60606001600160a01b0384163b61039c5760405162461bcd60e51b815260206004820152602660248201527f416464726573733a2064656c65676174652063616c6c20746f206e6f6e2d636f6044820152651b9d1c9858dd60d21b60648201526084016101bf565b600080856001600160a01b0316856040516103b791906105bf565b600060405180830381855af49150503d80600081146103f2576040519150601f19603f3d011682016040523d82523d6000602084013e6103f7565b606091505b509092509050610408828286610412565b9695505050505050565b6060831561042157508161031b565b8251156104315782518084602001fd5b8160405162461bcd60e51b81526004016101bf91906105db565b80516001600160a01b038116811461046257600080fd5b919050565b634e487b7160e01b600052604160045260246000fd5b60005b83811015610498578181015183820152602001610480565b8381111561014f5750506000910152565b600080604083850312156104bc57600080fd5b6104c58361044b565b60208401519092506001600160401b03808211156104e257600080fd5b818501915085601f8301126104f657600080fd5b81518181111561050857610508610467565b604051601f8201601f19908116603f0116810190838211818310171561053057610530610467565b8160405282815288602084870101111561054957600080fd5b61055a83602083016020880161047d565b80955050505050509250929050565b60008282101561058957634e487b7160e01b600052601160045260246000fd5b500390565b634e487b7160e01b600052600160045260246000fd5b6000602082840312156105b657600080fd5b61031b8261044b565b600082516105d181846020870161047d565b9190910192915050565b60208152600082518060208401526105fa81604085016020870161047d565b601f01601f19169190910160400192915050565b6103538061061d6000396000f3fe60806040523661001357610011610017565b005b6100115b610027610022610067565b61010f565b565b606061004e83836040518060600160405280602781526020016102f760279139610133565b9392505050565b6001600160a01b03163b151590565b90565b600061009a7fa3f0ad74e5423aebfd80d3ef4346578335a9a72aeaee59ff6cb3582b35133d50546001600160a01b031690565b6001600160a01b0316635c60da1b6040518163ffffffff1660e01b815260040160206040518083038186803b1580156100d257600080fd5b505afa1580156100e6573d6000803e3d6000fd5b505050506040513d601f19601f8201168201806040525081019061010a919061024e565b905090565b3660008037600080366000845af43d6000803e80801561012e573d6000f35b3d6000fd5b60606001600160a01b0384163b6101a05760405162461bcd60e51b815260206004820152602660248201527f416464726573733a2064656c65676174652063616c6c20746f206e6f6e2d636f6044820152651b9d1c9858dd60d21b60648201526084015b60405180910390fd5b600080856001600160a01b0316856040516101bb91906102a7565b600060405180830381855af49150503d80600081146101f6576040519150601f19603f3d011682016040523d82523d6000602084013e6101fb565b606091505b509150915061020b828286610215565b9695505050505050565b6060831561022457508161004e565b8251156102345782518084602001fd5b8160405162461bcd60e51b815260040161019791906102c3565b60006020828403121561026057600080fd5b81516001600160a01b038116811461004e57600080fd5b60005b8381101561029257818101518382015260200161027a565b838111156102a1576000848401525b50505050565b600082516102b9818460208701610277565b9190910192915050565b60208152600082518060208401526102e2816040850160208701610277565b601f01601f1916919091016040019291505056fe416464726573733a206c6f772d6c6576656c2064656c65676174652063616c6c206661696c6564a2646970667358221220d5c6722f81439ce020b693966d24f4aa8231570880d7785bfdd643b1abc7e02e64736f6c63430008090033a3f0ad74e5423aebfd80d3ef4346578335a9a72aeaee59ff6cb3582b35133d50416464726573733a206c6f772d6c6576656c2064656c65676174652063616c6c206661696c6564189ab7a9244df0848122154315af71fe140f3db0fe014031783b0946b8c9d2e3360894a13ba1a3210667c828492db98dca3e2076cc3735a920a3ca505d382bbc416464726573733a206c6f772d6c6576656c2064656c65676174652063616c6c206661696c6564a49807205ce4d355092ef5a8a18f56e8913cf4a201fbe287825b095693c21775a26469706673582212203c550a57697c70e4c1f910a8842b4f267bdeb42f1688167872b7fe05e6627d9a64736f6c63430008090033",
  "linkReferences": {},
  "deployedLinkReferences": {}
}