{
  "_format": "hh-sol-artifact-1",
  "contractName": "PodsManager",
  "sourceName": "contracts/PodsManager.sol",
  "abi": [
    {
      "inputs": [
        {
          "internalType": "contract ProtocolParameters",
          "name": "protocol_",
          "type": "address"
        },
        {
          "internalType": "address",
          "name": "ownersCollection_",
          "type": "address"
        }
      ],
      "stateMutability": "nonpayable",
      "type": "constructor"
    },
    {
      "anonymous": false,
      "inputs": [
        {
          "indexed": false,
          "internalType": "address",
          "name": "previousAdmin",
          "type": "address"
        },
        {
          "indexed": false,
          "internalType": "address",
          "name": "newAdmin",
          "type": "address"
        }
      ],
      "name": "AdminChanged",
      "type": "event"
    },
    {
      "anonymous": false,
      "inputs": [
        {
          "indexed": true,
          "internalType": "address",
          "name": "beacon",
          "type": "address"
        }
      ],
      "name": "BeaconUpgraded",
      "type": "event"
    },
    {
      "anonymous": false,
      "inputs": [
        {
          "indexed": true,
          "internalType": "address",
          "name": "token",
          "type": "address"
        }
      ],
      "name": "Blacklist",
      "type": "event"
    },
    {
      "anonymous": false,
      "inputs": [
        {
          "indexed": true,
          "internalType": "address",
          "name": "previousOwner",
          "type": "address"
        },
        {
          "indexed": true,
          "internalType": "address",
          "name": "newOwner",
          "type": "address"
        }
      ],
      "name": "OwnershipTransferred",
      "type": "event"
    },
    {
      "anonymous": false,
      "inputs": [
        {
          "indexed": true,
          "internalType": "uint256",
          "name": "proposalId",
          "type": "uint256"
        }
      ],
      "name": "PodProposed",
      "type": "event"
    },
    {
      "anonymous": false,
      "inputs": [
        {
          "indexed": true,
          "internalType": "uint256",
          "name": "podId",
          "type": "uint256"
        }
      ],
      "name": "PodRegistered",
      "type": "event"
    },
    {
      "anonymous": false,
      "inputs": [
        {
          "indexed": true,
          "internalType": "uint256",
          "name": "proposalId",
          "type": "uint256"
        },
        {
          "indexed": true,
          "internalType": "address",
          "name": "owner",
          "type": "address"
        },
        {
          "indexed": false,
          "internalType": "bool",
          "name": "support",
          "type": "bool"
        }
      ],
      "name": "ProposalVoted",
      "type": "event"
    },
    {
      "anonymous": false,
      "inputs": [
        {
          "indexed": true,
          "internalType": "address",
          "name": "implementation",
          "type": "address"
        }
      ],
      "name": "Upgraded",
      "type": "event"
    },
    {
      "anonymous": false,
      "inputs": [
        {
          "indexed": true,
          "internalType": "address",
          "name": "token",
          "type": "address"
        }
      ],
      "name": "Whitelist",
      "type": "event"
    },
    {
      "inputs": [
        {
          "internalType": "address",
          "name": "token_",
          "type": "address"
        }
      ],
      "name": "blacklistToken",
      "outputs": [],
      "stateMutability": "nonpayable",
      "type": "function"
    },
    {
      "inputs": [
        {
          "internalType": "uint256",
          "name": "podId_",
          "type": "uint256"
        }
      ],
      "name": "getProposedPod",
      "outputs": [
        {
          "components": [
            {
              "internalType": "uint64",
              "name": "timestamp",
              "type": "uint64"
            },
            {
              "internalType": "uint64",
              "name": "forVotes",
              "type": "uint64"
            },
            {
              "components": [
                {
                  "internalType": "string",
                  "name": "podName",
                  "type": "string"
                },
                {
                  "internalType": "string",
                  "name": "podSymbol",
                  "type": "string"
                },
                {
                  "internalType": "string",
                  "name": "metadataURI",
                  "type": "string"
                },
                {
                  "internalType": "uint256[]",
                  "name": "owners",
                  "type": "uint256[]"
                },
                {
                  "internalType": "uint32[]",
                  "name": "copyrightAllocations",
                  "type": "uint32[]"
                },
                {
                  "internalType": "uint16",
                  "name": "royaltyPercentage",
                  "type": "uint16"
                },
                {
                  "internalType": "address",
                  "name": "fundingToken",
                  "type": "address"
                },
                {
                  "internalType": "uint256",
                  "name": "copyrightTokenSupply",
                  "type": "uint256"
                }
              ],
              "internalType": "struct PodDefinition",
              "name": "podDefinition",
              "type": "tuple"
            },
            {
              "components": [
                {
                  "components": [
                    {
                      "internalType": "bool",
                      "name": "isStreaming",
                      "type": "bool"
                    },
                    {
                      "internalType": "string",
                      "name": "masterNFTTokenURI",
                      "type": "string"
                    },
                    {
                      "internalType": "uint256[]",
                      "name": "pricePerEdition",
                      "type": "uint256[]"
                    },
                    {
                      "internalType": "uint256[]",
                      "name": "quantityPerEdition",
                      "type": "uint256[]"
                    },
                    {
                      "internalType": "uint16[]",
                      "name": "percentagePerEdition",
                      "type": "uint16[]"
                    },
                    {
                      "internalType": "string[]",
                      "name": "tokenURIPerEdition",
                      "type": "string[]"
                    }
                  ],
                  "internalType": "struct MediaWithPrice",
                  "name": "media",
                  "type": "tuple"
                },
                {
                  "components": [
                    {
                      "internalType": "uint16",
                      "name": "royaltyPercent",
                      "type": "uint16"
                    },
                    {
                      "internalType": "address",
                      "name": "royaltyRecipient",
                      "type": "address"
                    },
                    {
                      "internalType": "string",
                      "name": "proofOfAuthenticity",
                      "type": "string"
                    }
                  ],
                  "internalType": "struct RoyaltyData",
                  "name": "royalty",
                  "type": "tuple"
                }
              ],
              "internalType": "struct MediaWithRoyalty[]",
              "name": "medias",
              "type": "tuple[]"
            }
          ],
          "internalType": "struct PodProposal",
          "name": "podProposed",
          "type": "tuple"
        }
      ],
      "stateMutability": "view",
      "type": "function"
    },
    {
      "inputs": [
        {
          "internalType": "uint256",
          "name": "podId_",
          "type": "uint256"
        }
      ],
      "name": "getRegisteredPod",
      "outputs": [
        {
          "components": [
            {
              "internalType": "string",
              "name": "metadataURI",
              "type": "string"
            },
            {
              "internalType": "uint256[]",
              "name": "owners",
              "type": "uint256[]"
            },
            {
              "internalType": "uint32[]",
              "name": "copyrightAllocations",
              "type": "uint32[]"
            },
            {
              "internalType": "uint256",
              "name": "copyrightTokenSupply",
              "type": "uint256"
            },
            {
              "internalType": "address",
              "name": "fundingToken",
              "type": "address"
            },
            {
              "components": [
                {
                  "components": [
                    {
                      "internalType": "bool",
                      "name": "isStreaming",
                      "type": "bool"
                    },
                    {
                      "internalType": "string",
                      "name": "masterNFTTokenURI",
                      "type": "string"
                    },
                    {
                      "internalType": "uint256[]",
                      "name": "pricePerEdition",
                      "type": "uint256[]"
                    },
                    {
                      "internalType": "uint256[]",
                      "name": "quantityPerEdition",
                      "type": "uint256[]"
                    },
                    {
                      "internalType": "uint16[]",
                      "name": "percentagePerEdition",
                      "type": "uint16[]"
                    },
                    {
                      "internalType": "string[]",
                      "name": "tokenURIPerEdition",
                      "type": "string[]"
                    }
                  ],
                  "internalType": "struct MediaWithPrice",
                  "name": "media",
                  "type": "tuple"
                },
                {
                  "components": [
                    {
                      "internalType": "uint16",
                      "name": "royaltyPercent",
                      "type": "uint16"
                    },
                    {
                      "internalType": "address",
                      "name": "royaltyRecipient",
                      "type": "address"
                    },
                    {
                      "internalType": "string",
                      "name": "proofOfAuthenticity",
                      "type": "string"
                    }
                  ],
                  "internalType": "struct RoyaltyData",
                  "name": "royalty",
                  "type": "tuple"
                }
              ],
              "internalType": "struct MediaWithRoyalty[]",
              "name": "medias",
              "type": "tuple[]"
            },
            {
              "internalType": "bytes32[]",
              "name": "mediasIds",
              "type": "bytes32[]"
            },
            {
              "components": [
                {
                  "internalType": "address",
                  "name": "vault",
                  "type": "address"
                },
                {
                  "internalType": "address",
                  "name": "copyrightToken",
                  "type": "address"
                },
                {
                  "internalType": "address",
                  "name": "copyrightStakeToken",
                  "type": "address"
                },
                {
                  "internalType": "address",
                  "name": "collectionWithRoyalty",
                  "type": "address"
                },
                {
                  "internalType": "address",
                  "name": "stakingGovernance",
                  "type": "address"
                }
              ],
              "internalType": "struct PodProtocolAddresses",
              "name": "addresses",
              "type": "tuple"
            }
          ],
          "internalType": "struct Pod",
          "name": "pod",
          "type": "tuple"
        }
      ],
      "stateMutability": "view",
      "type": "function"
    },
    {
      "inputs": [
        {
          "internalType": "contract PodsDeployer",
          "name": "podsDeployer_",
          "type": "address"
        },
        {
          "internalType": "contract MediaManager",
          "name": "mediaManager_",
          "type": "address"
        }
      ],
      "name": "initialize",
      "outputs": [],
      "stateMutability": "nonpayable",
      "type": "function"
    },
    {
      "inputs": [
        {
          "internalType": "address",
          "name": "",
          "type": "address"
        },
        {
          "internalType": "address",
          "name": "",
          "type": "address"
        },
        {
          "internalType": "uint256",
          "name": "",
          "type": "uint256"
        },
        {
          "internalType": "bytes",
          "name": "",
          "type": "bytes"
        }
      ],
      "name": "onERC721Received",
      "outputs": [
        {
          "internalType": "bytes4",
          "name": "",
          "type": "bytes4"
        }
      ],
      "stateMutability": "pure",
      "type": "function"
    },
    {
      "inputs": [],
      "name": "owner",
      "outputs": [
        {
          "internalType": "address",
          "name": "",
          "type": "address"
        }
      ],
      "stateMutability": "view",
      "type": "function"
    },
    {
      "inputs": [],
      "name": "ownersCollection",
      "outputs": [
        {
          "internalType": "address",
          "name": "",
          "type": "address"
        }
      ],
      "stateMutability": "view",
      "type": "function"
    },
    {
      "inputs": [
        {
          "components": [
            {
              "internalType": "string",
              "name": "podName",
              "type": "string"
            },
            {
              "internalType": "string",
              "name": "podSymbol",
              "type": "string"
            },
            {
              "internalType": "string",
              "name": "metadataURI",
              "type": "string"
            },
            {
              "internalType": "uint256[]",
              "name": "owners",
              "type": "uint256[]"
            },
            {
              "internalType": "uint32[]",
              "name": "copyrightAllocations",
              "type": "uint32[]"
            },
            {
              "internalType": "uint16",
              "name": "royaltyPercentage",
              "type": "uint16"
            },
            {
              "internalType": "address",
              "name": "fundingToken",
              "type": "address"
            },
            {
              "internalType": "uint256",
              "name": "copyrightTokenSupply",
              "type": "uint256"
            }
          ],
          "internalType": "struct PodDefinition",
          "name": "podDefinition_",
          "type": "tuple"
        },
        {
          "components": [
            {
              "components": [
                {
                  "internalType": "bool",
                  "name": "isStreaming",
                  "type": "bool"
                },
                {
                  "internalType": "string",
                  "name": "masterNFTTokenURI",
                  "type": "string"
                },
                {
                  "internalType": "uint256[]",
                  "name": "pricePerEdition",
                  "type": "uint256[]"
                },
                {
                  "internalType": "uint256[]",
                  "name": "quantityPerEdition",
                  "type": "uint256[]"
                },
                {
                  "internalType": "uint16[]",
                  "name": "percentagePerEdition",
                  "type": "uint16[]"
                },
                {
                  "internalType": "string[]",
                  "name": "tokenURIPerEdition",
                  "type": "string[]"
                }
              ],
              "internalType": "struct MediaWithPrice",
              "name": "media",
              "type": "tuple"
            },
            {
              "components": [
                {
                  "internalType": "uint16",
                  "name": "royaltyPercent",
                  "type": "uint16"
                },
                {
                  "internalType": "address",
                  "name": "royaltyRecipient",
                  "type": "address"
                },
                {
                  "internalType": "string",
                  "name": "proofOfAuthenticity",
                  "type": "string"
                }
              ],
              "internalType": "struct RoyaltyData",
              "name": "royalty",
              "type": "tuple"
            }
          ],
          "internalType": "struct MediaWithRoyalty[]",
          "name": "medias_",
          "type": "tuple[]"
        }
      ],
      "name": "proposeNewPod",
      "outputs": [],
      "stateMutability": "nonpayable",
      "type": "function"
    },
    {
      "inputs": [],
      "name": "protocol",
      "outputs": [
        {
          "internalType": "contract ProtocolParameters",
          "name": "",
          "type": "address"
        }
      ],
      "stateMutability": "view",
      "type": "function"
    },
    {
      "inputs": [],
      "name": "proxiableUUID",
      "outputs": [
        {
          "internalType": "bytes32",
          "name": "",
          "type": "bytes32"
        }
      ],
      "stateMutability": "view",
      "type": "function"
    },
    {
      "inputs": [],
      "name": "renounceOwnership",
      "outputs": [],
      "stateMutability": "nonpayable",
      "type": "function"
    },
    {
      "inputs": [
        {
          "internalType": "address",
          "name": "newOwner",
          "type": "address"
        }
      ],
      "name": "transferOwnership",
      "outputs": [],
      "stateMutability": "nonpayable",
      "type": "function"
    },
    {
      "inputs": [
        {
          "internalType": "address",
          "name": "newImplementation",
          "type": "address"
        }
      ],
      "name": "upgradeTo",
      "outputs": [],
      "stateMutability": "nonpayable",
      "type": "function"
    },
    {
      "inputs": [
        {
          "internalType": "address",
          "name": "newImplementation",
          "type": "address"
        },
        {
          "internalType": "bytes",
          "name": "data",
          "type": "bytes"
        }
      ],
      "name": "upgradeToAndCall",
      "outputs": [],
      "stateMutability": "payable",
      "type": "function"
    },
    {
      "inputs": [
        {
          "internalType": "uint256",
          "name": "proposalId_",
          "type": "uint256"
        },
        {
          "internalType": "uint256",
          "name": "ownerIndex_",
          "type": "uint256"
        },
        {
          "internalType": "bool",
          "name": "support_",
          "type": "bool"
        }
      ],
      "name": "votePodProposal",
      "outputs": [],
      "stateMutability": "nonpayable",
      "type": "function"
    },
    {
      "inputs": [
        {
          "internalType": "address",
          "name": "token_",
          "type": "address"
        }
      ],
      "name": "whitelistToken",
      "outputs": [],
      "stateMutability": "nonpayable",
      "type": "function"
    },
    {
      "inputs": [
        {
          "internalType": "address",
          "name": "",
          "type": "address"
        }
      ],
      "name": "whitelistedTokens",
      "outputs": [
        {
          "internalType": "bool",
          "name": "",
          "type": "bool"
        }
      ],
      "stateMutability": "view",
      "type": "function"
    }
  ],
  "bytecode": "0x60e0604052306080523480156200001557600080fd5b5060405162005bc738038062005bc783398101604081905262000038916200015f565b600054610100900460ff16620000555760005460ff16156200005f565b6200005f62000119565b620000c75760405162461bcd60e51b815260206004820152602e60248201527f496e697469616c697a61626c653a20636f6e747261637420697320616c72656160448201526d191e481a5b9a5d1a585b1a5e995960921b606482015260840160405180910390fd5b600054610100900460ff16158015620000ea576000805461ffff19166101011790555b6001600160a01b0380841660a052821660c052801562000110576000805461ff00191690555b5050506200019e565b600062000131306200013760201b620021f61760201c565b15905090565b6001600160a01b03163b151590565b6001600160a01b03811681146200015c57600080fd5b50565b600080604083850312156200017357600080fd5b8251620001808162000146565b6020840151909250620001938162000146565b809150509250929050565b60805160a05160c0516159ba6200020d600039600081816101150152818161185b015281816123a30152612f400152600081816102c5015281816116e80152612df70152600081816104c901528181610509015281816106a3015281816106e3015261077601526159ba6000f3fe6080604052600436106100fe5760003560e01c806368790fe0116100955780638da5cb5b116100645780638da5cb5b146102e7578063daf9c21014610305578063e125455914610345578063e42747d514610365578063f2fde38b1461039257600080fd5b806368790fe014610251578063715018a61461027e578063897d73bf146102935780638ce74426146102b357600080fd5b8063485cc955116100d1578063485cc955146101db5780634f1ef286146101fb57806352d1902d1461020e5780636247f6f21461023157600080fd5b80630b2f369114610103578063150b7a02146101545780632595aa77146101995780633659cfe6146101bb575b600080fd5b34801561010f57600080fd5b506101377f000000000000000000000000000000000000000000000000000000000000000081565b6040516001600160a01b0390911681526020015b60405180910390f35b34801561016057600080fd5b5061018061016f366004614093565b630a85bd0160e11b95945050505050565b6040516001600160e01b0319909116815260200161014b565b3480156101a557600080fd5b506101b96101b43660046143bd565b6103b2565b005b3480156101c757600080fd5b506101b96101d6366004614512565b6104be565b3480156101e757600080fd5b506101b96101f636600461452f565b61059e565b6101b9610209366004614568565b610698565b34801561021a57600080fd5b50610223610769565b60405190815260200161014b565b34801561023d57600080fd5b506101b961024c366004614512565b61081c565b34801561025d57600080fd5b5061027161026c3660046145cb565b61084f565b60405161014b919061493b565b34801561028a57600080fd5b506101b9610f5f565b34801561029f57600080fd5b506101b96102ae3660046149ae565b610f95565b3480156102bf57600080fd5b506101377f000000000000000000000000000000000000000000000000000000000000000081565b3480156102f357600080fd5b506097546001600160a01b0316610137565b34801561031157600080fd5b50610335610320366004614512565b60c96020526000908152604090205460ff1681565b604051901515815260200161014b565b34801561035157600080fd5b506101b9610360366004614512565b611ac9565b34801561037157600080fd5b506103856103803660046145cb565b611afc565b60405161014b91906149e7565b34801561039e57600080fd5b506101b96103ad366004614512565b61215e565b806104045760405162461bcd60e51b815260206004820152601b60248201527f4174206c65617374206f6e65206d65646961207265717569726564000000000060448201526064015b60405180910390fd5b61040d83612205565b61041782826124a2565b60008360e001511161046b5760405162461bcd60e51b815260206004820152601e60248201527f496e76616c696420636f7079726967687420746f6b656e20737570706c79000060448201526064016103fb565b826060015151600114156104ae5761048760cf80546001019055565b600061049260cf5490565b90506104a881856104a38587614c6b565b6129f4565b50505050565b6104b9838383613384565b505050565b306001600160a01b037f00000000000000000000000000000000000000000000000000000000000000001614156105075760405162461bcd60e51b81526004016103fb90614e0f565b7f00000000000000000000000000000000000000000000000000000000000000006001600160a01b031661055060008051602061593e833981519152546001600160a01b031690565b6001600160a01b0316146105765760405162461bcd60e51b81526004016103fb90614e5b565b61057f81613560565b6040805160008082526020820190925261059b9183919061358a565b50565b600054610100900460ff166105b95760005460ff16156105bd565b303b155b6106205760405162461bcd60e51b815260206004820152602e60248201527f496e697469616c697a61626c653a20636f6e747261637420697320616c72656160448201526d191e481a5b9a5d1a585b1a5e995960921b60648201526084016103fb565b600054610100900460ff16158015610642576000805461ffff19166101011790555b60ca80546001600160a01b038086166001600160a01b03199283161790925560cb80549285169290911691909117905561067a613704565b610682613733565b80156104b9576000805461ff0019169055505050565b306001600160a01b037f00000000000000000000000000000000000000000000000000000000000000001614156106e15760405162461bcd60e51b81526004016103fb90614e0f565b7f00000000000000000000000000000000000000000000000000000000000000006001600160a01b031661072a60008051602061593e833981519152546001600160a01b031690565b6001600160a01b0316146107505760405162461bcd60e51b81526004016103fb90614e5b565b61075982613560565b6107658282600161358a565b5050565b6000306001600160a01b037f000000000000000000000000000000000000000000000000000000000000000016146108095760405162461bcd60e51b815260206004820152603860248201527f555550535570677261646561626c653a206d757374206e6f742062652063616c60448201527f6c6564207468726f7567682064656c656761746563616c6c000000000000000060648201526084016103fb565b5060008051602061593e83398151915290565b6097546001600160a01b031633146108465760405162461bcd60e51b81526004016103fb90614ea7565b61059b8161375a565b610857613b73565b600082815260cd6020908152604091829020825160808101845281546001600160401b038082168352600160401b90910416928101929092528251610100810184526001820180549394929392850192829082906108b490614edc565b80601f01602080910402602001604051908101604052809291908181526020018280546108e090614edc565b801561092d5780601f106109025761010080835404028352916020019161092d565b820191906000526020600020905b81548152906001019060200180831161091057829003601f168201915b5050505050815260200160018201805461094690614edc565b80601f016020809104026020016040519081016040528092919081815260200182805461097290614edc565b80156109bf5780601f10610994576101008083540402835291602001916109bf565b820191906000526020600020905b8154815290600101906020018083116109a257829003601f168201915b505050505081526020016002820180546109d890614edc565b80601f0160208091040260200160405190810160405280929190818152602001828054610a0490614edc565b8015610a515780601f10610a2657610100808354040283529160200191610a51565b820191906000526020600020905b815481529060010190602001808311610a3457829003601f168201915b5050505050815260200160038201805480602002602001604051908101604052809291908181526020018280548015610aa957602002820191906000526020600020905b815481526020019060010190808311610a95575b5050505050815260200160048201805480602002602001604051908101604052809291908181526020018280548015610b2d57602002820191906000526020600020906000905b82829054906101000a900463ffffffff1663ffffffff1681526020019060040190602082600301049283019260010382029150808411610af05790505b5050509183525050600582015461ffff8116602080840191909152620100009091046001600160a01b031660408084019190915260069093015460609092019190915291835260088401805482518185028101850190935280835293830193919290919060009084015b82821015610f5157600084815260209020604080516101008101825260088502909201805460ff1615159183019182526001810180549192849290918491606085019190610be490614edc565b80601f0160208091040260200160405190810160405280929190818152602001828054610c1090614edc565b8015610c5d5780601f10610c3257610100808354040283529160200191610c5d565b820191906000526020600020905b815481529060010190602001808311610c4057829003601f168201915b5050505050815260200160028201805480602002602001604051908101604052809291908181526020018280548015610cb557602002820191906000526020600020905b815481526020019060010190808311610ca1575b5050505050815260200160038201805480602002602001604051908101604052809291908181526020018280548015610d0d57602002820191906000526020600020905b815481526020019060010190808311610cf9575b5050505050815260200160048201805480602002602001604051908101604052809291908181526020018280548015610d8d57602002820191906000526020600020906000905b82829054906101000a900461ffff1661ffff1681526020019060020190602082600101049283019260010382029150808411610d545790505b5050505050815260200160058201805480602002602001604051908101604052809291908181526020016000905b82821015610e67578382906000526020600020018054610dda90614edc565b80601f0160208091040260200160405190810160405280929190818152602001828054610e0690614edc565b8015610e535780601f10610e2857610100808354040283529160200191610e53565b820191906000526020600020905b815481529060010190602001808311610e3657829003601f168201915b505050505081526020019060010190610dbb565b5050509152505081526040805160608101825260068401805461ffff811683526201000090046001600160a01b03166020808401919091526007860180549190950194929391929184019190610ebc90614edc565b80601f0160208091040260200160405190810160405280929190818152602001828054610ee890614edc565b8015610f355780601f10610f0a57610100808354040283529160200191610f35565b820191906000526020600020905b815481529060010190602001808311610f1857829003601f168201915b5050505050815250508152505081526020019060010190610b97565b505050915250909392505050565b6097546001600160a01b03163314610f895760405162461bcd60e51b81526004016103fb90614ea7565b610f9360006137a6565b565b600083815260cd60209081526040808320815160808101835281546001600160401b038082168352600160401b9091041693810193909352815161010081018352600182018054929385019282908290610fee90614edc565b80601f016020809104026020016040519081016040528092919081815260200182805461101a90614edc565b80156110675780601f1061103c57610100808354040283529160200191611067565b820191906000526020600020905b81548152906001019060200180831161104a57829003601f168201915b5050505050815260200160018201805461108090614edc565b80601f01602080910402602001604051908101604052809291908181526020018280546110ac90614edc565b80156110f95780601f106110ce576101008083540402835291602001916110f9565b820191906000526020600020905b8154815290600101906020018083116110dc57829003601f168201915b5050505050815260200160028201805461111290614edc565b80601f016020809104026020016040519081016040528092919081815260200182805461113e90614edc565b801561118b5780601f106111605761010080835404028352916020019161118b565b820191906000526020600020905b81548152906001019060200180831161116e57829003601f168201915b50505050508152602001600382018054806020026020016040519081016040528092919081815260200182805480156111e357602002820191906000526020600020905b8154815260200190600101908083116111cf575b505050505081526020016004820180548060200260200160405190810160405280929190818152602001828054801561126757602002820191906000526020600020906000905b82829054906101000a900463ffffffff1663ffffffff168152602001906004019060208260030104928301926001038202915080841161122a5790505b5050509183525050600582015461ffff8116602080840191909152620100009091046001600160a01b031660408084019190915260069093015460609092019190915291835260088401805482518185028101850190935280835293830193919290919060009084015b8282101561168b57600084815260209020604080516101008101825260088502909201805460ff161515918301918252600181018054919284929091849160608501919061131e90614edc565b80601f016020809104026020016040519081016040528092919081815260200182805461134a90614edc565b80156113975780601f1061136c57610100808354040283529160200191611397565b820191906000526020600020905b81548152906001019060200180831161137a57829003601f168201915b50505050508152602001600282018054806020026020016040519081016040528092919081815260200182805480156113ef57602002820191906000526020600020905b8154815260200190600101908083116113db575b505050505081526020016003820180548060200260200160405190810160405280929190818152602001828054801561144757602002820191906000526020600020905b815481526020019060010190808311611433575b50505050508152602001600482018054806020026020016040519081016040528092919081815260200182805480156114c757602002820191906000526020600020906000905b82829054906101000a900461ffff1661ffff168152602001906002019060208260010104928301926001038202915080841161148e5790505b5050505050815260200160058201805480602002602001604051908101604052809291908181526020016000905b828210156115a157838290600052602060002001805461151490614edc565b80601f016020809104026020016040519081016040528092919081815260200182805461154090614edc565b801561158d5780601f106115625761010080835404028352916020019161158d565b820191906000526020600020905b81548152906001019060200180831161157057829003601f168201915b5050505050815260200190600101906114f5565b5050509152505081526040805160608101825260068401805461ffff811683526201000090046001600160a01b031660208084019190915260078601805491909501949293919291840191906115f690614edc565b80601f016020809104026020016040519081016040528092919081815260200182805461162290614edc565b801561166f5780601f106116445761010080835404028352916020019161166f565b820191906000526020600020905b81548152906001019060200180831161165257829003601f168201915b50505050508152505081525050815260200190600101906112d1565b5050509152505080519091506001600160401b03166116e45760405162461bcd60e51b8152602060048201526015602482015274139bdb8b595e1a5cdd195b9d081c1c9bdc1bdcd85b605a1b60448201526064016103fb565b60007f00000000000000000000000000000000000000000000000000000000000000006001600160a01b03166302a251a36040518163ffffffff1660e01b815260040160206040518083038186803b15801561173f57600080fd5b505afa158015611753573d6000803e3d6000fd5b505050506040513d601f19601f820116820180604052508101906117779190614f17565b82519091506001600160401b0380831691611793911642614f56565b11156117d75760405162461bcd60e51b8152602060048201526013602482015272159bdd1a5b99c81c195c9a5bd908195b991959606a1b60448201526064016103fb565b600085815260ce6020908152604080832033845290915290205460ff16156118315760405162461bcd60e51b815260206004820152600d60248201526c105b1c9958591e481d9bdd1959609a1b60448201526064016103fb565b6000826040015160600151858151811061184d5761184d614f6d565b6020026020010151905060007f00000000000000000000000000000000000000000000000000000000000000006001600160a01b0316636352211e836040518263ffffffff1660e01b81526004016118a791815260200190565b60206040518083038186803b1580156118bf57600080fd5b505afa1580156118d3573d6000803e3d6000fd5b505050506040513d601f19601f820116820180604052508101906118f79190614f83565b90506001600160a01b03811633146119485760405162461bcd60e51b81526020600482015260146024820152734f6e6c79206f776e6572732063616e20766f746560601b60448201526064016103fb565b6040518515158152339088907f0def80f9a3b4c7a4251442658ccf516bf33ea4acaf31638fc6da8ebdb0f64c729060200160405180910390a38415611a2e5760018460200181815161199a9190614fa0565b6001600160401b039081169091526020808701805160008c815260cd845260408082208054938716600160401b026fffffffffffffffff0000000000000000199094169390931790925560ce845281812033825290935291829020805460ff19166001179055908701516060015151905190911614159050611a2957611a2987856040015186606001516129f4565b611ac0565b600087815260cd6020526040812080546001600160801b0319168155906001820181611a5a8282613c00565b611a68600183016000613c00565b611a76600283016000613c00565b611a84600383016000613c3a565b611a92600483016000613c58565b506005810180546001600160b01b031916905560006006909101819055611abd906008840190613c7d565b50505b50505050505050565b6097546001600160a01b03163314611af35760405162461bcd60e51b81526004016103fb90614ea7565b61059b816137f8565b611b04613c9e565b600082815260cc60205260409081902081516101008101909252805482908290611b2d90614edc565b80601f0160208091040260200160405190810160405280929190818152602001828054611b5990614edc565b8015611ba65780601f10611b7b57610100808354040283529160200191611ba6565b820191906000526020600020905b815481529060010190602001808311611b8957829003601f168201915b5050505050815260200160018201805480602002602001604051908101604052809291908181526020018280548015611bfe57602002820191906000526020600020905b815481526020019060010190808311611bea575b5050505050815260200160028201805480602002602001604051908101604052809291908181526020018280548015611c8257602002820191906000526020600020906000905b82829054906101000a900463ffffffff1663ffffffff1681526020019060040190602082600301049283019260010382029150808411611c455790505b50505050508152602001600382015481526020016004820160009054906101000a90046001600160a01b03166001600160a01b03166001600160a01b0316815260200160058201805480602002602001604051908101604052809291908181526020016000905b828210156120a357600084815260209020604080516101008101825260088502909201805460ff1615159183019182526001810180549192849290918491606085019190611d3690614edc565b80601f0160208091040260200160405190810160405280929190818152602001828054611d6290614edc565b8015611daf5780601f10611d8457610100808354040283529160200191611daf565b820191906000526020600020905b815481529060010190602001808311611d9257829003601f168201915b5050505050815260200160028201805480602002602001604051908101604052809291908181526020018280548015611e0757602002820191906000526020600020905b815481526020019060010190808311611df3575b5050505050815260200160038201805480602002602001604051908101604052809291908181526020018280548015611e5f57602002820191906000526020600020905b815481526020019060010190808311611e4b575b5050505050815260200160048201805480602002602001604051908101604052809291908181526020018280548015611edf57602002820191906000526020600020906000905b82829054906101000a900461ffff1661ffff1681526020019060020190602082600101049283019260010382029150808411611ea65790505b5050505050815260200160058201805480602002602001604051908101604052809291908181526020016000905b82821015611fb9578382906000526020600020018054611f2c90614edc565b80601f0160208091040260200160405190810160405280929190818152602001828054611f5890614edc565b8015611fa55780601f10611f7a57610100808354040283529160200191611fa5565b820191906000526020600020905b815481529060010190602001808311611f8857829003601f168201915b505050505081526020019060010190611f0d565b5050509152505081526040805160608101825260068401805461ffff811683526201000090046001600160a01b0316602080840191909152600786018054919095019492939192918401919061200e90614edc565b80601f016020809104026020016040519081016040528092919081815260200182805461203a90614edc565b80156120875780601f1061205c57610100808354040283529160200191612087565b820191906000526020600020905b81548152906001019060200180831161206a57829003601f168201915b5050505050815250508152505081526020019060010190611ce9565b505050508152602001600682018054806020026020016040519081016040528092919081815260200182805480156120fa57602002820191906000526020600020905b8154815260200190600101908083116120e6575b50505091835250506040805160a08101825260078401546001600160a01b039081168252600885015481166020838101919091526009860154821693830193909352600a85015481166060830152600b909401549093166080840152015292915050565b6097546001600160a01b031633146121885760405162461bcd60e51b81526004016103fb90614ea7565b6001600160a01b0381166121ed5760405162461bcd60e51b815260206004820152602660248201527f4f776e61626c653a206e6577206f776e657220697320746865207a65726f206160448201526564647265737360d01b60648201526084016103fb565b61059b816137a6565b6001600160a01b03163b151590565b60c08101516001600160a01b0316600090815260c9602052604090205460ff166122715760405162461bcd60e51b815260206004820152601a60248201527f4e6f6e2d617070726f7665642066756e64696e6720746f6b656e00000000000060448201526064016103fb565b60c08101516001600160a01b03166122c35760405162461bcd60e51b815260206004820152601560248201527424b73b30b634b210333ab73234b733903a37b5b2b760591b60448201526064016103fb565b6000816060015151116123185760405162461bcd60e51b815260206004820152601b60248201527f4174206c65617374206f6e65206f776e6572207265717569726564000000000060448201526064016103fb565b8060600151518160800151511461237c5760405162461bcd60e51b815260206004820152602260248201527f496e76616c696420636f7079726967687420616c6c6f636174696f6e732073696044820152617a6560f01b60648201526084016103fb565b6000816060015160008151811061239557612395614f6d565b6020026020010151905060007f00000000000000000000000000000000000000000000000000000000000000006001600160a01b0316636352211e836040518263ffffffff1660e01b81526004016123ef91815260200190565b60206040518083038186803b15801561240757600080fd5b505afa15801561241b573d6000803e3d6000fd5b505050506040513d601f19601f8201168201806040525081019061243f9190614f83565b90506001600160a01b03811633146124995760405162461bcd60e51b815260206004820181905260248201527f43616c6c65722073686f756c6420626520746865206669727374206f776e657260448201526064016103fb565b6104b983613841565b60005b818110156104b9576000808484848181106124c2576124c2614f6d565b90506020028101906124d49190614fcb565b6124de9080614feb565b6124ec906020810190615001565b90501161253b5760405162461bcd60e51b815260206004820152601d60248201527f4d6173746572204e465420746f6b656e2055524920726571756972656400000060448201526064016103fb565b83838381811061254d5761254d614f6d565b905060200281019061255f9190614fcb565b6125699080614feb565b612577906060810190615047565b905084848481811061258b5761258b614f6d565b905060200281019061259d9190614fcb565b6125a79080614feb565b6125b5906040810190615047565b905014158061263e57508383838181106125d1576125d1614f6d565b90506020028101906125e39190614fcb565b6125ed9080614feb565b6125fb906060810190615047565b905084848481811061260f5761260f614f6d565b90506020028101906126219190614fcb565b61262b9080614feb565b612639906080810190615047565b905014155b806126c3575083838381811061265657612656614f6d565b90506020028101906126689190614fcb565b6126729080614feb565b6126809060a0810190615047565b905084848481811061269457612694614f6d565b90506020028101906126a69190614fcb565b6126b09080614feb565b6126be906040810190615047565b905014155b156127095760405162461bcd60e51b815260206004820152601660248201527509acac8d2c240d8d2e6e8e640daeae6e840dac2e8c6d60531b60448201526064016103fb565b60005b84848481811061271e5761271e614f6d565b90506020028101906127309190614fcb565b61273a9080614feb565b612748906040810190615047565b905081101561293557600085858581811061276557612765614f6d565b90506020028101906127779190614fcb565b6127819080614feb565b61278f906040810190615047565b8381811061279f5761279f614f6d565b90506020020135116127f35760405162461bcd60e51b815260206004820152601760248201527f57726f6e67206d656469612070726963652076616c756500000000000000000060448201526064016103fb565b6127ff6002600a615174565b61280a906064615180565b85858581811061281c5761281c614f6d565b905060200281019061282e9190614fcb565b6128389080614feb565b612846906080810190615047565b8381811061285657612856614f6d565b905060200201602081019061286b919061519f565b61ffff1611156128b25760405162461bcd60e51b8152602060048201526012602482015271496e76616c69642070657263656e7461676560701b60448201526064016103fb565b8484848181106128c4576128c4614f6d565b90506020028101906128d69190614fcb565b6128e09080614feb565b6128ee906080810190615047565b828181106128fe576128fe614f6d565b9050602002016020810190612913919061519f565b6129219061ffff16836151bc565b91508061292d816151d4565b91505061270c565b50600084848481811061294a5761294a614f6d565b905060200281019061295c9190614fcb565b6129669080614feb565b612974906040810190615047565b905011156129e1576129886002600a615174565b612993906064615180565b81146129e15760405162461bcd60e51b815260206004820152601c60248201527f496e76616c69642070657263656e7420646973747269627574696f6e0000000060448201526064016103fb565b50806129ec816151d4565b9150506124a5565b6040805160a08101825260008082526020820181905291810182905260608101829052608081019190915260ca546040516330aadf6560e11b81526000916001600160a01b031690636155beca90612a509087906004016151ef565b60c060405180830381600087803b158015612a6a57600080fd5b505af1158015612a7e573d6000803e3d6000fd5b505050506040513d601f19601f82011682018060405250810190612aa29190615202565b6040805160a08101825282516001600160a01b0390811680835260208086015183169084015283850151821683850152606080860151831690840181905260809586015183169584019590955260cb549351632e92ddb360e01b815292965060009550921692632e92ddb392612b20928a92899290916004016152ac565b600060405180830381600087803b158015612b3a57600080fd5b505af1158015612b4e573d6000803e3d6000fd5b505050506040513d6000823e601f3d908101601f19168201604052612b7691908101906152e6565b600086815260cc60209081526040909120606087015180519394509092612ba39260018501920190613d1a565b5060808501518051612bbf916002840191602090910190613d65565b5060e0850151600382015560c08501516004820180546001600160a01b0319166001600160a01b0390921691909117905560408501518051612c08918391602090910190613e0f565b508151612c1e9060068301906020850190613d1a565b5082516007820180546001600160a01b03199081166001600160a01b039384161790915560208501516008840180548316918416919091179055604085015160098401805483169184169190911790556060850151600a8401805483169184169190911790556080850151600b84018054909216921691909117905560005b8451811015612df45781600501858281518110612cbc57612cbc614f6d565b602090810291909101810151825460018082018555600094855293839020825180516008909302909101805460ff19169215159290921782558084015180519395929491938593612d1293908501920190613e0f565b5060408201518051612d2e916002840191602090910190613d1a565b5060608201518051612d4a916003840191602090910190613d1a565b5060808201518051612d66916004840191602090910190613e82565b5060a08201518051612d82916005840191602090910190613f19565b5050506020828101518051600684018054838501516001600160a01b031662010000026001600160b01b031990911661ffff909316929092179190911781556040820151805192939192612ddc9260078701920190613e0f565b50505050508080612dec906151d4565b915050612c9d565b507f00000000000000000000000000000000000000000000000000000000000000006001600160a01b031663d5c3cdaf6040518163ffffffff1660e01b815260040160206040518083038186803b158015612e4e57600080fd5b505afa158015612e62573d6000803e3d6000fd5b505050506040513d601f19601f82011682018060405250810190612e869190614f17565b6001600160401b03168160010180549050101561324357602083015160e08601516040516340c10f1960e01b815230600482015260248101919091526001600160a01b03909116906340c10f1990604401600060405180830381600087803b158015612ef157600080fd5b505af1158015612f05573d6000803e3d6000fd5b505050506000806000805b60018501548110156131e357846001018181548110612f3157612f31614f6d565b906000526020600020015493507f00000000000000000000000000000000000000000000000000000000000000006001600160a01b0316636352211e856040518263ffffffff1660e01b8152600401612f8c91815260200190565b60206040518083038186803b158015612fa457600080fd5b505afa158015612fb8573d6000803e3d6000fd5b505050506040513d601f19601f82011682018060405250810190612fdc9190614f83565b9250612fea6002600a615174565b612ff5906064615180565b85600201828154811061300a5761300a614f6d565b90600052602060002090600891828204019190066004029054906101000a900463ffffffff1663ffffffff1686600301546130459190615180565b61304f9190615376565b60208801516040808a0151905163095ea7b360e01b81526001600160a01b03918216600482015260248101849052929450169063095ea7b390604401602060405180830381600087803b1580156130a557600080fd5b505af11580156130b9573d6000803e3d6000fd5b505050506040513d601f19601f820116820180604052508101906130dd9190615398565b5060408088015190516314e3ff2f60e11b8152600481018490526000916001600160a01b0316906329c7fe5e90602401602060405180830381600087803b15801561312757600080fd5b505af115801561313b573d6000803e3d6000fd5b505050506040513d601f19601f8201168201806040525081019061315f91906153b5565b6040808a01519051632142170760e11b81523060048201526001600160a01b038781166024830152604482018490529293509116906342842e0e90606401600060405180830381600087803b1580156131b757600080fd5b505af11580156131cb573d6000803e3d6000fd5b505050505080806131db906151d4565b915050612f10565b5085600001516001600160a01b031663d71d24156040518163ffffffff1660e01b8152600401600060405180830381600087803b15801561322357600080fd5b505af1158015613237573d6000803e3d6000fd5b505050505050506132b1565b602083015160e08601516040516340c10f1960e01b81526001600160a01b03909216600483018190526024830191909152906340c10f1990604401600060405180830381600087803b15801561329857600080fd5b505af11580156132ac573d6000803e3d6000fd5b505050505b6001856060015151111561335157600086815260cd6020526040812080546001600160801b03191681559060018201816132eb8282613c00565b6132f9600183016000613c00565b613307600283016000613c00565b613315600383016000613c3a565b613323600483016000613c58565b506005810180546001600160b01b03191690556000600690910181905561334e906008840190613c7d565b50505b60405186907fe87281e7855e6602f09a2dcbbb585e4b51f9888beb58a9e011f3b027daa1489a90600090a2505050505050565b61339260cf80546001019055565b600061339d60cf5490565b600081815260cd6020908152604090912080546001600160801b0319166001600160401b03421617600160401b178155865180519394509092879260018501926133ed9284929190910190613e0f565b5060208281015180516134069260018501920190613e0f565b5060408201518051613422916002840191602090910190613e0f565b506060820151805161343e916003840191602090910190613d1a565b506080820151805161345a916004840191602090910190613d65565b5060a082015160058201805460c08501516001600160a01b031662010000026001600160b01b031990911661ffff9093169290921791909117905560e090910151600690910155600082815260ce602090815260408083203384529091528120805460ff191660011790555b8381101561352d57816008018585838181106134e4576134e4614f6d565b90506020028101906134f69190614fcb565b8154600181018355600092835260209092209091600802016135188282615794565b50508080613525906151d4565b9150506134c6565b5060405182907f435caa3a3e964c044ffe68e68532e4a7184fd855273f271a92b9a494e8c7501090600090a25050505050565b6097546001600160a01b0316331461059b5760405162461bcd60e51b81526004016103fb90614ea7565b7f4910fdfa16fed3260ed0e7147f7cc6da11a60208b5b9406d12a635614ffd91435460ff16156135bd576104b98361390c565b826001600160a01b03166352d1902d6040518163ffffffff1660e01b815260040160206040518083038186803b1580156135f657600080fd5b505afa925050508015613626575060408051601f3d908101601f19168201909252613623918101906153b5565b60015b6136895760405162461bcd60e51b815260206004820152602e60248201527f45524331393637557067726164653a206e657720696d706c656d656e7461746960448201526d6f6e206973206e6f74205555505360901b60648201526084016103fb565b60008051602061593e83398151915281146136f85760405162461bcd60e51b815260206004820152602960248201527f45524331393637557067726164653a20756e737570706f727465642070726f786044820152681a58589b195555525160ba1b60648201526084016103fb565b506104b98383836139a8565b600054610100900460ff1661372b5760405162461bcd60e51b81526004016103fb906158cd565b610f936139cd565b600054610100900460ff16610f935760405162461bcd60e51b81526004016103fb906158cd565b6001600160a01b038116600081815260c96020526040808220805460ff19166001179055517feb73900b98b6a3e2b8b01708fe544760cf570d21e7fbe5225f24e48b5b2b432e9190a250565b609780546001600160a01b038381166001600160a01b0319831681179093556040519116919082907f8be0079c531659141344cd1fd0a4f28419497f9722a3daafe3b4186f6b6457e090600090a35050565b6001600160a01b038116600081815260c96020526040808220805460ff19169055517f7811ed4e4b787e4f0f046ffb4a5ec1e064b0eb6d191ffabb66270ed8be89b3259190a250565b6000805b826080015151811015613895578260800151818151811061386857613868614f6d565b602002602001015163ffffffff168261388191906151bc565b91508061388d816151d4565b915050613845565b506138a26002600a615174565b6138ad906064615180565b81146107655760405162461bcd60e51b815260206004820152602860248201527f57726f6e6720636f7079726967687420616c6c6f636174696f6e7320646973746044820152673934b13aba34b7b760c11b60648201526084016103fb565b6001600160a01b0381163b6139795760405162461bcd60e51b815260206004820152602d60248201527f455243313936373a206e657720696d706c656d656e746174696f6e206973206e60448201526c1bdd08184818dbdb9d1c9858dd609a1b60648201526084016103fb565b60008051602061593e83398151915280546001600160a01b0319166001600160a01b0392909216919091179055565b6139b1836139fd565b6000825111806139be5750805b156104b9576104a88383613a3d565b600054610100900460ff166139f45760405162461bcd60e51b81526004016103fb906158cd565b610f93336137a6565b613a068161390c565b6040516001600160a01b038216907fbc7cd75a20ee27fd9adebab32041f755214dbc6bffa90cc0225b39da2e5c2d3b90600090a250565b60606001600160a01b0383163b613aa55760405162461bcd60e51b815260206004820152602660248201527f416464726573733a2064656c65676174652063616c6c20746f206e6f6e2d636f6044820152651b9d1c9858dd60d21b60648201526084016103fb565b600080846001600160a01b031684604051613ac09190615918565b600060405180830381855af49150503d8060008114613afb576040519150601f19603f3d011682016040523d82523d6000602084013e613b00565b606091505b5091509150613b28828260405180606001604052806027815260200161595e60279139613b33565b925050505b92915050565b60608315613b42575081613b6c565b825115613b525782518084602001fd5b8160405162461bcd60e51b81526004016103fb919061592a565b9392505050565b604051806080016040528060006001600160401b0316815260200160006001600160401b03168152602001613bf36040518061010001604052806060815260200160608152602001606081526020016060815260200160608152602001600061ffff16815260200160006001600160a01b03168152602001600081525090565b8152602001606081525090565b508054613c0c90614edc565b6000825580601f10613c1c575050565b601f01602090049060005260206000209081019061059b9190613f72565b508054600082559060005260206000209081019061059b9190613f72565b50805460008255600701600890049060005260206000209081019061059b9190613f72565b508054600082556008029060005260206000209081019061059b9190613f87565b6040518061010001604052806060815260200160608152602001606081526020016000815260200160006001600160a01b031681526020016060815260200160608152602001613d156040805160a08101825260008082526020820181905291810182905260608101829052608081019190915290565b905290565b828054828255906000526020600020908101928215613d55579160200282015b82811115613d55578251825591602001919060010190613d3a565b50613d61929150613f72565b5090565b82805482825590600052602060002090600701600890048101928215613d555791602002820160005b83821115613dd257835183826101000a81548163ffffffff021916908363ffffffff1602179055509260200192600401602081600301049283019260010302613d8e565b8015613e025782816101000a81549063ffffffff0219169055600401602081600301049283019260010302613dd2565b5050613d61929150613f72565b828054613e1b90614edc565b90600052602060002090601f016020900481019282613e3d5760008555613d55565b82601f10613e5657805160ff1916838001178555613d55565b82800160010185558215613d555791820182811115613d55578251825591602001919060010190613d3a565b82805482825590600052602060002090600f01601090048101928215613d555791602002820160005b83821115613eeb57835183826101000a81548161ffff021916908361ffff1602179055509260200192600201602081600101049283019260010302613eab565b8015613e025782816101000a81549061ffff0219169055600201602081600101049283019260010302613eeb565b828054828255906000526020600020908101928215613f66579160200282015b82811115613f665782518051613f56918491602090910190613e0f565b5091602001919060010190613f39565b50613d6192915061400e565b5b80821115613d615760008155600101613f73565b80821115613d6157805460ff1916815560008181613fa86001830182613c00565b613fb6600283016000613c3a565b613fc4600383016000613c3a565b613fd260048301600061402b565b613fe0600583016000614050565b50506006820180546001600160b01b031916815560006140036007850182613c00565b505050600801613f87565b80821115613d615760006140228282613c00565b5060010161400e565b50805460008255600f01601090049060005260206000209081019061059b9190613f72565b508054600082559060005260206000209081019061059b919061400e565b6001600160a01b038116811461059b57600080fd5b803561408e8161406e565b919050565b6000806000806000608086880312156140ab57600080fd5b85356140b68161406e565b945060208601356140c68161406e565b93506040860135925060608601356001600160401b03808211156140e957600080fd5b818801915088601f8301126140fd57600080fd5b81358181111561410c57600080fd5b89602082850101111561411e57600080fd5b9699959850939650602001949392505050565b634e487b7160e01b600052604160045260246000fd5b60405161010081016001600160401b038111828210171561416a5761416a614131565b60405290565b604080519081016001600160401b038111828210171561416a5761416a614131565b60405160c081016001600160401b038111828210171561416a5761416a614131565b604051601f8201601f191681016001600160401b03811182821017156141dc576141dc614131565b604052919050565b60006001600160401b038311156141fd576141fd614131565b614210601f8401601f19166020016141b4565b905082815283838301111561422457600080fd5b828260208301376000602084830101529392505050565b600082601f83011261424c57600080fd5b613b6c838335602085016141e4565b60006001600160401b0382111561427457614274614131565b5060051b60200190565b600082601f83011261428f57600080fd5b813560206142a461429f8361425b565b6141b4565b82815260059290921b840181019181810190868411156142c357600080fd5b8286015b848110156142de57803583529183019183016142c7565b509695505050505050565b600082601f8301126142fa57600080fd5b8135602061430a61429f8361425b565b82815260059290921b8401810191818101908684111561432957600080fd5b8286015b848110156142de57803563ffffffff8116811461434a5760008081fd5b835291830191830161432d565b61ffff8116811461059b57600080fd5b803561408e81614357565b60008083601f84011261438457600080fd5b5081356001600160401b0381111561439b57600080fd5b6020830191508360208260051b85010111156143b657600080fd5b9250929050565b6000806000604084860312156143d257600080fd5b83356001600160401b03808211156143e957600080fd5b9085019061010082880312156143fe57600080fd5b614406614147565b82358281111561441557600080fd5b6144218982860161423b565b82525060208301358281111561443657600080fd5b6144428982860161423b565b60208301525060408301358281111561445a57600080fd5b6144668982860161423b565b60408301525060608301358281111561447e57600080fd5b61448a8982860161427e565b6060830152506080830135828111156144a257600080fd5b6144ae898286016142e9565b6080830152506144c060a08401614367565b60a08201526144d160c08401614083565b60c082015260e083013560e08201528095505060208601359150808211156144f857600080fd5b5061450586828701614372565b9497909650939450505050565b60006020828403121561452457600080fd5b8135613b6c8161406e565b6000806040838503121561454257600080fd5b823561454d8161406e565b9150602083013561455d8161406e565b809150509250929050565b6000806040838503121561457b57600080fd5b82356145868161406e565b915060208301356001600160401b038111156145a157600080fd5b8301601f810185136145b257600080fd5b6145c1858235602084016141e4565b9150509250929050565b6000602082840312156145dd57600080fd5b5035919050565b60005b838110156145ff5781810151838201526020016145e7565b838111156104a85750506000910152565b600081518084526146288160208601602086016145e4565b601f01601f19169290920160200192915050565b600081518084526020808501945080840160005b8381101561466c57815187529582019590820190600101614650565b509495945050505050565b600081518084526020808501945080840160005b8381101561466c57815163ffffffff168752958201959082019060010161468b565b600061010082518185526146c382860182614610565b915050602083015184820360208601526146dd8282614610565b915050604083015184820360408601526146f78282614610565b91505060608301518482036060860152614711828261463c565b9150506080830151848203608086015261472b8282614677565b91505060a083015161474360a086018261ffff169052565b5060c083015161475e60c08601826001600160a01b03169052565b5060e083015160e08501528091505092915050565b600081518084526020808501808196508360051b8101915082860160005b858110156147bb5782840389526147a9848351614610565b98850198935090840190600101614791565b5091979650505050505050565b61ffff815116825260018060a01b03602082015116602083015260006040820151606060408501526147fd6060850182614610565b949350505050565b600081518084526020808501808196508360051b810191508286016000805b8681101561492d578385038a5282516040815181885280511515828901528881015160c0606081818c015261485d6101008c0184614610565b9250848401519450603f196080818d860301818e015261487d858861463c565b965082860151945060a09250818d880301838e015261489c878661463c565b908601518d82038301948e01949094528351808252938e0196508994508d01925b808510156148e157865161ffff168452958d019560019490940193928d01926148bd565b50908401518b830390910160e08c015293506148fd8185614773565b93505050508782015191508681038888015261491981836147c8565b9b88019b9650505091850191600101614824565b509298975050505050505050565b6020815260006001600160401b038084511660208401528060208501511660408401525060408301516080606084015261497860a08401826146ad565b90506060840151601f19848303016080850152613b288282614805565b801515811461059b57600080fd5b803561408e81614995565b6000806000606084860312156149c357600080fd5b833592506020840135915060408401356149dc81614995565b809150509250925092565b60208152600082516101806020840152614a056101a0840182614610565b90506020840151601f1980858403016040860152614a23838361463c565b92506040860151915080858403016060860152614a408383614677565b92506060860151608086015260808601519150614a6860a08601836001600160a01b03169052565b60a08601519150808584030160c0860152614a838383614805565b925060c08601519150808584030160e086015250614aa1828261463c565b60e086015180516001600160a01b039081166101008801526020820151811661012088015260408201518116610140880152606082015181166101608801526080820151166101808701529092509050509392505050565b600082601f830112614b0a57600080fd5b81356020614b1a61429f8361425b565b82815260059290921b84018101918181019086841115614b3957600080fd5b8286015b848110156142de578035614b5081614357565b8352918301918301614b3d565b600082601f830112614b6e57600080fd5b81356020614b7e61429f8361425b565b82815260059290921b84018101918181019086841115614b9d57600080fd5b8286015b848110156142de5780356001600160401b03811115614bc05760008081fd5b614bce8986838b010161423b565b845250918301918301614ba1565b600060608284031215614bee57600080fd5b604051606081016001600160401b038282108183111715614c1157614c11614131565b8160405282935084359150614c2582614357565b908252602084013590614c378261406e565b8160208401526040850135915080821115614c5157600080fd5b50614c5e8582860161423b565b6040830152505092915050565b6000614c7961429f8461425b565b80848252602080830192508560051b850136811115614c9757600080fd5b855b81811015614e035780356001600160401b0380821115614cb95760008081fd5b81890191506040808336031215614cd05760008081fd5b614cd8614170565b833583811115614ce85760008081fd5b840160c0368290031215614cfc5760008081fd5b614d04614192565b614d0d826149a3565b81528882013585811115614d215760008081fd5b614d2d3682850161423b565b8a830152508382013585811115614d445760008081fd5b614d503682850161427e565b8583015250606093508382013585811115614d6b5760008081fd5b614d773682850161427e565b8583015250608093508382013585811115614d925760008081fd5b614d9e36828501614af9565b858301525060a093508382013585811115614db95760008081fd5b614dc536828501614b5d565b8583015250808352505086840135915082821115614de35760008081fd5b614def36838601614bdc565b818801528852505050938201938201614c99565b50919695505050505050565b6020808252602c908201527f46756e6374696f6e206d7573742062652063616c6c6564207468726f7567682060408201526b19195b1959d85d1958d85b1b60a21b606082015260800190565b6020808252602c908201527f46756e6374696f6e206d7573742062652063616c6c6564207468726f7567682060408201526b6163746976652070726f787960a01b606082015260800190565b6020808252818101527f4f776e61626c653a2063616c6c6572206973206e6f7420746865206f776e6572604082015260600190565b600181811c90821680614ef057607f821691505b60208210811415614f1157634e487b7160e01b600052602260045260246000fd5b50919050565b600060208284031215614f2957600080fd5b81516001600160401b0381168114613b6c57600080fd5b634e487b7160e01b600052601160045260246000fd5b600082821015614f6857614f68614f40565b500390565b634e487b7160e01b600052603260045260246000fd5b600060208284031215614f9557600080fd5b8151613b6c8161406e565b60006001600160401b03808316818516808303821115614fc257614fc2614f40565b01949350505050565b60008235603e19833603018112614fe157600080fd5b9190910192915050565b6000823560be19833603018112614fe157600080fd5b6000808335601e1984360301811261501857600080fd5b8301803591506001600160401b0382111561503257600080fd5b6020019150368190038213156143b657600080fd5b6000808335601e1984360301811261505e57600080fd5b8301803591506001600160401b0382111561507857600080fd5b6020019150600581901b36038213156143b657600080fd5b600181815b808511156150cb5781600019048211156150b1576150b1614f40565b808516156150be57918102915b93841c9390800290615095565b509250929050565b6000826150e257506001613b2d565b816150ef57506000613b2d565b8160018114615105576002811461510f5761512b565b6001915050613b2d565b60ff84111561512057615120614f40565b50506001821b613b2d565b5060208310610133831016604e8410600b841016171561514e575081810a613b2d565b6151588383615090565b806000190482111561516c5761516c614f40565b029392505050565b6000613b6c83836150d3565b600081600019048311821515161561519a5761519a614f40565b500290565b6000602082840312156151b157600080fd5b8135613b6c81614357565b600082198211156151cf576151cf614f40565b500190565b60006000198214156151e8576151e8614f40565b5060010190565b602081526000613b6c60208301846146ad565b600060c0828403121561521457600080fd5b60405160c081018181106001600160401b038211171561523657615236614131565b60405282516152448161406e565b815260208301516152548161406e565b602082015260408301516152678161406e565b6040820152606083015161527a8161406e565b6060820152608083015161528d8161406e565b608082015260a08301516152a08161406e565b60a08201529392505050565b8481526080602082015260006152c56080830186614805565b6001600160a01b039485166040840152929093166060909101529392505050565b600060208083850312156152f957600080fd5b82516001600160401b0381111561530f57600080fd5b8301601f8101851361532057600080fd5b805161532e61429f8261425b565b81815260059190911b8201830190838101908783111561534d57600080fd5b928401925b8284101561536b57835182529284019290840190615352565b979650505050505050565b60008261539357634e487b7160e01b600052601260045260246000fd5b500490565b6000602082840312156153aa57600080fd5b8151613b6c81614995565b6000602082840312156153c757600080fd5b5051919050565b5b8181101561076557600081556001016153cf565b601f8211156104b957806000526020600020601f840160051c8101602085101561540a5750805b61541c601f850160051c8301826153ce565b5050505050565b6001600160401b0383111561543a5761543a614131565b61544e836154488354614edc565b836153e3565b6000601f841160018114615482576000851561546a5750838201355b600019600387901b1c1916600186901b17835561541c565b600083815260209020601f19861690835b828110156154b35786850135825560209485019460019092019101615493565b50868210156154d05760001960f88860031b161c19848701351681555b505060018560011b0183555050505050565b600160401b8311156154f6576154f6614131565b80548382558084101561551c5781600052602060002061551a8282018683016153ce565b505b50818160005260208060002060005b86811015611ac05783358255928201926001918201910161552b565b60008135613b2d81614357565b600160401b83111561556857615568614131565b8054838255808410156155c757816000526020600020600f850160041c8101601e8660011b1680156155b1576155b181600019840180546000198360200360031b1c1681555050565b506155c4600f840160041c8301826153ce565b50505b506000818152602081208391805b86811015611ac0576156076155e985615547565b845461ffff600386901b81811b801990931693909116901b16178455565b602084019350600282019150601e82111561562757600091506001830192505b6001016155d5565b600160401b83111561564357615643614131565b8054838255808410156156cc576000828152602081208581019083015b808210156156c8576156728254614edc565b80156156bc57601f8082116001811461568d578585556156b9565b6000858152602090206156aa83850160051c8201600183016153ce565b50600085815260208120818755555b50505b50600182019150615660565b5050505b5060008181526020812083915b8581101561570b576156eb8386615001565b6156f6818386615423565b505060209290920191600191820191016156d9565b505050505050565b60008235605e19833603018112614fe157600080fd5b813561573481614357565b61ffff8116905081548161ffff19821617835560208401356157558161406e565b6001600160b01b03199190911690911760109190911b62010000600160b01b03161781556157866040830183615001565b6104a8818360018601615423565b813560be198336030181126157a857600080fd5b820180356157b581614995565b825490151560ff1660ff1991909116178255600160206157d783820184615001565b6157e48183868901615423565b5050600284016157f76040850185615047565b600160401b81111561580b5761580b614131565b82548184558082101561583057836000528460002061582e8282018483016153ce565b505b506000928352838320925b8181101561585657823584559285019291840191850161583b565b505050506158676060840184615047565b92506158778382600388016154e2565b506158856080840184615047565b9250615895838260048801615554565b506158a360a0840184615047565b935091506158b583836005870161562f565b61541c6158c482870187615713565b60068601615729565b6020808252602b908201527f496e697469616c697a61626c653a20636f6e7472616374206973206e6f74206960408201526a6e697469616c697a696e6760a81b606082015260800190565b60008251614fe18184602087016145e4565b602081526000613b6c602083018461461056fe360894a13ba1a3210667c828492db98dca3e2076cc3735a920a3ca505d382bbc416464726573733a206c6f772d6c6576656c2064656c65676174652063616c6c206661696c6564a26469706673582212202026c18ffd5b959dd4d4c4f9457f3602af928a7c343546ba6cfad0b3376a572464736f6c63430008090033",
  "linkReferences": {},
  "deployedLinkReferences": {}
}