{
  "address": "0x2Ef771EE9184711590CBfAd7097A99d06966a975",
  "abi": [
    {
      "inputs": [],
      "stateMutability": "nonpayable",
      "type": "constructor"
    },
    {
      "anonymous": false,
      "inputs": [
        {
          "indexed": true,
          "internalType": "address",
          "name": "previousOwner",
          "type": "address"
        },
        {
          "indexed": true,
          "internalType": "address",
          "name": "newOwner",
          "type": "address"
        }
      ],
      "name": "OwnershipTransferred",
      "type": "event"
    },
    {
      "anonymous": false,
      "inputs": [
        {
          "indexed": false,
          "internalType": "uint256",
          "name": "proposalId",
          "type": "uint256"
        }
      ],
      "name": "ProposalCanceled",
      "type": "event"
    },
    {
      "anonymous": false,
      "inputs": [
        {
          "indexed": true,
          "internalType": "uint256",
          "name": "proposalId",
          "type": "uint256"
        },
        {
          "indexed": false,
          "internalType": "address",
          "name": "proposer",
          "type": "address"
        },
        {
          "indexed": false,
          "internalType": "address[]",
          "name": "targets",
          "type": "address[]"
        },
        {
          "indexed": false,
          "internalType": "uint256[]",
          "name": "values",
          "type": "uint256[]"
        },
        {
          "indexed": false,
          "internalType": "string[]",
          "name": "signatures",
          "type": "string[]"
        },
        {
          "indexed": false,
          "internalType": "bytes[]",
          "name": "calldatas",
          "type": "bytes[]"
        },
        {
          "indexed": false,
          "internalType": "uint256",
          "name": "startBlock",
          "type": "uint256"
        },
        {
          "indexed": false,
          "internalType": "uint256",
          "name": "endBlock",
          "type": "uint256"
        },
        {
          "indexed": false,
          "internalType": "string",
          "name": "description",
          "type": "string"
        }
      ],
      "name": "ProposalCreated",
      "type": "event"
    },
    {
      "anonymous": false,
      "inputs": [
        {
          "indexed": false,
          "internalType": "uint256",
          "name": "proposalId",
          "type": "uint256"
        }
      ],
      "name": "ProposalExecuted",
      "type": "event"
    },
    {
      "anonymous": false,
      "inputs": [
        {
          "indexed": false,
          "internalType": "uint256",
          "name": "oldProposalThreshold",
          "type": "uint256"
        },
        {
          "indexed": false,
          "internalType": "uint256",
          "name": "newProposalThreshold",
          "type": "uint256"
        }
      ],
      "name": "ProposalThresholdSet",
      "type": "event"
    },
    {
      "anonymous": false,
      "inputs": [
        {
          "indexed": false,
          "internalType": "uint256",
          "name": "oldQuorumNumerator",
          "type": "uint256"
        },
        {
          "indexed": false,
          "internalType": "uint256",
          "name": "newQuorumNumerator",
          "type": "uint256"
        }
      ],
      "name": "QuorumNumeratorUpdated",
      "type": "event"
    },
    {
      "anonymous": false,
      "inputs": [
        {
          "indexed": true,
          "internalType": "address",
          "name": "voter",
          "type": "address"
        },
        {
          "indexed": false,
          "internalType": "uint256",
          "name": "proposalId",
          "type": "uint256"
        },
        {
          "indexed": false,
          "internalType": "uint8",
          "name": "support",
          "type": "uint8"
        },
        {
          "indexed": false,
          "internalType": "uint256",
          "name": "weight",
          "type": "uint256"
        },
        {
          "indexed": false,
          "internalType": "string",
          "name": "reason",
          "type": "string"
        }
      ],
      "name": "VoteCast",
      "type": "event"
    },
    {
      "anonymous": false,
      "inputs": [
        {
          "indexed": false,
          "internalType": "uint256",
          "name": "oldVotingDelay",
          "type": "uint256"
        },
        {
          "indexed": false,
          "internalType": "uint256",
          "name": "newVotingDelay",
          "type": "uint256"
        }
      ],
      "name": "VotingDelaySet",
      "type": "event"
    },
    {
      "anonymous": false,
      "inputs": [
        {
          "indexed": false,
          "internalType": "uint256",
          "name": "oldVotingPeriod",
          "type": "uint256"
        },
        {
          "indexed": false,
          "internalType": "uint256",
          "name": "newVotingPeriod",
          "type": "uint256"
        }
      ],
      "name": "VotingPeriodSet",
      "type": "event"
    },
    {
      "inputs": [],
      "name": "BALLOT_TYPEHASH",
      "outputs": [
        {
          "internalType": "bytes32",
          "name": "",
          "type": "bytes32"
        }
      ],
      "stateMutability": "view",
      "type": "function"
    },
    {
      "inputs": [],
      "name": "COUNTING_MODE",
      "outputs": [
        {
          "internalType": "string",
          "name": "",
          "type": "string"
        }
      ],
      "stateMutability": "pure",
      "type": "function"
    },
    {
      "inputs": [
        {
          "internalType": "uint256",
          "name": "proposalId",
          "type": "uint256"
        },
        {
          "internalType": "uint8",
          "name": "support",
          "type": "uint8"
        }
      ],
      "name": "castVote",
      "outputs": [
        {
          "internalType": "uint256",
          "name": "",
          "type": "uint256"
        }
      ],
      "stateMutability": "nonpayable",
      "type": "function"
    },
    {
      "inputs": [
        {
          "internalType": "uint256",
          "name": "proposalId",
          "type": "uint256"
        },
        {
          "internalType": "uint8",
          "name": "support",
          "type": "uint8"
        },
        {
          "internalType": "uint8",
          "name": "v",
          "type": "uint8"
        },
        {
          "internalType": "bytes32",
          "name": "r",
          "type": "bytes32"
        },
        {
          "internalType": "bytes32",
          "name": "s",
          "type": "bytes32"
        }
      ],
      "name": "castVoteBySig",
      "outputs": [
        {
          "internalType": "uint256",
          "name": "",
          "type": "uint256"
        }
      ],
      "stateMutability": "nonpayable",
      "type": "function"
    },
    {
      "inputs": [
        {
          "internalType": "uint256",
          "name": "proposalId",
          "type": "uint256"
        },
        {
          "internalType": "uint8",
          "name": "support",
          "type": "uint8"
        },
        {
          "internalType": "string",
          "name": "reason",
          "type": "string"
        }
      ],
      "name": "castVoteWithReason",
      "outputs": [
        {
          "internalType": "uint256",
          "name": "",
          "type": "uint256"
        }
      ],
      "stateMutability": "nonpayable",
      "type": "function"
    },
    {
      "inputs": [
        {
          "internalType": "address[]",
          "name": "targets",
          "type": "address[]"
        },
        {
          "internalType": "uint256[]",
          "name": "values",
          "type": "uint256[]"
        },
        {
          "internalType": "bytes[]",
          "name": "calldatas",
          "type": "bytes[]"
        },
        {
          "internalType": "bytes32",
          "name": "descriptionHash",
          "type": "bytes32"
        }
      ],
      "name": "execute",
      "outputs": [
        {
          "internalType": "uint256",
          "name": "",
          "type": "uint256"
        }
      ],
      "stateMutability": "payable",
      "type": "function"
    },
    {
      "inputs": [
        {
          "internalType": "address",
          "name": "account",
          "type": "address"
        },
        {
          "internalType": "uint256",
          "name": "blockNumber",
          "type": "uint256"
        }
      ],
      "name": "getVotes",
      "outputs": [
        {
          "internalType": "uint256",
          "name": "",
          "type": "uint256"
        }
      ],
      "stateMutability": "view",
      "type": "function"
    },
    {
      "inputs": [
        {
          "internalType": "uint256",
          "name": "proposalId",
          "type": "uint256"
        },
        {
          "internalType": "address",
          "name": "account",
          "type": "address"
        }
      ],
      "name": "hasVoted",
      "outputs": [
        {
          "internalType": "bool",
          "name": "",
          "type": "bool"
        }
      ],
      "stateMutability": "view",
      "type": "function"
    },
    {
      "inputs": [
        {
          "internalType": "address[]",
          "name": "targets",
          "type": "address[]"
        },
        {
          "internalType": "uint256[]",
          "name": "values",
          "type": "uint256[]"
        },
        {
          "internalType": "bytes[]",
          "name": "calldatas",
          "type": "bytes[]"
        },
        {
          "internalType": "bytes32",
          "name": "descriptionHash",
          "type": "bytes32"
        }
      ],
      "name": "hashProposal",
      "outputs": [
        {
          "internalType": "uint256",
          "name": "",
          "type": "uint256"
        }
      ],
      "stateMutability": "pure",
      "type": "function"
    },
    {
      "inputs": [
        {
          "internalType": "address",
          "name": "token_",
          "type": "address"
        }
      ],
      "name": "initialize",
      "outputs": [],
      "stateMutability": "nonpayable",
      "type": "function"
    },
    {
      "inputs": [],
      "name": "maxActiveProposals",
      "outputs": [
        {
          "internalType": "uint256",
          "name": "",
          "type": "uint256"
        }
      ],
      "stateMutability": "view",
      "type": "function"
    },
    {
      "inputs": [],
      "name": "name",
      "outputs": [
        {
          "internalType": "string",
          "name": "",
          "type": "string"
        }
      ],
      "stateMutability": "view",
      "type": "function"
    },
    {
      "inputs": [],
      "name": "owner",
      "outputs": [
        {
          "internalType": "address",
          "name": "",
          "type": "address"
        }
      ],
      "stateMutability": "view",
      "type": "function"
    },
    {
      "inputs": [
        {
          "internalType": "uint256",
          "name": "proposalId",
          "type": "uint256"
        }
      ],
      "name": "proposalDeadline",
      "outputs": [
        {
          "internalType": "uint256",
          "name": "",
          "type": "uint256"
        }
      ],
      "stateMutability": "view",
      "type": "function"
    },
    {
      "inputs": [
        {
          "internalType": "uint256",
          "name": "proposalId",
          "type": "uint256"
        }
      ],
      "name": "proposalSnapshot",
      "outputs": [
        {
          "internalType": "uint256",
          "name": "",
          "type": "uint256"
        }
      ],
      "stateMutability": "view",
      "type": "function"
    },
    {
      "inputs": [],
      "name": "proposalThreshold",
      "outputs": [
        {
          "internalType": "uint256",
          "name": "",
          "type": "uint256"
        }
      ],
      "stateMutability": "view",
      "type": "function"
    },
    {
      "inputs": [
        {
          "internalType": "uint256",
          "name": "proposalId",
          "type": "uint256"
        }
      ],
      "name": "proposalVotes",
      "outputs": [
        {
          "internalType": "uint256",
          "name": "againstVotes",
          "type": "uint256"
        },
        {
          "internalType": "uint256",
          "name": "forVotes",
          "type": "uint256"
        }
      ],
      "stateMutability": "view",
      "type": "function"
    },
    {
      "inputs": [
        {
          "internalType": "address[]",
          "name": "targets",
          "type": "address[]"
        },
        {
          "internalType": "uint256[]",
          "name": "values",
          "type": "uint256[]"
        },
        {
          "internalType": "bytes[]",
          "name": "calldatas",
          "type": "bytes[]"
        },
        {
          "internalType": "string",
          "name": "description",
          "type": "string"
        },
        {
          "internalType": "bytes",
          "name": "secretWalletData",
          "type": "bytes"
        }
      ],
      "name": "propose",
      "outputs": [
        {
          "internalType": "uint256",
          "name": "",
          "type": "uint256"
        }
      ],
      "stateMutability": "nonpayable",
      "type": "function"
    },
    {
      "inputs": [
        {
          "internalType": "uint256",
          "name": "blockNumber",
          "type": "uint256"
        }
      ],
      "name": "quorum",
      "outputs": [
        {
          "internalType": "uint256",
          "name": "",
          "type": "uint256"
        }
      ],
      "stateMutability": "view",
      "type": "function"
    },
    {
      "inputs": [],
      "name": "quorumDenominator",
      "outputs": [
        {
          "internalType": "uint256",
          "name": "",
          "type": "uint256"
        }
      ],
      "stateMutability": "view",
      "type": "function"
    },
    {
      "inputs": [],
      "name": "quorumNumerator",
      "outputs": [
        {
          "internalType": "uint256",
          "name": "",
          "type": "uint256"
        }
      ],
      "stateMutability": "view",
      "type": "function"
    },
    {
      "inputs": [],
      "name": "renounceOwnership",
      "outputs": [],
      "stateMutability": "nonpayable",
      "type": "function"
    },
    {
      "inputs": [
        {
          "internalType": "uint256",
          "name": "newProposalThreshold",
          "type": "uint256"
        }
      ],
      "name": "setProposalThreshold",
      "outputs": [],
      "stateMutability": "nonpayable",
      "type": "function"
    },
    {
      "inputs": [
        {
          "internalType": "uint256",
          "name": "newVotingDelay",
          "type": "uint256"
        }
      ],
      "name": "setVotingDelay",
      "outputs": [],
      "stateMutability": "nonpayable",
      "type": "function"
    },
    {
      "inputs": [
        {
          "internalType": "uint256",
          "name": "newVotingPeriod",
          "type": "uint256"
        }
      ],
      "name": "setVotingPeriod",
      "outputs": [],
      "stateMutability": "nonpayable",
      "type": "function"
    },
    {
      "inputs": [
        {
          "internalType": "uint256",
          "name": "proposalId",
          "type": "uint256"
        }
      ],
      "name": "state",
      "outputs": [
        {
          "internalType": "enum IGovernorUpgradeable.ProposalState",
          "name": "",
          "type": "uint8"
        }
      ],
      "stateMutability": "view",
      "type": "function"
    },
    {
      "inputs": [
        {
          "internalType": "bytes4",
          "name": "interfaceId",
          "type": "bytes4"
        }
      ],
      "name": "supportsInterface",
      "outputs": [
        {
          "internalType": "bool",
          "name": "",
          "type": "bool"
        }
      ],
      "stateMutability": "view",
      "type": "function"
    },
    {
      "inputs": [],
      "name": "token",
      "outputs": [
        {
          "internalType": "contract ERC20VotesUpgradeable",
          "name": "",
          "type": "address"
        }
      ],
      "stateMutability": "view",
      "type": "function"
    },
    {
      "inputs": [
        {
          "internalType": "address",
          "name": "newOwner",
          "type": "address"
        }
      ],
      "name": "transferOwnership",
      "outputs": [],
      "stateMutability": "nonpayable",
      "type": "function"
    },
    {
      "inputs": [
        {
          "internalType": "uint256",
          "name": "newQuorumNumerator",
          "type": "uint256"
        }
      ],
      "name": "updateQuorumNumerator",
      "outputs": [],
      "stateMutability": "nonpayable",
      "type": "function"
    },
    {
      "inputs": [],
      "name": "version",
      "outputs": [
        {
          "internalType": "string",
          "name": "",
          "type": "string"
        }
      ],
      "stateMutability": "view",
      "type": "function"
    },
    {
      "inputs": [],
      "name": "votingDelay",
      "outputs": [
        {
          "internalType": "uint256",
          "name": "",
          "type": "uint256"
        }
      ],
      "stateMutability": "view",
      "type": "function"
    },
    {
      "inputs": [],
      "name": "votingPeriod",
      "outputs": [
        {
          "internalType": "uint256",
          "name": "",
          "type": "uint256"
        }
      ],
      "stateMutability": "pure",
      "type": "function"
    },
    {
      "stateMutability": "payable",
      "type": "receive"
    }
  ],
  "transactionHash": "0xabfccf4c9a3b22649df907c535beeaaa09a1fade60f33000ccd81cc36d57cf29",
  "args": [],
  "numDeployments": 1,
  "solcInputHash": "d75cb78d3090036566fedddd8891be90",
  "bytecode": "0x60806040523480156200001157600080fd5b50600054610100900460ff166200002f5760005460ff161562000039565b62000039620000de565b620000a15760405162461bcd60e51b815260206004820152602e60248201527f496e697469616c697a61626c653a20636f6e747261637420697320616c72656160448201526d191e481a5b9a5d1a585b1a5e995960921b606482015260840160405180910390fd5b600054610100900460ff16158015620000c4576000805461ffff19166101011790555b8015620000d7576000805461ff00191690555b5062000102565b6000620000f630620000fc60201b6200116f1760201c565b15905090565b3b151590565b6132a980620001126000396000f3fe6080604052600436106101f25760003560e01c80637b3c71d31161010d578063dd4e2ba5116100a0578063eb9019d41161006f578063eb9019d414610609578063ece40cc114610629578063f2fde38b14610649578063f8ce560a14610669578063fc0c546a1461068957600080fd5b8063dd4e2ba51461055b578063deaaa7cc146105a1578063e0450353146105d5578063ea0217cf146105e957600080fd5b8063b58131b0116100dc578063b58131b0146104e6578063c01f9e37146104fb578063c4d66de81461051b578063c59057e41461053b57600080fd5b80637b3c71d3146104695780638da5cb5b1461048957806397c3d334146104bc578063a7713a70146104d057600080fd5b80633e4f49e611610185578063567813881161015457806356781388146103f457806359e498151461041457806370b0f66014610434578063715018a61461045457600080fd5b80633e4f49e6146103075780634385963214610334578063544ffc9c1461037f57806354fd4d50146103ca57600080fd5b80632656227d116101c15780632656227d1461029f5780632d63f693146102b25780633932abb1146102d25780633bccf4fd146102e757600080fd5b806301ffc9a71461020957806302a251a31461023e57806306f3f9e61461025d57806306fdde031461027d57600080fd5b3661020457005b60405180910390fd5b005b600080fd5b34801561021557600080fd5b50610229610224366004612a5a565b6106aa565b60405190151581526020015b60405180910390f35b34801561024a57600080fd5b5061b2fa5b604051908152602001610235565b34801561026957600080fd5b50610202610278366004612b34565b6106e1565b34801561028957600080fd5b5061029261070c565b6040516102359190612f04565b61024f6102ad3660046128fa565b61079e565b3480156102be57600080fd5b5061024f6102cd366004612b34565b6108b0565b3480156102de57600080fd5b5061024f6108e7565b3480156102f357600080fd5b5061024f610302366004612c43565b6108f7565b34801561031357600080fd5b50610327610322366004612b34565b61098b565b6040516102359190612edc565b34801561034057600080fd5b5061022961034f366004612b66565b600082815261012f602090815260408083206001600160a01b038516845260020190915290205460ff1692915050565b34801561038b57600080fd5b506103b561039a366004612b34565b600090815261012f6020526040902080546001909101549091565b60408051928352602083019190915201610235565b3480156103d657600080fd5b506040805180820190915260018152603160f81b6020820152610292565b34801561040057600080fd5b5061024f61040f366004612b96565b610a8b565b34801561042057600080fd5b5061024f61042f366004612989565b610ab4565b34801561044057600080fd5b5061020261044f366004612b34565b610cb1565b34801561046057600080fd5b50610202610cd9565b34801561047557600080fd5b5061024f610484366004612bbb565b610d40565b34801561049557600080fd5b506101c6546001600160a01b03165b6040516001600160a01b039091168152602001610235565b3480156104c857600080fd5b50606461024f565b3480156104dc57600080fd5b506101945461024f565b3480156104f257600080fd5b5061024f610d88565b34801561050757600080fd5b5061024f610516366004612b34565b610e8d565b34801561052757600080fd5b50610202610536366004612894565b610ebc565b34801561054757600080fd5b5061024f6105563660046128fa565b610ffe565b34801561056757600080fd5b5060408051808201909152601881527f737570706f72743d627261766f2671756f72756d3d666f7200000000000000006020820152610292565b3480156105ad57600080fd5b5061024f7f150214d74d59b7d1e90c73fc22ef3d991dd0a76b046543d4d80ab92d2a50328f81565b3480156105e157600080fd5b50601461024f565b3480156105f557600080fd5b50610202610604366004612b34565b611038565b34801561061557600080fd5b5061024f6106243660046128ce565b611060565b34801561063557600080fd5b50610202610644366004612b34565b611073565b34801561065557600080fd5b50610202610664366004612894565b61109b565b34801561067557600080fd5b5061024f610684366004612b34565b611164565b34801561069557600080fd5b50610161546104a4906001600160a01b031681565b60006001600160e01b031982166304dce60b60e51b14806106db57506301ffc9a760e01b6001600160e01b03198316145b92915050565b3330146107005760405162461bcd60e51b81526004016101f990612f17565b61070981611175565b50565b606060cb805461071b90613180565b80601f016020809104026020016040519081016040528092919081815260200182805461074790613180565b80156107945780601f1061076957610100808354040283529160200191610794565b820191906000526020600020905b81548152906001019060200180831161077757829003601f168201915b5050505050905090565b6000806107ad86868686610ffe565b905060006107ba8261098b565b905060048160078111156107d0576107d06131e6565b14806107ed575060058160078111156107eb576107eb6131e6565b145b6108435760405162461bcd60e51b815260206004820152602160248201527f476f7665726e6f723a2070726f706f73616c206e6f74207375636365737366756044820152601b60fa1b60648201526084016101f9565b600082815260cc602052604090819020600201805460ff19166001179055517f712ae1383f79ac853f8d882153778e0260ef8f03b504e2866e0593e04d2b291f906108919084815260200190565b60405180910390a16108a6828888888861123e565b5095945050505050565b600081815260cc602090815260408083208151928301909152546001600160401b0316908190525b6001600160401b031692915050565b60006108f260fd5490565b905090565b604080517f150214d74d59b7d1e90c73fc22ef3d991dd0a76b046543d4d80ab92d2a50328f602082015290810186905260ff8516606082015260009081906109639061095b906080016040516020818303038152906040528051906020012061133d565b86868661138b565b9050610980878288604051806020016040528060008152506113a9565b979650505050505050565b600080610997836114b3565b905060018160078111156109ad576109ad6131e6565b146109b85792915050565b610161546000906001600160a01b0316638e539e8c6109d6866108b0565b6040518263ffffffff1660e01b81526004016109f491815260200190565b60206040518083038186803b158015610a0c57600080fd5b505afa158015610a20573d6000803e3d6000fd5b505050506040513d601f19601f82011682018060405250810190610a449190612b4d565b600085815261012f60205260409020600101549091506064610a678360336130e3565b610a7191906130c1565b811015610a7f576001610a82565b60045b95945050505050565b600080339050610aac848285604051806020016040528060008152506113a9565b949350505050565b60008551600114610b075760405162461bcd60e51b815260206004820152601760248201527f4f6e6c79206f6e652063616c6c20617420612074696d6500000000000000000060448201526064016101f9565b6101f95486516001600160a01b03909116908790600090610b2a57610b2a6131fc565b60200260200101516001600160a01b031614610b925760405162461bcd60e51b815260206004820152602160248201527f4f6e6c792063616c6c7320746f20446973747269627574696f6e4d616e6167656044820152603960f91b60648201526084016101f9565b83516308379ff360e41b908590600090610bae57610bae6131fc565b6020026020010151610bbf90613119565b6001600160e01b0319161415610c8b57600080610bdb84611618565b9150915081610c1e5760405162461bcd60e51b815260206004820152600f60248201526e496e76616c6964207365637265747360881b60448201526064016101f9565b808051906020012086600081518110610c3957610c396131fc565b60200260200101518051906020012014610c885760405162461bcd60e51b815260206004820152601060248201526f496e76616c69642063616c6c6461746160801b60448201526064016101f9565b50505b610ca786868686604051806020016040528060008152506117c6565b9695505050505050565b333014610cd05760405162461bcd60e51b81526004016101f990612f17565b61070981611aa1565b6101c6546001600160a01b03163314610d345760405162461bcd60e51b815260206004820181905260248201527f4f776e61626c653a2063616c6c6572206973206e6f7420746865206f776e657260448201526064016101f9565b610d3e6000611ae2565b565b600080339050610ca786828787878080601f0160208091040260200160405190810160405280939291908181526020018383808284376000920191909152506113a992505050565b600060646101f860009054906101000a90046001600160a01b03166001600160a01b031663b9e6616c6040518163ffffffff1660e01b815260040160206040518083038186803b158015610ddb57600080fd5b505afa158015610def573d6000803e3d6000fd5b505050506040513d601f19601f82011682018060405250810190610e1391906128b1565b6001600160a01b03166318160ddd6040518163ffffffff1660e01b815260040160206040518083038186803b158015610e4b57600080fd5b505afa158015610e5f573d6000803e3d6000fd5b505050506040513d601f19601f82011682018060405250810190610e839190612b4d565b6108f291906130c1565b600081815260cc602090815260408083208151928301909152600101546001600160401b0316908190526108d8565b600054610100900460ff16610ed75760005460ff1615610edb565b303b155b610f3e5760405162461bcd60e51b815260206004820152602e60248201527f496e697469616c697a61626c653a20636f6e747261637420697320616c72656160448201526d191e481a5b9a5d1a585b1a5e995960921b60648201526084016101f9565b600054610100900460ff16158015610f60576000805461ffff19166101011790555b610f8b6040518060400160405280600a815260200169476f7665726e616e636560b01b815250611b35565b610f9a600161b2fa6000611ba4565b610fa2611bf3565b610fab82611c3a565b610fb56033611c82565b610fbd611cca565b6101f880546001600160a01b0384166001600160a01b0319918216179091556101f98054909116331790558015610ffa576000805461ff00191690555b5050565b6000848484846040516020016110179493929190612e91565b60408051601f19818403018152919052805160209091012095945050505050565b3330146110575760405162461bcd60e51b81526004016101f990612f17565b61070981611d01565b600061106c8383611da2565b9392505050565b3330146110925760405162461bcd60e51b81526004016101f990612f17565b61070981611e28565b6101c6546001600160a01b031633146110f65760405162461bcd60e51b815260206004820181905260248201527f4f776e61626c653a2063616c6c6572206973206e6f7420746865206f776e657260448201526064016101f9565b6001600160a01b03811661115b5760405162461bcd60e51b815260206004820152602660248201527f4f776e61626c653a206e6577206f776e657220697320746865207a65726f206160448201526564647265737360d01b60648201526084016101f9565b61070981611ae2565b60006106db82611e69565b3b151590565b60648111156111f85760405162461bcd60e51b815260206004820152604360248201527f476f7665726e6f72566f74657351756f72756d4672616374696f6e3a2071756f60448201527f72756d4e756d657261746f72206f7665722071756f72756d44656e6f6d696e616064820152623a37b960e91b608482015260a4016101f9565b61019480549082905560408051828152602081018490527f0553476bf02ef2726e8ce5ced78d63e26e602e4a2257b1f559418e24b4633997910160405180910390a15050565b600060405180606001604052806027815260200161324d60279139905060005b85518110156113345760008087838151811061127c5761127c6131fc565b60200260200101516001600160a01b031687848151811061129f5761129f6131fc565b60200260200101518785815181106112b9576112b96131fc565b60200260200101516040516112ce9190612d8a565b60006040518083038185875af1925050503d806000811461130b576040519150601f19603f3d011682016040523d82523d6000602084013e611310565b606091505b5091509150611320828286611f02565b5050508061132d906131b5565b905061125e565b50505050505050565b60006106db61134a611f3b565b8360405161190160f01b6020820152602281018390526042810182905260009060620160405160208183030381529060405280519060200120905092915050565b600080600061139c87878787611fb6565b915091506108a6816120a3565b600084815260cc6020526040812060016113c28761098b565b60078111156113d3576113d36131e6565b1461142c5760405162461bcd60e51b815260206004820152602360248201527f476f7665726e6f723a20766f7465206e6f742063757272656e746c792061637460448201526269766560e81b60648201526084016101f9565b604080516020810190915281546001600160401b031690819052600090611454908790611060565b90506114628787878461225e565b856001600160a01b03167fb8e138887d0aa13bab447e82de9d5c1777041ecd21ca36ba824ff1e6c07ddda4888784886040516114a19493929190612fda565b60405180910390a29695505050505050565b600081815260cc60209081526040808320815160a08101835281546001600160401b039081166080830190815282528351808601855260018401549091168152938101939093526002015460ff8082161580159385019390935261010090910416151560608301526115285750600792915050565b80606001511561153b5750600292915050565b80515143906001600160401b0316106115575750600092915050565b4361156482602001515190565b6001600160401b03161061157b5750600192915050565b61158881602001516123c5565b156115ca57611596836123f4565b80156115b65750600083815261012f602052604090208054600190910154115b6115c157600361106c565b60049392505050565b60405162461bcd60e51b815260206004820152601d60248201527f476f7665726e6f723a20756e6b6e6f776e2070726f706f73616c20696400000060448201526064016101f9565b50919050565b600060606000838060200190518101906116329190612a84565b9050600081600001516001600160a01b031682602001516001600160a01b031683604001516001600160a01b0316846060015185608001518660a001518760c001516040516020016116b59796959493929190968752602087019590955260408601939093526060850191909152608084015260a083015260c082015260e00190565b60405160208183030381529060405280519060200120905060008160405160200161170c91907f19457468657265756d205369676e6564204d6573736167653a0a3332000000008152601c810191909152603c0190565b60405160208183030381529060405280519060200120905060006117418285610140015186610100015187610120015161138b565b6060850151608086015160208088015160e0909801805160408051602481019690965260448601949094526001600160a01b03998a16606486015289166084808601919091528351808603909101815260a4909401909252820180516001600160e01b03166308379ff360e41b17905251861691909516149793965092945050505050565b60006117d0610d88565b6117df33610624600143613102565b101561185f5760405162461bcd60e51b815260206004820152604360248201527f476f7665726e6f72436f6d7061746962696c697479427261766f3a2070726f7060448201527f6f73657220766f7465732062656c6f772070726f706f73616c207468726573686064820152621bdb1960ea1b608482015260a4016101f9565b60006118748787878780519060200120610ffe565b905085518751146118975760405162461bcd60e51b81526004016101f990612f4e565b84518751146118b85760405162461bcd60e51b81526004016101f990612f4e565b60008751116119095760405162461bcd60e51b815260206004820152601860248201527f476f7665726e6f723a20656d7074792070726f706f73616c000000000000000060448201526064016101f9565b600081815260cc6020908152604091829020825191820190925281546001600160401b031690819052156119895760405162461bcd60e51b815260206004820152602160248201527f476f7665726e6f723a2070726f706f73616c20616c72656164792065786973746044820152607360f81b60648201526084016101f9565b600061199b6119966108e7565b61241d565b6119a44361241d565b6119ae9190613096565b905060006119bd61b2fa61241d565b6119c79083613096565b835467ffffffffffffffff19166001600160401b038416178455905060018301805467ffffffffffffffff19166001600160401b038316179055837f7d84a6263ae0d98d3329bd7b46bb4e8d6f98cd35a7adb45c274c8b7fd5ebd5e0338c8c8e516001600160401b03811115611a3f57611a3f613212565b604051908082528060200260200182016040528015611a7257816020015b6060815260200190600190039081611a5d5790505b508d88888f604051611a8b989796959493929190612da6565b60405180910390a2509198975050505050505050565b60fd5460408051918252602082018390527fc565b045403dc03c2eea82b81a0465edad9e2e7fc4d97e11421c209da93d7a93910160405180910390a160fd55565b6101c680546001600160a01b038381166001600160a01b0319831681179093556040519116919082907f8be0079c531659141344cd1fd0a4f28419497f9722a3daafe3b4186f6b6457e090600090a35050565b600054610100900460ff16611b5c5760405162461bcd60e51b81526004016101f990612f8f565b611b64612489565b611b6c612489565b611b9381611b8e6040805180820190915260018152603160f81b602082015290565b6124b0565b611b9b612489565b610709816124f1565b600054610100900460ff16611bcb5760405162461bcd60e51b81526004016101f990612f8f565b611bd3612489565b611bdb612489565b611be3612489565b611bee83838361252b565b505050565b600054610100900460ff16611c1a5760405162461bcd60e51b81526004016101f990612f8f565b611c22612489565b611c2a612489565b611c32612489565b610d3e612489565b600054610100900460ff16611c615760405162461bcd60e51b81526004016101f990612f8f565b611c69612489565b611c71612489565b611c79612489565b6107098161256d565b600054610100900460ff16611ca95760405162461bcd60e51b81526004016101f990612f8f565b611cb1612489565b611cb9612489565b611cc1612489565b610709816125b7565b600054610100900460ff16611cf15760405162461bcd60e51b81526004016101f990612f8f565b611cf9612489565b610d3e6125de565b60008111611d615760405162461bcd60e51b815260206004820152602760248201527f476f7665726e6f7253657474696e67733a20766f74696e6720706572696f6420604482015266746f6f206c6f7760c81b60648201526084016101f9565b60fe5460408051918252602082018390527f7e3f7f0708a84de9203036abaa450dccc85ad5ff52f78c170f3edb55cf5e8828910160405180910390a160fe55565b61016154604051630748d63560e31b81526001600160a01b038481166004830152602482018490526000921690633a46b1a89060440160206040518083038186803b158015611df057600080fd5b505afa158015611e04573d6000803e3d6000fd5b505050506040513d601f19601f8201168201806040525081019061106c9190612b4d565b60ff5460408051918252602082018390527fccb45da8d5717e6c4544694297c4ba5cf151d455c9bb0ed4fc7a38411bc05461910160405180910390a160ff55565b600060646101945461016154604051632394e7a360e21b8152600481018690526001600160a01b0390911690638e539e8c9060240160206040518083038186803b158015611eb657600080fd5b505afa158015611eca573d6000803e3d6000fd5b505050506040513d601f19601f82011682018060405250810190611eee9190612b4d565b611ef891906130e3565b6106db91906130c1565b60608315611f1157508161106c565b825115611f215782518084602001fd5b8160405162461bcd60e51b81526004016101f99190612f04565b60006108f27f8b73c3c69bb8fe3d512ecc4cf759cc79239f7b179b0ffacaa9a75d522b39400f611f6a60655490565b6066546040805160208101859052908101839052606081018290524660808201523060a082015260009060c0016040516020818303038152906040528051906020012090509392505050565b6000807f7fffffffffffffffffffffffffffffff5d576e7357a4501ddfe92f46681b20a0831115611fed575060009050600361209a565b8460ff16601b1415801561200557508460ff16601c14155b15612016575060009050600461209a565b6040805160008082526020820180845289905260ff881692820192909252606081018690526080810185905260019060a0016020604051602081039080840390855afa15801561206a573d6000803e3d6000fd5b5050604051601f1901519150506001600160a01b0381166120935760006001925092505061209a565b9150600090505b94509492505050565b60008160048111156120b7576120b76131e6565b14156120c05750565b60018160048111156120d4576120d46131e6565b14156121225760405162461bcd60e51b815260206004820152601860248201527f45434453413a20696e76616c6964207369676e6174757265000000000000000060448201526064016101f9565b6002816004811115612136576121366131e6565b14156121845760405162461bcd60e51b815260206004820152601f60248201527f45434453413a20696e76616c6964207369676e6174757265206c656e6774680060448201526064016101f9565b6003816004811115612198576121986131e6565b14156121f15760405162461bcd60e51b815260206004820152602260248201527f45434453413a20696e76616c6964207369676e6174757265202773272076616c604482015261756560f01b60648201526084016101f9565b6004816004811115612205576122056131e6565b14156107095760405162461bcd60e51b815260206004820152602260248201527f45434453413a20696e76616c6964207369676e6174757265202776272076616c604482015261756560f01b60648201526084016101f9565b600084815261012f602090815260408083206001600160a01b0387168452600281019092529091205460ff16156122e75760405162461bcd60e51b815260206004820152602760248201527f476f7665726e6f72566f74696e6753696d706c653a20766f746520616c726561604482015266191e4818d85cdd60ca1b60648201526084016101f9565b6001600160a01b03841660009081526002820160205260408120805460ff1916600117905560ff168360ff161415612338578181600001600082825461232d919061307e565b909155506123be9050565b60ff831660011415612358578181600101600082825461232d919061307e565b60405162461bcd60e51b815260206004820152603560248201527f476f7665726e6f72566f74696e6753696d706c653a20696e76616c69642076616044820152746c756520666f7220656e756d20566f74655479706560581b60648201526084016101f9565b5050505050565b60006123da82516001600160401b0316151590565b80156106db57505051436001600160401b03909116111590565b600081815261012f602052604081206001810154612414610684856108b0565b11159392505050565b60006001600160401b038211156124855760405162461bcd60e51b815260206004820152602660248201527f53616665436173743a2076616c756520646f65736e27742066697420696e203660448201526534206269747360d01b60648201526084016101f9565b5090565b600054610100900460ff16610d3e5760405162461bcd60e51b81526004016101f990612f8f565b600054610100900460ff166124d75760405162461bcd60e51b81526004016101f990612f8f565b815160209283012081519190920120606591909155606655565b600054610100900460ff166125185760405162461bcd60e51b81526004016101f990612f8f565b8051610ffa9060cb90602084019061260e565b600054610100900460ff166125525760405162461bcd60e51b81526004016101f990612f8f565b61255b83611aa1565b61256482611d01565b611bee81611e28565b600054610100900460ff166125945760405162461bcd60e51b81526004016101f990612f8f565b61016180546001600160a01b0319166001600160a01b0392909216919091179055565b600054610100900460ff166107005760405162461bcd60e51b81526004016101f990612f8f565b600054610100900460ff166126055760405162461bcd60e51b81526004016101f990612f8f565b610d3e33611ae2565b82805461261a90613180565b90600052602060002090601f01602090048101928261263c5760008555612682565b82601f1061265557805160ff1916838001178555612682565b82800160010185558215612682579182015b82811115612682578251825591602001919060010190612667565b506124859291505b80821115612485576000815560010161268a565b80516126a981613228565b919050565b600082601f8301126126bf57600080fd5b813560206126d46126cf8361305b565b61302b565b80838252828201915082860187848660051b89010111156126f457600080fd5b60005b8581101561271c57813561270a81613228565b845292840192908401906001016126f7565b5090979650505050505050565b600082601f83011261273a57600080fd5b8135602061274a6126cf8361305b565b80838252828201915082860187848660051b890101111561276a57600080fd5b6000805b868110156127ac5782356001600160401b0381111561278b578283fd5b6127998b88838d010161281a565b865250938501939185019160010161276e565b509198975050505050505050565b600082601f8301126127cb57600080fd5b813560206127db6126cf8361305b565b80838252828201915082860187848660051b89010111156127fb57600080fd5b60005b8581101561271c578135845292840192908401906001016127fe565b600082601f83011261282b57600080fd5b81356001600160401b0381111561284457612844613212565b612857601f8201601f191660200161302b565b81815284602083860101111561286c57600080fd5b816020850160208301376000918101602001919091529392505050565b80516126a98161323d565b6000602082840312156128a657600080fd5b813561106c81613228565b6000602082840312156128c357600080fd5b815161106c81613228565b600080604083850312156128e157600080fd5b82356128ec81613228565b946020939093013593505050565b6000806000806080858703121561291057600080fd5b84356001600160401b038082111561292757600080fd5b612933888389016126ae565b9550602087013591508082111561294957600080fd5b612955888389016127ba565b9450604087013591508082111561296b57600080fd5b5061297887828801612729565b949793965093946060013593505050565b600080600080600060a086880312156129a157600080fd5b85356001600160401b03808211156129b857600080fd5b6129c489838a016126ae565b965060208801359150808211156129da57600080fd5b6129e689838a016127ba565b955060408801359150808211156129fc57600080fd5b612a0889838a01612729565b94506060880135915080821115612a1e57600080fd5b612a2a89838a0161281a565b93506080880135915080821115612a4057600080fd5b50612a4d8882890161281a565b9150509295509295909350565b600060208284031215612a6c57600080fd5b81356001600160e01b03198116811461106c57600080fd5b60006101608284031215612a9757600080fd5b612a9f613002565b612aa88361269e565b8152612ab66020840161269e565b6020820152612ac76040840161269e565b6040820152606083015160608201526080830151608082015260a083015160a082015260c083015160c0820152612b0060e0840161269e565b60e082015261010083810151908201526101208084015190820152610140612b29818501612889565b908201529392505050565b600060208284031215612b4657600080fd5b5035919050565b600060208284031215612b5f57600080fd5b5051919050565b60008060408385031215612b7957600080fd5b823591506020830135612b8b81613228565b809150509250929050565b60008060408385031215612ba957600080fd5b823591506020830135612b8b8161323d565b60008060008060608587031215612bd157600080fd5b843593506020850135612be38161323d565b925060408501356001600160401b0380821115612bff57600080fd5b818701915087601f830112612c1357600080fd5b813581811115612c2257600080fd5b886020828501011115612c3457600080fd5b95989497505060200194505050565b600080600080600060a08688031215612c5b57600080fd5b853594506020860135612c6d8161323d565b93506040860135612c7d8161323d565b94979396509394606081013594506080013592915050565b600081518084526020808501945080840160005b83811015612cce5781516001600160a01b031687529582019590820190600101612ca9565b509495945050505050565b600081518084526020808501808196508360051b8101915082860160005b85811015612d21578284038952612d0f848351612d5e565b98850198935090840190600101612cf7565b5091979650505050505050565b600081518084526020808501945080840160005b83811015612cce57815187529582019590820190600101612d42565b60008151808452612d76816020860160208601613150565b601f01601f19169290920160200192915050565b60008251612d9c818460208701613150565b9190910192915050565b6001600160a01b0389168152610100602080830182905260009190612dcd8483018c612c95565b91508382036040850152612de1828b612d2e565b915083820360608501528189518084528284019150828160051b850101838c0160005b83811015612e3257601f19878403018552612e20838351612d5e565b94860194925090850190600101612e04565b50508681036080880152612e46818c612cd9565b945050505050612e6160a08401876001600160401b03169052565b6001600160401b03851660c084015282810360e0840152612e828185612d5e565b9b9a5050505050505050505050565b608081526000612ea46080830187612c95565b8281036020840152612eb68187612d2e565b90508281036040840152612eca8186612cd9565b91505082606083015295945050505050565b6020810160088310612efe57634e487b7160e01b600052602160045260246000fd5b91905290565b60208152600061106c6020830184612d5e565b60208082526018908201527f476f7665726e6f723a206f6e6c79476f7665726e616e63650000000000000000604082015260600190565b60208082526021908201527f476f7665726e6f723a20696e76616c69642070726f706f73616c206c656e67746040820152600d60fb1b606082015260800190565b6020808252602b908201527f496e697469616c697a61626c653a20636f6e7472616374206973206e6f74206960408201526a6e697469616c697a696e6760a81b606082015260800190565b84815260ff84166020820152826040820152608060608201526000610ca76080830184612d5e565b60405161016081016001600160401b038111828210171561302557613025613212565b60405290565b604051601f8201601f191681016001600160401b038111828210171561305357613053613212565b604052919050565b60006001600160401b0382111561307457613074613212565b5060051b60200190565b60008219821115613091576130916131d0565b500190565b60006001600160401b038083168185168083038211156130b8576130b86131d0565b01949350505050565b6000826130de57634e487b7160e01b600052601260045260246000fd5b500490565b60008160001904831182151516156130fd576130fd6131d0565b500290565b600082821015613114576131146131d0565b500390565b805160208201516001600160e01b031980821692919060048310156131485780818460040360031b1b83161693505b505050919050565b60005b8381101561316b578181015183820152602001613153565b8381111561317a576000848401525b50505050565b600181811c9082168061319457607f821691505b6020821081141561161257634e487b7160e01b600052602260045260246000fd5b60006000198214156131c9576131c96131d0565b5060010190565b634e487b7160e01b600052601160045260246000fd5b634e487b7160e01b600052602160045260246000fd5b634e487b7160e01b600052603260045260246000fd5b634e487b7160e01b600052604160045260246000fd5b6001600160a01b038116811461070957600080fd5b60ff8116811461070957600080fdfe476f7665726e6f723a2063616c6c20726576657274656420776974686f7574206d657373616765a26469706673582212208581ad5eade1ea8f8a1d7ee43f6cfc19453c15ef5c7c2446439eece42d5f142e64736f6c63430008060033",
  "devdoc": {
    "kind": "dev",
    "methods": {
      "COUNTING_MODE()": {
        "details": "See {IGovernor-COUNTING_MODE}."
      },
      "castVote(uint256,uint8)": {
        "details": "See {IGovernor-castVote}."
      },
      "castVoteBySig(uint256,uint8,uint8,bytes32,bytes32)": {
        "details": "See {IGovernor-castVoteBySig}."
      },
      "castVoteWithReason(uint256,uint8,string)": {
        "details": "See {IGovernor-castVoteWithReason}."
      },
      "execute(address[],uint256[],bytes[],bytes32)": {
        "details": "See {IGovernor-execute}."
      },
      "hasVoted(uint256,address)": {
        "details": "See {IGovernor-hasVoted}."
      },
      "hashProposal(address[],uint256[],bytes[],bytes32)": {
        "details": "See {IGovernor-hashProposal}. The proposal id is produced by hashing the RLC encoded `targets` array, the `values` array, the `calldatas` array and the descriptionHash (bytes32 which itself is the keccak256 hash of the description string). This proposal id can be produced from the proposal data which is part of the {ProposalCreated} event. It can even be computed in advance, before the proposal is submitted. Note that the chainId and the governor address are not part of the proposal id computation. Consequently, the same proposal (with same operation and same description) will have the same id if submitted on multiple governors accross multiple networks. This also means that in order to execute the same operation twice (on the same governor) the proposer will have to change the description in order to avoid proposal id conflicts."
      },
      "name()": {
        "details": "See {IGovernor-name}."
      },
      "owner()": {
        "details": "Returns the address of the current owner."
      },
      "proposalDeadline(uint256)": {
        "details": "See {IGovernor-proposalDeadline}."
      },
      "proposalSnapshot(uint256)": {
        "details": "See {IGovernor-proposalSnapshot}."
      },
      "proposalVotes(uint256)": {
        "details": "Accessor to the internal vote counts."
      },
      "renounceOwnership()": {
        "details": "Leaves the contract without owner. It will not be possible to call `onlyOwner` functions anymore. Can only be called by the current owner. NOTE: Renouncing ownership will leave the contract without an owner, thereby removing any functionality that is only available to the owner."
      },
      "setProposalThreshold(uint256)": {
        "details": "Update the proposal threshold. This operation can only be performed through a governance proposal. Emits a {ProposalThresholdSet} event."
      },
      "setVotingDelay(uint256)": {
        "details": "Update the voting delay. This operation can only be performed through a governance proposal. Emits a {VotingDelaySet} event."
      },
      "setVotingPeriod(uint256)": {
        "details": "Update the voting period. This operation can only be performed through a governance proposal. Emits a {VotingPeriodSet} event."
      },
      "state(uint256)": {
        "details": "Overriden version of the {Governor-state} function."
      },
      "supportsInterface(bytes4)": {
        "details": "See {IERC165-supportsInterface}."
      },
      "transferOwnership(address)": {
        "details": "Transfers ownership of the contract to a new account (`newOwner`). Can only be called by the current owner."
      },
      "version()": {
        "details": "See {IGovernor-version}."
      }
    },
    "version": 1
  },
  "userdoc": {
    "kind": "user",
    "methods": {},
    "version": 1
  },
  "storageLayout": {
    "storage": [
      {
        "astId": 950,
        "contract": "contracts/implementations/StakingGovernance/StakingGovernance.sol:StakingGovernance",
        "label": "_initialized",
        "offset": 0,
        "slot": "0",
        "type": "t_bool"
      },
      {
        "astId": 953,
        "contract": "contracts/implementations/StakingGovernance/StakingGovernance.sol:StakingGovernance",
        "label": "_initializing",
        "offset": 1,
        "slot": "0",
        "type": "t_bool"
      },
      {
        "astId": 4119,
        "contract": "contracts/implementations/StakingGovernance/StakingGovernance.sol:StakingGovernance",
        "label": "__gap",
        "offset": 0,
        "slot": "1",
        "type": "t_array(t_uint256)50_storage"
      },
      {
        "astId": 5255,
        "contract": "contracts/implementations/StakingGovernance/StakingGovernance.sol:StakingGovernance",
        "label": "__gap",
        "offset": 0,
        "slot": "51",
        "type": "t_array(t_uint256)50_storage"
      },
      {
        "astId": 5070,
        "contract": "contracts/implementations/StakingGovernance/StakingGovernance.sol:StakingGovernance",
        "label": "_HASHED_NAME",
        "offset": 0,
        "slot": "101",
        "type": "t_bytes32"
      },
      {
        "astId": 5072,
        "contract": "contracts/implementations/StakingGovernance/StakingGovernance.sol:StakingGovernance",
        "label": "_HASHED_VERSION",
        "offset": 0,
        "slot": "102",
        "type": "t_bytes32"
      },
      {
        "astId": 5209,
        "contract": "contracts/implementations/StakingGovernance/StakingGovernance.sol:StakingGovernance",
        "label": "__gap",
        "offset": 0,
        "slot": "103",
        "type": "t_array(t_uint256)50_storage"
      },
      {
        "astId": 17567,
        "contract": "contracts/implementations/StakingGovernance/StakingGovernance.sol:StakingGovernance",
        "label": "__gap",
        "offset": 0,
        "slot": "153",
        "type": "t_array(t_uint256)50_storage"
      },
      {
        "astId": 15838,
        "contract": "contracts/implementations/StakingGovernance/StakingGovernance.sol:StakingGovernance",
        "label": "_name",
        "offset": 0,
        "slot": "203",
        "type": "t_string_storage"
      },
      {
        "astId": 15843,
        "contract": "contracts/implementations/StakingGovernance/StakingGovernance.sol:StakingGovernance",
        "label": "_proposals",
        "offset": 0,
        "slot": "204",
        "type": "t_mapping(t_uint256,t_struct(ProposalCore)15836_storage)"
      },
      {
        "astId": 16659,
        "contract": "contracts/implementations/StakingGovernance/StakingGovernance.sol:StakingGovernance",
        "label": "__gap",
        "offset": 0,
        "slot": "205",
        "type": "t_array(t_uint256)48_storage"
      },
      {
        "astId": 16902,
        "contract": "contracts/implementations/StakingGovernance/StakingGovernance.sol:StakingGovernance",
        "label": "_votingDelay",
        "offset": 0,
        "slot": "253",
        "type": "t_uint256"
      },
      {
        "astId": 16904,
        "contract": "contracts/implementations/StakingGovernance/StakingGovernance.sol:StakingGovernance",
        "label": "_votingPeriod",
        "offset": 0,
        "slot": "254",
        "type": "t_uint256"
      },
      {
        "astId": 16906,
        "contract": "contracts/implementations/StakingGovernance/StakingGovernance.sol:StakingGovernance",
        "label": "_proposalThreshold",
        "offset": 0,
        "slot": "255",
        "type": "t_uint256"
      },
      {
        "astId": 17104,
        "contract": "contracts/implementations/StakingGovernance/StakingGovernance.sol:StakingGovernance",
        "label": "__gap",
        "offset": 0,
        "slot": "256",
        "type": "t_array(t_uint256)47_storage"
      },
      {
        "astId": 16711,
        "contract": "contracts/implementations/StakingGovernance/StakingGovernance.sol:StakingGovernance",
        "label": "_proposalVotes",
        "offset": 0,
        "slot": "303",
        "type": "t_mapping(t_uint256,t_struct(ProposalVote)16706_storage)"
      },
      {
        "astId": 16890,
        "contract": "contracts/implementations/StakingGovernance/StakingGovernance.sol:StakingGovernance",
        "label": "__gap",
        "offset": 0,
        "slot": "304",
        "type": "t_array(t_uint256)49_storage"
      },
      {
        "astId": 17250,
        "contract": "contracts/implementations/StakingGovernance/StakingGovernance.sol:StakingGovernance",
        "label": "token",
        "offset": 0,
        "slot": "353",
        "type": "t_contract(ERC20VotesUpgradeable)2551"
      },
      {
        "astId": 17307,
        "contract": "contracts/implementations/StakingGovernance/StakingGovernance.sol:StakingGovernance",
        "label": "__gap",
        "offset": 0,
        "slot": "354",
        "type": "t_array(t_uint256)50_storage"
      },
      {
        "astId": 17116,
        "contract": "contracts/implementations/StakingGovernance/StakingGovernance.sol:StakingGovernance",
        "label": "_quorumNumerator",
        "offset": 0,
        "slot": "404",
        "type": "t_uint256"
      },
      {
        "astId": 17235,
        "contract": "contracts/implementations/StakingGovernance/StakingGovernance.sol:StakingGovernance",
        "label": "__gap",
        "offset": 0,
        "slot": "405",
        "type": "t_array(t_uint256)49_storage"
      },
      {
        "astId": 420,
        "contract": "contracts/implementations/StakingGovernance/StakingGovernance.sol:StakingGovernance",
        "label": "_owner",
        "offset": 0,
        "slot": "454",
        "type": "t_address"
      },
      {
        "astId": 534,
        "contract": "contracts/implementations/StakingGovernance/StakingGovernance.sol:StakingGovernance",
        "label": "__gap",
        "offset": 0,
        "slot": "455",
        "type": "t_array(t_uint256)49_storage"
      },
      {
        "astId": 15375,
        "contract": "contracts/implementations/StakingGovernance/StakingGovernance.sol:StakingGovernance",
        "label": "_stakingToken",
        "offset": 0,
        "slot": "504",
        "type": "t_contract(StakingERC721)15341"
      },
      {
        "astId": 15377,
        "contract": "contracts/implementations/StakingGovernance/StakingGovernance.sol:StakingGovernance",
        "label": "_distributionManager",
        "offset": 0,
        "slot": "505",
        "type": "t_address"
      }
    ],
    "types": {
      "t_address": {
        "encoding": "inplace",
        "label": "address",
        "numberOfBytes": "20"
      },
      "t_array(t_uint256)47_storage": {
        "base": "t_uint256",
        "encoding": "inplace",
        "label": "uint256[47]",
        "numberOfBytes": "1504"
      },
      "t_array(t_uint256)48_storage": {
        "base": "t_uint256",
        "encoding": "inplace",
        "label": "uint256[48]",
        "numberOfBytes": "1536"
      },
      "t_array(t_uint256)49_storage": {
        "base": "t_uint256",
        "encoding": "inplace",
        "label": "uint256[49]",
        "numberOfBytes": "1568"
      },
      "t_array(t_uint256)50_storage": {
        "base": "t_uint256",
        "encoding": "inplace",
        "label": "uint256[50]",
        "numberOfBytes": "1600"
      },
      "t_bool": {
        "encoding": "inplace",
        "label": "bool",
        "numberOfBytes": "1"
      },
      "t_bytes32": {
        "encoding": "inplace",
        "label": "bytes32",
        "numberOfBytes": "32"
      },
      "t_contract(ERC20VotesUpgradeable)2551": {
        "encoding": "inplace",
        "label": "contract ERC20VotesUpgradeable",
        "numberOfBytes": "20"
      },
      "t_contract(StakingERC721)15341": {
        "encoding": "inplace",
        "label": "contract StakingERC721",
        "numberOfBytes": "20"
      },
      "t_mapping(t_address,t_bool)": {
        "encoding": "mapping",
        "key": "t_address",
        "label": "mapping(address => bool)",
        "numberOfBytes": "32",
        "value": "t_bool"
      },
      "t_mapping(t_uint256,t_struct(ProposalCore)15836_storage)": {
        "encoding": "mapping",
        "key": "t_uint256",
        "label": "mapping(uint256 => struct Governor.ProposalCore)",
        "numberOfBytes": "32",
        "value": "t_struct(ProposalCore)15836_storage"
      },
      "t_mapping(t_uint256,t_struct(ProposalVote)16706_storage)": {
        "encoding": "mapping",
        "key": "t_uint256",
        "label": "mapping(uint256 => struct GovernorCountingSimpleUpgradeable.ProposalVote)",
        "numberOfBytes": "32",
        "value": "t_struct(ProposalVote)16706_storage"
      },
      "t_string_storage": {
        "encoding": "bytes",
        "label": "string",
        "numberOfBytes": "32"
      },
      "t_struct(BlockNumber)4568_storage": {
        "encoding": "inplace",
        "label": "struct TimersUpgradeable.BlockNumber",
        "members": [
          {
            "astId": 4567,
            "contract": "contracts/implementations/StakingGovernance/StakingGovernance.sol:StakingGovernance",
            "label": "_deadline",
            "offset": 0,
            "slot": "0",
            "type": "t_uint64"
          }
        ],
        "numberOfBytes": "32"
      },
      "t_struct(ProposalCore)15836_storage": {
        "encoding": "inplace",
        "label": "struct Governor.ProposalCore",
        "members": [
          {
            "astId": 15828,
            "contract": "contracts/implementations/StakingGovernance/StakingGovernance.sol:StakingGovernance",
            "label": "voteStart",
            "offset": 0,
            "slot": "0",
            "type": "t_struct(BlockNumber)4568_storage"
          },
          {
            "astId": 15831,
            "contract": "contracts/implementations/StakingGovernance/StakingGovernance.sol:StakingGovernance",
            "label": "voteEnd",
            "offset": 0,
            "slot": "1",
            "type": "t_struct(BlockNumber)4568_storage"
          },
          {
            "astId": 15833,
            "contract": "contracts/implementations/StakingGovernance/StakingGovernance.sol:StakingGovernance",
            "label": "executed",
            "offset": 0,
            "slot": "2",
            "type": "t_bool"
          },
          {
            "astId": 15835,
            "contract": "contracts/implementations/StakingGovernance/StakingGovernance.sol:StakingGovernance",
            "label": "canceled",
            "offset": 1,
            "slot": "2",
            "type": "t_bool"
          }
        ],
        "numberOfBytes": "96"
      },
      "t_struct(ProposalVote)16706_storage": {
        "encoding": "inplace",
        "label": "struct GovernorCountingSimpleUpgradeable.ProposalVote",
        "members": [
          {
            "astId": 16699,
            "contract": "contracts/implementations/StakingGovernance/StakingGovernance.sol:StakingGovernance",
            "label": "againstVotes",
            "offset": 0,
            "slot": "0",
            "type": "t_uint256"
          },
          {
            "astId": 16701,
            "contract": "contracts/implementations/StakingGovernance/StakingGovernance.sol:StakingGovernance",
            "label": "forVotes",
            "offset": 0,
            "slot": "1",
            "type": "t_uint256"
          },
          {
            "astId": 16705,
            "contract": "contracts/implementations/StakingGovernance/StakingGovernance.sol:StakingGovernance",
            "label": "hasVoted",
            "offset": 0,
            "slot": "2",
            "type": "t_mapping(t_address,t_bool)"
          }
        ],
        "numberOfBytes": "96"
      },
      "t_uint256": {
        "encoding": "inplace",
        "label": "uint256",
        "numberOfBytes": "32"
      },
      "t_uint64": {
        "encoding": "inplace",
        "label": "uint64",
        "numberOfBytes": "8"
      }
    }
  }
}