{
  "address": "0x488F96695795921ddbf2C7A76CbEE58E16dD8d67",
  "abi": [
    {
      "inputs": [],
      "stateMutability": "nonpayable",
      "type": "constructor"
    },
    {
      "anonymous": false,
      "inputs": [
        {
          "indexed": true,
          "internalType": "address",
          "name": "owner",
          "type": "address"
        },
        {
          "indexed": true,
          "internalType": "address",
          "name": "approved",
          "type": "address"
        },
        {
          "indexed": true,
          "internalType": "uint256",
          "name": "tokenId",
          "type": "uint256"
        }
      ],
      "name": "Approval",
      "type": "event"
    },
    {
      "anonymous": false,
      "inputs": [
        {
          "indexed": true,
          "internalType": "address",
          "name": "owner",
          "type": "address"
        },
        {
          "indexed": true,
          "internalType": "address",
          "name": "operator",
          "type": "address"
        },
        {
          "indexed": false,
          "internalType": "bool",
          "name": "approved",
          "type": "bool"
        }
      ],
      "name": "ApprovalForAll",
      "type": "event"
    },
    {
      "anonymous": false,
      "inputs": [
        {
          "indexed": false,
          "internalType": "address",
          "name": "recipient",
          "type": "address"
        },
        {
          "indexed": false,
          "internalType": "uint16",
          "name": "bps",
          "type": "uint16"
        }
      ],
      "name": "DefaultRoyaltySet",
      "type": "event"
    },
    {
      "anonymous": false,
      "inputs": [
        {
          "indexed": false,
          "internalType": "uint256",
          "name": "tokenId",
          "type": "uint256"
        },
        {
          "indexed": false,
          "internalType": "bytes32",
          "name": "songId",
          "type": "bytes32"
        }
      ],
      "name": "MasterNFT",
      "type": "event"
    },
    {
      "anonymous": false,
      "inputs": [
        {
          "indexed": true,
          "internalType": "address",
          "name": "previousOwner",
          "type": "address"
        },
        {
          "indexed": true,
          "internalType": "address",
          "name": "newOwner",
          "type": "address"
        }
      ],
      "name": "OwnershipTransferred",
      "type": "event"
    },
    {
      "anonymous": false,
      "inputs": [
        {
          "indexed": false,
          "internalType": "uint256",
          "name": "initialId",
          "type": "uint256"
        },
        {
          "indexed": false,
          "internalType": "uint256",
          "name": "amount",
          "type": "uint256"
        },
        {
          "indexed": false,
          "internalType": "address",
          "name": "owner",
          "type": "address"
        },
        {
          "indexed": false,
          "internalType": "string",
          "name": "uri",
          "type": "string"
        },
        {
          "indexed": false,
          "internalType": "address",
          "name": "royaltyAddress",
          "type": "address"
        },
        {
          "indexed": false,
          "internalType": "uint16",
          "name": "bps",
          "type": "uint16"
        }
      ],
      "name": "RoyaltyNFT",
      "type": "event"
    },
    {
      "anonymous": false,
      "inputs": [
        {
          "indexed": false,
          "internalType": "uint256",
          "name": "tokenId",
          "type": "uint256"
        }
      ],
      "name": "TokenRoyaltyRemoved",
      "type": "event"
    },
    {
      "anonymous": false,
      "inputs": [
        {
          "indexed": false,
          "internalType": "uint256",
          "name": "tokenId",
          "type": "uint256"
        },
        {
          "indexed": false,
          "internalType": "address",
          "name": "recipient",
          "type": "address"
        },
        {
          "indexed": false,
          "internalType": "uint16",
          "name": "bps",
          "type": "uint16"
        }
      ],
      "name": "TokenRoyaltySet",
      "type": "event"
    },
    {
      "anonymous": false,
      "inputs": [
        {
          "indexed": true,
          "internalType": "address",
          "name": "from",
          "type": "address"
        },
        {
          "indexed": true,
          "internalType": "address",
          "name": "to",
          "type": "address"
        },
        {
          "indexed": true,
          "internalType": "uint256",
          "name": "tokenId",
          "type": "uint256"
        }
      ],
      "name": "Transfer",
      "type": "event"
    },
    {
      "inputs": [
        {
          "internalType": "address",
          "name": "to",
          "type": "address"
        },
        {
          "internalType": "uint256",
          "name": "tokenId",
          "type": "uint256"
        }
      ],
      "name": "approve",
      "outputs": [],
      "stateMutability": "nonpayable",
      "type": "function"
    },
    {
      "inputs": [
        {
          "internalType": "address",
          "name": "owner",
          "type": "address"
        }
      ],
      "name": "balanceOf",
      "outputs": [
        {
          "internalType": "uint256",
          "name": "",
          "type": "uint256"
        }
      ],
      "stateMutability": "view",
      "type": "function"
    },
    {
      "inputs": [],
      "name": "defaultRoyalty",
      "outputs": [
        {
          "internalType": "address",
          "name": "recipient",
          "type": "address"
        },
        {
          "internalType": "uint16",
          "name": "bps",
          "type": "uint16"
        }
      ],
      "stateMutability": "view",
      "type": "function"
    },
    {
      "inputs": [
        {
          "internalType": "uint256",
          "name": "tokenId",
          "type": "uint256"
        }
      ],
      "name": "exists",
      "outputs": [
        {
          "internalType": "bool",
          "name": "",
          "type": "bool"
        }
      ],
      "stateMutability": "view",
      "type": "function"
    },
    {
      "inputs": [
        {
          "internalType": "uint256",
          "name": "tokenId",
          "type": "uint256"
        }
      ],
      "name": "getApproved",
      "outputs": [
        {
          "internalType": "address",
          "name": "",
          "type": "address"
        }
      ],
      "stateMutability": "view",
      "type": "function"
    },
    {
      "inputs": [
        {
          "internalType": "uint256",
          "name": "tokenId",
          "type": "uint256"
        }
      ],
      "name": "getCategoryFromToken",
      "outputs": [
        {
          "internalType": "uint256",
          "name": "",
          "type": "uint256"
        }
      ],
      "stateMutability": "view",
      "type": "function"
    },
    {
      "inputs": [
        {
          "internalType": "bytes32",
          "name": "songId_",
          "type": "bytes32"
        },
        {
          "internalType": "uint256",
          "name": "categoryNumber_",
          "type": "uint256"
        }
      ],
      "name": "getCategoryMintedFromSong",
      "outputs": [
        {
          "internalType": "uint256",
          "name": "minted",
          "type": "uint256"
        }
      ],
      "stateMutability": "view",
      "type": "function"
    },
    {
      "inputs": [
        {
          "internalType": "bytes32",
          "name": "songId_",
          "type": "bytes32"
        },
        {
          "internalType": "uint256",
          "name": "categoryNumber_",
          "type": "uint256"
        }
      ],
      "name": "getCategoryQuantityFromSong",
      "outputs": [
        {
          "internalType": "uint256",
          "name": "quantity",
          "type": "uint256"
        }
      ],
      "stateMutability": "view",
      "type": "function"
    },
    {
      "inputs": [
        {
          "internalType": "bytes32",
          "name": "songId",
          "type": "bytes32"
        }
      ],
      "name": "getMasterIdFromSong",
      "outputs": [
        {
          "internalType": "uint256",
          "name": "",
          "type": "uint256"
        }
      ],
      "stateMutability": "view",
      "type": "function"
    },
    {
      "inputs": [
        {
          "internalType": "uint256",
          "name": "tokenId",
          "type": "uint256"
        }
      ],
      "name": "getMasterIdFromToken",
      "outputs": [
        {
          "internalType": "uint256",
          "name": "",
          "type": "uint256"
        }
      ],
      "stateMutability": "view",
      "type": "function"
    },
    {
      "inputs": [
        {
          "internalType": "bytes32",
          "name": "songId",
          "type": "bytes32"
        }
      ],
      "name": "getSongTotalEditions",
      "outputs": [
        {
          "internalType": "uint256",
          "name": "",
          "type": "uint256"
        }
      ],
      "stateMutability": "view",
      "type": "function"
    },
    {
      "inputs": [
        {
          "internalType": "bytes32",
          "name": "songId",
          "type": "bytes32"
        }
      ],
      "name": "getSongTotalMinted",
      "outputs": [
        {
          "internalType": "uint256",
          "name": "",
          "type": "uint256"
        }
      ],
      "stateMutability": "view",
      "type": "function"
    },
    {
      "inputs": [],
      "name": "getTokenRoyaltiesCount",
      "outputs": [
        {
          "internalType": "uint256",
          "name": "",
          "type": "uint256"
        }
      ],
      "stateMutability": "view",
      "type": "function"
    },
    {
      "inputs": [
        {
          "internalType": "uint256",
          "name": "index",
          "type": "uint256"
        }
      ],
      "name": "getTokenRoyaltyByIndex",
      "outputs": [
        {
          "components": [
            {
              "internalType": "uint256",
              "name": "tokenId",
              "type": "uint256"
            },
            {
              "internalType": "address",
              "name": "recipient",
              "type": "address"
            },
            {
              "internalType": "uint16",
              "name": "bps",
              "type": "uint16"
            }
          ],
          "internalType": "struct TokenRoyaltyConfig",
          "name": "",
          "type": "tuple"
        }
      ],
      "stateMutability": "view",
      "type": "function"
    },
    {
      "inputs": [
        {
          "internalType": "string",
          "name": "_name",
          "type": "string"
        },
        {
          "internalType": "string",
          "name": "_symbol",
          "type": "string"
        },
        {
          "internalType": "address",
          "name": "_defaultRoyaltyReceiver",
          "type": "address"
        },
        {
          "internalType": "uint16",
          "name": "_defaultRoyaltyPercentage",
          "type": "uint16"
        }
      ],
      "name": "initialize",
      "outputs": [],
      "stateMutability": "nonpayable",
      "type": "function"
    },
    {
      "inputs": [],
      "name": "internalURIEnabled",
      "outputs": [
        {
          "internalType": "bool",
          "name": "",
          "type": "bool"
        }
      ],
      "stateMutability": "view",
      "type": "function"
    },
    {
      "inputs": [
        {
          "internalType": "address",
          "name": "owner",
          "type": "address"
        },
        {
          "internalType": "address",
          "name": "operator",
          "type": "address"
        }
      ],
      "name": "isApprovedForAll",
      "outputs": [
        {
          "internalType": "bool",
          "name": "",
          "type": "bool"
        }
      ],
      "stateMutability": "view",
      "type": "function"
    },
    {
      "inputs": [
        {
          "internalType": "uint256",
          "name": "tokenId",
          "type": "uint256"
        }
      ],
      "name": "isMaster",
      "outputs": [
        {
          "internalType": "bool",
          "name": "",
          "type": "bool"
        }
      ],
      "stateMutability": "view",
      "type": "function"
    },
    {
      "inputs": [
        {
          "internalType": "bytes32",
          "name": "songId",
          "type": "bytes32"
        }
      ],
      "name": "isStreaming",
      "outputs": [
        {
          "internalType": "bool",
          "name": "",
          "type": "bool"
        }
      ],
      "stateMutability": "view",
      "type": "function"
    },
    {
      "inputs": [
        {
          "internalType": "address",
          "name": "to",
          "type": "address"
        },
        {
          "internalType": "string",
          "name": "uri",
          "type": "string"
        }
      ],
      "name": "mint",
      "outputs": [],
      "stateMutability": "nonpayable",
      "type": "function"
    },
    {
      "inputs": [
        {
          "internalType": "address",
          "name": "to",
          "type": "address"
        },
        {
          "internalType": "uint256",
          "name": "amount",
          "type": "uint256"
        },
        {
          "internalType": "string",
          "name": "uri",
          "type": "string"
        },
        {
          "internalType": "address",
          "name": "royaltyAddress",
          "type": "address"
        },
        {
          "internalType": "uint16",
          "name": "bps",
          "type": "uint16"
        },
        {
          "internalType": "string",
          "name": "proofOfAuthenticity_",
          "type": "string"
        }
      ],
      "name": "mintBatchWithRoyalty",
      "outputs": [],
      "stateMutability": "nonpayable",
      "type": "function"
    },
    {
      "inputs": [
        {
          "internalType": "bytes32",
          "name": "songId",
          "type": "bytes32"
        }
      ],
      "name": "mintEditions",
      "outputs": [],
      "stateMutability": "nonpayable",
      "type": "function"
    },
    {
      "inputs": [],
      "name": "mintHowManyEditions",
      "outputs": [
        {
          "internalType": "uint256",
          "name": "",
          "type": "uint256"
        }
      ],
      "stateMutability": "view",
      "type": "function"
    },
    {
      "inputs": [
        {
          "internalType": "address",
          "name": "to",
          "type": "address"
        },
        {
          "components": [
            {
              "internalType": "bool",
              "name": "isStreaming",
              "type": "bool"
            },
            {
              "internalType": "uint256[5]",
              "name": "quantityPerCategory",
              "type": "uint256[5]"
            },
            {
              "internalType": "string[6]",
              "name": "tokenURIs",
              "type": "string[6]"
            }
          ],
          "internalType": "struct SongData",
          "name": "songData_",
          "type": "tuple"
        },
        {
          "components": [
            {
              "internalType": "uint16",
              "name": "royaltyPercent",
              "type": "uint16"
            },
            {
              "internalType": "address",
              "name": "royaltyRecipient",
              "type": "address"
            },
            {
              "internalType": "string",
              "name": "proofOfAuthenticity",
              "type": "string"
            }
          ],
          "internalType": "struct RoyaltyData",
          "name": "royaltyData_",
          "type": "tuple"
        }
      ],
      "name": "mintMasterNFT",
      "outputs": [
        {
          "internalType": "bytes32",
          "name": "songId",
          "type": "bytes32"
        }
      ],
      "stateMutability": "nonpayable",
      "type": "function"
    },
    {
      "inputs": [
        {
          "internalType": "address",
          "name": "to",
          "type": "address"
        },
        {
          "internalType": "string",
          "name": "uri",
          "type": "string"
        },
        {
          "internalType": "address",
          "name": "royaltyAddress",
          "type": "address"
        },
        {
          "internalType": "uint16",
          "name": "bps",
          "type": "uint16"
        },
        {
          "internalType": "string",
          "name": "proofOfAuthenticity_",
          "type": "string"
        }
      ],
      "name": "mintWithRoyalty",
      "outputs": [],
      "stateMutability": "nonpayable",
      "type": "function"
    },
    {
      "inputs": [],
      "name": "name",
      "outputs": [
        {
          "internalType": "string",
          "name": "",
          "type": "string"
        }
      ],
      "stateMutability": "view",
      "type": "function"
    },
    {
      "inputs": [],
      "name": "owner",
      "outputs": [
        {
          "internalType": "address",
          "name": "",
          "type": "address"
        }
      ],
      "stateMutability": "view",
      "type": "function"
    },
    {
      "inputs": [
        {
          "internalType": "uint256",
          "name": "tokenId",
          "type": "uint256"
        }
      ],
      "name": "ownerOf",
      "outputs": [
        {
          "internalType": "address",
          "name": "",
          "type": "address"
        }
      ],
      "stateMutability": "view",
      "type": "function"
    },
    {
      "inputs": [
        {
          "internalType": "uint256",
          "name": "id",
          "type": "uint256"
        }
      ],
      "name": "proofOfAuthenticity",
      "outputs": [
        {
          "internalType": "string",
          "name": "",
          "type": "string"
        }
      ],
      "stateMutability": "view",
      "type": "function"
    },
    {
      "inputs": [],
      "name": "renounceOwnership",
      "outputs": [],
      "stateMutability": "nonpayable",
      "type": "function"
    },
    {
      "inputs": [
        {
          "internalType": "uint256",
          "name": "tokenId",
          "type": "uint256"
        },
        {
          "internalType": "uint256",
          "name": "value",
          "type": "uint256"
        }
      ],
      "name": "royaltyInfo",
      "outputs": [
        {
          "internalType": "address",
          "name": "",
          "type": "address"
        },
        {
          "internalType": "uint256",
          "name": "",
          "type": "uint256"
        }
      ],
      "stateMutability": "view",
      "type": "function"
    },
    {
      "inputs": [
        {
          "internalType": "address",
          "name": "to",
          "type": "address"
        },
        {
          "internalType": "string",
          "name": "uri",
          "type": "string"
        }
      ],
      "name": "safeMint",
      "outputs": [],
      "stateMutability": "nonpayable",
      "type": "function"
    },
    {
      "inputs": [
        {
          "internalType": "address",
          "name": "to",
          "type": "address"
        },
        {
          "internalType": "string",
          "name": "uri",
          "type": "string"
        },
        {
          "internalType": "bytes",
          "name": "_data",
          "type": "bytes"
        }
      ],
      "name": "safeMint",
      "outputs": [],
      "stateMutability": "nonpayable",
      "type": "function"
    },
    {
      "inputs": [
        {
          "internalType": "address",
          "name": "from",
          "type": "address"
        },
        {
          "internalType": "address",
          "name": "to",
          "type": "address"
        },
        {
          "internalType": "uint256",
          "name": "tokenId",
          "type": "uint256"
        }
      ],
      "name": "safeTransferFrom",
      "outputs": [],
      "stateMutability": "nonpayable",
      "type": "function"
    },
    {
      "inputs": [
        {
          "internalType": "address",
          "name": "from",
          "type": "address"
        },
        {
          "internalType": "address",
          "name": "to",
          "type": "address"
        },
        {
          "internalType": "uint256",
          "name": "tokenId",
          "type": "uint256"
        },
        {
          "internalType": "bytes",
          "name": "_data",
          "type": "bytes"
        }
      ],
      "name": "safeTransferFrom",
      "outputs": [],
      "stateMutability": "nonpayable",
      "type": "function"
    },
    {
      "inputs": [
        {
          "internalType": "address",
          "name": "operator",
          "type": "address"
        },
        {
          "internalType": "bool",
          "name": "approved",
          "type": "bool"
        }
      ],
      "name": "setApprovalForAll",
      "outputs": [],
      "stateMutability": "nonpayable",
      "type": "function"
    },
    {
      "inputs": [
        {
          "components": [
            {
              "internalType": "address",
              "name": "recipient",
              "type": "address"
            },
            {
              "internalType": "uint16",
              "name": "bps",
              "type": "uint16"
            }
          ],
          "internalType": "struct TokenRoyalty",
          "name": "royalty",
          "type": "tuple"
        }
      ],
      "name": "setDefaultRoyalty",
      "outputs": [],
      "stateMutability": "nonpayable",
      "type": "function"
    },
    {
      "inputs": [
        {
          "internalType": "string",
          "name": "internalURI_",
          "type": "string"
        }
      ],
      "name": "setInternalURI",
      "outputs": [],
      "stateMutability": "nonpayable",
      "type": "function"
    },
    {
      "inputs": [
        {
          "internalType": "uint256",
          "name": "mintHowManyEditions_",
          "type": "uint256"
        }
      ],
      "name": "setMintHowManyEditions",
      "outputs": [],
      "stateMutability": "nonpayable",
      "type": "function"
    },
    {
      "inputs": [
        {
          "components": [
            {
              "internalType": "uint256",
              "name": "tokenId",
              "type": "uint256"
            },
            {
              "internalType": "address",
              "name": "recipient",
              "type": "address"
            },
            {
              "internalType": "uint16",
              "name": "bps",
              "type": "uint16"
            }
          ],
          "internalType": "struct TokenRoyaltyConfig[]",
          "name": "royaltyConfigs",
          "type": "tuple[]"
        }
      ],
      "name": "setTokenRoyalties",
      "outputs": [],
      "stateMutability": "nonpayable",
      "type": "function"
    },
    {
      "inputs": [
        {
          "internalType": "bytes4",
          "name": "interfaceId",
          "type": "bytes4"
        }
      ],
      "name": "supportsInterface",
      "outputs": [
        {
          "internalType": "bool",
          "name": "",
          "type": "bool"
        }
      ],
      "stateMutability": "view",
      "type": "function"
    },
    {
      "inputs": [],
      "name": "symbol",
      "outputs": [
        {
          "internalType": "string",
          "name": "",
          "type": "string"
        }
      ],
      "stateMutability": "view",
      "type": "function"
    },
    {
      "inputs": [],
      "name": "tokenCounter",
      "outputs": [
        {
          "internalType": "uint256",
          "name": "",
          "type": "uint256"
        }
      ],
      "stateMutability": "view",
      "type": "function"
    },
    {
      "inputs": [
        {
          "internalType": "uint256",
          "name": "tokenId",
          "type": "uint256"
        }
      ],
      "name": "tokenURI",
      "outputs": [
        {
          "internalType": "string",
          "name": "",
          "type": "string"
        }
      ],
      "stateMutability": "view",
      "type": "function"
    },
    {
      "inputs": [
        {
          "internalType": "address",
          "name": "from",
          "type": "address"
        },
        {
          "internalType": "address",
          "name": "to",
          "type": "address"
        },
        {
          "internalType": "uint256",
          "name": "tokenId",
          "type": "uint256"
        }
      ],
      "name": "transferFrom",
      "outputs": [],
      "stateMutability": "nonpayable",
      "type": "function"
    },
    {
      "inputs": [
        {
          "internalType": "address",
          "name": "newOwner",
          "type": "address"
        }
      ],
      "name": "transferOwnership",
      "outputs": [],
      "stateMutability": "nonpayable",
      "type": "function"
    }
  ],
  "transactionHash": "0xf90c0b476ab55c4702fdece9e4b11f136cf67fe40563757f002a6c3fdd4d4dcc",
  "args": [],
  "numDeployments": 1,
  "solcInputHash": "d75cb78d3090036566fedddd8891be90",
  "bytecode": "0x60806040523480156200001157600080fd5b50600454610100900460ff166200002f5760045460ff161562000039565b62000039620000de565b620000a15760405162461bcd60e51b815260206004820152602e60248201527f496e697469616c697a61626c653a20636f6e747261637420697320616c72656160448201526d191e481a5b9a5d1a585b1a5e995960921b606482015260840160405180910390fd5b600454610100900460ff16158015620000c4576004805461ffff19166101011790555b8015620000d7576004805461ff00191690555b5062000102565b6000620000f630620000fc60201b62001d061760201c565b15905090565b3b151590565b61391780620001126000396000f3fe608060405234801561001057600080fd5b506004361061028a5760003560e01c8063711cb1fe1161015c578063b88d4fde116100ce578063da0772f111610087578063da0772f1146106ae578063e985e9c5146106d1578063eb88cae9146106e4578063ef60ceaf146106f7578063f2fde38b1461070a578063f6dda9361461071d57600080fd5b8063b88d4fde14610639578063beeb61fe1461064c578063c87b56dd1461066c578063d082e3811461067f578063d0def52114610688578063d204c45e1461069b57600080fd5b806395d89b411161012057806395d89b411461059d578063a22cb465146105a5578063a2bcaf0e146105b8578063a3c6b127146105e8578063a7d73a5d14610619578063a8ee88b71461062657600080fd5b8063711cb1fe14610517578063715018a61461053a5780637885fdc7146105425780637e980342146105845780638da5cb5b1461058c57600080fd5b806331a99766116102005780635881bfc1116101b95780635881bfc1146104875780635d669de31461049a5780636352211e146104bd578063644c70aa146104d0578063678f1fb4146104d957806370a082311461050457600080fd5b806331a997661461041557806338400d811461042857806342525ba41461043b57806342842e0e1461044e5780634f558e79146104615780635136dcc71461047457600080fd5b8063095ea7b311610252578063095ea7b31461036a578063132844fb1461037f5780631c8b355714610392578063225dc139146103a557806323b872dd146103d05780632a55205a146103e357600080fd5b8063010df0ef1461028f57806301ffc9a7146102c55780630653aca5146102e857806306fdde031461032a578063081812fc1461033f575b600080fd5b6102b261029d366004613266565b600090815260d0602052604090206001015490565b6040519081526020015b60405180910390f35b6102d86102d33660046132a1565b610730565b60405190151581526020016102bc565b6102fb6102f6366004613266565b610741565b60408051825181526020808401516001600160a01b0316908201529181015161ffff16908201526060016102bc565b6103326107c6565b6040516102bc9190613544565b61035261034d366004613266565b610858565b6040516001600160a01b0390911681526020016102bc565b61037d610378366004613100565b6108f2565b005b6102b261038d36600461307e565b610a08565b61037d6103a0366004613266565b610ea8565b6102b26103b336600461327f565b600091825260d26020908152604080842092845291905290205490565b61037d6103de366004612e4e565b611257565b6103f66103f136600461327f565b611288565b604080516001600160a01b0390931683526020830191909152016102bc565b610332610423366004613266565b61134d565b61037d6104363660046132db565b6113ef565b61037d61044936600461312a565b611425565b61037d61045c366004612e4e565b611547565b6102d861046f366004613266565b611562565b61037d6104823660046131d7565b611581565b61037d61049536600461331c565b61160a565b6102b26104a8366004613266565b600090815260d0602052604090206003015490565b6103526104cb366004613266565b611708565b6102b260d75481565b6102b26104e736600461327f565b600091825260d16020908152604080842092845291905290205490565b6102b2610512366004612e00565b61177f565b6102b2610525366004613266565b600090815260d0602052604090206002015490565b61037d611806565b600054610562906001600160a01b03811690600160a01b900461ffff1682565b604080516001600160a01b03909316835261ffff9091166020830152016102bc565b6102b261183c565b609b546001600160a01b0316610352565b61033261184d565b61037d6105b3366004612ef1565b61185c565b6102b26105c6366004613266565b600090815260d36020908152604080832054835260d090915290206001015490565b6102d86105f6366004613266565b600081815260d36020908152604080832054835260d09091529020600101541490565b60d5546102d89060ff1681565b61037d610634366004612f6d565b611867565b61037d610647366004612e8a565b61195b565b6102b261065a366004613266565b600090815260d4602052604090205490565b61033261067a366004613266565b611993565b6102b260cf5481565b61037d610696366004612f1b565b611a48565b61037d6106a9366004612f1b565b611ac9565b6102d86106bc366004613266565b600090815260d0602052604090205460ff1690565b6102d86106df366004612e1b565b611b4a565b61037d6106f2366004613266565b611b78565b61037d610705366004613404565b611ba7565b61037d610718366004612e00565b611beb565b61037d61072b366004613011565b611c83565b600061073b82611d0c565b92915050565b6040805160608101825260008082526020820181905291810182905290610769600284611d5c565b6000818152600160209081526040918290208251808401845290546001600160a01b03808216835261ffff600160a01b90920482168385019081528551606081018752968752925116928501929092525116908201529392505050565b6060606980546107d590613823565b80601f016020809104026020016040519081016040528092919081815260200182805461080190613823565b801561084e5780601f106108235761010080835404028352916020019161084e565b820191906000526020600020905b81548152906001019060200180831161083157829003601f168201915b5050505050905090565b6000818152606b60205260408120546001600160a01b03166108d65760405162461bcd60e51b815260206004820152602c60248201527f4552433732313a20617070726f76656420717565727920666f72206e6f6e657860448201526b34b9ba32b73a103a37b5b2b760a11b60648201526084015b60405180910390fd5b506000908152606d60205260409020546001600160a01b031690565b60006108fd82611708565b9050806001600160a01b0316836001600160a01b0316141561096b5760405162461bcd60e51b815260206004820152602160248201527f4552433732313a20617070726f76616c20746f2063757272656e74206f776e656044820152603960f91b60648201526084016108cd565b336001600160a01b038216148061098757506109878133611b4a565b6109f95760405162461bcd60e51b815260206004820152603860248201527f4552433732313a20617070726f76652063616c6c6572206973206e6f74206f7760448201527f6e6572206e6f7220617070726f76656420666f7220616c6c000000000000000060648201526084016108cd565b610a038383611d6f565b505050565b609b546000906001600160a01b03163314610a355760405162461bcd60e51b81526004016108cd906135a9565b60008060005b6005811015610a9f57856020018160058110610a5957610a5961389f565b602002013583610a69919061372d565b925080610a8d57856020018160058110610a8557610a8561389f565b602002013591505b80610a9781613858565b915050610a3b565b508015610b0457808214610b045760405162461bcd60e51b815260206004820152602660248201527f43617465676f72792030206973207365742e204f74686572732061726520696e6044820152653b30b634b21760d11b60648201526084016108cd565b6000610bc187610b1760c08901896136c7565b610b259060a08101906136e7565b8080601f016020809104026020016040519081016040528093929190818152602001838380828437600092019190915250610b6a925050506040890160208a01612e00565b610b7760208a018a613476565b610b8460408b018b6136e7565b8080601f0160208091040260200160405190810160405280939291908181526020018383808284376000920182905250925060059150611ddd9050565b6040805130602082015290810182905290915060600160405160208183030381529060405280519060200120935060005b6005811015610c4457866020018160058110610c1057610c1061389f565b600087815260d160209081526040808320868452825290912091029190910135905580610c3c81613858565b915050610bf2565b50610c5060018461372d565b600085815260d160209081526040808320600580855290835281842060019081905589855260d28452828520918552908352928190209290925581516101408101909252919450908190610ca69089018961324b565b151581526020018281526020018481526020016001815260200160008152602001886001600160a01b03168152602001878060c00190610ce691906136c7565b610cef9061379d565b8152602090810190610d0390880188613476565b61ffff168152602001866020016020810190610d1f9190612e00565b6001600160a01b03168152602001610d3a60408801886136e7565b8080601f016020809104026020016040519081016040528093929190818152602001838380828437600092018290525093909452505086815260d060209081526040918290208451815460ff1916901515178155908401516001820155908301516002820155606083015160038201556080830151600482015560a08301516005820180546001600160a01b0319166001600160a01b0390921691909117905560c0830151909150610df29060068084019190612b4a565b5060e0820151600c820180546101008501516001600160a01b031662010000026001600160b01b031990911661ffff909316929092179190911790556101208201518051610e4a91600d840191602090910190612b9a565b509050508260cf6000828254610e60919061372d565b909155505060408051828152602081018690527fd18a4f50e81e8ddf86e1ca3d4c615723dc3401845e01ddd57950c48f4ff76baa910160405180910390a15050509392505050565b609b546001600160a01b03163314610ed25760405162461bcd60e51b81526004016108cd906135a9565b600081815260d06020526040902060020154610f245760405162461bcd60e51b81526020600482015260116024820152704e6f74206578697374656e7420736f6e6760781b60448201526064016108cd565b600081815260d060205260409020600281015460039091015410610f8a5760405162461bcd60e51b815260206004820152601b60248201527f416c6c20746f6b656e732068617665206265656e206d696e746564000000000060448201526064016108cd565b600081815260d060205260408082206005810154825160c081019093526001600160a01b031692919060069081019083835b8282101561105f578382018054610fd290613823565b80601f0160208091040260200160405190810160405280929190818152602001828054610ffe90613823565b801561104b5780601f106110205761010080835404028352916020019161104b565b820191906000526020600020905b81548152906001019060200180831161102e57829003601f168201915b505050505081526020019060010190610fbc565b505050600085815260d060205260408120600c810154600d909101805494955061ffff821694620100009092046001600160a01b03169350906110a190613823565b80601f01602080910402602001604051908101604052809291908181526020018280546110cd90613823565b801561111a5780601f106110ef5761010080835404028352916020019161111a565b820191906000526020600020905b8154815290600101906020018083116110fd57829003601f168201915b5050505050905060005b600087815260d0602052604090206002810154600390910154101561124e5760d7548114156111525761124e565b600087815260d0602090815260408083206004015460d283528184208185528352818420548b855260d1845282852082865290935292205414156111be57600088815260d0602052604081206004018054600192906111b290849061372d565b90915550611124915050565b600088815260d0602052604081206003018054600192906111e090849061372d565b909155505061120a878783600681106111fb576111fb61389f565b60200201518688878d87611ddd565b50600088815260d260209081526040808320848452909152812080546001929061123590849061372d565b90915550611246905060018361372d565b915050611124565b50505050505050565b6112613382611e46565b61127d5760405162461bcd60e51b81526004016108cd906135de565b610a03838383611f1d565b60008281526001602052604081205481906001600160a01b0316156112ed576000848152600160205260409020546001600160a01b03811690612710906112da90600160a01b900461ffff1686613767565b6112e49190613745565b91509150611346565b6000546001600160a01b0316158015906113135750600054600160a01b900461ffff1615155b1561133f576000546001600160a01b03811690612710906112da90600160a01b900461ffff1686613767565b5060009050805b9250929050565b600081815260ce6020526040902080546060919061136a90613823565b80601f016020809104026020016040519081016040528092919081815260200182805461139690613823565b80156113e35780601f106113b8576101008083540402835291602001916113e3565b820191906000526020600020905b8154815290600101906020018083116113c657829003601f168201915b50505050509050919050565b609b546001600160a01b031633146114195760405162461bcd60e51b81526004016108cd906135a9565b610a0360d68383612c1a565b609b546001600160a01b0316331461144f5760405162461bcd60e51b81526004016108cd906135a9565b600060cf546001611460919061372d565b905060005b888110156114f8576114e58a89898080601f01602080910402602001604051908101604052809392919081815260200183838082843760009201919091525050604080516020601f8b018190048102820181019092528981528c93508b9250908a908a90819084018382808284376000920191909152506120bd92505050565b50806114f081613858565b915050611465565b507fd8c86b552ebb0775bba7cb9cc9153d61291ee90bea6fb894183b41ca2ffdb63d81898b8a8a8a8a604051611534979695949392919061367a565b60405180910390a1505050505050505050565b610a038383836040518060200160405280600081525061195b565b6000818152606b60205260408120546001600160a01b0316151561073b565b609b546001600160a01b031633146115ab5760405162461bcd60e51b81526004016108cd906135a9565b6116068282808060200260200160405190810160405280939291908181526020016000905b828210156115fc576115ed606083028601368190038101906133a0565b815260200190600101906115d0565b50505050506121ae565b5050565b600454610100900460ff166116255760045460ff1615611629565b303b155b61168c5760405162461bcd60e51b815260206004820152602e60248201527f496e697469616c697a61626c653a20636f6e747261637420697320616c72656160448201526d191e481a5b9a5d1a585b1a5e995960921b60648201526084016108cd565b600454610100900460ff161580156116ae576004805461ffff19166101011790555b601460d7556116bd8585612373565b6116c56123b4565b6116ef6040518060400160405280856001600160a01b031681526020018461ffff168152506123eb565b8015611701576004805461ff00191690555b5050505050565b6000818152606b60205260408120546001600160a01b03168061073b5760405162461bcd60e51b815260206004820152602960248201527f4552433732313a206f776e657220717565727920666f72206e6f6e657869737460448201526832b73a103a37b5b2b760b91b60648201526084016108cd565b60006001600160a01b0382166117ea5760405162461bcd60e51b815260206004820152602a60248201527f4552433732313a2062616c616e636520717565727920666f7220746865207a65604482015269726f206164647265737360b01b60648201526084016108cd565b506001600160a01b03166000908152606c602052604090205490565b609b546001600160a01b031633146118305760405162461bcd60e51b81526004016108cd906135a9565b61183a60006124ce565b565b60006118486002612520565b905090565b6060606a80546107d590613823565b61160633838361252a565b609b546001600160a01b031633146118915760405162461bcd60e51b81526004016108cd906135a9565b600061190b8888888080601f01602080910402602001604051908101604052809392919081815260200183838082843760009201919091525050604080516020601f8a018190048102820181019092528881528b93508a92509089908990819084018382808284376000920191909152506120bd92505050565b90507fd8c86b552ebb0775bba7cb9cc9153d61291ee90bea6fb894183b41ca2ffdb63d8160018a8a8a8a8a604051611949979695949392919061367a565b60405180910390a15050505050505050565b6119653383611e46565b6119815760405162461bcd60e51b81526004016108cd906135de565b61198d848484846125f9565b50505050565b6000818152606b60205260409020546060906001600160a01b0316611a125760405162461bcd60e51b815260206004820152602f60248201527f4552433732314d657461646174613a2055524920717565727920666f72206e6f60448201526e3732bc34b9ba32b73a103a37b5b2b760891b60648201526084016108cd565b60d55460ff1615611a2a5760d6805461136a90613823565b600082815260cd60205260409020805461136a90613823565b919050565b609b546001600160a01b03163314611a725760405162461bcd60e51b81526004016108cd906135a9565b60cf54611a8090600161372d565b60cf81905550610a038360cf5484848080601f01602080910402602001604051908101604052809392919081815260200183838082843760009201919091525061262c92505050565b609b546001600160a01b03163314611af35760405162461bcd60e51b81526004016108cd906135a9565b60cf54611b0190600161372d565b60cf81905550610a038360cf5484848080601f01602080910402602001604051908101604052809392919081815260200183838082843760009201919091525061265592505050565b6001600160a01b039182166000908152606e6020908152604080832093909416825291909152205460ff1690565b609b546001600160a01b03163314611ba25760405162461bcd60e51b81526004016108cd906135a9565b60d755565b609b546001600160a01b03163314611bd15760405162461bcd60e51b81526004016108cd906135a9565b611be8611be33683900383018361341c565b6123eb565b50565b609b546001600160a01b03163314611c155760405162461bcd60e51b81526004016108cd906135a9565b6001600160a01b038116611c7a5760405162461bcd60e51b815260206004820152602660248201527f4f776e61626c653a206e6577206f776e657220697320746865207a65726f206160448201526564647265737360d01b60648201526084016108cd565b611be8816124ce565b609b546001600160a01b03163314611cad5760405162461bcd60e51b81526004016108cd906135a9565b60cf54611cbb90600161372d565b60cf8190555061198d8460cf5485858080601f01602080910402602001604051908101604052809392919081815260200183838082843760009201919091525087925061265f915050565b3b151590565b60006001600160e01b031982166380ac58cd60e01b1480611d3d57506001600160e01b03198216635b5e139f60e01b145b8061073b57506301ffc9a760e01b6001600160e01b031983161461073b565b6000611d688383612689565b9392505050565b6000818152606d6020526040902080546001600160a01b0319166001600160a01b0384169081179091558190611da482611708565b6001600160a01b03167f8c5be1e5ebec7d5bd14f71427d1e84f3dd0314c0f7b2291e5b200ac8c7c3b92560405160405180910390a45050565b6000611dec88888888886120bd565b905082611e1f57604080513060208201529081018290526060016040516020818303038152906040528051906020012092505b600081815260d3602090815260408083209590955560d49052929092205595945050505050565b6000818152606b60205260408120546001600160a01b0316611ebf5760405162461bcd60e51b815260206004820152602c60248201527f4552433732313a206f70657261746f7220717565727920666f72206e6f6e657860448201526b34b9ba32b73a103a37b5b2b760a11b60648201526084016108cd565b6000611eca83611708565b9050806001600160a01b0316846001600160a01b03161480611f055750836001600160a01b0316611efa84610858565b6001600160a01b0316145b80611f155750611f158185611b4a565b949350505050565b826001600160a01b0316611f3082611708565b6001600160a01b031614611f985760405162461bcd60e51b815260206004820152602960248201527f4552433732313a207472616e73666572206f6620746f6b656e2074686174206960448201526839903737ba1037bbb760b91b60648201526084016108cd565b6001600160a01b038216611ffa5760405162461bcd60e51b8152602060048201526024808201527f4552433732313a207472616e7366657220746f20746865207a65726f206164646044820152637265737360e01b60648201526084016108cd565b612005600082611d6f565b6001600160a01b0383166000908152606c6020526040812080546001929061202e908490613786565b90915550506001600160a01b0382166000908152606c6020526040812080546001929061205c90849061372d565b90915550506000818152606b602052604080822080546001600160a01b0319166001600160a01b0386811691821790925591518493918716917fddf252ad1be2c89b69c2b068fc378daa952ba7f163c4a11628f55a4df523b3ef91a4505050565b6000600160cf60008282546120d2919061372d565b925050819055506120e68660cf548761262c565b604080516001808252818301909252600091816020015b60408051606081018252600080825260208083018290529282015282526000199092019101816120fd579050509050604051806060016040528060cf548152602001866001600160a01b031681526020018561ffff16815250816000815181106121695761216961389f565b602002602001018190525061217d816121ae565b60cf54600090815260ce60209081526040909120845161219f92860190612b9a565b505060cf549695505050505050565b60005b81518110156116065760008282815181106121ce576121ce61389f565b60200260200101519050612710816040015161ffff161061221f5760405162461bcd60e51b815260206004820152600b60248201526a496e76616c69642062707360a81b60448201526064016108cd565b60208101516001600160a01b0316612298578051600090815260016020526040902080546001600160b01b0319169055805161225d906002906126b3565b5080516040519081527fa2870857763bd9ae76c957f869f16b31c18dd3bb4c7b4d3a4496dc5c57c657f99060200160405180910390a1612360565b6040805180820182526020808401516001600160a01b0390811683528484015161ffff90811683850190815286516000908152600190945294909220925183549451909216600160a01b026001600160b01b03199094169116179190911790558051612306906002906126bf565b50805160208083015160408085015181519485526001600160a01b039092169284019290925261ffff1682820152517f389b70fb0887f01e83784eb1c4c589f740eca53b00ed0f45e41db5d079719abb9181900360600190a15b508061236b81613858565b9150506121b1565b600454610100900460ff1661239a5760405162461bcd60e51b81526004016108cd9061362f565b6123a26126cb565b6123aa6126cb565b61160682826126f2565b600454610100900460ff166123db5760405162461bcd60e51b81526004016108cd9061362f565b6123e36126cb565b61183a612740565b612710816020015161ffff16106124325760405162461bcd60e51b815260206004820152600b60248201526a496e76616c69642062707360a81b60448201526064016108cd565b60408051808201825282516001600160a01b03168082526020808501805161ffff169190930181905260008054600160a01b9092026001600160b01b03199092169092171790558251905191517f2c5ea6e4103e78cb101e796fb2dace540362fc542cbff5145eaa24af7dd8fe41926124c392916001600160a01b0392909216825261ffff16602082015260400190565b60405180910390a150565b609b80546001600160a01b038381166001600160a01b0319831681179093556040519116919082907f8be0079c531659141344cd1fd0a4f28419497f9722a3daafe3b4186f6b6457e090600090a35050565b600061073b825490565b816001600160a01b0316836001600160a01b0316141561258c5760405162461bcd60e51b815260206004820152601960248201527f4552433732313a20617070726f766520746f2063616c6c65720000000000000060448201526064016108cd565b6001600160a01b038381166000818152606e6020908152604080832094871680845294825291829020805460ff191686151590811790915591519182527f17307eab39ab6107e8899845ad3d59bd9653f200f220920489ca2b5937696c31910160405180910390a3505050565b612604848484611f1d565b61261084848484612770565b61198d5760405162461bcd60e51b81526004016108cd90613557565b612636838361287d565b600082815260cd60209081526040909120825161198d92840190612b9a565b61263683836129bf565b61266a8484836129d5565b600083815260cd60209081526040909120835161170192850190612b9a565b60008260000182815481106126a0576126a061389f565b9060005260206000200154905092915050565b6000611d688383612a08565b6000611d688383612afb565b600454610100900460ff1661183a5760405162461bcd60e51b81526004016108cd9061362f565b600454610100900460ff166127195760405162461bcd60e51b81526004016108cd9061362f565b815161272c906069906020850190612b9a565b508051610a0390606a906020840190612b9a565b600454610100900460ff166127675760405162461bcd60e51b81526004016108cd9061362f565b61183a336124ce565b60006001600160a01b0384163b1561287257604051630a85bd0160e11b81526001600160a01b0385169063150b7a02906127b4903390899088908890600401613507565b602060405180830381600087803b1580156127ce57600080fd5b505af19250505080156127fe575060408051601f3d908101601f191682019092526127fb918101906132be565b60015b612858573d80801561282c576040519150601f19603f3d011682016040523d82523d6000602084013e612831565b606091505b5080516128505760405162461bcd60e51b81526004016108cd90613557565b805181602001fd5b6001600160e01b031916630a85bd0160e11b149050611f15565b506001949350505050565b6001600160a01b0382166128d35760405162461bcd60e51b815260206004820181905260248201527f4552433732313a206d696e7420746f20746865207a65726f206164647265737360448201526064016108cd565b6000818152606b60205260409020546001600160a01b0316156129385760405162461bcd60e51b815260206004820152601c60248201527f4552433732313a20746f6b656e20616c7265616479206d696e7465640000000060448201526064016108cd565b6001600160a01b0382166000908152606c6020526040812080546001929061296190849061372d565b90915550506000818152606b602052604080822080546001600160a01b0319166001600160a01b03861690811790915590518392907fddf252ad1be2c89b69c2b068fc378daa952ba7f163c4a11628f55a4df523b3ef908290a45050565b6116068282604051806020016040528060008152505b6129df838361287d565b6129ec6000848484612770565b610a035760405162461bcd60e51b81526004016108cd90613557565b60008181526001830160205260408120548015612af1576000612a2c600183613786565b8554909150600090612a4090600190613786565b9050818114612aa5576000866000018281548110612a6057612a6061389f565b9060005260206000200154905080876000018481548110612a8357612a8361389f565b6000918252602080832090910192909255918252600188019052604090208390555b8554869080612ab657612ab6613889565b60019003818190600052602060002001600090559055856001016000868152602001908152602001600020600090556001935050505061073b565b600091505061073b565b6000818152600183016020526040812054612b425750815460018181018455600084815260208082209093018490558454848252828601909352604090209190915561073b565b50600061073b565b8260068101928215612b8a579160200282015b82811115612b8a5782518051612b7a918491602090910190612b9a565b5091602001919060010190612b5d565b50612b96929150612c8e565b5090565b828054612ba690613823565b90600052602060002090601f016020900481019282612bc85760008555612c0e565b82601f10612be157805160ff1916838001178555612c0e565b82800160010185558215612c0e579182015b82811115612c0e578251825591602001919060010190612bf3565b50612b96929150612cab565b828054612c2690613823565b90600052602060002090601f016020900481019282612c485760008555612c0e565b82601f10612c615782800160ff19823516178555612c0e565b82800160010185558215612c0e579182015b82811115612c0e578235825591602001919060010190612c73565b80821115612b96576000612ca28282612cc0565b50600101612c8e565b5b80821115612b965760008155600101612cac565b508054612ccc90613823565b6000825580601f10612cdc575050565b601f016020900490600052602060002090810190611be89190612cab565b80356001600160a01b0381168114611a4357600080fd5b80358015158114611a4357600080fd5b600082601f830112612d3257600080fd5b81356001600160401b0380821115612d4c57612d4c6138b5565b604051601f8301601f19908116603f01168101908282118183101715612d7457612d746138b5565b81604052838152866020858801011115612d8d57600080fd5b836020870160208301376000602085830101528094505050505092915050565b60008083601f840112612dbf57600080fd5b5081356001600160401b03811115612dd657600080fd5b60208301915083602082850101111561134657600080fd5b803561ffff81168114611a4357600080fd5b600060208284031215612e1257600080fd5b611d6882612cfa565b60008060408385031215612e2e57600080fd5b612e3783612cfa565b9150612e4560208401612cfa565b90509250929050565b600080600060608486031215612e6357600080fd5b612e6c84612cfa565b9250612e7a60208501612cfa565b9150604084013590509250925092565b60008060008060808587031215612ea057600080fd5b612ea985612cfa565b9350612eb760208601612cfa565b92506040850135915060608501356001600160401b03811115612ed957600080fd5b612ee587828801612d21565b91505092959194509250565b60008060408385031215612f0457600080fd5b612f0d83612cfa565b9150612e4560208401612d11565b600080600060408486031215612f3057600080fd5b612f3984612cfa565b925060208401356001600160401b03811115612f5457600080fd5b612f6086828701612dad565b9497909650939450505050565b600080600080600080600060a0888a031215612f8857600080fd5b612f9188612cfa565b965060208801356001600160401b0380821115612fad57600080fd5b612fb98b838c01612dad565b9098509650869150612fcd60408b01612cfa565b9550612fdb60608b01612dee565b945060808a0135915080821115612ff157600080fd5b50612ffe8a828b01612dad565b989b979a50959850939692959293505050565b6000806000806060858703121561302757600080fd5b61303085612cfa565b935060208501356001600160401b038082111561304c57600080fd5b61305888838901612dad565b9095509350604087013591508082111561307157600080fd5b50612ee587828801612d21565b60008060006060848603121561309357600080fd5b61309c84612cfa565b925060208401356001600160401b03808211156130b857600080fd5b9085019060e082880312156130cc57600080fd5b909250604085013590808211156130e257600080fd5b508401606081870312156130f557600080fd5b809150509250925092565b6000806040838503121561311357600080fd5b61311c83612cfa565b946020939093013593505050565b60008060008060008060008060c0898b03121561314657600080fd5b61314f89612cfa565b97506020890135965060408901356001600160401b038082111561317257600080fd5b61317e8c838d01612dad565b909850965086915061319260608c01612cfa565b95506131a060808c01612dee565b945060a08b01359150808211156131b657600080fd5b506131c38b828c01612dad565b999c989b5096995094979396929594505050565b600080602083850312156131ea57600080fd5b82356001600160401b038082111561320157600080fd5b818501915085601f83011261321557600080fd5b81358181111561322457600080fd5b86602060608302850101111561323957600080fd5b60209290920196919550909350505050565b60006020828403121561325d57600080fd5b611d6882612d11565b60006020828403121561327857600080fd5b5035919050565b6000806040838503121561329257600080fd5b50508035926020909101359150565b6000602082840312156132b357600080fd5b8135611d68816138cb565b6000602082840312156132d057600080fd5b8151611d68816138cb565b600080602083850312156132ee57600080fd5b82356001600160401b0381111561330457600080fd5b61331085828601612dad565b90969095509350505050565b6000806000806080858703121561333257600080fd5b84356001600160401b038082111561334957600080fd5b61335588838901612d21565b9550602087013591508082111561336b57600080fd5b5061337887828801612d21565b93505061338760408601612cfa565b915061339560608601612dee565b905092959194509250565b6000606082840312156133b257600080fd5b604051606081018181106001600160401b03821117156133d4576133d46138b5565b604052823581526133e760208401612cfa565b60208201526133f860408401612dee565b60408201529392505050565b60006040828403121561341657600080fd5b50919050565b60006040828403121561342e57600080fd5b604051604081018181106001600160401b0382111715613450576134506138b5565b60405261345c83612cfa565b815261346a60208401612dee565b60208201529392505050565b60006020828403121561348857600080fd5b611d6882612dee565b6000815180845260005b818110156134b75760208185018101518683018201520161349b565b818111156134c9576000602083870101525b50601f01601f19169290920160200192915050565b81835281816020850137506000828201602090810191909152601f909101601f19169091010190565b6001600160a01b038581168252841660208201526040810183905260806060820181905260009061353a90830184613491565b9695505050505050565b602081526000611d686020830184613491565b60208082526032908201527f4552433732313a207472616e7366657220746f206e6f6e20455243373231526560408201527131b2b4bb32b91034b6b83632b6b2b73a32b960711b606082015260800190565b6020808252818101527f4f776e61626c653a2063616c6c6572206973206e6f7420746865206f776e6572604082015260600190565b60208082526031908201527f4552433732313a207472616e736665722063616c6c6572206973206e6f74206f6040820152701ddb995c881b9bdc88185c1c1c9bdd9959607a1b606082015260800190565b6020808252602b908201527f496e697469616c697a61626c653a20636f6e7472616374206973206e6f74206960408201526a6e697469616c697a696e6760a81b606082015260800190565b878152866020820152600060018060a01b03808816604084015260c060608401526136a960c0840187896134de565b941660808301525061ffff9190911660a09091015295945050505050565b6000823560be198336030181126136dd57600080fd5b9190910192915050565b6000808335601e198436030181126136fe57600080fd5b8301803591506001600160401b0382111561371857600080fd5b60200191503681900382131561134657600080fd5b6000821982111561374057613740613873565b500190565b60008261376257634e487b7160e01b600052601260045260246000fd5b500490565b600081600019048311821515161561378157613781613873565b500290565b60008282101561379857613798613873565b500390565b600060405160c081016001600160401b0382821081831117156137c2576137c26138b5565b81604052829150843660c0870111156137da57600080fd5b6000805b6006811015613817578235848111156137f5578283fd5b61380136828b01612d21565b86525060209485019492909201916001016137de565b50939695505050505050565b600181811c9082168061383757607f821691505b6020821081141561341657634e487b7160e01b600052602260045260246000fd5b600060001982141561386c5761386c613873565b5060010190565b634e487b7160e01b600052601160045260246000fd5b634e487b7160e01b600052603160045260246000fd5b634e487b7160e01b600052603260045260246000fd5b634e487b7160e01b600052604160045260246000fd5b6001600160e01b031981168114611be857600080fdfea264697066735822122076b20e760bfb6678106025f788e2fc62abb9b62637a5a28e6f26abfd9191b0e264736f6c63430008060033",
  "devdoc": {
    "kind": "dev",
    "methods": {
      "approve(address,uint256)": {
        "details": "See {IERC721-approve}."
      },
      "balanceOf(address)": {
        "details": "See {IERC721-balanceOf}."
      },
      "constructor": {
        "details": "the initializer modifier is to avoid someone initializing      the implementation contract after deployment"
      },
      "getApproved(uint256)": {
        "details": "See {IERC721-getApproved}."
      },
      "getCategoryQuantityFromSong(bytes32,uint256)": {
        "details": "getter for the quantity of tokens belonging to a specific category for a song",
        "params": {
          "categoryNumber_": "the number of the category to consult",
          "songId_": "the id of the song"
        }
      },
      "getTokenRoyaltiesCount()": {
        "details": "See {IEIP2981RoyaltyOverride-getTokenRoyaltiesCount}."
      },
      "getTokenRoyaltyByIndex(uint256)": {
        "details": "See {IEIP2981RoyaltyOverride-getTokenRoyaltyByIndex}."
      },
      "isApprovedForAll(address,address)": {
        "details": "See {IERC721-isApprovedForAll}."
      },
      "name()": {
        "details": "See {IERC721Metadata-name}."
      },
      "owner()": {
        "details": "Returns the address of the current owner."
      },
      "ownerOf(uint256)": {
        "details": "See {IERC721-ownerOf}."
      },
      "renounceOwnership()": {
        "details": "Leaves the contract without owner. It will not be possible to call `onlyOwner` functions anymore. Can only be called by the current owner. NOTE: Renouncing ownership will leave the contract without an owner, thereby removing any functionality that is only available to the owner."
      },
      "royaltyInfo(uint256,uint256)": {
        "details": "See {IEIP2981RoyaltyOverride-royaltyInfo}."
      },
      "safeTransferFrom(address,address,uint256)": {
        "details": "See {IERC721-safeTransferFrom}."
      },
      "safeTransferFrom(address,address,uint256,bytes)": {
        "details": "See {IERC721-safeTransferFrom}."
      },
      "setApprovalForAll(address,bool)": {
        "details": "See {IERC721-setApprovalForAll}."
      },
      "setDefaultRoyalty((address,uint16))": {
        "details": "Set a default royalty configuration.  Will be used if no token specific configuration is set"
      },
      "symbol()": {
        "details": "See {IERC721Metadata-symbol}."
      },
      "tokenURI(uint256)": {
        "details": "See {IERC721Metadata-tokenURI}."
      },
      "transferFrom(address,address,uint256)": {
        "details": "See {IERC721-transferFrom}."
      },
      "transferOwnership(address)": {
        "details": "Transfers ownership of the contract to a new account (`newOwner`). Can only be called by the current owner."
      }
    },
    "stateVariables": {
      "_categories": {
        "details": "token id => category"
      },
      "_editionMinted": {
        "details": "song id => edition type => quantity minted"
      },
      "_editionQuantities": {
        "details": "song id => edition type => quantity to mint"
      },
      "_songs": {
        "details": "song id => song data"
      },
      "_tokenSong": {
        "details": "token id => song id"
      },
      "mintHowManyEditions": {
        "details": "how many editions to mint in each mintEditions call"
      }
    },
    "version": 1
  },
  "userdoc": {
    "kind": "user",
    "methods": {
      "setMintHowManyEditions(uint256)": {
        "notice": "how many editions to mint in one call"
      }
    },
    "version": 1
  },
  "storageLayout": {
    "storage": [
      {
        "astId": 14362,
        "contract": "contracts/implementations/ERC721Royalty/ERC721WithRoyalty.sol:ERC721WithRoyalty",
        "label": "defaultRoyalty",
        "offset": 0,
        "slot": "0",
        "type": "t_struct(TokenRoyalty)14668_storage"
      },
      {
        "astId": 14367,
        "contract": "contracts/implementations/ERC721Royalty/ERC721WithRoyalty.sol:ERC721WithRoyalty",
        "label": "_tokenRoyalties",
        "offset": 0,
        "slot": "1",
        "type": "t_mapping(t_uint256,t_struct(TokenRoyalty)14668_storage)"
      },
      {
        "astId": 14370,
        "contract": "contracts/implementations/ERC721Royalty/ERC721WithRoyalty.sol:ERC721WithRoyalty",
        "label": "_tokensWithRoyalties",
        "offset": 0,
        "slot": "2",
        "type": "t_struct(UintSet)8809_storage"
      },
      {
        "astId": 950,
        "contract": "contracts/implementations/ERC721Royalty/ERC721WithRoyalty.sol:ERC721WithRoyalty",
        "label": "_initialized",
        "offset": 0,
        "slot": "4",
        "type": "t_bool"
      },
      {
        "astId": 953,
        "contract": "contracts/implementations/ERC721Royalty/ERC721WithRoyalty.sol:ERC721WithRoyalty",
        "label": "_initializing",
        "offset": 1,
        "slot": "4",
        "type": "t_bool"
      },
      {
        "astId": 4119,
        "contract": "contracts/implementations/ERC721Royalty/ERC721WithRoyalty.sol:ERC721WithRoyalty",
        "label": "__gap",
        "offset": 0,
        "slot": "5",
        "type": "t_array(t_uint256)50_storage"
      },
      {
        "astId": 5255,
        "contract": "contracts/implementations/ERC721Royalty/ERC721WithRoyalty.sol:ERC721WithRoyalty",
        "label": "__gap",
        "offset": 0,
        "slot": "55",
        "type": "t_array(t_uint256)50_storage"
      },
      {
        "astId": 2838,
        "contract": "contracts/implementations/ERC721Royalty/ERC721WithRoyalty.sol:ERC721WithRoyalty",
        "label": "_name",
        "offset": 0,
        "slot": "105",
        "type": "t_string_storage"
      },
      {
        "astId": 2840,
        "contract": "contracts/implementations/ERC721Royalty/ERC721WithRoyalty.sol:ERC721WithRoyalty",
        "label": "_symbol",
        "offset": 0,
        "slot": "106",
        "type": "t_string_storage"
      },
      {
        "astId": 2844,
        "contract": "contracts/implementations/ERC721Royalty/ERC721WithRoyalty.sol:ERC721WithRoyalty",
        "label": "_owners",
        "offset": 0,
        "slot": "107",
        "type": "t_mapping(t_uint256,t_address)"
      },
      {
        "astId": 2848,
        "contract": "contracts/implementations/ERC721Royalty/ERC721WithRoyalty.sol:ERC721WithRoyalty",
        "label": "_balances",
        "offset": 0,
        "slot": "108",
        "type": "t_mapping(t_address,t_uint256)"
      },
      {
        "astId": 2852,
        "contract": "contracts/implementations/ERC721Royalty/ERC721WithRoyalty.sol:ERC721WithRoyalty",
        "label": "_tokenApprovals",
        "offset": 0,
        "slot": "109",
        "type": "t_mapping(t_uint256,t_address)"
      },
      {
        "astId": 2858,
        "contract": "contracts/implementations/ERC721Royalty/ERC721WithRoyalty.sol:ERC721WithRoyalty",
        "label": "_operatorApprovals",
        "offset": 0,
        "slot": "110",
        "type": "t_mapping(t_address,t_mapping(t_address,t_bool))"
      },
      {
        "astId": 3669,
        "contract": "contracts/implementations/ERC721Royalty/ERC721WithRoyalty.sol:ERC721WithRoyalty",
        "label": "__gap",
        "offset": 0,
        "slot": "111",
        "type": "t_array(t_uint256)44_storage"
      },
      {
        "astId": 420,
        "contract": "contracts/implementations/ERC721Royalty/ERC721WithRoyalty.sol:ERC721WithRoyalty",
        "label": "_owner",
        "offset": 0,
        "slot": "155",
        "type": "t_address"
      },
      {
        "astId": 534,
        "contract": "contracts/implementations/ERC721Royalty/ERC721WithRoyalty.sol:ERC721WithRoyalty",
        "label": "__gap",
        "offset": 0,
        "slot": "156",
        "type": "t_array(t_uint256)49_storage"
      },
      {
        "astId": 13309,
        "contract": "contracts/implementations/ERC721Royalty/ERC721WithRoyalty.sol:ERC721WithRoyalty",
        "label": "tokenToUri",
        "offset": 0,
        "slot": "205",
        "type": "t_mapping(t_uint256,t_string_storage)"
      },
      {
        "astId": 13313,
        "contract": "contracts/implementations/ERC721Royalty/ERC721WithRoyalty.sol:ERC721WithRoyalty",
        "label": "_proofOfAuthenticity",
        "offset": 0,
        "slot": "206",
        "type": "t_mapping(t_uint256,t_string_storage)"
      },
      {
        "astId": 13315,
        "contract": "contracts/implementations/ERC721Royalty/ERC721WithRoyalty.sol:ERC721WithRoyalty",
        "label": "tokenCounter",
        "offset": 0,
        "slot": "207",
        "type": "t_uint256"
      },
      {
        "astId": 13321,
        "contract": "contracts/implementations/ERC721Royalty/ERC721WithRoyalty.sol:ERC721WithRoyalty",
        "label": "_songs",
        "offset": 0,
        "slot": "208",
        "type": "t_mapping(t_bytes32,t_struct(Song)14698_storage)"
      },
      {
        "astId": 13328,
        "contract": "contracts/implementations/ERC721Royalty/ERC721WithRoyalty.sol:ERC721WithRoyalty",
        "label": "_editionQuantities",
        "offset": 0,
        "slot": "209",
        "type": "t_mapping(t_bytes32,t_mapping(t_uint256,t_uint256))"
      },
      {
        "astId": 13335,
        "contract": "contracts/implementations/ERC721Royalty/ERC721WithRoyalty.sol:ERC721WithRoyalty",
        "label": "_editionMinted",
        "offset": 0,
        "slot": "210",
        "type": "t_mapping(t_bytes32,t_mapping(t_uint256,t_uint256))"
      },
      {
        "astId": 13340,
        "contract": "contracts/implementations/ERC721Royalty/ERC721WithRoyalty.sol:ERC721WithRoyalty",
        "label": "_tokenSong",
        "offset": 0,
        "slot": "211",
        "type": "t_mapping(t_uint256,t_bytes32)"
      },
      {
        "astId": 13345,
        "contract": "contracts/implementations/ERC721Royalty/ERC721WithRoyalty.sol:ERC721WithRoyalty",
        "label": "_categories",
        "offset": 0,
        "slot": "212",
        "type": "t_mapping(t_uint256,t_uint256)"
      },
      {
        "astId": 13347,
        "contract": "contracts/implementations/ERC721Royalty/ERC721WithRoyalty.sol:ERC721WithRoyalty",
        "label": "internalURIEnabled",
        "offset": 0,
        "slot": "213",
        "type": "t_bool"
      },
      {
        "astId": 13349,
        "contract": "contracts/implementations/ERC721Royalty/ERC721WithRoyalty.sol:ERC721WithRoyalty",
        "label": "_internalURI",
        "offset": 0,
        "slot": "214",
        "type": "t_string_storage"
      },
      {
        "astId": 13352,
        "contract": "contracts/implementations/ERC721Royalty/ERC721WithRoyalty.sol:ERC721WithRoyalty",
        "label": "mintHowManyEditions",
        "offset": 0,
        "slot": "215",
        "type": "t_uint256"
      }
    ],
    "types": {
      "t_address": {
        "encoding": "inplace",
        "label": "address",
        "numberOfBytes": "20"
      },
      "t_array(t_bytes32)dyn_storage": {
        "base": "t_bytes32",
        "encoding": "dynamic_array",
        "label": "bytes32[]",
        "numberOfBytes": "32"
      },
      "t_array(t_string_storage)6_storage": {
        "base": "t_string_storage",
        "encoding": "inplace",
        "label": "string[6]",
        "numberOfBytes": "192"
      },
      "t_array(t_uint256)44_storage": {
        "base": "t_uint256",
        "encoding": "inplace",
        "label": "uint256[44]",
        "numberOfBytes": "1408"
      },
      "t_array(t_uint256)49_storage": {
        "base": "t_uint256",
        "encoding": "inplace",
        "label": "uint256[49]",
        "numberOfBytes": "1568"
      },
      "t_array(t_uint256)50_storage": {
        "base": "t_uint256",
        "encoding": "inplace",
        "label": "uint256[50]",
        "numberOfBytes": "1600"
      },
      "t_bool": {
        "encoding": "inplace",
        "label": "bool",
        "numberOfBytes": "1"
      },
      "t_bytes32": {
        "encoding": "inplace",
        "label": "bytes32",
        "numberOfBytes": "32"
      },
      "t_mapping(t_address,t_bool)": {
        "encoding": "mapping",
        "key": "t_address",
        "label": "mapping(address => bool)",
        "numberOfBytes": "32",
        "value": "t_bool"
      },
      "t_mapping(t_address,t_mapping(t_address,t_bool))": {
        "encoding": "mapping",
        "key": "t_address",
        "label": "mapping(address => mapping(address => bool))",
        "numberOfBytes": "32",
        "value": "t_mapping(t_address,t_bool)"
      },
      "t_mapping(t_address,t_uint256)": {
        "encoding": "mapping",
        "key": "t_address",
        "label": "mapping(address => uint256)",
        "numberOfBytes": "32",
        "value": "t_uint256"
      },
      "t_mapping(t_bytes32,t_mapping(t_uint256,t_uint256))": {
        "encoding": "mapping",
        "key": "t_bytes32",
        "label": "mapping(bytes32 => mapping(uint256 => uint256))",
        "numberOfBytes": "32",
        "value": "t_mapping(t_uint256,t_uint256)"
      },
      "t_mapping(t_bytes32,t_struct(Song)14698_storage)": {
        "encoding": "mapping",
        "key": "t_bytes32",
        "label": "mapping(bytes32 => struct Song)",
        "numberOfBytes": "32",
        "value": "t_struct(Song)14698_storage"
      },
      "t_mapping(t_bytes32,t_uint256)": {
        "encoding": "mapping",
        "key": "t_bytes32",
        "label": "mapping(bytes32 => uint256)",
        "numberOfBytes": "32",
        "value": "t_uint256"
      },
      "t_mapping(t_uint256,t_address)": {
        "encoding": "mapping",
        "key": "t_uint256",
        "label": "mapping(uint256 => address)",
        "numberOfBytes": "32",
        "value": "t_address"
      },
      "t_mapping(t_uint256,t_bytes32)": {
        "encoding": "mapping",
        "key": "t_uint256",
        "label": "mapping(uint256 => bytes32)",
        "numberOfBytes": "32",
        "value": "t_bytes32"
      },
      "t_mapping(t_uint256,t_string_storage)": {
        "encoding": "mapping",
        "key": "t_uint256",
        "label": "mapping(uint256 => string)",
        "numberOfBytes": "32",
        "value": "t_string_storage"
      },
      "t_mapping(t_uint256,t_struct(TokenRoyalty)14668_storage)": {
        "encoding": "mapping",
        "key": "t_uint256",
        "label": "mapping(uint256 => struct TokenRoyalty)",
        "numberOfBytes": "32",
        "value": "t_struct(TokenRoyalty)14668_storage"
      },
      "t_mapping(t_uint256,t_uint256)": {
        "encoding": "mapping",
        "key": "t_uint256",
        "label": "mapping(uint256 => uint256)",
        "numberOfBytes": "32",
        "value": "t_uint256"
      },
      "t_string_storage": {
        "encoding": "bytes",
        "label": "string",
        "numberOfBytes": "32"
      },
      "t_struct(Set)8351_storage": {
        "encoding": "inplace",
        "label": "struct EnumerableSet.Set",
        "members": [
          {
            "astId": 8346,
            "contract": "contracts/implementations/ERC721Royalty/ERC721WithRoyalty.sol:ERC721WithRoyalty",
            "label": "_values",
            "offset": 0,
            "slot": "0",
            "type": "t_array(t_bytes32)dyn_storage"
          },
          {
            "astId": 8350,
            "contract": "contracts/implementations/ERC721Royalty/ERC721WithRoyalty.sol:ERC721WithRoyalty",
            "label": "_indexes",
            "offset": 0,
            "slot": "1",
            "type": "t_mapping(t_bytes32,t_uint256)"
          }
        ],
        "numberOfBytes": "64"
      },
      "t_struct(Song)14698_storage": {
        "encoding": "inplace",
        "label": "struct Song",
        "members": [
          {
            "astId": 14677,
            "contract": "contracts/implementations/ERC721Royalty/ERC721WithRoyalty.sol:ERC721WithRoyalty",
            "label": "isStreaming",
            "offset": 0,
            "slot": "0",
            "type": "t_bool"
          },
          {
            "astId": 14679,
            "contract": "contracts/implementations/ERC721Royalty/ERC721WithRoyalty.sol:ERC721WithRoyalty",
            "label": "masterNFT",
            "offset": 0,
            "slot": "1",
            "type": "t_uint256"
          },
          {
            "astId": 14681,
            "contract": "contracts/implementations/ERC721Royalty/ERC721WithRoyalty.sol:ERC721WithRoyalty",
            "label": "totalAmount",
            "offset": 0,
            "slot": "2",
            "type": "t_uint256"
          },
          {
            "astId": 14683,
            "contract": "contracts/implementations/ERC721Royalty/ERC721WithRoyalty.sol:ERC721WithRoyalty",
            "label": "totalMinted",
            "offset": 0,
            "slot": "3",
            "type": "t_uint256"
          },
          {
            "astId": 14685,
            "contract": "contracts/implementations/ERC721Royalty/ERC721WithRoyalty.sol:ERC721WithRoyalty",
            "label": "mintingCategory",
            "offset": 0,
            "slot": "4",
            "type": "t_uint256"
          },
          {
            "astId": 14687,
            "contract": "contracts/implementations/ERC721Royalty/ERC721WithRoyalty.sol:ERC721WithRoyalty",
            "label": "mintTo",
            "offset": 0,
            "slot": "5",
            "type": "t_address"
          },
          {
            "astId": 14691,
            "contract": "contracts/implementations/ERC721Royalty/ERC721WithRoyalty.sol:ERC721WithRoyalty",
            "label": "tokenURIs",
            "offset": 0,
            "slot": "6",
            "type": "t_array(t_string_storage)6_storage"
          },
          {
            "astId": 14693,
            "contract": "contracts/implementations/ERC721Royalty/ERC721WithRoyalty.sol:ERC721WithRoyalty",
            "label": "royalty",
            "offset": 0,
            "slot": "12",
            "type": "t_uint16"
          },
          {
            "astId": 14695,
            "contract": "contracts/implementations/ERC721Royalty/ERC721WithRoyalty.sol:ERC721WithRoyalty",
            "label": "royaltyRecipient",
            "offset": 2,
            "slot": "12",
            "type": "t_address"
          },
          {
            "astId": 14697,
            "contract": "contracts/implementations/ERC721Royalty/ERC721WithRoyalty.sol:ERC721WithRoyalty",
            "label": "proofOfAuthenticity_",
            "offset": 0,
            "slot": "13",
            "type": "t_string_storage"
          }
        ],
        "numberOfBytes": "448"
      },
      "t_struct(TokenRoyalty)14668_storage": {
        "encoding": "inplace",
        "label": "struct TokenRoyalty",
        "members": [
          {
            "astId": 14665,
            "contract": "contracts/implementations/ERC721Royalty/ERC721WithRoyalty.sol:ERC721WithRoyalty",
            "label": "recipient",
            "offset": 0,
            "slot": "0",
            "type": "t_address"
          },
          {
            "astId": 14667,
            "contract": "contracts/implementations/ERC721Royalty/ERC721WithRoyalty.sol:ERC721WithRoyalty",
            "label": "bps",
            "offset": 20,
            "slot": "0",
            "type": "t_uint16"
          }
        ],
        "numberOfBytes": "32"
      },
      "t_struct(UintSet)8809_storage": {
        "encoding": "inplace",
        "label": "struct EnumerableSet.UintSet",
        "members": [
          {
            "astId": 8808,
            "contract": "contracts/implementations/ERC721Royalty/ERC721WithRoyalty.sol:ERC721WithRoyalty",
            "label": "_inner",
            "offset": 0,
            "slot": "0",
            "type": "t_struct(Set)8351_storage"
          }
        ],
        "numberOfBytes": "64"
      },
      "t_uint16": {
        "encoding": "inplace",
        "label": "uint16",
        "numberOfBytes": "2"
      },
      "t_uint256": {
        "encoding": "inplace",
        "label": "uint256",
        "numberOfBytes": "32"
      }
    }
  }
}