{
  "address": "0x899A559B4c0B6d598e8A9Bbe0f2F7ddcbfbC639f",
  "abi": [
    {
      "inputs": [],
      "stateMutability": "nonpayable",
      "type": "constructor"
    },
    {
      "anonymous": false,
      "inputs": [
        {
          "indexed": false,
          "internalType": "address",
          "name": "nftAddress",
          "type": "address"
        }
      ],
      "name": "LoyaltyERC1155Created",
      "type": "event"
    },
    {
      "inputs": [
        {
          "internalType": "uint256",
          "name": "",
          "type": "uint256"
        }
      ],
      "name": "allRoyalties",
      "outputs": [
        {
          "internalType": "address",
          "name": "",
          "type": "address"
        }
      ],
      "stateMutability": "view",
      "type": "function"
    },
    {
      "inputs": [
        {
          "internalType": "string",
          "name": "uri",
          "type": "string"
        },
        {
          "internalType": "uint256",
          "name": "amount",
          "type": "uint256"
        },
        {
          "internalType": "address",
          "name": "royaltyAddress",
          "type": "address"
        },
        {
          "internalType": "uint16",
          "name": "bps",
          "type": "uint16"
        },
        {
          "internalType": "string",
          "name": "proofOfAuthenticity",
          "type": "string"
        }
      ],
      "name": "createRoyaltyERC1155",
      "outputs": [
        {
          "internalType": "address",
          "name": "loyalty",
          "type": "address"
        },
        {
          "internalType": "uint256",
          "name": "counter",
          "type": "uint256"
        }
      ],
      "stateMutability": "nonpayable",
      "type": "function"
    }
  ],
  "transactionHash": "0x0e5970552faafcf41031c4040254d5495f1668504c8e73728bfeb3ac31a62d1f",
  "args": [],
  "solcInputHash": "12ea7381dd9f15ec8161956523e83a40",
  "bytecode": "0x608060405234801561001057600080fd5b506000600155613653806100256000396000f3fe608060405234801561001057600080fd5b50600436106100365760003560e01c80632f91b3ca1461003b578063aa18c4c614610072575b600080fd5b61004e6100493660046102c9565b61009d565b604080516001600160a01b0390931683526020830191909152015b60405180910390f35b61008561008036600461037a565b61024b565b6040516001600160a01b039091168152602001610069565b600080600089896040516100b090610275565b6100bb929190610419565b604051809103906000f0801580156100d7573d6000803e3d6000fd5b5060405163f2fde38b60e01b81523360048201529091506001600160a01b0382169063f2fde38b90602401600060405180830381600087803b15801561011c57600080fd5b505af1158015610130573d6000803e3d6000fd5b5050600080546001810182559080527f290decd9548b62a8d60345a988386fc84ba6bc95484008f6362f93160ef3e5630180546001600160a01b0319166001600160a01b038516908117909155604051639ca19ca560e01b81529395508593909250639ca19ca591506101b59033908c908f908f908e908e908e908e906004016103bb565b600060405180830381600087803b1580156101cf57600080fd5b505af11580156101e3573d6000803e3d6000fd5b50506040516001600160a01b03861681527f4c7afeb35ecbb8d358f788cbcf2aade0305add9fa1fee88faf6bd09e709ae36b9250602001905060405180910390a16001805490600061023483610435565b919050555060015491505097509795505050505050565b6000818154811061025b57600080fd5b6000918252602090912001546001600160a01b0316905081565b6131c18061045d83390190565b60008083601f840112610293578182fd5b50813567ffffffffffffffff8111156102aa578182fd5b6020830191508360208285010111156102c257600080fd5b9250929050565b600080600080600080600060a0888a0312156102e3578283fd5b873567ffffffffffffffff808211156102fa578485fd5b6103068b838c01610282565b909950975060208a0135965060408a013591506001600160a01b038216821461032d578485fd5b90945060608901359061ffff82168214610345578485fd5b9093506080890135908082111561035a578384fd5b506103678a828b01610282565b989b979a50959850939692959293505050565b60006020828403121561038b578081fd5b5035919050565b81835281816020850137506000828201602090810191909152601f909101601f19169091010190565b600060018060a01b03808b16835289602084015260c060408401526103e460c08401898b610392565b818816606085015261ffff8716608085015283810360a0850152610409818688610392565b9c9b505050505050505050505050565b60208152600061042d602083018486610392565b949350505050565b600060001982141561045557634e487b7160e01b81526011600452602481fd5b506001019056fe60806040523480156200001157600080fd5b50604051620031c1380380620031c1833981016040819052620000349162000164565b80620000408162000053565b506200004c336200006c565b506200028d565b805162000068906006906020840190620000be565b5050565b600780546001600160a01b038381166001600160a01b0319831681179093556040519116919082907f8be0079c531659141344cd1fd0a4f28419497f9722a3daafe3b4186f6b6457e090600090a35050565b828054620000cc906200023a565b90600052602060002090601f016020900481019282620000f057600085556200013b565b82601f106200010b57805160ff19168380011785556200013b565b828001600101855582156200013b579182015b828111156200013b5782518255916020019190600101906200011e565b50620001499291506200014d565b5090565b5b808211156200014957600081556001016200014e565b6000602080838503121562000177578182fd5b82516001600160401b03808211156200018e578384fd5b818501915085601f830112620001a2578384fd5b815181811115620001b757620001b762000277565b604051601f8201601f19908116603f01168101908382118183101715620001e257620001e262000277565b816040528281528886848701011115620001fa578687fd5b8693505b828410156200021d5784840186015181850187015292850192620001fe565b828411156200022e57868684830101525b98975050505050505050565b600181811c908216806200024f57607f821691505b602082108114156200027157634e487b7160e01b600052602260045260246000fd5b50919050565b634e487b7160e01b600052604160045260246000fd5b612f24806200029d6000396000f3fe608060405234801561001057600080fd5b506004361061018d5760003560e01c80637885fdc7116100de578063e985e9c511610097578063f02a085711610071578063f02a085714610401578063f242432a14610414578063f2fde38b14610427578063f5298aca1461043a57600080fd5b8063e985e9c51461039f578063eb44350e146103db578063ef60ceaf146103ee57600080fd5b80637885fdc7146103015780637e980342146103435780638da5cb5b1461034b5780639ca19ca514610366578063a22cb46514610379578063d3fc98641461038c57600080fd5b80632eb2c2d61161014b5780635136dcc7116101255780635136dcc7146102ca57806361bc221a146102dd5780636b20c454146102e6578063715018a6146102f957600080fd5b80632eb2c2d61461028457806331a99766146102975780634e1273f4146102aa57600080fd5b8062fdd58e1461019257806301ffc9a7146101b85780630653aca5146101db5780630e89341c1461021d5780632a3a75fe1461023d5780632a55205a14610252575b600080fd5b6101a56101a03660046124d9565b61044d565b6040519081526020015b60405180910390f35b6101cb6101c63660046127c2565b6104e9565b60405190151581526020016101af565b6101ee6101e93660046128cd565b6104f4565b60408051825181526020808401516001600160a01b0316908201529181015161ffff16908201526060016101af565b61023061022b3660046128cd565b610579565b6040516101af9190612a6f565b61025061024b366004612426565b61061b565b005b6102656102603660046128e5565b6106bf565b604080516001600160a01b0390931683526020830191909152016101af565b610250610292366004612214565b610784565b6102306102a53660046128cd565b61081b565b6102bd6102b8366004612689565b610838565b6040516101af9190612a2e565b6102506102d8366004612753565b610999565b6101a560095481565b6102506102f436600461231b565b610a22565b610250610a5c565b600054610321906001600160a01b03811690600160a01b900461ffff1682565b604080516001600160a01b03909316835261ffff9091166020830152016101af565b6101a5610a92565b6007546040516001600160a01b0390911681526020016101af565b610250610374366004612559565b610aa3565b61025061038736600461249f565b610c4c565b61025061039a366004612502565b610d23565b6101cb6103ad3660046121e2565b6001600160a01b03918216600090815260056020908152604080832093909416825291909152205460ff1690565b6102506103e936600461238b565b610d4c565b6102506103fc36600461285d565b610dd7565b61025061040f366004612635565b610e1b565b6102506104223660046122b9565b610e28565b6102506104353660046121c8565b610eaf565b610250610448366004612603565b610f47565b60006001600160a01b0383166104be5760405162461bcd60e51b815260206004820152602b60248201527f455243313135353a2062616c616e636520717565727920666f7220746865207a60448201526a65726f206164647265737360a81b60648201526084015b60405180910390fd5b5060008181526004602090815260408083206001600160a01b03861684529091529020545b92915050565b60006104e382610f7c565b604080516060810182526000808252602082018190529181018290529061051c600284610fbc565b6000818152600160209081526040918290208251808401845290546001600160a01b03808216835261ffff600160a01b90920482168385019081528551606081018752968752925116928501929092525116908201529392505050565b600081815260086020526040902080546060919061059690612d8f565b80601f01602080910402602001604051908101604052809291908181526020018280546105c290612d8f565b801561060f5780601f106105e45761010080835404028352916020019161060f565b820191906000526020600020905b8154815290600101906020018083116105f257829003601f168201915b50505050509050919050565b60016009600082825461062e9190612d21565b90915550600090505b82518110156106b9576106848460095485848151811061066757634e487b7160e01b600052603260045260246000fd5b602002602001015160405180602001604052806000815250610fcf565b600954600090815260086020908152604090912083516106a692850190611f5e565b50806106b181612df0565b915050610637565b50505050565b60008281526001602052604081205481906001600160a01b031615610724576000848152600160205260409020546001600160a01b038116906127109061071190600160a01b900461ffff1686612d59565b61071b9190612d39565b9150915061077d565b6000546001600160a01b03161580159061074a5750600054600160a01b900461ffff1615155b15610776576000546001600160a01b038116906127109061071190600160a01b900461ffff1686612d59565b5060009050805b9250929050565b6001600160a01b0385163314806107a057506107a085336103ad565b6108075760405162461bcd60e51b815260206004820152603260248201527f455243313135353a207472616e736665722063616c6c6572206973206e6f74206044820152711bdddb995c881b9bdc88185c1c1c9bdd995960721b60648201526084016104b5565b61081485858585856110a1565b5050505050565b6000818152600a6020526040902080546060919061059690612d8f565b6060815183511461089d5760405162461bcd60e51b815260206004820152602960248201527f455243313135353a206163636f756e747320616e6420696473206c656e677468604482015268040dad2e6dac2e8c6d60bb1b60648201526084016104b5565b600083516001600160401b038111156108c657634e487b7160e01b600052604160045260246000fd5b6040519080825280602002602001820160405280156108ef578160200160208202803683370190505b50905060005b84518110156109915761095685828151811061092157634e487b7160e01b600052603260045260246000fd5b602002602001015185838151811061094957634e487b7160e01b600052603260045260246000fd5b602002602001015161044d565b82828151811061097657634e487b7160e01b600052603260045260246000fd5b602090810291909101015261098a81612df0565b90506108f5565b509392505050565b6007546001600160a01b031633146109c35760405162461bcd60e51b81526004016104b590612be0565b610a1e8282808060200260200160405190810160405280939291908181526020016000905b82821015610a1457610a05606083028601368190038101906127fa565b815260200190600101906109e8565b5050505050611254565b5050565b6007546001600160a01b03163314610a4c5760405162461bcd60e51b81526004016104b590612be0565b610a57838383611427565b505050565b6007546001600160a01b03163314610a865760405162461bcd60e51b81526004016104b590612be0565b610a9060006115c2565b565b6000610a9e6002611614565b905090565b6064871115610af45760405162461bcd60e51b815260206004820181905260248201527f416d6f756e742063616e27742062652067726561746572207468616e2031302160448201526064016104b5565b60005b87811015610c4157600160096000828254610b129190612d21565b92505081905550610b298960095460018a8a61161e565b604080516001808252818301909252600091816020015b6040805160608101825260008082526020808301829052928201528252600019909201910181610b4057905050905060405180606001604052806009548152602001876001600160a01b031681526020018661ffff1681525081600081518110610bba57634e487b7160e01b600052603260045260246000fd5b6020026020010181905250610bce81611254565b6009546000908152600a60205260409020610bea908585611fe2565b507f267de29c492da4634a7dca78204318a76a0a7c47341583b654a8a637f3f2658f6009548b8a8a8a8a604051610c2696959493929190612c9e565b60405180910390a15080610c3981612df0565b915050610af7565b505050505050505050565b336001600160a01b0383161415610cb75760405162461bcd60e51b815260206004820152602960248201527f455243313135353a2073657474696e6720617070726f76616c20737461747573604482015268103337b91039b2b63360b91b60648201526084016104b5565b3360008181526005602090815260408083206001600160a01b03871680855290835292819020805460ff191686151590811790915590519081529192917f17307eab39ab6107e8899845ad3d59bd9653f200f220920489ca2b5937696c31910160405180910390a35050565b600160096000828254610d369190612d21565b925050819055506106b98460095485858561161e565b610d6785858560405180602001604052806000815250611652565b60005b8451811015610dcf57828260086000888581518110610d9957634e487b7160e01b600052603260045260246000fd5b602002602001015181526020019081526020016000209190610dbc929190611fe2565b5080610dc781612df0565b915050610d6a565b505050505050565b6007546001600160a01b03163314610e015760405162461bcd60e51b81526004016104b590612be0565b610e18610e1336839003830183612874565b6117ba565b50565b610814858585858561161e565b6001600160a01b038516331480610e445750610e4485336103ad565b610ea25760405162461bcd60e51b815260206004820152602960248201527f455243313135353a2063616c6c6572206973206e6f74206f776e6572206e6f7260448201526808185c1c1c9bdd995960ba1b60648201526084016104b5565b610814858585858561189d565b6007546001600160a01b03163314610ed95760405162461bcd60e51b81526004016104b590612be0565b6001600160a01b038116610f3e5760405162461bcd60e51b815260206004820152602660248201527f4f776e61626c653a206e6577206f776e657220697320746865207a65726f206160448201526564647265737360d01b60648201526084016104b5565b610e18816115c2565b6007546001600160a01b03163314610f715760405162461bcd60e51b81526004016104b590612be0565b610a578383836119be565b60006001600160e01b03198216636cdb3d1360e11b1480610fad57506001600160e01b031982166303a24d0760e21b145b806104e357506104e382611ac4565b6000610fc88383611b14565b9392505050565b6001600160a01b038416610ff55760405162461bcd60e51b81526004016104b590612c5d565b3361100f8160008761100688611b4c565b61081488611b4c565b60008481526004602090815260408083206001600160a01b038916845290915281208054859290611041908490612d21565b909155505060408051858152602081018590526001600160a01b0380881692600092918516917fc3d58168c5ae7397731d063d5bbf3d657854427343f4c083240f7aacaa2d0f62910160405180910390a461081481600087878787611ba5565b81518351146110c25760405162461bcd60e51b81526004016104b590612c15565b6001600160a01b0384166110e85760405162461bcd60e51b81526004016104b590612b0e565b3360005b84518110156111ee57600085828151811061111757634e487b7160e01b600052603260045260246000fd5b60200260200101519050600085838151811061114357634e487b7160e01b600052603260045260246000fd5b60209081029190910181015160008481526004835260408082206001600160a01b038e1683529093529190912054909150818110156111945760405162461bcd60e51b81526004016104b590612b96565b60008381526004602090815260408083206001600160a01b038e8116855292528083208585039055908b168252812080548492906111d3908490612d21565b92505081905550505050806111e790612df0565b90506110ec565b50846001600160a01b0316866001600160a01b0316826001600160a01b03167f4a39dc06d4c0dbc64b70af90fd698a233a518aa5d07e595d983b8c0526c8f7fb878760405161123e929190612a41565b60405180910390a4610dcf818787878787611d10565b60005b8151811015610a1e57600082828151811061128257634e487b7160e01b600052603260045260246000fd5b60200260200101519050612710816040015161ffff16106112d35760405162461bcd60e51b815260206004820152600b60248201526a496e76616c69642062707360a81b60448201526064016104b5565b60208101516001600160a01b031661134c578051600090815260016020526040902080546001600160b01b0319169055805161131190600290611dda565b5080516040519081527fa2870857763bd9ae76c957f869f16b31c18dd3bb4c7b4d3a4496dc5c57c657f99060200160405180910390a1611414565b6040805180820182526020808401516001600160a01b0390811683528484015161ffff90811683850190815286516000908152600190945294909220925183549451909216600160a01b026001600160b01b031990941691161791909117905580516113ba90600290611de6565b50805160208083015160408085015181519485526001600160a01b039092169284019290925261ffff1682820152517f389b70fb0887f01e83784eb1c4c589f740eca53b00ed0f45e41db5d079719abb9181900360600190a15b508061141f81612df0565b915050611257565b6001600160a01b03831661144d5760405162461bcd60e51b81526004016104b590612b53565b805182511461146e5760405162461bcd60e51b81526004016104b590612c15565b604080516020810190915260009081905233905b83518110156115635760008482815181106114ad57634e487b7160e01b600052603260045260246000fd5b6020026020010151905060008483815181106114d957634e487b7160e01b600052603260045260246000fd5b60209081029190910181015160008481526004835260408082206001600160a01b038c16835290935291909120549091508181101561152a5760405162461bcd60e51b81526004016104b590612aca565b60009283526004602090815260408085206001600160a01b038b168652909152909220910390558061155b81612df0565b915050611482565b5060006001600160a01b0316846001600160a01b0316826001600160a01b03167f4a39dc06d4c0dbc64b70af90fd698a233a518aa5d07e595d983b8c0526c8f7fb86866040516115b4929190612a41565b60405180910390a450505050565b600780546001600160a01b038381166001600160a01b0319831681179093556040519116919082907f8be0079c531659141344cd1fd0a4f28419497f9722a3daafe3b4186f6b6457e090600090a35050565b60006104e3825490565b61163985858560405180602001604052806000815250610fcf565b6000848152600860205260409020610dcf908383611fe2565b6001600160a01b0384166116785760405162461bcd60e51b81526004016104b590612c5d565b81518351146116995760405162461bcd60e51b81526004016104b590612c15565b3360005b8451811015611752578381815181106116c657634e487b7160e01b600052603260045260246000fd5b6020026020010151600460008784815181106116f257634e487b7160e01b600052603260045260246000fd5b602002602001015181526020019081526020016000206000886001600160a01b03166001600160a01b03168152602001908152602001600020600082825461173a9190612d21565b9091555081905061174a81612df0565b91505061169d565b50846001600160a01b031660006001600160a01b0316826001600160a01b03167f4a39dc06d4c0dbc64b70af90fd698a233a518aa5d07e595d983b8c0526c8f7fb87876040516117a3929190612a41565b60405180910390a461081481600087878787611d10565b612710816020015161ffff16106118015760405162461bcd60e51b815260206004820152600b60248201526a496e76616c69642062707360a81b60448201526064016104b5565b60408051808201825282516001600160a01b03168082526020808501805161ffff169190930181905260008054600160a01b9092026001600160b01b03199092169092171790558251905191517f2c5ea6e4103e78cb101e796fb2dace540362fc542cbff5145eaa24af7dd8fe419261189292916001600160a01b0392909216825261ffff16602082015260400190565b60405180910390a150565b6001600160a01b0384166118c35760405162461bcd60e51b81526004016104b590612b0e565b336118d381878761100688611b4c565b60008481526004602090815260408083206001600160a01b038a168452909152902054838110156119165760405162461bcd60e51b81526004016104b590612b96565b60008581526004602090815260408083206001600160a01b038b8116855292528083208785039055908816825281208054869290611955908490612d21565b909155505060408051868152602081018690526001600160a01b03808916928a821692918616917fc3d58168c5ae7397731d063d5bbf3d657854427343f4c083240f7aacaa2d0f62910160405180910390a46119b5828888888888611ba5565b50505050505050565b6001600160a01b0383166119e45760405162461bcd60e51b81526004016104b590612b53565b33611a14818560006119f587611b4c565b6119fe87611b4c565b5050604080516020810190915260009052505050565b60008381526004602090815260408083206001600160a01b038816845290915290205482811015611a575760405162461bcd60e51b81526004016104b590612aca565b60008481526004602090815260408083206001600160a01b03898116808652918452828520888703905582518981529384018890529092908616917fc3d58168c5ae7397731d063d5bbf3d657854427343f4c083240f7aacaa2d0f62910160405180910390a45050505050565b60006001600160e01b0319821663152a902d60e11b1480611af557506001600160e01b0319821663c69dbd8f60e01b145b806104e357506301ffc9a760e01b6001600160e01b03198316146104e3565b6000826000018281548110611b3957634e487b7160e01b600052603260045260246000fd5b9060005260206000200154905092915050565b60408051600180825281830190925260609160009190602080830190803683370190505090508281600081518110611b9457634e487b7160e01b600052603260045260246000fd5b602090810291909101015292915050565b6001600160a01b0384163b15610dcf5760405163f23a6e6160e01b81526001600160a01b0385169063f23a6e6190611be990899089908890889088906004016129e9565b602060405180830381600087803b158015611c0357600080fd5b505af1925050508015611c33575060408051601f3d908101601f19168201909252611c30918101906127de565b60015b611ce057611c3f612e37565b806308c379a01415611c795750611c54612e4f565b80611c5f5750611c7b565b8060405162461bcd60e51b81526004016104b59190612a6f565b505b60405162461bcd60e51b815260206004820152603460248201527f455243313135353a207472616e7366657220746f206e6f6e20455243313135356044820152732932b1b2b4bb32b91034b6b83632b6b2b73a32b960611b60648201526084016104b5565b6001600160e01b0319811663f23a6e6160e01b146119b55760405162461bcd60e51b81526004016104b590612a82565b6001600160a01b0384163b15610dcf5760405163bc197c8160e01b81526001600160a01b0385169063bc197c8190611d54908990899088908890889060040161298b565b602060405180830381600087803b158015611d6e57600080fd5b505af1925050508015611d9e575060408051601f3d908101601f19168201909252611d9b918101906127de565b60015b611daa57611c3f612e37565b6001600160e01b0319811663bc197c8160e01b146119b55760405162461bcd60e51b81526004016104b590612a82565b6000610fc88383611df2565b6000610fc88383611f0f565b60008181526001830160205260408120548015611f05576000611e16600183612d78565b8554909150600090611e2a90600190612d78565b9050818114611eab576000866000018281548110611e5857634e487b7160e01b600052603260045260246000fd5b9060005260206000200154905080876000018481548110611e8957634e487b7160e01b600052603260045260246000fd5b6000918252602080832090910192909255918252600188019052604090208390555b8554869080611eca57634e487b7160e01b600052603160045260246000fd5b6001900381819060005260206000200160009055905585600101600086815260200190815260200160002060009055600193505050506104e3565b60009150506104e3565b6000818152600183016020526040812054611f56575081546001818101845560008481526020808220909301849055845484825282860190935260409020919091556104e3565b5060006104e3565b828054611f6a90612d8f565b90600052602060002090601f016020900481019282611f8c5760008555611fd2565b82601f10611fa557805160ff1916838001178555611fd2565b82800160010185558215611fd2579182015b82811115611fd2578251825591602001919060010190611fb7565b50611fde929150612056565b5090565b828054611fee90612d8f565b90600052602060002090601f0160209004810192826120105760008555611fd2565b82601f106120295782800160ff19823516178555611fd2565b82800160010185558215611fd2579182015b82811115611fd257823582559160200191906001019061203b565b5b80821115611fde5760008155600101612057565b60006001600160401b0383111561208457612084612e21565b60405161209b601f8501601f191660200182612dc4565b8091508381528484840111156120b057600080fd5b83836020830137600060208583010152509392505050565b80356001600160a01b03811681146120df57600080fd5b919050565b600082601f8301126120f4578081fd5b8135602061210182612cfe565b60405161210e8282612dc4565b8381528281019150858301600585901b8701840188101561212d578586fd5b855b8581101561214b5781358452928401929084019060010161212f565b5090979650505050505050565b600082601f830112612168578081fd5b610fc88383356020850161206b565b60008083601f840112612188578182fd5b5081356001600160401b0381111561219e578182fd5b60208301915083602082850101111561077d57600080fd5b803561ffff811681146120df57600080fd5b6000602082840312156121d9578081fd5b610fc8826120c8565b600080604083850312156121f4578081fd5b6121fd836120c8565b915061220b602084016120c8565b90509250929050565b600080600080600060a0868803121561222b578081fd5b612234866120c8565b9450612242602087016120c8565b935060408601356001600160401b038082111561225d578283fd5b61226989838a016120e4565b9450606088013591508082111561227e578283fd5b61228a89838a016120e4565b9350608088013591508082111561229f578283fd5b506122ac88828901612158565b9150509295509295909350565b600080600080600060a086880312156122d0578081fd5b6122d9866120c8565b94506122e7602087016120c8565b9350604086013592506060860135915060808601356001600160401b0381111561230f578182fd5b6122ac88828901612158565b60008060006060848603121561232f578081fd5b612338846120c8565b925060208401356001600160401b0380821115612353578283fd5b61235f878388016120e4565b93506040860135915080821115612374578283fd5b50612381868287016120e4565b9150509250925092565b6000806000806000608086880312156123a2578283fd5b6123ab866120c8565b945060208601356001600160401b03808211156123c6578485fd5b6123d289838a016120e4565b955060408801359150808211156123e7578485fd5b6123f389838a016120e4565b94506060880135915080821115612408578283fd5b5061241588828901612177565b969995985093965092949392505050565b60008060006060848603121561243a578081fd5b612443846120c8565b925060208401356001600160401b038082111561245e578283fd5b61246a878388016120e4565b9350604086013591508082111561247f578283fd5b508401601f81018613612490578182fd5b6123818682356020840161206b565b600080604083850312156124b1578182fd5b6124ba836120c8565b9150602083013580151581146124ce578182fd5b809150509250929050565b600080604083850312156124eb578182fd5b6124f4836120c8565b946020939093013593505050565b60008060008060608587031215612517578182fd5b612520856120c8565b93506020850135925060408501356001600160401b03811115612541578283fd5b61254d87828801612177565b95989497509550505050565b60008060008060008060008060c0898b031215612574578586fd5b61257d896120c8565b97506020890135965060408901356001600160401b038082111561259f578788fd5b6125ab8c838d01612177565b90985096508691506125bf60608c016120c8565b95506125cd60808c016121b6565b945060a08b01359150808211156125e2578384fd5b506125ef8b828c01612177565b999c989b5096995094979396929594505050565b600080600060608486031215612617578081fd5b612620846120c8565b95602085013595506040909401359392505050565b60008060008060006080868803121561264c578283fd5b612655866120c8565b9450602086013593506040860135925060608601356001600160401b0381111561267d578182fd5b61241588828901612177565b6000806040838503121561269b578182fd5b82356001600160401b03808211156126b1578384fd5b818501915085601f8301126126c4578384fd5b813560206126d182612cfe565b6040516126de8282612dc4565b8381528281019150858301600585901b870184018b10156126fd578889fd5b8896505b8487101561272657612712816120c8565b835260019690960195918301918301612701565b509650508601359250508082111561273c578283fd5b50612749858286016120e4565b9150509250929050565b60008060208385031215612765578182fd5b82356001600160401b038082111561277b578384fd5b818501915085601f83011261278e578384fd5b81358181111561279c578485fd5b8660206060830285010111156127b0578485fd5b60209290920196919550909350505050565b6000602082840312156127d3578081fd5b8135610fc881612ed8565b6000602082840312156127ef578081fd5b8151610fc881612ed8565b60006060828403121561280b578081fd5b604051606081018181106001600160401b038211171561282d5761282d612e21565b60405282358152612840602084016120c8565b6020820152612851604084016121b6565b60408201529392505050565b60006040828403121561286e578081fd5b50919050565b600060408284031215612885578081fd5b604051604081018181106001600160401b03821117156128a7576128a7612e21565b6040526128b3836120c8565b81526128c1602084016121b6565b60208201529392505050565b6000602082840312156128de578081fd5b5035919050565b600080604083850312156128f7578182fd5b50508035926020909101359150565b6000815180845260208085019450808401835b8381101561293557815187529582019590820190600101612919565b509495945050505050565b60008151808452815b8181101561296557602081850181015186830182015201612949565b818111156129765782602083870101525b50601f01601f19169290920160200192915050565b6001600160a01b0386811682528516602082015260a0604082018190526000906129b790830186612906565b82810360608401526129c98186612906565b905082810360808401526129dd8185612940565b98975050505050505050565b6001600160a01b03868116825285166020820152604081018490526060810183905260a060808201819052600090612a2390830184612940565b979650505050505050565b602081526000610fc86020830184612906565b604081526000612a546040830185612906565b8281036020840152612a668185612906565b95945050505050565b602081526000610fc86020830184612940565b60208082526028908201527f455243313135353a204552433131353552656365697665722072656a656374656040820152676420746f6b656e7360c01b606082015260800190565b60208082526024908201527f455243313135353a206275726e20616d6f756e7420657863656564732062616c604082015263616e636560e01b606082015260800190565b60208082526025908201527f455243313135353a207472616e7366657220746f20746865207a65726f206164604082015264647265737360d81b606082015260800190565b60208082526023908201527f455243313135353a206275726e2066726f6d20746865207a65726f206164647260408201526265737360e81b606082015260800190565b6020808252602a908201527f455243313135353a20696e73756666696369656e742062616c616e636520666f60408201526939103a3930b739b332b960b11b606082015260800190565b6020808252818101527f4f776e61626c653a2063616c6c6572206973206e6f7420746865206f776e6572604082015260600190565b60208082526028908201527f455243313135353a2069647320616e6420616d6f756e7473206c656e677468206040820152670dad2e6dac2e8c6d60c31b606082015260800190565b60208082526021908201527f455243313135353a206d696e7420746f20746865207a65726f206164647265736040820152607360f81b606082015260800190565b8681526001600160a01b03868116602083015260a0604083018190528201859052600090858760c08501378160c0878501015260c0601f19601f880116840101915080851660608401525061ffff83166080830152979650505050505050565b60006001600160401b03821115612d1757612d17612e21565b5060051b60200190565b60008219821115612d3457612d34612e0b565b500190565b600082612d5457634e487b7160e01b81526012600452602481fd5b500490565b6000816000190483118215151615612d7357612d73612e0b565b500290565b600082821015612d8a57612d8a612e0b565b500390565b600181811c90821680612da357607f821691505b6020821081141561286e57634e487b7160e01b600052602260045260246000fd5b601f8201601f191681016001600160401b0381118282101715612de957612de9612e21565b6040525050565b6000600019821415612e0457612e04612e0b565b5060010190565b634e487b7160e01b600052601160045260246000fd5b634e487b7160e01b600052604160045260246000fd5b600060033d1115612e4c57600481823e5160e01c5b90565b600060443d1015612e5d5790565b6040516003193d81016004833e81513d6001600160401b038160248401118184111715612e8c57505050505090565b8285019150815181811115612ea45750505050505090565b843d8701016020828501011115612ebe5750505050505090565b612ecd60208286010187612dc4565b509095945050505050565b6001600160e01b031981168114610e1857600080fdfea26469706673582212205d6c76714142a775aef02672c29343eca4c8d4df650edc97e128b685d3c5a0e664736f6c63430008040033a2646970667358221220b04fda0bf31a46c98e18f3c239724ee431a6d83b0f7b67dde509d398697f6af864736f6c63430008040033",
  "devdoc": {
    "kind": "dev",
    "methods": {},
    "version": 1
  },
  "userdoc": {
    "kind": "user",
    "methods": {},
    "version": 1
  },
  "storageLayout": {
    "storage": [
      {
        "astId": 3180,
        "contract": "contracts/RoyaltyFactory.sol:RoyaltyFactory",
        "label": "allRoyalties",
        "offset": 0,
        "slot": "0",
        "type": "t_array(t_address)dyn_storage"
      },
      {
        "astId": 3182,
        "contract": "contracts/RoyaltyFactory.sol:RoyaltyFactory",
        "label": "royaltyCounter",
        "offset": 0,
        "slot": "1",
        "type": "t_uint256"
      }
    ],
    "types": {
      "t_address": {
        "encoding": "inplace",
        "label": "address",
        "numberOfBytes": "20"
      },
      "t_array(t_address)dyn_storage": {
        "base": "t_address",
        "encoding": "dynamic_array",
        "label": "address[]",
        "numberOfBytes": "32"
      },
      "t_uint256": {
        "encoding": "inplace",
        "label": "uint256",
        "numberOfBytes": "32"
      }
    }
  }
}