{
  "address": "0x8a4E2AAdA43192C0A7397B460D8f689d675E33D6",
  "abi": [
    {
      "inputs": [],
      "stateMutability": "nonpayable",
      "type": "constructor"
    },
    {
      "anonymous": false,
      "inputs": [
        {
          "indexed": false,
          "internalType": "address",
          "name": "previousAdmin",
          "type": "address"
        },
        {
          "indexed": false,
          "internalType": "address",
          "name": "newAdmin",
          "type": "address"
        }
      ],
      "name": "AdminChanged",
      "type": "event"
    },
    {
      "anonymous": false,
      "inputs": [
        {
          "indexed": true,
          "internalType": "address",
          "name": "owner",
          "type": "address"
        },
        {
          "indexed": true,
          "internalType": "address",
          "name": "approved",
          "type": "address"
        },
        {
          "indexed": true,
          "internalType": "uint256",
          "name": "tokenId",
          "type": "uint256"
        }
      ],
      "name": "Approval",
      "type": "event"
    },
    {
      "anonymous": false,
      "inputs": [
        {
          "indexed": true,
          "internalType": "address",
          "name": "owner",
          "type": "address"
        },
        {
          "indexed": true,
          "internalType": "address",
          "name": "operator",
          "type": "address"
        },
        {
          "indexed": false,
          "internalType": "bool",
          "name": "approved",
          "type": "bool"
        }
      ],
      "name": "ApprovalForAll",
      "type": "event"
    },
    {
      "anonymous": false,
      "inputs": [
        {
          "indexed": true,
          "internalType": "address",
          "name": "beacon",
          "type": "address"
        }
      ],
      "name": "BeaconUpgraded",
      "type": "event"
    },
    {
      "anonymous": false,
      "inputs": [
        {
          "indexed": true,
          "internalType": "bytes32",
          "name": "role",
          "type": "bytes32"
        },
        {
          "indexed": true,
          "internalType": "bytes32",
          "name": "previousAdminRole",
          "type": "bytes32"
        },
        {
          "indexed": true,
          "internalType": "bytes32",
          "name": "newAdminRole",
          "type": "bytes32"
        }
      ],
      "name": "RoleAdminChanged",
      "type": "event"
    },
    {
      "anonymous": false,
      "inputs": [
        {
          "indexed": true,
          "internalType": "bytes32",
          "name": "role",
          "type": "bytes32"
        },
        {
          "indexed": true,
          "internalType": "address",
          "name": "account",
          "type": "address"
        },
        {
          "indexed": true,
          "internalType": "address",
          "name": "sender",
          "type": "address"
        }
      ],
      "name": "RoleGranted",
      "type": "event"
    },
    {
      "anonymous": false,
      "inputs": [
        {
          "indexed": true,
          "internalType": "bytes32",
          "name": "role",
          "type": "bytes32"
        },
        {
          "indexed": true,
          "internalType": "address",
          "name": "account",
          "type": "address"
        },
        {
          "indexed": true,
          "internalType": "address",
          "name": "sender",
          "type": "address"
        }
      ],
      "name": "RoleRevoked",
      "type": "event"
    },
    {
      "anonymous": false,
      "inputs": [
        {
          "indexed": true,
          "internalType": "address",
          "name": "from",
          "type": "address"
        },
        {
          "indexed": true,
          "internalType": "address",
          "name": "to",
          "type": "address"
        },
        {
          "indexed": true,
          "internalType": "uint256",
          "name": "tokenId",
          "type": "uint256"
        }
      ],
      "name": "Transfer",
      "type": "event"
    },
    {
      "anonymous": false,
      "inputs": [
        {
          "indexed": true,
          "internalType": "address",
          "name": "implementation",
          "type": "address"
        }
      ],
      "name": "Upgraded",
      "type": "event"
    },
    {
      "inputs": [],
      "name": "DEFAULT_ADMIN_ROLE",
      "outputs": [
        {
          "internalType": "bytes32",
          "name": "",
          "type": "bytes32"
        }
      ],
      "stateMutability": "view",
      "type": "function"
    },
    {
      "inputs": [],
      "name": "MINTER_ROLE",
      "outputs": [
        {
          "internalType": "bytes32",
          "name": "",
          "type": "bytes32"
        }
      ],
      "stateMutability": "view",
      "type": "function"
    },
    {
      "inputs": [],
      "name": "UPGRADER_ROLE",
      "outputs": [
        {
          "internalType": "bytes32",
          "name": "",
          "type": "bytes32"
        }
      ],
      "stateMutability": "view",
      "type": "function"
    },
    {
      "inputs": [
        {
          "internalType": "address",
          "name": "to",
          "type": "address"
        },
        {
          "internalType": "uint256",
          "name": "tokenId",
          "type": "uint256"
        }
      ],
      "name": "approve",
      "outputs": [],
      "stateMutability": "nonpayable",
      "type": "function"
    },
    {
      "inputs": [
        {
          "internalType": "address",
          "name": "owner",
          "type": "address"
        }
      ],
      "name": "balanceOf",
      "outputs": [
        {
          "internalType": "uint256",
          "name": "",
          "type": "uint256"
        }
      ],
      "stateMutability": "view",
      "type": "function"
    },
    {
      "inputs": [
        {
          "internalType": "uint256",
          "name": "tokenId",
          "type": "uint256"
        }
      ],
      "name": "getApproved",
      "outputs": [
        {
          "internalType": "address",
          "name": "",
          "type": "address"
        }
      ],
      "stateMutability": "view",
      "type": "function"
    },
    {
      "inputs": [
        {
          "internalType": "bytes32",
          "name": "role",
          "type": "bytes32"
        }
      ],
      "name": "getRoleAdmin",
      "outputs": [
        {
          "internalType": "bytes32",
          "name": "",
          "type": "bytes32"
        }
      ],
      "stateMutability": "view",
      "type": "function"
    },
    {
      "inputs": [
        {
          "internalType": "bytes32",
          "name": "role",
          "type": "bytes32"
        },
        {
          "internalType": "address",
          "name": "account",
          "type": "address"
        }
      ],
      "name": "grantRole",
      "outputs": [],
      "stateMutability": "nonpayable",
      "type": "function"
    },
    {
      "inputs": [
        {
          "internalType": "bytes32",
          "name": "role",
          "type": "bytes32"
        },
        {
          "internalType": "address",
          "name": "account",
          "type": "address"
        }
      ],
      "name": "hasRole",
      "outputs": [
        {
          "internalType": "bool",
          "name": "",
          "type": "bool"
        }
      ],
      "stateMutability": "view",
      "type": "function"
    },
    {
      "inputs": [
        {
          "internalType": "address",
          "name": "upgrader",
          "type": "address"
        }
      ],
      "name": "initialize",
      "outputs": [],
      "stateMutability": "nonpayable",
      "type": "function"
    },
    {
      "inputs": [
        {
          "internalType": "address",
          "name": "owner",
          "type": "address"
        },
        {
          "internalType": "address",
          "name": "operator",
          "type": "address"
        }
      ],
      "name": "isApprovedForAll",
      "outputs": [
        {
          "internalType": "bool",
          "name": "",
          "type": "bool"
        }
      ],
      "stateMutability": "view",
      "type": "function"
    },
    {
      "inputs": [],
      "name": "name",
      "outputs": [
        {
          "internalType": "string",
          "name": "",
          "type": "string"
        }
      ],
      "stateMutability": "view",
      "type": "function"
    },
    {
      "inputs": [
        {
          "internalType": "uint256",
          "name": "tokenId",
          "type": "uint256"
        }
      ],
      "name": "ownerOf",
      "outputs": [
        {
          "internalType": "address",
          "name": "",
          "type": "address"
        }
      ],
      "stateMutability": "view",
      "type": "function"
    },
    {
      "inputs": [
        {
          "internalType": "bytes32",
          "name": "role",
          "type": "bytes32"
        },
        {
          "internalType": "address",
          "name": "account",
          "type": "address"
        }
      ],
      "name": "renounceRole",
      "outputs": [],
      "stateMutability": "nonpayable",
      "type": "function"
    },
    {
      "inputs": [
        {
          "internalType": "bytes32",
          "name": "role",
          "type": "bytes32"
        },
        {
          "internalType": "address",
          "name": "account",
          "type": "address"
        }
      ],
      "name": "revokeRole",
      "outputs": [],
      "stateMutability": "nonpayable",
      "type": "function"
    },
    {
      "inputs": [
        {
          "internalType": "address",
          "name": "to",
          "type": "address"
        },
        {
          "internalType": "string",
          "name": "tokenURI_",
          "type": "string"
        }
      ],
      "name": "safeMint",
      "outputs": [],
      "stateMutability": "nonpayable",
      "type": "function"
    },
    {
      "inputs": [
        {
          "internalType": "address",
          "name": "from",
          "type": "address"
        },
        {
          "internalType": "address",
          "name": "to",
          "type": "address"
        },
        {
          "internalType": "uint256",
          "name": "tokenId",
          "type": "uint256"
        }
      ],
      "name": "safeTransferFrom",
      "outputs": [],
      "stateMutability": "nonpayable",
      "type": "function"
    },
    {
      "inputs": [
        {
          "internalType": "address",
          "name": "from",
          "type": "address"
        },
        {
          "internalType": "address",
          "name": "to",
          "type": "address"
        },
        {
          "internalType": "uint256",
          "name": "tokenId",
          "type": "uint256"
        },
        {
          "internalType": "bytes",
          "name": "_data",
          "type": "bytes"
        }
      ],
      "name": "safeTransferFrom",
      "outputs": [],
      "stateMutability": "nonpayable",
      "type": "function"
    },
    {
      "inputs": [
        {
          "internalType": "address",
          "name": "operator",
          "type": "address"
        },
        {
          "internalType": "bool",
          "name": "approved",
          "type": "bool"
        }
      ],
      "name": "setApprovalForAll",
      "outputs": [],
      "stateMutability": "nonpayable",
      "type": "function"
    },
    {
      "inputs": [
        {
          "internalType": "bytes4",
          "name": "interfaceId",
          "type": "bytes4"
        }
      ],
      "name": "supportsInterface",
      "outputs": [
        {
          "internalType": "bool",
          "name": "",
          "type": "bool"
        }
      ],
      "stateMutability": "view",
      "type": "function"
    },
    {
      "inputs": [],
      "name": "symbol",
      "outputs": [
        {
          "internalType": "string",
          "name": "",
          "type": "string"
        }
      ],
      "stateMutability": "view",
      "type": "function"
    },
    {
      "inputs": [
        {
          "internalType": "uint256",
          "name": "tokenId",
          "type": "uint256"
        }
      ],
      "name": "tokenURI",
      "outputs": [
        {
          "internalType": "string",
          "name": "",
          "type": "string"
        }
      ],
      "stateMutability": "view",
      "type": "function"
    },
    {
      "inputs": [
        {
          "internalType": "address",
          "name": "from",
          "type": "address"
        },
        {
          "internalType": "address",
          "name": "to",
          "type": "address"
        },
        {
          "internalType": "uint256",
          "name": "tokenId",
          "type": "uint256"
        }
      ],
      "name": "transferFrom",
      "outputs": [],
      "stateMutability": "nonpayable",
      "type": "function"
    },
    {
      "inputs": [
        {
          "internalType": "address",
          "name": "newImplementation",
          "type": "address"
        }
      ],
      "name": "upgradeTo",
      "outputs": [],
      "stateMutability": "nonpayable",
      "type": "function"
    },
    {
      "inputs": [
        {
          "internalType": "address",
          "name": "newImplementation",
          "type": "address"
        },
        {
          "internalType": "bytes",
          "name": "data",
          "type": "bytes"
        }
      ],
      "name": "upgradeToAndCall",
      "outputs": [],
      "stateMutability": "payable",
      "type": "function"
    }
  ],
  "transactionHash": "0x6bdde349911d994d686cbf0264e5b05efe106bf79088e344a94a7613e0af4773",
  "args": [],
  "solcInputHash": "fd750c0783e29ee55e57a970f1bbddce",
  "bytecode": "0x60a06040523073ffffffffffffffffffffffffffffffffffffffff1660809073ffffffffffffffffffffffffffffffffffffffff1660601b8152503480156200004757600080fd5b50600060019054906101000a900460ff16806200006f575060008054906101000a900460ff16155b620000b1576040517f08c379a0000000000000000000000000000000000000000000000000000000008152600401620000a89062000152565b60405180910390fd5b60008060019054906101000a900460ff16159050801562000102576001600060016101000a81548160ff02191690831515021790555060016000806101000a81548160ff0219169083151502179055505b8015620001245760008060016101000a81548160ff0219169083151502179055505b50620001d4565b60006200013a602e8362000174565b9150620001478262000185565b604082019050919050565b600060208201905081810360008301526200016d816200012b565b9050919050565b600082825260208201905092915050565b7f496e697469616c697a61626c653a20636f6e747261637420697320616c72656160008201527f647920696e697469616c697a6564000000000000000000000000000000000000602082015250565b60805160601c615178620002086000396000818161097801528181610a0701528181610b470152610bd601526151786000f3fe6080604052600436106101665760003560e01c806370a08231116100d1578063c4d66de81161008a578063d539139311610064578063d53913931461054d578063d547741f14610578578063e985e9c5146105a1578063f72c0d8b146105de57610166565b8063c4d66de8146104be578063c87b56dd146104e7578063d204c45e1461052457610166565b806370a082311461039c57806391d14854146103d957806395d89b4114610416578063a217fddf14610441578063a22cb4651461046c578063b88d4fde1461049557610166565b80632f2ff15d116101235780632f2ff15d1461029f57806336568abe146102c85780633659cfe6146102f157806342842e0e1461031a5780634f1ef286146103435780636352211e1461035f57610166565b806301ffc9a71461016b57806306fdde03146101a8578063081812fc146101d3578063095ea7b31461021057806323b872dd14610239578063248a9ca314610262575b600080fd5b34801561017757600080fd5b50610192600480360381019061018d9190613ba0565b610609565b60405161019f9190614195565b60405180910390f35b3480156101b457600080fd5b506101bd61061b565b6040516101ca91906141cb565b60405180910390f35b3480156101df57600080fd5b506101fa60048036038101906101f59190613bf2565b6106ad565b604051610207919061412e565b60405180910390f35b34801561021c57600080fd5b5061023760048036038101906102329190613aff565b610732565b005b34801561024557600080fd5b50610260600480360381019061025b9190613951565b61084a565b005b34801561026e57600080fd5b5061028960048036038101906102849190613b3b565b6108aa565b60405161029691906141b0565b60405180910390f35b3480156102ab57600080fd5b506102c660048036038101906102c19190613b64565b6108ca565b005b3480156102d457600080fd5b506102ef60048036038101906102ea9190613b64565b6108f3565b005b3480156102fd57600080fd5b50610318600480360381019061031391906138ec565b610976565b005b34801561032657600080fd5b50610341600480360381019061033c9190613951565b610b25565b005b61035d60048036038101906103589190613a57565b610b45565b005b34801561036b57600080fd5b5061038660048036038101906103819190613bf2565b610c82565b604051610393919061412e565b60405180910390f35b3480156103a857600080fd5b506103c360048036038101906103be91906138ec565b610d34565b6040516103d091906144ed565b60405180910390f35b3480156103e557600080fd5b5061040060048036038101906103fb9190613b64565b610dec565b60405161040d9190614195565b60405180910390f35b34801561042257600080fd5b5061042b610e57565b60405161043891906141cb565b60405180910390f35b34801561044d57600080fd5b50610456610ee9565b60405161046391906141b0565b60405180910390f35b34801561047857600080fd5b50610493600480360381019061048e9190613a1b565b610ef0565b005b3480156104a157600080fd5b506104bc60048036038101906104b791906139a0565b611071565b005b3480156104ca57600080fd5b506104e560048036038101906104e091906138ec565b6110d3565b005b3480156104f357600080fd5b5061050e60048036038101906105099190613bf2565b61129a565b60405161051b91906141cb565b60405180910390f35b34801561053057600080fd5b5061054b60048036038101906105469190613aab565b6112ac565b005b34801561055957600080fd5b50610562611316565b60405161056f91906141b0565b60405180910390f35b34801561058457600080fd5b5061059f600480360381019061059a9190613b64565b61133a565b005b3480156105ad57600080fd5b506105c860048036038101906105c39190613915565b611363565b6040516105d59190614195565b60405180910390f35b3480156105ea57600080fd5b506105f36113f7565b60405161060091906141b0565b60405180910390f35b60006106148261141b565b9050919050565b60606065805461062a906147dc565b80601f0160208091040260200160405190810160405280929190818152602001828054610656906147dc565b80156106a35780601f10610678576101008083540402835291602001916106a3565b820191906000526020600020905b81548152906001019060200180831161068657829003601f168201915b5050505050905090565b60006106b882611495565b6106f7576040517f08c379a00000000000000000000000000000000000000000000000000000000081526004016106ee906143ed565b60405180910390fd5b6069600083815260200190815260200160002060009054906101000a900473ffffffffffffffffffffffffffffffffffffffff169050919050565b600061073d82610c82565b90508073ffffffffffffffffffffffffffffffffffffffff168373ffffffffffffffffffffffffffffffffffffffff1614156107ae576040517f08c379a00000000000000000000000000000000000000000000000000000000081526004016107a59061446d565b60405180910390fd5b8073ffffffffffffffffffffffffffffffffffffffff166107cd611501565b73ffffffffffffffffffffffffffffffffffffffff1614806107fc57506107fb816107f6611501565b611363565b5b61083b576040517f08c379a00000000000000000000000000000000000000000000000000000000081526004016108329061430d565b60405180910390fd5b6108458383611509565b505050565b61085b610855611501565b826115c2565b61089a576040517f08c379a0000000000000000000000000000000000000000000000000000000008152600401610891906144ad565b60405180910390fd5b6108a58383836116a0565b505050565b600060c96000838152602001908152602001600020600101549050919050565b6108d3826108aa565b6108e4816108df611501565b6118fc565b6108ee8383611999565b505050565b6108fb611501565b73ffffffffffffffffffffffffffffffffffffffff168173ffffffffffffffffffffffffffffffffffffffff1614610968576040517f08c379a000000000000000000000000000000000000000000000000000000000815260040161095f906144cd565b60405180910390fd5b6109728282611a7a565b5050565b7f000000000000000000000000000000000000000000000000000000000000000073ffffffffffffffffffffffffffffffffffffffff163073ffffffffffffffffffffffffffffffffffffffff161415610a05576040517f08c379a00000000000000000000000000000000000000000000000000000000081526004016109fc9061426d565b60405180910390fd5b7f000000000000000000000000000000000000000000000000000000000000000073ffffffffffffffffffffffffffffffffffffffff16610a44611b5c565b73ffffffffffffffffffffffffffffffffffffffff1614610a9a576040517f08c379a0000000000000000000000000000000000000000000000000000000008152600401610a91906142cd565b60405180910390fd5b610aa381611bb3565b610b2281600067ffffffffffffffff811115610ae8577f4e487b7100000000000000000000000000000000000000000000000000000000600052604160045260246000fd5b6040519080825280601f01601f191660200182016040528015610b1a5781602001600182028036833780820191505090505b506000611be9565b50565b610b4083838360405180602001604052806000815250611071565b505050565b7f000000000000000000000000000000000000000000000000000000000000000073ffffffffffffffffffffffffffffffffffffffff163073ffffffffffffffffffffffffffffffffffffffff161415610bd4576040517f08c379a0000000000000000000000000000000000000000000000000000000008152600401610bcb9061426d565b60405180910390fd5b7f000000000000000000000000000000000000000000000000000000000000000073ffffffffffffffffffffffffffffffffffffffff16610c13611b5c565b73ffffffffffffffffffffffffffffffffffffffff1614610c69576040517f08c379a0000000000000000000000000000000000000000000000000000000008152600401610c60906142cd565b60405180910390fd5b610c7282611bb3565b610c7e82826001611be9565b5050565b6000806067600084815260200190815260200160002060009054906101000a900473ffffffffffffffffffffffffffffffffffffffff169050600073ffffffffffffffffffffffffffffffffffffffff168173ffffffffffffffffffffffffffffffffffffffff161415610d2b576040517f08c379a0000000000000000000000000000000000000000000000000000000008152600401610d229061434d565b60405180910390fd5b80915050919050565b60008073ffffffffffffffffffffffffffffffffffffffff168273ffffffffffffffffffffffffffffffffffffffff161415610da5576040517f08c379a0000000000000000000000000000000000000000000000000000000008152600401610d9c9061432d565b60405180910390fd5b606860008373ffffffffffffffffffffffffffffffffffffffff1673ffffffffffffffffffffffffffffffffffffffff168152602001908152602001600020549050919050565b600060c9600084815260200190815260200160002060000160008373ffffffffffffffffffffffffffffffffffffffff1673ffffffffffffffffffffffffffffffffffffffff16815260200190815260200160002060009054906101000a900460ff16905092915050565b606060668054610e66906147dc565b80601f0160208091040260200160405190810160405280929190818152602001828054610e92906147dc565b8015610edf5780601f10610eb457610100808354040283529160200191610edf565b820191906000526020600020905b815481529060010190602001808311610ec257829003601f168201915b5050505050905090565b6000801b81565b610ef8611501565b73ffffffffffffffffffffffffffffffffffffffff168273ffffffffffffffffffffffffffffffffffffffff161415610f66576040517f08c379a0000000000000000000000000000000000000000000000000000000008152600401610f5d906142ad565b60405180910390fd5b80606a6000610f73611501565b73ffffffffffffffffffffffffffffffffffffffff1673ffffffffffffffffffffffffffffffffffffffff16815260200190815260200160002060008473ffffffffffffffffffffffffffffffffffffffff1673ffffffffffffffffffffffffffffffffffffffff16815260200190815260200160002060006101000a81548160ff0219169083151502179055508173ffffffffffffffffffffffffffffffffffffffff16611020611501565b73ffffffffffffffffffffffffffffffffffffffff167f17307eab39ab6107e8899845ad3d59bd9653f200f220920489ca2b5937696c31836040516110659190614195565b60405180910390a35050565b61108261107c611501565b836115c2565b6110c1576040517f08c379a00000000000000000000000000000000000000000000000000000000081526004016110b8906144ad565b60405180910390fd5b6110cd84848484611dba565b50505050565b600060019054906101000a900460ff16806110f9575060008054906101000a900460ff16155b611138576040517f08c379a000000000000000000000000000000000000000000000000000000000815260040161112f9061438d565b60405180910390fd5b60008060019054906101000a900460ff161590508015611188576001600060016101000a81548160ff02191690831515021790555060016000806101000a81548160ff0219169083151502179055505b6111fc6040518060400160405280601681526020017f507269766920536f6e677320436f6c6c656374696f6e000000000000000000008152506040518060400160405280600581526020017f70534f4e47000000000000000000000000000000000000000000000000000000815250611e16565b611204611f0b565b61120c611ffc565b6112146120ed565b6112216000801b336121d6565b61124b7f9f2df0fed2c77648de5860a4cc508cd0818c85b8b8a1ab4ceeef8d981c8956a6336121d6565b6112757f189ab7a9244df0848122154315af71fe140f3db0fe014031783b0946b8c9d2e3836121d6565b80156112965760008060016101000a81548160ff0219169083151502179055505b5050565b60606112a5826121e4565b9050919050565b7f9f2df0fed2c77648de5860a4cc508cd0818c85b8b8a1ab4ceeef8d981c8956a66112de816112d9611501565b6118fc565b6112f2836112ed61015f612336565b612344565b61130661130061015f612336565b83612362565b61131161015f6123d6565b505050565b7f9f2df0fed2c77648de5860a4cc508cd0818c85b8b8a1ab4ceeef8d981c8956a681565b611343826108aa565b6113548161134f611501565b6118fc565b61135e8383611a7a565b505050565b6000606a60008473ffffffffffffffffffffffffffffffffffffffff1673ffffffffffffffffffffffffffffffffffffffff16815260200190815260200160002060008373ffffffffffffffffffffffffffffffffffffffff1673ffffffffffffffffffffffffffffffffffffffff16815260200190815260200160002060009054906101000a900460ff16905092915050565b7f189ab7a9244df0848122154315af71fe140f3db0fe014031783b0946b8c9d2e381565b60007f7965db0b000000000000000000000000000000000000000000000000000000007bffffffffffffffffffffffffffffffffffffffffffffffffffffffff1916827bffffffffffffffffffffffffffffffffffffffffffffffffffffffff1916148061148e575061148d826123ec565b5b9050919050565b60008073ffffffffffffffffffffffffffffffffffffffff166067600084815260200190815260200160002060009054906101000a900473ffffffffffffffffffffffffffffffffffffffff1673ffffffffffffffffffffffffffffffffffffffff1614159050919050565b600033905090565b816069600083815260200190815260200160002060006101000a81548173ffffffffffffffffffffffffffffffffffffffff021916908373ffffffffffffffffffffffffffffffffffffffff160217905550808273ffffffffffffffffffffffffffffffffffffffff1661157c83610c82565b73ffffffffffffffffffffffffffffffffffffffff167f8c5be1e5ebec7d5bd14f71427d1e84f3dd0314c0f7b2291e5b200ac8c7c3b92560405160405180910390a45050565b60006115cd82611495565b61160c576040517f08c379a0000000000000000000000000000000000000000000000000000000008152600401611603906142ed565b60405180910390fd5b600061161783610c82565b90508073ffffffffffffffffffffffffffffffffffffffff168473ffffffffffffffffffffffffffffffffffffffff16148061168657508373ffffffffffffffffffffffffffffffffffffffff1661166e846106ad565b73ffffffffffffffffffffffffffffffffffffffff16145b8061169757506116968185611363565b5b91505092915050565b8273ffffffffffffffffffffffffffffffffffffffff166116c082610c82565b73ffffffffffffffffffffffffffffffffffffffff1614611716576040517f08c379a000000000000000000000000000000000000000000000000000000000815260040161170d9061442d565b60405180910390fd5b600073ffffffffffffffffffffffffffffffffffffffff168273ffffffffffffffffffffffffffffffffffffffff161415611786576040517f08c379a000000000000000000000000000000000000000000000000000000000815260040161177d9061428d565b60405180910390fd5b6117918383836124ce565b61179c600082611509565b6001606860008573ffffffffffffffffffffffffffffffffffffffff1673ffffffffffffffffffffffffffffffffffffffff16815260200190815260200160002060008282546117ec91906146be565b925050819055506001606860008473ffffffffffffffffffffffffffffffffffffffff1673ffffffffffffffffffffffffffffffffffffffff168152602001908152602001600020600082825461184391906145dd565b92505081905550816067600083815260200190815260200160002060006101000a81548173ffffffffffffffffffffffffffffffffffffffff021916908373ffffffffffffffffffffffffffffffffffffffff160217905550808273ffffffffffffffffffffffffffffffffffffffff168473ffffffffffffffffffffffffffffffffffffffff167fddf252ad1be2c89b69c2b068fc378daa952ba7f163c4a11628f55a4df523b3ef60405160405180910390a4505050565b6119068282610dec565b6119955761192b8173ffffffffffffffffffffffffffffffffffffffff1660146124d3565b6119398360001c60206124d3565b60405160200161194a9291906140f4565b6040516020818303038152906040526040517f08c379a000000000000000000000000000000000000000000000000000000000815260040161198c91906141cb565b60405180910390fd5b5050565b6119a38282610dec565b611a7657600160c9600084815260200190815260200160002060000160008373ffffffffffffffffffffffffffffffffffffffff1673ffffffffffffffffffffffffffffffffffffffff16815260200190815260200160002060006101000a81548160ff021916908315150217905550611a1b611501565b73ffffffffffffffffffffffffffffffffffffffff168173ffffffffffffffffffffffffffffffffffffffff16837f2f8788117e7eff1d82e926ec794901d17c78024a50270940304540a733656f0d60405160405180910390a45b5050565b611a848282610dec565b15611b5857600060c9600084815260200190815260200160002060000160008373ffffffffffffffffffffffffffffffffffffffff1673ffffffffffffffffffffffffffffffffffffffff16815260200190815260200160002060006101000a81548160ff021916908315150217905550611afd611501565b73ffffffffffffffffffffffffffffffffffffffff168173ffffffffffffffffffffffffffffffffffffffff16837ff6391f5c32d9c69d2a47ea670b442974b53935d1edc7fd64eb21e047a839171b60405160405180910390a45b5050565b6000611b8a7f360894a13ba1a3210667c828492db98dca3e2076cc3735a920a3ca505d382bbc60001b6127cd565b60000160009054906101000a900473ffffffffffffffffffffffffffffffffffffffff16905090565b7f189ab7a9244df0848122154315af71fe140f3db0fe014031783b0946b8c9d2e3611be581611be0611501565b6118fc565b5050565b6000611bf3611b5c565b9050611bfe846127d7565b600083511180611c0b5750815b15611c1c57611c1a8484612890565b505b6000611c4a7f4910fdfa16fed3260ed0e7147f7cc6da11a60208b5b9406d12a635614ffd914360001b612974565b90508060000160009054906101000a900460ff16611db35760018160000160006101000a81548160ff021916908315150217905550611d168583604051602401611c94919061412e565b6040516020818303038152906040527f3659cfe6000000000000000000000000000000000000000000000000000000007bffffffffffffffffffffffffffffffffffffffffffffffffffffffff19166020820180517bffffffffffffffffffffffffffffffffffffffffffffffffffffffff8381831617835250505050612890565b5060008160000160006101000a81548160ff021916908315150217905550611d3c611b5c565b73ffffffffffffffffffffffffffffffffffffffff168273ffffffffffffffffffffffffffffffffffffffff1614611da9576040517f08c379a0000000000000000000000000000000000000000000000000000000008152600401611da09061422d565b60405180910390fd5b611db28561297e565b5b5050505050565b611dc58484846116a0565b611dd1848484846129cd565b611e10576040517f08c379a0000000000000000000000000000000000000000000000000000000008152600401611e079061420d565b60405180910390fd5b50505050565b600060019054906101000a900460ff1680611e3c575060008054906101000a900460ff16155b611e7b576040517f08c379a0000000000000000000000000000000000000000000000000000000008152600401611e729061438d565b60405180910390fd5b60008060019054906101000a900460ff161590508015611ecb576001600060016101000a81548160ff02191690831515021790555060016000806101000a81548160ff0219169083151502179055505b611ed3612b64565b611edb612c3d565b611ee58383612d16565b8015611f065760008060016101000a81548160ff0219169083151502179055505b505050565b600060019054906101000a900460ff1680611f31575060008054906101000a900460ff16155b611f70576040517f08c379a0000000000000000000000000000000000000000000000000000000008152600401611f679061438d565b60405180910390fd5b60008060019054906101000a900460ff161590508015611fc0576001600060016101000a81548160ff02191690831515021790555060016000806101000a81548160ff0219169083151502179055505b611fc8612b64565b611fd0612c3d565b611fd8612e1f565b8015611ff95760008060016101000a81548160ff0219169083151502179055505b50565b600060019054906101000a900460ff1680612022575060008054906101000a900460ff16155b612061576040517f08c379a00000000000000000000000000000000000000000000000000000000081526004016120589061438d565b60405180910390fd5b60008060019054906101000a900460ff1615905080156120b1576001600060016101000a81548160ff02191690831515021790555060016000806101000a81548160ff0219169083151502179055505b6120b9612b64565b6120c1612c3d565b6120c9612ef8565b80156120ea5760008060016101000a81548160ff0219169083151502179055505b50565b600060019054906101000a900460ff1680612113575060008054906101000a900460ff16155b612152576040517f08c379a00000000000000000000000000000000000000000000000000000000081526004016121499061438d565b60405180910390fd5b60008060019054906101000a900460ff1615905080156121a2576001600060016101000a81548160ff02191690831515021790555060016000806101000a81548160ff0219169083151502179055505b6121aa612fd1565b6121b26130aa565b80156121d35760008060016101000a81548160ff0219169083151502179055505b50565b6121e08282611999565b5050565b60606121ef82611495565b61222e576040517f08c379a0000000000000000000000000000000000000000000000000000000008152600401612225906143cd565b60405180910390fd5b600060976000848152602001908152602001600020805461224e906147dc565b80601f016020809104026020016040519081016040528092919081815260200182805461227a906147dc565b80156122c75780601f1061229c576101008083540402835291602001916122c7565b820191906000526020600020905b8154815290600101906020018083116122aa57829003601f168201915b5050505050905060006122d8613183565b90506000815114156122ee578192505050612331565b60008251111561232357808260405160200161230b9291906140d0565b60405160208183030381529060405292505050612331565b61232c8461319a565b925050505b919050565b600081600001549050919050565b61235e828260405180602001604052806000815250613241565b5050565b61236b82611495565b6123aa576040517f08c379a00000000000000000000000000000000000000000000000000000000081526004016123a19061436d565b60405180910390fd5b806097600084815260200190815260200160002090805190602001906123d19291906136fb565b505050565b6001816000016000828254019250508190555050565b60007f80ac58cd000000000000000000000000000000000000000000000000000000007bffffffffffffffffffffffffffffffffffffffffffffffffffffffff1916827bffffffffffffffffffffffffffffffffffffffffffffffffffffffff191614806124b757507f5b5e139f000000000000000000000000000000000000000000000000000000007bffffffffffffffffffffffffffffffffffffffffffffffffffffffff1916827bffffffffffffffffffffffffffffffffffffffffffffffffffffffff1916145b806124c757506124c68261329c565b5b9050919050565b505050565b6060600060028360026124e69190614664565b6124f091906145dd565b67ffffffffffffffff81111561252f577f4e487b7100000000000000000000000000000000000000000000000000000000600052604160045260246000fd5b6040519080825280601f01601f1916602001820160405280156125615781602001600182028036833780820191505090505b5090507f3000000000000000000000000000000000000000000000000000000000000000816000815181106125bf577f4e487b7100000000000000000000000000000000000000000000000000000000600052603260045260246000fd5b60200101907effffffffffffffffffffffffffffffffffffffffffffffffffffffffffffff1916908160001a9053507f780000000000000000000000000000000000000000000000000000000000000081600181518110612649577f4e487b7100000000000000000000000000000000000000000000000000000000600052603260045260246000fd5b60200101907effffffffffffffffffffffffffffffffffffffffffffffffffffffffffffff1916908160001a905350600060018460026126899190614664565b61269391906145dd565b90505b600181111561277f577f3031323334353637383961626364656600000000000000000000000000000000600f8616601081106126fb577f4e487b7100000000000000000000000000000000000000000000000000000000600052603260045260246000fd5b1a60f81b828281518110612738577f4e487b7100000000000000000000000000000000000000000000000000000000600052603260045260246000fd5b60200101907effffffffffffffffffffffffffffffffffffffffffffffffffffffffffffff1916908160001a905350600485901c945080612778906147b2565b9050612696565b50600084146127c3576040517f08c379a00000000000000000000000000000000000000000000000000000000081526004016127ba906141ed565b60405180910390fd5b8091505092915050565b6000819050919050565b6127e081613306565b61281f576040517f08c379a00000000000000000000000000000000000000000000000000000000081526004016128169061440d565b60405180910390fd5b8061284c7f360894a13ba1a3210667c828492db98dca3e2076cc3735a920a3ca505d382bbc60001b6127cd565b60000160006101000a81548173ffffffffffffffffffffffffffffffffffffffff021916908373ffffffffffffffffffffffffffffffffffffffff16021790555050565b606061289b83613306565b6128da576040517f08c379a00000000000000000000000000000000000000000000000000000000081526004016128d19061448d565b60405180910390fd5b6000808473ffffffffffffffffffffffffffffffffffffffff168460405161290291906140b9565b600060405180830381855af49150503d806000811461293d576040519150601f19603f3d011682016040523d82523d6000602084013e612942565b606091505b509150915061296a828260405180606001604052806027815260200161511c60279139613319565b9250505092915050565b6000819050919050565b612987816127d7565b8073ffffffffffffffffffffffffffffffffffffffff167fbc7cd75a20ee27fd9adebab32041f755214dbc6bffa90cc0225b39da2e5c2d3b60405160405180910390a250565b60006129ee8473ffffffffffffffffffffffffffffffffffffffff16613306565b15612b57578373ffffffffffffffffffffffffffffffffffffffff1663150b7a02612a17611501565b8786866040518563ffffffff1660e01b8152600401612a399493929190614149565b602060405180830381600087803b158015612a5357600080fd5b505af1925050508015612a8457506040513d601f19601f82011682018060405250810190612a819190613bc9565b60015b612b07573d8060008114612ab4576040519150601f19603f3d011682016040523d82523d6000602084013e612ab9565b606091505b50600081511415612aff576040517f08c379a0000000000000000000000000000000000000000000000000000000008152600401612af69061420d565b60405180910390fd5b805181602001fd5b63150b7a0260e01b7bffffffffffffffffffffffffffffffffffffffffffffffffffffffff1916817bffffffffffffffffffffffffffffffffffffffffffffffffffffffff191614915050612b5c565b600190505b949350505050565b600060019054906101000a900460ff1680612b8a575060008054906101000a900460ff16155b612bc9576040517f08c379a0000000000000000000000000000000000000000000000000000000008152600401612bc09061438d565b60405180910390fd5b60008060019054906101000a900460ff161590508015612c19576001600060016101000a81548160ff02191690831515021790555060016000806101000a81548160ff0219169083151502179055505b8015612c3a5760008060016101000a81548160ff0219169083151502179055505b50565b600060019054906101000a900460ff1680612c63575060008054906101000a900460ff16155b612ca2576040517f08c379a0000000000000000000000000000000000000000000000000000000008152600401612c999061438d565b60405180910390fd5b60008060019054906101000a900460ff161590508015612cf2576001600060016101000a81548160ff02191690831515021790555060016000806101000a81548160ff0219169083151502179055505b8015612d135760008060016101000a81548160ff0219169083151502179055505b50565b600060019054906101000a900460ff1680612d3c575060008054906101000a900460ff16155b612d7b576040517f08c379a0000000000000000000000000000000000000000000000000000000008152600401612d729061438d565b60405180910390fd5b60008060019054906101000a900460ff161590508015612dcb576001600060016101000a81548160ff02191690831515021790555060016000806101000a81548160ff0219169083151502179055505b8260659080519060200190612de19291906136fb565b508160669080519060200190612df89291906136fb565b508015612e1a5760008060016101000a81548160ff0219169083151502179055505b505050565b600060019054906101000a900460ff1680612e45575060008054906101000a900460ff16155b612e84576040517f08c379a0000000000000000000000000000000000000000000000000000000008152600401612e7b9061438d565b60405180910390fd5b60008060019054906101000a900460ff161590508015612ed4576001600060016101000a81548160ff02191690831515021790555060016000806101000a81548160ff0219169083151502179055505b8015612ef55760008060016101000a81548160ff0219169083151502179055505b50565b600060019054906101000a900460ff1680612f1e575060008054906101000a900460ff16155b612f5d576040517f08c379a0000000000000000000000000000000000000000000000000000000008152600401612f549061438d565b60405180910390fd5b60008060019054906101000a900460ff161590508015612fad576001600060016101000a81548160ff02191690831515021790555060016000806101000a81548160ff0219169083151502179055505b8015612fce5760008060016101000a81548160ff0219169083151502179055505b50565b600060019054906101000a900460ff1680612ff7575060008054906101000a900460ff16155b613036576040517f08c379a000000000000000000000000000000000000000000000000000000000815260040161302d9061438d565b60405180910390fd5b60008060019054906101000a900460ff161590508015613086576001600060016101000a81548160ff02191690831515021790555060016000806101000a81548160ff0219169083151502179055505b80156130a75760008060016101000a81548160ff0219169083151502179055505b50565b600060019054906101000a900460ff16806130d0575060008054906101000a900460ff16155b61310f576040517f08c379a00000000000000000000000000000000000000000000000000000000081526004016131069061438d565b60405180910390fd5b60008060019054906101000a900460ff16159050801561315f576001600060016101000a81548160ff02191690831515021790555060016000806101000a81548160ff0219169083151502179055505b80156131805760008060016101000a81548160ff0219169083151502179055505b50565b606060405180602001604052806000815250905090565b60606131a582611495565b6131e4576040517f08c379a00000000000000000000000000000000000000000000000000000000081526004016131db9061444d565b60405180910390fd5b60006131ee613183565b9050600081511161320e5760405180602001604052806000815250613239565b8061321884613380565b6040516020016132299291906140d0565b6040516020818303038152906040525b915050919050565b61324b838361352d565b61325860008484846129cd565b613297576040517f08c379a000000000000000000000000000000000000000000000000000000000815260040161328e9061420d565b60405180910390fd5b505050565b60007f01ffc9a7000000000000000000000000000000000000000000000000000000007bffffffffffffffffffffffffffffffffffffffffffffffffffffffff1916827bffffffffffffffffffffffffffffffffffffffffffffffffffffffff1916149050919050565b600080823b905060008111915050919050565b6060831561332957829050613379565b60008351111561333c5782518084602001fd5b816040517f08c379a000000000000000000000000000000000000000000000000000000000815260040161337091906141cb565b60405180910390fd5b9392505050565b606060008214156133c8576040518060400160405280600181526020017f30000000000000000000000000000000000000000000000000000000000000008152509050613528565b600082905060005b600082146133fa5780806133e39061483f565b915050600a826133f39190614633565b91506133d0565b60008167ffffffffffffffff81111561343c577f4e487b7100000000000000000000000000000000000000000000000000000000600052604160045260246000fd5b6040519080825280601f01601f19166020018201604052801561346e5781602001600182028036833780820191505090505b5090505b600085146135215760018261348791906146be565b9150600a856134969190614888565b60306134a291906145dd565b60f81b8183815181106134de577f4e487b7100000000000000000000000000000000000000000000000000000000600052603260045260246000fd5b60200101907effffffffffffffffffffffffffffffffffffffffffffffffffffffffffffff1916908160001a905350600a8561351a9190614633565b9450613472565b8093505050505b919050565b600073ffffffffffffffffffffffffffffffffffffffff168273ffffffffffffffffffffffffffffffffffffffff16141561359d576040517f08c379a0000000000000000000000000000000000000000000000000000000008152600401613594906143ad565b60405180910390fd5b6135a681611495565b156135e6576040517f08c379a00000000000000000000000000000000000000000000000000000000081526004016135dd9061424d565b60405180910390fd5b6135f2600083836124ce565b6001606860008473ffffffffffffffffffffffffffffffffffffffff1673ffffffffffffffffffffffffffffffffffffffff168152602001908152602001600020600082825461364291906145dd565b92505081905550816067600083815260200190815260200160002060006101000a81548173ffffffffffffffffffffffffffffffffffffffff021916908373ffffffffffffffffffffffffffffffffffffffff160217905550808273ffffffffffffffffffffffffffffffffffffffff16600073ffffffffffffffffffffffffffffffffffffffff167fddf252ad1be2c89b69c2b068fc378daa952ba7f163c4a11628f55a4df523b3ef60405160405180910390a45050565b828054613707906147dc565b90600052602060002090601f0160209004810192826137295760008555613770565b82601f1061374257805160ff1916838001178555613770565b82800160010185558215613770579182015b8281111561376f578251825591602001919060010190613754565b5b50905061377d9190613781565b5090565b5b8082111561379a576000816000905550600101613782565b5090565b60006137b16137ac8461452d565b614508565b9050828152602081018484840111156137c957600080fd5b6137d4848285614770565b509392505050565b60006137ef6137ea8461455e565b614508565b90508281526020810184848401111561380757600080fd5b613812848285614770565b509392505050565b600081359050613829816150a8565b92915050565b60008135905061383e816150bf565b92915050565b600081359050613853816150d6565b92915050565b600081359050613868816150ed565b92915050565b60008151905061387d816150ed565b92915050565b600082601f83011261389457600080fd5b81356138a484826020860161379e565b91505092915050565b600082601f8301126138be57600080fd5b81356138ce8482602086016137dc565b91505092915050565b6000813590506138e681615104565b92915050565b6000602082840312156138fe57600080fd5b600061390c8482850161381a565b91505092915050565b6000806040838503121561392857600080fd5b60006139368582860161381a565b92505060206139478582860161381a565b9150509250929050565b60008060006060848603121561396657600080fd5b60006139748682870161381a565b93505060206139858682870161381a565b9250506040613996868287016138d7565b9150509250925092565b600080600080608085870312156139b657600080fd5b60006139c48782880161381a565b94505060206139d58782880161381a565b93505060406139e6878288016138d7565b925050606085013567ffffffffffffffff811115613a0357600080fd5b613a0f87828801613883565b91505092959194509250565b60008060408385031215613a2e57600080fd5b6000613a3c8582860161381a565b9250506020613a4d8582860161382f565b9150509250929050565b60008060408385031215613a6a57600080fd5b6000613a788582860161381a565b925050602083013567ffffffffffffffff811115613a9557600080fd5b613aa185828601613883565b9150509250929050565b60008060408385031215613abe57600080fd5b6000613acc8582860161381a565b925050602083013567ffffffffffffffff811115613ae957600080fd5b613af5858286016138ad565b9150509250929050565b60008060408385031215613b1257600080fd5b6000613b208582860161381a565b9250506020613b31858286016138d7565b9150509250929050565b600060208284031215613b4d57600080fd5b6000613b5b84828501613844565b91505092915050565b60008060408385031215613b7757600080fd5b6000613b8585828601613844565b9250506020613b968582860161381a565b9150509250929050565b600060208284031215613bb257600080fd5b6000613bc084828501613859565b91505092915050565b600060208284031215613bdb57600080fd5b6000613be98482850161386e565b91505092915050565b600060208284031215613c0457600080fd5b6000613c12848285016138d7565b91505092915050565b613c24816146f2565b82525050565b613c3381614704565b82525050565b613c4281614710565b82525050565b6000613c538261458f565b613c5d81856145a5565b9350613c6d81856020860161477f565b613c7681614975565b840191505092915050565b6000613c8c8261458f565b613c9681856145b6565b9350613ca681856020860161477f565b80840191505092915050565b6000613cbd8261459a565b613cc781856145c1565b9350613cd781856020860161477f565b613ce081614975565b840191505092915050565b6000613cf68261459a565b613d0081856145d2565b9350613d1081856020860161477f565b80840191505092915050565b6000613d296020836145c1565b9150613d3482614986565b602082019050919050565b6000613d4c6032836145c1565b9150613d57826149af565b604082019050919050565b6000613d6f602f836145c1565b9150613d7a826149fe565b604082019050919050565b6000613d92601c836145c1565b9150613d9d82614a4d565b602082019050919050565b6000613db5602c836145c1565b9150613dc082614a76565b604082019050919050565b6000613dd86024836145c1565b9150613de382614ac5565b604082019050919050565b6000613dfb6019836145c1565b9150613e0682614b14565b602082019050919050565b6000613e1e602c836145c1565b9150613e2982614b3d565b604082019050919050565b6000613e41602c836145c1565b9150613e4c82614b8c565b604082019050919050565b6000613e646038836145c1565b9150613e6f82614bdb565b604082019050919050565b6000613e87602a836145c1565b9150613e9282614c2a565b604082019050919050565b6000613eaa6029836145c1565b9150613eb582614c79565b604082019050919050565b6000613ecd602e836145c1565b9150613ed882614cc8565b604082019050919050565b6000613ef0602e836145c1565b9150613efb82614d17565b604082019050919050565b6000613f136020836145c1565b9150613f1e82614d66565b602082019050919050565b6000613f366031836145c1565b9150613f4182614d8f565b604082019050919050565b6000613f59602c836145c1565b9150613f6482614dde565b604082019050919050565b6000613f7c602d836145c1565b9150613f8782614e2d565b604082019050919050565b6000613f9f6029836145c1565b9150613faa82614e7c565b604082019050919050565b6000613fc2602f836145c1565b9150613fcd82614ecb565b604082019050919050565b6000613fe56021836145c1565b9150613ff082614f1a565b604082019050919050565b60006140086026836145c1565b915061401382614f69565b604082019050919050565b600061402b6031836145c1565b915061403682614fb8565b604082019050919050565b600061404e6017836145d2565b915061405982615007565b601782019050919050565b60006140716011836145d2565b915061407c82615030565b601182019050919050565b6000614094602f836145c1565b915061409f82615059565b604082019050919050565b6140b381614766565b82525050565b60006140c58284613c81565b915081905092915050565b60006140dc8285613ceb565b91506140e88284613ceb565b91508190509392505050565b60006140ff82614041565b915061410b8285613ceb565b915061411682614064565b91506141228284613ceb565b91508190509392505050565b60006020820190506141436000830184613c1b565b92915050565b600060808201905061415e6000830187613c1b565b61416b6020830186613c1b565b61417860408301856140aa565b818103606083015261418a8184613c48565b905095945050505050565b60006020820190506141aa6000830184613c2a565b92915050565b60006020820190506141c56000830184613c39565b92915050565b600060208201905081810360008301526141e58184613cb2565b905092915050565b6000602082019050818103600083015261420681613d1c565b9050919050565b6000602082019050818103600083015261422681613d3f565b9050919050565b6000602082019050818103600083015261424681613d62565b9050919050565b6000602082019050818103600083015261426681613d85565b9050919050565b6000602082019050818103600083015261428681613da8565b9050919050565b600060208201905081810360008301526142a681613dcb565b9050919050565b600060208201905081810360008301526142c681613dee565b9050919050565b600060208201905081810360008301526142e681613e11565b9050919050565b6000602082019050818103600083015261430681613e34565b9050919050565b6000602082019050818103600083015261432681613e57565b9050919050565b6000602082019050818103600083015261434681613e7a565b9050919050565b6000602082019050818103600083015261436681613e9d565b9050919050565b6000602082019050818103600083015261438681613ec0565b9050919050565b600060208201905081810360008301526143a681613ee3565b9050919050565b600060208201905081810360008301526143c681613f06565b9050919050565b600060208201905081810360008301526143e681613f29565b9050919050565b6000602082019050818103600083015261440681613f4c565b9050919050565b6000602082019050818103600083015261442681613f6f565b9050919050565b6000602082019050818103600083015261444681613f92565b9050919050565b6000602082019050818103600083015261446681613fb5565b9050919050565b6000602082019050818103600083015261448681613fd8565b9050919050565b600060208201905081810360008301526144a681613ffb565b9050919050565b600060208201905081810360008301526144c68161401e565b9050919050565b600060208201905081810360008301526144e681614087565b9050919050565b600060208201905061450260008301846140aa565b92915050565b6000614512614523565b905061451e828261480e565b919050565b6000604051905090565b600067ffffffffffffffff82111561454857614547614946565b5b61455182614975565b9050602081019050919050565b600067ffffffffffffffff82111561457957614578614946565b5b61458282614975565b9050602081019050919050565b600081519050919050565b600081519050919050565b600082825260208201905092915050565b600081905092915050565b600082825260208201905092915050565b600081905092915050565b60006145e882614766565b91506145f383614766565b9250827fffffffffffffffffffffffffffffffffffffffffffffffffffffffffffffffff03821115614628576146276148b9565b5b828201905092915050565b600061463e82614766565b915061464983614766565b925082614659576146586148e8565b5b828204905092915050565b600061466f82614766565b915061467a83614766565b9250817fffffffffffffffffffffffffffffffffffffffffffffffffffffffffffffffff04831182151516156146b3576146b26148b9565b5b828202905092915050565b60006146c982614766565b91506146d483614766565b9250828210156146e7576146e66148b9565b5b828203905092915050565b60006146fd82614746565b9050919050565b60008115159050919050565b6000819050919050565b60007fffffffff0000000000000000000000000000000000000000000000000000000082169050919050565b600073ffffffffffffffffffffffffffffffffffffffff82169050919050565b6000819050919050565b82818337600083830152505050565b60005b8381101561479d578082015181840152602081019050614782565b838111156147ac576000848401525b50505050565b60006147bd82614766565b915060008214156147d1576147d06148b9565b5b600182039050919050565b600060028204905060018216806147f457607f821691505b6020821081141561480857614807614917565b5b50919050565b61481782614975565b810181811067ffffffffffffffff8211171561483657614835614946565b5b80604052505050565b600061484a82614766565b91507fffffffffffffffffffffffffffffffffffffffffffffffffffffffffffffffff82141561487d5761487c6148b9565b5b600182019050919050565b600061489382614766565b915061489e83614766565b9250826148ae576148ad6148e8565b5b828206905092915050565b7f4e487b7100000000000000000000000000000000000000000000000000000000600052601160045260246000fd5b7f4e487b7100000000000000000000000000000000000000000000000000000000600052601260045260246000fd5b7f4e487b7100000000000000000000000000000000000000000000000000000000600052602260045260246000fd5b7f4e487b7100000000000000000000000000000000000000000000000000000000600052604160045260246000fd5b6000601f19601f8301169050919050565b7f537472696e67733a20686578206c656e67746820696e73756666696369656e74600082015250565b7f4552433732313a207472616e7366657220746f206e6f6e20455243373231526560008201527f63656976657220696d706c656d656e7465720000000000000000000000000000602082015250565b7f45524331393637557067726164653a207570677261646520627265616b73206660008201527f7572746865722075706772616465730000000000000000000000000000000000602082015250565b7f4552433732313a20746f6b656e20616c7265616479206d696e74656400000000600082015250565b7f46756e6374696f6e206d7573742062652063616c6c6564207468726f7567682060008201527f64656c656761746563616c6c0000000000000000000000000000000000000000602082015250565b7f4552433732313a207472616e7366657220746f20746865207a65726f2061646460008201527f7265737300000000000000000000000000000000000000000000000000000000602082015250565b7f4552433732313a20617070726f766520746f2063616c6c657200000000000000600082015250565b7f46756e6374696f6e206d7573742062652063616c6c6564207468726f7567682060008201527f6163746976652070726f78790000000000000000000000000000000000000000602082015250565b7f4552433732313a206f70657261746f7220717565727920666f72206e6f6e657860008201527f697374656e7420746f6b656e0000000000000000000000000000000000000000602082015250565b7f4552433732313a20617070726f76652063616c6c6572206973206e6f74206f7760008201527f6e6572206e6f7220617070726f76656420666f7220616c6c0000000000000000602082015250565b7f4552433732313a2062616c616e636520717565727920666f7220746865207a6560008201527f726f206164647265737300000000000000000000000000000000000000000000602082015250565b7f4552433732313a206f776e657220717565727920666f72206e6f6e657869737460008201527f656e7420746f6b656e0000000000000000000000000000000000000000000000602082015250565b7f45524337323155524953746f726167653a2055524920736574206f66206e6f6e60008201527f6578697374656e7420746f6b656e000000000000000000000000000000000000602082015250565b7f496e697469616c697a61626c653a20636f6e747261637420697320616c72656160008201527f647920696e697469616c697a6564000000000000000000000000000000000000602082015250565b7f4552433732313a206d696e7420746f20746865207a65726f2061646472657373600082015250565b7f45524337323155524953746f726167653a2055524920717565727920666f722060008201527f6e6f6e6578697374656e7420746f6b656e000000000000000000000000000000602082015250565b7f4552433732313a20617070726f76656420717565727920666f72206e6f6e657860008201527f697374656e7420746f6b656e0000000000000000000000000000000000000000602082015250565b7f455243313936373a206e657720696d706c656d656e746174696f6e206973206e60008201527f6f74206120636f6e747261637400000000000000000000000000000000000000602082015250565b7f4552433732313a207472616e73666572206f6620746f6b656e2074686174206960008201527f73206e6f74206f776e0000000000000000000000000000000000000000000000602082015250565b7f4552433732314d657461646174613a2055524920717565727920666f72206e6f60008201527f6e6578697374656e7420746f6b656e0000000000000000000000000000000000602082015250565b7f4552433732313a20617070726f76616c20746f2063757272656e74206f776e6560008201527f7200000000000000000000000000000000000000000000000000000000000000602082015250565b7f416464726573733a2064656c65676174652063616c6c20746f206e6f6e2d636f60008201527f6e74726163740000000000000000000000000000000000000000000000000000602082015250565b7f4552433732313a207472616e736665722063616c6c6572206973206e6f74206f60008201527f776e6572206e6f7220617070726f766564000000000000000000000000000000602082015250565b7f416363657373436f6e74726f6c3a206163636f756e7420000000000000000000600082015250565b7f206973206d697373696e6720726f6c6520000000000000000000000000000000600082015250565b7f416363657373436f6e74726f6c3a2063616e206f6e6c792072656e6f756e636560008201527f20726f6c657320666f722073656c660000000000000000000000000000000000602082015250565b6150b1816146f2565b81146150bc57600080fd5b50565b6150c881614704565b81146150d357600080fd5b50565b6150df81614710565b81146150ea57600080fd5b50565b6150f68161471a565b811461510157600080fd5b50565b61510d81614766565b811461511857600080fd5b5056fe416464726573733a206c6f772d6c6576656c2064656c65676174652063616c6c206661696c6564a2646970667358221220732c51ba85dd06a394c6b39c6dcfcaf4d686b5c1821f1a2db3603d6bb05d078964736f6c63430008040033",
  "devdoc": {
    "kind": "dev",
    "methods": {
      "approve(address,uint256)": {
        "details": "See {IERC721-approve}."
      },
      "balanceOf(address)": {
        "details": "See {IERC721-balanceOf}."
      },
      "constructor": {
        "custom:oz-upgrades-unsafe-allow": "constructor"
      },
      "getApproved(uint256)": {
        "details": "See {IERC721-getApproved}."
      },
      "getRoleAdmin(bytes32)": {
        "details": "Returns the admin role that controls `role`. See {grantRole} and {revokeRole}. To change a role's admin, use {_setRoleAdmin}."
      },
      "grantRole(bytes32,address)": {
        "details": "Grants `role` to `account`. If `account` had not been already granted `role`, emits a {RoleGranted} event. Requirements: - the caller must have ``role``'s admin role."
      },
      "hasRole(bytes32,address)": {
        "details": "Returns `true` if `account` has been granted `role`."
      },
      "isApprovedForAll(address,address)": {
        "details": "See {IERC721-isApprovedForAll}."
      },
      "name()": {
        "details": "See {IERC721Metadata-name}."
      },
      "ownerOf(uint256)": {
        "details": "See {IERC721-ownerOf}."
      },
      "renounceRole(bytes32,address)": {
        "details": "Revokes `role` from the calling account. Roles are often managed via {grantRole} and {revokeRole}: this function's purpose is to provide a mechanism for accounts to lose their privileges if they are compromised (such as when a trusted device is misplaced). If the calling account had been granted `role`, emits a {RoleRevoked} event. Requirements: - the caller must be `account`."
      },
      "revokeRole(bytes32,address)": {
        "details": "Revokes `role` from `account`. If `account` had been granted `role`, emits a {RoleRevoked} event. Requirements: - the caller must have ``role``'s admin role."
      },
      "safeTransferFrom(address,address,uint256)": {
        "details": "See {IERC721-safeTransferFrom}."
      },
      "safeTransferFrom(address,address,uint256,bytes)": {
        "details": "See {IERC721-safeTransferFrom}."
      },
      "setApprovalForAll(address,bool)": {
        "details": "See {IERC721-setApprovalForAll}."
      },
      "symbol()": {
        "details": "See {IERC721Metadata-symbol}."
      },
      "transferFrom(address,address,uint256)": {
        "details": "See {IERC721-transferFrom}."
      },
      "upgradeTo(address)": {
        "details": "Upgrade the implementation of the proxy to `newImplementation`. Calls {_authorizeUpgrade}. Emits an {Upgraded} event."
      },
      "upgradeToAndCall(address,bytes)": {
        "details": "Upgrade the implementation of the proxy to `newImplementation`, and subsequently execute the function call encoded in `data`. Calls {_authorizeUpgrade}. Emits an {Upgraded} event."
      }
    },
    "title": "openzeppelin implementation of upgradeable ERC721",
    "version": 1
  },
  "userdoc": {
    "kind": "user",
    "methods": {},
    "notice": "the collection contract for song NFTs",
    "version": 1
  },
  "storageLayout": {
    "storage": [
      {
        "astId": 2915,
        "contract": "contracts/songs/SongsCollection.sol:SongsCollection",
        "label": "_initialized",
        "offset": 0,
        "slot": "0",
        "type": "t_bool"
      },
      {
        "astId": 2918,
        "contract": "contracts/songs/SongsCollection.sol:SongsCollection",
        "label": "_initializing",
        "offset": 1,
        "slot": "0",
        "type": "t_bool"
      },
      {
        "astId": 4517,
        "contract": "contracts/songs/SongsCollection.sol:SongsCollection",
        "label": "__gap",
        "offset": 0,
        "slot": "1",
        "type": "t_array(t_uint256)50_storage"
      },
      {
        "astId": 4900,
        "contract": "contracts/songs/SongsCollection.sol:SongsCollection",
        "label": "__gap",
        "offset": 0,
        "slot": "51",
        "type": "t_array(t_uint256)50_storage"
      },
      {
        "astId": 3095,
        "contract": "contracts/songs/SongsCollection.sol:SongsCollection",
        "label": "_name",
        "offset": 0,
        "slot": "101",
        "type": "t_string_storage"
      },
      {
        "astId": 3097,
        "contract": "contracts/songs/SongsCollection.sol:SongsCollection",
        "label": "_symbol",
        "offset": 0,
        "slot": "102",
        "type": "t_string_storage"
      },
      {
        "astId": 3101,
        "contract": "contracts/songs/SongsCollection.sol:SongsCollection",
        "label": "_owners",
        "offset": 0,
        "slot": "103",
        "type": "t_mapping(t_uint256,t_address)"
      },
      {
        "astId": 3105,
        "contract": "contracts/songs/SongsCollection.sol:SongsCollection",
        "label": "_balances",
        "offset": 0,
        "slot": "104",
        "type": "t_mapping(t_address,t_uint256)"
      },
      {
        "astId": 3109,
        "contract": "contracts/songs/SongsCollection.sol:SongsCollection",
        "label": "_tokenApprovals",
        "offset": 0,
        "slot": "105",
        "type": "t_mapping(t_uint256,t_address)"
      },
      {
        "astId": 3115,
        "contract": "contracts/songs/SongsCollection.sol:SongsCollection",
        "label": "_operatorApprovals",
        "offset": 0,
        "slot": "106",
        "type": "t_mapping(t_address,t_mapping(t_address,t_bool))"
      },
      {
        "astId": 3911,
        "contract": "contracts/songs/SongsCollection.sol:SongsCollection",
        "label": "__gap",
        "offset": 0,
        "slot": "107",
        "type": "t_array(t_uint256)44_storage"
      },
      {
        "astId": 4083,
        "contract": "contracts/songs/SongsCollection.sol:SongsCollection",
        "label": "_tokenURIs",
        "offset": 0,
        "slot": "151",
        "type": "t_mapping(t_uint256,t_string_storage)"
      },
      {
        "astId": 4201,
        "contract": "contracts/songs/SongsCollection.sol:SongsCollection",
        "label": "__gap",
        "offset": 0,
        "slot": "152",
        "type": "t_array(t_uint256)49_storage"
      },
      {
        "astId": 2142,
        "contract": "contracts/songs/SongsCollection.sol:SongsCollection",
        "label": "_roles",
        "offset": 0,
        "slot": "201",
        "type": "t_mapping(t_bytes32,t_struct(RoleData)2137_storage)"
      },
      {
        "astId": 2427,
        "contract": "contracts/songs/SongsCollection.sol:SongsCollection",
        "label": "__gap",
        "offset": 0,
        "slot": "202",
        "type": "t_array(t_uint256)49_storage"
      },
      {
        "astId": 2898,
        "contract": "contracts/songs/SongsCollection.sol:SongsCollection",
        "label": "__gap",
        "offset": 0,
        "slot": "251",
        "type": "t_array(t_uint256)50_storage"
      },
      {
        "astId": 3065,
        "contract": "contracts/songs/SongsCollection.sol:SongsCollection",
        "label": "__gap",
        "offset": 0,
        "slot": "301",
        "type": "t_array(t_uint256)50_storage"
      },
      {
        "astId": 7546,
        "contract": "contracts/songs/SongsCollection.sol:SongsCollection",
        "label": "_tokenIdCounter",
        "offset": 0,
        "slot": "351",
        "type": "t_struct(Counter)4524_storage"
      }
    ],
    "types": {
      "t_address": {
        "encoding": "inplace",
        "label": "address",
        "numberOfBytes": "20"
      },
      "t_array(t_uint256)44_storage": {
        "base": "t_uint256",
        "encoding": "inplace",
        "label": "uint256[44]",
        "numberOfBytes": "1408"
      },
      "t_array(t_uint256)49_storage": {
        "base": "t_uint256",
        "encoding": "inplace",
        "label": "uint256[49]",
        "numberOfBytes": "1568"
      },
      "t_array(t_uint256)50_storage": {
        "base": "t_uint256",
        "encoding": "inplace",
        "label": "uint256[50]",
        "numberOfBytes": "1600"
      },
      "t_bool": {
        "encoding": "inplace",
        "label": "bool",
        "numberOfBytes": "1"
      },
      "t_bytes32": {
        "encoding": "inplace",
        "label": "bytes32",
        "numberOfBytes": "32"
      },
      "t_mapping(t_address,t_bool)": {
        "encoding": "mapping",
        "key": "t_address",
        "label": "mapping(address => bool)",
        "numberOfBytes": "32",
        "value": "t_bool"
      },
      "t_mapping(t_address,t_mapping(t_address,t_bool))": {
        "encoding": "mapping",
        "key": "t_address",
        "label": "mapping(address => mapping(address => bool))",
        "numberOfBytes": "32",
        "value": "t_mapping(t_address,t_bool)"
      },
      "t_mapping(t_address,t_uint256)": {
        "encoding": "mapping",
        "key": "t_address",
        "label": "mapping(address => uint256)",
        "numberOfBytes": "32",
        "value": "t_uint256"
      },
      "t_mapping(t_bytes32,t_struct(RoleData)2137_storage)": {
        "encoding": "mapping",
        "key": "t_bytes32",
        "label": "mapping(bytes32 => struct AccessControlUpgradeable.RoleData)",
        "numberOfBytes": "32",
        "value": "t_struct(RoleData)2137_storage"
      },
      "t_mapping(t_uint256,t_address)": {
        "encoding": "mapping",
        "key": "t_uint256",
        "label": "mapping(uint256 => address)",
        "numberOfBytes": "32",
        "value": "t_address"
      },
      "t_mapping(t_uint256,t_string_storage)": {
        "encoding": "mapping",
        "key": "t_uint256",
        "label": "mapping(uint256 => string)",
        "numberOfBytes": "32",
        "value": "t_string_storage"
      },
      "t_string_storage": {
        "encoding": "bytes",
        "label": "string",
        "numberOfBytes": "32"
      },
      "t_struct(Counter)4524_storage": {
        "encoding": "inplace",
        "label": "struct CountersUpgradeable.Counter",
        "members": [
          {
            "astId": 4523,
            "contract": "contracts/songs/SongsCollection.sol:SongsCollection",
            "label": "_value",
            "offset": 0,
            "slot": "0",
            "type": "t_uint256"
          }
        ],
        "numberOfBytes": "32"
      },
      "t_struct(RoleData)2137_storage": {
        "encoding": "inplace",
        "label": "struct AccessControlUpgradeable.RoleData",
        "members": [
          {
            "astId": 2134,
            "contract": "contracts/songs/SongsCollection.sol:SongsCollection",
            "label": "members",
            "offset": 0,
            "slot": "0",
            "type": "t_mapping(t_address,t_bool)"
          },
          {
            "astId": 2136,
            "contract": "contracts/songs/SongsCollection.sol:SongsCollection",
            "label": "adminRole",
            "offset": 0,
            "slot": "1",
            "type": "t_bytes32"
          }
        ],
        "numberOfBytes": "64"
      },
      "t_uint256": {
        "encoding": "inplace",
        "label": "uint256",
        "numberOfBytes": "32"
      }
    }
  }
}