{
  "address": "0xBa1c015Cf602Df96C19d495f813F0Dd2E1214f03",
  "abi": [
    {
      "inputs": [],
      "stateMutability": "nonpayable",
      "type": "constructor"
    },
    {
      "anonymous": false,
      "inputs": [
        {
          "indexed": false,
          "internalType": "address",
          "name": "previousAdmin",
          "type": "address"
        },
        {
          "indexed": false,
          "internalType": "address",
          "name": "newAdmin",
          "type": "address"
        }
      ],
      "name": "AdminChanged",
      "type": "event"
    },
    {
      "anonymous": false,
      "inputs": [
        {
          "indexed": true,
          "internalType": "address",
          "name": "beacon",
          "type": "address"
        }
      ],
      "name": "BeaconUpgraded",
      "type": "event"
    },
    {
      "anonymous": false,
      "inputs": [
        {
          "indexed": true,
          "internalType": "bytes32",
          "name": "role",
          "type": "bytes32"
        },
        {
          "indexed": true,
          "internalType": "bytes32",
          "name": "previousAdminRole",
          "type": "bytes32"
        },
        {
          "indexed": true,
          "internalType": "bytes32",
          "name": "newAdminRole",
          "type": "bytes32"
        }
      ],
      "name": "RoleAdminChanged",
      "type": "event"
    },
    {
      "anonymous": false,
      "inputs": [
        {
          "indexed": true,
          "internalType": "bytes32",
          "name": "role",
          "type": "bytes32"
        },
        {
          "indexed": true,
          "internalType": "address",
          "name": "account",
          "type": "address"
        },
        {
          "indexed": true,
          "internalType": "address",
          "name": "sender",
          "type": "address"
        }
      ],
      "name": "RoleGranted",
      "type": "event"
    },
    {
      "anonymous": false,
      "inputs": [
        {
          "indexed": true,
          "internalType": "bytes32",
          "name": "role",
          "type": "bytes32"
        },
        {
          "indexed": true,
          "internalType": "address",
          "name": "account",
          "type": "address"
        },
        {
          "indexed": true,
          "internalType": "address",
          "name": "sender",
          "type": "address"
        }
      ],
      "name": "RoleRevoked",
      "type": "event"
    },
    {
      "anonymous": false,
      "inputs": [
        {
          "indexed": false,
          "internalType": "address",
          "name": "subscriber",
          "type": "address"
        },
        {
          "indexed": false,
          "internalType": "uint256",
          "name": "hoursOfSubscription",
          "type": "uint256"
        },
        {
          "indexed": false,
          "internalType": "uint256",
          "name": "traxReward",
          "type": "uint256"
        }
      ],
      "name": "Subscribed",
      "type": "event"
    },
    {
      "anonymous": false,
      "inputs": [
        {
          "indexed": true,
          "internalType": "address",
          "name": "implementation",
          "type": "address"
        }
      ],
      "name": "Upgraded",
      "type": "event"
    },
    {
      "inputs": [],
      "name": "DEFAULT_ADMIN_ROLE",
      "outputs": [
        {
          "internalType": "bytes32",
          "name": "",
          "type": "bytes32"
        }
      ],
      "stateMutability": "view",
      "type": "function"
    },
    {
      "inputs": [],
      "name": "UPGRADER_ROLE",
      "outputs": [
        {
          "internalType": "bytes32",
          "name": "",
          "type": "bytes32"
        }
      ],
      "stateMutability": "view",
      "type": "function"
    },
    {
      "inputs": [],
      "name": "fundsManager",
      "outputs": [
        {
          "internalType": "address",
          "name": "",
          "type": "address"
        }
      ],
      "stateMutability": "view",
      "type": "function"
    },
    {
      "inputs": [
        {
          "internalType": "bytes32",
          "name": "role",
          "type": "bytes32"
        }
      ],
      "name": "getRoleAdmin",
      "outputs": [
        {
          "internalType": "bytes32",
          "name": "",
          "type": "bytes32"
        }
      ],
      "stateMutability": "view",
      "type": "function"
    },
    {
      "inputs": [
        {
          "internalType": "bytes32",
          "name": "role",
          "type": "bytes32"
        },
        {
          "internalType": "address",
          "name": "account",
          "type": "address"
        }
      ],
      "name": "grantRole",
      "outputs": [],
      "stateMutability": "nonpayable",
      "type": "function"
    },
    {
      "inputs": [
        {
          "internalType": "bytes32",
          "name": "role",
          "type": "bytes32"
        },
        {
          "internalType": "address",
          "name": "account",
          "type": "address"
        }
      ],
      "name": "hasRole",
      "outputs": [
        {
          "internalType": "bool",
          "name": "",
          "type": "bool"
        }
      ],
      "stateMutability": "view",
      "type": "function"
    },
    {
      "inputs": [
        {
          "internalType": "address",
          "name": "protocol_",
          "type": "address"
        },
        {
          "internalType": "address",
          "name": "upgrader_",
          "type": "address"
        },
        {
          "internalType": "address",
          "name": "fundsManager_",
          "type": "address"
        },
        {
          "internalType": "address",
          "name": "subscriptionReward_",
          "type": "address"
        },
        {
          "internalType": "address",
          "name": "usdPeggedToken_",
          "type": "address"
        }
      ],
      "name": "initialize",
      "outputs": [],
      "stateMutability": "nonpayable",
      "type": "function"
    },
    {
      "inputs": [],
      "name": "protocol",
      "outputs": [
        {
          "internalType": "contract ProtocolParameters",
          "name": "",
          "type": "address"
        }
      ],
      "stateMutability": "view",
      "type": "function"
    },
    {
      "inputs": [
        {
          "internalType": "bytes32",
          "name": "role",
          "type": "bytes32"
        },
        {
          "internalType": "address",
          "name": "account",
          "type": "address"
        }
      ],
      "name": "renounceRole",
      "outputs": [],
      "stateMutability": "nonpayable",
      "type": "function"
    },
    {
      "inputs": [
        {
          "internalType": "bytes32",
          "name": "role",
          "type": "bytes32"
        },
        {
          "internalType": "address",
          "name": "account",
          "type": "address"
        }
      ],
      "name": "revokeRole",
      "outputs": [],
      "stateMutability": "nonpayable",
      "type": "function"
    },
    {
      "inputs": [
        {
          "internalType": "uint256",
          "name": "usdAmount_",
          "type": "uint256"
        }
      ],
      "name": "subscribe",
      "outputs": [],
      "stateMutability": "nonpayable",
      "type": "function"
    },
    {
      "inputs": [],
      "name": "subscriptionReward",
      "outputs": [
        {
          "internalType": "address",
          "name": "",
          "type": "address"
        }
      ],
      "stateMutability": "view",
      "type": "function"
    },
    {
      "inputs": [
        {
          "internalType": "bytes4",
          "name": "interfaceId",
          "type": "bytes4"
        }
      ],
      "name": "supportsInterface",
      "outputs": [
        {
          "internalType": "bool",
          "name": "",
          "type": "bool"
        }
      ],
      "stateMutability": "view",
      "type": "function"
    },
    {
      "inputs": [
        {
          "internalType": "address",
          "name": "newImplementation",
          "type": "address"
        }
      ],
      "name": "upgradeTo",
      "outputs": [],
      "stateMutability": "nonpayable",
      "type": "function"
    },
    {
      "inputs": [
        {
          "internalType": "address",
          "name": "newImplementation",
          "type": "address"
        },
        {
          "internalType": "bytes",
          "name": "data",
          "type": "bytes"
        }
      ],
      "name": "upgradeToAndCall",
      "outputs": [],
      "stateMutability": "payable",
      "type": "function"
    },
    {
      "inputs": [],
      "name": "usdPeggedToken",
      "outputs": [
        {
          "internalType": "address",
          "name": "",
          "type": "address"
        }
      ],
      "stateMutability": "view",
      "type": "function"
    },
    {
      "inputs": [
        {
          "internalType": "address",
          "name": "",
          "type": "address"
        }
      ],
      "name": "userHoursOfMusic",
      "outputs": [
        {
          "internalType": "uint256",
          "name": "",
          "type": "uint256"
        }
      ],
      "stateMutability": "view",
      "type": "function"
    },
    {
      "inputs": [
        {
          "internalType": "uint256",
          "name": "usdAmount_",
          "type": "uint256"
        }
      ],
      "name": "whatDoIGet",
      "outputs": [
        {
          "internalType": "uint256",
          "name": "hoursOfSubscription",
          "type": "uint256"
        },
        {
          "internalType": "uint256",
          "name": "traxReward",
          "type": "uint256"
        }
      ],
      "stateMutability": "pure",
      "type": "function"
    }
  ],
  "transactionHash": "0x59d4cb6d67426f0d88bff25ebd0b00f1fd5cd7c025ccd83ca8688d6f5ed9adb4",
  "args": [],
  "solcInputHash": "fd750c0783e29ee55e57a970f1bbddce",
  "bytecode": "0x60a06040523073ffffffffffffffffffffffffffffffffffffffff1660809073ffffffffffffffffffffffffffffffffffffffff1660601b8152503480156200004757600080fd5b50600060019054906101000a900460ff16806200006f575060008054906101000a900460ff16155b620000b1576040517f08c379a0000000000000000000000000000000000000000000000000000000008152600401620000a89062000152565b60405180910390fd5b60008060019054906101000a900460ff16159050801562000102576001600060016101000a81548160ff02191690831515021790555060016000806101000a81548160ff0219169083151502179055505b8015620001245760008060016101000a81548160ff0219169083151502179055505b50620001d4565b60006200013a602e8362000174565b9150620001478262000185565b604082019050919050565b600060208201905081810360008301526200016d816200012b565b9050919050565b600082825260208201905092915050565b7f496e697469616c697a61626c653a20636f6e747261637420697320616c72656160008201527f647920696e697469616c697a6564000000000000000000000000000000000000602082015250565b60805160601c6130ff6200020860003960008181610afd01528181610b8c01528181610cac0152610d3b01526130ff6000f3fe6080604052600436106101095760003560e01c80634f1ef28611610095578063a217fddf11610064578063a217fddf1461037f578063d547741f146103aa578063ec476107146103d3578063f6285475146103fe578063f72c0d8b1461042957610109565b80634f1ef286146102bd57806384a5be83146102d95780638ce744261461031757806391d148541461034257610109565b80631f92196a116100dc5780631f92196a146101c8578063248a9ca3146102055780632f2ff15d1461024257806336568abe1461026b5780633659cfe61461029457610109565b806301ffc9a71461010e5780630d1166521461014b5780630f574ba7146101765780631459457a1461019f575b600080fd5b34801561011a57600080fd5b50610135600480360381019061013091906122a4565b610454565b6040516101429190612689565b60405180910390f35b34801561015757600080fd5b506101606104ce565b60405161016d91906125d7565b60405180910390f35b34801561018257600080fd5b5061019d600480360381019061019891906122f6565b6104f4565b005b3480156101ab57600080fd5b506101c660048036038101906101c1919061214b565b6107fb565b005b3480156101d457600080fd5b506101ef60048036038101906101ea9190612122565b610a17565b6040516101fc919061281c565b60405180910390f35b34801561021157600080fd5b5061022c6004803603810190610227919061223f565b610a2f565b60405161023991906126a4565b60405180910390f35b34801561024e57600080fd5b5061026960048036038101906102649190612268565b610a4f565b005b34801561027757600080fd5b50610292600480360381019061028d9190612268565b610a78565b005b3480156102a057600080fd5b506102bb60048036038101906102b69190612122565b610afb565b005b6102d760048036038101906102d291906121c2565b610caa565b005b3480156102e557600080fd5b5061030060048036038101906102fb91906122f6565b610de7565b60405161030e929190612837565b60405180910390f35b34801561032357600080fd5b5061032c610e42565b60405161033991906126bf565b60405180910390f35b34801561034e57600080fd5b5061036960048036038101906103649190612268565b610e68565b6040516103769190612689565b60405180910390f35b34801561038b57600080fd5b50610394610ed3565b6040516103a191906126a4565b60405180910390f35b3480156103b657600080fd5b506103d160048036038101906103cc9190612268565b610eda565b005b3480156103df57600080fd5b506103e8610f03565b6040516103f591906125d7565b60405180910390f35b34801561040a57600080fd5b50610413610f29565b60405161042091906125d7565b60405180910390f35b34801561043557600080fd5b5061043e610f4f565b60405161044b91906126a4565b60405180910390f35b60007f7965db0b000000000000000000000000000000000000000000000000000000007bffffffffffffffffffffffffffffffffffffffffffffffffffffffff1916827bffffffffffffffffffffffffffffffffffffffffffffffffffffffff191614806104c757506104c682610f73565b5b9050919050565b60fc60009054906101000a900473ffffffffffffffffffffffffffffffffffffffff1681565b60008061050083610de7565b9150915060fb60009054906101000a900473ffffffffffffffffffffffffffffffffffffffff1673ffffffffffffffffffffffffffffffffffffffff1663a624ac376040518163ffffffff1660e01b815260040160206040518083038186803b15801561056c57600080fd5b505afa158015610580573d6000803e3d6000fd5b505050506040513d601f19601f820116820180604052508101906105a491906122cd565b6fffffffffffffffffffffffffffffffff168210156105f8576040517f08c379a00000000000000000000000000000000000000000000000000000000081526004016105ef906127bc565b60405180910390fd5b60fe60009054906101000a900473ffffffffffffffffffffffffffffffffffffffff1673ffffffffffffffffffffffffffffffffffffffff166323b872dd3360fc60009054906101000a900473ffffffffffffffffffffffffffffffffffffffff16866040518463ffffffff1660e01b8152600401610679939291906125f2565b602060405180830381600087803b15801561069357600080fd5b505af11580156106a7573d6000803e3d6000fd5b505050506040513d601f19601f820116820180604052508101906106cb9190612216565b5060008111156107655760fd60009054906101000a900473ffffffffffffffffffffffffffffffffffffffff1673ffffffffffffffffffffffffffffffffffffffff166321670f2233836040518363ffffffff1660e01b8152600401610732929190612629565b600060405180830381600087803b15801561074c57600080fd5b505af1158015610760573d6000803e3d6000fd5b505050505b8160ff60003373ffffffffffffffffffffffffffffffffffffffff1673ffffffffffffffffffffffffffffffffffffffff16815260200190815260200160002060008282546107b491906128f3565b925050819055507ff94991dcbea6e8ac439cbc93bd9c62a4d39f04e0ad656df9a703f13552c2787f3383836040516107ee93929190612652565b60405180910390a1505050565b600060019054906101000a900460ff1680610821575060008054906101000a900460ff16155b610860576040517f08c379a00000000000000000000000000000000000000000000000000000000081526004016108579061277c565b60405180910390fd5b60008060019054906101000a900460ff1615905080156108b0576001600060016101000a81548160ff02191690831515021790555060016000806101000a81548160ff0219169083151502179055505b8560fb60006101000a81548173ffffffffffffffffffffffffffffffffffffffff021916908373ffffffffffffffffffffffffffffffffffffffff1602179055508360fc60006101000a81548173ffffffffffffffffffffffffffffffffffffffff021916908373ffffffffffffffffffffffffffffffffffffffff1602179055508260fd60006101000a81548173ffffffffffffffffffffffffffffffffffffffff021916908373ffffffffffffffffffffffffffffffffffffffff1602179055508160fe60006101000a81548173ffffffffffffffffffffffffffffffffffffffff021916908373ffffffffffffffffffffffffffffffffffffffff1602179055506109bc610fdd565b6109c46110ce565b6109ee7f189ab7a9244df0848122154315af71fe140f3db0fe014031783b0946b8c9d2e3866111b7565b8015610a0f5760008060016101000a81548160ff0219169083151502179055505b505050505050565b60ff6020528060005260406000206000915090505481565b600060656000838152602001908152602001600020600101549050919050565b610a5882610a2f565b610a6981610a646111c5565b6111cd565b610a73838361126a565b505050565b610a806111c5565b73ffffffffffffffffffffffffffffffffffffffff168173ffffffffffffffffffffffffffffffffffffffff1614610aed576040517f08c379a0000000000000000000000000000000000000000000000000000000008152600401610ae4906127fc565b60405180910390fd5b610af7828261134b565b5050565b7f000000000000000000000000000000000000000000000000000000000000000073ffffffffffffffffffffffffffffffffffffffff163073ffffffffffffffffffffffffffffffffffffffff161415610b8a576040517f08c379a0000000000000000000000000000000000000000000000000000000008152600401610b819061273c565b60405180910390fd5b7f000000000000000000000000000000000000000000000000000000000000000073ffffffffffffffffffffffffffffffffffffffff16610bc961142d565b73ffffffffffffffffffffffffffffffffffffffff1614610c1f576040517f08c379a0000000000000000000000000000000000000000000000000000000008152600401610c169061275c565b60405180910390fd5b610c2881611484565b610ca781600067ffffffffffffffff811115610c6d577f4e487b7100000000000000000000000000000000000000000000000000000000600052604160045260246000fd5b6040519080825280601f01601f191660200182016040528015610c9f5781602001600182028036833780820191505090505b5060006114ba565b50565b7f000000000000000000000000000000000000000000000000000000000000000073ffffffffffffffffffffffffffffffffffffffff163073ffffffffffffffffffffffffffffffffffffffff161415610d39576040517f08c379a0000000000000000000000000000000000000000000000000000000008152600401610d309061273c565b60405180910390fd5b7f000000000000000000000000000000000000000000000000000000000000000073ffffffffffffffffffffffffffffffffffffffff16610d7861142d565b73ffffffffffffffffffffffffffffffffffffffff1614610dce576040517f08c379a0000000000000000000000000000000000000000000000000000000008152600401610dc59061275c565b60405180910390fd5b610dd782611484565b610de3828260016114ba565b5050565b600080620f424061384084610dfc9190612aeb565b610e069190612949565b9150620f42406012600a610e1a91906129cd565b602885610e279190612aeb565b610e319190612aeb565b610e3b9190612949565b9050915091565b60fb60009054906101000a900473ffffffffffffffffffffffffffffffffffffffff1681565b60006065600084815260200190815260200160002060000160008373ffffffffffffffffffffffffffffffffffffffff1673ffffffffffffffffffffffffffffffffffffffff16815260200190815260200160002060009054906101000a900460ff16905092915050565b6000801b81565b610ee382610a2f565b610ef481610eef6111c5565b6111cd565b610efe838361134b565b505050565b60fd60009054906101000a900473ffffffffffffffffffffffffffffffffffffffff1681565b60fe60009054906101000a900473ffffffffffffffffffffffffffffffffffffffff1681565b7f189ab7a9244df0848122154315af71fe140f3db0fe014031783b0946b8c9d2e381565b60007f01ffc9a7000000000000000000000000000000000000000000000000000000007bffffffffffffffffffffffffffffffffffffffffffffffffffffffff1916827bffffffffffffffffffffffffffffffffffffffffffffffffffffffff1916149050919050565b600060019054906101000a900460ff1680611003575060008054906101000a900460ff16155b611042576040517f08c379a00000000000000000000000000000000000000000000000000000000081526004016110399061277c565b60405180910390fd5b60008060019054906101000a900460ff161590508015611092576001600060016101000a81548160ff02191690831515021790555060016000806101000a81548160ff0219169083151502179055505b61109a61168b565b6110a2611764565b6110aa61183d565b80156110cb5760008060016101000a81548160ff0219169083151502179055505b50565b600060019054906101000a900460ff16806110f4575060008054906101000a900460ff16155b611133576040517f08c379a000000000000000000000000000000000000000000000000000000000815260040161112a9061277c565b60405180910390fd5b60008060019054906101000a900460ff161590508015611183576001600060016101000a81548160ff02191690831515021790555060016000806101000a81548160ff0219169083151502179055505b61118b611916565b6111936119ef565b80156111b45760008060016101000a81548160ff0219169083151502179055505b50565b6111c1828261126a565b5050565b600033905090565b6111d78282610e68565b611266576111fc8173ffffffffffffffffffffffffffffffffffffffff166014611ac8565b61120a8360001c6020611ac8565b60405160200161121b92919061259d565b6040516020818303038152906040526040517f08c379a000000000000000000000000000000000000000000000000000000000815260040161125d91906126da565b60405180910390fd5b5050565b6112748282610e68565b6113475760016065600084815260200190815260200160002060000160008373ffffffffffffffffffffffffffffffffffffffff1673ffffffffffffffffffffffffffffffffffffffff16815260200190815260200160002060006101000a81548160ff0219169083151502179055506112ec6111c5565b73ffffffffffffffffffffffffffffffffffffffff168173ffffffffffffffffffffffffffffffffffffffff16837f2f8788117e7eff1d82e926ec794901d17c78024a50270940304540a733656f0d60405160405180910390a45b5050565b6113558282610e68565b156114295760006065600084815260200190815260200160002060000160008373ffffffffffffffffffffffffffffffffffffffff1673ffffffffffffffffffffffffffffffffffffffff16815260200190815260200160002060006101000a81548160ff0219169083151502179055506113ce6111c5565b73ffffffffffffffffffffffffffffffffffffffff168173ffffffffffffffffffffffffffffffffffffffff16837ff6391f5c32d9c69d2a47ea670b442974b53935d1edc7fd64eb21e047a839171b60405160405180910390a45b5050565b600061145b7f360894a13ba1a3210667c828492db98dca3e2076cc3735a920a3ca505d382bbc60001b611dc2565b60000160009054906101000a900473ffffffffffffffffffffffffffffffffffffffff16905090565b7f189ab7a9244df0848122154315af71fe140f3db0fe014031783b0946b8c9d2e36114b6816114b16111c5565b6111cd565b5050565b60006114c461142d565b90506114cf84611dcc565b6000835111806114dc5750815b156114ed576114eb8484611e85565b505b600061151b7f4910fdfa16fed3260ed0e7147f7cc6da11a60208b5b9406d12a635614ffd914360001b611f69565b90508060000160009054906101000a900460ff166116845760018160000160006101000a81548160ff0219169083151502179055506115e7858360405160240161156591906125d7565b6040516020818303038152906040527f3659cfe6000000000000000000000000000000000000000000000000000000007bffffffffffffffffffffffffffffffffffffffffffffffffffffffff19166020820180517bffffffffffffffffffffffffffffffffffffffffffffffffffffffff8381831617835250505050611e85565b5060008160000160006101000a81548160ff02191690831515021790555061160d61142d565b73ffffffffffffffffffffffffffffffffffffffff168273ffffffffffffffffffffffffffffffffffffffff161461167a576040517f08c379a00000000000000000000000000000000000000000000000000000000081526004016116719061271c565b60405180910390fd5b61168385611f73565b5b5050505050565b600060019054906101000a900460ff16806116b1575060008054906101000a900460ff16155b6116f0576040517f08c379a00000000000000000000000000000000000000000000000000000000081526004016116e79061277c565b60405180910390fd5b60008060019054906101000a900460ff161590508015611740576001600060016101000a81548160ff02191690831515021790555060016000806101000a81548160ff0219169083151502179055505b80156117615760008060016101000a81548160ff0219169083151502179055505b50565b600060019054906101000a900460ff168061178a575060008054906101000a900460ff16155b6117c9576040517f08c379a00000000000000000000000000000000000000000000000000000000081526004016117c09061277c565b60405180910390fd5b60008060019054906101000a900460ff161590508015611819576001600060016101000a81548160ff02191690831515021790555060016000806101000a81548160ff0219169083151502179055505b801561183a5760008060016101000a81548160ff0219169083151502179055505b50565b600060019054906101000a900460ff1680611863575060008054906101000a900460ff16155b6118a2576040517f08c379a00000000000000000000000000000000000000000000000000000000081526004016118999061277c565b60405180910390fd5b60008060019054906101000a900460ff1615905080156118f2576001600060016101000a81548160ff02191690831515021790555060016000806101000a81548160ff0219169083151502179055505b80156119135760008060016101000a81548160ff0219169083151502179055505b50565b600060019054906101000a900460ff168061193c575060008054906101000a900460ff16155b61197b576040517f08c379a00000000000000000000000000000000000000000000000000000000081526004016119729061277c565b60405180910390fd5b60008060019054906101000a900460ff1615905080156119cb576001600060016101000a81548160ff02191690831515021790555060016000806101000a81548160ff0219169083151502179055505b80156119ec5760008060016101000a81548160ff0219169083151502179055505b50565b600060019054906101000a900460ff1680611a15575060008054906101000a900460ff16155b611a54576040517f08c379a0000000000000000000000000000000000000000000000000000000008152600401611a4b9061277c565b60405180910390fd5b60008060019054906101000a900460ff161590508015611aa4576001600060016101000a81548160ff02191690831515021790555060016000806101000a81548160ff0219169083151502179055505b8015611ac55760008060016101000a81548160ff0219169083151502179055505b50565b606060006002836002611adb9190612aeb565b611ae591906128f3565b67ffffffffffffffff811115611b24577f4e487b7100000000000000000000000000000000000000000000000000000000600052604160045260246000fd5b6040519080825280601f01601f191660200182016040528015611b565781602001600182028036833780820191505090505b5090507f300000000000000000000000000000000000000000000000000000000000000081600081518110611bb4577f4e487b7100000000000000000000000000000000000000000000000000000000600052603260045260246000fd5b60200101907effffffffffffffffffffffffffffffffffffffffffffffffffffffffffffff1916908160001a9053507f780000000000000000000000000000000000000000000000000000000000000081600181518110611c3e577f4e487b7100000000000000000000000000000000000000000000000000000000600052603260045260246000fd5b60200101907effffffffffffffffffffffffffffffffffffffffffffffffffffffffffffff1916908160001a90535060006001846002611c7e9190612aeb565b611c8891906128f3565b90505b6001811115611d74577f3031323334353637383961626364656600000000000000000000000000000000600f861660108110611cf0577f4e487b7100000000000000000000000000000000000000000000000000000000600052603260045260246000fd5b1a60f81b828281518110611d2d577f4e487b7100000000000000000000000000000000000000000000000000000000600052603260045260246000fd5b60200101907effffffffffffffffffffffffffffffffffffffffffffffffffffffffffffff1916908160001a905350600485901c945080611d6d90612c45565b9050611c8b565b5060008414611db8576040517f08c379a0000000000000000000000000000000000000000000000000000000008152600401611daf906126fc565b60405180910390fd5b8091505092915050565b6000819050919050565b611dd581611fc2565b611e14576040517f08c379a0000000000000000000000000000000000000000000000000000000008152600401611e0b9061279c565b60405180910390fd5b80611e417f360894a13ba1a3210667c828492db98dca3e2076cc3735a920a3ca505d382bbc60001b611dc2565b60000160006101000a81548173ffffffffffffffffffffffffffffffffffffffff021916908373ffffffffffffffffffffffffffffffffffffffff16021790555050565b6060611e9083611fc2565b611ecf576040517f08c379a0000000000000000000000000000000000000000000000000000000008152600401611ec6906127dc565b60405180910390fd5b6000808473ffffffffffffffffffffffffffffffffffffffff1684604051611ef79190612586565b600060405180830381855af49150503d8060008114611f32576040519150601f19603f3d011682016040523d82523d6000602084013e611f37565b606091505b5091509150611f5f82826040518060600160405280602781526020016130a360279139611fd5565b9250505092915050565b6000819050919050565b611f7c81611dcc565b8073ffffffffffffffffffffffffffffffffffffffff167fbc7cd75a20ee27fd9adebab32041f755214dbc6bffa90cc0225b39da2e5c2d3b60405160405180910390a250565b600080823b905060008111915050919050565b60608315611fe557829050612035565b600083511115611ff85782518084602001fd5b816040517f08c379a000000000000000000000000000000000000000000000000000000000815260040161202c91906126da565b60405180910390fd5b9392505050565b600061204f61204a84612885565b612860565b90508281526020810184848401111561206757600080fd5b612072848285612c03565b509392505050565b60008135905061208981613018565b92915050565b60008151905061209e8161302f565b92915050565b6000813590506120b381613046565b92915050565b6000813590506120c88161305d565b92915050565b600082601f8301126120df57600080fd5b81356120ef84826020860161203c565b91505092915050565b60008151905061210781613074565b92915050565b60008135905061211c8161308b565b92915050565b60006020828403121561213457600080fd5b60006121428482850161207a565b91505092915050565b600080600080600060a0868803121561216357600080fd5b60006121718882890161207a565b95505060206121828882890161207a565b94505060406121938882890161207a565b93505060606121a48882890161207a565b92505060806121b58882890161207a565b9150509295509295909350565b600080604083850312156121d557600080fd5b60006121e38582860161207a565b925050602083013567ffffffffffffffff81111561220057600080fd5b61220c858286016120ce565b9150509250929050565b60006020828403121561222857600080fd5b60006122368482850161208f565b91505092915050565b60006020828403121561225157600080fd5b600061225f848285016120a4565b91505092915050565b6000806040838503121561227b57600080fd5b6000612289858286016120a4565b925050602061229a8582860161207a565b9150509250929050565b6000602082840312156122b657600080fd5b60006122c4848285016120b9565b91505092915050565b6000602082840312156122df57600080fd5b60006122ed848285016120f8565b91505092915050565b60006020828403121561230857600080fd5b60006123168482850161210d565b91505092915050565b61232881612b45565b82525050565b61233781612b57565b82525050565b61234681612b63565b82525050565b6000612357826128b6565b61236181856128cc565b9350612371818560208601612c12565b80840191505092915050565b61238681612bdf565b82525050565b6000612397826128c1565b6123a181856128d7565b93506123b1818560208601612c12565b6123ba81612d2d565b840191505092915050565b60006123d0826128c1565b6123da81856128e8565b93506123ea818560208601612c12565b80840191505092915050565b60006124036020836128d7565b915061240e82612d4b565b602082019050919050565b6000612426602f836128d7565b915061243182612d74565b604082019050919050565b6000612449602c836128d7565b915061245482612dc3565b604082019050919050565b600061246c602c836128d7565b915061247782612e12565b604082019050919050565b600061248f602e836128d7565b915061249a82612e61565b604082019050919050565b60006124b2602d836128d7565b91506124bd82612eb0565b604082019050919050565b60006124d5601a836128d7565b91506124e082612eff565b602082019050919050565b60006124f86026836128d7565b915061250382612f28565b604082019050919050565b600061251b6017836128e8565b915061252682612f77565b601782019050919050565b600061253e6011836128e8565b915061254982612fa0565b601182019050919050565b6000612561602f836128d7565b915061256c82612fc9565b604082019050919050565b61258081612bd5565b82525050565b6000612592828461234c565b915081905092915050565b60006125a88261250e565b91506125b482856123c5565b91506125bf82612531565b91506125cb82846123c5565b91508190509392505050565b60006020820190506125ec600083018461231f565b92915050565b6000606082019050612607600083018661231f565b612614602083018561231f565b6126216040830184612577565b949350505050565b600060408201905061263e600083018561231f565b61264b6020830184612577565b9392505050565b6000606082019050612667600083018661231f565b6126746020830185612577565b6126816040830184612577565b949350505050565b600060208201905061269e600083018461232e565b92915050565b60006020820190506126b9600083018461233d565b92915050565b60006020820190506126d4600083018461237d565b92915050565b600060208201905081810360008301526126f4818461238c565b905092915050565b60006020820190508181036000830152612715816123f6565b9050919050565b6000602082019050818103600083015261273581612419565b9050919050565b600060208201905081810360008301526127558161243c565b9050919050565b600060208201905081810360008301526127758161245f565b9050919050565b6000602082019050818103600083015261279581612482565b9050919050565b600060208201905081810360008301526127b5816124a5565b9050919050565b600060208201905081810360008301526127d5816124c8565b9050919050565b600060208201905081810360008301526127f5816124eb565b9050919050565b6000602082019050818103600083015261281581612554565b9050919050565b60006020820190506128316000830184612577565b92915050565b600060408201905061284c6000830185612577565b6128596020830184612577565b9392505050565b600061286a61287b565b90506128768282612c6f565b919050565b6000604051905090565b600067ffffffffffffffff8211156128a05761289f612cfe565b5b6128a982612d2d565b9050602081019050919050565b600081519050919050565b600081519050919050565b600081905092915050565b600082825260208201905092915050565b600081905092915050565b60006128fe82612bd5565b915061290983612bd5565b9250827fffffffffffffffffffffffffffffffffffffffffffffffffffffffffffffffff0382111561293e5761293d612ca0565b5b828201905092915050565b600061295482612bd5565b915061295f83612bd5565b92508261296f5761296e612ccf565b5b828204905092915050565b6000808291508390505b60018511156129c4578086048111156129a05761299f612ca0565b5b60018516156129af5780820291505b80810290506129bd85612d3e565b9450612984565b94509492505050565b60006129d882612bd5565b91506129e383612bd5565b9250612a107fffffffffffffffffffffffffffffffffffffffffffffffffffffffffffffffff8484612a18565b905092915050565b600082612a285760019050612ae4565b81612a365760009050612ae4565b8160018114612a4c5760028114612a5657612a85565b6001915050612ae4565b60ff841115612a6857612a67612ca0565b5b8360020a915084821115612a7f57612a7e612ca0565b5b50612ae4565b5060208310610133831016604e8410600b8410161715612aba5782820a905083811115612ab557612ab4612ca0565b5b612ae4565b612ac7848484600161297a565b92509050818404811115612ade57612add612ca0565b5b81810290505b9392505050565b6000612af682612bd5565b9150612b0183612bd5565b9250817fffffffffffffffffffffffffffffffffffffffffffffffffffffffffffffffff0483118215151615612b3a57612b39612ca0565b5b828202905092915050565b6000612b5082612bb5565b9050919050565b60008115159050919050565b6000819050919050565b60007fffffffff0000000000000000000000000000000000000000000000000000000082169050919050565b60006fffffffffffffffffffffffffffffffff82169050919050565b600073ffffffffffffffffffffffffffffffffffffffff82169050919050565b6000819050919050565b6000612bea82612bf1565b9050919050565b6000612bfc82612bb5565b9050919050565b82818337600083830152505050565b60005b83811015612c30578082015181840152602081019050612c15565b83811115612c3f576000848401525b50505050565b6000612c5082612bd5565b91506000821415612c6457612c63612ca0565b5b600182039050919050565b612c7882612d2d565b810181811067ffffffffffffffff82111715612c9757612c96612cfe565b5b80604052505050565b7f4e487b7100000000000000000000000000000000000000000000000000000000600052601160045260246000fd5b7f4e487b7100000000000000000000000000000000000000000000000000000000600052601260045260246000fd5b7f4e487b7100000000000000000000000000000000000000000000000000000000600052604160045260246000fd5b6000601f19601f8301169050919050565b60008160011c9050919050565b7f537472696e67733a20686578206c656e67746820696e73756666696369656e74600082015250565b7f45524331393637557067726164653a207570677261646520627265616b73206660008201527f7572746865722075706772616465730000000000000000000000000000000000602082015250565b7f46756e6374696f6e206d7573742062652063616c6c6564207468726f7567682060008201527f64656c656761746563616c6c0000000000000000000000000000000000000000602082015250565b7f46756e6374696f6e206d7573742062652063616c6c6564207468726f7567682060008201527f6163746976652070726f78790000000000000000000000000000000000000000602082015250565b7f496e697469616c697a61626c653a20636f6e747261637420697320616c72656160008201527f647920696e697469616c697a6564000000000000000000000000000000000000602082015250565b7f455243313936373a206e657720696d706c656d656e746174696f6e206973206e60008201527f6f74206120636f6e747261637400000000000000000000000000000000000000602082015250565b7f53686f756c64207374616b6520666f72206d6f72652074696d65000000000000600082015250565b7f416464726573733a2064656c65676174652063616c6c20746f206e6f6e2d636f60008201527f6e74726163740000000000000000000000000000000000000000000000000000602082015250565b7f416363657373436f6e74726f6c3a206163636f756e7420000000000000000000600082015250565b7f206973206d697373696e6720726f6c6520000000000000000000000000000000600082015250565b7f416363657373436f6e74726f6c3a2063616e206f6e6c792072656e6f756e636560008201527f20726f6c657320666f722073656c660000000000000000000000000000000000602082015250565b61302181612b45565b811461302c57600080fd5b50565b61303881612b57565b811461304357600080fd5b50565b61304f81612b63565b811461305a57600080fd5b50565b61306681612b6d565b811461307157600080fd5b50565b61307d81612b99565b811461308857600080fd5b50565b61309481612bd5565b811461309f57600080fd5b5056fe416464726573733a206c6f772d6c6576656c2064656c65676174652063616c6c206661696c6564a2646970667358221220ba9a6ee7e4c8243d11d9ec3dd97b1be7812e2653448aa6897f49bb479581b76764736f6c63430008040033",
  "devdoc": {
    "events": {
      "Subscribed(address,uint256,uint256)": {
        "details": "emitted when a user subscribes",
        "params": {
          "hoursOfSubscription": "the quantity of hours subscribtion was paid for",
          "subscriber": "the user subscribing to the song",
          "traxReward": "the reward in trax the user receives"
        }
      }
    },
    "kind": "dev",
    "methods": {
      "constructor": {
        "details": "the initializer modifier is to avoid someone initializing      the implementation contract after deployment"
      },
      "getRoleAdmin(bytes32)": {
        "details": "Returns the admin role that controls `role`. See {grantRole} and {revokeRole}. To change a role's admin, use {_setRoleAdmin}."
      },
      "grantRole(bytes32,address)": {
        "details": "Grants `role` to `account`. If `account` had not been already granted `role`, emits a {RoleGranted} event. Requirements: - the caller must have ``role``'s admin role."
      },
      "hasRole(bytes32,address)": {
        "details": "Returns `true` if `account` has been granted `role`."
      },
      "initialize(address,address,address,address,address)": {
        "details": "initializes the addresses for integration",
        "params": {
          "fundsManager_": "the address of the FundsManager contract",
          "protocol_": "the address of the ProtocolParameters contract",
          "subscriptionReward_": "the address of the SubscriptionReward contract",
          "upgrader_": "the address allowed to upgrade the contract (should be the governance)",
          "usdPeggedToken_": "the stablecoin contract address"
        }
      },
      "renounceRole(bytes32,address)": {
        "details": "Revokes `role` from the calling account. Roles are often managed via {grantRole} and {revokeRole}: this function's purpose is to provide a mechanism for accounts to lose their privileges if they are compromised (such as when a trusted device is misplaced). If the calling account had been granted `role`, emits a {RoleRevoked} event. Requirements: - the caller must be `account`."
      },
      "revokeRole(bytes32,address)": {
        "details": "Revokes `role` from `account`. If `account` had been granted `role`, emits a {RoleRevoked} event. Requirements: - the caller must have ``role``'s admin role."
      },
      "subscribe(uint256)": {
        "params": {
          "usdAmount_": "the amount of usd to pay in stablecoin"
        }
      },
      "supportsInterface(bytes4)": {
        "details": "See {IERC165-supportsInterface}."
      },
      "upgradeTo(address)": {
        "details": "Upgrade the implementation of the proxy to `newImplementation`. Calls {_authorizeUpgrade}. Emits an {Upgraded} event."
      },
      "upgradeToAndCall(address,bytes)": {
        "details": "Upgrade the implementation of the proxy to `newImplementation`, and subsequently execute the function call encoded in `data`. Calls {_authorizeUpgrade}. Emits an {Upgraded} event."
      },
      "whatDoIGet(uint256)": {
        "params": {
          "usdAmount_": "the amount of usd to pay in stablecoin"
        },
        "returns": {
          "hoursOfSubscription": "the hours the user gets",
          "traxReward": "the amount of trax as reward"
        }
      }
    },
    "title": "subscriptions manager contract",
    "version": 1
  },
  "userdoc": {
    "kind": "user",
    "methods": {
      "fundsManager()": {
        "notice": "the FundsManager contract address"
      },
      "protocol()": {
        "notice": "the ProtocolParameters contract address"
      },
      "subscribe(uint256)": {
        "notice": "allows users to subscribe to a song"
      },
      "subscriptionReward()": {
        "notice": "the SubscriptionReward contract address"
      },
      "usdPeggedToken()": {
        "notice": "the stablecoin contract address used for subscription payments"
      },
      "userHoursOfMusic(address)": {
        "notice": "the hours of music a user has paid for in the entire contract life"
      },
      "whatDoIGet(uint256)": {
        "notice": "allows to get before execute the payment, how many hours a user         gets from a specific amount of usd, and also the reward in Trax"
      }
    },
    "notice": "handle the songs subscription payments",
    "version": 1
  },
  "storageLayout": {
    "storage": [
      {
        "astId": 2915,
        "contract": "contracts/Subscription.sol:Subscription",
        "label": "_initialized",
        "offset": 0,
        "slot": "0",
        "type": "t_bool"
      },
      {
        "astId": 2918,
        "contract": "contracts/Subscription.sol:Subscription",
        "label": "_initializing",
        "offset": 1,
        "slot": "0",
        "type": "t_bool"
      },
      {
        "astId": 4517,
        "contract": "contracts/Subscription.sol:Subscription",
        "label": "__gap",
        "offset": 0,
        "slot": "1",
        "type": "t_array(t_uint256)50_storage"
      },
      {
        "astId": 4900,
        "contract": "contracts/Subscription.sol:Subscription",
        "label": "__gap",
        "offset": 0,
        "slot": "51",
        "type": "t_array(t_uint256)50_storage"
      },
      {
        "astId": 2142,
        "contract": "contracts/Subscription.sol:Subscription",
        "label": "_roles",
        "offset": 0,
        "slot": "101",
        "type": "t_mapping(t_bytes32,t_struct(RoleData)2137_storage)"
      },
      {
        "astId": 2427,
        "contract": "contracts/Subscription.sol:Subscription",
        "label": "__gap",
        "offset": 0,
        "slot": "102",
        "type": "t_array(t_uint256)49_storage"
      },
      {
        "astId": 2898,
        "contract": "contracts/Subscription.sol:Subscription",
        "label": "__gap",
        "offset": 0,
        "slot": "151",
        "type": "t_array(t_uint256)50_storage"
      },
      {
        "astId": 3065,
        "contract": "contracts/Subscription.sol:Subscription",
        "label": "__gap",
        "offset": 0,
        "slot": "201",
        "type": "t_array(t_uint256)50_storage"
      },
      {
        "astId": 6299,
        "contract": "contracts/Subscription.sol:Subscription",
        "label": "protocol",
        "offset": 0,
        "slot": "251",
        "type": "t_contract(ProtocolParameters)6901"
      },
      {
        "astId": 6302,
        "contract": "contracts/Subscription.sol:Subscription",
        "label": "fundsManager",
        "offset": 0,
        "slot": "252",
        "type": "t_address"
      },
      {
        "astId": 6305,
        "contract": "contracts/Subscription.sol:Subscription",
        "label": "subscriptionReward",
        "offset": 0,
        "slot": "253",
        "type": "t_address"
      },
      {
        "astId": 6308,
        "contract": "contracts/Subscription.sol:Subscription",
        "label": "usdPeggedToken",
        "offset": 0,
        "slot": "254",
        "type": "t_address"
      },
      {
        "astId": 6313,
        "contract": "contracts/Subscription.sol:Subscription",
        "label": "userHoursOfMusic",
        "offset": 0,
        "slot": "255",
        "type": "t_mapping(t_address,t_uint256)"
      }
    ],
    "types": {
      "t_address": {
        "encoding": "inplace",
        "label": "address",
        "numberOfBytes": "20"
      },
      "t_array(t_uint256)49_storage": {
        "base": "t_uint256",
        "encoding": "inplace",
        "label": "uint256[49]",
        "numberOfBytes": "1568"
      },
      "t_array(t_uint256)50_storage": {
        "base": "t_uint256",
        "encoding": "inplace",
        "label": "uint256[50]",
        "numberOfBytes": "1600"
      },
      "t_bool": {
        "encoding": "inplace",
        "label": "bool",
        "numberOfBytes": "1"
      },
      "t_bytes32": {
        "encoding": "inplace",
        "label": "bytes32",
        "numberOfBytes": "32"
      },
      "t_contract(ProtocolParameters)6901": {
        "encoding": "inplace",
        "label": "contract ProtocolParameters",
        "numberOfBytes": "20"
      },
      "t_mapping(t_address,t_bool)": {
        "encoding": "mapping",
        "key": "t_address",
        "label": "mapping(address => bool)",
        "numberOfBytes": "32",
        "value": "t_bool"
      },
      "t_mapping(t_address,t_uint256)": {
        "encoding": "mapping",
        "key": "t_address",
        "label": "mapping(address => uint256)",
        "numberOfBytes": "32",
        "value": "t_uint256"
      },
      "t_mapping(t_bytes32,t_struct(RoleData)2137_storage)": {
        "encoding": "mapping",
        "key": "t_bytes32",
        "label": "mapping(bytes32 => struct AccessControlUpgradeable.RoleData)",
        "numberOfBytes": "32",
        "value": "t_struct(RoleData)2137_storage"
      },
      "t_struct(RoleData)2137_storage": {
        "encoding": "inplace",
        "label": "struct AccessControlUpgradeable.RoleData",
        "members": [
          {
            "astId": 2134,
            "contract": "contracts/Subscription.sol:Subscription",
            "label": "members",
            "offset": 0,
            "slot": "0",
            "type": "t_mapping(t_address,t_bool)"
          },
          {
            "astId": 2136,
            "contract": "contracts/Subscription.sol:Subscription",
            "label": "adminRole",
            "offset": 0,
            "slot": "1",
            "type": "t_bytes32"
          }
        ],
        "numberOfBytes": "64"
      },
      "t_uint256": {
        "encoding": "inplace",
        "label": "uint256",
        "numberOfBytes": "32"
      }
    }
  }
}